:020000040000FA
:0600000040EF44F0120085
:020006001200E6
:0600080044EF26F0120097
:02000E001200DE
:020010000100ED
:0100120000ED
:0500130000000000F6F2
:060018002EEF18F01200AB
:02001E000800D8
:10002000D8890000F2070000040000009889000051
:10003000990900004000000013000000ED070000D7
:100040000500000073890000D804000025000000AE
:100050003E890000C80500003500000012000000C5
:10006000FF05000001000000E58800000009000015
:100070005900000010000000FD0400000200000014
:10008000FAEC0CF040EC0DF0EE6AEE6AEE6AEE6A05
:1000900073EC0CF0EE6AEE6AEE6AEE6AAFEC09F011
:1000A000010EEE6E230EEE6E450EEE6E670EEE6ED8
:1000B000AFEC09F0040EF1EC0AF0890EEE6EAB0E17
:1000C000EE6ECD0EEE6EEF0EEE6EAFEC09F0080E9A
:1000D000F1EC0AF0FE0EEE6EDC0EEE6EBA0EEE6E77
:1000E000980EEE6EAFEC09F00C0EF1EC0AF0760E05
:1000F000EE6E540EEE6E320EEE6E100EEE6EE55299
:10010000E7CFD9FF1200FAEC0CF0080EE126030E3F
:10011000046E73EC0CF025EC0BF003E045EC0BF0F7
:10012000FDE13F0E00167FEC0BF0B4EC0CF0F90E85
:10013000DBCF04F0FA0EDBCF05F0066A076A05AEE6
:1001400002D006680768030E1F0B07E0D89004363C
:10015000053606360736E806F9E173EC0CF0045074
:10016000EF26EECF00F00550EF22EECF01F0065063
:10017000EF22EECF02F00750EF22EECF03F0F90EA0
:10018000DBCF08F0FA0EDBCF09F00A6A0B6A09AE82
:1001900002D00A680B68030E1F0B03E056EC0BF04D
:1001A000FDE10850005C095001580A5002580B50FC
:1001B000035806E240EC0DF0EE2AEE22EE22EE228B
:1001C0005DEC0BF0026A036A01AE02D002680368BC
:1001D0001D0E45EC0BF0FDE140EC0DF0EDEC0CF0EC
:1001E000400E046E056A066A076AD9CFE9FF2BEC58
:1001F0000BF0EE500758060E00C0DBFF070E01C0E3
:10020000DBFF5DEC0BF017EC0DF001500318E8AECE
:1002100002D0033404D00250005C035001586AE35A
:10022000060EDBCFE6FF070EDBCFE6FF19EC0BF087
:10023000F6EC0CF0E9CF02F0EACF03F0DB50E92452
:10024000006E010EDB50EA2075EC0BF076EC37F017
:10025000046E060EE15E0450F6EC0CF010EC0BF0B0
:10026000AFEC09F0E9CF02F0EACF03F034EC0BF089
:10027000060EDBCF28F0070EDBCF29F0040E28C0D6
:10028000DBFF050E29C0DBFF3F0EE76EDDEC0CF057
:10029000E7500026000E0122D6EC0CF001500318A6
:1002A000E8AE02D0033404D00250005C0350015881
:1002B0001EE2040EDBCF02F0050EDBCF03F0FB0ED7
:1002C000DB500224006EFC0EDB50032075EC0BF0BB
:1002D000AFEC09F0E9CF04F0EACF05F034EC0BF015
:1002E00033EC0DF0400EEE26000EED22CDD71EECC5
:1002F0000DF004D0040EDB6A050EDB6AD6EC0CF0C0
:10030000040EDB50025C006E050EDB50035875ECEA
:100310000BF04CEC0BF0046EFC0EDB500720056E6E
:1003200004C0E6FFE66EF6EC0CF0E9CF0AF0EACF87
:100330000BF0DB50E924086E010EDB50EA20096E59
:1003400008C0E6FFE66E76EC37F00C6E060EE15E56
:100350000C50080EE15C02E2E16AE55220EF0BF07E
:100360006AEC0BF0080E3FEC0BF0100EF1EC0AF00B
:1003700010EC0BF0D9CFE6FFDACFE6FF64EC0BF020
:10038000030E046E25EC0DF0100EF1EC0AF025ECD6
:100390000BF003E045EC0BF0FDE13F0E00167FECA7
:1003A0000BF063EC0CF0380EEE5C000EEE58000E15
:1003B000EE58000EEE580DE2380E046E056A066A1D
:1003C000076A3CEC0DF02BEC0BF0026EEE50075878
:1003D00013D0780E086E096A0A6A0B6A3CEC0DF0BD
:1003E00084EC0DF0085C006EEE500958016EEE5082
:1003F0000A58026EEE500B58036E80EC0CF00C0E97
:10040000DBCFE6FF0D0EDBCFE6FF990EE66E090EA1
:10041000E66E19EC0BF06EEC0BF0080EE66EE66A79
:10042000D9CFE6FFDACFE6FF19EC0BF06EEC0BF05C
:10043000100E3FEC0BF010EC0BF0FD0EDBCFE6FFE7
:10044000FE0EDBCFE6FF64EC0BF0100EE15C02E287
:10045000E16AE55220EF0BF06AEC0BF0AFEC09F02B
:10046000EECFDFFF010EEECFDBFF020EEECFDBFFA4
:10047000030EEECFDBFF040E55EC0CF0040EEECFB6
:10048000DBFF050EEECFDBFF060EEECFDBFF070E28
:10049000EECFDBFF080E55EC0CF0080EEECFDBFFC5
:1004A000090EEECFDBFF0A0EEECFDBFF0B0EEECF19
:1004B000DBFF0C0E55EC0CF00C0EEECFDBFF0D0E3F
:1004C000EECFDBFF0E0EEECFDBFF0F0EEECFDBFF2E
:1004D000400EE66EE66AE66AE66A19EC0BF0590E23
:1004E000E66E090EE66E25EC08F0006E080EE15E81
:1004F0000050C9EC0BF010EC0AF0780E0026A40EA8
:1005000001226A0E0222D70EFFEC0CF003E055EC3C
:1005100009F0FDE127EC09F0190E44EC09F0FDE1CA
:1005200083EC0BF01DEC0AF0560E0026B70E0122EC
:10053000C70E0222E80E71EC0DF003E055EC09F055
:10054000FDE137EC09F0140E44EC09F0FDE19EECFE
:100550000BF02AEC0AF0DB0E0026700E0122200EB2
:100560000222240E44EC0DF003E055EC09F0FDE10D
:100570001AEC09F00F0E44EC09F0FDE1B6EC0BF0BB
:1005800037EC0AF0EE0E0026CE0E0122BD0E02223E
:10059000C10E75EC0DF003E055EC09F0FDE12AEC1D
:1005A00009F00A0E44EC09F0FDE179EC0DF044ECA1
:1005B0000AF0AF0E00260F0E01227C0E0222F50E6D
:1005C000FFEC0CF003E055EC09F0FDE127EC09F03D
:1005D000190E44EC09F0FDE183EC0BF051EC0AF04C
:1005E0002A0E0026C60E0122870E0222470E71EC4B
:1005F0000DF003E055EC09F0FDE137EC09F0140EC5
:1006000044EC09F0FDE19EEC0BF05EEC0AF0130EF9
:100610000026460E0122300E0222A80E44EC0DF0F8
:1006200003E055EC09F0FDE11AEC09F00F0E44EC83
:1006300009F0FDE1B6EC0BF06BEC0AF0002A950E28
:100640000122460E11EC0DF0160E1F0B03E055ECC7
:1006500009F0FDE12AEC09F00A0E44EC09F0FDE195
:1006600079EC0DF078EC0AF0D80E0026980E0122F5
:10067000800E0222690EFFEC0CF003E055EC09F04D
:10068000FDE127EC09F0190E44EC09F0FDE183ECE3
:100690000BF085EC0AF0AF0E0026F70E0122440E97
:1006A00002228B0E71EC0DF003E055EC09F0FDE138
:1006B00037EC09F0140E44EC09F0FDE19EEC0BF070
:1006C00092EC0AF0B10E00265B0E0122FF0E022210
:1006D00044EC0DF003E055EC09F0FDE11AEC09F0F3
:1006E0000F0E44EC09F0FDE1B6EC0BF09FEC0AF0C4
:1006F000BE0E0026D70E01225C0E0222890E75EC7A
:100700000DF003E055EC09F0FDE12AEC09F00A0ECA
:1007100044EC09F0FDE179EC0DF0ACEC0AF0220EAE
:100720000026110E0122900E02226B0EFFEC0CF03F
:1007300003E055EC09F0FDE127EC09F0190E44EC5B
:1007400009F0FDE183EC0BF0B9EC0AF0930E002602
:10075000710E0122980E7AEC0BF00C0FF4EC08F0FD
:1007600076EC09F00C0E1F0B03E055EC09F0FDE1EF
:1007700037EC09F0140E44EC09F0FDE19EEC0BF0AF
:10078000C6EC0AF08E0E0026430E0122790E0222DC
:10079000A60E44EC0DF003E055EC09F0FDE11AEC77
:1007A00009F00F0E44EC09F0FDE1B6EC0BF0D3ECD0
:1007B0000AF0210E0026080E0122B40E0222490E74
:1007C00075EC0DF003E055EC09F0FDE12AEC09F0C1
:1007D0000A0E44EC09F0FDE1EAEC0BF01DEC0AF026
:1007E000620E0026250E01221E0E0222F60E03ECDA
:1007F0000DF003E055EC09F0FDE127EC09F01B0ECC
:1008000044EC09F0FDE106EC0CF05EEC0AF0400E61
:100810000026B30E0122400E0222C00E48EC0DF05D
:1008200003E055EC09F0FDE137EC09F0170E44EC5C
:1008300009F0FDE1DDEC0BF09FEC0AF0510E002613
:100840005A0E01225E0E0222260E4CEC0DF003E041
:1008500055EC09F0FDE11AEC09F0120E44EC09F038
:10086000FDE1F2EC0BF010EC0AF0AA0E0026C70E28
:100870000122B60E0222E90E50EC0DF003E055EC19
:1008800009F0FDE12AEC09F00C0E44EC09F0FDE161
:10089000EAEC0BF051EC0AF05D0E0026100E01227E
:1008A0002F0E0222D60E03EC0DF003E055EC09F0FA
:1008B000FDE127EC09F01B0E44EC09F0FDE106EC2C
:1008C0000CF092EC0AF0530E0026140E0122440E96
:1008D0000222020E48EC0DF003E055EC09F0FDE1B8
:1008E00037EC09F0170E44EC09F0FDE1DDEC0BF0FC
:1008F000D3EC0AF0810E0026E60E0122A10E0222A0
:10090000D80E4CEC0DF003E055EC09F0FDE11AECCB
:1009100009F0120E44EC09F0FDE1F2EC0BF044ECAE
:100920000AF0C80E0026FB0E0122D30E0222E70EAB
:1009300050EC0DF003E055EC09F0FDE12AEC09F074
:100940000C0E44EC09F0FDE1EAEC0BF085EC0AF04A
:10095000E60E0026CD0E0122E10E0222210E03EC4E
:100960000DF003E055EC09F0FDE127EC09F01B0E5A
:1009700044EC09F0FDE106EC0CF0C6EC0AF0D60EF2
:100980000026070E0122370E0222C30E48EC0DF09E
:1009900003E055EC09F0FDE137EC09F0170E44ECEB
:1009A00009F0FDE1DDEC0BF037EC0AF0870E0026D4
:1009B0000D0E0122D50E0222F40E4CEC0DF003E0D8
:1009C00055EC09F0FDE11AEC09F0120E44EC09F0C7
:1009D000FDE1F2EC0BF078EC0AF0ED0E0026140EBF
:1009E00001225A0E0222450E50EC0DF003E055ECA8
:1009F00009F0FDE12AEC09F00C0E44EC09F0FDE1F0
:100A0000EAEC0BF0B9EC0AF0050E0026E90E012223
:100A1000E30E0222A90E03EC0DF003E055EC09F001
:100A2000FDE127EC09F01B0E44EC09F0FDE106ECBA
:100A30000CF02AEC0AF0F80E0026A30E0122EF0EAD
:100A40000222FC0E48EC0DF003E055EC09F0FDE14C
:100A500037EC09F0170E44EC09F0FDE1DDEC0BF08A
:100A60006BEC0AF0D90E0026020E01226F0E022254
:100A7000670E4CEC0DF003E055EC09F0FDE1DADB1C
:100A8000120E44EC09F0FDE1F2EC0BF0ACEC0AF0D4
:100A90008A0E00264C0E01222A0E02228D0E50ECE8
:100AA0000DF003E055EC09F0FDE1D4DB0C0EECDBBE
:100AB000FEE121EC0CF051EC0AF0420E0026390E5A
:100AC0000122FA0E0222FF0E07EC0DF002E0EDDB30
:100AD000FEE1BDDB1C0ED8DBFEE139EC0CF078EC5E
:100AE0000AF0810E0026F60E0122710E0222870EF8
:100AF00054EC0DF002E0D9DBFEE1B9DB150EC4DBEE
:100B0000FEE128EC0CF09FEC0AF0220E0026610EAC
:100B100001229D0E02226D0E58EC0DF002E0C5DBA5
:100B2000FEE188DB100EB0DBFEE141EC0CF0C6EC20
:100B30000AF00C0E0026380E0122E50E11EC0DF025
:100B4000170E1F0B02E0B1DBFEE184DB090E9CDB1C
:100B5000FEE121EC0CF01DEC0AF0440E0026EA0E3A
:100B60000122BE0E0222A40E07EC0DF002E09DDB76
:100B7000FEE16DDB1C0E88DBFEE139EC0CF044EC91
:100B80000AF0A90E0026CF0E0122DE0E02224B0E25
:100B900054EC0DF002E089DBFEE169DB150E74DB3D
:100BA000FEE128EC0CF06BEC0AF0600E00264B0E18
:100BB0000122BB0E0222F60E58EC0DF002E075DBAE
:100BC000FEE138DB100E60DBFEE141EC0CF092EC54
:100BD0000AF0700E0026BC0E0122BF0E0222BE0ECD
:100BE0007DEC0DF002E061DBFEE134DB090E4CDB55
:100BF000FEE121EC0CF0B9EC0AF0C60E00267E0EE8
:100C000001229B0E0222280E07EC0DF002E04DDBC4
:100C1000FEE11DDB1C0E38DBFEE139EC0CF010ECC4
:100C20000AF0FA0E0026270E0122A10E0222EA0E79
:100C300054EC0DF002E039DBFEE119DB150E24DB8C
:100C4000FEE128EC0CF037EC0AF0850E0026300EA1
:100C50000122EF0E0222D40E58EC0DF002E025DB4B
:100C6000FEE1E8DA100E10DBFEE141EC0CF05EEC88
:100C70000AF0050E00261D0E0122880E0222040E27
:100C80007DEC0DF002E011DBFEE1E4DA090EFCDAA6
:100C9000FEE121EC0CF085EC0AF0390E0026D00EB6
:100CA0000122D40E0222D90E07EC0DF002E0FDDA8B
:100CB000FEE1CDDA1C0EE8DAFEE139EC0CF0ACEC2A
:100CC0000AF0E50E0026990E0122DB0E0222E60E46
:100CD00054EC0DF002E0E9DAFEE1C9DA150ED4DADF
:100CE000FEE128EC0CF0D3EC0AF0F80E00267C0EA6
:100CF0000122A20E02221F0E58EC0DF002E0D5DAFE
:100D0000FEE198DA100EC0DAFEE141EC0CF0A2DB55
:100D1000650E0026560E0122AC0E0222C40E7DEC9A
:100D20000DF002E0C2DAFEE195DA090EADDAFEE17D
:100D30000FEC0CF075DB440E0026220E0122290E6A
:100D40000222F40E0CEC0DF002E0AFDAFEE17FDAE5
:100D50001A0E9ADAFEE1FAEC0BF0BDDB970E0026D4
:100D6000FF0E01222A0E0222430E5CEC0DF002E07F
:100D70009CDAFEE17CDA160E87DAFEE12FEC0CF04D
:100D8000C6EC0AF0A70E0026230E0122940E0222C2
:100D9000AB0E60EC0DF002E088DAFEE14BDA110EEA
:100DA00073DAFEE118EC0CF07CDB390E0026A00EA5
:100DB0000122930E0222FC0E64EC0DF002E075DAC3
:100DC000FEE148DA0B0E60DAFEE10FEC0CF0C4DB5A
:100DD000C30E0026590E01225B0E0222650E0CEC9A
:100DE0000DF002E062DAFEE132DA1A0E4DDAFEE1CF
:100DF000FAEC0BF03CDB920E0026CC0E01220C0E1E
:100E000002228F0E5CEC0DF002E04FDAFEE12FDAE9
:100E1000160E3ADAFEE12FEC0CF084DB7D0E002694
:100E2000F40E0122EF0E0222FF0E60EC0DF002E044
:100E30003CDAFEE1FFD9110E27DAFEE118EC0CF0E6
:100E4000FCDAD10E00265D0E0122840E0222850EF0
:100E500064EC0DF002E029DAFEE1FCD90B0E14DAA5
:100E6000FEE10FEC0CF044DB4F0E00267E0E01225B
:100E7000A80E02226F0E0CEC0DF002E016DAFEE175
:100E8000E6D91A0E01DAFEE1FAEC0BF08CDBE00E8B
:100E90000026E60E01222C0E0222FE0E5CEC0DF066
:100EA00002E003DAFEE1E3D9160EEED9FEE12FEC03
:100EB0000CF004DB140E0026430E0122010E022268
:100EC000A30E60EC0DF002E0F0D9FEE1B3D9110EF3
:100ED000DBD9FEE118EC0CF04CDBA10E0026110E64
:100EE0000122080E02224E0E64EC0DF002E0DDD964
:100EF000FEE1B0D90B0EC8D9FEE10FEC0CF0C4DA5C
:100F0000820E00267E0E0122530E0222F70E0CECFA
:100F10000DF002E0CAD9FEE19AD91A0EB5D9FEE168
:100F2000FAEC0BF00CDB350E0026F20E01223A0E25
:100F30000222BD0E5CEC0DF002E0B7D9FEE197D9BC
:100F4000160EA2D9FEE12FEC0CF084DABB0E0026BF
:100F5000D20E0122D70E02222A0E60EC0DF002E022
:100F6000A4D9FEE167D9110E8FD9FEE118EC0CF07F
:100F7000CCDA910E0026D30E0122860E0222EB0E51
:100F800064EC0DF002E091D9FEE164D90B0E7CD93E
:100F9000FEE10BD9E4D9C0EC0CF0040E55EC0CF0DA
:100FA000A7EC0CF0080E55EC0CF09AEC0CF00C0EC3
:100FB00055EC0CF08DEC0CF0100EE15C02E2E16AF5
:100FC000E5523ED312DBFCDA3AE2DFCF06F0010E47
:100FD000DBCF07F0D89006360736D89006360736AE
:100FE000FB0EDB50062413EC0DF00720EA6EEECF6B
:100FF00002F00250E66EDDEC0CF0B8D9080E44D9D0
:10100000FEE10450E66E010E49EC0CF0AFD9100E73
:101010003BD9FEE10450E66E020E49EC0CF0A6D975
:10102000180E32D9FEE10450E66E030E49EC0CF0C6
:1010300077EC0CF0E552E750EF6EE4DAC4D7080E17
:10104000E15C02E2E16AE552FBD2CFDAB9DA01E310
:10105000A2D022DB13EC0DF00720EA6EEFCF02F0F6
:10106000036A046A056A010E0C6E0D6A0E6A0F6A45
:1010700033EC0DF0EE500C26EE500D22EE500E2209
:10108000EE500F22FB0EDB500C2413EC0DF00D2064
:10109000EA6EEFCF08F0096A0A6A0B6A080E1F0BA6
:1010A00002E004DBFEE108500212095003120A506C
:1010B00004120B500512020E146E156A166A176A96
:1010C00033EC0DF0EE501426EE501522EE501622A1
:1010D000EE501722FB0EDB50142413EC0DF01520FC
:1010E000EA6EEFCF10F0116A126A136A100E1F0B2E
:1010F00007E0D8901036113612361336E806F9E1BB
:101100001050021211500312125004121350051203
:10111000030E1C6E1D6A1E6A1F6A33EC0DF0EE5042
:101120001C26EE501D22EE501E22EE501F22FB0EFA
:10113000DB501C2413EC0DF01D20EA6EEFCF18F0ED
:10114000196A1A6A1B6A180E1F0B07E0D890183626
:1011500019361A361B36E806F9E1185002121950F2
:1011600003121A5004121B500512DFCF00F0010EBB
:10117000DBCF01F0D89000360136D890003601362A
:10118000B6DB02C0EEFF03C0EEFF04C0EEFF05C0F9
:10119000EEFF38DA5BD7080EE15C02E2E16AE55265
:1011A0004FD288DB90DB8DEF0CF084DB040E00C0A7
:1011B000DBFF050E01C0DBFF060E02C0DBFF070EE2
:1011C00003C0DBFF33EC0DF09AEF0CF073DB98DB20
:1011D00068EC0DF0DACFEAFFC0EF0CF06BDBC4DB9C
:1011E00037EC0DF0A7EF0CF0E96EDACFEAFFEDEF88
:1011F0000CF0DACFEAFF0C50EE14086E0D50EE142E
:10120000096E0E50EE140A6E0F50EE140B6EC4D31E
:1012100003220050DE260150DE220250DE2203505F
:10122000DD22DD52DD5237EC0DF02CEC0DF0EFCF6E
:1012300003F01200080EDBCF04F0090EDBCF05F03F
:101240000A0EDBCF06F00B0EDBCF07F0120037ECF7
:101250000DF0BAD3040EDBCF04F0050EDBCF05F0A2
:10126000060EDBCF06F0070EDBCF07F012000C0EE8
:10127000DBCF04F00D0EDBCF05F00E0EDBCF06F05A
:101280000F0EDBCF07F01200D8900732063205327E
:101290000432E806120084EC0DF00816EE50091630
:1012A000EE500A16EE500B1677D3D8900036013662
:1012B00002360336E806120084EC0DF00416EE50F8
:1012C0000516EE500616EE5007161200DACFEAFFAA
:1012D0000850EE18046E0950EE18056E0A50EE180C
:1012E000066E0B50EE18076E045012000C0EDBCF8A
:1012F00000F00D0EDBCF01F00E0EDBCF02F00F0E73
:10130000DBCF03F01200080EDBCF00F0090EDBCFBD
:1013100001F00A0EDBCF02F00B0EDBCF03F0120060
:101320004CDB17EF0DF0F0DB041AEE50051AEE500F
:10133000061AEE50071A04501200E6DB081AEE50A7
:10134000091AEE500A1AEE500B1A1200DDDB0412D5
:10135000EE500512EE500612EE5007121200FD0E6E
:10136000DBCFE9FFFE0EDBCFEAFF1200C0DAE55269
:10137000E750EF6EDFCF08F0010EDBCF09F0D89019
:1013800008360936D89008360936FB0EDB5008249B
:101390004ADB0920EA6E18D30C0EDBCF08F00D0EE5
:1013A000DBCF09F00E0EDBCF0AF00F0EDBCF0BF018
:1013B0001200080EDBCF08F0090EDBCF09F00A0E91
:1013C000DBCF0AF00B0EDBCF0BF01200040EDBCFED
:1013D00008F0050EDBCF09F0060EDBCF0AF0070E92
:1013E000DBCF0BF0120043DBEECF08F0EECF09F0BD
:1013F000EECF0AF0EFCF0BF01200DBCF0FF00C1E98
:101400000D1E0E1E0F1E1200081E091E0A1E0B1EA8
:10141000D9501200041E051E061E071ED9501200C8
:1014200009015925006E05505A21016E06505B21B5
:10143000026E07505C21036E120009015D25006EEB
:1014400005505E21016E06505F21026E075060213B
:10145000036E120009016125006E05506221016EC4
:1014600006506321026E07506421036E12000901C9
:101470006525006E05506621016E06506721026EDB
:1014800007506821036E120009016925006E05509E
:101490006A21016E06506B21026E07506C21036EAB
:1014A000120009016D25006E05506E21016E065077
:1014B0006F21026E07507021036E12000901712521
:1014C000006E05507221016E06507321026E0750A6
:1014D0007421036E120009017525006E05507621F6
:1014E000016E06507721026E07507821036E1200BC
:1014F00009017925006E05507A21016E06507B2185
:10150000026E07507C21036E120009017D25006EDA
:1015100005507E21016E06507F21026E075080210A
:10152000036E120009018125006E05508221016EB3
:1015300006508321026E07508421036E12000901B8
:101540008525006E05508621016E06508721026EAA
:1015500007508821036E120009018925006E05508D
:101560008A21016E06508B21026E07508C21036E7A
:10157000120009018D25006E05508E21016E065066
:101580008F21026E07509021036E120009019125F0
:10159000006E05509221016E06509321026E075095
:1015A0009421036E120009019525006E05509621C5
:1015B000016E06509721026E07509821036E1200AB
:1015C000F70EDBCF00F0F80EDBCF01F0EFD94BDAEE
:1015D0000050EE5C0150EE580250EE580350EE58A9
:1015E0001200E926000EEA22120004DA080EE126B3
:1015F00025DA040EDB6A050EDB6A060EDB6A070ECF
:10160000DB6A120034DAEE2A000EEE22EE22EE221F
:101610002ADA040EEE26000EEE22EE22EE22120050
:10162000E9CF00F0EACF01F0E9CFE6FFEACFE6FF2D
:101630001200FB0EDBCFE6FFFC0EDBCFE6FF120055
:10164000E16EE552E7CFD9FF120004501F0B04DA18
:10165000EECF03F0120058DA045C006EEE5005582D
:10166000016EEE5006581200E9CFE6FFEACFE6FF22
:101670002CEC02F0E552E552E552E5521200E66E1E
:10168000E66AE66AE66A25EF0DF0D8900332023288
:1016900001320032E8061200040EDBCF06F0050E20
:1016A000DBCF07F0FB0EDB5006241200D890083683
:1016B00009360A360B36E8061200F90EDBCF00F0C9
:1016C000FA0EDBCF01F012007DDC026E080EE15E47
:1016D000025012008FD9100EE126120083EC00F0A8
:1016E000006E060EE15E00501200016E00C0E6FFC3
:1016F000E66E12000222FD0E0322D9501200016A8A
:10170000026A036A12006ADDA5DDD9CFE9FFD4DDE4
:10171000AED9EECF0CF0EECF0DF0EECF0EF0EFCF56
:101720000FF00C1E0D1E0E1E0F1EA6D9F9EF08F0AD
:101730000322D950080F58DD83EF09F047DD87DD1C
:10174000C7D9BADD0C0EDBCF0CF00D0EDBCF0DF0E0
:101750000E0EDBCF0EF00F0E50DEDAD9F9EF08F0E7
:101760000322D9500C0F40DD76EF09F01ADD7FDD42
:1017700083D9A2DD080EDBCF0CF0090EDBCF0DF014
:101780000A0EDBCF0EF00B0E38DED9CFE9FFF9EFF2
:1017900008F050DDBDD990DD040EDBCF0CF0050E56
:1017A000DBCF0DF0060EDBCF0EF0070E26DE90D954
:1017B000F9EF08F00322D9508FD108DD4BDD88D92D
:1017C0007BDD04DE081E091E0A1E0B1ED9CFE9FFB1
:1017D0004BEF09F0EADC4BDD9BD96EDDDDDD14DE7D
:1017E000080F8FD1DEDC33DD47D966DDFCDD0CDE92
:1017F0000C0F87D1F3DC1EDD041E051E061E071E1E
:10180000D9CFE9FFA3DD84D993EF09F0E7DC12DD3E
:10181000D9CFE9FF51DDCDDDF7DD040F72D1C5DC95
:1018200026DDF8DD040FE96E91DD26D993EF09F08E
:10183000B8DC0DDDEFDD080FE96E88DD49D993EFE7
:1018400009F0B3DCB6DD64D978DD42D966EF09F082
:10185000BDDCC9DD3DD971DD5BD966EF09F0B6DCD1
:10186000F9DCD8DD0C0FE96E71DDD9CFE9FF93EF1C
:1018700009F0B4DCABDDD9CFE9FF5FDDFDD866EF61
:1018800009F08FDC89DDF8D858DDD9CFE9FF66EFA4
:1018900009F0006E34DFE7D8EE500026EE5001224A
:1018A000EE500222EE5003221200E76E58DDE750A0
:1018B000F1EF0AF004500012055001120650021216
:1018C000075003121200080E00C0DBFF090E01C012
:1018D000DBFF0A0E02C0DBFF0B0E03C0DBFFCCD820
:1018E000DACFEAFF12003BDD100EF1EF0AF0FD0E39
:1018F000DB500024E96EFE0EDB500120EA6E120080
:101900000C0E00C0DBFF0D0E01C0DBFF0E0E02C08F
:10191000DBFF0F0E03C0DBFF12000C0EDB50EE26C8
:101920000D0EDB50EE220E0EDB50EE220F0EDB50C2
:10193000EE221200080EDB50EE26090EDB50EE22DE
:101940000A0EDB50EE220B0EDB50EE221200040ECC
:10195000DB50EE26050EDB50EE22060EDB50EE22AB
:10196000070EDB50EE22120000C0DFFF010E01C0A7
:10197000DBFF020E02C0DBFF030E03C0DBFF120021
:10198000DF50EE26010EDB50EE22020EDB50EE227F
:10199000030EDB50EE22120008500412095005120B
:1019A0000A5006120B50071204501200F90EDBCF3A
:1019B00002F0FA0EDBCF03F01200040EDBCF00F0D2
:1019C000050EDBCF01F01200EECF04F0EECF05F0F4
:1019D000EECF06F0EFCF07F012000050EE260150D8
:1019E000EE220250EE220350EE221200B8DC180E56
:1019F000F1EF0AF0D9CFE6FFE1CFD9FF120008DC02
:101A0000070E1F0B120004DC050E1F0B120008EC62
:101A100009F0040E1F0B120008EC09F0060E1F0B54
:101A2000120068DE59D0E96EFC0EDB501200060E83
:101A3000DBCF02F0070EDBCF03F01200DE6ADE6AB6
:101A4000DE6ADD6ADD52DD521200FB0EDBCFE9FFFC
:101A5000FC0EDBCFEAFF1200EECF00F0EECF01F07C
:101A6000EECF02F0120054D8DACFEAFF1200D9CF3D
:101A7000E9FFDACFEAFF1200D950080FE96E120031
:101A800032DF040EF1EF0AF053DE110E1F0B1200CD
:101A900067DE090E1F0B12004BDE0E0E1F0B12002D
:101AA00089DE140E1F0B12005BDE0B0E1F0B1200E3
:101AB0003FDE100E1F0B120053DE0A0E1F0B12002A
:101AC00037DE0F0E1F0B120075DE150E1F0B1200F6
:101AD000D9500C0FE96E1200040FF4EC08F090EFEF
:101AE00009F03EDE0C0E1F0B120064DE160E1F0BFB
:101AF0001200D5EC08F0C9EF0BF05CDE170E1F0BDF
:101B00001200E96E4BEF09F0DACFEAFFEE50120057
:081B1000D950040FE96E120028
:081B18000501FB6BFC6B1200E0
:101B20000501CA6B12000501010ECB6F050E6FECAB
:101B300016F006016B0EFD6F680EC9EC16F00A0E6A
:101B40006FEF16F00601690EFD6F680EC9EF16F013
:101B5000BEEC15F0030EE1260501FA0546E1450E3F
:101B60000601055D42E0410E055D3FE0610E055D49
:101B70003CE0670E055D39E0500E055D36E0020E73
:101B800005C6DBFF060EE66E060EE66EFAEC17F0F3
:101B9000B7EC16F0F6EC15F046EC16F002E6D5ECD4
:101BA00016F005E265EC17F0F7E3DB2AF5D7000E37
:101BB000E66E050EA9EC17F0000EE66E050E97EC2A
:101BC00015F0610E006E680E52EC17F0020EDBCFBE
:101BD00007F6080EE66E060EE66E28EC16F0FAEC36
:101BE00017F0EAEC2FF08AEC16F0000EE66E060E07
:101BF000A9EC17F040EC16F028EC16F0F2EC17F018
:101C0000E8EC16F05E0EFD6F680EC9EC16F0030EE0
:101C1000E15C02E2E16AE552AFEF15F0BEEC15F0CF
:101C2000050EE126D650016E006A030E00C0DBFFF0
:101C3000040E01C0DBFFD7508FEC16F0DF6A080EF0
:101C4000DF5C0BE2DF50EA6AC90FE96E070EEA2299
:101C5000EF508FEC16F0DF2AF2D7030EDBCFE6FF52
:101C6000040EDBCFE6FFD4EC3CF0E552E552DF6A30
:101C7000160EDF5C0DE2C3EC15F0DF50EA6ACC0F04
:101C8000E96E050EEA22E552E750EF6EDF2AF0D743
:101C90000501E26B090EA1EC16F0D90EE66E090EF5
:101CA000E66EBBEC16F06DEC17F0BBEC16F0160E02
:101CB000E66EE66ADAEC16F0A4EC3FF0026E0A0E6D
:101CC000E15E02500601560EFD6F680EC9EC16F07B
:101CD000DAEC16F084EC16F0540EFD6F680EC9ECC9
:101CE00016F051EC16F0E8EC16F0540EFD6F680E8D
:101CF000C9EC16F0080EA1EC16F0BBEC16F084EC63
:101D000016F05E0EFD6F680EC9EC16F0050EE15C74
:101D100002E2E16AE552AFEF15F094EC17F04D0ED8
:101D2000006E680E52EC17F0D8EC17F0090105515F
:101D3000E66EE66A03C9E6FF04C9E6FF28EC16F082
:101D4000DFEC16F0400E006E680E6CEC15F00D0E18
:101D5000E15E035069EC15F0090109510F0A18E022
:101D6000020A12E0090A0CE0060A06E0030A14E17E
:101D7000360E006E680E13D02E0E006E680E0FD059
:101D8000280E006E680E0BD01F0E006E680E07D076
:101D9000160E006E680E03D00D0E006E680EF7EC86
:101DA00017F009010B51040A12E0070A0CE0020ABD
:101DB00006E0010A10E1030E006E680E0FD0FA0E65
:101DC000006E670E0BD0F30E006E670E07D0E60EA6
:101DD000006E670E03D0E40E006E670EF7EC17F08E
:101DE000E6EC15F04D080AE114C9E6FF15C9E6FF57
:101DF000E00E006E670E7AEC17F00AD014C900F0FE
:101E000015C901F0040E1EEC17F0FDE11DEC18F0F1
:101E100069EC15F0E6EC15F04D080AE116C9E6FF8D
:101E200017C9E6FFE00E006E670E7AEC17F00AD0D5
:101E300016C900F017C901F0040E1EEC17F0FDE101
:101E40001DEC18F069EC15F009010B51E66EE66A1D
:101E500009010951E66EE66A09010A51E66EE66A71
:101E600009010D51E66EE66A09010C51E66EE66A5B
:101E700007C9E6FF08C9E6FF09010651E66EE66AF2
:101E8000CB0E006E670EA0EC17F0020EE15C02E2D2
:101E9000E16AE552AFEF15F0C40E006E670E52EC2A
:101EA00017F02DEC17F053C900F0016A00BE01686D
:101EB00061EC16F0B70E026E670E70EC15F00D0EA9
:101EC000E15E055015EF18F0BEEC15F0090EE126A5
:101ED0000901365107E1375105E1385103E1395124
:101EE00001E18AD0B00E006E670E52EC17F0DF6A87
:101EF000040EDF5C73E202EC17F0EFCF00F0000E8F
:101F0000E76E0018E8AE02D0003403D0E750D88066
:101F100000545DE2DF50EA6A3A0FE96E090EEA22E8
:101F2000EFCF04F004C029F0EFEC34F027C000F04C
:101F300028C001F029C002F02AC003F0560E2C6E12
:101F40000E0E2D6E8D0E2E6E3E0E2F6E1BEC35F08E
:101F50006DEC36F0010E26C0DBFF020E27C0DBFF62
:101F6000030E28C0DBFF040E29C0DBFF2DEC16F0AA
:101F7000050E26C0DBFF060E27C0DBFF2DEC16F09A
:101F8000070E22C0DBFF080E23C0DBFF02EC17F0B8
:101F9000EF50D80F006E016A00BE016898EC17F090
:101FA000070EDBCFE6FF080EDBCFE6FF050EDBCF2B
:101FB000E6FF060EDBCFE6FFA60E026E670E70ECA4
:101FC00015F00B0EE15E055069EC15F005D0A10E81
:101FD000006E670EF7EC17F0DF2A8AD754C900F0BD
:101FE000016A00BE016898EC17F09E0E026E670E43
:101FF0007FEC17F015EC18F0090EE15C02E2E16AE3
:10200000E552AFEF15F0970E006E670E52EC17F029
:10201000E80EE66E060EE66E0601FC51E66EE66A16
:1020200009015851E66EE66A210EE66E090EE66E6B
:1020300009010251E66EE66A0151E66EE66A005158
:10204000E66EE66A820E006E670EA0EF17F0BEEC39
:1020500015F0040EE12609011C511D111E111F115E
:1020600007E1DE6ADE6ADE6ADD6ADD52DD521CD01F
:102070001C0EE96E090EEA6EEE500901185D006E45
:10208000EE501959016EEE501A59026EEE501B595E
:10209000036E00C0DFFF010E01C0DBFF020E02C0B5
:1020A000DBFF030E03C0DBFF7B0E006E670E52ECFE
:1020B00017F051C900F0016A00BE016898EC17F0F2
:1020C00052C902F0036A02BE036802C0E6FF03C001
:1020D000E6FF09011051E66EE66A20C904F0056AC0
:1020E00004BE056804C0E6FF05C0E6FFD9CFE9FFDE
:1020F000DACFEAFFEECFE6FFEECFE6FFEECFE6FF68
:10210000EFCFE6FF09011251E66EE66A40C9E6FF2D
:1021100041C9E6FF42C9E6FF43C9E6FF3EC9E6FF03
:102120003FC9E6FF35C906F0076A06BE076806C064
:10213000E6FF07C0E6FF34C908F0096A08BE09686F
:1021400008C0E6FF09C0E6FF33C90AF00B6A0ABE01
:102150000B680AC0E6FF0BC0E6FF09011151E66EED
:10216000E66A09010F51E66EE66A09010E51E66E54
:10217000E66A4F0E0C6E670E0D6E0E6A0CC0E6FF1F
:10218000E66E0EC0E6FF91EC17F00F6E250EE15ED5
:102190000F5015EC18F0040EE15C02E2E16AE55222
:1021A000AFEF15F0BEEC15F0480E006E670E52EC66
:1021B00017F053C900F0016A00BE016861EC16F027
:1021C00009011251E66EE66ADFEC16F090EC15F0AC
:1021D000320E026E670E70EC15F0130EE15E0550C4
:1021E00069EC15F02DEC17F0B3DCE9EF17F0BEEC5D
:1021F00015F0060E09EC17F0E6EC15F009E0E6EC38
:1022000015F0200805E0DF2A010EF6E3DB2AF4D7FB
:10221000E6EC15F0200801E0C5D010EC17F001E362
:10222000DB2AEF6A90EC15F0DAEC16F0EDEC16F024
:1022300001E1B8D0090EE66E01EC16F0D90EE66E9B
:10224000090E84EC15F090EC15F01BEC16F090ECF8
:1022500015F0C2EC16F0F2EC17F051EC16F0EAECC7
:102260002FF08AEC16F0F2EC17F028EC16F0EDECFB
:1022700016F001E097D090EC15F0F2EC17F0B7EC07
:1022800016F0DAEC16F046EC17F0D90EE66E090EF1
:1022900084EC15F0F2EC17F01BEC16F0F2EC17F0F2
:1022A000C2EC16F051EC16F0B3EC17F09BEC16F004
:1022B00074EC16F002E6D5EC16F00AE20FEC18F01A
:1022C00043EC16F0040EDB2A050EF2E3DB2AF0D70E
:1022D00051EC16F0BBEC17F09BEC16F074EC16F01A
:1022E00002E6D5EC16F00AE20FEC18F040EC16F01E
:1022F000040EDB2A050EF2E3DB2AF0D70501010EFE
:10230000CA6F0A0EE66E01EC16F07AEC15F0500872
:1023100047E10501FA5123E1040EDB6A050EDB6A91
:1023200074EC16F004E6160E005C000E015815E27F
:10233000C3EC15F0040EDBCFE9FF050EDBCFEAFF9F
:10234000E30EE926050EEA22E552E750EF6E040E91
:10235000DB2A050EE5E3DB2AE3D70501F96BFA6B0F
:102360002A0E006E670E52EC17F023EC17F046ECC5
:1023700017F093EC0DF0E4EC16F00501010EFA6F86
:10238000E66E01EC16F0E90EE66E090EBDDB23ECFD
:1023900017F01BEC16F023EC17F0C2EC16F002D08D
:1023A0000501FA6B060EE15C02E2E16AE552D7D361
:1023B00094EC17F00501CA5112E1070EE66EE66AC9
:1023C000220E006E670E55EC17F0AADBF2EC16F049
:1023D00001E09BD0070EC5DB0ADFE55219D0FFEC08
:1023E00017F0F2EC17F09CDBC3EC17F028EC16F0BA
:1023F00043EC16F0050EE66EE66A1C0E006E670EE4
:1024000065DBF2EC16F006E0400EE66EBDEC19F06E
:10241000E5527BD0D950FD0FE96EDACFEAFF050E09
:10242000EE6E060EED6E4AEC16F0EF50450837E101
:10243000CAEC17F04D0833E1D950FD0FE96EFF0EDD
:10244000DA20EA6E020EEE26000EED22FFEC17F007
:10245000010EE66E050EE66E010E83DBC3EC17F08F
:10246000C5DB46EC16F002E6D5EC16F005E265ECAD
:1024700017F0F7E3DB2AF5D728EC16F0010EE66E2D
:10248000050E55DB4AEC16F0EFCF00F5D950FD0FE5
:10249000E96EDACFEAFF000EEE6E050EED6E4AEC45
:1024A00016F0EF50430A28E0190A0FE01B0A2DE14D
:1024B000150E006E670E52EC17F00501CB5125E1A9
:1024C00093EC0DF0A8EC0DF011D0CAEC17F0300829
:1024D00010E00901010E576F0501CB5116E193EC95
:1024E0000DF01BDCD9DCF0DC8EDDB1DDA2EC0DF0F3
:1024F0000CD00901576B09D0010E33DB0CD8E55223
:10250000E5520501CB5101E12FD8020EE15C02E258
:10251000E16AE55224D332DB040E09EC17F056DBF6
:1025200008E054DB2C0805E0DF2A010EF8E3DB2A83
:10253000F6D74CDB2C0805E110EC17F001E3DB2AA1
:10254000EF6AEEDAB4EC3BF0E552E552F3CFFBF57F
:10255000F4CFFCF57DDB40DBB7EC16F0040EE15C5C
:1025600002E2E16AE552FBD209DB040EE126020E2B
:10257000B6DB280E0501FCAF02D0D89003D0FB5D7E
:10258000000EFC5907E3FC3507E2FB513108000E51
:10259000FC5502E293EC0DF0310E0501FB1901E14F
:1025A000FC5101E1C3D1290EFB1901E1FC5101E10C
:1025B000B2D1280EFB1901E1FC5101E18AD1170EBD
:1025C000FB1901E1FC5101E16DD1160EFB1901E18E
:1025D000FC5101E161D1150EFB1901E1FC5101E152
:1025E00055D1140EFB1901E1FC5101E149D1130E43
:1025F000FB1901E1FC5101E137D1120EFB1901E198
:10260000FC5101E12BD1100EFB1901E1FC5101E15C
:1026100005D10F0EFB1901E1FC5101E1FAD00C0EBE
:10262000FB1901E1FC5101E1E5D00B0EFB1901E1C1
:10263000FC5101E1CCD00A0EFB1901E1FC5101E192
:10264000C0D0050EFB1901E1FC5101E1B3D0040E2D
:10265000FB1901E1FC5101E187D0030EFB1901E1F7
:10266000FC515CE0020EFB1901E1FC5121E0010E7E
:10267000FB1901E06BD1FC5101E068D1DE6ADD6A33
:1026800005DB04E6100E005C000E015801E363D187
:1026900083DBEF50E66EE66A100EE66EE66AD8DA85
:1026A000020E006E670E12DA57DBEAE3DB2AE8D788
:1026B000B2DA20DA09E0A6EC17F006E0020EDB2A17
:1026C000030EF7E3DB2AF5D7A6EC17F001E0C1D043
:1026D000F0DA01E3DB2A89EC17F067E1A8DB04E616
:1026E000100E025C000E035860E2D5DB06DB54DB03
:1026F000E552E750EF6ECADA04E6080E005C000E01
:10270000015801E2BBD0C7DBEDEC17F0080E005E0C
:10271000000E015A180E0024E66E42D0DE6ADD6A11
:10272000B5DA04E6200E005C000E015801E313D177
:10273000DFCFE6FF66DAD9CFE9FFDACFEAFF090E8D
:10274000EE1805E1ED5003E1DEEC17F0EF6AA3DBD4
:10275000200EE66EE66A7CDAEF0E006E660EB6D9E3
:10276000FBDADEE3DB2ADCD756DAC4D908E0EEDB9D
:1027700006E0020EDB2A030EF8E3DB2AF6D7E6DBDF
:1027800068E197DA01E3DB2AC4DB0FE150DB04E602
:10279000180E025C000E035808E27DDBDFCFE6FF77
:1027A00038EC3DF0E552E55252D01BDAB30E006E24
:1027B000830ED0D0A9DBC1DB040EE66EBDEC19F0B0
:1027C000C3D00601FC5153E0E5EC17F040D0060100
:1027D000FC514DE0040E09010E1507E0070E09013A
:1027E0000A5D03E0010EE66E0CD0FBD9D50E006E3B
:1027F000830EB0D00601FC513AE009010EA904D0C5
:10280000E66A87EC2AF023D0ECD9030E006E840E22
:10281000A1D00601FC512BE0DFD916D00601FC51F6
:1028200026E0F9D967D908E091DB06E0020EDB2A41
:10283000030EF8E3DB2AF6D789DB0BE13ADA01E392
:10284000DB2AEF6AC2DBDBDA58DA7CEC2AF0E552ED
:1028500015D0C7D9770E006E830E7CD00601FC51CF
:1028600006E04DEC2AF00AD00601FC5105E1B9D989
:10287000910E006E830E6ED05AEC2AF045DB6AD0C2
:102880000601FC5112E0A8D9020E16D00601FC5137
:102890000CE0A2D9E66A11D00601FC5106E09CD9F1
:1028A000030E0AD00601FC5105E19BD9910E006E82
:1028B000830E09D091D9010EE66E92EC2AF0E55212
:1028C000E552E55221DB39DB020E09DA27EC10F084
:1028D00042D0A1D90FD908E039DB06E0020EDB2A8D
:1028E000030EF8E3DB2AF6D731DB0EE1E2D901E390
:1028F000DB2AEF6A71D9D2EC2BF0E55280DA04DAE8
:10290000690EFD6F680E17D093EC0DF06AD9770E43
:10291000006E830E14D00601E30EFD6F660E39DAE9
:102920005BD9F2D9DD0EFD6F660E05D055D9ECD915
:10293000DB0EFD6F660E2DDA050E12DBE5DAFDDA31
:10294000020EE66E71EC3AF0E55205D04AD9D00E8F
:10295000006E660EF2DAA2EC0DF00501FB6BFC6B6B
:102960000001606B040EE15C02E2E16AE552F7D01F
:1029700005D90501CA5121E0CB5100081EE3020E22
:1029800062DBBD0E006E660E32DBCAD87FDAB40E93
:10299000006E660E2CDBAA0EE76EFB0EDBCFE9FFA6
:1029A000FC0EDBCFEAFF54DAEF6AFB0EDBCFE6FF6B
:1029B000FC0EDBCFE6FF6ADA07DA0BD3B5DA43DBCE
:1029C00009010B51040A12E0070A0CE0020A06E0B2
:1029D000010A10E1A80E006E660E0BD09D0E006E6F
:1029E000660E07D0940E006E660E03D0850E006E44
:1029F000660EFDDA090109510F0A18E0020A12E019
:102A0000090A0CE0060A06E0030A14E17C0E006ED7
:102A1000660E13D0660E006E660E0FD0580E006E56
:102A2000660E0BD04E0E006E660E07D03C0E006E8A
:102A3000660E03D02B0E006E660ED9DA1C0E006EE9
:102A4000660ED5DAB5DAC2D84D0809E114C9E6FF39
:102A500015C9E6FF160E006E660E4CDA0CD014C9CE
:102A600000F015C901F0040EE9D9FEE162D8100E9C
:102A7000026E660E44DA2DD8090E006E660EB7DAC5
:102A80009ED9040E006E660E35DA23D89DD9020E4B
:102A9000E15C02E2E16AE55262D046DA61DAD90E1F
:102AA000006E650EFFD990D9020EE15C02E2E16A88
:102AB000E55255D039DA83D9A00E006E650E3DDAA5
:102AC000020EE15C02E2E16AE55249D0EED9F2EF92
:102AD00017F090DA46EF17F0E8D923DA036E120008
:102AE000036E046A02C0E6FFE66E04C0E6FF19DA70
:102AF000056E120063DAEF501200DFEC37F0036E60
:102B0000050EE15E03501200E66EC5D9E6D94BEF23
:102B100017F03CEC38F0036E050EE15E0350120036
:102B2000FD0EDBCFE6FFFE0EDBCFE6FF12006EDA16
:102B3000C4D1050E0026000E01220A0E2D6E2E6A4B
:102B400000C028F001C029F0F8EC43F028C000F0E4
:102B500029C001F028C0E6FF29C0E6FF1200E16E9F
:102B600038D2E76EFD0EDBCF00F0FE0EDBCF01F0BA
:102B7000E7500026000E012298EF17F0D9CFE6FFAC
:102B8000E1CFD9FF1200DBEC3CF0F3CFF6FFF4CF3E
:102B9000F7FF400E2D6E2E6AF6CF28F0F7CF29F002
:102BA000F5EC35F024C0F6FF25C0F7FF220EF6261F
:102BB000860EF7220800F550E66E12001DEC42F07A
:102BC000036E070EE15E0350A8EF0DF0DECFE9FFC4
:102BD000DDCFEAFFEF501200600EE66E000EE66EEB
:102BE0001200FBC5E6FFFCC5E6FF1200100EE66E04
:102BF000E66AE90EE66E090E09DAD2D9DE6ADD6A06
:102C00001200F3EC3CF0E552020EF3CFDBFF030EB3
:102C1000F4CFDBFF1200D950020FE96EDACFEAFFE2
:102C2000600EEE6E000EED6E1200E552F3CFDEFF89
:102C3000F4CFDDFF120055EC38F0E552E552F3CF4A
:102C400002F0F4CF03F0F3CFE6FFF4CFE6FF12007B
:102C5000DECFE6FFDDCFE6FF1200010EDBCF26F070
:102C6000020EDBCF27F0030EDBCF28F0040EDBCF04
:102C700029F00A0E2B6E2C6A2D6A2E6A1BEF36F095
:102C8000B1D979D91AD1AED96ED917D1A6D9D890E0
:102C900001501200FD0EDBCFE9FFFE0EDBCFEAFF95
:102CA0001200100EE66EE66AD90EE66E090EE66EAA
:102CB0001200020EDBCFE9FFDB2A030EDBCFEAFFB7
:102CC000120036D909015051E66EE66A4EC9E6FF98
:102CD0004FC9E6FF4CC9E6FF4DC9E6FF1200E66E9C
:102CE00071EC3AF0E5521200040EDBCF00F0050E55
:102CF000DBCF01F0D89001501200B4EC3BF0E5526C
:102D0000E552F350E66E120074EC19F0E552E5520C
:102D100006011200006E060EE15E00501200006E09
:102D2000016AD950030FE96EDACFEAFF0050EE26B0
:102D30000150ED22120034D9040EDB6A050EDB6A65
:102D40001200E66EF3EC3CF0E552DE52F3CFDEFF0C
:102D5000F4CFDDFFDD5212001DEC42F0036E0B0ECE
:102D6000E15E0350A8EC0DF0DF2A010E12001BEC0F
:102D700038F018EF18F0010EDBCFE6FF020EDBCFC4
:102D8000E6FF1200A4EC3FF0046E0A0EE15E045070
:102D90001200FE6F62EF19F0DECFE9FFDDCFEAFF30
:102DA000ED0EE926060EEA221200000E005C040E6B
:102DB00001581200CC0EE66E050EE66E12000901F7
:102DC0001351E66EE66A1200A8EC0DF0A2EF0DF0CA
:102DD0003FEC30F02DD906011200FBEC37F028D97A
:102DE0000009120057EC37F0036E070EE15E035046
:102DF00000091200F2D80001800E01141200E55201
:102E00004BEF17F0DF50EA6A360FE96E090EEA223F
:102E10001200E126FD0EDBCFDEFFDBCFDDFF12006F
:102E2000DFCFE9FFDF2A010EDBCFEAFF1200DECFA2
:102E300002F0DDCF03F0D89003501200D890003696
:102E40000136E8041200E30EE66E050EE66E12008F
:102E5000E750E926000EEA221200CCD844C9E6FF6A
:102E600045C9E6FF46C9E6FF47C9E6FFF2D8E40ECA
:102E7000006E670EBCD8BED848C9E6FF49C9E6FF58
:102E80004AC9E6FF4BC9E6FF29EF18F0ABD8BBEC07
:102E900037F018EF18F0020EDBCFE6FF030EDBCFA2
:102EA000E6FF120013DE89EF15F0016E026A00C022
:102EB000E6FFE66E02C0E6FF1200E66EADEC39F00A
:102EC000006E080EE15E00501200A9D8000EE66EFA
:102ED000060E2DDEDF2A010E120055EC38F0E55209
:102EE000E552F3CF00F0F4CF01F0F3CFE6FFF4CFDB
:102EF000E6FF1200F1DD070EE15E03501200F0DD87
:102F0000070EE15E055012006CDE6C0E006E830E43
:102F10001200EF6A61DEB4EC3BF0E55286DEFAEFB8
:102F200016F068D81DEF42F029DE020EE1261200ED
:102F300000C0E6FF01C0E6FF1200C8DDDEEF15F0BD
:102F4000CBDD130EE15E035015EF18F0D3DD2C0836
:102F50001200E66E55EC38F0E55267DE28EF16F009
:102F6000BEDE93EF0DF0000EE66E020EE66EFB0E77
:102F7000E66E090E1200000EE66E010EE66EF90E08
:102F8000E66E090E1200A6EC30F0E552E552E5526D
:102F900015EF16F0010EE76E7DDE5ADFEF501200DE
:102FA000E66E04EC39F0006E080EE15E005012008F
:102FB000020EE66EF3EC3CF015EF16F0020EDBCFDE
:102FC000E9FF030EDBCFEAFF120006DE96DE71EFAB
:102FD0002AF0E552E7CFD9FF1200DECF00F0DDCFB7
:102FE00001F01200000EE66E060EE66E12006EDDB7
:102FF0007DEF15F0000EE66E050EE66E12005E0E19
:10300000006E680E52DF8CDD7DEF15F0E66E000E6F
:10301000E66E030EE66EFD0EE66E090E1200060168
:10302000006B010EE66EE66A120053DDA8EF0DF0AC
:10303000E552E552E552E55212007BDDE00E026EEC
:10304000670E7FEF17F08CDFC80E006E660E52EF32
:0C30500017F08FEC3AF05EDE69EF15F02F
:04305C00D8CFE4FFE6
:10306000E0CFE4FFE46EDACFE4FFE2CFDAFFE9CFAE
:10307000E4FFEACFE4FFF6CFE4FFF7CFE4FFF5CFBC
:10308000E4FFF3CFE4FFF4CFE4FFFACFE4FF00EE78
:1030900020F0140EE80403E3EECFE4FFFBD700EECC
:1030A00000F0200EE80403E3EECFE4FFFBD7E65286
:1030B00037EC3FF096EC40F0E55200EE1FF0200EAA
:1030C000E80403E3E5CFEDFFFBD700EE33F0140E89
:1030D000E80403E3E5CFEDFFFBD7E5CFFAFFE5CF4B
:1030E000F4FFE5CFF3FFE5CFF5FFE5CFF7FFE5CF41
:1030F000F6FFE5CFEAFFE5CFE9FFE5CFDAFFE550E0
:10310000E5CFE0FFE5CFD8FF10000801009B1200DB
:10311000F0EC1FF0E652D9CFE6FFDACFE6FF0DEC78
:103120003FF0E552E552000901E1C9D0FF0E04016C
:10313000F85D01E088D00D0EDF5CEDE0F5EC1FF0EE
:10314000AAEC1FF003E1015001E1F7073A0EDF5C42
:103150001EE1060EF75D1BE3D4EC1FF018E1490EEB
:10316000015D15E1500E025D12E1440E035D0FE1B9
:103170000401F70535EC1FF0EF6A050EE66E070E49
:10318000E66E8DEC1FF0FD0EF86FF76BC4D70A0EDC
:10319000DF5CC1E10401F7071CEC20F0040EF75DD1
:1031A00070E3D4EC1FF06DE1430E015D6AE14D0E5A
:1031B000025D67E1540E035D64E1070EDF6EDF50D0
:1031C000DF2A35EC1FF0EF50220804E00401F7512C
:1031D000DF5CF5E3DF0435EC1FF0EF6A0401E36B1D
:1031E000140EE66EE66A070EE66E070EE66EE30E56
:1031F000E66E040EE66E8EEC38F0006E060EE15EB2
:1032000000500401F66BF7C4DFFFDF50DF0635EC3A
:103210001FF0EF502C0803E0DF500008F6E3DF500A
:10322000016A000F006E070E0122020E0026000E3A
:10323000012200C0E6FF01C0E6FF8DEC1FF0F76B36
:10324000FE0EF86F68D7FE0EF85D1EE10D0EDF5C16
:1032500003E00A0EDF5C07E1F751F72B35EC1FF0B6
:10326000200EEF6E02D0F5EC1FF0AAEC1FF003E188
:10327000015001E1F707F907F95101E04CD71CECC7
:1032800020F068D9040118D00D0EDF5C08E0F5ECE1
:103290001FF0AAEC1FF003E1015001E1F707F90765
:1032A0000A0EDF5C06E1F7071CEC20F053D904019D
:1032B000F76BF95101E02FD7F76BF8692CD7E5527E
:1032C00068EF1FF0CDEC1FF00EE0080100B1FDD754
:1032D000CDEC1FF0E66EE6EC3EF0E5520601FD2B6C
:1032E000000EFE23EFD71200F0EC1FF0C1EC1FF030
:1032F0000FE0080100B1FDD7C1EC1FF0E66EE6EC6F
:103300003EF0E552FD0EDB2AFE0EF0E3DB2AEED79F
:1033100068EF1FF0F0EC1FF0080100B1FDD7FE0EC2
:10332000DBCFE6FFE6EC3EF0E55268EF1FF0F0EC95
:103330001FF0040EE126030EE66E3BEC1FF09C0E20
:10334000026E650E43EC1FF003E0FE0EDBCFFFF5CF
:10335000990E026E650E43EC1FF003E0FE0EDBCF0C
:10336000C8F5040EE15C02E2E16AE552E16E68EF45
:103370001FF00501010EC96F1200F0EC1FF0020EE4
:10338000E126FE0EDBCFD8F40401D851210A01E179
:10339000C5D0010A01E1ACD0600A01E18AD0010A7E
:1033A0006BE0530A5AE0030A4FE0010A44E0160AB0
:1033B0003CE0030A31E0010A28E0070A15E0010AAF
:1033C00011E0030A01E0BED00A0E07EC20F0040170
:1033D000030EDC6F140EDD6FDE6B0901576B8CEC96
:1033E0000DF0B0D0DC6BAED0E66824EC20F0E668DF
:1033F000E66AD8EC1FF08AEC40F081EC3AF0040168
:10340000020EDC6F74EC1FF09DD0050EDC6F0A0E0F
:1034100074EC1FF00A0E62D0060EDC6F020EDD6F38
:10342000DE6BD96B81EC3AF08DD0E66A17EC1FF0B9
:103430005EEC3AF087D0090E07EC20F097EC1FF015
:10344000840EFD6F850E7CD0080E07EC20F097EC03
:103450001FF0900EFD6F850E73D0070E07EC20F065
:103460000401030EDC6F230EDD6FDE6BD96B0601EA
:103470009A0EFD6F850E64D0050EE66E24EC20F0EA
:103480000401DA07000EDB5BD880DA55000EDB554D
:1034900006E2070E5DEC1FF00401400E05D0080E99
:1034A0005DEC1FF00401020EDC6F060EDD6FDE6BBB
:1034B00049D0050E07EC20F010EC20F0E66E3BEC56
:1034C0001FF0B0EC1FF011E08050010B0EE1040181
:1034D000020EDC6F3C0E74EC1FF0020E58EC1FF075
:1034E00006018D0EFD6F650E2BD00401200ED86FE6
:1034F000020E07EC20F00501CB6B0401DC6BD96BED
:103500000901550507E0050E555D04E0780E04013C
:10351000E16F02D00401E16BE26B14D0060E07EC00
:1035200020F0020E58EC1FF00401030EDC6FF00EC9
:10353000DD6FDE6B90EC0DF00601E70EFD6F850E82
:10354000FE6FC0DE020EE15C02E2E16AE552E16E6E
:1035500068EF1FF0FE0E0401F85D17E10901550543
:1035600005E0050E555D02E071EC1FF0F7C4E6FFC3
:1035700028EC20F0E30EE66E040EE66EFDEC2CF077
:10358000006E050EE15E00501200FF0EF85D07E0D0
:1035900028EC20F0D8EC11F0E552E5521200D85199
:1035A000200A01E178D1600A01E1D3D0610A01E18A
:1035B000ABD0330A01E17FD0030A52E0010A14E0E4
:1035C000110A01E01200020EF75D01E25CD2C9ECC3
:1035D0001FF001E058D24B0E015D01E054D220EC07
:1035E00020F0100E6CEF1FF0040EF75D23E3D4EC17
:1035F0001FF020E1430E015D1DE1530E025D1AE153
:103600004D0E035D17E128EC20F055EC38F0E55243
:10361000E552F3CFE9FFF4CFEAFFE906000EEA5ADC
:10362000000EE926070EEA22EF50310818E0030EDB
:1036300017EF20F00401D95101E025D2020EF75D09
:1036400001E221D2C9EC1FF001E01DD24B0E015D59
:1036500001E019D220EC20F0110E6CEC1FF01200EA
:10366000080EF75D12E3D4EC1FF00FE1430E015D8D
:103670000CE1500E025D09E1490E035D06E1520EB8
:10368000075D18E0040E17EF20F00401D95101E0A6
:10369000FAD1020EF75D01E2F6D1C9EC1FF001E0AC
:1036A000F2D14B0E015D01E0EED120EC20F0120EC4
:1036B0006CEC1FF01200060EF75D15E3D4EC1FF062
:1036C00012E1490E015D0FE1500E025D0CE1520E58
:1036D000035D09E1390E065D06E00601150EFD6F7A
:1036E000860E8AEF1FF0020E0401F75D01E2CBD1D6
:1036F000C9EC1FF001E0C7D14B0E015D01E0C3D161
:1037000020EC20F0210E3DD0020EF75D0CE3C9EC59
:103710001FF009E14B0E015D06E10A0E0401DA6FAC
:10372000DB6B400E2ED0050E0401F75D07E3450E5E
:103730000701005D03E1520E015D09E00A0EE66E2D
:10374000E66A820E006E650E64DB01E09CD1020E1B
:1037500018D0020EF75D17E3450E0701005D13E177
:10376000520E015D10E1020E0401D95D03E0030E6B
:10377000D95D02E1410E05D0050ED95D01E08AD088
:10378000030E6CEF1FF0020E0401F75D06E3C9ECB7
:103790001FF003E14B0E015D0BE0530E0701005DCE
:1037A00003E1480E015D04E0050E0401D95D59E115
:1037B0000401F76B1E0EDD6FDE6B0901566B020E06
:1037C00077DB0401D92BD951080A49E00F0A3AE006
:1037D000010A33E0030A2CE0010A25E0070A1DE094
:1037E000010A0AE0030A01E0120006016E0EFD6FF5
:1037F000650E90DB050E0CD00601610EFD6F650EA7
:1038000089DB050E0AEC20F0060E0AEC20F0070E0C
:1038100011DB6B0EFD6F650E20D0040E91DB530E95
:10382000FD6F650E1AD00601450EFD6F650E15D0B1
:1038300006013B0EFD6F650E10D00601230EFD6FD5
:10384000650E0BD0030E7CDB0F0EFD6F650E62DB89
:10385000040EF0DA050EFD6F650E8AEF1FF0200EE4
:103860000CD0070EF75D0BE3080EE66EE66AFC0E61
:10387000006E640ECEDA03E1020E6CEF1FF00B0E49
:10388000E66EE66AF00E006E640EC3DA01E0FBD06D
:10389000020E22DB1200050EE66EE66AEA0E006EEC
:1038A000640EB7DA24E12C0E0701085D03E1070E70
:1038B000091502D0070E07150901556FE80403E04A
:1038C000050E555D05E10401E16BE26BE66A0AD085
:1038D0000401E151E21101E0D6D0780EE16FE26B14
:1038E000010EE66EE66A63EC40F0E55255D0050E37
:1038F000E66EE66AE40E006E640E8BDA0FE10901F3
:10390000550504E0050E555D01E0EBDA010ED0DA55
:103910000601F60EFD6F850E8AEF1FF00A0EE66EA9
:10392000E66AD90E006E640E74DA04E1090156519C
:103930001EE113D0070EE66EE66AD10E006E640E2D
:1039400068DA2CE1110EE66EE66ABF0E006E640EB8
:1039500060DA11E1090156510AE1010EE66EE66EE8
:1039600027DB93EC0DF00EEC0EF0A2EC0DF009014C
:10397000010E566F12000901566B020EE66E64DBF3
:103980000901550504E0050E555D01E07CD090EC81
:103990000DF0400EE66EF1DCE5521200050EE66E0B
:1039A000E66AB90E006E640E34DA12E12C0E0701DD
:1039B000085D09E1070E0715006E070E06150A0DD2
:1039C000F350002402D0070E06150901586F1200AB
:1039D000070EE66EE66AB10E006E640E1ADA08E0B3
:1039E0000B0EE66EE66AA50E006E640E12DA03E1B7
:1039F0000501CB6B1200090EE66EE66A9B0E006EA7
:103A0000640E07DA3CE0060EE66EE66A940E046E7B
:103A1000640E056E066A04C0E6FFE66E06C0E6FFA9
:103A2000DCDA076E070EE15E0750000928E00A0E97
:103A3000E66EE66A820E086E650E096E0A6A08C0B6
:103A4000E6FFE66E0AC0E6FFC8DA0B6E070EE15E1F
:103A50000B50000914E00B0EE66EE66AF00E0C6ED9
:103A6000640E0D6E0E6A0CC0E6FFE66E0EC0E6FF39
:103A7000B4DA0F6E070EE15E0F50000904E190EC1E
:103A80000DF0400E29DA12001CDA41E0220A3DE076
:103A9000230A2EE0330A23E0030A19E0010A0FE0AB
:103AA000110A01E0E8D0050EDD5D000EDE5902E2EC
:103AB000020E03DA0601F20EFD6F850E17D07DDAD5
:103AC00001E0D9D00601840EFD6F850E0FD075DAA6
:103AD00001E0D1D00601900EFD6F850E07D06DDAA2
:103AE00001E0C9D006019A0EFD6F850E13DAC3D02E
:103AF000140EDD5D000EDE5901E3BDD0060EE66E4C
:103B0000E66A63EC40F0E55228D0010E23D0FF0EA8
:103B1000F85D09E0FA0503E1FA6BF86910D0FA5193
:103B2000010801E2FA07000ED880E155000EE255C7
:103B300008E2E107000EE25BE151E21102E1210E31
:103B400009D00501CB5100080AE2CB2BCB513C0830
:103B500006E2400EE66EBDEC19F0E5528CD009018C
:103B6000550504E0050E555D01E085D00501FB51CA
:103B7000FC1109E00501CA0506E10501CB5103E18D
:103B8000B4EC12F078D00501C85100081FE205011D
:103B9000CA051CE10A0E8CD90501C80508E1040E0E
:103BA0000901095D04E0030E09010A5D04E1020E4A
:103BB0000501C85D03E1DEEC14F005D0030EC85D1D
:103BC00002E14DEC15F00501C86B55D00501FF5120
:103BD000000822E20A0E6CD9E66A4DD90501FF05FC
:103BE00008E1040E0901095D04E0030E09010A5D04
:103BF00004E1020E0501FF5D04E1FDD93AEC2CF071
:103C000006D0030EFF5D05E1F6D9EBEC2CF0E55292
:103C1000E5520501FF6B2FD00501C90515E105012E
:103C2000CA0512E10901575100080EE20501CB5106
:103C30000BE10501C96B0A0E3BD993EC0DF027ECA3
:103C400010F08DEC0EF015D009011251000813E2AE
:103C50000601F55100080FE20501CB510CE1090105
:103C60005751000808E2020E23D993EC0DF04CECFA
:103C70000FF0A2EC0DF0020EE15C02E2E16AE55207
:103C8000E16E26D10401D851200A01E0120005019D
:103C9000CB51000802E2B6EF1FF0DFD912E0020EAE
:103CA00007D90601FB0EFD6F850EFE6F62EC19F061
:103CB00008014151000803E2010EFAD8F9D7020EBB
:103CC000F7D81200FED815E10501CB51000802E239
:103CD0004DD90FD00901560508E1090157510008D7
:103CE00004E28ED901E030D906D9010E0401D919B8
:103CF000D96F020EE15C02E2E16AE552E16EE8D0C2
:103D00001200DFD840E1050E0901135D28E2800EA4
:103D100009010E1524E10401FC5110E109015605C9
:103D20000EE10501CB510BE193EC0DF05AEC15F0CF
:103D3000A2EC0DF00401480EFC6F01D0FC07040159
:103D4000FB510BE1E66A97D856D988EC2EF0E55284
:103D5000E5520401480EFB6F06D0FB0704D00401B6
:103D6000060EFB6FFC6F090156050DE10901575165
:103D70000AE10501CB51000802E2F8D804D040D98D
:103D800001E0E2D8B8D8020EE15C02E2E16AE55255
:103D9000E16E9ED00401DF2B000EE023DC51000811
:103DA0000DE2EAD8DD07000EDE5B0050011006E1EF
:103DB000DCC4E6FFBDEC19F0E55201D065DEA5D804
:103DC0001E0E2D6E2E6A03D901E15CDF46D901E19A
:103DD00079DF9BD82C0E2D6E010E2E6EF8D801E1E6
:103DE0008FDF93D8580E2D6E020E2E6EF0D806E19E
:103DF00088DF580E0401DF5F020EE05B1200120044
:103E0000800E946ECAEC3EF00901556B010E6CEF0A
:103E10001FF0016E026A00C0E6FFE66E02C0E6FF18
:103E2000DCD8036E070EE15E0350000912000CD9C6
:103E300020EF20F0E66EF3EC3CF0E552F3CF00F01B
:103E4000F4CF01F0F3CFE6FFF4CFE6FF74EC19F006
:103E5000E552E55206011200F8EC43F024C000F0F0
:103E600025C001F0245025101200EA6A000FE96E07
:103E7000070EEA221200F3EC3CF0E552F3CFDEFF2E
:103E8000F4CFDDFF1200036E046A02C0E6FFE66EA7
:103E900004C0E6FFB0D8BCEC38F0056E050EE15E5C
:103EA0000550F3CF00F0F4CF01F0F350F4101200FE
:103EB000E66E71EC3AF0E5521200E66EE66AD8EF73
:103EC0001FF08ED8020EE1260401D851200A1200FC
:103ED000E552E7CFD9FF1200E66EBDEC19F0E552CE
:103EE00012009ED820EF20F0DD6FDE6BD96B090148
:103EF000576B90EF0DF08DEC0EF04CEC0FF064EC86
:103F00000FF027EC10F0A2EF0DF0DFC400F0E0C4DA
:103F100001F01200FE6F62EF19F0B4EC3BF0E552D5
:103F2000E552F3CFF9F404013C0EFA6F12000401DC
:103F3000030EDC6F5F0EDD6FDE6BD96B06011200C6
:103F4000E66E82D80601120056D8D2EC10F0E55287
:103F5000E5521200F751006E016AC80E00181200F7
:103F6000DECFE9FFDDCFEAFFEF501200050E0401BE
:103F7000DF5F000EE05B1200DDC400F0DEC401F084
:103F80001200FD0EDBCFE9FFFE0EDBCFEAFFEF50A4
:103F900012004F0E0701005D1200FDC6F6FFFEC6BF
:103FA000F7FF0800F55012002B0E0701005D12000C
:103FB00063EC40F0E552E5521200DEDF030E2D6E99
:103FC0002E6ADDC428F0DEC429F02CEF1FF0DFC418
:103FD00028F0E0C429F02CEF1FF03AD857EF37F063
:103FE000D9CFE6FFE1CFD9FF1200F751F72B3DDF24
:103FF000DFCFEFFF1200DECFE6FFDDCFE6FF1200DE
:104000000B0EE66E38DF93EC0DF0B0EF1FF0E66EAE
:1040100017EF1FF00FDF5D0EFD6F650E8AEF1FF0CB
:104020000401E16BE26B0901050E556F120045DFDB
:104030000401010ED96F1200F75117DFEF6A120069
:10404000E66AE66AD8EF1FF0010EE66ED8EF1FF0C1
:10405000000EE66E070EE66E120057DF3C0E2D6E68
:064060002E6AE7EF1FF0DD
:0A4066006FEC25F0FB0EDBCFF3FF3B
:10407000DB06F35000090AE0BDEC25F0FA0E28EC4F
:1040800026F0F3E1011CF1E1010E01D0000E9EEFDC
:1040900025F06FEC25F03B0EE12402E3E168E652E7
:1040A000E16E010EDB6A020EDB6AF90EDBCFF6FF72
:1040B000FA0EDBCFF7FFFB0EDBCFF8FF0800F55061
:1040C000DF6EDF5002E1C2EF24F0250EDF5C02E07C
:1040D000B5EF24F0030EDB6A040EDB6A050EDB6A23
:1040E000060EDB6A070EDB6AD7EC24F02D0EDF5CD0
:1040F0000CE02B0EDF5C09E0200EDF5C06E0230EF7
:10410000DF5C03E0300EDF5C1AE1DF50300A14E0C0
:10411000130A0FE0030A0AE00B0A05E0060AE4E1CD
:10412000030EDB80E1D7030EDB82DED7030EDB84D8
:10413000DBD7030EDB86D8D7030EDB88D5D72A0E54
:10414000DF5C1BE1D3EC24F021EC25F010E0030E42
:10415000DB8028682968130EDBCF2DF0140EDBCF2F
:104160002EF02AEC37F0040E26C0DBFF03D0130E2E
:104170000AEC25F0D7EC24F00BD0090EDB6A78ECC2
:1041800025F003E0ECEC25F0FAD7090E0AEC25F057
:10419000030EDBB0DB982E0EDF5C1BE1D7EC24F0C6
:1041A0002A0EDF5C0BE1D3EC24F021EC25F003E1D7
:1041B000130E5CEC25F0D7EC24F00BD0090EDB6A73
:1041C00078EC25F003E0ECEC25F0FAD7090E5CEC76
:1041D00025F0680EDF5C07E1D7EC24F0680EDF5CA9
:1041E0001DE1030E18D0740EDF5C17E07A0EDF5C61
:1041F00014E0480EDF5C06E0540EDF5C03E05A0E6C
:10420000DF5C02E1020E07D06C0EDF5C03E06A0E99
:10421000DF5C04E1010EAFEC25F0C9DBDF506E0A74
:1042200001E17FD31E0A01E192D1200A01E18FD181
:104230003F0A01E149D11A0A01E146D10D0A01E123
:1042400043D1200A01E140D13A0A01E13DD1200ADF
:1042500001E13AD1260A01E135D10D0A01E132D15D
:104260001A0A01E1D9D0200A4AE0300A1FE0460AC2
:104270000EE0250A01E083D3D950F90FE96EFF0E55
:10428000DA20EA6E010EEE5E000EEE5AEE5ABDEC3A
:1042900025F0250EE66E95DB03E1011C01E169D3F3
:1042A000B9EC25F001E26BD3DB2A69D3080EDB6A97
:1042B000040EDB50010806E2040EDB0481EC25F05D
:1042C000DB508BDB080EDB5009E0030EDB50010BEB
:1042D00005E172DB01E04DD3080EDB6A64DBEFCF52
:1042E000DFFF31EC26F003E1011C01E142D3B9EC20
:1042F00025F001E3DB2A60DB01E141D33AD3070E6D
:10430000DB5002080FE1FDEC25F0030EC4EC25F0B4
:104310000E0EEECFDBFF0F0EEECFDBFF100EEECF5B
:10432000DBFF20D0F70EDBCF03F0F80EDBCF04F07D
:10433000020E035E000E045AF70E03C0DBFFF80EF8
:1043400004C0DBFF03C0E9FF04C0EAFFB4EC25F0C2
:10435000026A0E0E00C0DBFF0F0E01C0DBFF100E65
:1043600002C0DBFF0E0EDBCFE6FF0F0EDBCFE6FF5A
:10437000100EDBCFE6FFDFEC38F0E552E552E552F8
:10438000130E27C0DBFF140E28C0DBFF060EDB5028
:1043900005E0130EF8EC25F001E26ADB1CEC26F0D8
:1043A00002E2130E37DBDFEC25F006E0040EF8EC3A
:1043B00025F002E2050E2EDB030EDBB005D0FCDAA1
:1043C00001E0D7D2080EDB6A090EDB6A0E0EDBCFE6
:1043D000F6FF0F0EDBCFF7FF100EDBCFF8FF080064
:1043E000F550DF6EDF5014E022EC26F011E231ECE4
:1043F00026F003E1011C01E1BCD2BBDB01E3DB2AB7
:10440000090EDB2AD9500E0FE96E000ECBDBE7D781
:10441000D3DA01E1B4D2ADD2C6DA110EEECFDBFFB2
:10442000120EEDCFDBFF110EDBCFE6FF120EDBCF5E
:10443000E6FF55EC38F0E552E552130EF3CFDBFF03
:10444000140EF4CFDBFF060EDB5004E0130ED0DBBE
:1044500001E20EDB1CEC26F002E2130EDBDAAFDB2E
:1044600005E0040EC5DB02E2050ED4DA030EDBB074
:1044700005D0A2DA01E07DD2080EDB6A090EDB6A04
:10448000110EDBCFE9FF120EDBCFEAFFEFCFDFFF2C
:10449000DF5014E0D7DB12E2E4DB03E1011C01E1B1
:1044A00068D267DB01E3DB2A090EDB2A110EDB2A67
:1044B000DBCFE9FF120EE8E3DB2AE6D77DDA01E184
:1044C0005ED257D2030EDB8E070EDB0410E195DBC4
:1044D000040E5ADB0A0EEECFDBFF0B0EEECFDBFF36
:1044E0000C0EEECFDBFF0D0EEECFDBFF6CD0070E18
:1044F000DB5003082CE1030EDBAE0DD0B2DA020E66
:1045000076DAEFCF00F0016A026A036A00AE39D0B2
:104510000168026835D0F70EDBCF01F0F80EDBCF73
:1045200002F0020E015E000E025AF70E01C0DBFF20
:10453000F80E02C0DBFF01C0E9FF02C0EAFFEFCFC7
:1045400000F00A0E00C0DBFF0B0EDB6A38D0070E4E
:10455000DB50020809E1030EDBAE04D059DB02AEEA
:1045600010D00ED055DB0DD0030EDBAE12D079DAB1
:10457000020E3DDAF9DA026A036A01AE02D002687D
:104580000368E2DA0C0E02C0DBFF0D0E03C0DBFF96
:104590001AD0F70EDBCF02F0F80EDBCF03F0020EDD
:1045A000025E000E035AF70E02C0DBFFF80E03C0D6
:1045B000DBFF02C0E9FF03C0EAFFD6DAC5DA0C0E62
:1045C000DB6A0D0EDB6A060EDB5005E1010EF36EB1
:1045D000050EF3CFDBFF150EDB6A160EDB6AD95032
:1045E000370F006E000EDA20016E390E00C0DBFFBF
:1045F0003A0E01C0DBFF380EDB6A080EDB6A0A0EDA
:10460000AEDADF50780A12E0200A10E0280A0CE047
:10461000200A0AE03F0A06E00D0A02E0200A08E14B
:10462000020E05D0080E03D0080EDF26100E97DA12
:10463000030EDBBE02D0DB92DB94DB50800B24E068
:104640008ADAD890030EEB50000A08E6000EEE5C02
:10465000000EEE58000EEE58000EEE5815E213DA7A
:104660002B682C682D682E689CEC43F00A0E22C043
:10467000DBFF0B0E23C0DBFF0C0E24C0DBFF0D0E97
:1046800025C0DBFF2D0E08D0030EDBA202D02B0EBF
:1046900003D0DBA408D0200EF36E170EF3CFDBFFA0
:1046A000150EDB2A02D0170EDB6A050EDB5003E184
:1046B000B7D901E189D0D40E006E880E016E000ECC
:1046C000026E070EDBCF03F0046A056A066A03C0B8
:1046D0002BF004C02CF005C02DF006C02EF0D3D96D
:1046E000D4EC43F000502224F36E01502320F46EEA
:1046F00002502420F86EF4CFF7FFF3CFF6FF080046
:10470000090EF5CFDBFF580EDF5C0FE1610EF36E93
:10471000090E7BD90AE3200E006E090EDBCFE7FFFE
:104720000050E75E090EE7CFDBFF070EDBCF00F09E
:10473000016A026A036A0FDA00C02BF001C02CF094
:1047400002C02DF003C02EF0EECF26F0EECF27F002
:10475000EECF28F0EFCF29F0D4EC43F029C0EDFFE5
:1047600028C0EDFF27C0EDFF26C0EFFF390EDBCFDD
:10477000E9FFDB063A0EDBCFEAFF01E2DB06090EBA
:10478000DBCFEFFF150EDB2A4BD995E1030EDBA63D
:104790001DD06F0EDF5C06E1C1D918E3150EDB28D2
:1047A0005BDA14D0780EDF5C09E0580EDF5C06E0BF
:1047B000620EDF5C03E0420EDF5C08E1020EF36E86
:1047C000160EF3CFDBFF02D0150EDB6A030EDB50B3
:1047D000100B0EE0040EDBCF00F0050EDB50D8808E
:1047E000005406E2060EDB5003E1040EDB5034DA1F
:1047F00095D90AE2050EDBCFE7FF150EDB50E75E29
:10480000050EE7CFDBFF02D0050EDB6A040EDBCF1F
:1048100000F0160E45D9D880005414E2160EDBCFF6
:10482000E6FF150EDBCFE6FF040EDBCFE6FF050E3D
:10483000DB50E552E75CE552D880E754E552D8807A
:10484000E7545FD9030EDB50010B0BE1080EDB5080
:1048500008E0B2D801E08DD0080EDB50BED8080EBB
:10486000DB6A170EDB5007E088D9170EF1D903E198
:10487000011C01E17ED0160EDB5016E07ED9300E11
:10488000E66E9FD802E1011C74E077D9DFCFE6FF26
:104890005AEC43F0E552E552E552F4CF01F0000145
:1048A000F31C02E1011C65E0050EDBCF00F0160EE3
:1048B000DB50D880005409E2050EDBCFE7FF160E6F
:1048C000DB50E75E050EE7CFDBFF300EE66E050E30
:1048D000CBD94FE1390EDB2ADBCFE9FF3A0E01E3FA
:1048E000DB2ADBCFEAFF090EEFCFDBFFDB500EE068
:1048F00044D9090EADD902E1011C3BE0390EDB2A97
:10490000DBCFE9FF3A0EEDE3DB2AEBD755D831E1F7
:10491000160EDBCFE6FF080EC3D8E552E7245DD8BC
:104920002ED0070EDB50030A1CE0010A14E0030A34
:1049300007E07BD9DBCFEEFF020EDBCFEDFF1FD010
:10494000F5D8056A03AE02D0046805682CD8BCD837
:1049500005C0EEFF14D0EAD803BE046824D8B4D84A
:104960000ED063D9DBCFEFFF0AD07BD905E1011C64
:1049700003E1F368F46810D0FCD801E3DB2A79D9AD
:104980005EEF20F0010EDBCF00F0020EDBCF01F076
:1049900000C0F3FF01C0F4FF3B0EE15C02E2E16AFC
:1049A000E552E16ECBD029D9020EC4EF25F061D9D2
:1049B0000800F550DF6E1200200EE66E080E34EF90
:1049C00026F05AEC43F0E552E552E552F3CF00F001
:1049D000F4CF01F00001F31C1200006E016AD950FF
:1049E000010F4DD90050EE260150ED221200045E59
:1049F000000E055AF70E04C0DBFFF80E05C0DBFF02
:104A000004C0E9FF05C0EAFF1200DBCFF4FFF3505A
:104A1000F45C1200DB50E76E040EE7CFDBFF120000
:104A20000A0EDBCF00F00B0EDBCF01F00C0EDBCF5C
:104A300002F00D0EDBCF03F0005001100210031046
:104A40001200130EEECFDBFF140EEDCFDBFF130EC3
:104A5000DBCF00F0140EDBCF01F00001800E01145B
:104A60001200F70EDBCF04F0F80EDBCF05F01200DA
:104A7000050EDB50E66ED950130F01D9E552E75011
:104A8000EE6EED6A12000A0EDBCF26F00B0EDBCFC6
:104A900027F00C0EDBCF28F00D0EDBCF29F0120033
:104AA000DBCFE6FF150EDBCFE6FF050EDB50E55250
:104AB000E724E552E7241200DB50CED8010EF36E56
:104AC000060EF3CFDBFF1200EE50EFCFEAFFE96EE8
:104AD00002C0EEFF03C0EEFF04C0EEFF1200D9CF0C
:104AE000E6FFDACFE6FFE1CFD9FFE2CFDAFF12002F
:104AF000DFCFE6FFE66A0EEC44F0E552E552F350F4
:104B00001200E76E080EE7CFDBFF1200EECF00F0D9
:104B1000EECF01F0EFCF02F0036A1200050EDBCFFB
:104B200000F0150EDB50D88000541200010EDBCFD0
:104B300002F0020EDBCF03F0046A1200E552E5CF6B
:104B4000DAFFE7CFD9FF12000A0E00C0DBFF0B0E21
:104B500001C0DBFF1200D9500A0F3FEF26F0F36EC1
:104B6000070EF3CFDBFF1200EECF00F0EFCF01F026
:104B70001200010EDB2A020E1200FC0EDBCFE6FF54
:104B8000FD0EDBCFE6FF1200005E000E015AF70EAD
:104B900000C0DBFFF80E01C0DBFF00C0E9FF01C071
:104BA000EAFF1200DA20EA6EEF2AEECFF6FF000EDF
:104BB000EF22EECFF7FFEF22EECFF8FF1200040E48
:104BC000DBCFE6FF130EDB50E552E75C9ADFDB50EC
:104BD00004DF060EDB501200090EDB500A0DF35005
:104BE000DF24D00FE76E090EE7CFDBFFD7EF24F00D
:104BF000DB50F36E050E05EF25F0F70EDBCF00F06E
:104C0000F80EDBCF01F01200DFCFE6FFE1EF24F07A
:104C100028DF030EECDE86EF25F033EC20F0E552C2
:104C2000E552E552E55200091200BDDEEE50EFCF2D
:104C3000EAFFE96E010E1200130EDB50F36E040E54
:104C400005EF25F0040EDB50F36E090E05EF25F09D
:104C5000DBCFE6FFE1EF24F0E76E050EE7CFDBFFE9
:104C600012008BDF04EF26F0DBCFE6FF86DF0DEFCF
:104C700026F0D950F90FE96EFF0ED2EF25F0E96E5C
:084C8000000EDA20EA6E1200BA
:084C8800DACFE4FFE2CFDAFF0E
:104C9000E9CFE4FFEACFE4FFF6CFE4FFF7CFE4FF8C
:104CA000F5CFE4FFF3CFE4FFF4CFE4FFFACFE4FF66
:104CB00000EE20F0140EE80403E3EECFE4FFFBD790
:104CC00000EE00F0200EE80403E3EECFE4FFFBD794
:104CD000E65260BE7CD80F0150BF7FDAA46AE5526D
:104CE00000EE1FF0200EE80403E3E5CFEDFFFBD755
:104CF00000EE33F0140EE80403E3E5CFEDFFFBD73D
:104D0000E5CFFAFFE5CFF4FFE5CFF3FFE5CFF5FF01
:104D1000E5CFF7FFE5CFF6FFE5CFEAFFE5CFE9FF07
:104D2000E5CFDAFF11007DEC2BF0020EE126060143
:104D3000540EE86F520EE96FEA6BEB6BEC6B900E62
:104D40006F6E6EAEFED7606A0F01A00E196F186904
:104D5000016B200E006F506BE00E1D6F1C69800E02
:104D6000096F680E086F400E0D6F800E0C6F116B8F
:104D7000106F706AD20E716E020E726E200E736E1C
:104D80000601FC51000802E26F6A02D0600E6F6EED
:104D9000D08EA382A380030EA56E020EE66EF3EC06
:104DA0003CF0E552F3CFDEFFF4CFDDFFDECFE9FFCD
:104DB000DDCFEAFFEFCFF5F70701D16BD96B020E1C
:104DC000E15C02E2E16AE552E16E82EF2BF00F0E48
:104DD00065140701C86F66CFC9F767CFCAF768CFF8
:104DE000CBF769CFCCF76ACFCDF76BCFCEF76CCFCF
:104DF000CFF76DCFD0F7609EC951A60A01E1E6D189
:104E0000030A01E1BDD1010A01E1B2D1070A01E1C2
:104E1000A5D1350A01E14DD1030A01E10ED11C0AE9
:104E200001E1D2D0010A01E1C0D00D0A01E18CD02C
:104E3000010A6DE0070A4EE0010A46E0030A26E097
:104E4000010A0CE08E0A01E01200CA510901115D4D
:104E500002E0B9EC19F0CAC711F91200CAC713F978
:104E6000CCC701F0006ACB5109010024146F000E79
:104E70000120156FD0C701F0006A0701CF51090169
:104E80000024166F000E0120176F120035EC2BF076
:104E900003E06FEC2BF0FDE1B7DB03E076EC2BF0E9
:104EA000FDE1BBDB03E086EC2BF0FDE100500C24C0
:104EB0000901186F01500D20196F02500E201A6F52
:104EC00003500F201B6F1200CAC720F90901780E8A
:104ED000516F1200CADB03E06FEC2BF0FDE194DBB5
:104EE00003E076EC2BF0FDE198DB03E086EC2BF0A1
:104EF000FDE100500C240901446F01500D20456F65
:104F000002500E20466F03500F20476F1200ADDB9A
:104F100003E06FEC2BF0FDE177DB03E076EC2BF0A8
:104F2000FDE17BDB03E086EC2BF0FDE100500C247F
:104F30000901486F01500D20496F02500E204A6F41
:104F400003500F204B6F1200CAC750F9090150518E
:104F500029E0CCC701F0006A0701CB510901002408
:104F60004C6F000E01204D6F680E4C1905E1010ECB
:104F70004D1902E14C6B4D6BF00E0701CE1504E0AC
:104F800009014E6B4F6B0AD0CEC701F0006ACD51BC
:104F9000090100244E6F000E01204F6F0901780EA9
:104FA000536F12000901536B1200CAC705F9CFC72E
:104FB00006F9CCC701F0006ACB5109010024076F44
:104FC000000E0120086F12004D0E0701F55D03E190
:104FD000CAC712F926D0CAC726F0276A286A296AE2
:104FE000490E2B6E060E2C6E2D6A2E6A9CEC43F039
:104FF00022C026F023C027F024C028F025C029F0C5
:10500000F40E2626010E2722000E28222922E80E61
:105010002B6E030E2C6E2D6A2E6AD4EC43F026C044
:1050200012F9CCC701F0006A0701CB510901002435
:10503000036F000E0120046F1200150E0901095DB7
:1050400009E2150E0701CA5D05E3030ECB5D02E020
:10505000010E7FDB0F0E0901095D09E10D0E07014D
:10506000CA5D05E1030ECB5D02E0010E72DB0901B2
:1050700009510701CA5D05E109010A510701CB5D2C
:1050800002E0B9EC19F0CAC709F9CBC70AF9060161
:10509000FBA104D00F0E0701CD1504D00701CE39B6
:1050A0000F0B0F0B09010B6FCCC70CF9D0C70DF913
:1050B00012000F0E0901095D02E10701CA8907010B
:1050C000CA5109010E5D0AE10701CB5109010F5DCB
:1050D00005E10701CC510901105D02E0B9EC19F0BE
:1050E000400E09010F1509E1400E0701CB1505E03F
:1050F000100ECB1502E0030E2CDBCAC70EF9CBC78E
:105100000FF9CCC710F93DDB1BE109011C511D1142
:105110001E111F1115E10901185119111A111B1146
:105120000FE018C91CF919C91DF91AC91EF91BC9C4
:105130001FF909011C07000E1D5B1E5B1F5B0CD0D5
:1051400020DB4AE009011C511D111E111F1144E012
:105150001C6B1D6B1E6B1F6BB9EF19F0CAC733F9BF
:10516000CBC734F9CFC735F90901780E526F120059
:10517000DA6B070EDA5D30E2DADADA51CEDAF9D735
:10518000DA6B070EDA5D05E2D2DA070EDA25C5DA48
:10519000F8D7410ECB5D03E0420ECB5D03E1060183
:1051A000320E02D00601310EEA6F380E0701CB5DD8
:1051B00002E10601FB81330E0701C95D03E106012F
:1051C000530E02D006014E0EEB6F1200CAC72FF924
:1051D000CBC730F9CCC731F912008FDAE6520F0E87
:1051E0000F0155150701C86F56CFC9F757CFCAF73A
:1051F00058CFCBF759CFCCF75ACFCDF75BCFCEF7FF
:105200005CCFCFF75DCFD0F750CFDFFF0F01509FBE
:10521000070EDF14040830E1020E0701C95D01E04A
:1052200086D00601ED51000801E381D0AADA01E140
:105230007ED00701CB510901125D01E178D0060152
:10524000FC51000874E2C9C7D1F7CAC7D2F712C926
:10525000D3F7F00E0701CC15D46FCDC7D5F7CEC765
:10526000D6F7CFC7D7F7D0C7D8F70F0140B7FDD7CC
:10527000E4D9EDC6D9F75BD0070EDF14020821E1AF
:105280000701CC51000804E2CBC73AF9CCC736F984
:10529000D051000804E2CFC73BF9D0C737F9CA5153
:1052A000000804E2C9C73CF9CAC738F9CE51000862
:1052B00004E2CDC73DF9CEC739F90901780E546F24
:1052C00036D00701C951FA0A32E1CCC700F0016AB1
:1052D000026A036ACDC704F0056A066A076A080E07
:1052E0001F0B02E0FCD9FEE150DACEC708F0096AD4
:1052F0000A6A0B6A100E1F0B02E0F8D9FEE100509B
:1053000008240901406F01500920416F02500A2012
:10531000426F03500B20436FD0C701F0006A0701B2
:10532000CF51090100243E6F000E01203F6FE5526E
:10533000E9D1000E0901E76E5119E8AE02D05135EE
:1053400003D0E750D880515501E25107000E090102
:10535000E76E5219E8AE02D0523503D0E750D8803C
:10536000525501E25207000E0901E76E5319E8AEEB
:1053700002D0533503D0E750D880535501E253078C
:10538000000E0901E76E5419E8AE02D0543503D07F
:10539000E750D880545501E254071200AED9020EEE
:1053A000E1260601F651DE6EDD6A0701F25112E1D7
:1053B000C7D901500318E8AE02D0033404D002501C
:1053C000005C0350015806E2020EC3D90701010E2A
:1053D000F26F15D00701F20512E1B2D9020E0226D2
:1053E000000E032203500118E8AE02D0013404D0AD
:1053F0000050025C0150035802E20701F26B020EFA
:10540000E15C02E2E16AE552E16E7CD11200120039
:105410000701F32B000EF4238CDFAED93C0E2D6E6A
:105420002E6A30D901E1BADFA7D92C0E2D6E010EFC
:105430002E6E28D901E1EADF9FD9580E2D6E020E9B
:105440002E6E20D906E1E3DF580E0701F35F020E4E
:10545000F45B12000701D95102E1EDC6D9F7120041
:105460000701D95101E11200020ED15D13E10601DD
:10547000ED5100080FE285D90DE00601FC5100084E
:1054800009E2010EE66E20EC44F0E5520F0140B750
:10549000FDD7D3D80701D90712000F0140B7FDD7B8
:1054A00018D90A0E466F010E456F080E406F40B7BF
:1054B000FED712000F0140B7FDD70BD9060E466F7D
:1054C0002C0E476F010E486F496B4A6B090E4B6FEC
:1054D000100E4C6F4D6B080E456F406F40B7FED7F6
:1054E00012000BD90F0140B7FDD758D9190ED7D8E4
:1054F00040B7FED7D2DF06D100D90F0140B7FDD7A4
:105500004DD9020ECCD840B7FED7C7DFFBD0F5D8B7
:105510000F0140B7FDD742D9030EC1D840B7FED71F
:10552000BCDFF0D0EAD8040EE12618D929EC3CF013
:10553000E552E55226C0DEFF27C0DEFF28C0DEFFB1
:1055400029C0DDFFDD52DD52FE0EDB50020802E114
:1055500018D953E10F0140B7FDD7BBD80B0E466FEA
:10556000FE0EDBCF47FF486B496BA6D800504A6F51
:10557000A3D8080EFAD8FEE100500F014B6F9CD85B
:10558000100EF3D8FEE100500F014C6FE7D855EC38
:1055900038F0E552E552F3CF00F0F4CF01F0040EFD
:1055A000D89000360136E804FBE1026A036A180E5F
:1055B000086ED9CFE9FFDACFEAFFE8501F0BEECF34
:1055C00004F0EECF05F0EECF06F0EECF07F007E0E7
:1055D000D8900732063205320432E806F9E10F0EA0
:1055E0000416056A066A076AD0D800C04DFF0F018D
:1055F000080E456F406F40B7FED7040EE15C02E233
:10560000E16AE552E16E7ED0C0D8CFC708F0096AE2
:105610000A6A0B6A100E1F0B120008500026095070
:1056200001220A5002220B500322D0C70CF00D6A4F
:105630000E6A0F6A180E1F0B1200406B426B800E31
:10564000416FD1C746FFD2C747FFD3C748FFD4C772
:1056500049FFD5C74AFFD6C74BFFD7C74CFFD8C7AE
:105660004DFF080E456F406F1200CDC700F0016A74
:10567000026A036ACEC704F0056A066A076A080E62
:105680001F0B1200F3C728F0F4C729F0F8EC43F021
:1056900024C000F025C001F0245025101200476FEF
:1056A000486B496BFE0EDBCF4AFF4B6B4C6B4D6B6F
:1056B000080E456F406F1200D9CFE9FFDACFEAFF3D
:1056C000EECF00F0EECF01F0EECF02F0EFCF03F01F
:1056D0001200406B400E426F200E416F1200D890B6
:1056E0000436053606360736E8061200D890083626
:1056F00009360A360B36E8061200D9CFE6FFE1CFAD
:10570000D9FF1200E552E7CFD9FF1200D8900C362E
:105710000D360E360F36E8061200EA6A210FE96EE2
:10572000090EEA22E552E750EF6EDA2B1200DA2971
:10573000EA6AC90FE96E070EEA22EF50E66E120020
:1057400009011351006E016ADECF02F0DDCF03F0D4
:105750001200E66E97EC19F0E5521200FC0EDBCF5A
:10576000E6FFFD0EDBCFE6FF1200D89003320232D7
:1057700001320032E8061200F3C700F0F4C701F06E
:105780001200800E09010E1512000450002605506B
:105790000122065002220750032212009ADF050E52
:0457A000466F12003E
:0C57A40022DB0601CA0EFD6F690E7BDBE4
:1057B00050DBC3DB0601C60EFD6F690E74DB020E03
:1057C00020DB18D312DB0601FBB508D0F3DAFDC5E8
:1057D000FDF6FEC5FEF662EC19F0FDDA0BD305DB33
:1057E000030EE1260601FBB51AD0E4DA0601BC0E71
:1057F000FD6F690E58DBDF6A200EDF5C0FE2DFCF42
:10580000E6FFE66AB70E006E690ECDDADFCFE6FF7F
:10581000F3EC3CF06BDB91DBDF2AEED7DCDA030E36
:10582000E15C02E2E16AE552E16EE4D2DEDA060111
:10583000FBB51FD0020E3ADB0601E60EFD6F820EAD
:10584000F0DA44C9E6FF45C9E6FF46C9E6FF47C9A5
:10585000E6FF56DB0601B50EFD6F690EE2DA48C9B8
:10586000E6FF49C9E6FF4AC9E6FF4BC9E6FF48DB48
:10587000B2DAC0D22BDB0601FBB5A6D017DB0901DB
:105880000EA54AD009010B51040A15E0070A0EE0E3
:10589000020A07E0010A16E10601A90EFD6F690E72
:1058A0000ED006019E0EFD6F690E09D00601950E01
:1058B000FD6F690E04D00601860EFD6F690EFE6F46
:1058C00062EC19F0090109510F0A21E0020A1AE0FD
:1058D000090A13E0060A0CE0030A05E00601220E9D
:1058E000FD6F690E1DD006017D0EFD6F690E18D08B
:1058F0000601670EFD6F690E13D00601590EFD6F8C
:10590000690E0ED00601450EFD6F690E09D0060125
:10591000330EFD6F690E04D00601150EFD6F690E82
:10592000C2DA0601050EFD6F690EBDDA020EE66EE3
:10593000F4DA64DA4D0809E114C9E6FF15C9E6FF97
:10594000FF0E006E680E99DA30D014C900F015C948
:1059500001F0040ED89000360136E804FBE1050E94
:105960000026000E01220A0E2D6E2E6A00C028F0BD
:1059700001C029F0F8EC43F028C000F029C001F084
:1059800028C0E6FF29C0E6FFF90E026E680E036E1E
:10599000046A02C0E6FFE66E04C0E6FFB9DA1DEC59
:1059A00042F0056E070EE15E055064DA0601F10E65
:1059B000FD6F680E78DA09011351E66EE66AEC0EA7
:1059C000006E680EF0D907DA020EE15C02E2E16ACD
:1059D000E552E16E0FD27ADA0601FBB507D066DA3E
:1059E0000601C20EFD6F820E5EDAF5D9020EE15C91
:1059F00002E2E16AE552E16EFDD1F7D9080EE12637
:105A0000FB0EDBCFDEFFDBCFDDFFF8D918E0F6D9E8
:105A1000200815E0F3D960080DE25CDAEFCF00F062
:105A20007B0E005C07E2EAD9E00FE66E53DAE5523E
:105A3000E750EF6EDF2A010EE8E3DB2AE6D7090E16
:105A4000E66EE66AE20E006E680E81D910E1AED90C
:105A5000090E93D908E1FDD9E66ADDD90501540E96
:105A6000FD6F820ECAD00601FBB34BD1C2D0050E2A
:105A7000E66EE66ADC0E006E680E69D910E15DD94B
:105A80000AE1050E2CDA010EE66EC5D90501810E7C
:105A9000FD6F820EB2D00601FBB333D1AAD0040E43
