:020000040000FA
:0600000017EF6EF0120084
:020006001200E6
:060008003EEF54F012006F
:02000E001200DE
:020010000100ED
:040012000000004D9D
:06001800F5EF3EF01200BE
:02001E000700D9
:1000200012000000FA0000000400000014DD0000CF
:100030000008000040000000F3DC0000D8040000CD
:1000400021000000BEDC0000CA06000035000000F0
:1000500075DB0000FF0600000100000077DC0000F7
:10006000640700004700000010000000FE000000D0
:04007000020000008A
:0C007400D9CFE6FFE1CFD9FFFD0EDBCFB6
:10008000E9FFFE0EDBCFEAFF100EE926000EEA22A2
:10009000040EE926000EEA22EE6AEE6AEE6AEE6AC5
:1000A000FD0EDBCFE9FFFE0EDBCFEAFF100EE926E7
:1000B000000EEA22EE6AEE6AEE6AEE6AFD0EDBCF11
:1000C000E9FFFE0EDBCFEAFF010EEE6E230EEE6EB1
:1000D000450EEE6E670EEE6EFD0EDBCFE9FFFE0EF7
:1000E000DBCFEAFF040EE926000EEA22890EEE6E4F
:1000F000AB0EEE6ECD0EEE6EEF0EEE6EFD0EDBCFA6
:10010000E9FFFE0EDBCFEAFF080EE926000EEA2229
:10011000FE0EEE6EDC0EEE6EBA0EEE6E980EEE6E0B
:10012000FD0EDBCFE9FFFE0EDBCFEAFF0C0EE9266A
:10013000000EEA22760EEE6E540EEE6E320EEE6E6B
:10014000100EEE6EE552E7CFD9FF1200D9CFE6FFD1
:10015000E1CFD9FF080EE126030E046EFD0EDBCFC2
:10016000E9FFFE0EDBCFEAFF100EE926000EEA22C1
:1001700004501F0BEECF00F0EECF01F0EECF02F0F7
:10018000EECF03F007E0D8900332023201320032A2
:10019000E806F9E13F0E0016016A026A036A00C030
:1001A000DFFF010E01C0DBFF020E02C0DBFF030E0A
:1001B00003C0DBFFF90EDBCF04F0FA0EDBCF05F056
:1001C000066A076A05AE02D006680768030E1F0BB1
:1001D00007E0D8900436053606360736E806F9E11A
:1001E000FD0EDBCFE9FFFE0EDBCFEAFF100EE926A6
:1001F000000EEA220450EF26EECF00F00550EF2269
:10020000EECF01F00650EF22EECF02F00750EF22C2
:10021000EECF03F0F90EDBCF08F0FA0EDBCF09F0DA
:100220000A6A0B6A09AE02D00A680B68030E1F0B3C
:1002300007E0D890083609360A360B36E806F9E1A9
:100240000850005C095001580A5002580B500358DE
:1002500012E2FD0EDBCFE9FFFE0EDBCFEAFF100E50
:10026000E926000EEA22040EE926000EEA22EE2A12
:10027000EE22EE22EE22F90EDBCF00F0FA0EDBCFFB
:1002800001F0026A036A01AE02D0026803681D0E23
:10029000D8900332023201320032E806F9E1FD0E55
:1002A000DBCFE9FFFE0EDBCFEAFF100EE926000EE2
:1002B000EA22040EE926000EEA220050EE26015042
:1002C000EE220250EE220350EE22400E046E056A2A
:1002D000066A076AD9CFE9FFDACFEAFFEE50045C7D
:1002E000006EEE500558016EEE500658EE5007585D
:1002F000060E00C0DBFF070E01C0DBFFF90EDBCFEF
:1003000000F0FA0EDBCF01F0060EDBCF02F0070E95
:10031000DBCF03F001500318E8AE02D0033404D061
:100320000250005C0350015801E2ADD0060EDBCF55
:10033000E6FF070EDBCFE6FFFB0EDBCFE6FFFC0E92
:10034000DBCFE6FFFD0EDBCFE9FFFE0EDBCFEAFFE2
:10035000180EE926000EEA22E9CF02F0EACF03F0F8
:10036000DB50E924006E010EDB50EA20016E00C074
:10037000E6FFE66EBFEC63F0046E060EE15E04502D
:10038000FD0EDBCFE9FFFE0EDBCFEAFF180EE926FC
:10039000000EEA22E9CF00F0EACF01F0E9CFE6FF54
:1003A000EACFE6FFFD0EDBCFE9FFFE0EDBCFEAFF73
:1003B000E9CF02F0EACF03F0E9CFE6FFEACFE6FFAC
:1003C0009CD9E552E552E552E552060EDBCF28F006
:1003D000070EDBCF29F0040E28C0DBFF050E29C075
:1003E000DBFF3F0EE76E040EDBCF00F0050EDBCF28
:1003F00001F0E7500026000E0122F90EDBCF02F0DB
:10040000FA0EDBCF03F001500318E8AE02D003343C
:1004100004D00250005C035001582EE2040EDBCFE2
:1004200002F0050EDBCF03F0FB0EDB500224006E62
:10043000FC0EDB500320016E00C0E6FFE66EFD0EF1
:10044000DBCFE9FFFE0EDBCFEAFFE9CF04F0EACF16
:1004500005F0E9CFE6FFEACFE6FF4FD9E552E552D6
:10046000E552E552D950040FE96EDACFEAFF400EAB
:10047000EE26000EED22B5D7DE6ADE6ADE6ADD6AA0
:10048000DD52DD5204D0040EDB6A050EDB6AF90E84
:10049000DBCF02F0FA0EDBCF03F0040EDB50025C80
:1004A000006E050EDB500358016E00C0E6FFE66EDD
:1004B000040EDBCF06F0050EDBCF07F0FB0EDB50A2
:1004C0000624046EFC0EDB500720056E04C0E6FF18
:1004D000E66EFD0EDBCFE9FFFE0EDBCFEAFF180E66
:1004E000E926000EEA22E9CF0AF0EACF0BF0DB5052
:1004F000E924086E010EDB50EA20096E08C0E6FF11
:10050000E66EBFEC63F00C6E060EE15E0C50080E5A
:10051000E15C02E2E16AE552E16EE552E7CFD9FF24
:100520001200D9CFE6FFE1CFD9FF100EE126080E69
:10053000E66EE66AE66AE66AFB0EDBCFE9FFFC0ED2
:10054000DBCFEAFF100EE926000EEA22E9CF00F029
:10055000EACF01F0E9CFE6FFEACFE6FFD9CFE6FF29
:10056000DACFE6FF52EC2DF0026E080EE15E02508B
:10057000030E046EFB0EDBCFE9FFFC0EDBCFEAFFC0
:10058000100EE926000EEA2204501F0BEECF00F0F9
:10059000EECF01F0EECF02F0EECF03F007E0D890FF
:1005A0000332023201320032E806F9E13F0E001652
:1005B000016A026A036A080E00C0DBFF090E01C06F
:1005C000DBFF0A0E02C0DBFF0B0E03C0DBFFD950BE
:1005D000080FE96EDACFEAFF380EEE5C000EEE5837
:1005E000000EEE58000EEE5816E2380E046E056A44
:1005F000066A076AD950080FE96EDACFEAFFEE50B3
:10060000045C006EEE500558016EEE500658026E06
:10061000EE50075815D0780E086E096A0A6A0B6A00
:10062000D950080FE96EDACFEAFFEE50085C006E91
:10063000EE500958016EEE500A58026EEE500B58FB
:10064000036E0C0E00C0DBFF0D0E01C0DBFF0E0EB3
:1006500002C0DBFF0F0E03C0DBFF0C0EDBCFE6FF9B
:100660000D0EDBCFE6FF000EE66E080EE66EFB0E0B
:10067000DBCFE6FFFC0EDBCFE6FF68DD006E060E8B
:10068000E15E0050080EE66EE66AD9CFE6FFDACFEB
:10069000E6FFFB0EDBCFE6FFFC0EDBCFE6FF56DD11
:1006A000006E060EE15E0050100EE66EE66AE66A27
:1006B000E66AFB0EDBCFE9FFFC0EDBCFEAFFE9CFFA
:1006C00000F0EACF01F0E9CFE6FFEACFE6FFFD0E4A
:1006D000DBCFE6FFFE0EDBCFE6FF52EC2DF0026E25
:1006E000080EE15E0250100EE15C02E2E16AE552A2
:1006F000E16EE552E7CFD9FF1200D9CFE6FFE1CF97
:10070000D9FF100EE126FD0EDBCFE9FFFE0EDBCF99
:10071000EAFFEECFDFFF010EEECFDBFF020EEECFE2
:10072000DBFF030EEECFDBFF040EE76EFD0EDBCF2B
:10073000E9FFFE0EDBCFEAFFE750E926000EEA22D2
:10074000040EEECFDBFF050EEECFDBFF060EEECF85
:10075000DBFF070EEECFDBFF080EE76EFD0EDBCFF3
:10076000E9FFFE0EDBCFEAFFE750E926000EEA22A2
:10077000080EEECFDBFF090EEECFDBFF0A0EEECF49
:10078000DBFF0B0EEECFDBFF0C0EE76EFD0EDBCFBB
:10079000E9FFFE0EDBCFEAFFE750E926000EEA2272
:1007A0000C0EEECFDBFF0D0EEECFDBFF0E0EEECF0D
:1007B000DBFF0F0EEECFDBFF400EE66EE66AE66A69
:1007C000E66AFB0EDBCFE6FFFC0EDBCFE6FFAB0EEF
:1007D000E66E070EE66E8EEC2EF0006E080EE15E01
:1007E0000050080EDBCF04F0090EDBCF05F00A0E37
:1007F000DBCF06F00B0EDBCF07F0D950040FE96E0C
:10080000DACFEAFFEE500416EE500516EE5006164B
:10081000EE500716040EDBCF0CF0050EDBCF0DF00B
:10082000060EDBCF0EF0070EDBCF0FF00C1E0D1EF9
:100830000E1E0F1ED9500C0FE96EDACFEAFF0C50D6
:10084000EE14086E0D50EE14096E0E50EE140A6E82
:100850000F50EE140B6E08500412095005120A5086
:1008600006120B50071204500701AB25006E05500D
:10087000AC21016E0650AD21026E0750AE21036E11
:10088000780E0026A40E01226A0E0222D70E032241
:100890000050DE260150DE220250DE220350DD220F
:1008A000DD52DD52D9CFE9FFDACFEAFFEECF00F01B
:1008B000EECF01F0EECF02F0EFCF03F0070E1F0BEB
:1008C00007E0D8900036013602360336E806F9E133
:1008D000D9CFE9FFDACFEAFFEECF04F0EECF05F093
:1008E000EECF06F0EFCF07F0190ED89007320632A0
:1008F00005320432E806F9E10450001205500112F5
:10090000065002120750031200C0DFFF010E01C0A3
:10091000DBFF020E02C0DBFF030E03C0DBFFD9CFFB
:10092000E9FFDACFEAFF040EDB50EE26050EDB50BE
:10093000EE22060EDB50EE22070EDB50EE22040EF6
:10094000DBCF04F0050EDBCF05F0060EDBCF06F0A3
:10095000070EDBCF07F0D9CFE9FFDACFEAFFEE5081
:100960000416EE500516EE500616EE500716D9CFB7
:10097000E9FFDACFEAFFEECF0CF0EECF0DF0EECFCD
:100980000EF0EFCF0FF00C1E0D1E0E1E0F1ED950D5
:10099000080FE96EDACFEAFF0C50EE14086E0D5026
:1009A000EE14096E0E50EE140A6E0F50EE140B6E1C
:1009B00008500412095005120A5006120B50071273
:1009C00004500701AF25006E0550B021016E06509E
:1009D000B121026E0750B221036E560E0026B70EEB
:1009E0000122C70E0222E80E0322D9500C0FE96E35
:1009F000DACFEAFF0050EE260150EE220250EE223E
:100A00000350EE220C0EDBCF00F00D0EDBCF01F019
:100A10000E0EDBCF02F00F0EDBCF03F00C0E1F0B20
:100A200007E0D8900036013602360336E806F9E1D1
:100A30000C0EDBCF04F00D0EDBCF05F00E0EDBCF7E
:100A400006F00F0EDBCF07F0140ED89007320632F7
:100A500005320432E806F9E1045000120550011293
:100A600006500212075003120C0E00C0DBFF0D0EE1
:100A700001C0DBFF0E0E02C0DBFF0F0E03C0DBFF69
:100A8000D9500C0FE96EDACFEAFFDF50EE26010EE7
:100A9000DB50EE22020EDB50EE22030EDB50EE2284
:100AA000D9CFE9FFDACFEAFFEECF04F0EECF05F0C1
:100AB000EECF06F0EFCF07F0D9500C0FE96EDACF8A
:100AC000EAFFEE500416EE500516EE500616EE50F4
:100AD00007160C0EDBCF0CF00D0EDBCF0DF00E0E5B
:100AE000DBCF0EF00F0EDBCF0FF00C1E0D1E0E1E17
:100AF0000F1ED950040FE96EDACFEAFF0C50EE1446
:100B0000086E0D50EE14096E0E50EE140A6E0F5062
:100B1000EE140B6E08500412095005120A5006120A
:100B20000B50071204500701B325006E0550B42185
:100B3000016E0650B521026E0750B621036EDB0E22
:100B40000026700E0122200E0222240E0322D9500C
:100B5000080FE96EDACFEAFF0050EE260150EE22D0
:100B60000250EE220350EE22080EDBCF00F0090EF9
:100B7000DBCF01F00A0EDBCF02F00B0EDBCF03F070
:100B8000110E1F0B07E0D8900036013602360336EF
:100B9000E806F9E1080EDBCF04F0090EDBCF05F023
:100BA0000A0EDBCF06F00B0EDBCF07F00F0ED8904E
:100BB0000732063205320432E806F9E10450001229
:100BC000055001120650021207500312080E00C011
:100BD000DBFF090E01C0DBFF0A0E02C0DBFF0B0EBC
:100BE00003C0DBFFD950080FE96EDACFEAFF0C0E25
:100BF000DB50EE260D0EDB50EE220E0EDB50EE2209
:100C00000F0EDB50EE220C0EDBCF04F00D0EDBCF0F
:100C100005F00E0EDBCF06F00F0EDBCF07F0D9503C
:100C2000080FE96EDACFEAFFEE500416EE50051613
:100C3000EE500616EE500716080EDBCF0CF0090E2C
:100C4000DBCF0DF00A0EDBCF0EF00B0EDBCF0FF07B
:100C50000C1E0D1E0E1E0F1ED9CFE9FFDACFEAFFC4
:100C60000C50EE14086E0D50EE14096E0E50EE147A
:100C70000A6E0F50EE140B6E085004120950051244
:100C80000A5006120B50071204500701B725006ED8
:100C90000550B821016E0650B921026E0750BA21E5
:100CA000036EEE0E0026CE0E0122BD0E0222C10EF4
:100CB0000322D950040FE96EDACFEAFF0050EE2686
:100CC0000150EE220250EE220350EE22040EDBCF42
:100CD00000F0050EDBCF01F0060EDBCF02F0070EB1
:100CE000DBCF03F0160E1F0B07E0D890003601365D
:100CF00002360336E806F9E1040EDBCF04F0050EF8
:100D0000DBCF05F0060EDBCF06F0070EDBCF07F0DA
:100D10000A0ED8900732063205320432E806F9E1AD
:100D2000045000120550011206500212075003121F
:100D3000040E00C0DBFF050E01C0DBFF060E02C083
:100D4000DBFF070E03C0DBFFD950040FE96EDACFDB
:100D5000EAFF080EDB50EE26090EDB50EE220A0EEB
:100D6000DB50EE220B0EDB50EE22080EDBCF04F040
:100D7000090EDBCF05F00A0EDBCF06F00B0EDBCF42
:100D800007F0D950040FE96EDACFEAFFEE500416EF
:100D9000EE500516EE500616EE500716040EDBCF89
:100DA0000CF0050EDBCF0DF0060EDBCF0EF0070EBC
:100DB000DBCF0FF00C1E0D1E0E1E0F1ED9500C0F98
:100DC000E96EDACFEAFF0C50EE14086E0D50EE1407
:100DD000096E0E50EE140A6E0F50EE140B6E085092
:100DE0000412095005120A5006120B500712045043
:100DF0000701BB25006E0550BC21016E0650BD21C8
:100E0000026E0750BE21036EAF0E00260F0E0122A8
:100E10007C0E0222F50E03220050DE260150DE2257
:100E20000250DE220350DD22DD52DD52D9CFE9FF30
:100E3000DACFEAFFEECF00F0EECF01F0EECF02F016
:100E4000EFCF03F0070E1F0B07E0D89000360136F6
:100E500002360336E806F9E1D9CFE9FFDACFEAFF37
:100E6000EECF04F0EECF05F0EECF06F0EFCF07F0B7
:100E7000190ED8900732063205320432E806F9E13D
:100E800004500012055001120650021207500312BE
:100E900000C0DFFF010E01C0DBFF020E02C0DBFF5E
:100EA000030E03C0DBFFD9CFE9FFDACFEAFF040E60
:100EB000DB50EE26050EDB50EE22060EDB50EE2256
:100EC000070EDB50EE22040EDBCF04F0050EDBCF65
:100ED00005F0060EDBCF06F0070EDBCF07F0D9CF0B
:100EE000E9FFDACFEAFFEE500416EE500516EE5099
:100EF0000616EE500716D9CFE9FFDACFEAFFEECF9C
:100F00000CF0EECF0DF0EECF0EF0EFCF0FF00C1E89
:100F10000D1E0E1E0F1ED950080FE96EDACFEAFF24
:100F20000C50EE14086E0D50EE14096E0E50EE14B7
:100F30000A6E0F50EE140B6E085004120950051281
:100F40000A5006120B50071204500701BF25006E0D
:100F50000550C021016E0650C121026E0750C2210A
:100F6000036E2A0E0026C60E0122870E0222470EAD
:100F70000322D9500C0FE96EDACFEAFF0050EE26BB
:100F80000150EE220250EE220350EE220C0EDBCF77
:100F900000F00D0EDBCF01F00E0EDBCF02F00F0ED6
:100FA000DBCF03F00C0E1F0B07E0D89000360136A4
:100FB00002360336E806F9E10C0EDBCF04F00D0E25
:100FC000DBCF05F00E0EDBCF06F00F0EDBCF07F008
:100FD000140ED8900732063205320432E806F9E1E1
:100FE000045000120550011206500212075003125D
:100FF0000C0E00C0DBFF0D0E01C0DBFF0E0E02C0A9
:10100000DBFF0F0E03C0DBFFD9500C0FE96EDACF08
:10101000EAFFDF50EE26010EDB50EE22020EDB501F
:10102000EE22030EDB50EE22D9CFE9FFDACFEAFF42
:10103000EECF04F0EECF05F0EECF06F0EFCF07F0E5
:10104000D9500C0FE96EDACFEAFFEE500416EE50DD
:101050000516EE500616EE5007160C0EDBCF0CF000
:101060000D0EDBCF0DF00E0EDBCF0EF00F0EDBCF33
:101070000FF00C1E0D1E0E1E0F1ED950040FE96E30
:10108000DACFEAFF0C50EE14086E0D50EE14096E24
:101090000E50EE140A6E0F50EE140B6E0850041230
:1010A000095005120A5006120B500712045007018E
:1010B000C325006E0550C421016E0650C521026E85
:1010C0000750C621036E130E0026460E0122300E75
:1010D0000222A80E0322D950080FE96EDACFEAFFE8
:1010E0000050EE260150EE220250EE220350EE2276
:1010F000080EDBCF00F0090EDBCF01F00A0EDBCFCC
:1011000002F00B0EDBCF03F0110E1F0B07E0D8909F
:101110000036013602360336E806F9E1080EDBCF69
:1011200004F0090EDBCF05F00A0EDBCF06F00B0E44
:10113000DBCF07F00F0ED8900732063205320432AB
:10114000E806F9E10450001205500112065002129F
:1011500007500312080E00C0DBFF090E01C0DBFFC1
:101160000A0E02C0DBFF0B0E03C0DBFFD950080FD5
:10117000E96EDACFEAFF0C0EDB50EE260D0EDB50E7
:10118000EE220E0EDB50EE220F0EDB50EE220C0E86
:10119000DBCF04F00D0EDBCF05F00E0EDBCF06F03B
:1011A0000F0EDBCF07F0D950080FE96EDACFEAFF58
:1011B000EE500416EE500516EE500616EE500716C9
:1011C000080EDBCF0CF0090EDBCF0DF00A0EDBCFE3
:1011D0000EF00B0EDBCF0FF00C1E0D1E0E1E0F1EA1
:1011E000D9CFE9FFDACFEAFF0C50EE14086E0D50AC
:1011F000EE14096E0E50EE140A6E0F50EE140B6EC4
:1012000008500412095005120A5006120B5007121A
:1012100004500701C725006E0550C821016E065015
:10122000C921026E0750CA21036E002A950E0122C1
:10123000460E0222FD0E0322D950040FE96EDACFCA
:10124000EAFF0050EE260150EE220250EE2203503B
:10125000EE22040EDBCF00F0050EDBCF01F0060E10
:10126000DBCF02F0070EDBCF03F0160E1F0B07E0FB
:10127000D8900036013602360336E806F9E1040E4E
:10128000DBCF04F0050EDBCF05F0060EDBCF06F05A
:10129000070EDBCF07F00A0ED89007320632053270
:1012A0000432E806F9E1045000120550011206501C
:1012B000021207500312040E00C0DBFF050E01C02E
:1012C000DBFF060E02C0DBFF070E03C0DBFFD950B9
:1012D000040FE96EDACFEAFF080EDB50EE26090EA6
:1012E000DB50EE220A0EDB50EE220B0EDB50EE221C
:1012F000080EDBCF04F0090EDBCF05F00A0EDBCFC2
:1013000006F00B0EDBCF07F0D950040FE96EDACFF1
:10131000EAFFEE500416EE500516EE500616EE509B
:101320000716040EDBCF0CF0050EDBCF0DF0060E1A
:10133000DBCF0EF0070EDBCF0FF00C1E0D1E0E1EC6
:101340000F1ED9500C0FE96EDACFEAFF0C50EE14E5
:10135000086E0D50EE14096E0E50EE140A6E0F500A
:10136000EE140B6E08500412095005120A500612B2
:101370000B50071204500701CB25006E0550CC21FD
:10138000016E0650CD21026E0750CE21036ED80E9D
:101390000026980E0122800E0222690E03220050C0
:1013A000DE260150DE220250DE220350DD22DD5215
:1013B000DD52D9CFE9FFDACFEAFFEECF00F0EECF72
:1013C00001F0EECF02F0EFCF03F0070E1F0B07E0A6
:1013D000D8900036013602360336E806F9E1D9CF57
:1013E000E9FFDACFEAFFEECF04F0EECF05F0EECF63
:1013F00006F0EFCF07F0190ED8900732063205320B
:101400000432E806F9E104500012055001120650BA
:1014100002120750031200C0DFFF010E01C0DBFF04
:10142000020E02C0DBFF030E03C0DBFFD9CFE9FFD2
:10143000DACFEAFF040EDB50EE26050EDB50EE227B
:10144000060EDB50EE22070EDB50EE22040EDBCF41
:1014500004F0050EDBCF05F0060EDBCF06F0070E1D
:10146000DBCF07F0D9CFE9FFDACFEAFFEE50041661
:10147000EE500516EE500616EE500716D9CFE9FFCE
:10148000DACFEAFFEECF0CF0EECF0DF0EECF0EF09C
:10149000EFCF0FF00C1E0D1E0E1E0F1ED950080FA1
:1014A000E96EDACFEAFF0C50EE14086E0D50EE1420
:1014B000096E0E50EE140A6E0F50EE140B6E0850AB
:1014C0000412095005120A5006120B50071204505C
:1014D0000701CF25006E0550D021016E0650D121A5
:1014E000026E0750D221036EAF0E0026F70E0122C6
:1014F000440E02228B0E0322D9500C0FE96EDACF74
:10150000EAFF0050EE260150EE220250EE22035078
:10151000EE220C0EDBCF00F00D0EDBCF01F00E0E35
:10152000DBCF02F00F0EDBCF03F00C0E1F0B07E03A
:10153000D8900036013602360336E806F9E10C0E83
:10154000DBCF04F00D0EDBCF05F00E0EDBCF06F087
:101550000F0EDBCF07F0140ED8900732063205329B
:101560000432E806F9E10450001205500112065059
:101570000212075003120C0E00C0DBFF0D0E01C05B
:10158000DBFF0E0E02C0DBFF0F0E03C0DBFFD950E6
:101590000C0FE96EDACFEAFFDF50EE26010EDB50CA
:1015A000EE22020EDB50EE22030EDB50EE22D9CFEC
:1015B000E9FFDACFEAFFEECF04F0EECF05F0EECF91
:1015C00006F0EFCF07F0D9500C0FE96EDACFEAFF43
:1015D000EE500416EE500516EE500616EE500716A5
:1015E0000C0EDBCF0CF00D0EDBCF0DF00E0EDBCFB3
:1015F0000EF00F0EDBCF0FF00C1E0D1E0E1E0F1E79
:10160000D950040FE96EDACFEAFF0C50EE14086EE1
:101610000D50EE14096E0E50EE140A6E0F50EE14BB
:101620000B6E08500412095005120A5006120B5096
:10163000071204500701D325006E0550D421016E16
:101640000650D521026E0750D621036EB10E00263A
:101650005B0E0122FF0E02220322D950080FE96E11
:10166000DACFEAFF0050EE260150EE220250EE22C1
:101670000350EE22080EDBCF00F0090EDBCF01F0A5
:101680000A0EDBCF02F00B0EDBCF03F0110E1F0BA7
:1016900007E0D8900036013602360336E806F9E155
:1016A000080EDBCF04F0090EDBCF05F00A0EDBCF0E
:1016B00006F00B0EDBCF07F00F0ED8900732063284
:1016C00005320432E806F9E1045000120550011217
:1016D0000650021207500312080E00C0DBFF090E6D
:1016E00001C0DBFF0A0E02C0DBFF0B0E03C0DBFFF5
:1016F000D950080FE96EDACFEAFF0C0EDB50EE2668
:101700000D0EDB50EE220E0EDB50EE220F0EDB50E4
:10171000EE220C0EDBCF04F00D0EDBCF05F00E0E2B
:10172000DBCF06F00F0EDBCF07F0D950080FE96EC4
:10173000DACFEAFFEE500416EE500516EE5006160C
:10174000EE500716080EDBCF0CF0090EDBCF0DF0C4
:101750000A0EDBCF0EF00B0EDBCF0FF00C1E0D1EB2
:101760000E1E0F1ED9CFE9FFDACFEAFF0C50EE14A0
:10177000086E0D50EE14096E0E50EE140A6E0F50E6
:10178000EE140B6E08500412095005120A5006128E
:101790000B50071204500701D725006E0550D821C1
:1017A000016E0650D921026E0750DA21036EBE0E7B
:1017B0000026D70E01225C0E0222890E0322D95088
:1017C000040FE96EDACFEAFF0050EE260150EE2258
:1017D0000250EE220350EE22040EDBCF00F0050E85
:1017E000DBCF01F0060EDBCF02F0070EDBCF03F0FC
:1017F000160E1F0B07E0D89000360136023603366E
:10180000E806F9E1040EDBCF04F0050EDBCF05F0AE
:10181000060EDBCF06F0070EDBCF07F00A0ED890DE
:101820000732063205320432E806F9E104500012AC
:10183000055001120650021207500312040E00C098
:10184000DBFF050E01C0DBFF060E02C0DBFF070E4B
:1018500003C0DBFFD950040FE96EDACFEAFF080EB0
:10186000DB50EE26090EDB50EE220A0EDB50EE2294
:101870000B0EDB50EE22080EDBCF04F0090EDBCF9F
:1018800005F00A0EDBCF06F00B0EDBCF07F0D950C8
:10189000040FE96EDACFEAFFEE500416EE5005169B
:1018A000EE500616EE500716040EDBCF0CF0050EB8
:1018B000DBCF0DF0060EDBCF0EF0070EDBCF0FF007
:1018C0000C1E0D1E0E1E0F1ED9500C0FE96EDACF26
:1018D000EAFF0C50EE14086E0D50EE14096E0E5017
:1018E000EE140A6E0F50EE140B6E085004120950DD
:1018F00005120A5006120B50071204500701DB258F
:10190000006E0550DC21016E0650DD21026E07508D
:10191000DE21036E220E0026110E0122900E0222FD
:101920006B0E03220050DE260150DE220250DE2222
:101930000350DD22DD52DD52D9CFE9FFDACFEAFFD5
:10194000EECF00F0EECF01F0EECF02F0EFCF03F0DC
:10195000070E1F0B07E0D89000360136023603361B
:10196000E806F9E1D9CFE9FFDACFEAFFEECF04F0DC
:10197000EECF05F0EECF06F0EFCF07F0190ED890BE
:101980000732063205320432E806F9E1045000124B
:1019900005500112065002120750031200C0DFFF6B
:1019A000010E01C0DBFF020E02C0DBFF030E03C00D
:1019B000DBFFD9CFE9FFDACFEAFF040EDB50EE26DA
:1019C000050EDB50EE22060EDB50EE22070EDB503A
:1019D000EE22040EDBCF04F0050EDBCF05F0060E81
:1019E000DBCF06F0070EDBCF07F0D9CFE9FFDACF68
:1019F000EAFFEE500416EE500516EE500616EE50B5
:101A00000716D9CFE9FFDACFEAFFEECF0CF0EECF21
:101A10000DF0EECF0EF0EFCF0FF00C1E0D1E0E1ED0
:101A20000F1ED950080FE96EDACFEAFF0C50EE1402
:101A3000086E0D50EE14096E0E50EE140A6E0F5023
:101A4000EE140B6E08500412095005120A500612CB
:101A50000B50071204500701DF25006E0550E021EE
:101A6000016E0650E121026E0750E221036E930ED3
:101A70000026710E0122980E0222FD0E0322D9507B
:101A80000C0FE96EDACFEAFF0050EE260150EE228D
:101A90000250EE220350EE220C0EDBCF00F00D0EB2
:101AA000DBCF01F00E0EDBCF02F00F0EDBCF03F029
:101AB0000C0E1F0B07E0D8900036013602360336B5
:101AC000E806F9E10C0EDBCF04F00D0EDBCF05F0DC
:101AD0000E0EDBCF06F00F0EDBCF07F0140ED89002
:101AE0000732063205320432E806F9E104500012EA
:101AF0000550011206500212075003120C0E00C0CE
:101B0000DBFF0D0E01C0DBFF0E0E02C0DBFF0F0E70
:101B100003C0DBFFD9500C0FE96EDACFEAFFDF50CC
:101B2000EE26010EDB50EE22020EDB50EE22030EFB
:101B3000DB50EE22D9CFE9FFDACFEAFFEECF04F097
:101B4000EECF05F0EECF06F0EFCF07F0D9500C0F37
:101B5000E96EDACFEAFFEE500416EE500516EE50AD
:101B60000616EE5007160C0EDBCF0CF00D0EDBCF79
:101B70000DF00E0EDBCF0EF00F0EDBCF0FF00C1EB4
:101B80000D1E0E1E0F1ED950040FE96EDACFEAFFAC
:101B90000C50EE14086E0D50EE14096E0E50EE143B
:101BA0000A6E0F50EE140B6E085004120950051205
:101BB0000A5006120B50071204500701E325006E6D
:101BC0000550E421016E0650E521026E0750E62122
:101BD000036E8E0E0026430E0122790E0222A60EFF
:101BE0000322D950080FE96EDACFEAFF0050EE2643
:101BF0000150EE220250EE220350EE22080EDBCFFF
:101C000000F0090EDBCF01F00A0EDBCF02F00B0E65
:101C1000DBCF03F0110E1F0B07E0D8900036013622
:101C200002360336E806F9E1080EDBCF04F0090EB0
:101C3000DBCF05F00A0EDBCF06F00B0EDBCF07F093
:101C40000F0ED8900732063205320432E806F9E169
:101C500004500012055001120650021207500312E0
:101C6000080E00C0DBFF090E01C0DBFF0A0E02C038
:101C7000DBFF0B0E03C0DBFFD950080FE96EDACF94
:101C8000EAFF0C0EDB50EE260D0EDB50EE220E0EA0
:101C9000DB50EE220F0EDB50EE220C0EDBCF04F0F9
:101CA0000D0EDBCF05F00E0EDBCF06F00F0EDBCFF7
:101CB00007F0D950080FE96EDACFEAFFEE500416AC
:101CC000EE500516EE500616EE500716080EDBCF46
:101CD0000CF0090EDBCF0DF00A0EDBCF0EF00B0E71
:101CE000DBCF0FF00C1E0D1E0E1E0F1ED9CFE9FF0D
:101CF000DACFEAFF0C50EE14086E0D50EE14096EA8
:101D00000E50EE140A6E0F50EE140B6E08500412B3
:101D1000095005120A5006120B5007120450070111
:101D2000E725006E0550E821016E0650E921026E9C
:101D30000750EA21036E210E0026080E0122B40E80
:101D40000222490E0322D950040FE96EDACFEAFFCE
:101D50000050EE260150EE220250EE220350EE22F9
:101D6000040EDBCF00F0050EDBCF01F0060EDBCF5B
:101D700002F0070EDBCF03F0160E1F0B07E0D89022
:101D80000036013602360336E806F9E1040EDBCFF1
:101D900004F0050EDBCF05F0060EDBCF06F0070ED4
:101DA000DBCF07F00A0ED890073206320532043234
:101DB000E806F9E104500012055001120650021223
:101DC00007500312040E00C0DBFF050E01C0DBFF4D
:101DD000060E02C0DBFF070E03C0DBFFD950040F65
:101DE000E96EDACFEAFF080EDB50EE26090EDB5073
:101DF000EE220A0EDB50EE220B0EDB50EE220C0E12
:101E0000DBCF04F00D0EDBCF05F00E0EDBCF06F0BE
:101E10000F0EDBCF07F0D950040FE96EDACFEAFFDF
:101E2000EE500416EE500516EE500616EE5007164C
:101E30000C0EDBCF08F00D0EDBCF09F00E0EDBCF62
:101E40000AF00F0EDBCF0BF0081E091E0A1E0B1E38
:101E5000D950080FE96EDACFEAFFEE500816EE50BF
:101E60000916EE500A16EE500B16085004120950CF
:101E700005120A5006120B50071204500701AF2535
:101E8000006E0550B021016E0650B121026E075060
:101E9000B221036E620E0026250E01221E0E0222C2
:101EA000F60E03220050DE260150DE220250DE2212
:101EB0000350DD22DD52DD52D9CFE9FFDACFEAFF50
:101EC000EECF00F0EECF01F0EECF02F0EFCF03F057
:101ED000050E1F0B07E0D890003601360236033698
:101EE000E806F9E1D9CFE9FFDACFEAFFEECF04F057
:101EF000EECF05F0EECF06F0EFCF07F01B0ED89037
:101F00000732063205320432E806F9E104500012C5
:101F100005500112065002120750031200C0DFFFE5
:101F2000010E01C0DBFF020E02C0DBFF030E03C087
:101F3000DBFFD9CFE9FFDACFEAFF040EDB50EE2654
:101F4000050EDB50EE22060EDB50EE22070EDB50B4
:101F5000EE22080EDBCF04F0090EDBCF05F00A0EEF
:101F6000DBCF06F00B0EDBCF07F0D9CFE9FFDACFDE
:101F7000EAFFEE500416EE500516EE500616EE502F
:101F80000716080EDBCF08F0090EDBCF09F00A0EAA
:101F9000DBCF0AF00B0EDBCF0BF0081E091E0A1E6A
:101FA0000B1ED950040FE96EDACFEAFFEE50081687
:101FB000EE500916EE500A16EE500B160850041299
:101FC000095005120A5006120B500712045007015F
:101FD000C325006E0550C421016E0650C521026E56
:101FE0000750C621036E400E0026B30E0122400E9C
:101FF0000222C00E0322D9500C0FE96EDACFEAFF9D
:102000000050EE260150EE220250EE220350EE2246
:102010000C0EDBCF00F00D0EDBCF01F00E0EDBCF90
:1020200002F00F0EDBCF03F0090E1F0B07E0D89074
:102030000036013602360336E806F9E10C0EDBCF36
:1020400004F00D0EDBCF05F00E0EDBCF06F00F0E09
:10205000DBCF07F0170ED890073206320532043274
:10206000E806F9E104500012055001120650021270
:10207000075003120C0E00C0DBFF0D0E01C0DBFF8A
:102080000E0E02C0DBFF0F0E03C0DBFFD9500C0F9A
:10209000E96EDACFEAFFDF50EE26010EDB50EE22CA
:1020A000020EDB50EE22030EDB50EE22040EDBCFDD
:1020B00004F0050EDBCF05F0060EDBCF06F0070EB1
:1020C000DBCF07F0D9500C0FE96EDACFEAFFEE5004
:1020D0000416EE500516EE500616EE500716040EC6
:1020E000DBCF08F0050EDBCF09F0060EDBCF0AF0E0
:1020F000070EDBCF0BF0081E091E0A1E0B1ED9CFE0
:10210000E9FFDACFEAFFEE500816EE500916EE505E
:102110000A16EE500B1608500412095005120A5008
:1021200006120B50071204500701D725006E055008
:10213000D821016E0650D921026E0750DA21036EB4
:10214000510E00265A0E01225E0E0222260E032296
:10215000D950080FE96EDACFEAFF0050EE260150A1
:10216000EE220250EE220350EE22080EDBCF00F0EA
:10217000090EDBCF01F00A0EDBCF02F00B0EDBCF36
:1021800003F00E0E1F0B07E0D89000360136023622
:102190000336E806F9E1080EDBCF04F0090EDBCFC9
:1021A00005F00A0EDBCF06F00B0EDBCF07F0120EA8
:1021B000D8900732063205320432E806F9E10450BD
:1021C0000012055001120650021207500312080EA9
:1021D00000C0DBFF090E01C0DBFF0A0E02C0DBFFFF
:1021E0000B0E03C0DBFFD950080FE96EDACFEAFF10
:1021F0000C0EDB50EE260D0EDB50EE220E0EDB50E9
:10220000EE220F0EDB50EE22D9CFE9FFDACFEAFF44
:10221000EECF04F0EECF05F0EECF06F0EFCF07F0F3
:10222000D950080FE96EDACFEAFFEE500416EE50EF
:102230000516EE500616EE500716D9CFE9FFDACF95
:10224000EAFFEECF08F0EECF09F0EECF0AF0EFCFC5
:102250000BF0081E091E0A1E0B1ED9500C0FE96E4A
:10226000DACFEAFFEE500816EE500916EE500A16C5
:10227000EE500B1608500412095005120A500612AF
:102280000B50071204500701AB25006E0550AC211E
:10229000016E0650AD21026E0750AE21036EAA0EEC
:1022A0000026C70E0122B60E0222E90E0322D950E3
:1022B000040FE96EDACFEAFF0050EE260150EE225D
:1022C0000250EE220350EE22040EDBCF00F0050E8A
:1022D000DBCF01F0060EDBCF02F0070EDBCF03F001
:1022E000140E1F0B07E0D890003601360236033675
:1022F000E806F9E1040EDBCF04F0050EDBCF05F0B4
:10230000060EDBCF06F0070EDBCF07F00C0ED890E1
:102310000732063205320432E806F9E104500012B1
:10232000055001120650021207500312040E00C09D
:10233000DBFF050E01C0DBFF060E02C0DBFF070E50
:1023400003C0DBFFD950040FE96EDACFEAFF080EB5
:10235000DB50EE26090EDB50EE220A0EDB50EE2299
:102360000B0EDB50EE220C0EDBCF04F00D0EDBCF9C
:1023700005F00E0EDBCF06F00F0EDBCF07F0D950C5
:10238000040FE96EDACFEAFFEE500416EE500516A0
:10239000EE500616EE5007160C0EDBCF08F00D0EB1
:1023A000DBCF09F00E0EDBCF0AF00F0EDBCF0BF008
:1023B000081E091E0A1E0B1ED950080FE96EDACF3F
:1023C000EAFFEE500816EE500916EE500A16EE50CF
:1023D0000B1608500412095005120A5006120B5031
:1023E000071204500701BF25006E0550C021016E81
:1023F0000650C121026E0750C221036E5D0E0026F9
:10240000100E01222F0E0222D60E03220050DE26CD
:102410000150DE220250DE220350DD22DD52DD5269
:10242000D9CFE9FFDACFEAFFEECF00F0EECF01F02F
:10243000EECF02F0EFCF03F0050E1F0B07E0D890B0
:102440000036013602360336E806F9E1D9CFE9FF56
:10245000DACFEAFFEECF04F0EECF05F0EECF06F0D4
:10246000EFCF07F01B0ED890073206320532043248
:10247000E806F9E10450001205500112065002125C
:102480000750031200C0DFFF010E01C0DBFF020E88
:1024900002C0DBFF030E03C0DBFFD9CFE9FFDACFB9
:1024A000EAFF040EDB50EE26050EDB50EE22060E90
:1024B000DB50EE22070EDB50EE22080EDBCF04F0DD
:1024C000090EDBCF05F00A0EDBCF06F00B0EDBCFDB
:1024D00007F0D9CFE9FFDACFEAFFEE500416EE504D
:1024E0000516EE500616EE500716080EDBCF08F064
:1024F000090EDBCF09F00A0EDBCF0AF00B0EDBCFA3
:102500000BF0081E091E0A1E0B1ED950040FE96E9F
:10251000DACFEAFFEE500816EE500916EE500A1612
:10252000EE500B1608500412095005120A500612FC
:102530000B50071204500701D325006E0550D4211B
:10254000016E0650D521026E0750D621036E530E40
:102550000026140E0122440E0222020E0322D9503C
:102560000C0FE96EDACFEAFF0050EE260150EE22A2
:102570000250EE220350EE220C0EDBCF00F00D0EC7
:10258000DBCF01F00E0EDBCF02F00F0EDBCF03F03E
:10259000090E1F0B07E0D8900036013602360336CD
:1025A000E806F9E10C0EDBCF04F00D0EDBCF05F0F1
:1025B0000E0EDBCF06F00F0EDBCF07F0170ED89014
:1025C0000732063205320432E806F9E104500012FF
:1025D0000550011206500212075003120C0E00C0E3
:1025E000DBFF0D0E01C0DBFF0E0E02C0DBFF0F0E86
:1025F00003C0DBFFD9500C0FE96EDACFEAFFDF50E2
:10260000EE26010EDB50EE22020EDB50EE22030E10
:10261000DB50EE22040EDBCF04F0050EDBCF05F01D
:10262000060EDBCF06F0070EDBCF07F0D9500C0FFC
:10263000E96EDACFEAFFEE500416EE500516EE50C2
:102640000616EE500716040EDBCF08F0050EDBCFA2
:1026500009F0060EDBCF0AF0070EDBCF0BF0081EE9
:10266000091E0A1E0B1ED9CFE9FFDACFEAFFEE5092
:102670000816EE500916EE500A16EE500B160850CA
:102680000412095005120A5006120B50071204508A
:102690000701E725006E0550E821016E0650E9218B
:1026A000026E0750EA21036E810E0026E60E01221B
:1026B000A10E0222D80E0322D950080FE96EDACFFC
:1026C000EAFF0050EE260150EE220250EE220350A7
:1026D000EE22080EDBCF00F0090EDBCF01F00A0E70
:1026E000DBCF02F00B0EDBCF03F00E0E1F0B07E06B
:1026F000D8900036013602360336E806F9E1080EB6
:10270000DBCF04F0090EDBCF05F00A0EDBCF06F0BD
:102710000B0EDBCF07F0120ED890073206320532CF
:102720000432E806F9E10450001205500112065087
:10273000021207500312080E00C0DBFF090E01C091
:10274000DBFF0A0E02C0DBFF0B0E03C0DBFFD9501C
:10275000080FE96EDACFEAFF0C0EDB50EE260D0E05
:10276000DB50EE220E0EDB50EE220F0EDB50EE227F
:10277000D9CFE9FFDACFEAFFEECF04F0EECF05F0D4
:10278000EECF06F0EFCF07F0D950080FE96EDACFA1
:10279000EAFFEE500416EE500516EE500616EE5007
:1027A0000716D9CFE9FFDACFEAFFEECF08F0EECF78
:1027B00009F0EECF0AF0EFCF0BF0081E091E0A1E3B
:1027C0000B1ED9500C0FE96EDACFEAFFEE50081657
:1027D000EE500916EE500A16EE500B160850041271
:1027E000095005120A5006120B5007120450070137
:1027F000BB25006E0550BC21016E0650BD21026E46
:102800000750BE21036EC80E0026FB0E0122D30E18
:102810000222E70E0322D950040FE96EDACFEAFF55
:102820000050EE260150EE220250EE220350EE221E
:10283000040EDBCF00F0050EDBCF01F0060EDBCF80
:1028400002F0070EDBCF03F0140E1F0B07E0D89049
:102850000036013602360336E806F9E1040EDBCF16
:1028600004F0050EDBCF05F0060EDBCF06F0070EF9
:10287000DBCF07F00C0ED890073206320532043257
:10288000E806F9E104500012055001120650021248
:1028900007500312040E00C0DBFF050E01C0DBFF72
:1028A000060E02C0DBFF070E03C0DBFFD950040F8A
:1028B000E96EDACFEAFF080EDB50EE26090EDB5098
:1028C000EE220A0EDB50EE220B0EDB50EE220C0E37
:1028D000DBCF04F00D0EDBCF05F00E0EDBCF06F0E4
:1028E0000F0EDBCF07F0D950040FE96EDACFEAFF05
:1028F000EE500416EE500516EE500616EE50071672
:102900000C0EDBCF08F00D0EDBCF09F00E0EDBCF87
:102910000AF00F0EDBCF0BF0081E091E0A1E0B1E5D
:10292000D950080FE96EDACFEAFFEE500816EE50E4
:102930000916EE500A16EE500B16085004120950F4
:1029400005120A5006120B50071204500701CF253A
:10295000006E0550D021016E0650D121026E075045
:10296000D221036EE60E0026CD0E0122E10E0222D8
:10297000210E03220050DE260150DE220250DE220C
:102980000350DD22DD52DD52D9CFE9FFDACFEAFF75
:10299000EECF00F0EECF01F0EECF02F0EFCF03F07C
:1029A000050E1F0B07E0D8900036013602360336BD
:1029B000E806F9E1D9CFE9FFDACFEAFFEECF04F07C
:1029C000EECF05F0EECF06F0EFCF07F01B0ED8905C
:1029D0000732063205320432E806F9E104500012EB
:1029E00005500112065002120750031200C0DFFF0B
:1029F000010E01C0DBFF020E02C0DBFF030E03C0AD
:102A0000DBFFD9CFE9FFDACFEAFF040EDB50EE2679
:102A1000050EDB50EE22060EDB50EE22070EDB50D9
:102A2000EE22080EDBCF04F0090EDBCF05F00A0E14
:102A3000DBCF06F00B0EDBCF07F0D9CFE9FFDACF03
:102A4000EAFFEE500416EE500516EE500616EE5054
:102A50000716080EDBCF08F0090EDBCF09F00A0ECF
:102A6000DBCF0AF00B0EDBCF0BF0081E091E0A1E8F
:102A70000B1ED950040FE96EDACFEAFFEE500816AC
:102A8000EE500916EE500A16EE500B1608500412BE
:102A9000095005120A5006120B5007120450070184
:102AA000E325006E0550E421016E0650E521026E1B
:102AB0000750E621036ED60E0026070E0122370EC0
:102AC0000222C30E0322D9500C0FE96EDACFEAFFBF
:102AD0000050EE260150EE220250EE220350EE226C
:102AE0000C0EDBCF00F00D0EDBCF01F00E0EDBCFB6
:102AF00002F00F0EDBCF03F0090E1F0B07E0D8909A
:102B00000036013602360336E806F9E10C0EDBCF5B
:102B100004F00D0EDBCF05F00E0EDBCF06F00F0E2E
:102B2000DBCF07F0170ED890073206320532043299
:102B3000E806F9E104500012055001120650021295
:102B4000075003120C0E00C0DBFF0D0E01C0DBFFAF
:102B50000E0E02C0DBFF0F0E03C0DBFFD9500C0FBF
:102B6000E96EDACFEAFFDF50EE26010EDB50EE22EF
:102B7000020EDB50EE22030EDB50EE22040EDBCF02
:102B800004F0050EDBCF05F0060EDBCF06F0070ED6
:102B9000DBCF07F0D9500C0FE96EDACFEAFFEE5029
:102BA0000416EE500516EE500616EE500716040EEB
:102BB000DBCF08F0050EDBCF09F0060EDBCF0AF005
:102BC000070EDBCF0BF0081E091E0A1E0B1ED9CF05
:102BD000E9FFDACFEAFFEE500816EE500916EE5084
:102BE0000A16EE500B1608500412095005120A502E
:102BF00006120B50071204500701B725006E05504E
:102C0000B821016E0650B921026E0750BA21036E39
:102C1000870E00260D0E0122D50E0222F40E03228D
:102C2000D950080FE96EDACFEAFF0050EE260150C6
:102C3000EE220250EE220350EE22080EDBCF00F00F
:102C4000090EDBCF01F00A0EDBCF02F00B0EDBCF5B
:102C500003F00E0E1F0B07E0D89000360136023647
:102C60000336E806F9E1080EDBCF04F0090EDBCFEE
:102C700005F00A0EDBCF06F00B0EDBCF07F0120ECD
:102C8000D8900732063205320432E806F9E10450E2
:102C90000012055001120650021207500312080ECE
:102CA00000C0DBFF090E01C0DBFF0A0E02C0DBFF24
:102CB0000B0E03C0DBFFD950080FE96EDACFEAFF35
:102CC0000C0EDB50EE260D0EDB50EE220E0EDB500E
:102CD000EE220F0EDB50EE22D9CFE9FFDACFEAFF6A
:102CE000EECF04F0EECF05F0EECF06F0EFCF07F019
:102CF000D950080FE96EDACFEAFFEE500416EE5015
:102D00000516EE500616EE500716D9CFE9FFDACFBA
:102D1000EAFFEECF08F0EECF09F0EECF0AF0EFCFEA
:102D20000BF0081E091E0A1E0B1ED9500C0FE96E6F
:102D3000DACFEAFFEE500816EE500916EE500A16EA
:102D4000EE500B1608500412095005120A500612D4
:102D50000B50071204500701CB25006E0550CC2103
:102D6000016E0650CD21026E0750CE21036EED0E8E
:102D70000026140E01225A0E0222450E0322D950BB
:102D8000040FE96EDACFEAFF0050EE260150EE2282
:102D90000250EE220350EE22040EDBCF00F0050EAF
:102DA000DBCF01F0060EDBCF02F0070EDBCF03F026
:102DB000140E1F0B07E0D89000360136023603369A
:102DC000E806F9E1040EDBCF04F0050EDBCF05F0D9
:102DD000060EDBCF06F0070EDBCF07F00C0ED89007
:102DE0000732063205320432E806F9E104500012D7
:102DF000055001120650021207500312040E00C0C3
:102E0000DBFF050E01C0DBFF060E02C0DBFF070E75
:102E100003C0DBFFD950040FE96EDACFEAFF080EDA
:102E2000DB50EE26090EDB50EE220A0EDB50EE22BE
:102E30000B0EDB50EE220C0EDBCF04F00D0EDBCFC1
:102E400005F00E0EDBCF06F00F0EDBCF07F0D950EA
:102E5000040FE96EDACFEAFFEE500416EE500516C5
:102E6000EE500616EE5007160C0EDBCF08F00D0ED6
:102E7000DBCF09F00E0EDBCF0AF00F0EDBCF0BF02D
:102E8000081E091E0A1E0B1ED950080FE96EDACF64
:102E9000EAFFEE500816EE500916EE500A16EE50F4
:102EA0000B1608500412095005120A5006120B5056
:102EB000071204500701DF25006E0550E021016E66
:102EC0000650E121026E0750E221036E050E002636
:102ED000E90E0122E30E0222A90E03220050DE2693
:102EE0000150DE220250DE220350DD22DD52DD528F
:102EF000D9CFE9FFDACFEAFFEECF00F0EECF01F055
:102F0000EECF02F0EFCF03F0050E1F0B07E0D890D5
:102F10000036013602360336E806F9E1D9CFE9FF7B
:102F2000DACFEAFFEECF04F0EECF05F0EECF06F0F9
:102F3000EFCF07F01B0ED89007320632053204326D
:102F4000E806F9E104500012055001120650021281
:102F50000750031200C0DFFF010E01C0DBFF020EAD
:102F600002C0DBFF030E03C0DBFFD9CFE9FFDACFDE
:102F7000EAFF040EDB50EE26050EDB50EE22060EB5
:102F8000DB50EE22070EDB50EE22080EDBCF04F002
:102F9000090EDBCF05F00A0EDBCF06F00B0EDBCF00
:102FA00007F0D9CFE9FFDACFEAFFEE500416EE5072
:102FB0000516EE500616EE500716080EDBCF08F089
:102FC000090EDBCF09F00A0EDBCF0AF00B0EDBCFC8
:102FD0000BF0081E091E0A1E0B1ED950040FE96EC5
:102FE000DACFEAFFEE500816EE500916EE500A1638
:102FF000EE500B1608500412095005120A50061222
:103000000B50071204500701B325006E0550B42180
:10301000016E0650B521026E0750B621036EF80E00
:103020000026A30E0122EF0E0222FC0E0322D9502D
:103030000C0FE96EDACFEAFF0050EE260150EE22C7
:103040000250EE220350EE220C0EDBCF00F00D0EEC
:10305000DBCF01F00E0EDBCF02F00F0EDBCF03F063
:10306000090E1F0B07E0D8900036013602360336F2
:10307000E806F9E10C0EDBCF04F00D0EDBCF05F016
:103080000E0EDBCF06F00F0EDBCF07F0170ED89039
:103090000732063205320432E806F9E10450001224
:1030A0000550011206500212075003120C0E00C008
:1030B000DBFF0D0E01C0DBFF0E0E02C0DBFF0F0EAB
:1030C00003C0DBFFD9500C0FE96EDACFEAFFDF5007
:1030D000EE26010EDB50EE22020EDB50EE22030E36
:1030E000DB50EE22040EDBCF04F0050EDBCF05F043
:1030F000060EDBCF06F0070EDBCF07F0D9500C0F22
:10310000E96EDACFEAFFEE500416EE500516EE50E7
:103110000616EE500716040EDBCF08F0050EDBCFC7
:1031200009F0060EDBCF0AF0070EDBCF0BF0081E0E
:10313000091E0A1E0B1ED9CFE9FFDACFEAFFEE50B7
:103140000816EE500916EE500A16EE500B160850EF
:103150000412095005120A5006120B5007120450AF
:103160000701C725006E0550C821016E0650C92110
:10317000026E0750CA21036ED90E0026020E0122EC
:103180006F0E0222670E0322D950080FE96EDACFC4
:10319000EAFF0050EE260150EE220250EE220350CC
:1031A000EE22080EDBCF00F0090EDBCF01F00A0E95
:1031B000DBCF02F00B0EDBCF03F00E0E1F0B07E090
:1031C000D8900036013602360336E806F9E1080EDB
:1031D000DBCF04F0090EDBCF05F00A0EDBCF06F0E3
:1031E0000B0EDBCF07F0120ED890073206320532F5
:1031F0000432E806F9E104500012055001120650AD
:10320000021207500312080E00C0DBFF090E01C0B6
:10321000DBFF0A0E02C0DBFF0B0E03C0DBFFD95041
:10322000080FE96EDACFEAFF0C0EDB50EE260D0E2A
:10323000DB50EE220E0EDB50EE220F0EDB50EE22A4
:10324000D9CFE9FFDACFEAFFEECF04F0EECF05F0F9
:10325000EECF06F0EFCF07F0D950080FE96EDACFC6
:10326000EAFFEE500416EE500516EE500616EE502C
:103270000716D9CFE9FFDACFEAFFEECF08F0EECF9D
:1032800009F0EECF0AF0EFCF0BF0081E091E0A1E60
:103290000B1ED9500C0FE96EDACFEAFFEE5008167C
:1032A000EE500916EE500A16EE500B160850041296
:1032B000095005120A5006120B500712045007015C
:1032C000DB25006E0550DC21016E0650DD21026E0B
:1032D0000750DE21036E8A0E00264C0E01222A0EB4
:1032E00002228D0E0322D950040FE96EDACFEAFFD5
:1032F0000050EE260150EE220250EE220350EE2244
:10330000040EDBCF00F0050EDBCF01F0060EDBCFA5
:1033100002F0070EDBCF03F0140E1F0B07E0D8906E
:103320000036013602360336E806F9E1040EDBCF3B
:1033300004F0050EDBCF05F0060EDBCF06F0070E1E
:10334000DBCF07F00C0ED89007320632053204327C
:10335000E806F9E10450001205500112065002126D
:1033600007500312040E00C0DBFF050E01C0DBFF97
:10337000060E02C0DBFF070E03C0DBFFD950040FAF
:10338000E96EDACFEAFF080EDB50EE26090EDB50BD
:10339000EE220A0EDB50EE220B0EDB50EE22080E60
:1033A000DBCF08F0090EDBCF09F00A0EDBCF0AF005
:1033B0000B0EDBCF0BF0D950040FE96EDACFEAFF2A
:1033C000EE50081AEE50091AEE500A1AEE500B1A77
:1033D000D9500C0FE96EDACFEAFF0850EE18046EF0
:1033E0000950EE18056E0A50EE18066E0B50EE18D6
:1033F000076E04500701BF25006E0550C021016E05
:103400000650C121026E0750C221036E420E0026F3
:10341000390E0122FA0E0222FF0E03220050DE2690
:103420000150DE220250DE220350DD22DD52DD5249
:10343000D9CFE9FFDACFEAFFEECF00F0EECF01F00F
:10344000EECF02F0EFCF03F0040E1F0B07E0D89091
:103450000036013602360336E806F9E1D9CFE9FF36
:10346000DACFEAFFEECF04F0EECF05F0EECF06F0B4
:10347000EFCF07F01C0ED890073206320532043227
:10348000E806F9E10450001205500112065002123C
:103490000750031200C0DFFF010E01C0DBFF020E68
:1034A00002C0DBFF030E03C0DBFFD9CFE9FFDACF99
:1034B000EAFF040EDB50EE26050EDB50EE22060E70
:1034C000DB50EE22070EDB50EE22040EDBCF08F0BD
:1034D000050EDBCF09F0060EDBCF0AF0070EDBCFBF
:1034E0000BF0D9CFE9FFDACFEAFFEE50081AEE5021
:1034F000091AEE500A1AEE500B1AD950080FE96E4D
:10350000DACFEAFF0850EE18046E0950EE18056E87
:103510000A50EE18066E0B50EE18076E04500701A5
:10352000CB25006E0550CC21016E0650CD21026ED8
:103530000750CE21036E810E0026F60E0122710E79
:103540000222870E0322D9500C0FE96EDACFEAFF70
:103550000050EE260150EE220250EE220350EE22E1
:103560000C0EDBCF00F00D0EDBCF01F00E0EDBCF2B
:1035700002F00F0EDBCF03F00B0E1F0B07E0D8900D
:103580000036013602360336E806F9E10C0EDBCFD1
:1035900004F00D0EDBCF05F00E0EDBCF06F00F0EA4
:1035A000DBCF07F0150ED890073206320532043211
:1035B000E806F9E10450001205500112065002120B
:1035C000075003120C0E00C0DBFF0D0E01C0DBFF25
:1035D0000E0E02C0DBFF0F0E03C0DBFFD9500C0F35
:1035E000E96EDACFEAFFDF50EE26010EDB50EE2265
:1035F000020EDB50EE22030EDB50EE22D9CFE9FFA4
:10360000DACFEAFFEECF08F0EECF09F0EECF0AF006
:10361000EFCF0BF0D9500C0FE96EDACFEAFFEE5086
:10362000081AEE50091AEE500A1AEE500B1AD95029
:10363000040FE96EDACFEAFF0850EE18046E095065
:10364000EE18056E0A50EE18066E0B50EE18076E57
:1036500004500701D725006E0550D821016E065091
:10366000D921026E0750DA21036E220E0026610E68
:1036700001229D0E02226D0E0322D950080FE96E21
:10368000DACFEAFF0050EE260150EE220250EE2281
:103690000350EE22080EDBCF00F0090EDBCF01F065
:1036A0000A0EDBCF02F00B0EDBCF03F0100E1F0B68
:1036B00007E0D8900036013602360336E806F9E115
:1036C000080EDBCF04F0090EDBCF05F00A0EDBCFCE
:1036D00006F00B0EDBCF07F0100ED8900732063243
:1036E00005320432E806F9E10450001205500112D7
:1036F0000650021207500312080E00C0DBFF090E2D
:1037000001C0DBFF0A0E02C0DBFF0B0E03C0DBFFB4
:10371000D950080FE96EDACFEAFF0C0EDB50EE2627
:103720000D0EDB50EE220E0EDB50EE220F0EDB50A4
:10373000EE220C0EDBCF08F00D0EDBCF09F00E0EE3
:10374000DBCF0AF00F0EDBCF0BF0D950080FE96E7C
:10375000DACFEAFFEE50081AEE50091AEE500A1AB4
:10376000EE500B1AD9CFE9FFDACFEAFF0850EE1876
:10377000046E0950EE18056E0A50EE18066E0B50D6
:10378000EE18076E04500701E325006E0550E42192
:10379000016E0650E521026E0750E621036E0C0E05
:1037A0000026380E0122E50E0222FD0E0322D9501A
:1037B000040FE96EDACFEAFF0050EE260150EE2248
:1037C0000250EE220350EE22040EDBCF00F0050E75
:1037D000DBCF01F0060EDBCF02F0070EDBCF03F0EC
:1037E000170E1F0B07E0D89000360136023603365D
:1037F000E806F9E1040EDBCF04F0050EDBCF05F09F
:10380000060EDBCF06F0070EDBCF07F0090ED890CF
:103810000732063205320432E806F9E1045000129C
:10382000055001120650021207500312040E00C088
:10383000DBFF050E01C0DBFF060E02C0DBFF070E3B
:1038400003C0DBFFD950040FE96EDACFEAFF080EA0
:10385000DB50EE26090EDB50EE220A0EDB50EE2284
:103860000B0EDB50EE22080EDBCF08F0090EDBCF8B
:1038700009F00A0EDBCF0AF00B0EDBCF0BF0D950AC
:10388000040FE96EDACFEAFFEE50081AEE50091A7B
:10389000EE500A1AEE500B1AD9500C0FE96EDACF1F
:1038A000EAFF0850EE18046E0950EE18056E0A5033
:1038B000EE18066E0B50EE18076E04500701AF2588
:1038C000006E0550B021016E0650B121026E075006
:1038D000B221036E440E0026EA0E0122BE0E022221
:1038E000A40E03220050DE260150DE220250DE220A
:1038F0000350DD22DD52DD52D9CFE9FFDACFEAFFF6
:10390000EECF00F0EECF01F0EECF02F0EFCF03F0FC
:10391000040E1F0B07E0D89000360136023603363E
:10392000E806F9E1D9CFE9FFDACFEAFFEECF04F0FC
:10393000EECF05F0EECF06F0EFCF07F01C0ED890DB
:103940000732063205320432E806F9E1045000126B
:1039500005500112065002120750031200C0DFFF8B
:10396000010E01C0DBFF020E02C0DBFF030E03C02D
:10397000DBFFD9CFE9FFDACFEAFF040EDB50EE26FA
:10398000050EDB50EE22060EDB50EE22070EDB505A
:10399000EE22040EDBCF08F0050EDBCF09F0060E99
:1039A000DBCF0AF0070EDBCF0BF0D9CFE9FFDACF80
:1039B000EAFFEE50081AEE50091AEE500A1AEE50BD
:1039C0000B1AD950080FE96EDACFEAFF0850EE184B
:1039D000046E0950EE18056E0A50EE18066E0B5074
:1039E000EE18076E04500701BB25006E0550BC2180
:1039F000016E0650BD21026E0750BE21036EA90E56
:103A00000026CF0E0122DE0E02224B0E0322D950D9
:103A10000C0FE96EDACFEAFF0050EE260150EE22DD
:103A20000250EE220350EE220C0EDBCF00F00D0E02
:103A3000DBCF01F00E0EDBCF02F00F0EDBCF03F079
:103A40000B0E1F0B07E0D890003601360236033606
:103A5000E806F9E10C0EDBCF04F00D0EDBCF05F02C
:103A60000E0EDBCF06F00F0EDBCF07F0150ED89051
:103A70000732063205320432E806F9E1045000123A
:103A80000550011206500212075003120C0E00C01E
:103A9000DBFF0D0E01C0DBFF0E0E02C0DBFF0F0EC1
:103AA00003C0DBFFD9500C0FE96EDACFEAFFDF501D
:103AB000EE26010EDB50EE22020EDB50EE22030E4C
:103AC000DB50EE22D9CFE9FFDACFEAFFEECF08F0E4
:103AD000EECF09F0EECF0AF0EFCF0BF0D9500C0F7C
:103AE000E96EDACFEAFFEE50081AEE50091AEE50EE
:103AF0000A1AEE500B1AD950040FE96EDACFEAFF1A
:103B00000850EE18046E0950EE18056E0A50EE18B3
:103B1000066E0B50EE18076E04500701C725006EA5
:103B20000550C821016E0650C921026E0750CA21F6
:103B3000036E600E00264B0E0122BB0E0222F60E13
:103B40000322D950080FE96EDACFEAFF0050EE26C3
:103B50000150EE220250EE220350EE22080EDBCF7F
:103B600000F0090EDBCF01F00A0EDBCF02F00B0EE6
:103B7000DBCF03F0100E1F0B07E0D89000360136A4
:103B800002360336E806F9E1080EDBCF04F0090E31
:103B9000DBCF05F00A0EDBCF06F00B0EDBCF07F014
:103BA000100ED8900732063205320432E806F9E1E9
:103BB0000450001205500112065002120750031261
:103BC000080E00C0DBFF090E01C0DBFF0A0E02C0B9
:103BD000DBFF0B0E03C0DBFFD950080FE96EDACF15
:103BE000EAFF0C0EDB50EE260D0EDB50EE220E0E21
:103BF000DB50EE220F0EDB50EE220C0EDBCF08F076
:103C00000D0EDBCF09F00E0EDBCF0AF00F0EDBCF6F
:103C10000BF0D950080FE96EDACFEAFFEE50081A20
:103C2000EE50091AEE500A1AEE500B1AD9CFE9FFDE
:103C3000DACFEAFF0850EE18046E0950EE18056E50
:103C40000A50EE18066E0B50EE18076E045007016E
:103C5000D325006E0550D421016E0650D521026E89
:103C60000750D621036E700E0026BC0E0122BF0E37
:103C70000222BE0E0322D950040FE96EDACFEAFF0A
:103C80000050EE260150EE220250EE220350EE22AA
:103C9000040EDBCF00F0050EDBCF01F0060EDBCF0C
:103CA00002F0070EDBCF03F0170E1F0B07E0D890D2
:103CB0000036013602360336E806F9E1040EDBCFA2
:103CC00004F0050EDBCF05F0060EDBCF06F0070E85
:103CD000DBCF07F0090ED8900732063205320432E6
:103CE000E806F9E1045000120550011206500212D4
:103CF00007500312040E00C0DBFF050E01C0DBFFFE
:103D0000060E02C0DBFF070E03C0DBFFD950040F15
:103D1000E96EDACFEAFF080EDB50EE26090EDB5023
:103D2000EE220A0EDB50EE220B0EDB50EE22080EC6
:103D3000DBCF08F0090EDBCF09F00A0EDBCF0AF06B
:103D40000B0EDBCF0BF0D950040FE96EDACFEAFF90
:103D5000EE50081AEE50091AEE500A1AEE500B1ADD
:103D6000D9500C0FE96EDACFEAFF0850EE18046E56
:103D70000950EE18056E0A50EE18066E0B50EE183C
:103D8000076E04500701DF25006E0550E021016E2B
:103D90000650E121026E0750E221036EC60E002696
:103DA0007E0E01229B0E0222280E03220050DE26E8
:103DB0000150DE220250DE220350DD22DD52DD52B0
:103DC000D9CFE9FFDACFEAFFEECF00F0EECF01F076
:103DD000EECF02F0EFCF03F0040E1F0B07E0D890F8
:103DE0000036013602360336E806F9E1D9CFE9FF9D
:103DF000DACFEAFFEECF04F0EECF05F0EECF06F01B
:103E0000EFCF07F01C0ED89007320632053204328D
:103E1000E806F9E1045000120550011206500212A2
:103E20000750031200C0DFFF010E01C0DBFF020ECE
:103E300002C0DBFF030E03C0DBFFD9CFE9FFDACFFF
:103E4000EAFF040EDB50EE26050EDB50EE22060ED6
:103E5000DB50EE22070EDB50EE22040EDBCF08F023
:103E6000050EDBCF09F0060EDBCF0AF0070EDBCF25
:103E70000BF0D9CFE9FFDACFEAFFEE50081AEE5087
:103E8000091AEE500A1AEE500B1AD950080FE96EB3
:103E9000DACFEAFF0850EE18046E0950EE18056EEE
:103EA0000A50EE18066E0B50EE18076E045007010C
:103EB000AB25006E0550AC21016E0650AD21026E9F
:103EC0000750AE21036EFA0E0026270E0122A10E26
:103ED0000222EA0E0322D9500C0FE96EDACFEAFF74
:103EE0000050EE260150EE220250EE220350EE2248
:103EF0000C0EDBCF00F00D0EDBCF01F00E0EDBCF92
:103F000002F00F0EDBCF03F00B0E1F0B07E0D89073
:103F10000036013602360336E806F9E10C0EDBCF37
:103F200004F00D0EDBCF05F00E0EDBCF06F00F0E0A
:103F3000DBCF07F0150ED890073206320532043277
:103F4000E806F9E104500012055001120650021271
:103F5000075003120C0E00C0DBFF0D0E01C0DBFF8B
:103F60000E0E02C0DBFF0F0E03C0DBFFD9500C0F9B
:103F7000E96EDACFEAFFDF50EE26010EDB50EE22CB
:103F8000020EDB50EE22030EDB50EE22D9CFE9FF0A
:103F9000DACFEAFFEECF08F0EECF09F0EECF0AF06D
:103FA000EFCF0BF0D9500C0FE96EDACFEAFFEE50ED
:103FB000081AEE50091AEE500A1AEE500B1AD95090
:103FC000040FE96EDACFEAFF0850EE18046E0950CC
:103FD000EE18056E0A50EE18066E0B50EE18076EBE
:103FE00004500701B725006E0550B821016E065038
:103FF000B921026E0750BA21036E850E0026300EDD
:104000000122EF0E0222D40E0322D950080FE96ECE
:10401000DACFEAFF0050EE260150EE220250EE22E7
:104020000350EE22080EDBCF00F0090EDBCF01F0CB
:104030000A0EDBCF02F00B0EDBCF03F0100E1F0BCE
:1040400007E0D8900036013602360336E806F9E17B
:10405000080EDBCF04F0090EDBCF05F00A0EDBCF34
:1040600006F00B0EDBCF07F0100ED89007320632A9
:1040700005320432E806F9E104500012055001123D
:104080000650021207500312080E00C0DBFF090E93
:1040900001C0DBFF0A0E02C0DBFF0B0E03C0DBFF1B
:1040A000D950080FE96EDACFEAFF0C0EDB50EE268E
:1040B0000D0EDB50EE220E0EDB50EE220F0EDB500B
:1040C000EE220C0EDBCF08F00D0EDBCF09F00E0E4A
:1040D000DBCF0AF00F0EDBCF0BF0D950080FE96EE3
:1040E000DACFEAFFEE50081AEE50091AEE500A1A1B
:1040F000EE500B1AD9CFE9FFDACFEAFF0850EE18DD
:10410000046E0950EE18056E0A50EE18066E0B503C
:10411000EE18076E04500701C325006E0550C42138
:10412000016E0650C521026E0750C621036E050EB2
:1041300000261D0E0122880E0222040E0322D950F1
:10414000040FE96EDACFEAFF0050EE260150EE22AE
:104150000250EE220350EE22040EDBCF00F0050EDB
:10416000DBCF01F0060EDBCF02F0070EDBCF03F052
:10417000170E1F0B07E0D8900036013602360336C3
:10418000E806F9E1040EDBCF04F0050EDBCF05F005
:10419000060EDBCF06F0070EDBCF07F0090ED89036
:1041A0000732063205320432E806F9E10450001203
:1041B000055001120650021207500312040E00C0EF
:1041C000DBFF050E01C0DBFF060E02C0DBFF070EA2
:1041D00003C0DBFFD950040FE96EDACFEAFF080E07
:1041E000DB50EE26090EDB50EE220A0EDB50EE22EB
:1041F0000B0EDB50EE22080EDBCF08F0090EDBCFF2
:1042000009F00A0EDBCF0AF00B0EDBCF0BF0D95012
:10421000040FE96EDACFEAFFEE50081AEE50091AE1
:10422000EE500A1AEE500B1AD9500C0FE96EDACF85
:10423000EAFF0850EE18046E0950EE18056E0A5099
:10424000EE18066E0B50EE18076E04500701CF25CE
:10425000006E0550D021016E0650D121026E07502C
:10426000D221036E390E0026D00E0122D40E022276
:10427000D90E03220050DE260150DE220250DE223B
:104280000350DD22DD52DD52D9CFE9FFDACFEAFF5C
:10429000EECF00F0EECF01F0EECF02F0EFCF03F063
:1042A000040E1F0B07E0D8900036013602360336A5
:1042B000E806F9E1D9CFE9FFDACFEAFFEECF04F063
:1042C000EECF05F0EECF06F0EFCF07F01C0ED89042
:1042D0000732063205320432E806F9E104500012D2
:1042E00005500112065002120750031200C0DFFFF2
:1042F000010E01C0DBFF020E02C0DBFF030E03C094
:10430000DBFFD9CFE9FFDACFEAFF040EDB50EE2660
:10431000050EDB50EE22060EDB50EE22070EDB50C0
:10432000EE22040EDBCF08F0050EDBCF09F0060EFF
:10433000DBCF0AF0070EDBCF0BF0D9CFE9FFDACFE6
:10434000EAFFEE50081AEE50091AEE500A1AEE5023
:104350000B1AD950080FE96EDACFEAFF0850EE18B1
:10436000046E0950EE18056E0A50EE18066E0B50DA
:10437000EE18076E04500701DB25006E0550DC21A6
:10438000016E0650DD21026E0750DE21036EE50E40
:104390000026990E0122DB0E0222E60E0322D950DE
:1043A0000C0FE96EDACFEAFF0050EE260150EE2244
:1043B0000250EE220350EE220C0EDBCF00F00D0E69
:1043C000DBCF01F00E0EDBCF02F00F0EDBCF03F0E0
:1043D0000B0E1F0B07E0D89000360136023603366D
:1043E000E806F9E10C0EDBCF04F00D0EDBCF05F093
:1043F0000E0EDBCF06F00F0EDBCF07F0150ED890B8
:104400000732063205320432E806F9E104500012A0
:104410000550011206500212075003120C0E00C084
:10442000DBFF0D0E01C0DBFF0E0E02C0DBFF0F0E27
:1044300003C0DBFFD9500C0FE96EDACFEAFFDF5083
:10444000EE26010EDB50EE22020EDB50EE22030EB2
:10445000DB50EE22D9CFE9FFDACFEAFFEECF08F04A
:10446000EECF09F0EECF0AF0EFCF0BF0D9500C0FE2
:10447000E96EDACFEAFFEE50081AEE50091AEE5054
:104480000A1AEE500B1AD950040FE96EDACFEAFF80
:104490000850EE18046E0950EE18056E0A50EE181A
:1044A000066E0B50EE18076E04500701E725006EEC
:1044B0000550E821016E0650E921026E0750EA21FD
:1044C000036EF80E00267C0E0122A20E02221F0EA1
:1044D0000322D950080FE96EDACFEAFF0050EE262A
:1044E0000150EE220250EE220350EE22080EDBCFE6
:1044F00000F0090EDBCF01F00A0EDBCF02F00B0E4D
:10450000DBCF03F0100E1F0B07E0D890003601360A
:1045100002360336E806F9E1080EDBCF04F0090E97
:10452000DBCF05F00A0EDBCF06F00B0EDBCF07F07A
:10453000100ED8900732063205320432E806F9E14F
:1045400004500012055001120650021207500312C7
:10455000080E00C0DBFF090E01C0DBFF0A0E02C01F
:10456000DBFF0B0E03C0DBFFD950080FE96EDACF7B
:10457000EAFF0C0EDB50EE260D0EDB50EE220E0E87
:10458000DB50EE220F0EDB50EE220C0EDBCF08F0DC
:104590000D0EDBCF09F00E0EDBCF0AF00F0EDBCFD6
:1045A0000BF0D950080FE96EDACFEAFFEE50081A87
:1045B000EE50091AEE500A1AEE500B1AD9CFE9FF45
:1045C000DACFEAFF0850EE18046E0950EE18056EB7
:1045D0000A50EE18066E0B50EE18076E04500701D5
:1045E000B325006E0550B421016E0650B521026E50
:1045F0000750B621036E650E0026560E0122AC0E42
:104600000222C40E0322D950040FE96EDACFEAFF6A
:104610000050EE260150EE220250EE220350EE2210
:10462000040EDBCF00F0050EDBCF01F0060EDBCF72
:1046300002F0070EDBCF03F0170E1F0B07E0D89038
:104640000036013602360336E806F9E1040EDBCF08
:1046500004F0050EDBCF05F0060EDBCF06F0070EEB
:10466000DBCF07F0090ED89007320632053204324C
:10467000E806F9E10450001205500112065002123A
:1046800007500312040E00C0DBFF050E01C0DBFF64
:10469000060E02C0DBFF070E03C0DBFFD950040F7C
:1046A000E96EDACFEAFF080EDB50EE26090EDB508A
:1046B000EE220A0EDB50EE220B0EDB50EE220C0E29
:1046C000DBCF04F00D0EDBCF05F00E0EDBCF06F0D6
:1046D0000F0EDBCF07F0041E051E061E071ED95065
:1046E000040FE96EDACFEAFFEE500412EE50051225
:1046F000EE500612EE500712D950080FE96EDACFCD
:10470000EAFFEE50041AEE50051AEE50061AEE506B
:10471000071A04500701AB25006E0550AC21016E4D
:104720000650AD21026E0750AE21036E440E0026E6
:10473000220E0122290E0222F40E03220050DE2650
:104740000150DE220250DE220350DD22DD52DD5216
:10475000D9CFE9FFDACFEAFFEECF00F0EECF01F0DC
:10476000EECF02F0EFCF03F0060E1F0B07E0D8905C
:104770000036013602360336E806F9E1D9CFE9FF03
:10478000DACFEAFFEECF04F0EECF05F0EECF06F081
:10479000EFCF07F01A0ED8900732063205320432F6
:1047A000E806F9E104500012055001120650021209
:1047B0000750031200C0DFFF010E01C0DBFF020E35
:1047C00002C0DBFF030E03C0DBFFD9CFE9FFDACF66
:1047D000EAFF040EDB50EE26050EDB50EE22060E3D
:1047E000DB50EE22070EDB50EE22080EDBCF04F08A
:1047F000090EDBCF05F00A0EDBCF06F00B0EDBCF88
:1048000007F0041E051E061E071ED9CFE9FFDACFEA
:10481000EAFFEE500412EE500512EE500612EE5072
:104820000712D950040FE96EDACFEAFFEE50041AEE
:10483000EE50051AEE50061AEE50071A0450070102
:10484000C725006E0550C821016E0650C921026EB1
:104850000750CA21036E970E0026FF0E01222A0E72
:104860000222430E0322D9500C0FE96EDACFEAFF81
:104870000050EE260150EE220250EE220350EE22AE
:104880000C0EDBCF00F00D0EDBCF01F00E0EDBCFF8
:1048900002F00F0EDBCF03F00A0E1F0B07E0D890DB
:1048A0000036013602360336E806F9E10C0EDBCF9E
:1048B00004F00D0EDBCF05F00E0EDBCF06F00F0E71
:1048C000DBCF07F0160ED8900732063205320432DD
:1048D000E806F9E1045000120550011206500212D8
:1048E000075003120C0E00C0DBFF0D0E01C0DBFFF2
:1048F0000E0E02C0DBFF0F0E03C0DBFFD9500C0F02
:10490000E96EDACFEAFFDF50EE26010EDB50EE2231
:10491000020EDB50EE22030EDB50EE22040EDBCF44
:1049200004F0050EDBCF05F0060EDBCF06F0070E18
:10493000DBCF07F0041E051E061E071ED9500C0F04
:10494000E96EDACFEAFFEE500412EE500512EE5097
:104950000612EE500712D9CFE9FFDACFEAFFEE5088
:10496000041AEE50051AEE50061AEE50071A0450BB
:104970000701E325006E0550E421016E0650E52194
:10498000026E0750E621036EA70E0026230E0122B9
:10499000940E0222AB0E0322D950080FE96EDACF33
:1049A000EAFF0050EE260150EE220250EE220350A4
:1049B000EE22080EDBCF00F0090EDBCF01F00A0E6D
:1049C000DBCF02F00B0EDBCF03F00F0E1F0B07E067
:1049D000D8900036013602360336E806F9E1080EB3
:1049E000DBCF04F0090EDBCF05F00A0EDBCF06F0BB
:1049F0000B0EDBCF07F0110ED890073206320532CE
:104A00000432E806F9E10450001205500112065084
:104A1000021207500312080E00C0DBFF090E01C08E
:104A2000DBFF0A0E02C0DBFF0B0E03C0DBFFD95019
:104A3000080FE96EDACFEAFF0C0EDB50EE260D0E02
:104A4000DB50EE220E0EDB50EE220F0EDB50EE227C
:104A5000D9CFE9FFDACFEAFFEECF04F0EECF05F0D1
:104A6000EECF06F0EFCF07F0041E051E061E071E50
:104A7000D950080FE96EDACFEAFFEE500412EE507B
:104A80000512EE500612EE500712D9500C0FE96EC7
:104A9000DACFEAFFEE50041AEE50051AEE50061A6D
:104AA000EE50071A04500701BF25006E0550C021C3
:104AB000016E0650C121026E0750C221036E390EED
:104AC0000026A00E0122930E0222FC0E0322D950D2
:104AD000040FE96EDACFEAFF0050EE260150EE2215
:104AE0000250EE220350EE22040EDBCF00F0050E42
:104AF000DBCF01F0060EDBCF02F0070EDBCF03F0B9
:104B0000150E1F0B07E0D89000360136023603362B
:104B1000E806F9E1040EDBCF04F0050EDBCF05F06B
:104B2000060EDBCF06F0070EDBCF07F00B0ED8909A
:104B30000732063205320432E806F9E10450001269
:104B4000055001120650021207500312040E00C055
:104B5000DBFF050E01C0DBFF060E02C0DBFF070E08
:104B600003C0DBFFD950040FE96EDACFEAFF080E6D
:104B7000DB50EE26090EDB50EE220A0EDB50EE2251
:104B80000B0EDB50EE220C0EDBCF04F00D0EDBCF54
:104B900005F00E0EDBCF06F00F0EDBCF07F0041E84
:104BA000051E061E071ED950040FE96EDACFEAFF74
:104BB000EE500412EE500512EE500612EE5007129F
:104BC000D950080FE96EDACFEAFFEE50041AEE5022
:104BD000051AEE50061AEE50071A04500701DB259D
:104BE000006E0550DC21016E0650DD21026E07507B
:104BF000DE21036EC30E0026590E01225B0E022237
:104C0000650E03220050DE260150DE220250DE2215
:104C10000350DD22DD52DD52D9CFE9FFDACFEAFFC2
:104C2000EECF00F0EECF01F0EECF02F0EFCF03F0C9
:104C3000060E1F0B07E0D890003601360236033609
:104C4000E806F9E1D9CFE9FFDACFEAFFEECF04F0C9
:104C5000EECF05F0EECF06F0EFCF07F01A0ED890AA
:104C60000732063205320432E806F9E10450001238
:104C700005500112065002120750031200C0DFFF58
:104C8000010E01C0DBFF020E02C0DBFF030E03C0FA
:104C9000DBFFD9CFE9FFDACFEAFF040EDB50EE26C7
:104CA000050EDB50EE22060EDB50EE22070EDB5027
:104CB000EE22080EDBCF04F0090EDBCF05F00A0E62
:104CC000DBCF06F00B0EDBCF07F0041E051E061E21
:104CD000071ED9CFE9FFDACFEAFFEE500412EE50FB
:104CE0000512EE500612EE500712D950040FE96E6D
:104CF000DACFEAFFEE50041AEE50051AEE50061A0B
:104D0000EE50071A04500701B725006E0550B82170
:104D1000016E0650B921026E0750BA21036E920E41
:104D20000026CC0E01220C0E02228F0E0322D95037
:104D30000C0FE96EDACFEAFF0050EE260150EE22AA
:104D40000250EE220350EE220C0EDBCF00F00D0ECF
:104D5000DBCF01F00E0EDBCF02F00F0EDBCF03F046
:104D60000A0E1F0B07E0D8900036013602360336D4
:104D7000E806F9E10C0EDBCF04F00D0EDBCF05F0F9
:104D80000E0EDBCF06F00F0EDBCF07F0160ED8901D
:104D90000732063205320432E806F9E10450001207
:104DA0000550011206500212075003120C0E00C0EB
:104DB000DBFF0D0E01C0DBFF0E0E02C0DBFF0F0E8E
:104DC00003C0DBFFD9500C0FE96EDACFEAFFDF50EA
:104DD000EE26010EDB50EE22020EDB50EE22030E19
:104DE000DB50EE22040EDBCF04F0050EDBCF05F026
:104DF000060EDBCF06F0070EDBCF07F0041E051E04
:104E0000061E071ED9500C0FE96EDACFEAFFEE50EE
:104E10000412EE500512EE500612EE500712D9CFD2
:104E2000E9FFDACFEAFFEE50041AEE50051AEE5011
:104E3000061AEE50071A04500701D325006E0550DC
:104E4000D421016E0650D521026E0750D621036E83
:104E50007D0E0026F40E0122EF0E0222FF0E032229
:104E6000D950080FE96EDACFEAFF0050EE26015064
:104E7000EE220250EE220350EE22080EDBCF00F0AD
:104E8000090EDBCF01F00A0EDBCF02F00B0EDBCFF9
:104E900003F00F0E1F0B07E0D890003601360236E4
:104EA0000336E806F9E1080EDBCF04F0090EDBCF8C
:104EB00005F00A0EDBCF06F00B0EDBCF07F0110E6C
:104EC000D8900732063205320432E806F9E1045080
:104ED0000012055001120650021207500312080E6C
:104EE00000C0DBFF090E01C0DBFF0A0E02C0DBFFC2
:104EF0000B0E03C0DBFFD950080FE96EDACFEAFFD3
:104F00000C0EDB50EE260D0EDB50EE220E0EDB50AB
:104F1000EE220F0EDB50EE22D9CFE9FFDACFEAFF07
:104F2000EECF04F0EECF05F0EECF06F0EFCF07F0B6
:104F3000041E051E061E071ED950080FE96EDACFA3
:104F4000EAFFEE500412EE500512EE500612EE503B
:104F50000712D9500C0FE96EDACFEAFFEE50041AAF
:104F6000EE50051AEE50061AEE50071A04500701CB
:104F7000AF25006E0550B021016E0650B121026EC2
:104F80000750B221036ED10E00265D0E0122840E61
:104F90000222850E0322D950040FE96EDACFEAFF10
:104FA0000050EE260150EE220250EE220350EE2277
:104FB000040EDBCF00F0050EDBCF01F0060EDBCFD9
:104FC00002F0070EDBCF03F0150E1F0B07E0D890A1
:104FD0000036013602360336E806F9E1040EDBCF6F
:104FE00004F0050EDBCF05F0060EDBCF06F0070E52
:104FF000DBCF07F00B0ED8900732063205320432B1
:10500000E806F9E1045000120550011206500212A0
:1050100007500312040E00C0DBFF050E01C0DBFFCA
:10502000060E02C0DBFF070E03C0DBFFD950040FE2
:10503000E96EDACFEAFF080EDB50EE26090EDB50F0
:10504000EE220A0EDB50EE220B0EDB50EE220C0E8F
:10505000DBCF04F00D0EDBCF05F00E0EDBCF06F03C
:105060000F0EDBCF07F0041E051E061E071ED950CB
:10507000040FE96EDACFEAFFEE500412EE5005128B
:10508000EE500612EE500712D950080FE96EDACF33
:10509000EAFFEE50041AEE50051AEE50061AEE50D2
:1050A000071A04500701CB25006E0550CC21016E74
:1050B0000650CD21026E0750CE21036E4F0E002602
:1050C0007E0E0122A80E02226F0E03220050DE2661
:1050D0000150DE220250DE220350DD22DD52DD527D
:1050E000D9CFE9FFDACFEAFFEECF00F0EECF01F043
:1050F000EECF02F0EFCF03F0060E1F0B07E0D890C3
:105100000036013602360336E806F9E1D9CFE9FF69
:10511000DACFEAFFEECF04F0EECF05F0EECF06F0E7
:10512000EFCF07F01A0ED89007320632053204325C
:10513000E806F9E10450001205500112065002126F
:105140000750031200C0DFFF010E01C0DBFF020E9B
:1051500002C0DBFF030E03C0DBFFD9CFE9FFDACFCC
:10516000EAFF040EDB50EE26050EDB50EE22060EA3
:10517000DB50EE22070EDB50EE22080EDBCF04F0F0
:10518000090EDBCF05F00A0EDBCF06F00B0EDBCFEE
:1051900007F0041E051E061E071ED9CFE9FFDACF51
:1051A000EAFFEE500412EE500512EE500612EE50D9
:1051B0000712D950040FE96EDACFEAFFEE50041A55
:1051C000EE50051AEE50061AEE50071A0450070169
:1051D000E725006E0550E821016E0650E921026EB8
:1051E0000750EA21036EE00E0026E60E01222C0E87
:1051F0000222FE0E0322D9500C0FE96EDACFEAFF2D
:105200000050EE260150EE220250EE220350EE2214
:105210000C0EDBCF00F00D0EDBCF01F00E0EDBCF5E
:1052200002F00F0EDBCF03F00A0E1F0B07E0D89041
:105230000036013602360336E806F9E10C0EDBCF04
:1052400004F00D0EDBCF05F00E0EDBCF06F00F0ED7
:10525000DBCF07F0160ED890073206320532043243
:10526000E806F9E10450001205500112065002123E
:10527000075003120C0E00C0DBFF0D0E01C0DBFF58
:105280000E0E02C0DBFF0F0E03C0DBFFD9500C0F68
:10529000E96EDACFEAFFDF50EE26010EDB50EE2298
:1052A000020EDB50EE22030EDB50EE22040EDBCFAB
:1052B00004F0050EDBCF05F0060EDBCF06F0070E7F
:1052C000DBCF07F0041E051E061E071ED9500C0F6B
:1052D000E96EDACFEAFFEE500412EE500512EE50FE
:1052E0000612EE500712D9CFE9FFDACFEAFFEE50EF
:1052F000041AEE50051AEE50061AEE50071A045022
:105300000701C325006E0550C421016E0650C5215A
:10531000026E0750C621036E140E0026430E0122B2
:10532000010E0222A30E0322D950080FE96EDACF34
:10533000EAFF0050EE260150EE220250EE2203500A
:10534000EE22080EDBCF00F0090EDBCF01F00A0ED3
:10535000DBCF02F00B0EDBCF03F00F0E1F0B07E0CD
:10536000D8900036013602360336E806F9E1080E19
:10537000DBCF04F0090EDBCF05F00A0EDBCF06F021
:105380000B0EDBCF07F0110ED89007320632053234
:105390000432E806F9E104500012055001120650EB
:1053A000021207500312080E00C0DBFF090E01C0F5
:1053B000DBFF0A0E02C0DBFF0B0E03C0DBFFD95080
:1053C000080FE96EDACFEAFF0C0EDB50EE260D0E69
:1053D000DB50EE220E0EDB50EE220F0EDB50EE22E3
:1053E000D9CFE9FFDACFEAFFEECF04F0EECF05F038
:1053F000EECF06F0EFCF07F0041E051E061E071EB7
:10540000D950080FE96EDACFEAFFEE500412EE50E1
:105410000512EE500612EE500712D9500C0FE96E2D
:10542000DACFEAFFEE50041AEE50051AEE50061AD3
:10543000EE50071A04500701DF25006E0550E021E9
:10544000016E0650E121026E0750E221036EA10EAB
:105450000026110E0122080E02224E0E0322D95000
:10546000040FE96EDACFEAFF0050EE260150EE227B
:105470000250EE220350EE22040EDBCF00F0050EA8
:10548000DBCF01F0060EDBCF02F0070EDBCF03F01F
:10549000150E1F0B07E0D890003601360236033692
:1054A000E806F9E1040EDBCF04F0050EDBCF05F0D2
:1054B000060EDBCF06F0070EDBCF07F00B0ED89001
:1054C0000732063205320432E806F9E104500012D0
:1054D000055001120650021207500312040E00C0BC
:1054E000DBFF050E01C0DBFF060E02C0DBFF070E6F
:1054F00003C0DBFFD950040FE96EDACFEAFF080ED4
:10550000DB50EE26090EDB50EE220A0EDB50EE22B7
:105510000B0EDB50EE220C0EDBCF04F00D0EDBCFBA
:1055200005F00E0EDBCF06F00F0EDBCF07F0041EEA
:10553000051E061E071ED950040FE96EDACFEAFFDA
:10554000EE500412EE500512EE500612EE50071205
:10555000D950080FE96EDACFEAFFEE50041AEE5088
:10556000051AEE50061AEE50071A04500701BB2523
:10557000006E0550BC21016E0650BD21026E075021
:10558000BE21036E820E00267E0E0122530E0222E1
:10559000F70E03220050DE260150DE220250DE22EA
:1055A0000350DD22DD52DD52D9CFE9FFDACFEAFF29
:1055B000EECF00F0EECF01F0EECF02F0EFCF03F030
:1055C000060E1F0B07E0D890003601360236033670
:1055D000E806F9E1D9CFE9FFDACFEAFFEECF04F030
:1055E000EECF05F0EECF06F0EFCF07F01A0ED89011
:1055F0000732063205320432E806F9E1045000129F
:1056000005500112065002120750031200C0DFFFBE
:10561000010E01C0DBFF020E02C0DBFF030E03C060
:10562000DBFFD9CFE9FFDACFEAFF040EDB50EE262D
:10563000050EDB50EE22060EDB50EE22070EDB508D
:10564000EE22080EDBCF04F0090EDBCF05F00A0EC8
:10565000DBCF06F00B0EDBCF07F0041E051E061E87
:10566000071ED9CFE9FFDACFEAFFEE500412EE5061
:105670000512EE500612EE500712D950040FE96ED3
:10568000DACFEAFFEE50041AEE50051AEE50061A71
:10569000EE50071A04500701D725006E0550D82197
:1056A000016E0650D921026E0750DA21036E350EC5
:1056B0000026F20E01223A0E0222BD0E0322D9501C
:1056C0000C0FE96EDACFEAFF0050EE260150EE2211
:1056D0000250EE220350EE220C0EDBCF00F00D0E36
:1056E000DBCF01F00E0EDBCF02F00F0EDBCF03F0AD
:1056F0000A0E1F0B07E0D89000360136023603363B
:10570000E806F9E10C0EDBCF04F00D0EDBCF05F05F
:105710000E0EDBCF06F00F0EDBCF07F0160ED89083
:105720000732063205320432E806F9E1045000126D
:105730000550011206500212075003120C0E00C051
:10574000DBFF0D0E01C0DBFF0E0E02C0DBFF0F0EF4
:1057500003C0DBFFD9500C0FE96EDACFEAFFDF5050
:10576000EE26010EDB50EE22020EDB50EE22030E7F
:10577000DB50EE22040EDBCF04F0050EDBCF05F08C
:10578000060EDBCF06F0070EDBCF07F0041E051E6A
:10579000061E071ED9500C0FE96EDACFEAFFEE5055
:1057A0000412EE500512EE500612EE500712D9CF39
:1057B000E9FFDACFEAFFEE50041AEE50051AEE5078
:1057C000061AEE50071A04500701B325006E055063
:1057D000B421016E0650B521026E0750B621036E4A
:1057E000BB0E0026D20E0122D70E02222A0E032261
:1057F000D950080FE96EDACFEAFF0050EE260150CB
:10580000EE220250EE220350EE22080EDBCF00F013
:10581000090EDBCF01F00A0EDBCF02F00B0EDBCF5F
:1058200003F00F0E1F0B07E0D8900036013602364A
:105830000336E806F9E1080EDBCF04F0090EDBCFF2
:1058400005F00A0EDBCF06F00B0EDBCF07F0110ED2
:10585000D8900732063205320432E806F9E10450E6
:105860000012055001120650021207500312080ED2
:1058700000C0DBFF090E01C0DBFF0A0E02C0DBFF28
:105880000B0E03C0DBFFD950080FE96EDACFEAFF39
:105890000C0EDB50EE260D0EDB50EE220E0EDB5012
:1058A000EE220F0EDB50EE22D9CFE9FFDACFEAFF6E
:1058B000EECF04F0EECF05F0EECF06F0EFCF07F01D
:1058C000041E051E061E071ED950080FE96EDACF0A
:1058D000EAFFEE500412EE500512EE500612EE50A2
:1058E0000712D9500C0FE96EDACFEAFFEE50041A16
:1058F000EE50051AEE50061AEE50071A0450070132
:10590000CF25006E0550D021016E0650D121026EC8
:105910000750D221036E910E0026D30E0122860E6F
:105920000222EB0E0322D950040FE96EDACFEAFF10
:105930000050EE260150EE220250EE220350EE22DD
:10594000040EDBCF00F0050EDBCF01F0060EDBCF3F
:1059500002F0070EDBCF03F0150E1F0B07E0D89007
:105960000036013602360336E806F9E1040EDBCFD5
:1059700004F0050EDBCF05F0060EDBCF06F0070EB8
:10598000DBCF07F00B0ED890073206320532043217
:10599000E806F9E104500012055001120650021207
:1059A00007500312040E00C0DBFF050E01C0DBFF31
:1059B000060E02C0DBFF070E03C0DBFFD950040F49
:1059C000E96EDACFEAFF080EDB50EE26090EDB5057
:1059D000EE220A0EDB50EE220B0EDB50EE22FD0E05
:1059E000DBCFE9FFFE0EDBCFEAFFDF50EE26010E34
:1059F000DB50EE22020EDB50EE22030EDB50EE22D5
:105A0000040EE76EFD0EDBCFE9FFFE0EDBCFEAFFF3
:105A1000E750E926000EEA22040EDB50EE26050EC2
:105A2000DB50EE22060EDB50EE22070EDB50EE229C
:105A3000080EE76EFD0EDBCFE9FFFE0EDBCFEAFFBF
:105A4000E750E926000EEA22080EDB50EE26090E8A
:105A5000DB50EE220A0EDB50EE220B0EDB50EE2264
:105A60000C0EE76EFD0EDBCFE9FFFE0EDBCFEAFF8B
:105A7000E750E926000EEA220C0EDB50EE260D0E52
:105A8000DB50EE220E0EDB50EE220F0EDB50EE222C
:105A9000100EE15C02E2E16AE552E16EE552E7CF09
:105AA000D9FF1200D9CFE6FFE1CFD9FF080EE126DA
:105AB000DE6ADE6ADE6ADD6ADD52DD52040EDB6A12
