:020000040000FA
:06000000A9EF34F012002C
:020006001200E6
:0600080092EF19F0120056
:02000E000700E9
:10001000726A0000FD04000003000000326A000064
:100020004007000040000000116A0000D8040000F2
:1000300021000000DE690000CA0600003300000055
:1000400099680000FF06000001000000A0690000A0
:10005000800700003E0000009E690000FE000000D6
:04006000020000009A
:0C006400ECEC0CF032EC0DF0EE6AEE6AF1
:10007000EE6AEE6A65EC0CF0EE6AEE6AEE6AEE6A23
:10008000A1EC09F0010EEE6E230EEE6E450EEE6E43
:10009000670EEE6EA1EC09F0040EE3EC0AF0890E97
:1000A000EE6EAB0EEE6ECD0EEE6EEF0EEE6EA1ECC2
:1000B00009F0080EE3EC0AF0FE0EEE6EDC0EEE6EBA
:1000C000BA0EEE6E980EEE6EA1EC09F00C0EE3EC9B
:1000D0000AF0760EEE6E540EEE6E320EEE6E100ECE
:1000E000EE6EE552E7CFD9FF1200ECEC0CF0080EF3
:1000F000E126030E046E65EC0CF017EC0BF003E048
:1001000037EC0BF0FDE13F0E001671EC0BF0A6ECA6
:100110000CF0F90EDBCF04F0FA0EDBCF05F0066A27
:10012000076A05AE02D006680768030E1F0B07E0DA
:10013000D8900436053606360736E806F9E165EC50
:100140000CF00450EF26EECF00F00550EF22EECF7A
:1001500001F00650EF22EECF02F00750EF22EECF73
:1001600003F0F90EDBCF08F0FA0EDBCF09F00A6AD4
:100170000B6A09AE02D00A680B68030E1F0B03E07E
:1001800048EC0BF0FDE10850005C095001580A50A2
:1001900002580B50035806E232EC0DF0EE2AEE2224
:1001A000EE22EE224FEC0BF0026A036A01AE02D09F
:1001B000026803681D0E37EC0BF0FDE132EC0DF028
:1001C000DFEC0CF0400E046E056A066A076AD9CFB0
:1001D000E9FF1DEC0BF0EE500758060E00C0DBFFE8
:1001E000070E01C0DBFF4FEC0BF009EC0DF00150E6
:1001F0000318E8AE02D0033404D00250005C035070
:1002000001586AE3060EDBCFE6FF070EDBCFE6FF01
:100210000BEC0BF0E8EC0CF0E9CF02F0EACF03F0C6
:10022000DB50E924006E010EDB50EA2067EC0BF096
:100230009FEC2AF0046E060EE15E0450E8EC0CF030
:1002400002EC0BF0A1EC09F0E9CF02F0EACF03F0E9
:1002500026EC0BF0060EDBCF28F0070EDBCF29F0E3
:10026000040E28C0DBFF050E29C0DBFF3F0EE76E42
:10027000CFEC0CF0E7500026000E0122C8EC0CF089
:1002800001500318E8AE02D0033404D00250005CE1
:10029000035001581EE2040EDBCF02F0050EDBCF47
:1002A00003F0FB0EDB500224006EFC0EDB5003203B
:1002B00067EC0BF0A1EC09F0E9CF04F0EACF05F010
:1002C00026EC0BF025EC0DF0400EEE26000EED2294
:1002D000CDD710EC0DF004D0040EDB6A050EDB6AFE
:1002E000C8EC0CF0040EDB50025C006E050EDB5017
:1002F000035867EC0BF03EEC0BF0046EFC0EDB5089
:100300000720056E04C0E6FFE66EE8EC0CF0E9CFCE
:100310000AF0EACF0BF0DB50E924086E010EDB5047
:10032000EA20096E08C0E6FFE66E9FEC2AF00C6E2C
:10033000060EE15E0C50080EE15C02E2E16AE55255
:1003400012EF0BF05CEC0BF0080E31EC0BF0100E22
:10035000E3EC0AF002EC0BF0D9CFE6FFDACFE6FFD0
:1003600056EC0BF0030E046E17EC0DF0100EE3ECE0
:100370000AF017EC0BF003E037EC0BF0FDE13F0E59
:10038000001671EC0BF055EC0CF0380EEE5C000E24
:10039000EE58000EEE58000EEE580DE2380E046EC8
:1003A000056A066A076A2EEC0DF01DEC0BF0026E72
:1003B000EE50075813D0780E086E096A0A6A0B6A65
:1003C0002EEC0DF076EC0DF0085C006EEE50095846
:1003D000016EEE500A58026EEE500B58036E72EC2E
:1003E0000CF00C0EDBCFE6FF0D0EDBCFE6FF400E70
:1003F000E66E070EE66E0BEC0BF060EC0BF0080EF1
:10040000E66EE66AD9CFE6FFDACFE6FF0BEC0BF03B
:1004100060EC0BF0100E31EC0BF002EC0BF0FD0E6B
:10042000DBCFE6FFFE0EDBCFE6FF56EC0BF0100E47
:10043000E15C02E2E16AE55212EF0BF05CEC0BF0DA
:10044000A1EC09F0EECFDFFF010EEECFDBFF020ED5
:10045000EECFDBFF030EEECFDBFF040E47EC0CF01C
:10046000040EEECFDBFF050EEECFDBFF060EEECF68
:10047000DBFF070EEECFDBFF080E47EC0CF0080E9B
:10048000EECFDBFF090EEECFDBFF0A0EEECFDBFF78
:100490000B0EEECFDBFF0C0E47EC0CF00C0EEECF8C
:1004A000DBFF0D0EEECFDBFF0E0EEECFDBFF0F0EF0
:1004B000EECFDBFF400EE66EE66AE66AE66A0BEC1C
:1004C0000BF0000EE66E070EE66E17EC08F0006EFD
:1004D000080EE15E0050BBEC0BF002EC0AF0780E67
:1004E0000026A40E01226A0E0222D70EF1EC0CF0B7
:1004F00003E047EC09F0FDE119EC09F0190E36ECC8
:1005000009F0FDE175EC0BF00FEC0AF0560E002639
:10051000B70E0122C70E0222E80E63EC0DF003E0D5
:1005200047EC09F0FDE129EC09F0140E36EC09F076
:10053000FDE190EC0BF01CEC0AF0DB0E0026700ED7
:100540000122200E0222240E36EC0DF003E047ECCF
:1005500009F0FDE10CEC09F00F0E36EC09F0FDE1BD
:10056000A8EC0BF029EC0AF0EE0E0026CE0E0122CC
:10057000BD0E0222C10E67EC0DF003E047EC09F05E
:10058000FDE11CEC09F00A0E36EC09F0FDE16BEC24
:100590000DF036EC0AF0AF0E00260F0E01227C0E95
:1005A0000222F50EF1EC0CF003E047EC09F0FDE15E
:1005B00019EC09F0190E36EC09F0FDE175EC0BF0C1
:1005C00043EC0AF02A0E0026C60E0122870E0222F4
:1005D000470E63EC0DF003E047EC09F0FDE129EC78
:1005E00009F0140E36EC09F0FDE190EC0BF050EC44
:1005F0000AF0130E0026460E0122300E0222A80E2B
:1006000036EC0DF003E047EC09F0FDE10CEC09F0ED
:100610000F0E36EC09F0FDE1A8EC0BF05DEC0AF0F2
:10062000002A950E0122460E03EC0DF0160E1F0B4C
:1006300003E047EC09F0FDE11CEC09F00A0E36EC92
:1006400009F0FDE16BEC0DF06AEC0AF0D80E002623
:10065000980E0122800E0222690EF1EC0CF003E0EC
:1006600047EC09F0FDE119EC09F0190E36EC09F040
:10067000FDE175EC0BF077EC0AF0AF0E0026F70EFB
:100680000122440E02228B0E63EC0DF003E047ECD6
:1006900009F0FDE129EC09F0140E36EC09F0FDE15A
:1006A00090EC0BF084EC0AF0B10E00265B0E0122F8
:1006B000FF0E022236EC0DF003E047EC09F0FDE1FD
:1006C0000CEC09F00F0E36EC09F0FDE1A8EC0BF094
:1006D00091EC0AF0BE0E0026D70E01225C0E02221B
:1006E000890E67EC0DF003E047EC09F0FDE11CEC2E
:1006F00009F00A0E36EC09F0FDE16BEC0DF09EEC12
:100700000AF0220E0026110E0122900E02226B0E1C
:10071000F1EC0CF003E047EC09F0FDE119EC09F015
:10072000190E36EC09F0FDE175EC0BF0ABEC0AF0BC
:10073000930E0026710E0122980E6CEC0BF00C0F3C
:10074000E6EC08F068EC09F00C0E1F0B03E047EC38
:1007500009F0FDE129EC09F0140E36EC09F0FDE199
:1007600090EC0BF0B8EC0AF08E0E0026430E01223E
:10077000790E0222A60E36EC0DF003E047EC09F0EC
:10078000FDE10CEC09F00F0E36EC09F0FDE1A8ECF0
:100790000BF0C5EC0AF0210E0026080E0122B40E63
:1007A0000222490E67EC0DF003E047EC09F0FDE191
:1007B0001CEC09F00A0E36EC09F0FDE1DCEC0BF064
:1007C0000FEC0AF0620E0026250E01221E0E0222F8
:1007D000F60EF5EC0CF003E047EC09F0FDE119EC46
:1007E00009F01B0E36EC09F0FDE1F8EC0BF050ECD3
:1007F0000AF0400E0026B30E0122400E0222C00E67
:100800003AEC0DF003E047EC09F0FDE129EC09F0CA
:10081000170E36EC09F0FDE1CFEC0BF091EC0AF08D
:10082000510E00265A0E01225E0E0222260E3EECCA
:100830000DF003E047EC09F0FDE10CEC09F0120EBD
:1008400036EC09F0FDE1E4EC0BF002EC0AF0AA0E44
:100850000026C70E0122B60E0222E90E42EC0DF070
:1008600003E047EC09F0FDE11CEC09F00C0E36EC5E
:1008700009F0FDE1DCEC0BF043EC0AF05D0E002624
:10088000100E01222F0E0222D60EF5EC0CF003E022
:1008900047EC09F0FDE119EC09F01B0E36EC09F00C
:1008A000FDE1F8EC0BF084EC0AF0530E0026140E78
:1008B0000122440E0222020E3AEC0DF003E047EC56
:1008C00009F0FDE129EC09F0170E36EC09F0FDE125
:1008D000CFEC0BF0C5EC0AF0810E0026E60E0122EB
:1008E000A10E0222D80E3EEC0DF003E047EC09F019
:1008F000FDE10CEC09F0120E36EC09F0FDE1E4EC40
:100900000BF036EC0AF0C80E0026FB0E0122D30EC7
:100910000222E70E42EC0DF003E047EC09F0FDE1A6
:100920001CEC09F00C0E36EC09F0FDE1DCEC0BF0F0
:1009300077EC0AF0E60E0026CD0E0122E10E02222F
:10094000210EF5EC0CF003E047EC09F0FDE119ECA9
:1009500009F01B0E36EC09F0FDE1F8EC0BF0B8ECF9
:100960000AF0D60E0026070E0122370E0222C30E11
:100970003AEC0DF003E047EC09F0FDE129EC09F059
:10098000170E36EC09F0FDE1CFEC0BF029EC0AF084
:10099000870E00260D0E0122D50E0222F40E3EEC2B
:1009A0000DF003E047EC09F0FDE10CEC09F0120E4C
:1009B00036EC09F0FDE1E4EC0BF06AEC0AF0ED0E28
:1009C0000026140E01225A0E0222450E42EC0DF0B2
:1009D00003E047EC09F0FDE11CEC09F00C0E36ECED
:1009E00009F0FDE1DCEC0BF0ABEC0AF0050E0026A3
:1009F000E90E0122E30E0222A90EF5EC0CF003E051
:100A000047EC09F0FDE119EC09F01B0E36EC09F09A
:100A1000FDE1F8EC0BF01CEC0AF0F80E0026A30E3A
:100A20000122EF0E0222FC0E3AEC0DF003E047EC3F
:100A300009F0FDE129EC09F0170E36EC09F0FDE1B3
:100A4000CFEC0BF05DEC0AF0D90E0026020E01226D
:100A50006F0E0222670E3EEC0DF003E047EC09F04A
:100A6000FDE1DADB120E36EC09F0FDE1E4EC0BF00F
:100A70009EEC0AF08A0E00264C0E01222A0E02225B
:100A80008D0E42EC0DF003E047EC09F0FDE1D4DB04
:100A90000C0EECDBFEE113EC0CF043EC0AF0420E22
:100AA0000026390E0122FA0E0222FF0EF9EC0CF09C
:100AB00002E0EDDBFEE1BDDB1C0ED8DBFEE12BEC42
:100AC0000CF06AEC0AF0810E0026F60E0122710E7F
:100AD0000222870E46EC0DF002E0D9DBFEE1B9DB25
:100AE000150EC4DBFEE11AEC0CF091EC0AF0220EBC
:100AF0000026610E01229D0E02226D0E4AEC0DF0C1
:100B000002E0C5DBFEE188DB100EB0DBFEE133EC7A
:100B10000CF0B8EC0AF00C0E0026380E0122E50E9F
:100B200003EC0DF0170E1F0B02E0B1DBFEE184DBDE
:100B3000090E9CDBFEE113EC0CF00FEC0AF0440E06
:100B40000026EA0E0122BE0E0222A40EF9EC0CF0E1
:100B500002E09DDBFEE16DDB1C0E88DBFEE12BEC91
:100B60000CF036EC0AF0A90E0026CF0E0122DE0EA4
:100B700002224B0E46EC0DF002E089DBFEE169DB60
:100B8000150E74DBFEE11AEC0CF05DEC0AF0600E61
:100B900000264B0E0122BB0E0222F60E4AEC0DF08F
:100BA00002E075DBFEE138DB100E60DBFEE133ECCA
:100BB0000CF084EC0AF0700E0026BC0E0122BF0E71
:100BC0000222BE0E6FEC0DF002E061DBFEE134DBD1
:100BD000090E4CDBFEE113EC0CF0ABEC0AF0C60E98
:100BE00000267E0E01229B0E0222280EF9EC0CF04C
:100BF00002E04DDBFEE11DDB1C0E38DBFEE12BECE1
:100C00000CF002EC0AF0FA0E0026270E0122A10ECB
:100C10000222EA0E46EC0DF002E039DBFEE119DBC0
:100C2000150E24DBFEE11AEC0CF029EC0AF0850E1F
:100C30000026300E0122EF0E0222D40E4AEC0DF0F7
:100C400002E025DBFEE1E8DA100E10DBFEE133EC1A
:100C50000CF050EC0AF0050E00261D0E0122880E45
:100C60000222040E6FEC0DF002E011DBFEE1E4DA8B
:100C7000090EFCDAFEE113EC0CF077EC0AF0390E09
:100C80000026D00E0122D40E0222D90EF9EC0CF06F
:100C900002E0FDDAFEE1CDDA1C0EE8DAFEE12BEC33
:100CA0000CF09EEC0AF0E50E0026990E0122DB0EF8
:100CB0000222E60E46EC0DF002E0E9DAFEE1C9DAC6
:100CC000150ED4DAFEE11AEC0CF0C5EC0AF0F80EC1
:100CD00000267C0E0122A20E02221F0E4AEC0DF00D
:100CE00002E0D5DAFEE198DA100EC0DAFEE133EC6C
:100CF0000CF0A2DB650E0026560E0122AC0E02227D
:100D0000C40E6FEC0DF002E0C2DAFEE195DA090ED6
:100D1000ADDAFEE101EC0CF075DB440E0026220E8C
:100D20000122290E0222F40EFEEC0CF002E0AFDAF2
:100D3000FEE17FDA1A0E9ADAFEE1ECEC0BF0BDDB95
:100D4000970E0026FF0E01222A0E0222430E4EECC1
:100D50000DF002E09CDAFEE17CDA160E87DAFEE1A5
:100D600021EC0CF0B8EC0AF0A70E0026230E0122AD
:100D7000940E0222AB0E52EC0DF002E088DAFEE196
:100D80004BDA110E73DAFEE10AEC0CF07CDB390E63
:100D90000026A00E0122930E0222FC0E56EC0DF04E
:100DA00002E075DAFEE148DA0B0E60DAFEE101ECF2
:100DB0000CF0C4DBC30E0026590E01225B0E02228A
:100DC000650EFEEC0CF002E062DAFEE132DA1A0E99
:100DD0004DDAFEE1ECEC0BF03CDB920E0026CC0E83
:100DE00001220C0E02228F0E4EEC0DF002E04FDAC3
:100DF000FEE12FDA160E3ADAFEE121EC0CF084DB8C
:100E00007D0E0026F40E0122EF0E0222FF0E52ECA0
:100E10000DF002E03CDAFEE1FFD9110E27DAFEE127
:100E20000AEC0CF0FCDAD10E00265D0E0122840ED5
:100E30000222850E56EC0DF002E029DAFEE1FCD923
:100E40000B0E14DAFEE101EC0CF044DB4F0E002631
:100E50007E0E0122A80E02226F0EFEEC0CF002E0C4
:100E600016DAFEE1E6D91A0E01DAFEE1ECEC0BF03F
:100E70008CDBE00E0026E60E01222C0E0222FE0E76
:100E80004EEC0DF002E003DAFEE1E3D9160EEED9E6
:100E9000FEE121EC0CF004DB140E0026430E0122CF
:100EA000010E0222A30E52EC0DF002E0F0D9FEE199
:100EB000B3D9110EDBD9FEE10AEC0CF04CDBA10E2C
:100EC0000026110E0122080E02224E0E56EC0DF0E5
:100ED00002E0DDD9FEE1B0D90B0EC8D9FEE101EC8C
:100EE0000CF0C4DA820E00267E0E0122530E02227E
:100EF000F70EFEEC0CF002E0CAD9FEE19AD91A0E08
:100F0000B5D9FEE1ECEC0BF00CDB350E0026F20E51
:100F100001223A0E0222BD0E4EEC0DF002E0B7D9CE
:100F2000FEE197D9160EA2D9FEE121EC0CF084DA8D
:100F3000BB0E0026D20E0122D70E02222A0E52EC40
:100F40000DF002E0A4D9FEE167D9110E8FD9FEE1C0
:100F50000AEC0CF0CCDA910E0026D30E0122860E9C
:100F60000222EB0E56EC0DF002E091D9FEE164D9BD
:100F70000B0E7CD9FEE10BD9E4D9B2EC0CF0040ED7
:100F800047EC0CF099EC0CF0080E47EC0CF08CECF4
:100F90000CF00C0E47EC0CF07FEC0CF0100EE15C4A
:100FA00002E2E16AE5523ED312DBFCDA3AE2DFCF3D
:100FB00006F0010EDBCF07F0D89006360736D89042
:100FC00006360736FB0EDB50062405EC0DF0072035
:100FD000EA6EEECF02F00250E66ECFEC0CF0B8D91C
:100FE000080E44D9FEE10450E66E010E3BEC0CF015
:100FF000AFD9100E3BD9FEE10450E66E020E3BEC79
:101000000CF0A6D9180E32D9FEE10450E66E030E9C
:101010003BEC0CF069EC0CF0E552E750EF6EE4DAD3
:10102000C4D7080EE15C02E2E16AE552FBD2CFDAF6
:10103000B9DA01E3A2D022DB05EC0DF00720EA6E5D
:10104000EFCF02F0036A046A056A010E0C6E0D6AA6
:101050000E6A0F6A25EC0DF0EE500C26EE500D22B4
:10106000EE500E22EE500F22FB0EDB500C2405EC4E
:101070000DF00D20EA6EEFCF08F0096A0A6A0B6ADC
:10108000080E1F0B02E004DBFEE1085002120950BB
:1010900003120A5004120B500512020E146E156A48
:1010A000166A176A25EC0DF0EE501426EE50152244
:1010B000EE501622EE501722FB0EDB50142405ECE6
:1010C0000DF01520EA6EEFCF10F0116A126A136A64
:1010D000100E1F0B07E0D89010361136123613365B
:1010E000E806F9E1105002121150031212500412D6
:1010F00013500512030E1C6E1D6A1E6A1F6A25EC32
:101100000DF0EE501C26EE501D22EE501E22EE5029
:101110001F22FB0EDB501C2405EC0DF01D20EA6E97
:10112000EFCF18F0196A1A6A1B6A180E1F0B07E036
:10113000D890183619361A361B36E806F9E11850D9
:101140000212195003121A5004121B500512DFCF5D
:1011500000F0010EDBCF01F0D89000360136D890B8
:1011600000360136B6DB02C0EEFF03C0EEFF04C05E
:10117000EEFF05C0EEFF38DA5BD7080EE15C02E255
:10118000E16AE5524FD288DB90DB7FEF0CF084DB25
:10119000040E00C0DBFF050E01C0DBFF060E02C01F
:1011A000DBFF070E03C0DBFF25EC0DF08CEF0CF02E
:1011B00073DB98DB5AEC0DF0DACFEAFFB2EF0CF0FC
:1011C0006BDBC4DB29EC0DF099EF0CF0E96EDACFA4
:1011D000EAFFDFEF0CF0DACFEAFF0C50EE14086EF6
:1011E0000D50EE14096E0E50EE140A6E0F50EE14F0
:1011F0000B6EC4D303220050DE260150DE220250C3
:10120000DE220350DD22DD52DD5229EC0DF01EEC12
:101210000DF0EFCF03F01200080EDBCF04F0090E43
:10122000DBCF05F00A0EDBCF06F00B0EDBCF07F0AD
:10123000120029EC0DF0BAD3040EDBCF04F0050E3A
:10124000DBCF05F0060EDBCF06F0070EDBCF07F095
:1012500012000C0EDBCF04F00D0EDBCF05F00E0EEE
:10126000DBCF06F00F0EDBCF07F01200D89007326D
:10127000063205320432E806120076EC0DF008164C
:10128000EE500916EE500A16EE500B1677D3D89092
:101290000036013602360336E806120076EC0DF011
:1012A0000416EE500516EE500616EE500716120004
:1012B000DACFEAFF0850EE18046E0950EE18056EFA
:1012C0000A50EE18066E0B50EE18076E045012000E
:1012D0000C0EDBCF00F00D0EDBCF01F00E0EDBCFDE
:1012E00002F00F0EDBCF03F01200080EDBCF00F090
:1012F000090EDBCF01F00A0EDBCF02F00B0EDBCFC5
:1013000003F012004CDB09EF0DF0F0DB041AEE5095
:10131000051AEE50061AEE50071A04501200E6DBCA
:10132000081AEE50091AEE500A1AEE500B1A120063
:10133000DDDB0412EE500512EE500612EE500712DD
:101340001200FD0EDBCFE9FFFE0EDBCFEAFF12003D
:10135000C0DAE552E750EF6EDFCF08F0010EDBCFC9
:1013600009F0D89008360936D89008360936FB0EB1
:10137000DB5008244ADB0920EA6E18D30C0EDBCFC1
:1013800008F00D0EDBCF09F00E0EDBCF0AF00F0ECA
:10139000DBCF0BF01200080EDBCF08F0090EDBCF1D
:1013A00009F00A0EDBCF0AF00B0EDBCF0BF01200B8
:1013B000040EDBCF08F0050EDBCF09F0060EDBCF05
:1013C0000AF0070EDBCF0BF0120043DBEECF08F084
:1013D000EECF09F0EECF0AF0EFCF0BF01200DBCF2B
:1013E0000FF00C1E0D1E0E1E0F1E1200081E091EF1
:1013F0000A1E0B1ED9501200041E051E061E071ED3
:10140000D950120007010025006E05500121016E20
:1014100006500221026E07500321036E12000701DD
:101420000425006E05500521016E06500621026E4E
:1014300007500721036E120007010825006E0550B2
:101440000921016E06500A21026E07500B21036E1E
:10145000120007010C25006E05500D21016E06508B
:101460000E21026E07500F21036E12000701102596
:10147000006E05501121016E06501221026E0750B8
:101480001321036E120007011425006E055015216B
:10149000016E06501621026E07501721036E1200CE
:1014A00007011825006E05501921016E06501A21FA
:1014B000026E07501B21036E120007011C25006EEF
:1014C00005501D21016E06501E21026E07501F217E
:1014D000036E120007012025006E05502121016EC8
:1014E00006502221026E07502321036E12000701CD
:1014F0002425006E05502521016E06502621026E1E
:1015000007502721036E120007012825006E0550A1
:101510002921016E06502A21026E07502B21036EED
:10152000120007012C25006E05502D21016E06507A
:101530002E21026E07502F21036E12000701302565
:10154000006E05503121016E06503221026E0750A7
:101550003321036E120007013425006E055035213A
:10156000016E06503621026E07503721036E1200BD
:1015700007013825006E05503921016E06503A21C9
:10158000026E07503B21036E120007013C25006EDE
:1015900005503D21016E06503E21026E07503F214D
:1015A000036E1200F70EDBCF00F0F80EDBCF01F078
:1015B000EFD94BDA0050EE5C0150EE580250EE5875
:1015C0000350EE581200E926000EEA22120004DA57
:1015D000080EE12625DA040EDB6A050EDB6A060E2C
:1015E000DB6A070EDB6A120034DAEE2A000EEE2206
:1015F000EE22EE222ADA040EEE26000EEE22EE2273
:10160000EE221200E9CF00F0EACF01F0E9CFE6FFC9
:10161000EACFE6FF1200FB0EDBCFE6FFFC0EDBCFCE
:10162000E6FF1200E16EE552E7CFD9FF1200045049
:101630001F0B04DAEECF03F0120058DA045C006EE0
:10164000EE500558016EEE5006581200E9CFE6FF45
:10165000EACFE6FF1EEC02F0E552E552E552E55214
:101660001200E66EE66AE66AE66A17EF0DF0D890B9
:101670000332023201320032E8061200040EDBCFE0
:1016800006F0050EDBCF07F0FB0EDB500624120040
:10169000D890083609360A360B36E8061200F90EDD
:1016A000DBCF00F0FA0EDBCF01F012007DDC026E22
:1016B000080EE15E025012008FD9100EE1261200D2
:1016C00075EC00F0006E060EE15E00501200016E37
:1016D00000C0E6FFE66E12000222FD0E0322D95082
:1016E0001200016A026A036A12006ADDA5DDD9CF21
:1016F000E9FFD4DDAED9EECF0CF0EECF0DF0EECF9A
:101700000EF0EFCF0FF00C1E0D1E0E1E0F1EA6D9F1
:10171000EBEF08F00322D950080F58DD75EF09F000
:1017200047DD87DDC7D9BADD0C0EDBCF0CF00D0E1F
:10173000DBCF0DF00E0EDBCF0EF00F0E50DEDAD940
:10174000EBEF08F00322D9500C0F40DD68EF09F0F1
:101750001ADD7FDD83D9A2DD080EDBCF0CF0090E88
:10176000DBCF0DF00A0EDBCF0EF00B0E38DED9CF3B
:10177000E9FFEBEF08F050DDBDD990DD040EDBCFC3
:101780000CF0050EDBCF0DF0060EDBCF0EF0070ED2
:1017900026DE90D9EBEF08F00322D9508FD108DD77
:1017A0004BDD88D97BDD04DE081E091E0A1E0B1ED8
:1017B000D9CFE9FF3DEF09F0EADC4BDD9BD96EDDC7
:1017C000DDDD14DE080F8FD1DEDC33DD47D966DDC9
:1017D000FCDD0CDE0C0F87D1F3DC1EDD041E051EC4
:1017E000061E071ED9CFE9FFA3DD84D985EF09F0D6
:1017F000E7DC12DDD9CFE9FF51DDCDDDF7DD040FE8
:1018000072D1C5DC26DDF8DD040FE96E91DD26D945
:1018100085EF09F0B8DC0DDDEFDD080FE96E88DD3E
:1018200049D985EF09F0B3DCB6DD64D978DD42D95A
:1018300058EF09F0BDDCC9DD3DD971DD5BD958EF4A
:1018400009F0B6DCF9DCD8DD0C0FE96E71DDD9CF1B
:10185000E9FF85EF09F0B4DCABDDD9CFE9FF5FDD4F
:10186000FDD858EF09F08FDC89DDF8D858DDD9CFE5
:10187000E9FF58EF09F0006E34DFE7D8EE5000269C
:10188000EE500122EE500222EE5003221200E76ECB
:1018900058DDE750E3EF0AF0045000120550011242
:1018A00006500212075003121200080E00C0DBFFA0
:1018B000090E01C0DBFF0A0E02C0DBFF0B0E03C0E6
:1018C000DBFFCCD8DACFEAFF12003BDD100EE3EFEE
:1018D0000AF0FD0EDB500024E96EFE0EDB50012005
:1018E000EA6E12000C0E00C0DBFF0D0E01C0DBFF24
:1018F0000E0E02C0DBFF0F0E03C0DBFF12000C0E4A
:10190000DB50EE260D0EDB50EE220E0EDB50EE22EB
:101910000F0EDB50EE221200080EDB50EE26090EF1
:10192000DB50EE220A0EDB50EE220B0EDB50EE22D5
:101930001200040EDB50EE26050EDB50EE22060EE2
:10194000DB50EE22070EDB50EE22120000C0DFFF5C
:10195000010E01C0DBFF020E02C0DBFF030E03C05D
:10196000DBFF1200DF50EE26010EDB50EE22020EEE
:10197000DB50EE22030EDB50EE2212000850041260
:10198000095005120A5006120B500712045012009B
:10199000F90EDBCF02F0FA0EDBCF03F01200040EDB
:1019A000DBCF00F0050EDBCF01F01200EECF04F02C
:1019B000EECF05F0EECF06F0EFCF07F012000050AB
:1019C000EE260150EE220250EE220350EE221200CB
:1019D000B8DC180EE3EF0AF0D9CFE6FFE1CFD9FF6C
:1019E000120008DC070E1F0B120004DC050E1F0B93
:1019F0001200FAEC08F0040E1F0B1200FAEC08F0CB
:101A0000060E1F0B120068DE59D0E96EFC0EDB508B
:101A10001200060EDBCF02F0070EDBCF03F0120040
:101A2000DE6ADE6ADE6ADD6ADD52DD521200FB0E1E
:101A3000DBCFE9FFFC0EDBCFEAFF1200EECF00F0B8
:101A4000EECF01F0EECF02F0120054D8DACFEAFF69
:101A50001200D9CFE9FFDACFEAFF1200D950080F00
:101A6000E96E120032DF040EE3EF0AF053DE110ECE
:101A70001F0B120067DE090E1F0B12004BDE0E0E4D
:101A80001F0B120089DE140E1F0B12005BDE0B0E03
:101A90001F0B12003FDE100E1F0B120053DE0A0E4A
:101AA0001F0B120037DE0F0E1F0B120075DE150E16
:101AB0001F0B1200D9500C0FE96E1200040FE6EC58
:101AC00008F082EF09F03EDE0C0E1F0B120064DE00
:101AD000160E1F0B1200C7EC08F0BBEF0BF05CDE1C
:101AE000170E1F0B1200E96E3DEF09F0DACFEAFF87
:0C1AF000EE501200D950040FE96E1200F5
:041AFC00BAEC12F03E
:101B0000FB0EDBCFF3FFDB06F35000090AE008EC25
:101B100013F0FA0E73EC13F0F3E1011CF1E1010E86
:101B200001D0000EE9EF12F0BAEC12F03B0EE12406
:101B300002E3E168E652E16E010EDB6A020EDB6A47
:101B4000F90EDBCFF6FFFA0EDBCFF7FFFB0EDBCF94
:101B5000F8FF0800F550DF6EDF5002E10DEF12F0E4
:101B6000250EDF5C02E000EF12F0030EDB6A040ECC
:101B7000DB6A050EDB6A060EDB6A070EDB6A22EC07
:101B800012F02D0EDF5C0CE02B0EDF5C09E0200E66
:101B9000DF5C06E0230EDF5C03E0300EDF5C1AE161
:101BA000DF50300A14E0130A0FE0030A0AE00B0AC0
:101BB00005E0060AE4E1030EDB80E1D7030EDB82D9
:101BC000DED7030EDB84DBD7030EDB86D8D7030E0C
:101BD000DB88D5D72A0EDF5C1BE11EEC12F06CEC23
:101BE00012F010E0030EDB8028682968130EDBCFAB
:101BF0002DF0140EDBCF2EF000EC24F0040E26C0E6
:101C0000DBFF03D0130E55EC12F022EC12F00BD0D8
:101C1000090EDB6AC3EC12F003E037EC13F0FAD7DD
:101C2000090E55EC12F0030EDBB0DB982E0EDF5CD4
:101C30001BE122EC12F02A0EDF5C0BE11EEC12F02D
:101C40006CEC12F003E1130EA7EC12F022EC12F090
:101C50000BD0090EDB6AC3EC12F003E037EC13F093
:101C6000FAD7090EA7EC12F0680EDF5C07E122EC50
:101C700012F0680EDF5C1DE1030E18D0740EDF5CFD
:101C800017E07A0EDF5C14E0480EDF5C06E0540ECD
:101C9000DF5C03E05A0EDF5C02E1020E07D06C0E3F
:101CA000DF5C03E06A0EDF5C04E1010EFAEC12F087
:101CB000C9DBDF506E0A01E17FD31E0A01E192D138
:101CC000200A01E18FD13F0A01E149D11A0A01E15D
:101CD00046D10D0A01E143D1200A01E140D13A0A7F
:101CE00001E13DD1200A01E13AD1260A01E135D1D5
:101CF0000D0A01E132D11A0A01E1D9D0200A4AE0E5
:101D0000300A1FE0460A0EE0250A01E083D3D950CD
:101D1000F90FE96EFF0EDA20EA6E010EEE5E000E9C
:101D2000EE5AEE5A08EC13F0250EE66E95DB03E151
:101D3000011C01E169D304EC13F001E26BD3DB2A4F
:101D400069D3080EDB6A040EDB50010806E2040EBC
:101D5000DB04CCEC12F0DB508BDB080EDB5009E02F
:101D6000030EDB50010B05E172DB01E04DD3080EE1
:101D7000DB6A64DBEFCFDFFF7CEC13F003E1011CD7
:101D800001E142D304EC13F001E3DB2A60DB01E163
:101D900041D33AD3070EDB5002080FE148EC13F0B1
:101DA000030E0FEC13F00E0EEECFDBFF0F0EEECF97
:101DB000DBFF100EEECFDBFF20D0F70EDBCF03F002
:101DC000F80EDBCF04F0020E035E000E045AF70E8D
:101DD00003C0DBFFF80E04C0DBFF03C0E9FF04C053
:101DE000EAFFFFEC12F0026A0E0E00C0DBFF0F0EDE
:101DF00001C0DBFF100E02C0DBFF0E0EDBCFE6FFE3
:101E00000F0EDBCFE6FF100EDBCFE6FF08EC2CF069
:101E1000E552E552E552130E27C0DBFF140E28C031
:101E2000DBFF060EDB5005E0130E43EC13F001E27E
:101E30006ADB67EC13F002E2130E37DB2AEC13F0D7
:101E400006E0040E43EC13F002E2050E2EDB030E57
:101E5000DBB005D0FCDA01E0D7D2080EDB6A090E50
:101E6000DB6A0E0EDBCFF6FF0F0EDBCFF7FF100E97
:101E7000DBCFF8FF0800F550DF6EDF5014E06DECAB
:101E800013F011E27CEC13F003E1011C01E1BCD280
:101E9000BBDB01E3DB2A090EDB2AD9500E0FE96E0A
:101EA000000ECBDBE7D7D3DA01E1B4D2ADD2C6DA8C
:101EB000110EEECFDBFF120EEDCFDBFF110EDBCFED
:101EC000E6FF120EDBCFE6FF7EEC2BF0E552E5528B
:101ED000130EF3CFDBFF140EF4CFDBFF060EDB5047
:101EE00004E0130ED0DB01E20EDB67EC13F002E23C
:101EF000130EDBDAAFDB05E0040EC5DB02E2050EF4
:101F0000D4DA030EDBB005D0A2DA01E07DD2080EF0
:101F1000DB6A090EDB6A110EDBCFE9FF120EDBCFA5
:101F2000EAFFEFCFDFFFDF5014E0D7DB12E2E4DBA4
:101F300003E1011C01E168D267DB01E3DB2A090E42
:101F4000DB2A110EDB2ADBCFE9FF120EE8E3DB2AE6
:101F5000E6D77DDA01E15ED257D2030EDB8E070EA3
:101F6000DB0410E195DB040E5ADB0A0EEECFDBFF3B
:101F70000B0EEECFDBFF0C0EEECFDBFF0D0EEECF28
:101F8000DBFF6CD0070EDB5003082CE1030EDBAE49
:101F90000DD0B2DA020E76DAEFCF00F0016A026AF3
:101FA000036A00AE39D00168026835D0F70EDBCF86
:101FB00001F0F80EDBCF02F0020E015E000E025AB5
:101FC000F70E01C0DBFFF80E02C0DBFF01C0E9FF26
:101FD00002C0EAFFEFCF00F00A0E00C0DBFF0B0EDD
:101FE000DB6A38D0070EDB50020809E1030EDBAED6
:101FF00004D059DB02AE10D00ED055DB0DD0030E4D
:10200000DBAE12D079DA020E3DDAF9DA026A036A3F
:1020100001AE02D002680368E2DA0C0E02C0DBFFF8
:102020000D0E03C0DBFF1AD0F70EDBCF02F0F80E67
:10203000DBCF03F0020E025E000E035AF70E02C061
:10204000DBFFF80E03C0DBFF02C0E9FF03C0EAFFBD
:10205000D6DAC5DA0C0EDB6A0D0EDB6A060EDB5033
:1020600005E1010EF36E050EF3CFDBFF150EDB6A03
:10207000160EDB6AD950370F006E000EDA20016EA3
:10208000390E00C0DBFF3A0E01C0DBFF380EDB6A01
:10209000080EDB6A0A0EAEDADF50780A12E0200A78
:1020A00010E0280A0CE0200A0AE03F0A06E00D0AC8
:1020B00002E0200A08E1020E05D0080E03D0080E47
:1020C000DF26100E97DA030EDBBE02D0DB92DB9424
:1020D000DB50800B24E08ADAD890030EEB50000A24
:1020E00008E6000EEE5C000EEE58000EEE58000EF4
:1020F000EE5815E213DA2B682C682D682E68E8EC90
:1021000033F00A0E22C0DBFF0B0E23C0DBFF0C0EE8
:1021100024C0DBFF0D0E25C0DBFF2D0E08D0030E03
:10212000DBA202D02B0E03D0DBA408D0200EF36E6E
:10213000170EF3CFDBFF150EDB2A02D0170EDB6A7A
:10214000050EDB5003E1B7D901E189D08A0E006E9C
:10215000690E016E000E026E070EDBCF03F0046AFB
:10216000056A066A03C02BF004C02CF005C02DF0F0
:1021700006C02EF0D3D94DEC34F000502224F36E7B
:1021800001502320F46E02502420F86EF4CFF7FFA4
:10219000F3CFF6FF0800090EF5CFDBFF580EDF5C2A
:1021A0000FE1610EF36E090E7BD90AE3200E006E7B
:1021B000090EDBCFE7FF0050E75E090EE7CFDBFF3C
:1021C000070EDBCF00F0016A026A036A0FDA00C073
:1021D0002BF001C02CF002C02DF003C02EF0EECF8A
:1021E00026F0EECF27F0EECF28F0EFCF29F04DEC20
:1021F00034F029C0EDFF28C0EDFF27C0EDFF26C059
:10220000EFFF390EDBCFE9FFDB063A0EDBCFEAFF4B
:1022100001E2DB06090EDBCFEFFF150EDB2A4BD9FF
:1022200095E1030EDBA61DD06F0EDF5C06E1C1D980
:1022300018E3150EDB285BDA14D0780EDF5C09E0BA
:10224000580EDF5C06E0620EDF5C03E0420EDF5CEE
:1022500008E1020EF36E160EF3CFDBFF02D0150E6F
:10226000DB6A030EDB50100B0EE0040EDBCF00F038
:10227000050EDB50D880005406E2060EDB5003E169
:10228000040EDB5034DA95D90AE2050EDBCFE7FF06
:10229000150EDB50E75E050EE7CFDBFF02D0050E23
:1022A000DB6A040EDBCF00F0160E45D9D88000544F
:1022B00014E2160EDBCFE6FF150EDBCFE6FF040EB1
:1022C000DBCFE6FF050EDB50E552E75CE552D88038
:1022D000E754E552D880E7545FD9030EDB50010B79
:1022E0000BE1080EDB5008E0B2D801E08DD0080EFB
:1022F000DB50BED8080EDB6A170EDB5007E088D92A
:10230000170EF1D903E1011C01E17ED0160EDB505E
:1023100016E07ED9300EE66E9FD802E1011C74E013
:1023200077D9DFCFE6FFA6EC33F0E552E552E55270
:10233000F4CF01F00001F31C02E1011C65E0050E81
:10234000DBCF00F0160EDB50D880005409E2050EFA
:10235000DBCFE7FF160EDB50E75E050EE7CFDBFFB6
:10236000300EE66E050ECBD94FE1390EDB2ADBCFFE
:10237000E9FF3A0E01E3DB2ADBCFEAFF090EEFCFDC
:10238000DBFFDB500EE044D9090EADD902E1011CA0
:102390003BE0390EDB2ADBCFE9FF3A0EEDE3DB2A27
:1023A000EBD755D831E1160EDBCFE6FF080EC3D8C8
:1023B000E552E7245DD82ED0070EDB50030A1CE05F
:1023C000010A14E0030A07E07BD9DBCFEEFF020E1F
:1023D000DBCFEDFF1FD0F5D8056A03AE02D004684D
:1023E00005682CD8BCD805C0EEFF14D0EAD803BECF
:1023F000046824D8B4D80ED063D9DBCFEFFF0AD05D
:102400007BD905E1011C03E1F368F46810D0FCD826
:1024100001E3DB2A79D9A9EF0DF0010EDBCF00F043
:10242000020EDBCF01F000C0F3FF01C0F4FF3B0E52
:10243000E15C02E2E16AE552E16ECBD029D9020EFD
:102440000FEF13F061D90800F550DF6E1200200E77
:10245000E66E080E7FEF13F0A6EC33F0E552E5527E
:10246000E552F3CF00F0F4CF01F00001F31C1200AD
:10247000006E016AD950010F4DD90050EE2601506F
:10248000ED221200045E000E055AF70E04C0DBFFB9
:10249000F80E05C0DBFF04C0E9FF05C0EAFF12002B
:1024A000DBCFF4FFF350F45C1200DB50E76E040E58
:1024B000E7CFDBFF12000A0EDBCF00F00B0EDBCF05
:1024C00001F00C0EDBCF02F00D0EDBCF03F000505D
:1024D0000110021003101200130EEECFDBFF140EDA
:1024E000EDCFDBFF130EDBCF00F0140EDBCF01F0DE
:1024F0000001800E01141200F70EDBCF04F0F80E7D
:10250000DBCF05F01200050EDB50E66ED950130F3D
:1025100001D9E552E750EE6EED6A12000A0EDBCFEC
:1025200026F00B0EDBCF27F00C0EDBCF28F00D0EC4
:10253000DBCF29F01200DBCFE6FF150EDBCFE6FF85
:10254000050EDB50E552E724E552E7241200DB508C
:10255000CED8010EF36E060EF3CFDBFF1200EE5065
:10256000EFCFEAFFE96E02C0EEFF03C0EEFF04C04A
:10257000EEFF1200D9CFE6FFDACFE6FFE1CFD9FFB9
:10258000E2CFDAFF1200DFCFE6FFE66A87EC34F035
:10259000E552E552F3501200E76E080EE7CFDBFF7D
:1025A0001200EECF00F0EECF01F0EFCF02F0036AA1
:1025B0001200050EDBCF00F0150EDB50D880005462
:1025C0001200010EDBCF02F0020EDBCF03F0046A33
:1025D0001200E552E5CFDAFFE7CFD9FF12000A0E6D
:1025E00000C0DBFF0B0E01C0DBFF1200D9500A0F49
:1025F0008AEF13F0F36E070EF3CFDBFF1200EECF7E
:1026000000F0EFCF01F01200010EDB2A020E1200E3
:10261000FC0EDBCFE6FFFD0EDBCFE6FF1200005E17
:10262000000E015AF70E00C0DBFFF80E01C0DBFF01
:1026300000C0E9FF01C0EAFF1200DA20EA6EEF2ACB
:10264000EECFF6FF000EEF22EECFF7FFEF22EECF38
:10265000F8FF1200040EDBCFE6FF130EDB50E5524D
:10266000E75C9ADFDB5004DF060EDB501200090E38
:10267000DB500A0DF350DF24D00FE76E090EE7CFD1
:10268000DBFF22EF12F0DB50F36E050E50EF12F07D
:10269000F70EDBCF00F0F80EDBCF01F01200DFCF3A
:1026A000E6FF2CEF12F028DF030EECDED1EF12F084
:1026B0007EEC0DF0E552E552E552E55200091200BC
:1026C000BDDEEE50EFCFEAFFE96E010E1200130EF1
:1026D000DB50F36E040E50EF12F0040EDB50F36E7D
:1026E000090E50EF12F0DBCFE6FF2CEF12F0E76E91
:1026F000050EE7CFDBFF12008BDF4FEF13F0DBCFD0
:10270000E6FF86DF58EF13F0D950F90FE96EFF0EA0
:0E2710001DEF13F0E96E000EDA20EA6E1200E3
:02271E001200A7
:102720000601CC6B1200050ECFEC18F00601020E6C
:10273000646F540E7DEC19F0020ECFEF18F0060115
:10274000000E646F540E7DEC19F00601010ECD6F82
:10275000120086EC18F0030EE1260601FC055BE191
:10276000450E0601055D57E0410E055D54E0610E22
:10277000055D51E0500E055D4EE0020E05C6DBFF23
:10278000060EE66E060EE66E800EE66E000EDEECBF
:1027900018F0100EE66EE66A700EE66E000EE66E3B
:1027A00037EC19F094EC18F0DE6ADD6ADECF00F049
:1027B000DDCF01F0D890015002E6FFEC18F00BE2FB
:1027C0007FEC18F037EC19F01CEC18F0DF2A010E42
:1027D000EDE3DB2AEBD725EC19F07EEC2BF064EC73
:1027E00018F025EC19F037EC19F01CEC18F0F80E85
:1027F000006E530E1AEC19F0020EDBCF07F6080E2E
:10280000E66E060EE66E54EC19F025EC19F03BEC82
:102810001FF0D4EC18F05CEC19F05FEC19F03FEC11
:1028200019F01CEC18F054EC19F080EC19F090EC55
:102830001FF0E552E552BBEC18F0030EE15C02E23A
:10284000E16AE5524CEF18F086EC18F0050EE1262F
:10285000D650016E006A030E00C0DBFF040E01C0FB
:10286000DBFFD7509CEC18F0DF6A080EDF5C0BE250
:10287000DF50EA6AEB0FE96E000EEA22EF509CECA3
:1028800018F0DF2AF2D7030EDBCFE6FF040EDBCF12
:10289000E6FFD2EC31F0E552E552DF6A160EDF5C5E
:1028A0000CE2D2DBDF50EA6ACE0FE96E060EEA22B6
:1028B000E552E750EF6EDF2AF1D70601E46B090E0F
:1028C000A8EC18F0600EE66E000EE66EADEC18F0A7
:1028D0002AEC19F0ADEC18F0160EE66EE66AD9ECAB
:1028E00018F09EEC30F0026E0A0EE15E0250060116
:1028F000ED0E646F530E7DEC19F0D9EC18F09EECE0
:102900001AF0C3EC18F0EDDB90EC1FF0E552E55245
:10291000C3EC18F0080EA8EC18F0ADEC18F09EEC23
:102920001AF0BBEC18F0050EE15C02E2E16AE55238
:10293000B3D36FEC19F0E40E006E530E1AEC19F0DD
:10294000CBEC18F007018251E66EE66A80C7E6FF1D
:1029500081C7E6FF54EC19F007018B51E66EE66A79
:10296000D70E006E530E1ADB0D0EE15E035013DB23
:1029700007018351040A0CE0060A06E0030A0CE191
:10298000CD0E006E530E0BD0C50E006E530E07D049
:10299000BF0E006E530E03D0B60E006E530E17EC32
:1029A00019F007018451040A12E0070A0CE0020A38
:1029B00006E0010A11E1AC0E006E530E10D0A30E1A
:1029C000006E530E0CD09C0E006E530E08D08F0E6E
:1029D000006E530E17EC19F08D0E006E530E17ECAF
:1029E00019F087DB4D080AE18CC7E6FF8DC7E6FFCB
:1029F000890E006E530E4FEC19F006D062EC19F000
:102A0000890E066E530E02DBC6DA73DB4D080AE14F
:102A10008EC7E6FF8FC7E6FF860E006E530E4FECA3
:102A200019F009D08EC728F08FC729F0BDDA860EBD
:102A3000066E530EEBDAAFDA8CDE020EE15C02E2D8
:102A4000E16AE55229D37F0E006E530EF3DB25ECCD
:102A500019F0B3C7E6FFB4C7E6FFB5C7E6FFB6C7D0
:102A6000E6FFB2EC2DF0A0DB96DA8D0E006E530E71
:102A7000DEDBEBDBB7C7E6FFB8C7E6FFB9C7E6FFAB
:102A8000BAC7E6FFB2EC2DF08FDB59EF19F03EDB51
:102A9000090EE1260701A55106E1A65104E1A7515F
:102AA00002E1A85174E0780E006E530EC3DBDF6ABA
:102AB000040EDF5C5CE287DB000853E2DF50EA6A69
:102AC000A90FE96E070EEA22EFCF04F004C029F047
:102AD0009BEC21F027C000F028C001F029C002F0D3
:102AE0002AC003F0560E2C6E0E0E2D6E8D0E2E6E1D
:102AF0003E0E2F6EDCEC21F043EC23F0010E26C0DD
:102B0000DBFF020E27C0DBFF030E28C0DBFF040E35
:102B100029C0DBFFC6DA050E26C0DBFF060E27C084
:102B2000DBFFBFDA070E22C0DBFF080E23C0DBFF8E
:102B30004ADBD80FE66EE66A070EDBCFE6FF080E2B
:102B4000DBCFE6FF050EDBCFE6FF060EDBCFE6FFB1
:102B50006E0E006E530E22DA0B0EE15E03501BDA8E
:102B600004D0690E006E530E62DBDF2AA1D7A4DB0E
:102B7000E552E552F3CFE9FFF4CFEAFFE906000E94
:102B8000EA5A000EE926060EEA22EF6AE2DD090E95
:102B9000E15C02E2E16AE5527FD2620E006E530E02
:102BA00049DB000EE66EE66A900EE66E070EE66EF4
:102BB000560E006E530EF2D9090EE15E035079D322
:102BC0004F0E006E530E36DB07018A51E66EE66A41
:102BD000AFC7E6FFB0C7E6FFB1C7E6FFB2C7E6FF83
:102BE000ADC7E6FFAEC7E6FF0701A451E66EE66A91
:102BF0000701A351E66EE66A0701A251E66EE66A96
:102C000007018951E66EE66A07018851E66EE66AB9
:102C100007018751E66EE66A330E006E530EBED989
:102C2000190EE15E035045D371DA060EE126FD0E62
:102C3000DBCFDEFFDBCFDDFF5CDA08E05ADA20080D
:102C400005E0DF2A010EF8E3DB2AF6D752DA200886
:102C500001E09AD0DFCFE9FFDF2A010EDBCFEAFFE8
:102C600001E3DB2AEF6AE1D9A4DAB5DA01E18CD01D
:102C7000090E2FDA600EE66E000EB5D9D6D9FFD94F
:102C8000D4D972DA3DDB2DDA3BEC1FF08DDA38DB7C
:102C90000BDBA1DA01E078D0C8D9000EE66E060E93
:102CA0008DDA87DABFDA600EE66E000E9CD928DB7B
:102CB000E6D926DB59DA15DAEADA36DAA5DA2BDADA
:102CC00001E69DDA09E21BDAE2DAB6D9040EDB2A64
:102CD000050EF5E3DB2AF3D704DAD1DA25DA94DA44
:102CE0001ADA01E68CDA09E20ADAC9DAA5D9040EA1
:102CF000DB2A050EF5E3DB2AF3D70601010ECC6FC4
:102D00000A0EE7D9020EDBCFE9FF030EDBCFEAFFA5
:102D1000EF50500837E10601FC511EE175DAFBD98E
:102D200004E6160E005C000E015814E28DD9040E64
:102D3000DBCFE9FF050EDBCFEAFFE50EE926060E45
:102D4000EA22E552E750EF6E040EDB2A050EE7E3B8
:102D5000DB2AE5D70601FB6BFC6B2B0E006E530ED6
:102D600069DA57DA5FDADFDC59DA0601010EFC6F47
:102D7000B0D9700EE66E000E36D94BDA80D949DA3A
:102D8000F3D902D00601FC6B060EE15C02E2E16AB7
:102D9000E55282D1A4DA0601CC511EE1070EE66E9F
:102DA000E66A230E006E530E48DA3FD919DA5FE166
:102DB000070EE76EFD0EDBCF00F0FE0EDBCF01F05D
:102DC000E7500026000E012200C0E6FF01C0E6FF2A
:102DD0002BDFE552E5524BD0F50E006E530E2DDA87
:102DE00024D906D98DDA21D9F7EC1FF0E552E55246
:102DF00066DA4DDA21D9050EE66EE66A1D0E006E22
:102E0000530EC6D8EDD933E1D950FD0FE96EDACFB4
:102E1000EAFF050EEE6E060EED6EEAD9EF505A0A85
:102E20000CE01B0A24E1160E006E530E03DA0601B5
:102E3000CD511DE178DC8DDC16D0010EE76ED8D9BE
:102E4000E750E926000EEA22EF5030080EE00701B5
:102E5000010EBD6F0601CD510AE165DC6ADDF3DDCF
:102E600016DE9BDEADDE6BDC02D00701BD6B020E11
:102E7000E15C02E2E16AE5520FD148D90601CC518A
:102E800024E0CD51000821E3020E3FDA030E006E6C
:102E9000530ECDD9CAD8C6D9FA0E006E520EC7D974
:102EA000460EE76EFB0EDBCFE9FFFC0EDBCFEAFF41
:102EB000E750E926000EEA22EF6AFB0EDBCFE6FFC1
:102EC000FC0EDBCFE6FFAED9A9D9E552E7CFD9FF9B
:102ED000120005DA1ADA07018451040A12E0070A1F
:102EE0000CE0020A06E0010A10E1EE0E006E520E3E
:102EF0000BD0E30E006E520E07D0DA0E006E520EAB
:102F000003D0CB0E006E520E92D907018351040AF2
:102F10000CE0060A06E0030A0CE1C20E006E520E37
:102F20000BD0AC0E006E520E07D09E0E006E520EED
:102F300003D08D0E006E520E7AD97E0E006E520EA8
:102F400076D929D9D6D84D0809E18CC7E6FF8DC7B7
:102F5000E6FF780E006E520EA2D905D0B3D9720EDC
:102F6000066E520E53D817D86B0E006E520E5FD9F4
:102F700007018B51E66EE66A660E006E520E8FD91F
:102F80000AD84CD9020EE15C02E2E16AE55284D033
:102F900054D980EF19F059D912EF19F04ED955D9FB
:102FA00073EC32F0036E1200ACEC21F027C002F09B
:102FB00028C003F029C004F02AC005F0B60E2C6E1C
:102FC000F30E2D6ECD0E2E6E3F0E2F6E2FEC22F0D7
:102FD00014EC23F028C000F029C001F028C0E6FF5F
:102FE00029C0E6FF1200E66E73D934D968EF19F0F4
:102FF00008EC2BF0036E050EE15E0350120065EC49
:103000002BF0036E050EE15E03501200076E086A96
:1030100006C0E6FFE66E08C0E6FF17D973EC32F093
:10302000096E070EE15E09501200FD0EDBCFE6FFD0
:10303000FE0EDBCFE6FF1200E66ED6EC2CF0006E43
:10304000080EE15E00501200D9EC31F0F3CFF6FF2C
:10305000F4CFF7FF400E2D6E2E6AF6CF28F0F7CF93
:1030600029F09CEC22F024C0F6FF25C0F7FF300EBB
:10307000F626660EF7220800F550E66E12007EEC8A
:103080002BF0E552E552F3CF02F0F4CF03F0F3CF8B
:10309000E6FFF4CFE6FF1200E16EE552E7CFD9FF7D
:1030A0001200010EDBCF26F0020EDBCF27F0030E5D
:1030B000DBCF28F0040EDBCF29F00A0E2B6E2C6A32
:1030C0002D6A2E6AC2EF22F0E552E5520CD954EF78
:1030D00019F00ED9020EF3CFDBFF030EF4CFDBFFA6
:1030E0001200100EE66EE66A600EE66E000EE66EE8
:1030F0001200DECFE9FFDDCFEAFFEF50120006013C
:10310000006B010EE66EE66A80EF19F0D9CFE6FF9C
:10311000E1CFD9FF1200040EDBCF00F0050EDBCFAC
:1031200001F0D89001501200E66E2DEC2CF0006EEC
:10313000080EE15E00501200006E016AD950030FC4
:10314000E96EDACFEAFF0050EE260150ED221200C0
:10315000CFD8DE52C8D8DD521200010EDBCFE6FF19
:10316000020EDBCFE6FF12009EEC30F0046E0A0E7A
:10317000E15E04501200E552E5520601F50E646F5F
:10318000530E7DEF19F0E552E5520601EB0E646F28
:10319000530E7DEF19F0020EABD873EF19F0E66E07
:1031A00087EC2DF0E5521200006E060EE15E005035
:1031B0001200CE0EE66E060EE66E1200E66E44ECCF
:1031C0002BF08DEF19F0DF50EA6AA50FE96E070EBC
:1031D000EA22EF50120024EC2BF09FD800091200D5
:1031E00080EC2AF0036E070EE15E03500009120026
:1031F000FD0EDBCFE9FFFE0EDBCFEAFF1200000E73
:10320000005C040E01581200040EDB6A050EDB6A36
:103210001200E50EE66E060EE66E1200A9EC13F043
:103220009FEF13F06DD8E4EC2AF08DEF19F0B0DECB
:10323000F8EF17F0ADDEFFEF17F0016E026A00C085
:10324000E6FFE66E02C0E6FF1200800EE66E000E9C
:10325000E66E12007EEC2BF0E552E552F3CF00F063
:10326000F4CF01F0F3CFE6FFF4CFE6FF1200000E3B
:10327000E66E030EE66EE80EE66E000E1200000E1D
:10328000E66E010EE66EE40EE66E000E1200000E13
:10329000E66E020EE66EE60EE66E000E12007EDEB2
:1032A000070EE15E03501200DECFE6FFDDCFE6FF42
:1032B000120071DEA9EF13F023D87EEF2BF004DFAC
:1032C00080EF19F08CC728F08DC729F0D4EF17F0E4
:1032D000020EDBCFE6FF030EDBCFE6FF120016DFA8
:1032E000020EE1261200F3CFDEFFF4CFDDFF120065
:1032F000E66ED8EC2EF0E5521200656F8DEF1AF0F5
:10330000000EE66E060EE66E120049DF93EC13F037
:103310000E0E006E530E1AEF19F0E552E552E5520B
:04332000E552120060
:0C332400D8CFE4FFE0CFE4FFE46EDACF86
:10333000E4FFE2CFDAFFE9CFE4FFEACFE4FFF6CF24
:10334000E4FFF7CFE4FFF5CFE4FFF3CFE4FFF4CFE2
:10335000E4FFFACFE4FF00EE20F0140EE80403E3EC
:10336000EECFE4FFFBD700EE00F0200EE80403E30D
:10337000EECFE4FFFBD7E65231EC30F0E55200EE41
:103380001FF0200EE80403E3E5CFEDFFFBD700EECE
:1033900033F0140EE80403E3E5CFEDFFFBD7E5CFF0
:1033A000FAFFE5CFF4FFE5CFF3FFE5CFF5FFE5CF7B
:1033B000F7FFE5CFF6FFE5CFEAFFE5CFE9FFE5CF81
:1033C000DAFFE550E5CFE0FFE5CFD8FF10000501BB
:1033D000009B1200ACEC1EF0E652D9CFE6FFDACF2C
:1033E000E6FF07EC30F0E552E552000901E192D02A
:1033F000FE0E0401F85D03E0FF0EF85D72E10D0EB4
:10340000DF5CEBE0E0EC1EF001E1F7073A0EDF5C79
:1034100022E1060EF75D1FE32B0E0601665D1BE140
:10342000490E675D18E1500E685D15E1440E695D57
:1034300012E10401F70582EC1EF0EF6A6B0EE66EF6
:10344000060EE66E5DEC31F0E552E552F3CFF8F48E
:103450000401F76BC2D70A0EDF5CBFE10401F70776
:10346000F75182EC1EF0EF6A040EF75D37E32B0E86
:103470000601665D33E1430E675D30E14D0E685D28
:103480002DE1540E695D2AE1070EDF6EDF50DF2A61
:1034900082EC1EF0EF50220804E00401F751DF5CDB
:1034A000F5E3DF0482EC1EF0EF6A0401E36B140E17
:1034B000E66EE66A6D0EE66E060EE66EE30EE66EEC
:1034C000040EE66EB7EC2BF0006E060EE15E0050C7
:1034D0000401F66BF76BFE0EF86F7FD710D904016D
:1034E00016D00D0EDF5C04E0E0EC1EF001E1F70702
:1034F000F8070A0EDF5C08E1F707F75182EC1EF0CF
:10350000EF6AFDD80401F76BF85101E066D7F76B5D
:10351000F86963D7E552B1EF1EF0050100B1FDD7A0
:10352000C2EC1EF0E66EE0EC2FF0E5520601642BD3
:10353000000E6523C2EC1EF0F0E11200ACEC1EF0B0
:10354000050100B1FDD7FD0EDBCFE9FFFE0EDBCF9D
:10355000EAFFEF50E66EE0EC2FF0E552FD0EDB2ABD
:10356000DBCFE9FFFE0E01E3DB2ADBCFEAFFEF5002
:10357000E7E1B1EF1EF0ACEC1EF0050100B1FDD7A4
:10358000FE0EDBCFE6FFE0EC2FF0E552EAD3E4DB02
:10359000040EE126030EE66ED7DB620E026E520EBB
:1035A0008CDB03E00601010EFF6F5F0E026E520E10
:1035B00084DB03E00601010ECA6F040EE15C02E247
:1035C000E16AE552E16ECDD30601010ECB6F120028
:1035D000C3DB020EE126FE0EDBCFD8F40401D85186
:1035E000210A6FE0010A5AE0600A38E0500A2AE036
:1035F000130A19E0010A11E0030A01E079D0818081
:10360000100EDC6F1E0EDD6FDE6B010ED96F070131
:10361000BD6BC5DB8FEC13F06BD08180A6DBADDB1F
:103620000401DC6B65D0020EDC6FDD6FDE6BA5DBA9
:10363000010EB5DB0401D96B0701BD6B90EC13F0F3
:10364000819056D0030EDC6F230EDD6FDE6B8DDBB9
:1036500094DB0601400E646F680E48D059DB85DBB1
:10366000050EE66E71DBDECFE9FFDDCFEAFFEF503E
:1036700012E00401020EDC6F3C0EDD6FDE6BD96BD5
:103680000701BD6B90EC13F0020E4DDB0601530EEB
:10369000646F520E2BD00401200ED86F0601CD6B43
:1036A0000401DC6BD96B0701BB0507E0050EBB5DB0
:1036B00004E0780E0401E16F02D00401E16BE26BDB
:1036C00017D0020E30DB0401030EDC6FD96BD9C4B6
:1036D000E6FFA2EC2DF0E552F00E0401DD6FDE6B8B
:1036E00090EC13F00601790E646F680E656F15DFBC
:1036F000020EE15C02E2E16AE552E16E32D3FE0EB7
:103700000401F85D16E10701BB0505E0050EBB5D90
:1037100002E00401FDDAF7C4E6FF60DBE30EE66ECB
:10372000040EE66E16EC27F0006E050EE15E00500A
:103730001200FF0EF85D06E051DBCAEC16F0E55210
:10374000E5521200D851200A01E1C5D0600A30E0EC
:10375000610A12E0310A01E01200020EF75D01E297
:1037600088D14F0E0601665D01E083D14B0E675D87
:1037700001E07FD1210E2CD0020EF75D09E34F0E40
:103780000601665D05E14B0E675D02E1400E20D04B
:10379000050E0401F75D01E26CD1450E0601665D80
:1037A00001E067D1520E675D01E063D1020E10D0D7
:1037B000020EF75D0FE3450E0601665D0BE1520E4A
:1037C000675D08E1050E0401D95D04E1CEDA030E60
:1037D000D4EF1EF0020E0401F75D07E34F0E060161
:1037E000665D03E14B0E675D0BE0530E0601665DFF
:1037F00003E1480E675D04E0050E0401D95D55E163
:103800000401F76B3C0EDD6FDE6B0701BC6B010E34
:103810008ADA0401D92BD951080A45E00F0A37E0AA
:10382000010A30E0030A29E0010A22E0070A1BE04E
:10383000010A0AE0030A01E0120006013F0E646F6C
:10384000520E98DA050E0AD00601320E646F520E3F
:1038500091DA050EBDDA060EBBDA070E1DDA3C0E54
:10386000646F520E1ED00601240E646F520E19D0E2
:103870000601160E646F520E14D006010C0E646F12
:10388000520E0FD00601F40E646F510E0AD00601DD
:10389000E00E646F510E6EDA040EFED9D60E646F20
:1038A000510EBAEF1EF0200E8DD0070EF75D08E323
:1038B000080EE66EE66ACD0E006E510EDFD909E005
:1038C0000B0EE66EE66AC10E006E510ED7D901E00E
:1038D000D0D0020E77D0050EE66EE66ABB0E006E03
:1038E000510ECCD922E12C0E06016E5D03E1070ECC
:1038F0006F1502D0070E6D150701BB6FE80403E0DA
:10390000050EBB5D06E10401E16BE26B010EE66EA4
:1039100009D00401E151E21101E0ABD0780EE16F72
:10392000E26BE66AA2EC2DF04FD0050EE66EE66A79
:10393000B50E006E510EA2D911E10701BB0505E0DD
:10394000050EBB5D02E00401E3D9010EECD90601CE
:10395000740E646F680E0EDAC7EF1AF00A0EE66E88
:10396000E66AAA0E006E510E89D904E10701BC5126
:103970001AE113D0070EE66EE66AA20E006E510E33
:103980007DD924E1110EE66EE66A900E006E510EAE
:1039900075D90DE10701BC5106E193EC13F024EC5D
:1039A00014F09FEC13F00701010EBC6F1200070129
:1039B000BC6B0701BB0503E0050EBB5D5AE190EC53
:1039C00013F0400EE66E04DEE5521200070EE66EBE
:1039D000E66A880E006E510E51D903E10601CD6BE7
:1039E0001200090EE66EE66A7E0E006E510E46D992
:1039F0003CE0060EE66EE66A770E046E510E056E2A
:103A0000066A04C0E6FFE66E06C0E6FFD6D9076E7A
:103A1000070EE15E0750000928E00A0EE66EE66A2E
:103A20006C0E086E510E096E0A6A08C0E6FFE66E5B
:103A30000AC0E6FFC2D90B6E070EE15E0B5000090B
:103A400014E00B0EE66EE66AC10E0C6E510E0D6EA2
:103A50000E6A0CC0E6FFE66E0EC0E6FFAED90F6E32
:103A6000070EE15E0F50000904E190EC13F0400EE8
:103A70009BD9120071D9020EE1260401D851200A07
:103A80002CE0220A28E0230A18E0310A06E0110A95
:103A90006FE1010ED919D96F1AD00A0EDD1968E14C
:103AA000DE5166E1140EDD1963E1DE5161E10601CC
:103AB000400E646F680E5ED95BD0010ED919D96FC4
:103AC000E66EA2EC2DF0E552010E0401D919E66E66
:103AD000AAEC2DF034D0010E0DD0000ED880E155A7
:103AE000000EE2550AE2E107000EE25BE151E2114D
:103AF00004E1210EE66E6CDD22D00701BB0503E078
:103B0000050EBB5D35E10601CA050AE10601CC05DB
:103B100007E10601CA6B0A0E06D969EC17F028D036
:103B20000601FF050EE1FF6B0A0EFDD8E66A0CD90F
:103B3000DECFE6FFDDCFE6FF0CEC27F0E552E552E5
:103B400017D00601CB0514E10601CC0511E10701F0
:103B5000BD5100080DE20601CD510AE10601CB6B13
:103B60000A0EE1D893EC13F0E0EC15F09FEC13F0A3
:103B7000020EE15C02E2E16AE552E16EF2D004017C
:103B8000D851200A01E012000601CD51000801E2DF
:103B900000D10701BC0505E10701BD51000801E2A4
:103BA000C7D8010E0401D919D96F020EBCD806017D
:103BB000840E646F680EBAEF1EF012000401D85133
:103BC000200A01E012000701BC0509E10701BD510F
:103BD00006E10601CD51000801E2DBD0A9D81200B0
:103BE0000401DF2B000EE023DC5100080FE2DDC4EE
:103BF00000F0DEC401F0DD07000EDE5B00500110B6
:103C000005E1DCC4E6FFE4DCE55201D033DFD0D8C7
:103C10003C0E2D6E2E6A69D801E1B1DFC9D82C0E99
:103C20002D6E010E2E6E61D801E1C7DFC1D8580E8E
:103C30002D6E020E2E6E59D806E1C0DF580E04011B
:103C4000DF5F020EE05B1200200E0401D85D0AE186
:103C50000701BC0507E1010ED75C03E2010ECFEFBF
:103C60001EF083D81200800E946E8180C4EC2FF079
:103C700084D80701BB6B010ED4EF1EF0016E026AFF
:103C800000C0E6FFE66E02C0E6FF97D8036E070E9F
:103C9000E15E035000091200E66ED8EC2EF0E5520A
:103CA000F3CF00F0F4CF01F0F3CFE6FFF4CFE6FF5F
:103CB00045DCE552E55206011200036E046A02C0BB
:103CC000E6FFE66E04C0E6FFDECFE6FFDDCFE6FFEF
:103CD000E5EC2BF0056E050EE15E0550F3CF00F02C
:103CE000F4CF01F0F350F4101200DFC428F0E0C468
:103CF00029F071EC34F024C000F025C001F024500C
:103D000025101200EA6A660FE96E060EEA2212001A
:103D1000E16BE26B0701050EBB6F010EE66EA2ECD4
:103D20002DF0E5521200E66E87EC2DF0E552120000
:103D300093EC13F099EC14F023EC15F047EC15F02C
:103D4000E0EC15F09FEF13F0D8EC2EF0E552F3CF36
:103D5000DEFFF4CFDDFF1200D9CFE6FFE1CFD9FFC0
:103D60001200E552E7CFD9FF1200E66AAAEC2DF067
:103D7000E5521200656F8DEF1AF0E66AA2EC2DF0A5
:103D8000E552120064C6F6FF65C6F7FF0800F5505D
:103D90001200050E0401DF5F000EE05B1200E66E0C
:103DA000AAEC2DF0E5521200E66E12DCE55212008C
:103DB000DFC400F0E0C401F0120010D880EF2AF058
:103DC000F751F72B9FDFDFCFEFFF640EF75D120097
:103DD00063DF2E0E646F520EBAEF1EF0660EE66EB3
:063DE000060EE66E120063
:0A3DE6006EDACED9E840E8403F0B4A
:103DF000E5D91BDA010EAFD9EF50F00BE8380F0B05
:103E0000006EC1D9030B100DF3500010D7D9E66E28
:103E1000010EA8D929DA1BE200500108000E015456
:103E200016E2060E036E53DAC00B03C0E7FFE7523B
:103E300004E0E8427F0BE706FCE1026E010E8BD93D
:103E4000EF500F0B040DF3500210B8D901D03D0E06
:103E5000E66E020E87D908DA09E200500208000E69
:103E6000015404E234DA3F0BA9D901D03D0EE66ECD
:103E7000030E78D9ECD1CFD9A9D921E28DD901E3AC
:103E8000DB2AC0D916E1ED5014E1030EE66EE66AB6
:103E900071D9B4D901E6DFD90AE278D9EDD901E3C5
:103EA000DB2A19DADF2A010EF4E3DB2AF2D7DE6A15
:103EB000DD6A020EDB2A030EDFE3DB2ADDD731DA0F
:103EC000013420E200500008000E01541BE2B1D979
:103ED000C7D904E6030E005C000E015804E282D943
:103EE000F7E3DB2AF5D702DA89D901E6B4D90AE289
:103EF0004DD9C2D901E3DB2AEED9DF2A010EF4E362
:103F0000DB2AF2D7F90EDBCFE9FFFA0EDBCFEAFFAF
:103F1000EF6A040EE15C02E2E16AE552E16E97D1DC
:103F20007AD954D91BE238D901E3DB2A6BD910E1E5
:103F3000ED500EE1030EE66EE66A1CD95FD901E68C
:103F40008AD904E2CCD9FAE3DB2AF8D7DE6ADD6A43
:103F5000020EDB2A030EE5E3DB2AE3D7E2D90134C4
:103F60001AE200500008000E015415E262D978D917
:103F700004E6030E005C000E015804E233D9F7E3B7
:103F8000DB2AF5D7B3D93AD901E665D904E2A7D936
:103F9000FAE3DB2AF8D7040EE15C02E2E16AE552BB
:103FA000E16E55D18FD9010ED6D8EF380F0B006EC8
:103FB000EAD8040DF350001038D989D9E840E84018
:103FC0003F0B006E010EC7D8EF38F00B0010E66E05
:103FD000010EC8D8030EBFD8EFCF00F078D9400D3E
:103FE000F350C00B0010E66E020EBCD830D16AD977
:103FF000070EE126050EDB6A060EDB6AC4D801E176
:1040000097D0030EDB6A040EDB6A010EDB6A020E38
:10401000DB6A3AD9D890015001E61DD94AE2B3D8FB
:1040200048E0DF6AB0D82FE0DF502DE1FD0EDBCF96
:10403000E9FFDB2AFE0EDBCFEAFF01E3DB2AEFCF4D
:10404000DFFF2B0EDF5C05E3DF507A0802E3000E92
:1040500001D0010E000902E0000E09D02B0EDF5C3A
:10406000F76A710FF66E660EF7220800F550DF6EE4
:10407000DF50D8E0240EDF5C02E1000E02D03D0EDE
:10408000DF5CDF6ECFD77FD80CE0030EDB2A040E97
:1040900001E3DB2ADF5007E0DF04E66ED5D81BD949
:1040A00002D0D2D8EF6A010EDB2A020EB2E3DB2A7D
:1040B000B0D7D950030FE96EDACFEAFFEE50ED101A
:1040C0009DE0F7D86FDFE552E552E552E552010E6B
:1040D000DB6A020EDB6AD8D8030EDBCF02F0040ED7
:1040E000DBCF03F00206000E035A01500318E8AEBE
:1040F00002D0033404D00250005C0350015801E3A5
:104100007DD701D9F9D8FB0EDBCFE9FFDB2AFC0E06
:10411000DBCFEAFF01E3DB2ADED8050EDB2A060E41
:1041200001E3DB2A010EDB2A020ED5E3DB2AD3D71B
:10413000B2D8EF6A050EDBCF00F0060EDBCF01F040
:1041400000C0F3FF01C0F4FF070EE15C02E2E16A88
:10415000E552E16E7CD0E76EDDD8E750E926000E2F
:10416000EA221200E76E97D8E750E926000EEA220D
:104170006BEF21F09ED837DE006E060EE15E005038
:10418000DE6ADD6A1200C6D8EF501200DECFE9FF0A
:10419000DDCFEAFF7CEF21F085D8FD0EDB50002457
:1041A000E96EFE0EDB500120EA6EEF50E66EDFCFC7
:1041B000E9FFDF2A010EDBCFEAFF1200F76A300FBA
:1041C000F66E660EF7220800F55012006BD8FB0E53
:1041D000DBCF02F0FC0EDBCF03F00250005C03509B
:1041E00001581200020EDBCFE9FF030EDBCFEAFF1E
:1041F0009DD8EF6A020EDB2A030E120092D8D890E7
:104200000150120093D867D8D9CFE9FFDACFEAFF7F
:10421000030EEE18120056D8040EE126DE6ADD6A9F
:10422000020EDB6A030EDB6A1200E66E34D86BEF17
:1042300021F0D9CFE9FFDACFEAFF020EEECFDBFFA4
:10424000030EEDCFDBFF12005ED896EF21F0E552B2
:10425000E7CFD9FF1200040E005C000E01581200D7
:1042600021D8D89001501200F90EDBCF00F0FA0EE1
:10427000DBCF01F001341200F90EDBCFE9FFDB2ABE
:10428000FA0EDBCFEAFF1200010EDBCF00F0020EC8
:10429000DBCF01F01200FB0EDBCFE9FFFC0EDBCF22
:1042A000EAFF1200020EDBCF00F0030EDBCF01F0BD
:1042B0001200EB0EE66E050EE66EE70EE66E050EDC
:1042C000E66E1200D9CFE6FFE1CFD9FF1200020E51
:1042D00042DFEF501200E552E750EF6E120056DF5A
:1042E000BBEC1AF0E552DF2A010E1200DECFE6FF2A
:1042F000DDCFE6FFBAEF20F0EB0EE926050EEA224D
:10430000EF50E66E1200010EDBCFE9FF020EDBCFAD
:10431000EAFF1200FD0EDBCFE9FFFE0EDBCFEAFF66
:104320001200DECF00F0DDCF01F01200E70EE9262B
:06433000050EEA22120056
:0A433600219E05D0219E29AE02D081
:10434000296C218E29C023F0226A336A326A860ED4
:10435000246E256A96EF23F0219E08D0219E29AE77
:1043600005D0286C291EE86A2922218E29C023F055
:1043700028C022F0336A326A8E0E246E256A96EFC8
:1043800023F0219E0CD0219E29AE09D0266C271E39
:10439000281E291EE86A272228222922218E29C0C8
:1043A00023F028C022F027C033F026C032F09E0E42
:1043B000246E256A96EF23F0216AD2EC23F0EAEC12
:1043C00023F021B67AEF23F021A205D021BA7AEFAB
:1043D00023F081EF23F021BA8DEF23F021A005D047
:1043E00021B87AEF23F08DEF23F021B881EF23F08D
:1043F000256A7F0E2A24246EE86A25222F50245E27
:10440000E86A255A1A0E306E2A6A326A336A226ABC
:10441000236A2C50275E2D50285A2E50295A000E00
:104420002A5A09E72C5027262D5028222E502922BF
:10443000000E2A2201D0328AD89027362836293613
:104440002A36D8903236333622362336302EE1D70C
:10445000295028102710D8A4328A96EF23F0216A19
:10446000D2EC23F0EAEC23F021B67AEF23F021A27C
:1044700005D021B87AEF23F081EF23F021AA05D0EF
:1044800021B07AEF23F081EF23F021B002D021A8F0
:1044900002D08DEF23F0256A2F502A24246EE86A7B
:1044A00025227E0E245EE86A255A326A336A226A21
:1044B000236A2E502902F4CF23F0F3CF22F02D509F
:1044C0002902F3503326F4502222000E23222E50CC
:1044D0002802F3503326F4502222000E23222C50BF
:1044E0002902F3503226F4503322000E22222322D6
:1044F0002D502802F3503226F4503322000E22228F
:1045000023222E502702F3503226F4503322000E7D
:10451000222223222C502802F4503226000E33226D
:10452000222223222D502702F4503226000E33225D
:104530002222232296EF23F0206A2EAEA5EF22F04E
:104540002D6C2E1EE86A2E22201E29AEADEF22F021
:10455000286C291EE86A2922201E71EC34F029BE3D
:10456000BDEF22F020AE000C286C291EE86A29223B
:10457000246C251EE86A2522000C20BEB4EF22F030
:104580002188FF0C206AE86A2EAECFEF22F02B6C58
:104590002C1E2D1E2E1E2C222D222E22201E29AE38
:1045A000DAEF22F0266C271E281E291E2722282239
:1045B0002922201E4DEC34F029BEF1EF22F020AE6E
:1045C000000C266C271E281E291EE86A2722282296
:1045D0002922226C231E241E251E2322242225226A
:1045E000000C20BEE1EF22F02188FF0C28C032F041
:1045F00028502D02F4CF27F0F3CF26F029502E02B9
:10460000F4CF29F0F3CF28F02D02F3502726F450F1
:104610002822E86A292232502E02F3502726F4502D
:104620002822E86A2922000C216AD2EC23F021B664
:104630001EEF23F021A20ED021B405D07F0E296EEB
:10464000FF0E286E1FD0800E296E286A1BD0296AA3
:10465000286A18D021B0FBD78F0E2A60EDD77E0EC6
:104660002A64F5D78E0E2A5C05E0D89029322832CC
:104670002A2AF8D721A406D0286C291EE86A292204
:1046800029AEE5D71200216AD2EC23F021B64DEF16
:1046900023F021A20FD021B407D07F0E296EFF0E88
:1046A000286E276E266E25D0800E296E01D0296ACD
:1046B000000EF6D721B0FBD7266A9F0E2A60EBD7F3
:1046C0007E0E2A64F4D79E0E2A5C07E0D890293229
:1046D0002832273226322A2AF6D721A40AD0266C7D
:1046E000271E281E291EE86A27222822292229AEF1
:1046F000DED712007F0E2A6EFF0E296E286E276EFF
:1047000012007F0E21BEFF0E2A6E02D07F0E2A6E8F
:10471000800E296E286A276AF3D721AE04D0800E56
:104720002A6E296AF7D72A6A296AF4D723502210F9
:1047300033103210F8E025BEF0D723BE0CD0245041
:104740002510EBE0D8903236333622362336240655
:10475000D8A02506F2D72550D4E12428D2E032AEE5
:1047600011D07F0E321402E133A00CD0332AE86A54
:104770002222232207E3D880233222323332242A12
:104780002428BFE02450C9E033C027F022C028F01D
:104790002334296E24302A6E29322A9E21BE2A8E85
:1047A00080EF23F029362A3602E32184217E06E1B8
:1047B00021802A6A296A286A276A12002A2803E0C7
:1047C000D88029321200D890293202E121821200C9
:1047D000218612002E362F3602E3218C217E06E13F
:1047E00021882F6A2E6A2D6A2C6A12002F2803E076
:1047F000D8802E321200D8902E32EAE1218A12009F
:1048000029C033F028C032F028502D02F4CF27F011
:10481000F3CF26F029502E02F4CF29F0F3CF28F061
:104820002D02F3502726F4502822E86A292232501C
:104830002E02F3502726F4502822E86A29222EAEB1
:1048400026EF24F03250285E3350295A33AE000C44
:0A4850002D50285E2E50295A000C4E
:06485A00900E6F6E6EAEC1
:10486000FED7606A0F01A00E196F1869016B200E48
:10487000006F506BE00E1D6F1C69800E096F680E93
:10488000086F400E0D6F800E0C6F706AD20E716E45
:10489000020E726E200E736E600E6F6E12000F0E9F
:1048A00065140001EA6F66CFEBF067CFECF068CFDC
:1048B000EDF069CFEEF06ACFEFF06BCFF0F06CCF98
:1048C000F1F06DCFF2F0609EEB51A60A01E1E9D064
:1048D000030A01E1DDD0010A01E1D2D0070A01E1BA
:1048E000C8D0350A01E1A4D0030A01E194D01C0A22
:1048F00001E184D0010A01E17ED00C0A62E0070ADE
:1049000046E0020A2AE0010A0CE08E0A01E01200E9
:10491000EC510701895D02E0E4EC1AF0ECC089F784
:104920001200ECC08BF7EE51016AEEC001F0006A94
:10493000ED51070100248C6F000E01208D6F0001E6
:10494000F251016AF2C001F0006AF151070100243E
:104950008E6F000E01208F6F1200B1D902E0C9D90D
:10496000FEE194D902E0CCD9FEE199D902E0CFD999
:10497000FEE100500C240401F96F01500D20FA6F84
:1049800002500E20FB6F03500F20FC6F120097D9CE
:1049900002E0AFD9FEE17AD902E0B2D9FEE17FD9D7
:1049A00002E0B5D9FEE100500C240701B36F0150BD
:1049B0000D20B46F02500E20B56F03500F20B66F5C
:1049C00012007DD902E095D9FEE160D902E098D9C4
:1049D000FEE165D902E09BD9FEE100500C240701FD
:1049E000B76F01500D20B86F02500E20B96F035001
:1049F0000F20BA6F1200ECC082F71200ECC08AF7E9
:104A0000EEC001F0006AED5107010024806F000E36
:104A10000120816F1200ECC083F7F0390F0B0F0BF0
:104A20000701846F0701865142E0866BC7EF1AF0D9
:104A30000701855107E0100E0001EC1503E10701A5
:104A4000010E866F0001EC390F0B010B0701856F1A
:104A50000001EC510701875D05E10001ED510701FF
:104A6000885D02E0E4EC1AF0ECC087F7EDC088F74F
:104A70001200ECC0A2F7EDC0A3F7F1C0A4F712003A
:104A8000F36B070EF35D13E253D9F35147D9F9D70E
:104A9000F36B070EF35D05E24BD9070EF3253ED904
:104AA000F8D7ECC09EF7EDC09FF7EEC0A0F712005C
:104AB000D9CFE6FFE1CFD9FFE6520F0E0F01551512
:104AC0000001EA6F56CFEBF057CFECF058CFEDF086
:104AD00059CFEEF05ACFEFF05BCFF0F05CCFF1F0B2
:104AE0005DCFF2F050CFDFFF0F01509F070EDF14B4
:104AF00002081EE10001EE51000804E2EDC0A9F732
:104B0000EEC0A5F7F251000804E2F1C0AAF7F2C026
:104B1000A6F7EC51000804E2EBC0ABF7ECC0A7F736
:104B2000F05100083BE2EFC0ACF7F0C0A8F736D078
:104B30000001EB51FA0A32E1EEC000F0016A026AAC
:104B4000036AEFC004F0056A066A076A080E1F0BC5
:104B500002E0CFD8FEE103D9F0C008F0096A0A6A82
:104B60000B6A100E1F0B02E0CBD8FEE100500824A8
:104B70000701AF6F01500920B06F02500A20B16FDA
:104B800003500B20B26FF2C001F0006A0001F15136
:104B900007010024AD6F000E0120AE6FE552E55213
:104BA000E7CFD9FF12001200D9CFE6FFE1CFD9FF3E
:104BB000020EE1260B0EE66ED8EC2EF0E552F3CF96
:104BC00000F0F4CF01F0F3CFE6FFF4CFE6FF5DECA9
:104BD00031F0E552E552F3CFDEFFF4CFDDFF040103
:104BE000FD5112E1AED801500318E8AE02D00334F3
:104BF00004D00250005C0350015806E2C7EC1AF0E2
:104C00000401010EFD6F15D00401FD0512E199D8D4
:104C1000020E0226000E032203500118E8AE02D055
:104C2000013404D00050025C0150035802E2040138
:104C3000FD6B020EE15C02E2E16AE552E16EE552D3
:104C4000E7CFD9FF1200120012000401FE2B000E64
:104C5000FF2380D83C0E2D6E2E6A3ED801E1A4DFE2
:104C600079D82C0E2D6E010E2E6E36D801E1EBDFB9
:104C700071D8580E2D6E020E2E6E2ED806E1E4DF8E
:104C8000580E0401FE5F020EFF5B120068D8F1C0EF
:104C900008F0096A0A6A0B6A100E1F0B120008500E
:104CA0000026095001220A5002220B500322F2C0B2
:104CB0000CF00D6A0E6A0F6A180E1F0B1200EFC07F
:104CC00000F0016A026A036AF0C004F0056A066A2D
:104CD000076A080E1F0B1200FEC428F0FFC429F05B
:104CE00071EC34F024C000F025C001F024502510F0
:104CF0001200D8900436053606360736E80612004C
:104D0000D890083609360A360B36E8061200D890D5
:104D10000C360D360E360F36E8061200EA6A900F92
:104D2000E96E070EEA22E552E750EF6EF32B120010
:104D3000F329EA6AEB0FE96E000EEA22EF50E66E05
:104D4000120007018B51006E016ADECF02F0DDCF49
:104D500003F01200FEC400F0FFC401F01200045082
:104D6000002605500122065002220750032212009D
:104D7000D9CFE6FFE1CFD9FF0601EB0E646F540EE9
:104D8000656F8DEC1AF0B8D9B2D90601E70E646FE1
:104D9000540E656F8DEC1AF0020EE66E87EC2DF066
:104DA000E55292D1D9CFE6FF8FD1D9CFE6FF030EDE
:104DB000E12628D0200EDF5C1EE2DFCFE6FFE66AA8
:104DC000D80E006E540EAFD9000EE66E060EE66EDB
:104DD00073EC32F0036E070EE15E0350000EE66ED8
:104DE000060EE66E84D9DFCFE6FFD8EC2EF0B4D9FC
:104DF0007ED9DF2ADFD70601E50E646F540E656F9A
:104E00008DEC1AF0030EE15C02E2E16AE552E16E1C
:104E10005BD1D9CFE6FF58D1D9CFE6FF020EE1260C
:104E2000E15C02E2E16AE552E16E4ED1D9CFE6FFE4
:104E3000E1CFD9FF050EE126FB0EDBCFDEFFDBCF96
:104E4000DDFF46D9EF501BE043D9EF50200817E0B3
:104E50003FD9EF5060080EE23BD9EFCF00F07B0E58
:104E6000005C08E235D9EF50E00FE66E31D9E5522B
:104E7000E750EF6EDF2A010EE4E3DB2AE2D7090EEA
:104E8000E66EE66A380E006E540EDED80DE1FCD8F0
:104E9000090EE4D801E0C7D02FD9E66A22D906016D
:104EA000F20EFD6F630E14D0050EE66EE66A320E4A
:104EB000006E540EC9D80EE1BDD801E0B4D0050E85
:104EC000F3D8010EE66E0DD906011F0EFD6F640EBC
:104ED00004D9A7D0040EE66EE66A2D0E006E540EBD
:104EE000B3D806E1D1D8040EB9D801E09CD00BD0DC
:104EF000030EE66EE66A290E006E540EA5D806E192
:104F000099D801E090D0F8D884DF8BD0050EE66EFA
:104F1000E66A230E006E540E97D806E1B5D8050E4A
:104F20009DD801E080D00AD0040EE66EE66A1E0E1F
:104F3000006E540E89D805E17DD875E1DDD86CDFAF
:104F400070D0070EE66EE66A160E006E540E7CD820
:104F500005E170D868E1D0D828DF63D0070EE66E8F
:104F6000E66A0E0E006E540E6FD855E163D85BE111
:104F7000020EDB6E070EF36E030EF3CFDBFFDB508A
:104F8000E76E040EE7CFDBFF040EDBCF00F0FA0E76
:104F9000DB28D880005433E3200EF36E020EDBCF03
:104FA000F4FFF350F45C2BE2040ED2D8200803E0A7
:104FB000040ECED821E1040EDB506AD8EF6A030E4E
:104FC000C7D82D0809E1030EDB2862D8EF5004E1B1
:104FD000030EDB505DD8EF6A030EDB5065D8020E7E
:104FE000DBCFF3FFDB2AF350E66E7BD8040EDB2A1F
:104FF000DB50E76E030EC6D7040EDB2AC5D70601C9
:105000003F0EFD6F640E69D8E552E552020EE66E62
:10501000E8EC1AF007D08FD86FD83DEC17F0E552C6
:10502000E552E552E552050EE15C02E2E16AE55225
:10503000E16E4AD0E66A67D85FD884D8026E060E61
:10504000E15E0250000912006ED875D880EC2AF09B
:10505000036E070EE15E035000091200E76EFB0EBF
:10506000DBCF02F0FC0EDBCF03F0E7500226000E90
:10507000032202C0E6FF03C0E6FF64D8046E060EFA
:10508000E15E045000091200010EE66E83EF28F085
:10509000E76EFB0EDBCFE9FFFC0EDBCFEAFFE7504C
:1050A000E926000EEA221200E76EFB0EDBCF00F0CD
:1050B000FC0EDBCF01F0E7500026000E012200C0FD
:1050C000E6FF01C0E6FF1200E552E7CFD9FF12006C
:1050D000DECFE9FFDDCFEAFF1200FE6F0DD8D2EF81
:1050E00026F01DEC2FF0E552E552E55212009EEC41
:1050F0001AF0E552E5521200FD0EDBCFE6FFFE0E80
:10510000DBCFE6FF1200D8EC2EF0E552F3CFDEFF46
:10511000F4CFDDFFDECFE6FFDDCFE6FF7EEC2BF048
:10512000E552ACEF28F0016E026A00C0E6FFE66EC1
:1051300002C0E6FF1200FB0EDBCFE6FFFC0EDBCF6A
:10514000E6FF1200DECFE6FFDDCFE6FF8CEF2BF0AF
:10515000DB509EDFEF501200E552F3CF00F0F4CFAA
:0C51600001F0F3CFE6FFF4CFE6FF1200F1
:04516C002B434D453F
:10517000204552524F5200434C4F53454400534533
:105180004E44204641494C0053454E44204F4B006D
:1051900053544154453A20434F4E4E454354204FBB
:1051A0004B0053544154453A2000434F4E4E454323
:1051B00054204F4B002B434C4950002B4352454742
:1051C000002B5044503A204445414354002B435255
:1051D00045473A203000222C2236383637220D003F
:1051E00041542B43495053544152543D225443504F
:1051F000222C220041542B434C504F52543D2254F8
:105200004350222C2236383637220D0041542B438E
:10521000494653520D0041542B434950484541449F
:105220003D310D0041542B43494943520D00222C7E
:10523000220041542B435354543D2200220D00417F
:10524000542B434744434F4E543D312C2249502266
:105250002C220041542B434950534855540D0049CA
:105260005000534D5300257525250020534F433AD8
:1052700020002575204B6D002575206D69000D49B6
:105280006465616C2052616E67653A200043686115
:105290007267696E672053746F707065640043684D
:1052A000617267696E6720446F6E65004368617262
:1052B00067696E672C20546F7070696E67206F6627
:1052C00066004368617267696E6700506572666F59
:1052D000726D616E6365202D200052616E676520DE
:1052E0002D200053746F72616765202D2000537468
:1052F000616E64617264202D2000202D204D534783
:105300003A2000534D532046524F4D3A20004D5005
:105310002D30205041004D502D302061004D502D3A
:105320003020004D502D53203020004D502D302086
:1053300045540025642C25642C25642C25642C25DB
:10534000642C25642C25642C256C752C2564004D5B
:10535000502D30204400302E392E322C25732C2530
:1053600064004D502D30204600302C302C00256438
:105370002E25642C25642C004D502D302057004DD7
:10538000502D30204C0025750025752C002C007008
:105390006572666F726D616E63652C0072616E6717
:1053A000652C0073746F726167652C007374616E95
:1053B000646172642C0073746F707065642C006497
:1053C0006F6E652C00746F706F66662C0063686189
:1053D0007267696E672C0025642C25732C25642C5C
:1053E00025642C004D502D3020530020004D502DB1
:1053F00043203020000D0A004D502D3020454D0037
:105400001A0041542B43495053454E440D0050411E
:1054100052414D532000504152414D533F0053548F
:1054200041540053544154200047505300475053B7
:105430002000504153532000524547495354455290
:10544000200025752525000D534F433A2000257572
:10545000204B6D002575206D69000D496465616CF8
:105460002052616E67653A20004368617267696E19
:10547000672053746F707065640043686172676978
:105480006E6720446F6E65004368617267696E677E
:105490002C20546F7070696E67206F6666004368D9
:1054A000617267696E6700506572666F726D616EDA
:1054B0006365202D200052616E6765202D2000530A
:1054C000746F72616765202D20005374616E646192
:1054D0007264202D20002C002025753A0050617246
:1054E000616D733A001A00220D0A0041542B434D9E
:0F54F00047533D2200256C692E2530366C69002C
:10550000FB0EE3CFF6FFFC0EE3CFF7FFFD0EE3CF7C
:10551000F8FFFE0EE3CFE9FFFF0EE3CFEAFFF90E3F
:10552000E35003E1FA0EE35009E0F90EE30602E26C
:10553000FA0EE3060900F550EE5CF1E01200D9CF57
:10554000E6FFDACFE6FFFA0EE3CFD9FFFB0EE3CF9B
:10555000DAFFFC0EE3CFE9FFFD0EE3CFEAFFE9CF70
:10556000F3FFEACFF4FFF80EE35003E1F90EE35046
:1055700008E0F80EE30602E2F90EE306DECFEEFFE6
:10558000F2D7FF0EE3CFDAFFE552FF0EE3CFD9FFEC
:10559000E5521200FE0EE3CFE9FFFF0EE3CFEAFF74
:1055A000E9CFF3FFEACFF4FFFB0EE35003E1FC0E7B
:1055B000E35009E0FB0EE30602E2FC0EE306FD0EFB
:1055C000E350EE6EF1D71200D9CFE6FFDACFE6FF57
:1055D000FA0EE3CFD9FFFB0EE3CFDAFFFC0EE3CFE9
:1055E000E9FFFD0EE3CFEAFFE9CFF3FFEACFF4FFD7
:1055F000EE66FED7ED52DFCFEEFFDE66FCD7FF0E84
:10560000E3CFDAFFE552FF0EE3CFD9FFE5521200F8
:10561000FB0EE3CFF6FFFC0EE3CFF7FFFD0EE3CF6B
:10562000F8FFFE0EE3CFE9FFFF0EE3CFEAFFE9CF7D
:10563000F3FFEACFF4FFEE66FED7ED520900F5CF97
:10564000EFFFEE66FBD71200D9CFE6FFDACFE6FF19
:10565000FA0EE3CFD9FFFB0EE3CFDAFFFC0EE3CF68
:10566000E9FFFD0EE3CFEAFFDE50EF5C02E1EE66FC
:10567000FBD7F36EFF0EE3CFDAFFE552FF0EE3CF69
:10568000D9FFE552F3501200D9CFE6FFDACFE6FF9B
:10569000FA0EE3CFD9FFFB0EE3CFDAFFFC0EE3CF28
:1056A000E9FFFD0EE3CFEAFFE9CFF3FFEACFF4FF16
:1056B000DECFEFFFEE66FCD7FF0EE3CFDAFFE55259
:1056C000FF0EE3CFD9FFE5521200FB0EE3CFF6FF4A
:1056D000FC0EE3CFF7FFFD0EE3CFF8FFFE0EE3CFA6
:1056E000E9FFFF0EE3CFEAFFE9CFF3FFEACFF4FFD4
:1056F0000900F5CFEFFFEE66FBD71200FE0EE3CFF9
:10570000E9FFFF0EE3CFEAFFF36AF46AEE5203E02B
:10571000F34AF42AFBD71200D9CFE6FFDACFE6FF2F
:10572000FA0EE3CFD9FFFB0EE3CFDAFFFC0EE3CF97
:10573000E9FFFD0EE3CFEAFFF80EE35003E1F90EB7
:10574000E3500AE0F80EE30602E2F90EE306DE504B
:10575000EF5C02E1EE66F0D7F36EFF0EE3CFDAFF07
:10576000E552FF0EE3CFD9FFE552F3501200D9CF37
:10577000E6FFDACFE6FFFA0EE3CFD9FFFB0EE3CF69
:10578000DAFFFC0EE3CFE9FFFD0EE3CFEAFFE9CF3E
:10579000F3FFEACFF4FFF80EE35003E1F90EE35014
:1057A0000BE0F80EE30602E2F90EE306DECFEFFFB0
:1057B000EE66F1D7DD52EFD7FF0EE3CFDAFFE55209
:1057C000FF0EE3CFD9FFE5521200FE0EE3CFF3FF49
:1057D000FF0EE3CFF4FFFB0EE3CFF6FFFC0EE3CFAB
:1057E000F7FFFD0EE3CFF8FFF3CFE9FFF4CFEAFFB9
:1057F0000900F5500CE0F550EF5C02E1EE52F8D7ED
:10580000EF5203E0F34AF42AE6D7F36AF46A12008F
:10581000FF0EE3CFF8FFE552FF0EE3CFF7FFE552AF
:10582000FF0EE3CFF6FFE552E66AE66AE66A090094
:10583000F55209E0FD0EE32A05E1FE0EE32A02E13E
:10584000FF0EE32AF4D7FD0EE3CF27F0FE0EE3CFE1
:0A58500028F0FF0EE3CF29F012004C
:06585A00D9CFE6FFE1CF0B
:10586000D9FF0A0EE126020EDB6A030EDB6A040E84
:10587000DB6A050EDB6A1CD9EF6A1AD9EE52EF6AB1
:105880002FD9080EE9CFDBFF090EEACFDBFFDE6A76
:10589000DD6A2DD904E6000E005C010E015808E215
:1058A00001D9DFCFEFFFDF2A010EF3E3DB2AF1D7C7
:1058B000DE6ADD6A1CD904E6000E005C010E0158A8
:1058C0006BE2F0D8EF50E66ED950060F01D9060E04
:1058D000DBCF02F0070EDBCF03F0020EDB50022419
:1058E000006E030EDB500320040EDBCF06F0050E26
:1058F000DBCF07F0F90EDB500624E96EFA0EDB5021
:105900000720EA6EEF50046E056A00500424E66E2C
:10591000D950020FDDD8020EDBCF02F0030EDBCF31
:1059200003F0080EDB500224E96E090EDB50032061
:10593000EA6EEF50E66EB6D8E552E750EF6E020E13
:10594000DBCF00F0030EDBCF01F0080EDB500024AC
:10595000E96E090EDB500120EA6E060EDBCFEFFF89
:10596000040EDB2ADBCF00F0050E01E3DB2ADBCFE0
:1059700001F0A5D8E8AE02D0033404D00250005C98
:105980000350015804E3040EDB6A050EDB6ADF2ACC
:10599000010E90E3DB2A8ED70A0EE15C02E2E16A97
:1059A000E552E16EE552E7CFD9FF1200D9CFE6FF0D
:1059B000E1CFD9FF080EE1267BD8040EEFCFDBFF45
:1059C00077D8EE52050EEFCFDBFF8AD8020EE9CF73
:1059D000DBFF030EEACFDBFFDE6ADD6ADECF00F01D
:1059E000DDCF01F06CD8E8AE02D0033404D0025011
:1059F000005C0350015837E2040EDB2ADB5046D826
:105A0000060EEFCFDBFF050EDBCFE7FF060EDB5008
:105A1000E726050EE7CFDBFFDB5038D8070EEFCFC8
:105A2000DBFF040EDB5032D8070EDBCFEFFF050E95
:105A3000DB502CD8060EDBCFEFFF070EDBCFE6FFE7
:105A4000060EDB50E552E72421D8EFCF02F0F90E25
:105A5000DBCF00F0FA0E52D80250EF1ADF2A010E07
:105A6000BDE3DB2ABBD724D8040EDBCFEFFF20D861
:105A7000EE52050EDBCFEFFF080EE15C02E2E16AB9
:105A8000E552E16EE552E7CFD9FF1200E76E020E54
:105A9000DBCFE9FF030EDBCFEAFFE750E926000E7C
