:020000040000FA
:060000008FEF39F0120041
:020006001200E6
:06000800D3EF24F012000A
:02000E001200DE
:020010000100ED
:040012000000004D9D
:060018005DEF1BF0120079
:02001E000700D9
:1000200012000000FA000000040000000474000048
:100030000008000040000000E3730000D804000046
:1000400021000000AE730000CA0600003500000069
:100050003F5E0000FF060000010000006773000023
:10006000640700004700000010000000FE000000D0
:04007000020000008A
:0C007400F4EC0CF03AEC0DF0EE6AEE6AD1
:10008000EE6AEE6A6DEC0CF0EE6AEE6AEE6AEE6A0B
:10009000A9EC09F0010EEE6E230EEE6E450EEE6E2B
:1000A000670EEE6EA9EC09F0040EEBEC0AF0890E77
:1000B000EE6EAB0EEE6ECD0EEE6EEF0EEE6EA9ECAA
:1000C00009F0080EEBEC0AF0FE0EEE6EDC0EEE6EA2
:1000D000BA0EEE6E980EEE6EA9EC09F00C0EEBEC7B
:1000E0000AF0760EEE6E540EEE6E320EEE6E100EBE
:1000F000EE6EE552E7CFD9FF1200F4EC0CF0080EDB
:10010000E126030E046E6DEC0CF01FEC0BF003E027
:100110003FEC0BF0FDE13F0E001679EC0BF0AEEC7E
:100120000CF0F90EDBCF04F0FA0EDBCF05F0066A17
:10013000076A05AE02D006680768030E1F0B07E0CA
:10014000D8900436053606360736E806F9E16DEC38
:100150000CF00450EF26EECF00F00550EF22EECF6A
:1001600001F00650EF22EECF02F00750EF22EECF63
:1001700003F0F90EDBCF08F0FA0EDBCF09F00A6AC4
:100180000B6A09AE02D00A680B68030E1F0B03E06E
:1001900050EC0BF0FDE10850005C095001580A508A
:1001A00002580B50035806E23AEC0DF0EE2AEE220C
:1001B000EE22EE2257EC0BF0026A036A01AE02D087
:1001C000026803681D0E3FEC0BF0FDE13AEC0DF008
:1001D000E7EC0CF0400E046E056A066A076AD9CF98
:1001E000E9FF25EC0BF0EE500758060E00C0DBFFD0
:1001F000070E01C0DBFF57EC0BF011EC0DF00150C6
:100200000318E8AE02D0033404D00250005C03505F
:1002100001586AE3060EDBCFE6FF070EDBCFE6FFF1
:1002200013EC0BF0F0EC0CF0E9CF02F0EACF03F0A6
:10023000DB50E924006E010EDB50EA206FEC0BF07E
:100240003FEC2FF0046E060EE15E0450F0EC0CF073
:100250000AEC0BF0A9EC09F0E9CF02F0EACF03F0C9
:100260002EEC0BF0060EDBCF28F0070EDBCF29F0CB
:10027000040E28C0DBFF050E29C0DBFF3F0EE76E32
:10028000D7EC0CF0E7500026000E0122D0EC0CF069
:1002900001500318E8AE02D0033404D00250005CD1
:1002A000035001581EE2040EDBCF02F0050EDBCF37
:1002B00003F0FB0EDB500224006EFC0EDB5003202B
:1002C0006FEC0BF0A9EC09F0E9CF04F0EACF05F0F0
:1002D0002EEC0BF02DEC0DF0400EEE26000EED2274
:1002E000CDD718EC0DF004D0040EDB6A050EDB6AE6
:1002F000D0EC0CF0040EDB50025C006E050EDB50FF
:1003000003586FEC0BF046EC0BF0046EFC0EDB5068
:100310000720056E04C0E6FFE66EF0EC0CF0E9CFB6
:100320000AF0EACF0BF0DB50E924086E010EDB5037
:10033000EA20096E08C0E6FFE66E3FEC2FF00C6E77
:10034000060EE15E0C50080EE15C02E2E16AE55245
:100350001AEF0BF064EC0BF0080E39EC0BF0100EFA
:10036000EBEC0AF00AEC0BF0D9CFE6FFDACFE6FFB0
:100370005EEC0BF0030E046E1FEC0DF0100EEBECB8
:100380000AF01FEC0BF003E03FEC0BF0FDE13F0E39
:10039000001679EC0BF05DEC0CF0380EEE5C000E04
:1003A000EE58000EEE58000EEE580DE2380E046EB8
:1003B000056A066A076A36EC0DF025EC0BF0026E52
:1003C000EE50075813D0780E086E096A0A6A0B6A55
:1003D00036EC0DF07EEC0DF0085C006EEE50095826
:1003E000016EEE500A58026EEE500B58036E7AEC16
:1003F0000CF00C0EDBCFE6FF0D0EDBCFE6FF000EA0
:10040000E66E080EE66E13EC0BF068EC0BF0080ECF
:10041000E66EE66AD9CFE6FFDACFE6FF13EC0BF023
:1004200068EC0BF0100E39EC0BF00AEC0BF0FD0E43
:10043000DBCFE6FFFE0EDBCFE6FF5EEC0BF0100E2F
:10044000E15C02E2E16AE5521AEF0BF064EC0BF0BA
:10045000A9EC09F0EECFDFFF010EEECFDBFF020EBD
:10046000EECFDBFF030EEECFDBFF040E4FEC0CF004
:10047000040EEECFDBFF050EEECFDBFF060EEECF58
:10048000DBFF070EEECFDBFF080E4FEC0CF0080E83
:10049000EECFDBFF090EEECFDBFF0A0EEECFDBFF68
:1004A0000B0EEECFDBFF0C0E4FEC0CF00C0EEECF74
:1004B000DBFF0D0EEECFDBFF0E0EEECFDBFF0F0EE0
:1004C000EECFDBFF400EE66EE66AE66AE66A13EC04
:1004D0000BF0AB0EE66E070EE66E1FEC08F0006E3A
:1004E000080EE15E0050C3EC0BF00AEC0AF0780E47
:1004F0000026A40E01226A0E0222D70EF9EC0CF09F
:1005000003E04FEC09F0FDE121EC09F0190E3EEC9F
:1005100009F0FDE17DEC0BF017EC0AF0560E002619
:10052000B70E0122C70E0222E80E6BEC0DF003E0BD
:100530004FEC09F0FDE131EC09F0140E3EEC09F04E
:10054000FDE198EC0BF024EC0AF0DB0E0026700EB7
:100550000122200E0222240E3EEC0DF003E04FECAF
:1005600009F0FDE114EC09F00F0E3EEC09F0FDE19D
:10057000B0EC0BF031EC0AF0EE0E0026CE0E0122AC
:10058000BD0E0222C10E6FEC0DF003E04FEC09F03E
:10059000FDE124EC09F00A0E3EEC09F0FDE173ECFC
:1005A0000DF03EEC0AF0AF0E00260F0E01227C0E7D
:1005B0000222F50EF9EC0CF003E04FEC09F0FDE13E
:1005C00021EC09F0190E3EEC09F0FDE17DEC0BF099
:1005D0004BEC0AF02A0E0026C60E0122870E0222DC
:1005E000470E6BEC0DF003E04FEC09F0FDE131EC50
:1005F00009F0140E3EEC09F0FDE198EC0BF058EC1C
:100600000AF0130E0026460E0122300E0222A80E1A
:100610003EEC0DF003E04FEC09F0FDE114EC09F0C5
:100620000F0E3EEC09F0FDE1B0EC0BF065EC0AF0CA
:10063000002A950E0122460E0BEC0DF0160E1F0B34
:1006400003E04FEC09F0FDE124EC09F00A0E3EEC6A
:1006500009F0FDE173EC0DF072EC0AF0D80E002603
:10066000980E0122800E0222690EF9EC0CF003E0D4
:100670004FEC09F0FDE121EC09F0190E3EEC09F018
:10068000FDE17DEC0BF07FEC0AF0AF0E0026F70EDB
:100690000122440E02228B0E6BEC0DF003E04FECB6
:1006A00009F0FDE131EC09F0140E3EEC09F0FDE13A
:1006B00098EC0BF08CEC0AF0B10E00265B0E0122D8
:1006C000FF0E02223EEC0DF003E04FEC09F0FDE1DD
:1006D00014EC09F00F0E3EEC09F0FDE1B0EC0BF06C
:1006E00099EC0AF0BE0E0026D70E01225C0E022203
:1006F000890E6FEC0DF003E04FEC09F0FDE124EC06
:1007000009F00A0E3EEC09F0FDE173EC0DF0A6ECE9
:100710000AF0220E0026110E0122900E02226B0E0C
:10072000F9EC0CF003E04FEC09F0FDE121EC09F0ED
:10073000190E3EEC09F0FDE17DEC0BF0B3EC0AF094
:10074000930E0026710E0122980E74EC0BF00C0F24
:10075000EEEC08F070EC09F00C0E1F0B03E04FEC10
:1007600009F0FDE131EC09F0140E3EEC09F0FDE179
:1007700098EC0BF0C0EC0AF08E0E0026430E01221E
:10078000790E0222A60E3EEC0DF003E04FEC09F0CC
:10079000FDE114EC09F00F0E3EEC09F0FDE1B0ECC8
:1007A0000BF0CDEC0AF0210E0026080E0122B40E4B
:1007B0000222490E6FEC0DF003E04FEC09F0FDE171
:1007C00024EC09F00A0E3EEC09F0FDE1E4EC0BF03C
:1007D00017EC0AF0620E0026250E01221E0E0222E0
:1007E000F60EFDEC0CF003E04FEC09F0FDE121EC1E
:1007F00009F01B0E3EEC09F0FDE100EC0CF058ECAA
:100800000AF0400E0026B30E0122400E0222C00E56
:1008100042EC0DF003E04FEC09F0FDE131EC09F0A2
:10082000170E3EEC09F0FDE1D7EC0BF099EC0AF065
:10083000510E00265A0E01225E0E0222260E46ECB2
:100840000DF003E04FEC09F0FDE114EC09F0120E9D
:100850003EEC09F0FDE1ECEC0BF00AEC0AF0AA0E1C
:100860000026C70E0122B60E0222E90E4AEC0DF058
:1008700003E04FEC09F0FDE124EC09F00C0E3EEC36
:1008800009F0FDE1E4EC0BF04BEC0AF05D0E002604
:10089000100E01222F0E0222D60EFDEC0CF003E00A
:1008A0004FEC09F0FDE121EC09F01B0E3EEC09F0E4
:1008B000FDE100EC0CF08CEC0AF0530E0026140E57
:1008C0000122440E0222020E42EC0DF003E04FEC36
:1008D00009F0FDE131EC09F0170E3EEC09F0FDE105
:1008E000D7EC0BF0CDEC0AF0810E0026E60E0122CB
:1008F000A10E0222D80E46EC0DF003E04FEC09F0F9
:10090000FDE114EC09F0120E3EEC09F0FDE1ECEC17
:100910000BF03EEC0AF0C80E0026FB0E0122D30EAF
:100920000222E70E4AEC0DF003E04FEC09F0FDE186
:1009300024EC09F00C0E3EEC09F0FDE1E4EC0BF0C8
:100940007FEC0AF0E60E0026CD0E0122E10E022217
:10095000210EFDEC0CF003E04FEC09F0FDE121EC81
:1009600009F01B0E3EEC09F0FDE100EC0CF0C0ECD0
:100970000AF0D60E0026070E0122370E0222C30E01
:1009800042EC0DF003E04FEC09F0FDE131EC09F031
:10099000170E3EEC09F0FDE1D7EC0BF031EC0AF05C
:1009A000870E00260D0E0122D50E0222F40E46EC13
:1009B0000DF003E04FEC09F0FDE114EC09F0120E2C
:1009C0003EEC09F0FDE1ECEC0BF072EC0AF0ED0E00
:1009D0000026140E01225A0E0222450E4AEC0DF09A
:1009E00003E04FEC09F0FDE124EC09F00C0E3EECC5
:1009F00009F0FDE1E4EC0BF0B3EC0AF0050E002683
:100A0000E90E0122E30E0222A90EFDEC0CF003E038
:100A10004FEC09F0FDE121EC09F01B0E3EEC09F072
:100A2000FDE100EC0CF024EC0AF0F80E0026A30E19
:100A30000122EF0E0222FC0E42EC0DF003E04FEC1F
:100A400009F0FDE131EC09F0170E3EEC09F0FDE193
:100A5000D7EC0BF065EC0AF0D90E0026020E01224D
:100A60006F0E0222670E46EC0DF003E04FEC09F02A
:100A7000FDE1DADB120E3EEC09F0FDE1ECEC0BF0EF
:100A8000A6EC0AF08A0E00264C0E01222A0E022243
:100A90008D0E4AEC0DF003E04FEC09F0FDE1D4DBE4
:100AA0000C0EECDBFEE11BEC0CF04BEC0AF0420E02
:100AB0000026390E0122FA0E0222FF0E01EC0DF083
:100AC00002E0EDDBFEE1BDDB1C0ED8DBFEE133EC2A
:100AD0000CF072EC0AF0810E0026F60E0122710E67
:100AE0000222870E4EEC0DF002E0D9DBFEE1B9DB0D
:100AF000150EC4DBFEE122EC0CF099EC0AF0220E9C
:100B00000026610E01229D0E02226D0E52EC0DF0A8
:100B100002E0C5DBFEE188DB100EB0DBFEE13BEC62
:100B20000CF0C0EC0AF00C0E0026380E0122E50E87
:100B30000BEC0DF0170E1F0B02E0B1DBFEE184DBC6
:100B4000090E9CDBFEE11BEC0CF017EC0AF0440EE6
:100B50000026EA0E0122BE0E0222A40E01EC0DF0C8
:100B600002E09DDBFEE16DDB1C0E88DBFEE133EC79
:100B70000CF03EEC0AF0A90E0026CF0E0122DE0E8C
:100B800002224B0E4EEC0DF002E089DBFEE169DB48
:100B9000150E74DBFEE122EC0CF065EC0AF0600E41
:100BA00000264B0E0122BB0E0222F60E52EC0DF077
:100BB00002E075DBFEE138DB100E60DBFEE13BECB2
:100BC0000CF08CEC0AF0700E0026BC0E0122BF0E59
:100BD0000222BE0E77EC0DF002E061DBFEE134DBB9
:100BE000090E4CDBFEE11BEC0CF0B3EC0AF0C60E78
:100BF00000267E0E01229B0E0222280E01EC0DF033
:100C000002E04DDBFEE11DDB1C0E38DBFEE133ECC8
:100C10000CF00AEC0AF0FA0E0026270E0122A10EB3
:100C20000222EA0E4EEC0DF002E039DBFEE119DBA8
:100C3000150E24DBFEE122EC0CF031EC0AF0850EFF
:100C40000026300E0122EF0E0222D40E52EC0DF0DF
:100C500002E025DBFEE1E8DA100E10DBFEE13BEC02
:100C60000CF058EC0AF0050E00261D0E0122880E2D
:100C70000222040E77EC0DF002E011DBFEE1E4DA73
:100C8000090EFCDAFEE11BEC0CF07FEC0AF0390EE9
:100C90000026D00E0122D40E0222D90E01EC0DF056
:100CA00002E0FDDAFEE1CDDA1C0EE8DAFEE133EC1B
:100CB0000CF0A6EC0AF0E50E0026990E0122DB0EE0
:100CC0000222E60E4EEC0DF002E0E9DAFEE1C9DAAE
:100CD000150ED4DAFEE122EC0CF0CDEC0AF0F80EA1
:100CE00000267C0E0122A20E02221F0E52EC0DF0F5
:100CF00002E0D5DAFEE198DA100EC0DAFEE13BEC54
:100D00000CF0A2DB650E0026560E0122AC0E02226C
:100D1000C40E77EC0DF002E0C2DAFEE195DA090EBE
:100D2000ADDAFEE109EC0CF075DB440E0026220E74
:100D30000122290E0222F40E06EC0DF002E0AFDAD9
:100D4000FEE17FDA1A0E9ADAFEE1F4EC0BF0BDDB7D
:100D5000970E0026FF0E01222A0E0222430E56ECA9
:100D60000DF002E09CDAFEE17CDA160E87DAFEE195
:100D700029EC0CF0C0EC0AF0A70E0026230E01228D
:100D8000940E0222AB0E5AEC0DF002E088DAFEE17E
:100D90004BDA110E73DAFEE112EC0CF07CDB390E4B
:100DA0000026A00E0122930E0222FC0E5EEC0DF036
:100DB00002E075DAFEE148DA0B0E60DAFEE109ECDA
:100DC0000CF0C4DBC30E0026590E01225B0E02227A
:100DD000650E06EC0DF002E062DAFEE132DA1A0E80
:100DE0004DDAFEE1F4EC0BF03CDB920E0026CC0E6B
:100DF00001220C0E02228F0E56EC0DF002E04FDAAB
:100E0000FEE12FDA160E3ADAFEE129EC0CF084DB73
:100E10007D0E0026F40E0122EF0E0222FF0E5AEC88
:100E20000DF002E03CDAFEE1FFD9110E27DAFEE117
:100E300012EC0CF0FCDAD10E00265D0E0122840EBD
:100E40000222850E5EEC0DF002E029DAFEE1FCD90B
:100E50000B0E14DAFEE109EC0CF044DB4F0E002619
:100E60007E0E0122A80E02226F0E06EC0DF002E0AB
:100E700016DAFEE1E6D91A0E01DAFEE1F4EC0BF027
:100E80008CDBE00E0026E60E01222C0E0222FE0E66
:100E900056EC0DF002E003DAFEE1E3D9160EEED9CE
:100EA000FEE129EC0CF004DB140E0026430E0122B7
:100EB000010E0222A30E5AEC0DF002E0F0D9FEE181
:100EC000B3D9110EDBD9FEE112EC0CF04CDBA10E14
:100ED0000026110E0122080E02224E0E5EEC0DF0CD
:100EE00002E0DDD9FEE1B0D90B0EC8D9FEE109EC74
:100EF0000CF0C4DA820E00267E0E0122530E02226E
:100F0000F70E06EC0DF002E0CAD9FEE19AD91A0EEE
:100F1000B5D9FEE1F4EC0BF00CDB350E0026F20E39
:100F200001223A0E0222BD0E56EC0DF002E0B7D9B6
:100F3000FEE197D9160EA2D9FEE129EC0CF084DA75
:100F4000BB0E0026D20E0122D70E02222A0E5AEC28
:100F50000DF002E0A4D9FEE167D9110E8FD9FEE1B0
:100F600012EC0CF0CCDA910E0026D30E0122860E84
:100F70000222EB0E5EEC0DF002E091D9FEE164D9A5
:100F80000B0E7CD9FEE10BD9E4D9BAEC0CF0040EBF
:100F90004FEC0CF0A1EC0CF0080E4FEC0CF094ECC4
:100FA0000CF00C0E4FEC0CF087EC0CF0100EE15C2A
:100FB00002E2E16AE5523ED312DBFCDA3AE2DFCF2D
:100FC00006F0010EDBCF07F0D89006360736D89032
:100FD00006360736FB0EDB5006240DEC0DF007201D
:100FE000EA6EEECF02F00250E66ED7EC0CF0B8D904
:100FF000080E44D9FEE10450E66E010E43EC0CF0FD
:10100000AFD9100E3BD9FEE10450E66E020E43EC60
:101010000CF0A6D9180E32D9FEE10450E66E030E8C
:1010200043EC0CF071EC0CF0E552E750EF6EE4DAB3
:10103000C4D7080EE15C02E2E16AE552FBD2CFDAE6
:10104000B9DA01E3A2D022DB0DEC0DF00720EA6E45
:10105000EFCF02F0036A046A056A010E0C6E0D6A96
:101060000E6A0F6A2DEC0DF0EE500C26EE500D229C
:10107000EE500E22EE500F22FB0EDB500C240DEC36
:101080000DF00D20EA6EEFCF08F0096A0A6A0B6ACC
:10109000080E1F0B02E004DBFEE1085002120950AB
:1010A00003120A5004120B500512020E146E156A38
:1010B000166A176A2DEC0DF0EE501426EE5015222C
:1010C000EE501622EE501722FB0EDB5014240DECCE
:1010D0000DF01520EA6EEFCF10F0116A126A136A54
:1010E000100E1F0B07E0D89010361136123613364B
:1010F000E806F9E1105002121150031212500412C6
:1011000013500512030E1C6E1D6A1E6A1F6A2DEC19
:101110000DF0EE501C26EE501D22EE501E22EE5019
:101120001F22FB0EDB501C240DEC0DF01D20EA6E7F
:10113000EFCF18F0196A1A6A1B6A180E1F0B07E026
:10114000D890183619361A361B36E806F9E11850C9
:101150000212195003121A5004121B500512DFCF4D
:1011600000F0010EDBCF01F0D89000360136D890A8
:1011700000360136B6DB02C0EEFF03C0EEFF04C04E
:10118000EEFF05C0EEFF38DA5BD7080EE15C02E245
:10119000E16AE5524FD288DB90DB87EF0CF084DB0D
:1011A000040E00C0DBFF050E01C0DBFF060E02C00F
:1011B000DBFF070E03C0DBFF2DEC0DF094EF0CF00E
:1011C00073DB98DB62EC0DF0DACFEAFFBAEF0CF0DC
:1011D0006BDBC4DB31EC0DF0A1EF0CF0E96EDACF84
:1011E000EAFFE7EF0CF0DACFEAFF0C50EE14086EDE
:1011F0000D50EE14096E0E50EE140A6E0F50EE14E0
:101200000B6EC4D303220050DE260150DE220250B2
:10121000DE220350DD22DD52DD5231EC0DF026ECF2
:101220000DF0EFCF03F01200080EDBCF04F0090E33
:10123000DBCF05F00A0EDBCF06F00B0EDBCF07F09D
:10124000120031EC0DF0BAD3040EDBCF04F0050E22
:10125000DBCF05F0060EDBCF06F0070EDBCF07F085
:1012600012000C0EDBCF04F00D0EDBCF05F00E0EDE
:10127000DBCF06F00F0EDBCF07F01200D89007325D
:10128000063205320432E80612007EEC0DF0081634
:10129000EE500916EE500A16EE500B1677D3D89082
:1012A0000036013602360336E80612007EEC0DF0F9
:1012B0000416EE500516EE500616EE5007161200F4
:1012C000DACFEAFF0850EE18046E0950EE18056EEA
:1012D0000A50EE18066E0B50EE18076E04501200FE
:1012E0000C0EDBCF00F00D0EDBCF01F00E0EDBCFCE
:1012F00002F00F0EDBCF03F01200080EDBCF00F080
:10130000090EDBCF01F00A0EDBCF02F00B0EDBCFB4
:1013100003F012004CDB11EF0DF0F0DB041AEE507D
:10132000051AEE50061AEE50071A04501200E6DBBA
:10133000081AEE50091AEE500A1AEE500B1A120053
:10134000DDDB0412EE500512EE500612EE500712CD
:101350001200FD0EDBCFE9FFFE0EDBCFEAFF12002D
:10136000C0DAE552E750EF6EDFCF08F0010EDBCFB9
:1013700009F0D89008360936D89008360936FB0EA1
:10138000DB5008244ADB0920EA6E18D30C0EDBCFB1
:1013900008F00D0EDBCF09F00E0EDBCF0AF00F0EBA
:1013A000DBCF0BF01200080EDBCF08F0090EDBCF0D
:1013B00009F00A0EDBCF0AF00B0EDBCF0BF01200A8
:1013C000040EDBCF08F0050EDBCF09F0060EDBCFF5
:1013D0000AF0070EDBCF0BF0120043DBEECF08F074
:1013E000EECF09F0EECF0AF0EFCF0BF01200DBCF1B
:1013F0000FF00C1E0D1E0E1E0F1E1200081E091EE1
:101400000A1E0B1ED9501200041E051E061E071EC2
:10141000D95012000701AB25006E0550AC21016EBA
:101420000650AD21026E0750AE21036E1200070177
:10143000AF25006E0550B021016E0650B121026E3D
:101440000750B221036E12000701B325006E05504C
:10145000B421016E0650B521026E0750B621036E0D
:1014600012000701B725006E0550B821016E065025
:10147000B921026E0750BA21036E12000701BB2585
:10148000006E0550BC21016E0650BD21026E075052
:10149000BE21036E12000701BF25006E0550C0215A
:1014A000016E0650C121026E0750C221036E120068
:1014B0000701C325006E0550C421016E0650C521E9
:1014C000026E0750C621036E12000701C725006E89
:1014D0000550C821016E0650C921026E0750CA216D
:1014E000036E12000701CB25006E0550CC21016E62
:1014F0000650CD21026E0750CE21036E1200070167
:10150000CF25006E0550D021016E0650D121026E0C
:101510000750D221036E12000701D325006E05503B
:10152000D421016E0650D521026E0750D621036EDC
:1015300012000701D725006E0550D821016E065014
:10154000D921026E0750DA21036E12000701DB2554
:10155000006E0550DC21016E0650DD21026E075041
:10156000DE21036E12000701DF25006E0550E02129
:10157000016E0650E121026E0750E221036E120057
:101580000701E325006E0550E421016E0650E521B8
:10159000026E0750E621036E12000701E725006E78
:1015A0000550E821016E0650E921026E0750EA213C
:1015B000036E1200F70EDBCF00F0F80EDBCF01F068
:1015C000EFD94BDA0050EE5C0150EE580250EE5865
:1015D0000350EE581200E926000EEA22120004DA47
:1015E000080EE12625DA040EDB6A050EDB6A060E1C
:1015F000DB6A070EDB6A120034DAEE2A000EEE22F6
:10160000EE22EE222ADA040EEE26000EEE22EE2262
:10161000EE221200E9CF00F0EACF01F0E9CFE6FFB9
:10162000EACFE6FF1200FB0EDBCFE6FFFC0EDBCFBE
:10163000E6FF1200E16EE552E7CFD9FF1200045039
:101640001F0B04DAEECF03F0120058DA045C006ED0
:10165000EE500558016EEE5006581200E9CFE6FF35
:10166000EACFE6FF26EC02F0E552E552E552E552FC
:101670001200E66EE66AE66AE66A1FEF0DF0D890A1
:101680000332023201320032E8061200040EDBCFD0
:1016900006F0050EDBCF07F0FB0EDB500624120030
:1016A000D890083609360A360B36E8061200F90ECD
:1016B000DBCF00F0FA0EDBCF01F012007DDC026E12
:1016C000080EE15E025012008FD9100EE1261200C2
:1016D0007DEC00F0006E060EE15E00501200016E1F
:1016E00000C0E6FFE66E12000222FD0E0322D95072
:1016F0001200016A026A036A12006ADDA5DDD9CF11
:10170000E9FFD4DDAED9EECF0CF0EECF0DF0EECF89
:101710000EF0EFCF0FF00C1E0D1E0E1E0F1EA6D9E1
:10172000F3EF08F00322D950080F58DD7DEF09F0E0
:1017300047DD87DDC7D9BADD0C0EDBCF0CF00D0E0F
:10174000DBCF0DF00E0EDBCF0EF00F0E50DEDAD930
:10175000F3EF08F00322D9500C0F40DD70EF09F0D1
:101760001ADD7FDD83D9A2DD080EDBCF0CF0090E78
:10177000DBCF0DF00A0EDBCF0EF00B0E38DED9CF2B
:10178000E9FFF3EF08F050DDBDD990DD040EDBCFAB
:101790000CF0050EDBCF0DF0060EDBCF0EF0070EC2
:1017A00026DE90D9F3EF08F00322D9508FD108DD5F
:1017B0004BDD88D97BDD04DE081E091E0A1E0B1EC8
:1017C000D9CFE9FF45EF09F0EADC4BDD9BD96EDDAF
:1017D000DDDD14DE080F8FD1DEDC33DD47D966DDB9
:1017E000FCDD0CDE0C0F87D1F3DC1EDD041E051EB4
:1017F000061E071ED9CFE9FFA3DD84D98DEF09F0BE
:10180000E7DC12DDD9CFE9FF51DDCDDDF7DD040FD7
:1018100072D1C5DC26DDF8DD040FE96E91DD26D935
:101820008DEF09F0B8DC0DDDEFDD080FE96E88DD26
:1018300049D98DEF09F0B3DCB6DD64D978DD42D942
:1018400060EF09F0BDDCC9DD3DD971DD5BD960EF2A
:1018500009F0B6DCF9DCD8DD0C0FE96E71DDD9CF0B
:10186000E9FF8DEF09F0B4DCABDDD9CFE9FF5FDD37
:10187000FDD860EF09F08FDC89DDF8D858DDD9CFCD
:10188000E9FF60EF09F0006E34DFE7D8EE50002684
:10189000EE500122EE500222EE5003221200E76EBB
:1018A00058DDE750EBEF0AF004500012055001122A
:1018B00006500212075003121200080E00C0DBFF90
:1018C000090E01C0DBFF0A0E02C0DBFF0B0E03C0D6
:1018D000DBFFCCD8DACFEAFF12003BDD100EEBEFD6
:1018E0000AF0FD0EDB500024E96EFE0EDB500120F5
:1018F000EA6E12000C0E00C0DBFF0D0E01C0DBFF14
:101900000E0E02C0DBFF0F0E03C0DBFF12000C0E39
:10191000DB50EE260D0EDB50EE220E0EDB50EE22DB
:101920000F0EDB50EE221200080EDB50EE26090EE1
:10193000DB50EE220A0EDB50EE220B0EDB50EE22C5
:101940001200040EDB50EE26050EDB50EE22060ED2
:10195000DB50EE22070EDB50EE22120000C0DFFF4C
:10196000010E01C0DBFF020E02C0DBFF030E03C04D
:10197000DBFF1200DF50EE26010EDB50EE22020EDE
:10198000DB50EE22030EDB50EE2212000850041250
:10199000095005120A5006120B500712045012008B
:1019A000F90EDBCF02F0FA0EDBCF03F01200040ECB
:1019B000DBCF00F0050EDBCF01F01200EECF04F01C
:1019C000EECF05F0EECF06F0EFCF07F0120000509B
:1019D000EE260150EE220250EE220350EE221200BB
:1019E000B8DC180EEBEF0AF0D9CFE6FFE1CFD9FF54
:1019F000120008DC070E1F0B120004DC050E1F0B83
:101A0000120002EC09F0040E1F0B120002EC09F0A8
:101A1000060E1F0B120068DE59D0E96EFC0EDB507B
:101A20001200060EDBCF02F0070EDBCF03F0120030
:101A3000DE6ADE6ADE6ADD6ADD52DD521200FB0E0E
:101A4000DBCFE9FFFC0EDBCFEAFF1200EECF00F0A8
:101A5000EECF01F0EECF02F0120054D8DACFEAFF59
:101A60001200D9CFE9FFDACFEAFF1200D950080FF0
:101A7000E96E120032DF040EEBEF0AF053DE110EB6
:101A80001F0B120067DE090E1F0B12004BDE0E0E3D
:101A90001F0B120089DE140E1F0B12005BDE0B0EF3
:101AA0001F0B12003FDE100E1F0B120053DE0A0E3A
:101AB0001F0B120037DE0F0E1F0B120075DE150E06
:101AC0001F0B1200D9500C0FE96E1200040FEEEC40
:101AD00008F08AEF09F03EDE0C0E1F0B120064DEE8
:101AE000160E1F0B1200CFEC08F0C3EF0BF05CDEFC
:101AF000170E1F0B1200E96E45EF09F0DACFEAFF6F
:0C1B0000EE501200D950040FE96E1200E4
:041B0C000601FD6B66
:101B1000FE6B12000601CC6B12000601010ECD6FA8
:101B2000050E15EC15F00601310E646F5D0E656F44
:101B300058EC1CF00A0E15EF15F006012F0E646F1D
:101B40005D0E1AEF15F0B7EC13F0030EE126060157
:101B5000FC0545E1450E0601055D41E0410E055DD0
:101B60003EE0610E055D3BE0500E055D38E0020E83
:101B700005C6DBFF060EE66E060EE66E800EE66E0E
:101B8000000EFFEC13F098EC13F0F8EC13F002E603
:101B90004FEC14F005E2BBEC14F0F7E3DB2AF5D7C9
:101BA000B6EC14F01EEC30F0DBEC14F0800EE66EB8
:101BB000000E2DEC13F0270E006E5D0EABEC14F052
:101BC000020EDBCF07F6080EE66E060EE66EBCECE4
:101BD00013F0B6EC14F074EC28F054EC14F021EC93
:101BE00015F01EEC30F0DBEC14F0D4EC13F0BCEC90
:101BF00013F021EC15F0C9EC28F0E552E5523DEC6C
:101C000014F0030EE15C02E2E16AE55262EF13F0C8
:101C1000B7EC13F0050EE126D650016E006A030EF4
:101C200000C0DBFF040E01C0DBFFD75004EC14F052
:101C3000DF6A080EDF5C0BE2DF50EA6AEC0FE96E48
:101C4000070EEA22EF5004EC14F0DF2AF2D7030E5D
:101C5000DBCFE6FF040EDBCFE6FF72EC36F0E55299
:101C6000E552DF6A160EDF5C0DE277EC13F0DF5011
:101C7000EA6ACE0FE96E060EEA22E552E750EF6EF1
:101C8000DF2AF0D70601E46B090E16EC14F0600EA3
:101C9000E66E000EE66E2CEC14F0C3EC14F02CECA7
:101CA00014F0160EE66EE66A59EC14F03EEC35F0D0
:101CB000026E0A0EE15E025006011C0E646F5D0E9C
:101CC000656F58EC1CF059EC14F069EC1CF044EC16
:101CD00014F0E1EC13F0C9EC28F0E552E55244ECC5
:101CE00014F0080E16EC14F02CEC14F069EC1CF057
:101CF0003DEC14F0050EE15C02E2E16AE55262EFB0
:101D000013F01DEC15F0130E006E5D0EABEC14F02D
:101D100004EC15F007016651E66EE66A64C7E6FF5B
:101D200065C7E6FFBCEC13F007016F51E66EE66A8B
:101D3000060E006E5D0E1BEC13F00D0EDFEC14F0C2
:101D400007016751040A0CE0060A06E0030A0CE1E9
:101D5000FC0E006E5C0E0BD0F40E006E5C0E07D015
:101D6000EE0E006E5C0E03D0E50E006E5C0EA8EC6D
:101D700014F007016851040A12E0070A0CE0020A95
:101D800006E0010A11E1DB0E006E5C0E10D0D20EEF
:101D9000006E5C0E0CD0CB0E006E5C0E08D0BE0E3A
:101DA000006E5C0EA8EC14F0BC0E006E5C0EA8EC8D
:101DB00014F092EC13F04D080AE170C7E6FF71C70A
:101DC000E6FFB80E006E5C0EE3EC14F00FD070C7A7
:101DD00000F071C701F0040E88EC14F0FDE12FEC67
:101DE00013F0B80E026E5C0E53EC13F018EC13F007
:101DF00092EC13F04D080AE172C7E6FF73C7E6FFE5
:101E0000B50E006E5C0EE3EC14F00FD072C700F05C
:101E100073C701F0040E88EC14F0FDE12FEC13F011
:101E2000B50E026E5C0E53EC13F018EC13F08BDE63
:101E3000020EE15C02E2E16AE55262EF13F0AE0EDF
:101E4000006E5C0EABEC14F0B6EC14F09FC7E6FF2E
:101E5000A0C7E6FFA1C7E6FFA2C7E6FF0AEC15F0A0
:101E6000BC0E006E5C0EA8EC14F0B6EC14F0A3C728
:101E7000E6FFA4C7E6FFA5C7E6FFA6C7E6FF0AEC94
:101E800015F0A3EF0DF0B7EC13F0090EE1260701F2
:101E9000915107E1925105E1935103E1945101E120
:101EA0007AD0A70E006E5C0EABEC14F0DF6A040E65
:101EB000DF5C60E25EEC14F0000855E2DF50EA6A95
:101EC000950FE96E070EEA22EFCF04F004C029F067
:101ED000D4EC2AF027C000F028C001F029C002F09D
:101EE0002AC003F0560E2C6E0E0E2D6E8D0E2E6E29
:101EF0003E0E2F6E00EC2BF038EC2CF0010E26C0BD
:101F0000DBFF020E27C0DBFF030E28C0DBFF040E41
:101F100029C0DBFFC1EC13F0050E26C0DBFF060E67
:101F200027C0DBFFC1EC13F0070E22C0DBFF080E59
:101F300023C0DBFF5EEC14F0D80FE66EE66A070EF6
:101F4000DBCFE6FF080EDBCFE6FF050EDBCFE6FFBB
:101F5000060EDBCFE6FF9D0E006E5C0E6CDB0B0EFB
:101F6000DFEC14F005D0980E006E5C0EA8EC14F0B7
:101F7000DF2A9DD721EC15F042EC15F0F3CFE9FFF5
:101F8000F4CFEAFFE906000EEA5A000EE926060E33
:101F9000EA22EF6AD8DD090EE15C02E2E16AE5526D
:101FA00091D3910E006E5C0EABEC14F00701AA51B8
:101FB000E66EE66A7C0EE66E070EE66E800E006E3A
:101FC0005C0E39DB090EDFEC14F0A3EF0DF0CFDB74
:101FD000040EE1260701785179117A117B1107E18E
:101FE000DE6ADE6ADE6ADD6ADD52DD521CD0780E02
:101FF000E96E070EEA6EEE500701745D006EEE505A
:102000007559016EEE507659026EEE507759036E97
:1020100000C0DFFF010E01C0DBFF020E02C0DBFFCC
:10202000030E03C0DBFF790E006E5C0EABEC14F008
:10203000D9CFE9FFDACFEAFFEECFE6FFEECFE6FF3A
:10204000EECFE6FFEFCFE6FF07016E51E66EE66AE0
:102050009BC7E6FF9CC7E6FF9DC7E6FF9EC7E6FF5E
:1020600099C7E6FF9AC7E6FF07019051E66EE66A58
:1020700007018F51E66EE66A07018E51E66EE66A49
:1020800007016D51E66EE66A07016C51E66EE66A7D
:1020900007016B51E66EE66A590E006E5C0ECBDAF4
:1020A0001D0EDFEC14F04FDD040EE15C02E2E16A8C
:1020B000E55208D35CDB060E73EC14F033DB08E06A
:1020C00031DB200805E0DF2A010EF8E3DB2AF6D732
:1020D00029DB200801E09CD07AEC14F001E3DB2A34
:1020E000EF6ADADAE6DBF2DB01E192D0090EE66EA6
:1020F0002ADB600EE66E000EABDACEDA2EDBCCDA2F
:10210000B2DB21EC15F05DDB74EC28F0CDDB21ECCB
:1021100015F032DBDBDB01E07BD0BEDA000EE66ED1
:10212000060E6DDBC6DB9BEC14F0600EE66E000E57
:102130008FDA21EC15F011DB21EC15F094DB41DB9B
:10214000E6EC14F06DDB4BDB01E6A9DB09E236ECD3
:1021500015F02DDB040EDB2A050EF5E3DB2AF3D7A1
:1021600030DBEEEC14F05CDB3ADB01E698DB09E2F5
:1021700036EC15F019DB040EDB2A050EF5E3DB2A3D
:10218000F3D70601010ECC6F0A0EE66EDCDAB9DB7E
:10219000EF5050083BE10601FC5121E1040EDB6ADF
:1021A000050EDB6A1CDB04E6160E005C000E01580F
:1021B00014E29DDA040EDBCFE9FF050EDBCFEAFF68
:1021C000E50EE926060EEA22E552E750EF6E040E10
:1021D000DB2A050EE7E3DB2AE5D70601FB6BFC6B88
:1021E000510E006E5C0EB7DB98DBA5DB96DC9ADB4C
:1021F0000601010EFC6FE66EA6DA700EE66E000EAA
:1022000027DA8BDBAADA89DB2EDB02D00601FC6B36
:10221000060EE15C02E2E16AE55254D21DEC15F0D3
:102220000601CC5110E1070EE66EE66A490E006E1B
:102230005C0E86DB31DAF3DB01E092D0070E47DA81
:1022400039DFE55218D026EC15F021EC15F024DA30
:1022500030EC29F0E552E552AEDBA9DA050EE66E68
:10226000E66A430E006E5C0EE0D9D9DB06E0400E54
:10227000E66EB9EC1CF0E55273D0D950FD0FE96E53
:10228000DACFEAFF050EEE6E060EED6E93DAEF5032
:10229000450834E1ABDB4D0831E1D950FD0FE96E63
:1022A000FF0EDA20EA6E020EEE26000EED22CEDBE5
:1022B000810EE66E000EE66E010E09DA30EC29F0B2
:1022C000E552E552E55285DA33DA92DA01E6E7DAE9
:1022D00004E251DBFAE3DB2AF8D74EDA810EE66E30
:1022E000000EBBD967DAEFCF80F0D950FD0FE96E51
:1022F000DACFEAFF800EEE6E000EED6E5BDAEF5085
:10230000430A25E0190A0DE01B0A2AE13C0E006E83
:102310005C0E21DB0601CD5123E18DEC0DF013DCC9
:1023200010D064DB300810E00701010EA96F060130
:10233000CD5116E18DEC0DF0E4DC81DDA4DD31DE64
:1023400046DE9DEC0DF00CD00701A96B09D0010E03
:10235000BED90CD8E552E5520601CD5101E12ED887
:10236000020EE15C02E2E16AE552ACD100DA040E51
:10237000BADAD8D908E0D6D92C0805E0DF2A010E50
:10238000F8E3DB2AF6D7CED92C0804E1B3DA01E36F
:10239000DB2AEF6A81D9FDEC35F0E552E552F3CF47
:1023A000FDF6F4CFFEF6E8D9660EE66E060E27DAE5
:1023B000040EE15C02E2E16AE55284D1D8D9040E50
:1023C000E126020E57DA170E0601FD1901E1FE5152
:1023D00001E185D0160EFD1901E1FE5101E17FD02A
:1023E000150EFD1901E1FE5101E179D0140EFD1920
:1023F00001E1FE5174E00C0EFD1901E1FE516FE0A8
:102400000B0EFD1901E1FE516AE00A0EFD1901E112
:10241000FE5165E0050EFD1901E1FE5158E0040E84
:10242000FD1901E1FE515BE0030EFD1901E1FE51D2
:102430002AE0020EFD1901E1FE5151E0010EFD19E5
:1024400050E1FE514EE1DE6ADD6AD2D904E6100E9B
:10245000005C000E01584DE2DECFE9FFDDCFEAFF60
:10246000EA0EE926000EEA22EF50E66EE66A100E4A
:10247000E66EE66A81D9290E006E5C0ED6D8E1D9E7
:10248000E4E3DB2AE2D7DE6ADD6AB2D904E6200E95
:10249000005C000E01582DE2DFCFE6FF54D9D9CF02
:1024A000E9FFDACFEAFF090EEE1804E1ED5002E190
:1024B00028DAEF6A72DA200EE66EE66A5DD90B0E54
:1024C000006E5C0EB2D8BDD9E0E3DB2ADED703DABA
:1024D0006BDA040EE66EB9EC1CF0E5520AD0FBD9BB
:1024E00007D0FDC6E6FFFEC6E6FF000E006E5C0EDE
:1024F0005BDA9DEC0DF00601FD6BFE6B0601666B71
:10250000040EE15C02E2E16AE552DCD030D906015A
:10251000CC5121E0CD5100081EE3020EADDAED0EE4
:10252000006E5B0E15DAB8D806DAE40E006E5B0EAC
:102530000FDA460EE76EFB0EDBCFE9FFFC0EDBCFBA
:10254000EAFFF4D9EF6AFB0EDBCFE6FFFC0EDBCF30
:10255000E6FFF1D9E7D9E552E7CFD9FF12006DDAEE
:102560008BDA07016851040A12E0070A0CE0020A3C
:1025700006E0010A10E1D80E006E5B0E0BD0CD0E06
:10258000006E5B0E07D0C40E006E5B0E03D0B50E5E
:10259000006E5B0EDDD907016751040A0CE0060AE4
:1025A00006E0030A0CE1AC0E006E5B0E0BD0960E3B
:1025B000006E5B0E07D0880E006E5B0E03D0770EA8
:1025C000006E5B0EC5D9680E006E5B0EC1D91CDAB9
:1025D000A9D84D0809E170C7E6FF71C7E6FF620E92
:1025E000006E5B0EF0D90CD070C700F071C701F01F
:1025F000040E8ED9FEE133D85C0E026E5B0E53D80A
:1026000017D8550E006E5B0EA3D907016F51E66E09
:10261000E66A500E006E5B0ED6D90AD883D9020E38
:10262000E15C02E2E16AE5524DD08AD921EF15F072
:102630009DD99BEF14F084D999D986EC37F0036EBD
:102640001200A8EC2FF0036E050EE15E035012009D
:10265000E66EA3D998D9CDEF14F0FFD97FD1050E3E
:102660000026000E01220A0E2D6E2E6A00C028F0F0
:1026700001C029F057EC39F028C000F029C001F062
:1026800028C0E6FF29C0E6FF120005EC30F0036E1B
:10269000050EE15E03501200FD0EDBCFE6FFFE0EDD
:1026A000DBCFE6FF1200036E046A02C0E6FFE66EAF
:1026B00004C0E6FF5BD986EC37F0056E070EE15EDD
:1026C00005501200E16EE552E7CFD9FF1200E76E28
:1026D000FD0EDBCF00F0FE0EDBCF01F0E750002651
:1026E000000E012200C0E6FF01C0E6FF120079ECF7
:1026F00036F0F3CFF6FFF4CFF7FF400E2D6E2E6AC3
:10270000F6CF28F0F7CF29F0C0EC2BF024C0F6FF6D
:1027100025C0F7FF560EF626700EF7220800F5507A
:10272000E66E1200DECFE9FFDDCFEAFFEF501200C8
:10273000100EE66EE66A700EE66E000E8ED95CD95B
:10274000DE6ADD6A120078EC33F0E552020EF3CF58
:10275000DBFF030EF4CFDBFF120094D9F3CF02F0BE
:10276000F4CF03F0F3CFE6FFF4CFE6FF1200D9CFAA
:10277000E6FFE1CFD9FF1200DECFE6FFDDCFE6FFB7
:102780001200010EDBCF26F0020EDBCF27F0030E86
:10279000DBCF28F0040EDBCF29F00A0E2B6E2C6A5B
:1027A0002D6A2E6AE6EF2BF04CD918D9D7D049D92B
:1027B0000DD9D4D0FD0EDBCFE9FFFE0EDBCFEAFF53
:1027C0001200100EE66EE66A600EE66E000EE66E11
:1027D0001200E552F3CFDEFFF4CFDDFF1200040E4E
:1027E000DBCF00F0050EDBCF01F0D89001501200D6
:1027F000DECF00F0DDCF01F0D89001501200E66E80
:10280000E4EC2FF047EF15F0006E016AD950030F8A
:10281000E96EDACFEAFF0050EE260150ED221200F9
:10282000EBD8040EDB6A050EDB6A1200E66E78EC6C
:1028300033F0E552DE52F3CFDEFFF4CFDDFFDD52A1
:10284000120086EC37F0036E0B0EE15E0350A3EC32
:102850000DF0DF2A010E1200010EDBCFE6FF020EA3
:10286000DBCFE6FF12003EEC35F0046E0A0EE15EAF
:1028700004501200DAD88DEF0DF0E552E552060152
:10288000240E646F5D0ED6D0E552E55206011A0E95
:10289000646F5D0ECFD0070EE15E03501200000E94
:1028A000005C040E01581200006E060EE15E00503E
:1028B0001200CE0EE66E060EE66E1200DF50EA6AD9
:1028C000910FE96E070EEA22EF501200C4EC2FF0D0
:1028D000DED800091200FDC6E6FFFEC6E6FF1E0EAA
:1028E000006E5C0E1200E126FD0EDBCFDEFFDBCFBB
:1028F000DDFF1200DFCFE9FFDF2A010EDBCFEAFFA9
:102900001200020EDBCFE9FF030EDBCFEAFF12005D
:10291000D89000360136E8041200E50EE66E060E89
:10292000E66E1200A3EC0DF09DEF0DF0E750E926E6
:10293000000EEA22120085D884EC2FF047EF15F044
:10294000016E026A00C0E6FFE66E02C0E6FF1200FA
:102950006CDE21EF13F069DE45EF13F0E66E76ECE6
:1029600031F0006E080EE15E00501200800EE66E3F
:10297000000EE66E12007AD8000EE66E060E6DDED0
:10298000DF2A010E12007ED8F3CF00F0F4CF01F061
:10299000F3CFE6FFF4CFE6FF1200020EDBCFE6FF37
:1029A000030EDBCFE6FF120040DE86EC37F0036E4D
:1029B00072DFA3EF0DF0E5520CDFBCEF13F0E15E28
:1029C000035018EF13F037DE4BEF14F0000EE66EF5
:1029D000020EE66EE60EE66E000E1200000EE66EC9
:1029E000010EE66EE40EE66E000E1200010EE76EBA
:1029F000E1DE9CDFEF501200E66ECDEC30F0006EB1
:102A0000080EE15E00501200020EE66E78EC33F024
:102A1000E9EF13F052EC32F047DF18EF13F020EC3F
:102A20002FF0036E38DF00091200E66E27EC32F05B
:102A3000E5521200656F58EF1CF099DE020EE12698
:102A40001200000EE66E060EE66E1200240E006EF8
:102A50005D0E76DF21DE21EF13F0E66E000EE66EEE
:102A6000030EE66EE80EE66E000E12000601006B25
:102A7000010EE66EE66A1200FDDEF80E006E5B0ED9
:102A8000ABEF14F01EEC30F0E552E5521200E552C7
:082A9000E552E552E552120087
:082A980088EC1AF0FB0EDBCF05
:102AA000F3FFDB06F35000090AE0D6EC1AF0FA0E49
:102AB00041EC1BF0F3E1011CF1E1010E01D0000E2D
:102AC000B7EF1AF088EC1AF03B0EE12402E3E1685C
:102AD000E652E16E010EDB6A020EDB6AF90EDBCF15
:102AE000F6FFFA0EDBCFF7FFFB0EDBCFF8FF080097
:102AF000F550DF6EDF5002E1DBEF19F0250EDF5CF1
:102B000002E0CEEF19F0030EDB6A040EDB6A050E5D
:102B1000DB6A060EDB6A070EDB6AF0EC19F02D0E9D
:102B2000DF5C0CE02B0EDF5C09E0200EDF5C06E0D2
:102B3000230EDF5C03E0300EDF5C1AE1DF50300A69
:102B400014E0130A0FE0030A0AE00B0A05E0060A84
:102B5000E4E1030EDB80E1D7030EDB82DED7030E58
:102B6000DB84DBD7030EDB86D8D7030EDB88D5D713
:102B70002A0EDF5C1BE1ECEC19F03AEC1AF010E0E5
:102B8000030EDB8028682968130EDBCF2DF0140EAE
:102B9000DBCF2EF0F5EC2CF0040E26C0DBFF03D0CB
:102BA000130E23EC1AF0F0EC19F00BD0090EDB6ACF
:102BB00091EC1AF003E005EC1BF0FAD7090E23ECB8
:102BC0001AF0030EDBB0DB982E0EDF5C1BE1F0EC9D
:102BD00019F02A0EDF5C0BE1ECEC19F03AEC1AF07C
:102BE00003E1130E75EC1AF0F0EC19F00BD0090E9E
:102BF000DB6A91EC1AF003E005EC1BF0FAD7090E42
:102C000075EC1AF0680EDF5C07E1F0EC19F0680E65
:102C1000DF5C1DE1030E18D0740EDF5C17E07A0E46
:102C2000DF5C14E0480EDF5C06E0540EDF5C03E07E
:102C30005A0EDF5C02E1020E07D06C0EDF5C03E08F
:102C40006A0EDF5C04E1010EC8EC1AF0C9DBDF504C
:102C50006E0A01E17FD31E0A01E192D1200A01E14F
:102C60008FD13F0A01E149D11A0A01E146D10D0A8B
:102C700001E143D1200A01E140D13A0A01E13DD10D
:102C8000200A01E13AD1260A01E135D10D0A01E11C
:102C900032D11A0A01E1D9D0200A4AE0300A1FE0F5
:102CA000460A0EE0250A01E083D3D950F90FE96EF8
:102CB000FF0EDA20EA6E010EEE5E000EEE5AEE5ABC
:102CC000D6EC1AF0250EE66E95DB03E1011C01E15E
:102CD00069D3D2EC1AF001E26BD3DB2A69D3080E78
:102CE000DB6A040EDB50010806E2040EDB049AECFA
:102CF0001AF0DB508BDB080EDB5009E0030EDB50D3
:102D0000010B05E172DB01E04DD3080EDB6A64DBE9
:102D1000EFCFDFFF4AEC1BF003E1011C01E142D3DE
:102D2000D2EC1AF001E3DB2A60DB01E141D33AD3B4
:102D3000070EDB5002080FE116EC1BF0030EDDEC72
:102D40001AF00E0EEECFDBFF0F0EEECFDBFF100EF4
:102D5000EECFDBFF20D0F70EDBCF03F0F80EDBCF9A
:102D600004F0020E035E000E045AF70E03C0DBFFF0
:102D7000F80E04C0DBFF03C0E9FF04C0EAFFCDEC9E
:102D80001AF0026A0E0E00C0DBFF0F0E01C0DBFF5F
:102D9000100E02C0DBFF0E0EDBCFE6FF0F0EDBCF07
:102DA000E6FF100EDBCFE6FFA8EC30F0E552E5526F
:102DB000E552130E27C0DBFF140E28C0DBFF060E02
:102DC000DB5005E0130E11EC1BF001E26ADB35EC81
:102DD0001BF002E2130E37DBF8EC1AF006E0040EEB
:102DE00011EC1BF002E2050E2EDB030EDBB005D06A
:102DF000FCDA01E0D7D2080EDB6A090EDB6A0E0EA0
:102E0000DBCFF6FF0F0EDBCFF7FF100EDBCFF8FFA7
:102E10000800F550DF6EDF5014E03BEC1BF011E2D0
:102E20004AEC1BF003E1011C01E1BCD2BBDB01E376
:102E3000DB2A090EDB2AD9500E0FE96E000ECBDB20
:102E4000E7D7D3DA01E1B4D2ADD2C6DA110EEECFB4
:102E5000DBFF120EEDCFDBFF110EDBCFE6FF120E14
:102E6000DBCFE6FF1EEC30F0E552E552130EF3CF58
:102E7000DBFF140EF4CFDBFF060EDB5004E0130E75
:102E8000D0DB01E20EDB35EC1BF002E2130EDBDAE5
:102E9000AFDB05E0040EC5DB02E2050ED4DA030E5B
:102EA000DBB005D0A2DA01E07DD2080EDB6A090EA4
:102EB000DB6A110EDBCFE9FF120EDBCFEAFFEFCFAB
:102EC000DFFFDF5014E0D7DB12E2E4DB03E1011C9B
:102ED00001E168D267DB01E3DB2A090EDB2A110E70
:102EE000DB2ADBCFE9FF120EE8E3DB2AE6D77DDA47
:102EF00001E15ED257D2030EDB8E070EDB0410E138
:102F000095DB040E5ADB0A0EEECFDBFF0B0EEECF85
:102F1000DBFF0C0EEECFDBFF0D0EEECFDBFF6CD038
:102F2000070EDB5003082CE1030EDBAE0DD0B2DA46
:102F3000020E76DAEFCF00F0016A026A036A00AE91
:102F400039D00168026835D0F70EDBCF01F0F80EFA
:102F5000DBCF02F0020E015E000E025AF70E01C036
:102F6000DBFFF80E02C0DBFF01C0E9FF02C0EAFF91
:102F7000EFCF00F00A0E00C0DBFF0B0EDB6A38D08B
:102F8000070EDB50020809E1030EDBAE04D059DB6B
:102F900002AE10D00ED055DB0DD0030EDBAE12D03A
:102FA00079DA020E3DDAF9DA026A036A01AE02D07A
:102FB00002680368E2DA0C0E02C0DBFF0D0E03C0EC
:102FC000DBFF1AD0F70EDBCF02F0F80EDBCF03F0F9
:102FD000020E025E000E035AF70E02C0DBFFF80E6F
:102FE00003C0DBFF02C0E9FF03C0EAFFD6DAC5DA9F
:102FF0000C0EDB6A0D0EDB6A060EDB5005E1010EDE
:10300000F36E050EF3CFDBFF150EDB6A160EDB6ADF
:10301000D950370F006E000EDA20016E390E00C055
:10302000DBFF3A0E01C0DBFF380EDB6A080EDB6AFD
:103030000A0EAEDADF50780A12E0200A10E0280A01
:103040000CE0200A0AE03F0A06E00D0A02E0200A2E
:1030500008E1020E05D0080E03D0080EDF26100E80
:1030600097DA030EDBBE02D0DB92DB94DB50800BE1
:1030700024E08ADAD890030EEB50000A08E6000E2E
:10308000EE5C000EEE58000EEE58000EEE5815E203
:1030900013DA2B682C682D682E68FBEC38F00A0ECA
:1030A00022C0DBFF0B0E23C0DBFF0C0E24C0DBFFB6
:1030B0000D0E25C0DBFF2D0E08D0030EDBA202D0C3
:1030C0002B0E03D0DBA408D0200EF36E170EF3CF27
:1030D000DBFF150EDB2A02D0170EDB6A050EDB5074
:1030E00003E1B7D901E189D0560E006E730E016E6F
:1030F000000E026E070EDBCF03F0046A056A066A53
:1031000003C02BF004C02CF005C02DF006C02EF03B
:10311000D3D933EC39F000502224F36E0150232030
:10312000F46E02502420F86EF4CFF7FFF3CFF6FFD1
:103130000800090EF5CFDBFF580EDF5C0FE1610ED2
:10314000F36E090E7BD90AE3200E006E090EDBCF69
:10315000E7FF0050E75E090EE7CFDBFF070EDBCF8E
:1031600000F0016A026A036A0FDA00C02BF001C0A6
:103170002CF002C02DF003C02EF0EECF26F0EECFE3
:1031800027F0EECF28F0EFCF29F033EC39F029C04B
:10319000EDFF28C0EDFF27C0EDFF26C0EFFF390E81
:1031A000DBCFE9FFDB063A0EDBCFEAFF01E2DB060D
:1031B000090EDBCFEFFF150EDB2A4BD995E1030E8D
:1031C000DBA61DD06F0EDF5C06E1C1D918E3150E3A
:1031D000DB285BDA14D0780EDF5C09E0580EDF5C88
:1031E00006E0620EDF5C03E0420EDF5C08E1020EE7
:1031F000F36E160EF3CFDBFF02D0150EDB6A030E63
:10320000DB50100B0EE0040EDBCF00F0050EDB50A0
:10321000D880005406E2060EDB5003E1040EDB50BA
:1032200034DA95D90AE2050EDBCFE7FF150EDB5045
:10323000E75E050EE7CFDBFF02D0050EDB6A040E6A
:10324000DBCF00F0160E45D9D880005414E2160EDC
:10325000DBCFE6FF150EDBCFE6FF040EDBCFE6FF8C
:10326000050EDB50E552E75CE552D880E754E552A5
:10327000D880E7545FD9030EDB50010B0BE1080E39
:10328000DB5008E0B2D801E08DD0080EDB50BED88C
:10329000080EDB6A170EDB5007E088D9170EF1D94C
:1032A00003E1011C01E17ED0160EDB5016E07ED951
:1032B000300EE66E9FD802E1011C74E077D9DFCFB3
:1032C000E6FFB9EC38F0E552E552E552F4CF01F0F3
:1032D0000001F31C02E1011C65E0050EDBCF00F0EC
:1032E000160EDB50D880005409E2050EDBCFE7FF55
:1032F000160EDB50E75E050EE7CFDBFF300EE66E05
:10330000050ECBD94FE1390EDB2ADBCFE9FF3A0EB0
:1033100001E3DB2ADBCFEAFF090EEFCFDBFFDB5057
:103320000EE044D9090EADD902E1011C3BE0390E93
:10333000DB2ADBCFE9FF3A0EEDE3DB2AEBD755D8EA
:1033400031E1160EDBCFE6FF080EC3D8E552E724C5
:103350005DD82ED0070EDB50030A1CE0010A14E0F2
:10336000030A07E07BD9DBCFEEFF020EDBCFEDFFD8
:103370001FD0F5D8056A03AE02D0046805682CD8C2
:10338000BCD805C0EEFF14D0EAD803BE046824D828
:10339000B4D80ED063D9DBCFEFFF0AD07BD905E1DB
:1033A000011C03E1F368F46810D0FCD801E3DB2AC8
:1033B00079D977EF15F0010EDBCF00F0020EDBCFED
:1033C00001F000C0F3FF01C0F4FF3B0EE15C02E23C
:1033D000E16AE552E16ECBD029D9020EDDEF1AF099
:1033E00061D90800F550DF6E1200200EE66E080E5F
:1033F0004DEF1BF0B9EC38F0E552E552E552F3CF52
:1034000000F0F4CF01F00001F31C1200006E016A1D
:10341000D950010F4DD90050EE260150ED22120077
:10342000045E000E055AF70E04C0DBFFF80E05C05F
:10343000DBFF04C0E9FF05C0EAFF1200DBCFF4FFA9
:10344000F350F45C1200DB50E76E040EE7CFDBFFB5
:1034500012000A0EDBCF00F00B0EDBCF01F00C0EDA
:10346000DBCF02F00D0EDBCF03F000500110021095
:1034700003101200130EEECFDBFF140EEDCFDBFFB7
:10348000130EDBCF00F0140EDBCF01F00001800E35
:1034900001141200F70EDBCF04F0F80EDBCF05F0BD
:1034A0001200050EDB50E66ED950130F01D9E5521C
:1034B000E750EE6EED6A12000A0EDBCF26F00B0E1F
:1034C000DBCF27F00C0EDBCF28F00D0EDBCF29F081
:1034D0001200DBCFE6FF150EDBCFE6FF050EDB505B
:1034E000E552E724E552E7241200DB50CED8010E66
:1034F000F36E060EF3CFDBFF1200EE50EFCFEAFFC4
:10350000E96E02C0EEFF03C0EEFF04C0EEFF120042
:10351000D9CFE6FFDACFE6FFE1CFD9FFE2CFDAFF7E
:103520001200DFCFE6FFE66A6DEC39F0E552E552B6
:10353000F3501200E76E080EE7CFDBFF1200EECF6C
:1035400000F0EECF01F0EFCF02F0036A1200050E9B
:10355000DBCF00F0150EDB50D88000541200010EB6
:10356000DBCF02F0020EDBCF03F0046A1200E5525B
:10357000E5CFDAFFE7CFD9FF12000A0E00C0DBFF6C
:103580000B0E01C0DBFF1200D9500A0F58EF1BF0E1
:10359000F36E070EF3CFDBFF1200EECF00F0EFCF9C
:1035A00001F01200010EDB2A020E1200FC0EDBCF2E
:1035B000E6FFFD0EDBCFE6FF1200005E000E015AB3
:1035C000F70E00C0DBFFF80E01C0DBFF00C0E9FF13
:1035D00001C0EAFF1200DA20EA6EEF2AEECFF6FF12
:1035E000000EEF22EECFF7FFEF22EECFF8FF120032
:1035F000040EDBCFE6FF130EDB50E552E75C9ADFEB
:10360000DB5004DF060EDB501200090EDB500A0D02
:10361000F350DF24D00FE76E090EE7CFDBFFF0EFAA
:1036200019F0DB50F36E050E1EEF1AF0F70EDBCF2C
:1036300000F0F80EDBCF01F01200DFCFE6FFFAEF6B
:1036400019F028DF030EECDE9FEF1AF04CEC15F0BA
:10365000E552E552E552E55200091200BDDEEE509A
:10366000EFCFEAFFE96E010E1200130EDB50F36E8E
:10367000040E1EEF1AF0040EDB50F36E090E1EEF5F
:103680001AF0DBCFE6FFFAEF19F0E76E050EE7CF91
:10369000DBFF12008BDF1DEF1BF0DBCFE6FF86DFC9
:1036A00026EF1BF0D950F90FE96EFF0EEBEF1AF081
:0A36B000E96E000EDA20EA6E120047
:0636BA00D8CFE4FFE0CFD1
:1036C000E4FFE46EDACFE4FFE2CFDAFFE9CFE4FF14
:1036D000EACFE4FFF6CFE4FFF7CFE4FFF5CFE4FF56
:1036E000F3CFE4FFF4CFE4FFFACFE4FF00EE20F0E5
:1036F000140EE80403E3EECFE4FFFBD700EE00F086
:10370000200EE80403E3EECFE4FFFBD7E652D1EC52
:1037100034F0E55200EE1FF0200EE80403E3E5CF9D
:10372000EDFFFBD700EE33F0140EE80403E3E5CF22
:10373000EDFFFBD7E5CFFAFFE5CFF4FFE5CFF3FFD1
:10374000E5CFF5FFE5CFF7FFE5CFF6FFE5CFEAFFE1
:10375000E5CFE9FFE5CFDAFFE550E5CFE0FFE5CFC4
:10376000D8FF10000501009B1200F8EC20F0E65293
:10377000D9CFE6FFDACFE6FFA7EC34F0E552E55209
:10378000000901E192D0FE0E0401F85D03E0FF0E96
:10379000F85D72E10D0EDF5CEBE023EC21F001E15E
:1037A000F7073A0EDF5C22E1060EF75D1FE32B0EF2
:1037B0000701005D1BE1490E015D18E1500E025D3D
:1037C00015E1440E035D12E10401F705D1EC20F090
:1037D000EF6A050EE66E070EE66EFDEC35F0E5527B
:1037E000E552F3CFF8F40401F76BC2D70A0EDF5CA1
:1037F000BFE10401F707F751D1EC20F0EF6A040EA6
:10380000F75D37E32B0E0701005D33E1430E015DE9
:1038100030E14D0E025D2DE1540E035D2AE1070EED
:10382000DF6EDF50DF2AD1EC20F0EF50220804E0F9
:103830000401F751DF5CF5E3DF04D1EC20F0EF6A1F
:103840000401E36B140EE66EE66A070EE66E070EE1
:10385000E66EE30EE66E040EE66E57EC30F0006E98
:10386000060EE15E00500401F66BF76BFE0EF86F7A
:103870007FD728D9040116D00D0EDF5C04E023ECBD
:1038800021F001E1F707F8070A0EDF5C08E1F7070E
:10389000F751D1EC20F0EF6A15D90401F76BF8511C
:1038A00001E066D7F76BF86963D7E552FDEF20F0CA
:1038B000050100B1FDD709EC21F0E66E80EC34F093
:1038C000E5520601642B000E652309EC21F0F0E1BE
:1038D0001200F8EC20F0050100B1FDD7FD0EDBCFA2
:1038E000E9FFFE0EDBCFEAFFEF50E66E80EC34F02E
:1038F000E552FD0EDB2ADBCFE9FFFE0E01E3DB2AFA
:10390000DBCFEAFFEF50E7E1FDEF20F0F8EC20F02D
:10391000050100B1FDD7FE0EDBCFE6FF80EC34F0F1
:10392000E552FDEF20F0F8EC20F0040EE126030E46
:10393000E66EF0EC20F04C0E026E5B0EA7EC20F071
:1039400003E00601010EFF6F490E026E5B0EA7EC4D
:1039500020F003E00601010ECA6F040EE15C02E2F2
:10396000E16AE552E16EFDEF20F00601010ECB6F3A
:103970001200F8EC20F0020EE126FE0EDBCFD8F4A8
:103980000401D851040A01E18AD0250A73E0010A32
:103990005EE0600A3BE0500A2EE0130A1AE0010ADA
:1039A00012E0030A01E087D08180100EDC6F1E0E4A
:1039B000DD6FDE6B010ED96F0701A96B04EC21F0FE
:1039C00086EC0DF078D08180E0EC20F00401DC6B17
:1039D00072D0020EDC6FDD6FDE6BE66A36EC21F032
:1039E000010E04EC21F00401D96B0701A96B8AECEC
:1039F0000DF0819060D0030EDC6F230EDD6FDE6B67
:103A0000DFDB0601EC0E646F700E53D0D0DB2BECC5
:103A100021F0050EE66EE4DBDECFE9FFDDCFEAFF45
:103A2000EF5012E00401020EDC6F3C0EDD6FDE6B26
:103A3000D96B0701A96B8AEC0DF03AEC21F0060175
:103A40003D0E646F5B0E35D00401200ED86F060169
:103A5000CD6B0401DC6BD96B0701A70507E0050EF0
:103A6000A75D04E0780E0401E16F02D00401E16B70
:103A7000E26B21D03AEC21F00401030EDC6FD96B2C
:103A8000D9C4E6FF36EC21F0F00E0401DD6FDE6BE9
:103A90008AEC0DF006013F0E646F710E0AD0030E22
:103AA000DC6F050EDD6FDE6B8BDB0601640E646F71
:103AB000710E656FFDDE020EE15C02E2E16AE55225
:103AC000E16E9BD3FE0E0401F85D16E10701A70528
:103AD00005E0050EA75D02E0040169DBF7C4E6FF1F
:103AE000CCDBE30EE66E040EE66E4DEC22F0006ECB
:103AF000050EE15E00501200FF0EF85D06E0BDDB32
:103B00000EEC11F0E552E5521200D851200A01E105
:103B1000D6D0600A41E0610A23E0310A12E0110ABE
:103B200001E01200020EF75D01E2BAD14F0E07016B
:103B3000005D01E0B5D14B0E015D01E0B1D1100E89
:103B40003BD0020EF75D01E2ABD14F0E0701005DE5
:103B500001E0A6D14B0E015D01E0A2D1210E2CD0D7
:103B6000020EF75D09E34F0E0701005D05E14B0E04
:103B7000015D02E1400E20D0050E0401F75D01E277
:103B80008FD1450E0701005D01E08AD1520E015D23
:103B900001E086D1020E10D0020EF75D0FE3450E54
:103BA0000701005D0BE1520E015D08E1050E040105
:103BB000D95D04E150DB030E16EF21F0020E040183
:103BC000F75D07E34F0E0701005D03E14B0E015D5A
:103BD0000BE0530E0701005D03E1480E015D04E0B8
:103BE000050E0401D95D55E10401F76B3C0EDD6F54
:103BF000DE6B0701A86B010ECFDA0401D92BD95176
:103C0000080A45E00F0A37E0010A30E0030A29E01C
:103C1000010A22E0070A1BE0010A0AE0030A01E0A8
:103C200012000601290E646F5B0EEBDA050E0AD056
:103C300006011C0E646F5B0EE4DA050E11DB060E46
:103C40000FDB070E72DA260E646F5B0E1ED00601C4
:103C50000E0E646F5B0E19D00601000E646F5B0ED2
:103C600014D00601F60E646F5A0E0FD00601DE0E58
:103C7000646F5A0E0AD00601CA0E646F5A0EC1DA7A
:103C8000040E53DAC00E646F5A0E01EF21F0200EBD
:103C90008ED0070EF75D08E3080EE66EE66AB70EF3
:103CA000006E5A0E34DA09E00B0EE66EE66AAB0ED1
:103CB000006E5A0E2CDA01E0F3D0020E78D0050E19
:103CC000E66EE66AA50E006E5A0E21DA22E12C0E8F
:103CD0000701085D03E1070E091502D0070E07155D
:103CE0000701A76FE80403E0050EA75D06E10401E4
:103CF000E16BE26B010EE66E09D00401E151E211C5
:103D000001E0CED0780EE16FE26BE66A42EC32F071
:103D100050D0050EE66EE66A9F0E006E5A0EF7D979
:103D200011E10701A70505E0050EA75D02E004010A
:103D30003EDA010E31DA06013A0E646F710E61DA75
:103D400093EF1CF00A0EE66EE66A940E006E5A0EB1
:103D5000DED904E10701A8511AE113D0070EE66E7F
:103D6000E66A8C0E006E5A0ED2D925E1110EE66E6F
:103D7000E66A7A0E006E5A0ECAD90DE10701A85103
:103D800006E18DEC0DF008EC0EF09DEC0DF0070156
:103D9000010EA86F12000701A86B0701A70504E038
:103DA000050EA75D01E07CD08AEC0DF0400EE66EBA
:103DB000E0DDE5521200050EE66EE66A740E006E56
:103DC0005A0EA5D912E12C0E0701085D09E1070E74
:103DD0000715006E070E06150A0DF350002402D0D9
:103DE000070E06150701AA6F1200070EE66EE66AB7
:103DF0006C0E006E5A0E8BD908E00B0EE66EE66A6A
:103E0000600E006E5A0E83D903E10601CD6B1200DD
:103E1000090EE66EE66A560E006E5A0E78D93CE040
:103E2000060EE66EE66A4F0E046E5A0E056E066AC0
:103E300004C0E6FFE66E06C0E6FF02DA076E070E74
:103E4000E15E0750000928E00A0EE66EE66A440EBD
:103E5000086E5A0E096E0A6A08C0E6FFE66E0AC0CE
:103E6000E6FFEED90B6E070EE15E0B50000914E081
:103E70000B0EE66EE66AAB0E0C6E5A0E0D6E0E6AF7
:103E80000CC0E6FFE66E0EC0E6FFDAD90F6E070E35
:103E9000E15E0F50000904E18AEC0DF0400EC6D936
:103EA0001200A6D9020EE1260401D851200A29E009
:103EB000220A25E0230A17E0200A01E099D0010E2A
:103EC000D919D96FA1D9DDC400F00001016A030E30
:103ED00000160050011001E08BD00601E80E646F5F
:103EE000700E8FD985D0010ED919D96FE66EBED963
:103EF000010E0401D919E66E4AEC32F04BD0010EE6
:103F000017D0000ED880E155000EE25508E2E10717
:103F1000000EE25BE151E21102E1210E09D006013F
:103F2000CD51000808E2CD2BCD513C0804E2400EF3
:103F3000E66E1FDD2FD00701A70503E0050EA75D84
:103F400057E10601FD51FE1109E00601CC0506E12D
:103F50000601CD5103E1DEEC11F04AD00601CA059D
:103F60000AE10601CC0507E10601CA6B0A0E14D965
:103F7000AFEC12F03DD00601FF050EE1FF6B0A0E1B
:103F80000BD9E66A2DD9DECFE6FFDDCFE6FFAEEC3A
:103F900021F0E552E5522CD00601CB0513E10601D4
:103FA000CC0510E10701A95100080CE20601CD5132
:103FB00009E10601CB6B0A0EEFD88DEC0DF0E7ECB2
:103FC0000FF014D007016E51000812E20001F25107
:103FD00000080EE20601CD510BE10701A9510008CE
:103FE00007E248D98DEC0DF01FEC0FF09DEC0DF0C1
:103FF000020EE15C02E2E16AE552E16EFED00401EC
:10400000D851200A01E012000601CD51000801E25A
:1040100007D10701A80505E10701A951000801E240
:10402000D3D8010E0401D919D96F24D906014A0E3B
:10403000646F710E656F3CDC05014151000803E2BD
:10404000010EAAD8F9D73AEF21F012000401D85195
:10405000200A01E012000701A80509E10701A951A2
:1040600006E10601CD51000801E2DAD0ADD8120018
:104070000401DF2B000EE023DC5100080FE2DDC459
:1040800000F0DEC401F0DD07000EDE5B0050011021
:1040900005E1DCC4E6FF6DDCE55201D002DFCBD8E0
:1040A0003C0E2D6E2E6A6BD801E1A9DFC4D82C0E10
:1040B0002D6E010E2E6E63D801E1C7DFBCD8580EFD
:1040C0002D6E020E2E6E5BD806E1C0DF580E040185
:1040D000DF5F020EE05B1200200E0401D85D0AE1F2
:1040E0000701A80507E1010ED75C03E2010E04EF0A
:1040F00021F0B1D81200800E946E818064EC34F00F
:10410000E66AB4D80701A76B010E16EF21F0016E25
:10411000026A00C0E6FFE66E02C0E6FF91D8036EB9
:10412000070EE15E035000091200E66E78EC33F0F2
:10413000E552F3CF00F0F4CF01F0F3CFE6FFF4CF78
:10414000E6FF69EC1CF0E552E55206011200036E31
:10415000046A02C0E6FFE66E04C0E6FFDECFE6FFBB
:10416000DDCFE6FF85EC30F0056E050EE15E055013
:10417000F3CF00F0F4CF01F0F350F4101200DFC4DD
:1041800028F0E0C429F057EC39F024C000F025C035
:1041900001F0245025101200E66E27EC32F0E552B3
:1041A0001200EA6A000FE96E070EEA221200E16BC4
:1041B000E26B0701050EA76F010EE66E36EF21F0E8
:1041C0004AD8E66A36EF21F08DEC0DF081EC0EF066
:1041D0001FEC0FF043EC0FF0E7EC0FF09DEF0DF04C
:1041E00078EC33F0E552F3CFDEFFF4CFDDFF1200C1
:1041F000D9CFE6FFE1CFD9FF1200E552E7CFD9FFD3
:104200001200656F58EF1CF0E66E4AEC32F0E55292
:10421000120064C6F6FF65C6F7FF0800F5501200ED
:10422000050E0401DF5F000EE05B1200E66EB9ECE4
:104230001CF0E5521200DFC400F0E0C401F01200EF
:104240001CD820EF2FF0F751F72BABDFDFCFEFFFBC
:10425000640EF75D1200E66A4AEC32F0E552120095
:1042600064DF180E646F5B0E01EF21F042EC32F058
:10427000E5521200020ECCEF20F0000EE66E070EA3
:04428000E66E1200D4
:0C428400F8DA06012B0E646F5E0E05DBFD
:1042900027DB66DB0601270E646F5E0EFEDA020E78
:1042A0001ADBEED2E8DA0001F8B108D0CEDAFEC7A8
:1042B00064F6FFC765F658EC1CF0CFDAE1D2DBDA22
:1042C000030EE1260001F8B11BD0BFDA06011D0E76
:1042D000646F5E0EE2DADF6A200EDF5C10E2DFCF91
:1042E000E6FFE66A180E006E5E0EA6DAB3DADFCFDE
:1042F000E6FF78EC33F045DB33DBDF2AEDD7ADDAD0
:10430000030EE15C02E2E16AE552E16EB9D2B3DA92
:104310000001F8B122D0020EDEDA97DA0601A00E13
:10432000646F6D0EBADAF6DA9FC7E6FFA0C7E6FF44
:10433000A1C7E6FFA2C7E6FFF6DA0601160E646F14
:104340005E0EABDAE7DAA3C7E6FFA4C7E6FFA5C7B0
:10435000E6FFA6C7E6FFE7DA80DA92D28CDA020E31
:10436000E1260001F8B192D0B6DA6FDA07016851A0
:10437000040A15E0070A0EE0020A07E0010A16E146
:1043800006010A0E646F5E0E0ED00601FF0E646F0A
:104390005D0E09D00601F60E646F5D0E04D00601B5
:1043A000E70E646F5D0E656F58EC1CF007016751F6
:1043B000040A0EE0060A07E0030A0FE10601DE0E1A
:1043C000646F5D0E0ED00601C80E646F5D0E09D0DD
:1043D0000601BA0E646F5D0E04D00601A90E646F6B
:1043E0005D0E5BDA0601990E646F5D0E56DA020E01
:1043F000E66ED1DA3DDA4D0809E170C7E6FF71C714
:10440000E6FF930E006E5D0E17DA30D070C700F035
:1044100071C701F0040ED89000360136E804FBE1C4
:10442000050E0026000E01220A0E2D6E2E6A00C017
:1044300028F001C029F057EC39F028C000F029C05D
:1044400001F028C0E6FF29C0E6FF8D0E026E5D0E6A
:10445000036E046A02C0E6FFE66E04C0E6FF5ADAA5
:1044600086EC37F0056E070EE15E0550F3D90601C4
:10447000850E646F5D0E11DA07016F51E66EE66A14
:10448000800E006E5D0ED8D9E5D9E7D9020EE15C49
:1044900002E2E16AE552E16EF3D1EDD9080EE126C0
:1044A000FB0EDBCFDEFFDBCFDDFFE2D918E0E0D98A
:1044B000200815E0DDD960080DE257DAEFCF00F0F3
:1044C0007B0E005C07E2D4D9E00FE66E4EDAE552CF
:1044D000E750EF6EDF2A010EE8E3DB2AE6D7090E8C
:1044E000E66EE66A760E006E5D0E6AD910E194D92A
:1044F000090E7CD908E1F4D9E66AD2D90701320E57
:10450000FE6F6D0ECAD0C0D901E149D1C2D0050EEF
:10451000E66EE66A700E006E5D0E52D910E146D965
:104520000AE1050E27DA010EE66EBAD907015F0E21
:10453000FE6F6D0EB2D0A8D901E131D1AAD0040E20
:10454000E66EE66A6B0E006E5D0E3AD908E164D93C
:10455000040E4CD90EE098D901E121D19AD0030E76
:10456000E66EE66A670E006E5D0E2AD909E11ED975
:1045700003E1B6D9CCDEEBD087D901E110D189D0E7
:10458000050EE66EE66A610E006E5D0E19D908E151
:1045900043D9050E2BD90EE077D901E100D179D0AE
:1045A000040EE66EE66A5C0E006E5D0E09D909E146
:1045B000FDD803E195D9D2DECAD066D901E1EFD0AA
:1045C00068D0070EE66EE66A540E006E5D0EF8D8EF
:1045D00009E1ECD803E184D972DEB9D055D901E103
:1045E000DED057D0070EE66EE66A4C0E006E5D0E0A
:1045F000E7D855E1DBD84AE1020EDB6E070EF36E19
:10460000030EF3CFDBFFDB50E76E040EE7CFDBFFDB
:10461000040E4CD92FE3200EF36E020EDBCFF4FF15
:10462000F350F45C27E2040E7AD9200803E0040E6C
:1046300076D91DE1040EA1D9030E71D92D0807E129
:10464000030EDB28C7D8EF5002E1030E96D9030E04
:10465000DB5090D9020EDBCFF3FFDB2AF350E66E7E
:104660001FD9040EDB2ADB50E76E030ECFD7040EF2
:10467000DB2ACED707017F0EFE6F6D0EF5D8E5520F
:10468000E552020EE66EB9EC1CF062D0FDD801E1F5
:1046900086D00701200EFE6F6D0EE6D858D0080EAA
:1046A000E66EE66A430E006E5D0E8AD859E17ED84A
:1046B00054E1080EF36E050EF3CFDBFFF7D86FE37E
:1046C000050E2DD9200803E0050E29D943E1050E7A
:1046D00054D9080E4FD9FDEC35F0E552E552060EDF
:1046E000F3CFDBFF070EF4CFDBFFE7D8000E005C53
:1046F000000E015854E3E8D8100E025C000E035877
:104700004EE2FFD8FDEC35F0E552E552F350E66E8F
:10471000060EDBCFE9FF070EDBCFEAFFEA0EE92644
:10472000000EEA22E552E750EF6EC7D8080E005C93
:10473000000E015834E3E5D8C7D8080E025E000E1B
:10474000035A180E0224E66EBDEC33F0E552E55232
:10475000E55225D0050EDB2AB1D796D820E011D03E
:10476000050EE66EE66A3D0E006E5D0E29D80FE17D
:104770001DD805E1030EE66EB9EC1CF00FD084D80D
:104780000EE00701200EFE6F6D0E6ED806D0DBD84E
:10479000A7D886EC12F0E552E552E552E552080E34
:1047A000E15C02E2E16AE552E16E6AD0E66A9FD816
:1047B00097D8D0D8026E060EE15E025000091200B2
:1047C000BAD8C1D820EC2FF0036E070EE15E03507B
:1047D00000091200E76EFB0EDBCFE9FFFC0EDBCF1A
:1047E000EAFFE750E926000EEA221200E76EFB0E10
:1047F000DBCF02F0FC0EDBCF03F0E7500226000E09
:10480000032202C0E6FF03C0E6FFA4D8046E060E32
:10481000E15E045000091200010EE66E77EF24F00D
:10482000E76EFB0EDBCF00F0FC0EDBCF01F0E750B4
:104830000026000E012212007ED86CD886EC37F0DC
:10484000036E070EE15E035012004AD81BDDE552ED
:10485000E55212005FD8B0EF24F00601250E646F18
:104860005E0E656F58EF1CF0FF6F3AD852EF21F0E3
:104870007CD8EF501200D9CFE6FFE1CFD9FF12006C
:10488000E552E7CFD9FF1200000E0001F815120023
:1048900000C0E6FF01C0E6FF1200656F58EF1CF094
:1048A000BDEC33F0E552E552E5521200DBCF00F0EB
:1048B000FA0EDB28D88000541200060EDBCF00F081
:1048C000070EDBCF01F01200060EDBCF02F0070E61
:1048D000DBCF03F01200E66E27EC32F0E552120057
:1048E000FD0EDBCFE6FFFE0EDBCFE6FF120053D856
:1048F000DECFE6FFDDCFE6FF1EEC30F0E552C1EF84
:1049000024F0050EDB508CDF010E0026000E012284
:1049100048EF24F0000EE66E060EE66E1200DB5045
:1049200059DFEF50120052EC32F0006E060EE15EDD
:1049300000502AEF24F0016E026A00C0E6FFE66E26
:1049400002C0E6FF1200FB0EDBCFE6FFFC0EDBCF62
:10495000E6FF1200DECFE6FFDDCFE6FF2CEF30F002
:1049600069EC1CF0E552E5521200DECFE9FFDDCF25
:10497000EAFF120055DF48EF24F0DB502BDFEF6A2F
:104980001200E552F3CF00F0F4CF01F0F3CFE6FFD1
:10499000F4CFE6FF120078EC33F0E552F3CFDEFF00
:0649A000F4CFDDFF120060
:0A49A600DACFE4FFE2CFDAFFE9CF39
:1049B000E4FFEACFE4FFF6CFE4FFF7CFE4FFF5CF63
:1049C000E4FFF3CFE4FFF4CFE4FFFACFE4FF00EE1F
:1049D00020F0140EE80403E3EECFE4FFFBD700EE73
:1049E00000F0200EE80403E3EECFE4FFFBD7E6522D
:1049F00060BE70D80F0150BFD4D9A46AE55200EE52
:104A00001FF0200EE80403E3E5CFEDFFFBD700EE37
:104A100033F0140EE80403E3E5CFEDFFFBD7E5CF59
:104A2000FAFFE5CFF4FFE5CFF3FFE5CFF5FFE5CFE4
:104A3000F7FFE5CFF6FFE5CFEAFFE5CFE9FFE5CFEA
:104A4000DAFF1100F0DA900E6F6E6EAEFED7606A7C
:104A50000F01A00E196F1869016B200E006F506BCB
:104A6000E00E1D6F1C69800E096F680E086F400E06
:104A70000D6F800E0C6F116B106F706AD20E716E1D
:104A8000020E726E200E736E0001F951000802E2F0
:104A90006F6A02D0600E6F6ED08EA382A380030E69
:104AA000A56E020EE66E78EC33F0E552F3CFDEFF32
:104AB000F4CFDDFFDECFE9FFDDCFEAFFEFCFFDF082
:104AC0000701F46BFC6B020EE15C02E2E16AE55265
:104AD000E16EB0D20F0E65140701EB6F66CFECF7F5
:104AE00067CFEDF768CFEEF769CFEFF76ACFF0F752
:104AF0006BCFF1F76CCFF2F76DCFF3F7609EEC510F
:104B0000A60A01E147D1030A01E13BD1010A01E113
:104B100030D1070A01E126D1350A01E1D4D0030AD8
:104B200001E1BCD01C0A01E180D0010A01E17AD088
:104B30000C0A5EE0070A42E0020A26E0010A0CE0E5
:104B40008E0A01E01200ED5107016D5D02E0B5EC47
:104B50001CF0EDC76DF71200EDC76FF7EFC701F05E
:104B6000006AEE5107010024706F000E0120716F82
:104B7000F3C701F0006A0701F25107010024726FC8
:104B8000000E0120736F120003DA02E01BDAFEE16F
:104B9000E6D902E01EDAFEE1EBD902E021DAFEE11D
:104BA00000500C240701746F01500D20756F0250E6
:104BB0000E20766F03500F20776F1200E9D902E0C4
:104BC00001DAFEE1CCD902E004DAFEE1D1D902E05B
:104BD00007DAFEE100500C2407019F6F01500D2001
:104BE000A06F02500E20A16F03500F20A26F120081
:104BF000CFD902E0E7D9FEE1B2D902E0EAD9FEE17D
:104C0000B7D902E0EDD9FEE100500C240701A36FF3
:104C100001500D20A46F02500E20A56F03500F20ED
:104C2000A66F1200EDC766F712004D0E0001FD5D84
:104C300003E1EDC76EF726D0EDC726F0276A286A94
:104C4000296A490E2B6E060E2C6E2D6A2E6AFBEC1D
:104C500038F022C026F023C027F024C028F025C059
:104C600029F0F40E2626010E2722000E28222922E2
:104C7000E80E2B6E030E2C6E2D6A2E6A33EC39F083
:104C800026C06EF7EFC701F0006A0701EE51070179
:104C90000024646F000E0120656F1200EDC767F7F6
:104CA0000001F8A104D00F0E0701F01504D0070190
:104CB000F1390F0B0F0B0701686F07016A5170E0A4
:104CC0006A6B93EF1CF00701695107E0100E0701B2
:104CD000ED1503E10701010E6A6F0701ED390F0BB6
:104CE000010B0701696F0701ED5107016B5D05E1DC
:104CF0000701EE5107016C5D02E0B5EC1CF0EDC759
:104D00006BF7EEC76CF7800E07016B151BE107010F
:104D1000785179117A117B1115E1070174517511E0
:104D2000761177110FE074C778F775C779F776C7F2
:104D30007AF777C77BF707017807000E795B7A5B14
:104D40007B5B0ED0800E07016B152AE007017851BE
:104D500079117A117B1124E0786B796B7A6B7B6B1C
:104D6000B5EF1CF0EDC78EF7EEC78FF7F2C790F7DF
:104D70001200FD6B070EFD5D13E243D9FD5137D9DB
:104D8000F9D7FD6B070EFD5D0BE23BD9070EFD2544
:104D90002ED9F8D7EDC78AF7EEC78BF7EFC78CF798
:104DA0001200D9CFE6FFE1CFD9FFE6520F0E0F0177
:104DB00055150701EB6F56CFECF757CFEDF758CFEE
:104DC000EEF759CFEFF75ACFF0F75BCFF1F75CCFA3
:104DD000F2F75DCFF3F750CFDFFF0F01509F070EC3
:104DE000DF14040858E0070EDF1402081EE1070173
:104DF000EF51000804E2EEC795F7EFC791F7F351C2
:104E0000000804E2F2C796F7F3C792F7ED510008E5
:104E100004E2ECC797F7EDC793F7F15100083BE2C6
:104E2000F0C798F7F1C794F736D00701EC51FA0AAA
:104E300032E1EFC700F0016A026A036AF0C704F0CA
:104E4000056A066A076A080E1F0B02E0BBD8FEE17E
:104E5000FAD8F1C708F0096A0A6A0B6A100E1F0B2C
:104E600002E0B7D8FEE10050082407019B6F015013
:104E700009209C6F02500A209D6F03500B209E6FEB
:104E8000F3C701F0006A0701F25107010024996F8E
:104E9000000E01209A6FE552CDD01200C4D8000157
:104EA000F351DE6EDD6A0001FA5112E1B3D8015010
:104EB0000318E8AE02D0033404D00250005C035063
:104EC000015806E293EC1CF00001010EFA6F15D0B8
:104ED0000001FA0512E19ED8020E0226000E0322FE
:104EE00003500118E8AE02D0013404D00050025C37
:104EF0000150035802E20001FA6B020EE15C02E28B
:104F0000E16AE552E16E96D0120012000001FB2B1F
:104F1000000EFC23C2DF92D83C0E2D6E2E6A45D8BF
:104F200001E1BCDF8BD82C0E2D6E010E2E6E3DD80C
:104F300001E1EADF83D8580E2D6E020E2E6E35D8B1
:104F400006E1E3DF580E0001FB5F020EFC5B12007E
:104F500012000701FC5101E11200FC07120073D896
:104F6000F2C708F0096A0A6A0B6A100E1F0B1200DA
:104F700008500026095001220A5002220B50032239
:104F8000F3C70CF00D6A0E6A0F6A180E1F0B1200A1
:104F9000F0C700F0016A026A036AF1C704F0056A0B
:104FA000066A076A080E1F0B1200FBC028F0FCC03F
:104FB00029F057EC39F024C000F025C001F024504E
:104FC00025101200D8900436053606360736E80656
:104FD0001200D890083609360A360B36E806120059
:104FE000D8900C360D360E360F36E8061200EA6AF7
:104FF0007C0FE96E070EEA22E552E750EF6EFD2BBB
:105000001200FD29EA6AEC0FE96E070EEA22EF5062
:10501000E66E120007016F51006E016ADECF02F0EA
:10502000DDCF03F01200D9CFE6FFE1CFD9FF020EAA
:10503000E1261200E552E7CFD9FF1200FBC000F0D5
:10504000FCC001F012000450002605500122065059
:085050000222075003221200A6
:085058006EDACED9E840E84011
:105060003F0BE5D91BDA010EAFD9EF50F00BE83852
:105070000F0B006EC1D9030B100DF3500010D7D9E0
:10508000E66E010EA8D929DA1BE200500108000ED5
:10509000015416E2060E036E53DAC00B03C0E7FF9D
:1050A000E75204E0E8427F0BE706FCE1026E010EE6
:1050B0008BD9EF500F0B040DF3500210B8D901D06B
:1050C0003D0EE66E020E87D908DA09E200500208AA
:1050D000000E015404E234DA3F0BA9D901D03D0E91
:1050E000E66E030E78D9ECD1CFD9A9D921E28DD9BA
:1050F00001E3DB2AC0D916E1ED5014E1030EE66EA0
:10510000E66A71D9B4D901E6DFD90AE278D9EDD9D6
:1051100001E3DB2A19DADF2A010EF4E3DB2AF2D7F6
:10512000DE6ADD6A020EDB2A030EDFE3DB2ADDD74F
:1051300031DA013420E200500008000E01541BE275
:10514000B1D9C7D904E6030E005C000E015804E291
:1051500082D9F7E3DB2AF5D702DA89D901E6B4D997
:105160000AE24DD9C2D901E3DB2AEED9DF2A010ECA
:10517000F4E3DB2AF2D7F90EDBCFE9FFFA0EDBCF3F
:10518000EAFFEF6A040EE15C02E2E16AE552E16ED9
:1051900097D17AD954D91BE238D901E3DB2A6BD9EC
:1051A00010E1ED500EE1030EE66EE66A1CD95FD900
:1051B00001E68AD904E2CCD9FAE3DB2AF8D7DE6A21
:1051C000DD6A020EDB2A030EE5E3DB2AE3D7E2D930
:1051D00001341AE200500008000E015415E262D9B1
:1051E00078D904E6030E005C000E015804E233D9BE
:1051F000F7E3DB2AF5D7B3D93AD901E665D904E25A
:10520000A7D9FAE3DB2AF8D7040EE15C02E2E16AEF
:10521000E552E16E55D18FD9010ED6D8EF380F0B7C
:10522000006EEAD8040DF350001038D989D9E8404F
:10523000E8403F0B006E010EC7D8EF38F00B0010AE
:10524000E66E010EC8D8030EBFD8EFCF00F078D9B4
:10525000400DF350C00B0010E66E020EBCD830D1EA
:105260006AD9070EE126050EDB6A060EDB6AC4D892
:1052700001E197D0030EDB6A040EDB6A010EDB6AE4
:10528000020EDB6A3AD9D890015001E61DD94AE2F4
:10529000B3D848E0DF6AB0D82FE0DF502DE1FD0E33
:1052A000DBCFE9FFDB2AFE0EDBCFEAFF01E3DB2ADF
:1052B000EFCFDFFF2B0EDF5C05E3DF507A0802E360
:1052C000000E01D0010E000902E0000E09D02B0EE5
:1052D000DF5CF76A970FF66E700EF7220800F55044
:1052E000DF6EDF50D8E0240EDF5C02E1000E02D05A
:1052F0003D0EDF5CDF6ECFD77FD80CE0030EDB2ADC
:10530000040E01E3DB2ADF5007E0DF04E66ED5D8A8
:105310001BD902D0D2D8EF6A010EDB2A020EB2E30B
:10532000DB2AB0D7D950030FE96EDACFEAFFEE508F
:10533000ED109DE0F7D86FDFE552E552E552E552FA
:10534000010EDB6A020EDB6AD8D8030EDBCF02F057
:10535000040EDBCF03F00206000E035A01500318BF
:10536000E8AE02D0033404D00250005C0350015870
:1053700001E37DD701D9F9D8FB0EDBCFE9FFDB2AAA
:10538000FC0EDBCFEAFF01E3DB2ADED8050EDB2AC9
:10539000060E01E3DB2A010EDB2A020ED5E3DB2A2F
:1053A000D3D7B2D8EF6A050EDBCF00F0060EDBCF05
:1053B00001F000C0F3FF01C0F4FF070EE15C02E260
:1053C000E16AE552E16E7CD0E76EDDD8E750E92670
:1053D000000EEA221200E76E97D8E750E926000E89
:1053E000EA22A4EF2AF09ED837DE006E060EE15EB8
:1053F0000050DE6ADD6A1200C6D8EF501200DECF20
:10540000E9FFDDCFEAFFB5EF2AF085D8FD0EDB50CE
:105410000024E96EFE0EDB500120EA6EEF50E66ECE
:10542000DFCFE9FFDF2A010EDBCFEAFF1200F76AC8
:10543000560FF66E700EF7220800F55012006BD86A
:10544000FB0EDBCF02F0FC0EDBCF03F00250005C62
:10545000035001581200020EDBCFE9FF030EDBCF31
:10546000EAFF9DD8EF6A020EDB2A030E120092D8E3
:10547000D8900150120093D867D8D9CFE9FFDACF7E
:10548000EAFF030EEE18120056D8040EE126DE6A7B
:10549000DD6A020EDB6A030EDB6A1200E66E34D8A8
:1054A000A4EF2AF0D9CFE9FFDACFEAFF020EEECF60
:1054B000DBFF030EEDCFDBFF12005ED8CFEF2AF04B
:1054C000E552E7CFD9FF1200040E005C000E015830
:1054D000120021D8D89001501200F90EDBCF00F055
:1054E000FA0EDBCF01F001341200F90EDBCFE9FF39
:1054F000DB2AFA0EDBCFEAFF1200010EDBCF00F051
:10550000020EDBCF01F01200FB0EDBCFE9FFFC0E39
:10551000DBCFEAFF1200020EDBCF00F0030EDBCF81
:1055200001F01200F50EE66E050EE66EF10EE66E67
:10553000050EE66E1200D9CFE6FFE1CFD9FF1200CB
:10554000020E42DFEF501200E552E750EF6E1200FC
:1055500056DF86EC1CF0E552DF2A010E1200DECF8A
:10556000E6FFDDCFE6FFF3EF29F0F50EE926050EA5
:10557000EA22EF50E66E1200010EDBCFE9FF020EC9
:10558000DBCFEAFF1200FD0EDBCFE9FFFE0EDBCF23
:10559000EAFF1200DECF00F0DDCF01F01200F10EC5
:0855A000E926050EEA221200C3
:0855A800219E05D0219E29AED1
:1055B00002D0296C218E29C023F0226A336A326A14
:1055C000860E246E256A8BEF2CF0219E0CD0219E36
:1055D00029AE09D0266C271E281E291EE86A27221C
:1055E00028222922218E29C023F028C022F027C09A
:1055F00033F026C032F09E0E246E256A8BEF2CF01D
:10560000216AC7EC2CF0DFEC2CF021B66FEF2CF008
:1056100021A205D021BA6FEF2CF076EF2CF021BA41
:1056200082EF2CF021A005D021B86FEF2CF082EF93
:105630002CF021B876EF2CF0256A7F0E2A24246EF8
:10564000E86A25222F50245EE86A255A1A0E306E29
:105650002A6A326A336A226A236A2C50275E2D50E6
:10566000285A2E50295A000E2A5A09E72C5027266C
:105670002D5028222E502922000E2A2201D0328AB3
:10568000D8902736283629362A36D89032363336FF
:1056900022362336302EE1D7295028102710D8A4DF
:1056A000328A8BEF2CF0216AC7EC2CF0DFEC2CF067
:1056B00021B66FEF2CF021A205D021B86FEF2CF0AE
:1056C00076EF2CF021AA05D021B06FEF2CF076EF09
:1056D0002CF021B002D021A802D082EF2CF0256A54
:1056E0002F502A24246EE86A25227E0E245EE86A62
:1056F000255A326A336A226A236A2E502902F4CF6D
:1057000023F0F3CF22F02D502902F3503326F4502A
:105710002222000E23222E502802F3503326F4506A
:105720002222000E23222C502902F3503226F4505C
:105730003322000E222223222D502802F35032263B
:10574000F4503322000E222223222E502702F3503F
:105750003226F4503322000E222223222C5028021B
:10576000F4503226000E3322222223222D5027020B
:10577000F4503226000E3322222223228BEF2CF00B
:10578000206A2EAEC9EF2BF02D6C2E1EE86A2E2259
:10579000201E29AED1EF2BF0286C291EE86A2922A1
:1057A000201E57EC39F029BEE1EF2BF020AE000CA3
:1057B000286C291EE86A2922246C251EE86A252205
:1057C000000C20BED8EF2BF02188FF0C206AE86A7D
:1057D0002EAEF3EF2BF02B6C2C1E2D1E2E1E2C222A
:1057E0002D222E22201E29AEFEEF2BF0266C271E26
:1057F000281E291E272228222922201E33EC39F0B8
:1058000029BE15EF2CF020AE000C266C271E281E9A
:10581000291EE86A272228222922226C231E241E00
:10582000251E232224222522000C20BE05EF2CF069
:105830002188FF0C28C032F028502D02F4CF27F029
:10584000F3CF26F029502E02F4CF29F0F3CF28F021
:105850002D02F3502726F4502822E86A29223250DC
:105860002E02F3502726F4502822E86A2922000C41
:10587000216AC7EC2CF021B642EF2CF021A20FD008
:1058800021B407D07F0E296EFF0E286E276E266E7C
:1058900025D0800E296E01D0296A000EF6D721B0DE
:1058A000FBD7266A9F0E2A60EBD77E0E2A64F4D7B8
:1058B0009E0E2A5C07E0D890293228322732263201
:1058C0002A2AF6D721A40AD0266C271E281E291EB4
:1058D000E86A27222822292229AEDED712007F0E6D
:1058E0002A6EFF0E296E286E276E12007F0E21BED3
:1058F000FF0E2A6E02D07F0E2A6E800E296E286A55
:10590000276AF3D721AE04D0800E2A6E296AF7D712
:105910002A6A296AF4D72350221033103210F8E093
:1059200025BEF0D723BE0CD024502510EBE0D89034
:1059300032363336223623362406D8A02506F2D74F
:105940002550D4E12428D2E032AE11D07F0E32149B
:1059500002E133A00CD0332AE86A2222232207E393
:10596000D880233222323332242A2428BFE0245024
:10597000C9E033C027F022C028F02334296E243038
:105980002A6E29322A9E21BE2A8E75EF2CF02936E6
:105990002A3602E32184217E06E121802A6A296ACF
:1059A000286A276A12002A2803E0D88029321200C8
:1059B000D890293202E121821200218612002E366F
:1059C0002F3602E3218C217E06E121882F6A2E6A80
:1059D0002D6A2C6A12002F2803E0D8802E32120084
:1059E000D8902E32EAE1218A120029C033F028C073
:1059F00032F028502D02F4CF27F0F3CF26F02950B3
:105A00002E02F4CF29F0F3CF28F02D02F3502726F1
:105A1000F4502822E86A292232502E02F350272619
:105A2000F4502822E86A29222EAE1BEF2DF03250C6
:105A3000285E3350295A33AE000C2D50285E2E506C
:045A4000295A000CD3
:0C5A44002B434D45204552524F52004369
:105A50004C4F5345440053454E44204641494C0069
:105A600044415441204143434550540053454E4422
:105A7000204F4B002B4353513A0053544154453A65
:105A800020434F4E4E454354204F4B0053544154F6
:105A9000453A2000434F4E4E454354204F4B002B78
