:020000040000FA
:06000000DAEF63F01200CC
:020006001200E6
:06000800E6EF54F01200C7
:02000E000202EC
:0100100006E9
:020011000100EC
:020013000000EB
:060018009CEF1CF0120039
:02001E000A00D6
:100020008DC90000000A00004000000075C90000F2
:10003000E80700001800000070C90000FB0600007F
:100040000500000044C90000C80500002C000000A5
:10005000FFC800005D09000045000000A2C80000C4
:10006000000900005D00000039C8000060000000C9
:100070006900000013000000FE05000002000000FF
:100080000EC80000C80600002B0000001100000090
:08009000FE0400000200000064
:0800980009019E6B9F6B120031
:1000A00009015D6B12007F0E0501C85D08E10801C2
:1000B000DB0EC76F910EC86F000EF1EF0CF0090157
:1000C000010E5E6F050E20EC0EF00801CF0EC76F1B
:1000D000910EC86F000EF1EC0CF00A0E20EF0EF03E
:1000E0007F0E0501C85D04E1080139EC0DF006D072
:1000F0000801CA0EC76F910EC86F000EF1EF0CF029
:10010000BCEC0EF07F0E0501C85D05E1B7EC0DF00B
:100110002EEC1EF05AD009018D0549E1450E06016D
:10012000055D45E0410E055D42E0610E055D3FE085
:10013000670E055D3CE0500E055D39E0020E05C618
:10014000DBFF060EE66E060EE66E000EE66E050E90
:1001500053EC0DF01BEC0CF058EC0CF002E63FEC0D
:100160000DF005E22EEC0EF0F7E3DB2AF5D7000EDA
:10017000E66E050EE66E29EC0FF0000EE66E050E3B
:10018000ABEC0BF0C20EE66E910EE66E000E9EEC2E
:100190000BF0020EDBCF07F6080EE66E060E3FEC04
:1001A0000FF0000EE66E050EE66E6AEC0DF0B7EC91
:1001B0000DF029EC0FF052EC0CF0ABEC0DF0B7ECBD
:1001C0000DF045EC52F0E552E552E552E5520801DA
:1001D00039EC0DF0F1EC0CF0030EE15C02E2E16AA7
:1001E000E552E16EA7EF0BF0A2EC0BF0050EE12655
:1001F000D650016E006A030E00C0DBFF040E01C082
:10020000DBFFD750D1EC0CF0DF6A080EDF5C0BE2AD
:10021000DF50EA6AE30FE96E090EEA22EF50D1ECF3
:100220000CF0DF2AF2D7030EDBCFE6FF040EDBCFA4
:10023000E6FF01EC51F0E552E552DF6A160EDF5C95
:1002400011E2ADEC0BF004BE05686BEC0CF0DF5076
:10025000EA6A5F0FE96E090EEA22E552E750EF6E97
:10026000DF2AECD70901756B090E66EC0EF009EC7C
:100270000CF0D80EE66E040EE66E0DEC0CF036ECCB
:100280000FF00DEC0CF0160EE66EE66A44EC0DF085
:1002900023EC5FF0026E0A0EE15E02500801BA0E16
:1002A000C76F910EC86F000EF1EC0CF044EC0DF02E
:1002B000C3EC0CF07CEC0EF063EC0CF045EC52F06F
:1002C0006BEC0EF008017CEC0EF0080E66EC0EF004
:1002D00009EC0CF00DEC0CF0C3EC0CF039EC0DF06B
:1002E000F1EC0CF0050EE15C02E2E16AE552E16E30
:1002F000A7EF0BF00DEC0EF0B7EC0DF036EC0FF0B5
:10030000B7EC0DF00AEC3EF0E552E55205EC0CF0CE
:10031000FE0EDB50020A11E0030A03E0010A1EE1AF
:1003200009D0B9EC0CF071EC0DF003E1DE52DD50B8
:10033000011814E050EC0EF011D0B9EC0CF071EC97
:100340000DF003E1DE52DD50011808E0ACDE50ECA8
:100350000EF0010EF36EFE0EF3CFDBFFFE0EDB5050
:10036000006E020EE15C02E2E16AE552E16E0050CD
:10037000A7EF0BF0C0EC0EF0020E66EC0EF020ECD6
:100380000DF0B10EE66E910EE66E000E64EC0BF011
:10039000C1EC0DF0ABEC0DF0A5EC0DF0E66E020E2D
:1003A000DBCFE6FF030E23EC0DF0C1EC0DF060C0D7
:1003B000E6FF61C0E6FF3BEC0BF00001625125EC6B
:1003C0000EF0000166510F0A20E0020A18E0090A47
:1003D00010E0060A08E0030A1EE1A50EE66E910E83
:1003E000E66E000E1DD09D0EE66E910EE66E000EBE
:1003F00017D0970EE66E910EE66E000E11D08E0E9F
:10040000E66E910EE66E000E0BD0850EE66E910E36
:10041000E66E000E05D07C0EE66E910EE66E000EC6
:1004200043EC0CF000016851040A18E0070A10E0E0
:10043000020A08E0010A18E1720EE66E910EE66EFD
:10044000000E14D0690EE66E910EE66E000E0ED010
:10045000620EE66E910EE66E000E08D0550EE66E48
:10046000910EE66E000E02D0A5EC0DF043EC0CF000
:100470003DEC0CF04D080FE173C0E6FF74C0E6FFE1
:100480003BEC0BF075C0E6FF76C0E6FFF5EC0EF036
:10049000C8EC0DF01AD073C000F074C001F0040E67
:1004A00049EC0DF0FDE16AEC0BF080EC0BF0C1ECD7
:1004B0000DF075C000F076C001F0040E49EC0DF0AF
:1004C000FDE16AEC0BF080EC0BF0C1EC0DF00001EB
:1004D000635125EC0EF064C0E6FF65C0E6FF3BEC1F
:1004E0000BF00001695125EC0EF000016A5125EC7A
:1004F0000EF00001675125EC0EF00001665125EC6D
:100500000EF00001685125EC0EF0AFC000F0016A5A
:1005100000BE01682EEC0FF0B0C0E6FFB1C0E6FFF0
:100520003BEC0BF0B7C000F0016A00BE01682EEC96
:100530000FF09CEC0CF0F5EC0EF0FFEC0CF0C1ECC5
:100540000DF08E0EE66E090E87EC0BF0040EE15CEA
:1005500002E2E16AE552E16E0050A7EF0BF00DEC0C
:100560000EF027EC0DF04E0EE66E910EE66E000ECC
:10057000F9EC0EF0D8EC0BF0D9EC0EF000BE0168EF
:1005800053EC0BF0900EE66E090EC4EC0EF002E296
:10059000E16AE552E16E0050A7EF0BF0A2EC0BF020
:1005A000070EE126470EE66E910EE66E000E3AEC5F
:1005B0000CF009EC0CF0DF6A040EDF5C6FE278EC03
:1005C0000DF0EFCF00F0000EE76E0018E8AE02D09D
:1005D000003403D0E750D880005452E2DF50EA6A7A
:1005E000990FE96E000EEA22EFCF04F004C029F063
:1005F0002AEC4BF027C000F028C001F029C002F01F
:100600002AC003F0560E2C6E0E0E2D6E8D0E2E6E21
:100610003E0E2F6EEDEC4BF0B5EC4DF0030E26C008
:10062000DBFF040E27C0DBFF050E28C0DBFF060E34
:1006300029C0DBFF010EE66EE66AD950030FDBEC42
:100640000CF0E66AE66AE66A0DEC0CF08DEC3FF021
:10065000006E0B0EE15E005009EC0CF078EC0DF032
:10066000EF50D80F006E016A00BE016829EC0EF051
:10067000A5EC0DF0E66E32EC0FF0A5EC0DF005D018
:10068000420EE66E910EE66E000EE66E0DEC0CF07C
:100690000AEC0EF009EC0CF0DF2A8ED7B6C000F0A1
:1006A000016A00BE016829EC0EF0E66AE66AE66AB5
:1006B00032EC0FF0920EE66E090E87EC0BF0070E8F
:1006C000E15C02E2E16AE552E16E0050A7EF0BF057
:1006D000BCEC0EF0010EF36E020EF3CFDBFFF4EC78
:1006E0000CF03B0EE66E910EE66E000E1EEC0FF067
:1006F0000F0EF66E000EF76E000E17EC0CF0100EDB
:10070000F66E000EF76E000E17EC0CF048EC0CF0D5
:10071000ABEC0DF07FEC0DF0BCEC0DF0020E58ECE4
:100720000EF03FEC0FF039EC0FF0800EE66E000E8D
:10073000D3EC0BF00001BB51EBEC0DF00001F551D7
:10074000EBEC0DF0C90EE66E000ED3EC0BF0BE0E16
:10075000E66E000ED3EC0BF0940EE66E090E87ECFD
:100760000BF0030EE15C02E2E16AE552E16E00503B
:10077000A7EF0BF0A2EC0BF0060EE12600017B5177
:100780007C117D117E1109E1020EDB6A030EDB6A2A
:10079000040EDB6A050EDB6A1DD07B0EE96E000ECF
:1007A000EA6EEE500001775D006EEE507859016EF2
:1007B000EE507959026EEE507A59036E020E00C067
:1007C000DBFF030E01C0DBFF040E02C0DBFF050EE2
:1007D00003C0DBFF00016B51E66EE66A2D0EE66E8C
:1007E000910EE66E000E1EEC0FF000016C51EBEC6A
:1007F0000DF000017051EBEC0DF092C000F0016AB9
:1008000000BE016853EC0BF000019351EBEC0DF0CE
:1008100094C000F0016A00BE016853EC0BF09DC06B
:10082000E6FF9EC0E6FF38EC0BF09FC0E6FFA0C0DD
:10083000E6FFA1C0E6FFA2C0E6FF35EC0CF0000128
:100840007151EBEC0DF0D950020FDBEC0CF035ECF4
:100850000CF07FC000F0016A00BE016853EC0BF0A1
:1008600000016D51EBEC0DF0B4C000F0016A00BE68
:10087000016853EC0BF0B3C000F0016A00BE0168E0
:1008800053EC0BF0E8EC0BF0A5EC0DF0F5EC0BF0F5
:1008900000016E51EBEC0DF07CEC0CF0A5EC0DF0D2
:1008A000F5EC0BF000016F51EBEC0DF0960EE66EDF
:1008B000090E87EC0BF0060EE15C02E2E16AE552FC
:1008C000E16E0050A7EF0BF00DEC0EF0260EE66E79
:1008D000910EE66E000E3AEC0CF0BCEC0DF0060149
:1008E000CF51D011D11116E0CFC6F6FFD0C6F7FF19
:1008F000D1C6F8FF0800F5500DE0CFC6E6FFD0C620
:10090000E6FFD1C6E6FF83EC0BF0A5EC0DF0E66E3A
:1009100083EC0BF0160EE66E910EE66E000EE66EA0
:1009200083EC0BF09C0EE66E090EC4EC0EF002E2B6
:10093000E16AE552E16E0050A7EF0BF00DEC0EF00E
:1009400086EC0DF00F0EE66E910EE66E000EF9ECE1
:100950000EF03EEC0EF020EC0DF038EC0BF0000148
:100960007151EBEC0DF0D9EC0EF000BE016853ECC8
:100970000BF027EC0DF0EFEC0EF0D8EC0BF0FD0EC9
:10098000DB0404E1980EE66E090E03D09A0EE66EC3
:10099000090EC4EC0EF002E2E16AE552E16E00508D
:1009A000A7EF0BF0A2EC0BF0090EE126010EF36E9F
:1009B000080EF3CFDBFF06EC0DF0EE50ED1001E179
:1009C00038D1FD0EDBCFDEFFDBCFDDFF3DEC0CF0E1
:1009D00009E03DEC0CF0200805E0DF2A010EF6E30B
:1009E000DB2AF4D73DEC0CF0200801E022D18DEC9D
:1009F0000DF001E3DB2AEF6A5DEC0BF044EC0DF047
:100A000058EC0DF001E115D1090EE66E26EC0CF064
:100A1000D80EE66E040E99EC0BF05DEC0BF02BECAF
:100A20000CF05DEC0BF00DEC0DF0B7EC0DF063ECA1
:100A30000CF06AEC0DF0B7EC0DF0ABEC0DF058ECEF
:100A40000DF001E0F6D05DEC0BF0000EE66E060E48
:100A500053EC0DF044EC0DF000EC0CF0D80EE66E0B
:100A6000040E99EC0BF0B7EC0DF02BEC0CF0B7EC9E
:100A70000DF00DEC0DF063EC0CF083EC0EF0E5ECFA
:100A80000CF0A7EC0CF002E63FEC0DF00AE213ECE0
:100A90000FF055EC0CF0060EDB2A070EF2E3DB2A12
:100AA000F0D763EC0CF08BEC0EF0E5EC0CF0A7EC5F
:100AB0000CF002E63FEC0DF00AE213EC0FF052EC02
:100AC0000CF0060EDB2A070EF2E3DB2AF0D7090151
:100AD000010E5D6F0A0EE66E26EC0CF067EC0BF073
:100AE00050084EE109018D5127E1060EDB6A070E21
:100AF000DB6AA7EC0CF004E6160E005C000E015851
:100B000019E2ADEC0BF004BE05686BEC0CF0060EC0
:100B1000DBCFE9FF070EDBCFEAFF760EE926090EF1
:100B2000EA22E552E750EF6E060EDB2A070EE1E3FC
:100B3000DB2ADFD709018C6B8D6B070EE66E910EF9
:100B4000E66E000E9EEC0BF09BEC0DF000EC0CF052
:100B500053EC00F089EC0CF00901010E8D6FE66E8C
:100B600026EC0CF0E80EE66E040E99EC0BF09BEC14
:100B70000DF02BEC0CF09BEC0DF00DEC0DF002D019
:100B800009018D6B0001F79FF4EC0CF0E50EE66EA9
:100B9000900EE66E000E3CEC0FF00F0EF66E000E9F
:100BA000F76E000EFFEC0DF058EC0BF0100EF66E29
:100BB000000EF76E000EFFEC0DF058EC0BF048EC59
:100BC0000CF019EC0EF07FEC0DF0CCEC0DF0060102
:100BD000CC51CD11CE110CE0CCC6E6FFCDC6E6FF60
:100BE000CEC6E6FF19EC0EF00AEC0EF0CCEC0DF0E0
:100BF000080E58EC0EF058EC0BF00001F651EAEC40
:100C00000EF00001F751E66EE66AA5EC0DF0E66E17
:100C100019EC0EF0FBEC3EF021EC0FF0CCEC0DF0FB
:100C20000001F851EAEC0EF0140E14EC0CF089EC13
:100C30000CF0090EE15C02E2E16AE552E16EA7EF19
:100C40000BF0BCEC0EF009015D511AE1070EE66EE7
:100C5000E66ADD0EE66E900EE66E000EF2EC0EF029
:100C60005DEC0DF001E0B9D0070EF8EC0BF09ADE68
:100C7000E552E5520501060ED06F0E0ED16FADD0D4
:100C800036EC0EF0B7EC0DF05DEC0BF0AFEC0EF0C7
:100C9000ABEC0DF055EC0CF0050EE66EE66AD70EE7
:100CA000E66E900EE66E000EF9EC0EF05DEC0DF0C7
:100CB00006E0400EE66E48EC1FF0E5528ED0D950AB
:100CC000FD0FD5EC0EF0050EEE6E060EED6E5CEC33
:100CD0000CF0EF50450835E193EC0EF04D0831E192
:100CE00006EC0DF0020EEE26000EED2236EC0EF0B4
:100CF000010EE66E050EE66E010EF8EC0BF0AFECA1
:100D00000EF01BEC0CF058EC0CF002E63FEC0DF092
:100D100005E22EEC0EF0F7E3DB2AF5D7ABEC0DF095
:100D2000010EE66E050EABEC0BF05CEC0CF0EFCFB9
:100D300000F5D950FD0FD5EC0EF0000EEE6E050E4D
:100D4000ED6E0001F7BF03D00001150EF86F5CECEB
:100D50000CF0EF50430A37E0190A11E01B0A3DE19D
:100D6000D00EE66E900EE66E000E9EEC0BF00901C2
:100D70005E5133E153EC00F080EC00F01ED093ECB8
:100D80000EF030081DE00001010EBA6F09015E513E
:100D900024E153EC00F0E66ABAEC01F0E552E66AB1
:100DA000AFEC02F0E552E66ACEEC02F0E552E66AFC
:100DB0008FDCE552E66ADEDCE55270EC00F00DD027
:100DC0000001BA6B0AD0010EF8EC0BF00ED8E55218
:100DD000E55209015E5101E1DBD9030EE15C02E25B
:100DE000E16AE552E16EA7EF0BF0C0EC0EF0FD0EEC
:100DF000DBCFDEFFDBCFDDFF3DEC0CF009E03DECAF
:100E00000CF02C0805E0DF2A010EF6E3DB2AF4D70C
:100E10003DEC0CF02C0805E18DEC0DF001E3DB2A34
:100E2000EF6A5DEC0BF072EC4EF0E552E552F3CF59
:100E30009EF9F4CF9FF9DECFA0F9DDCFA1F9040E22
:100E4000E15C02E2E16AE552E16EA7EF0BF0A2EC91
:100E50000BF0060EE126020E20EC0EF0310E090119
:100E60009E1901E19F5101E173D1290E9E1901E103
:100E70009F5101E15BD1280E9E1901E19F5101E1D3
:100E800028D1060E9E1901E19F5101E11ED1050EE8
:100E90009E1901E19F5101E10FD1040E9E1901E15C
:100EA0009F5101E1C0D0030E9E1901E19F5101E164
:100EB00082D0020E9E1901E19F512AE0010E9E1977
:100EC00001E19F5102E0000E5AD1DE6ADD6A58EC62
:100ED0000CF004E6100E005C000E015801E34ED148
:100EE000ABEC0DF0C50EE66E900EE66E000E3CEC1F
:100EF0000FF0100EEAEC0EF030EC0DF0EF50EAECD3
:100F00000EF080EC00F0DF2A010EE1E3DB2ADFD7F0
:100F100014EC0DF0DCDB09E079EC0EF006E0020EDB
:100F2000DB2A030EF7E3DB2AF5D779EC0EF001E0BC
:100F3000BCD0C9EC0CF001E3DB2A49EC0EF001E077
:100F4000AED094EC0DF004E6100E025C000E0358D7
:100F500001E3A5D0B0EC0DF072EC4EF0E552E55295
:100F6000F350E66E30EC0DF0E552E750EF6E58ECC2
:100F70000CF004E6080E005C000E015810E3B0EC23
:100F80000DF0C8EC0EF0080E005E000E015A180EAF
:100F90000024E66E79EC5DF0E552E552E5524EEC48
:100FA0000DF00F0EEE1804E1ED5002E176EC54F076
:100FB000EBEC0CF07FD0DE6ADD6A58EC0CF004E656
:100FC000200E005C000E015801E3D8D0DFCFE6FF11
:100FD00026EC0CF04EEC0DF0090EEE1804E1ED508D
:100FE00002E167EC0DF0ABEC0DF0BA0EE66E900E80
:100FF000E66E000E3CEC0FF0200EEAEC0EF0B0ECCA
:101000000DF0A5EC0DF0E66E040EDBCFE6FF050E4D
:1010100023EC0DF0CCEC0DF080EC00F0DF2A010E9B
:10102000CCE3DB2ACAD714EC0DF051DB09E079ECF4
:101030000EF006E0020EDB2A030EF7E3DB2AF5D7FB
:1010400079EC0EF032E1C9EC0CF001E3DB2A49EC5B
:101050000EF025E194EC0DF004E6180E025C000E93
:1010600003581DE2B0EC0DF0DFCFE6FF79EC5DF048
:10107000E552E552E552EBEC0CF001DB4EEC0DF0E5
:10108000020EEE1801E1ED5007E04EEC0DF00E0EF1
:10109000EE181CE1ED501AE176EC54F017D0D40EA6
:1010A000E66EC40EE66E000E05D0A80EE66EC40E07
:1010B000E66E000EE4DA0AD0EBEC0CF0CDEC0EF0AC
:1010C000040EE66E48EC1FF058D063DA80EC00F0B6
:1010D00055D014EC0DF0FBDA09E079EC0EF006E0E7
:1010E000020EDB2A030EF7E3DB2AF5D779EC0EF0CC
:1010F00015E1C9EC0CF001E3DB2AEF6A1BEC0DF003
:1011000031EC29F0E552E552B0EC0DF0C3EC0CF0F7
:10111000CA0EC76F910EC86F000E23D053EC00F0BB
:10112000A80EE66EC40EE66E000E21D00801AE0ECB
:10113000C76F900EC86F000EF1EC0CF01BEC0DF0B9
:10114000C3EC0CF0A80EC76F900EC86F000E09D04C
:101150001BEC0DF0C3EC0CF0A60EC76F900EC86F21
:10116000000EF1EC0CF0050E5FDBEBEC0CF0CDECBF
:101170000EF0020EE66E53EC3CF0E552010E006EEE
:10118000060EE15C02E2E16AE552E16E0050DFD258
:101190000001F7BF03D00001160EF86F020E20EC1D
:1011A0000EF0280E09019FAF02D0D89003D09E5DAB
:1011B000000E9F5907E39F3507E29E513108000E4C
:1011C0009F5502E253EC00F00901EB51EC11ED11D7
:1011D00019E0A0C9E6FFA1C9E6FF9EC9E6FF9FC9C5
:1011E000E6FF010EE66E07D0EDC9FBFFECC9FAFF82
:1011F0000901EB51F96EF8DF006E050EE15E00505B
:1012000000090AE124DE000907E1430EE66EC50E7F
:10121000E66E000ECDEC0EF070EC00F009019E6B56
:101220009F6BA0C9E9FFA1C9EAFFEF6A12008ADA41
:1012300009015D512CE05E51000829E3020EF4DA49
:101240009E0EE66E900EE66E000E78DA930EE66E57
:10125000900EE66E000EF9EC0EF092DB2EDAD0DA8C
:101260008A0EE66E900EE66E000EF9EC0EF088DB4C
:10127000AA0EE76EFB0EDBCFE9FFFC0EDBCFEAFF29
:10128000A0EC0DF0EF6A86EC0DF0BADA42DB5FD22B
:10129000C0EC0EF0020EDB6A030EDB6A09015D5141
:1012A0006EE0B4DBEE50ED106AE0220EF2EC0EF0D0
:1012B0003FEC57F0E552E552E552C1EC0DF0F3CFAB
:1012C00000F0F4CF01F0F350F41022E0020EDB2A1C
:1012D000DBCF00F0030E01E3DB2ADBCF01F0FD0ED4
:1012E00000C0DBFFFE0E01C0DBFFF1D910E0EFD93B
:1012F00022080DE079EC0EF004E142EC0EF02E0E27
:10130000EF6E020EDB2A030EF0E3DB2AEED7DFDB03
:10131000290EE66EE66ADE0EE66E910EE66E000EB1
:101320001EEC0FF0D950020FD5EC0EF0EE50ED1080
:101330000DE0C3D9860EE66E900EE66E000E3FEC11
:101340000FF095EC3EF0006E070E0BD06F0EE66EC0
:10135000900EE66E000E3FEC0FF06CEC3EF0006E6F
:10136000050EE15E0050BCEC0DF009015E51000875
:1013700003E2140E20EC0EF053EC00F0CADA040E77
:10138000E15C02E2E16AE552E16EE1D1DBD9000104
:101390006BA552D000016851040A18E0070A10E05A
:1013A000020A08E0010A18E1630EE66E900EE66E8E
:1013B000000E11D0580EE66E900EE66E000E0BD0A9
:1013C0004F0EE66E900EE66E000E05D0400EE66EF5
:1013D000900EE66E000EE7DB000166510F0A26E074
:1013E000020A1EE0090A16E0060A0EE0030A06E0F9
:1013F000E60EE66E8F0EE66E000E23D0370EE66E1A
:10140000900EE66E000E1DD0210EE66E900EE66E7A
:10141000000E17D0130EE66E900EE66E000E11D081
:10142000090EE66E900EE66E000E0BD0F70EE66E1D
:101430008F0EE66E000E05D0D90EE66E8F0EE66EAC
:10144000000EB1DB4D0E0601CB5D12E175C0E6FF6B
:1014500076C0E6FF42EC0FF09BDB64D973C0E6FF79
:1014600074C0E6FF49EC0FF093DB99EC0EF019D055
:1014700075C000F076C001F0040E0BDBFEE12AD946
:1014800042EC0FF0A1DB4ED973C000F074C001F044
:10149000040EFFDAFEE11ED949EC0FF095DBA0EC5B
:1014A0000EF081DBD0EC0EF0BB0EE66E8F0EE66E1A
:1014B000000EF2EC0EF06CDB35D9B90EE66E8F0E35
:1014C000E66E000E70DB4D0E0601CB5D0EE19FC097
:1014D00000F0A0C001F0A1C002F0A2C003F01DDA2C
:1014E0007EDB8DDA99EC0EF039D09FC004F0A0C0FD
:1014F00005F0A1C006F0A2C007F00FDA26C004F084
:1015000027C005F028C006F029C007F0040E1F0B05
:1015100027DA07E0D8900036013602360336E806AF
:10152000F9E1050E0026000E0122022203220A0E16
:101530002B6E2C6A2D6A2E6A00C026F001C027F09F
:1015400002C028F003C029F073EC63F048DBB8EC6C
:101550003EF0086E090EE15E0850F2DBF2EC0EF090
:101560006CEC3EF0050EE15EDDD80001C751C811FC
:101570000AE0E2D9A90EE66E8F0EE66E000EF2ECDE
:101580000EF03DDACFD8F1DB00C0F3FF01C0F4FF6D
:10159000DED043DB55DB9E0EE66E900EE66E000E4F
:1015A00069D9EADAD8DAF2DEE552E552020EE15CF8
:1015B00002E2E16AE552E16ECAD026EC0FF0870E36
:1015C000E66E8F0EE66E000EB9D88FDB02E2E16A9E
:1015D000E552E16EBCD026EC0FF05C0EE66E8F0E8D
:1015E000E66E000EABD881DB02E2E16AE552E16E05
:1015F000AED026EC0FF0D4DB2C0EE66E8F0EE66E2E
:10160000000E1EEC0FF0250EE66E8F0EE66E000E3D
:10161000E66E79D86ADB02E2E16AE552E16E97D0C4
:1016200026EC0FF00601CAA307D0D2D8FE0EE66E54
:101630008E0EE66E000E06D0CBD8E60EE66E8E0E4F
:10164000E66E000ED6DBDEDB57D9DE0EE66E8E0EC2
:10165000E66E000ECAD8DB0EE66E8E0EE66E000E4B
:10166000E66E51D842DB02E2E16AE552E16E6FD0EC
:10167000B6DB39EF0FF0B9DB8BDAC1EF0DF0E66EB8
:101680009EC9E6FF9FC9E6FF9E0EE66EC40EE66E9B
:10169000000EAFDB99DA8FDA6CEC3EF0036E050ECC
:1016A000E15E03501200D5DA9ADB8EDABCEF0DF062
:1016B000E66EBFDA6DDACCEF0DF0FD0EDBCFE6FFA4
:1016C000FE0EDBCFE6FF120094DBC8EF0DF0DADA96
:1016D000EF501200050E0026000E01220A0E2D6E9C
:1016E0002E6A00C028F001C029F0B4EC63F028C0D5
:1016F00000F029C001F028C0E6FF29C0E6FF120073
:1017000074DBE4EF0DF027DA85DABCEF0DF0E66E5E
:10171000FE0EDBCFE6FF7AEC01F0E552E552E55232
:10172000006E1200FD0EF3CFDBFFFE0EF4CFDBFFE9
:101730001200E66E15DA9ADBB0EF0DF05ADB94EC8E
:1017400057F077D3D9CFE6FFE1CFD9FF1200E552AA
:10175000E7CFD9FF12005EDB64D2E40E006EC50E47
:10176000016E000E026E75DAE66E08EC51F0E5527D
:10177000E7CF02F0E552E7CF01F0E552E7CF00F006
:10178000F3CF03F0F4CF04F0400E2D6E2E6AF3CFAA
:1017900028F0F4CF29F0C7EC4CF024C003F025C0AA
:1017A00004F0056A1200E66E1ADB68DABCEF0DF091
:1017B000F4EC3FF021DBA7C0E6FFA8C0E6FFA9C01C
:1017C000E6FFAAC0E6FF0BDBF4EC3FF0FCEF0EF007
:1017D000010EE66EE66ABCC000F0016A026A036AA6
:1017E000BCC0E6FF01C0E6FF6CD249DB02EF0FF0A0
:1017F000E76EBBDAE7500026000E012229EF0EF05B
:10180000B6D9FFEC56F06BEF0EF0E552E552BCEFA7
:101810000DF0DE52B1D9DD521200010EDBCFE6FF32
:10182000020EDBCFE6FF12000BDA53EF00F0E7D930
:1018300026DB39EF0FF0100EE66EE66AE80EE66E74
:10184000040EE8DA84DADE6ADD6A120032EC5DF05A
:10185000E552C1EF0DF044DAF3CF02F0F4CF03F01C
:10186000F3CFE6FFF4CFE6FF1200B9DAB8EC3EF0B2
:10187000FCEF0EF0BEDA0AEF0EF0DECFE9FFDDCFAF
:10188000EAFFEF501200E66E6BD9C4D9C1EF0DF03C
:101890000E0E1CDA90D9370EE66E910EE66E000E33
:1018A000E66E120064D937DABCD161D92CDAB9D12D
:1018B0006FDAD89001501200FD0EDBCFE9FFFE0E6B
:1018C000DBCFEAFF1200100EE66EE66AD80EE66E77
:1018D000040EE66E120000500324F36E0150042043
:1018E000F46E02500520F86EF4CFF7FFF3CFF6FF49
:1018F0000800F550E66E1200010EE66EE66ABDC005
:1019000000F0016A026A036ABDC0E6FF01C0E6FF9B
:10191000D8D180EC00F070EF00F00A0E2B6E2C6A2C
:101920002D6A2E6A9FC026F0A0C027F0A1C028F023
:10193000A2C029F073EF63F0C7C000F0C8C001F087
:10194000026A036AC7C0E6FFC8C0E6FFBAD1060E46
:10195000DBCF00F0070EDBCF01F0D8900150120072
:1019600026C000F027C001F028C002F029C003F013
:101970001200FC0EDBCFE9FFFD0EDBCFEAFF120009
:1019800023EC57F056D22EEC1EF0E552E55208013A
:101990001200020EDBCFE9FFDB2A030EDBCFEAFFEA
:1019A0001200006E016AD950030FFFD90050EE26D5
:1019B0000150ED221200F9D9EECFE6FFEECFE6FF9F
:1019C000EECFE6FFEFCFE6FF1200C1D9060EDB6ACD
:1019D000070EDB6A1200A50EE66EC40EE66E000E60
:1019E0001200C96FDFEF1DF00E0EF66E000EF76EDF
:1019F000000EF86E0800F550E66EE66A1200B8ECCC
:101A00003EF0046E090EE15E04501200D950FD0F45
:101A1000E96EFF0EDA20EA6E120023EC5FF0046E2E
:101A20000A0EE15E04501200020EA0C9DBFF030E95
:101A3000A1C9DBFF1200A0C9E6FFA1C9E6FF1200A1
:101A40009BD8D0EF0EF0DBCFE6FF3EEF0EF0A3C049
:101A5000E6FFA4C0E6FFA5C0E6FFA6C0E6FF1200B1
:101A6000DECFE9FFDDCFEAFFE60EE926000EEA222F
:101A70001200CC0EC76F910EC86F000E1200000E40
:101A8000005C040E015812005F0EE66E090EE66E51
:101A90001200D89000360136E8041200D9CFE9FFD1
:101AA000DACFEAFF1200E66E73EC57F06BEF0EF040
:101AB00053EC57F010D9000912009BEC56F0C1D935
:101AC0000009120065D90001800E01141200DAD855
:101AD000EF6A1200F0EC51F0006E060EE15E00506D
:101AE0001200EECF00F0EFCF01F0DF50001812002F
:101AF000DF50EA6A950FE96E000EEA22120095ECBB
:101B00003EF0026E070EE15E02501200FB0EDBCFCC
:101B1000E6FFFC0EDBCFE6FF1200DFCFE9FFDF2A96
:101B2000010EDBCFEAFF1200DECF02F0DDCF03F0C3
:101B3000D89003501200760EE66E090EE66E120083
:101B4000E750E926000EEA221200AF0EE66E910E73
:101B5000E66E000E1200DECFE6FFDDCFE6FF1200DC
:101B6000020EDBCFE6FF030EDBCFE6FF1200000E16
:101B7000E66E060EE66E1200F3CFDEFFF4CFDDFF59
:101B80001200020EF3CFDBFF030EF4CFDBFF1200D7
:101B90009BEC3EF021EF0FF0040EF3CFDBFF050EC0
:101BA000F4CFDBFF12001ED96CEC3EF0006E050E88
:101BB000E15E92EF0BF0F3CF00F0F4CF01F0F3CF42
:101BC000E6FFF4CFE6FF12009BEC3EF0026E070E3C
:101BD000E15E02501200E66EE66A38EF0BF0C0DEFE
:101BE00026C0E6FF27C0E6FF28C0E6FF29C0E6FFC3
:101BF000B10EE66E8F0EE66E000EF2EF0EF0F86E8E
:101C00000800F550E66EE66A390EE66E910EE66E55
:101C1000000E12006CEC3EF00CD194DD020EE126B9
:101C20001200E66E38EC5BF0006E080EE15E0050CC
:101C30001200040EDBCFE6FF050EDBCFE6FF12003D
:101C4000E66E53EC3CF0E5521200E66EE66A3BEFBE
:101C50000BF000C0E6FF01C0E6FF1200E4D8000E62
:101C6000E66E060E78DDDF2A010E1200CC0EE66E5F
:101C7000910EE66E000EB6D8C0EF0CF095EC3EF07B
:101C800021EF0FF0020EDBCFE9FF030EDBCFEAFFFF
:101C90001200EF6AD0DE72EC4EF0B7DD62EF0DF0AD
:101CA00080EC00F066DEDECFEEFFDDCFEDFF120050
:101CB000DBCFE6FFE66A340EE66E910EE66E000EAE
:101CC000120002C0E6FF03C0E6FF1200E66E32EC2F
:101CD0005DF0E5521200E552E552E552E552120080
:101CE000ADEC57F0E552E552120013DE020EE15C56
:101CF0001200EDDC2C081200B80EC76F910EC86FF1
:101D0000000EF1EF0CF0000EE66E020EE66EFA0E1B
:101D1000E66E040E1200000EE66E010EE66EF80E80
:101D2000E66E040E1200010EE76EC6DD09DFEF500D
:101D30001200F8DCC70EE66E8F0EE66E000E120083
:101D4000F1DCC30EE66E8F0EE66E000E1200E66E3C
:101D50008FEC5AF0006E080EE15E00501200ACEC01
:101D600052F0E552E55205EF0CF0FD0EDBCF00F02E
:101D7000FE0EDBCF01F01200E5DC030EE1261200BF
:101D8000E1DC040EE1261200C2DC020EE15C12006E
:101D9000DECF00F0DDCF01F0120071DC80EF00F04B
:101DA00000017251E66EE66A1200E96EDACFEAFFD0
:101DB0001200ABC0E6FFACC0E6FF5ADCADC0E6FFE8
:101DC000AEC0E6FF55DC0001B25105DFB5C000F042
:101DD000016A1200E66EE66AB8DE58EF0BF0B5DE77
:101DE0003FEF0FF0E66E5DEF0BF0AFDEE66EB0EFAB
:101DF0000DF0E66EB7EF0DF0006E090EE15E0050DB
:101E0000BCEF0DF08DEC3FF0046E0B0EE15E045064
:101E1000BCEF0DF0E66E000EE66E030EE66EFC0EF5
:101E2000E66E040E12000601006B010EE66EE66A15
:101E30001200006E050EE15E0050120045DCBCEFA2
:101E40000DF0006E070EE15E00501200E6DE14EFAA
:101E50000CF0ADEC57F0D9DCABEF0DF0FADE50DC56
:101E6000C1EF0DF0DADCB0DE09EF0CF039DFDBEFAB
:101E70000DF08EDEBCEF0DF027DCCCEF0DF0E66E42
:101E8000ABEF0DF0CF0EE66E8F0EE66E000EF2EFAA
:101E90000EF0CB0EE66E8F0EE66E000EF2EF0EF039
:101EA0000AEC1CF050EC1CF0EE6AEE6AEE6AEE6A88
:101EB00083EC1BF0EE6AEE6AEE6AEE6ABFEC18F095
:101EC000010EEE6E230EEE6E450EEE6E670EEE6E9A
:101ED000BFEC18F0040E01EC1AF0890EEE6EAB0E9A
:101EE000EE6ECD0EEE6EEF0EEE6EBFEC18F0080E3D
:101EF00001EC1AF0FE0EEE6EDC0EEE6EBA0EEE6E19
:101F0000980EEE6EBFEC18F00C0E01EC1AF0760E87
:101F1000EE6E540EEE6E320EEE6E100EEE6EE5525A
:101F2000E7CFD9FF12000AEC1CF0080EE126030EE1
:101F3000046E83EC1BF035EC1AF003E055EC1AF05C
:101F4000FDE13F0E00168FEC1AF0C4EC1BF0F90E09
:101F5000DBCF04F0FA0EDBCF05F0066A076A05AEA8
:101F600002D006680768030E1F0B07E0D8900436FE
:101F7000053606360736E806F9E183EC1BF0045017
:101F8000EF26EECF00F00550EF22EECF01F0065025
:101F9000EF22EECF02F00750EF22EECF03F0F90E62
:101FA000DBCF08F0FA0EDBCF09F00A6A0B6A09AE44
:101FB00002D00A680B68030E1F0B03E066EC1AF0F0
:101FC000FDE10850005C095001580A5002580B50BE
:101FD000035806E250EC1CF0EE2AEE22EE22EE222E
:101FE0006DEC1AF0026A036A01AE02D0026803685F
:101FF0001D0E55EC1AF0FDE150EC1CF0FDEC1BF051
:10200000400E046E056A066A076AD9CFE9FF3BEC09
:102010001AF0EE500758060E00C0DBFF070E01C095
:10202000DBFF6DEC1AF027EC1CF001500318E8AE52
:1020300002D0033404D00250005C035001586AE31C
:10204000060EDBCFE6FF070EDBCFE6FF29EC1AF02A
:1020500006EC1CF0E9CF02F0EACF03F0DB50E924F4
:10206000006E010EDB50EA2085EC1AF0BAEC56F057
:10207000046E060EE15E045006EC1CF020EC1AF033
:10208000BFEC18F0E9CF02F0EACF03F044EC1AF00D
:10209000060EDBCF28F0070EDBCF29F0040E28C098
:1020A000DBFF050E29C0DBFF3F0EE76EEDEC1BF0FA
:1020B000E7500026000E0122E6EC1BF00150031849
:1020C000E8AE02D0033404D00250005C0350015843
:1020D0001EE2040EDBCF02F0050EDBCF03F0FB0E99
:1020E000DB500224006EFC0EDB50032085EC1AF05E
:1020F000BFEC18F0E9CF04F0EACF05F044EC1AF099
:1021000043EC1CF0400EEE26000EED22CDD72EEC57
:102110001CF004D0040EDB6A050EDB6AE6EC1BF053
:10212000040EDB50025C006E050EDB50035885EC9C
:102130001AF05CEC1AF0046EFC0EDB500720056E02
:1021400004C0E6FFE66E06EC1CF0E9CF0AF0EACF29
:102150000BF0DB50E924086E010EDB50EA20096E1B
:1021600008C0E6FFE66EBAEC56F00C6E060EE15EB5
:102170000C50080EE15C02E2E16AE55230EF1AF021
:102180007AEC1AF0080E4FEC1AF0100E01EC1AF06F
:1021900020EC1AF0D9CFE6FFDACFE6FF74EC1AF0A4
:1021A000030E046E35EC1CF0100E01EC1AF035EC49
:1021B0001AF003E055EC1AF0FDE13F0E00168FEC2B
:1021C0001AF073EC1BF0380EEE5C000EEE58000EA9
:1021D000EE58000EEE580DE2380E046E056A066ADF
:1021E000076A4CEC1CF03BEC1AF0026EEE500758FC
:1021F00013D0780E086E096A0A6A0B6A4CEC1CF060
:1022000094EC1CF0085C006EEE500958016EEE5024
:102210000A58026EEE500B58036E90EC1BF00C0E39
:10222000DBCFE6FF0D0EDBCFE6FF000EE66E0A0EFB
:10223000E66E29EC1AF07EEC1AF0080EE66EE66AFD
:10224000D9CFE6FFDACFE6FF29EC1AF07EEC1AF0E0
:10225000100E4FEC1AF020EC1AF0FD0EDBCFE6FF6B
:10226000FE0EDBCFE6FF74EC1AF0100EE15C02E22A
:10227000E16AE55230EF1AF07AEC1AF0BFEC18F090
:10228000EECFDFFF010EEECFDBFF020EEECFDBFF66
:10229000030EEECFDBFF040E65EC1BF0040EEECF59
:1022A000DBFF050EEECFDBFF060EEECFDBFF070EEA
:1022B000EECFDBFF080E65EC1BF0080EEECFDBFF68
:1022C000090EEECFDBFF0A0EEECFDBFF0B0EEECFDB
:1022D000DBFF0C0E65EC1BF00C0EEECFDBFF0D0EE2
:1022E000EECFDBFF0E0EEECFDBFF0F0EEECFDBFFF0
:1022F000400EE66EE66AE66AE66A29EC1AF0A20E7D
:10230000E66E090EE66E35EC17F0006E080EE15E23
:102310000050D9EC1AF020EC19F0780E0026A40E2B
:1023200001226A0E0222D70E0FEC1CF003E065ECCE
:1023300018F0FDE137EC18F0190E54EC18F0FDE13F
:1023400093EC1AF02DEC19F0560E0026B70E012270
:10235000C70E0222E80E81EC1CF003E065EC18F0D9
:10236000FDE147EC18F0140E54EC18F0FDE1AEEC72
:102370001AF03AEC19F0DB0E0026700E0122200E46
:102380000222240E54EC1CF003E065EC18F0FDE191
:102390002AEC18F00F0E54EC18F0FDE1C6EC1AF020
:1023A00047EC19F0EE0E0026CE0E0122BD0E0222E1
:1023B000C10E85EC1CF003E065EC18F0FDE13AEC91
:1023C00018F00A0E54EC18F0FDE189EC1CF054EC06
:1023D00019F0AF0E00260F0E01227C0E0222F50E20
:1023E0000FEC1CF003E065EC18F0FDE137EC18F0A1
:1023F000190E54EC18F0FDE193EC1AF061EC19F0B1
:102400002A0E0026C60E0122870E0222470E81ECFC
:102410001CF003E065EC18F0FDE147EC18F0140E39
:1024200054EC18F0FDE1AEEC1AF06EEC19F0130E5E
:102430000026460E0122300E0222A80E54EC1CF09B
:1024400003E065EC18F0FDE12AEC18F00F0E54ECF7
:1024500018F0FDE1C6EC1AF07BEC19F0002A950E9D
:102460000122460E21EC1CF0160E1F0B03E065EC5A
:1024700018F0FDE13AEC18F00A0E54EC18F0FDE10A
:1024800089EC1CF088EC19F0D80E0026980E012279
:10249000800E0222690E0FEC1CF003E065EC18F0D0
:1024A000FDE137EC18F0190E54EC18F0FDE193EC57
:1024B0001AF095EC19F0AF0E0026F70E0122440E2B
:1024C00002228B0E81EC1CF003E065EC18F0FDE1BC
:1024D00047EC18F0140E54EC18F0FDE1AEEC1AF0D5
:1024E000A2EC19F0B10E00265B0E0122FF0E0222B3
:1024F00054EC1CF003E065EC18F0FDE12AEC18F058
:102500000F0E54EC18F0FDE1C6EC1AF0AFEC19F028
:10251000BE0E0026D70E01225C0E0222890E85EC2B
:102520001CF003E065EC18F0FDE13AEC18F00A0E3F
:1025300054EC18F0FDE189EC1CF0BCEC19F0220E13
:102540000026110E0122900E02226B0E0FEC1CF0E1
:1025500003E065EC18F0FDE137EC18F0190E54ECCF
:1025600018F0FDE193EC1AF0C9EC19F0930E002677
:10257000710E0122980E8AEC1AF00C0F04EC18F080
:1025800086EC18F00C0E1F0B03E065EC18F0FDE173
:1025900047EC18F0140E54EC18F0FDE1AEEC1AF014
:1025A000D6EC19F08E0E0026430E0122790E02227F
:1025B000A60E54EC1CF003E065EC18F0FDE12AECEB
:1025C00018F00F0E54EC18F0FDE1C6EC1AF0E3EC35
:1025D00019F0210E0026080E0122B40E0222490E27
:1025E00085EC1CF003E065EC18F0FDE13AEC18F026
:1025F0000A0E54EC18F0FDE1FAEC1AF02DEC19F08B
:10260000620E0026250E01221E0E0222F60E13EC8B
:102610001CF003E065EC18F0FDE137EC18F01B0E40
:1026200054EC18F0FDE116EC1BF06EEC19F0400EC6
:102630000026B30E0122400E0222C00E58EC1CF000
:1026400003E065EC18F0FDE147EC18F0170E54ECD0
:1026500018F0FDE1EDEC1AF0AFEC19F0510E002688
:102660005A0E01225E0E0222260E5CEC1CF003E0E4
:1026700065EC18F0FDE12AEC18F0120E54EC18F09D
:10268000FDE102EC1BF020EC19F0AA0E0026C70EAB
:102690000122B60E0222E90E60EC1CF003E065ECAC
:1026A00018F0FDE13AEC18F00C0E54EC18F0FDE1D6
:1026B000FAEC1AF061EC19F05D0E0026100E012202
:1026C0002F0E0222D60E13EC1CF003E065EC18F07E
:1026D000FDE137EC18F01B0E54EC18F0FDE116ECA0
:1026E0001BF0A2EC19F0530E0026140E0122440E2A
:1026F0000222020E58EC1CF003E065EC18F0FDE13C
:1027000047EC18F0170E54EC18F0FDE1EDEC1AF060
:10271000E3EC19F0810E0026E60E0122A10E022242
:10272000D80E5CEC1CF003E065EC18F0FDE12AEC3F
:1027300018F0120E54EC18F0FDE102EC1BF054EC12
:1027400019F0C80E0026FB0E0122D30E0222E70E5E
:1027500060EC1CF003E065EC18F0FDE13AEC18F0D9
:102760000C0E54EC18F0FDE1FAEC1AF095EC19F0AF
:10277000E60E0026CD0E0122E10E0222210E13EC00
:102780001CF003E065EC18F0FDE137EC18F01B0ECF
:1027900054EC18F0FDE116EC1BF0D6EC19F0D60E57
:1027A0000026070E0122370E0222C30E58EC1CF041
:1027B00003E065EC18F0FDE147EC18F0170E54EC5F
:1027C00018F0FDE1EDEC1AF047EC19F0870E002649
:1027D0000D0E0122D50E0222F40E5CEC1CF003E07B
:1027E00065EC18F0FDE12AEC18F0120E54EC18F02C
:1027F000FDE102EC1BF088EC19F0ED0E0026140E42
:1028000001225A0E0222450E60EC1CF003E065EC3A
:1028100018F0FDE13AEC18F00C0E54EC18F0FDE164
:10282000FAEC1AF0C9EC19F0050E0026E90E0122A7
:10283000E30E0222A90E13EC1CF003E065EC18F085
:10284000FDE137EC18F01B0E54EC18F0FDE116EC2E
:102850001BF03AEC19F0F80E0026A30E0122EF0E41
:102860000222FC0E58EC1CF003E065EC18F0FDE1D0
:1028700047EC18F0170E54EC18F0FDE1EDEC1AF0EF
:102880007BEC19F0D90E0026020E01226F0E0222F7
:10289000670E5CEC1CF003E065EC18F0FDE1DADBA0
:1028A000120E54EC18F0FDE102EC1BF0BCEC19F038
:1028B0008A0E00264C0E01222A0E02228D0E60EC9A
:1028C0001CF003E065EC18F0FDE1D4DB0C0EECDB52
:1028D000FEE131EC1BF061EC19F0420E0026390EDE
:1028E0000122FA0E0222FF0E17EC1CF002E0EDDBD3
:1028F000FEE1BDDB1C0ED8DBFEE149EC1BF088ECF1
:1029000019F0810E0026F60E0122710E0222870EAA
:1029100064EC1CF002E0D9DBFEE1B9DB150EC4DB90
:10292000FEE138EC1BF0AFEC19F0220E0026610E30
:1029300001229D0E02226D0E68EC1CF002E0C5DB48
:10294000FEE188DB100EB0DBFEE151EC1BF0D6ECB3
:1029500019F00C0E0026380E0122E50E21EC1CF0B9
:10296000170E1F0B02E0B1DBFEE184DB090E9CDBDE
:10297000FEE131EC1BF02DEC19F0440E0026EA0EBE
:102980000122BE0E0222A40E17EC1CF002E09DDB19
:10299000FEE16DDB1C0E88DBFEE149EC1BF054EC24
:1029A00019F0A90E0026CF0E0122DE0E02224B0ED8
:1029B00064EC1CF002E089DBFEE169DB150E74DBE0
:1029C000FEE138EC1BF07BEC19F0600E00264B0E9C
:1029D0000122BB0E0222F60E68EC1CF002E075DB51
:1029E000FEE138DB100E60DBFEE151EC1BF0A2ECE7
:1029F00019F0700E0026BC0E0122BF0E0222BE0E80
:102A00008DEC1CF002E061DBFEE134DB090E4CDBF7
:102A1000FEE131EC1BF0C9EC19F0C60E00267E0E6B
:102A200001229B0E0222280E17EC1CF002E04DDB67
:102A3000FEE11DDB1C0E38DBFEE149EC1BF020EC57
:102A400019F0FA0E0026270E0122A10E0222EA0E2C
:102A500064EC1CF002E039DBFEE119DB150E24DB2F
:102A6000FEE138EC1BF047EC19F0850E0026300E25
:102A70000122EF0E0222D40E68EC1CF002E025DBEE
:102A8000FEE1E8DA100E10DBFEE151EC1BF06EEC1B
:102A900019F0050E00261D0E0122880E0222040EDA
:102AA0008DEC1CF002E011DBFEE1E4DA090EFCDA49
:102AB000FEE131EC1BF095EC19F0390E0026D00E3A
:102AC0000122D40E0222D90E17EC1CF002E0FDDA2E
:102AD000FEE1CDDA1C0EE8DAFEE149EC1BF0BCECBD
:102AE00019F0E50E0026990E0122DB0E0222E60EF9
:102AF00064EC1CF002E0E9DAFEE1C9DA150ED4DA82
:102B0000FEE138EC1BF0E3EC19F0F80E00267C0E29
:102B10000122A20E02221F0E68EC1CF002E0D5DAA0
:102B2000FEE198DA100EC0DAFEE151EC1BF0A2DBF8
:102B3000650E0026560E0122AC0E0222C40E8DEC4C
:102B40001CF002E0C2DAFEE195DA090EADDAFEE130
:102B50001FEC1BF075DB440E0026220E0122290E0D
:102B60000222F40E1CEC1CF002E0AFDAFEE17FDA88
:102B70001A0E9ADAFEE10AEC1BF0BDDB970E002676
:102B8000FF0E01222A0E0222430E6CEC1CF002E022
:102B90009CDAFEE17CDA160E87DAFEE13FEC1BF0F0
:102BA000D6EC19F0A70E0026230E0122940E022265
:102BB000AB0E70EC1CF002E088DAFEE14BDA110E8D
:102BC00073DAFEE128EC1BF07CDB390E0026A00E48
:102BD0000122930E0222FC0E74EC1CF002E075DA66
:102BE000FEE148DA0B0E60DAFEE11FEC1BF0C4DBFD
:102BF000C30E0026590E01225B0E0222650E1CEC4C
:102C00001CF002E062DAFEE132DA1A0E4DDAFEE181
:102C10000AEC1BF03CDB920E0026CC0E01220C0EBF
:102C200002228F0E6CEC1CF002E04FDAFEE12FDA8C
:102C3000160E3ADAFEE13FEC1BF084DB7D0E002637
:102C4000F40E0122EF0E0222FF0E70EC1CF002E0E7
:102C50003CDAFEE1FFD9110E27DAFEE128EC1BF089
:102C6000FCDAD10E00265D0E0122840E0222850EB2
:102C700074EC1CF002E029DAFEE1FCD90B0E14DA48
:102C8000FEE11FEC1BF044DB4F0E00267E0E0122FE
:102C9000A80E02226F0E1CEC1CF002E016DAFEE118
:102CA000E6D91A0E01DAFEE10AEC1BF08CDBE00E2D
:102CB0000026E60E01222C0E0222FE0E6CEC1CF009
:102CC00002E003DAFEE1E3D9160EEED9FEE13FECB5
:102CD0001BF004DB140E0026430E0122010E02221B
:102CE000A30E70EC1CF002E0F0D9FEE1B3D9110E96
:102CF000DBD9FEE128EC1BF04CDBA10E0026110E07
:102D00000122080E02224E0E74EC1CF002E0DDD906
:102D1000FEE1B0D90B0EC8D9FEE11FEC1BF0C4DAFE
:102D2000820E00267E0E0122530E0222F70E1CECAC
:102D30001CF002E0CAD9FEE19AD91A0EB5D9FEE11B
:102D40000AEC1BF00CDB350E0026F20E01223A0EC7
:102D50000222BD0E6CEC1CF002E0B7D9FEE197D95F
:102D6000160EA2D9FEE13FEC1BF084DABB0E002662
:102D7000D20E0122D70E02222A0E70EC1CF002E0C5
:102D8000A4D9FEE167D9110E8FD9FEE128EC1BF022
:102D9000CCDA910E0026D30E0122860E0222EB0E13
:102DA00074EC1CF002E091D9FEE164D90B0E7CD9E1
:102DB000FEE10BD9E4D9D0EC1BF0040E65EC1BF05E
:102DC000B7EC1BF0080E65EC1BF0AAEC1BF00C0E28
:102DD00065EC1BF09DEC1BF0100EE15C02E2E16A79
:102DE000E5523ED312DBFCDA3AE2DFCF06F0010E09
:102DF000DBCF07F0D89006360736D8900636073670
:102E0000FB0EDB50062423EC1CF00720EA6EEECF0D
:102E100002F00250E66EEDEC1BF0B8D9080E44D972
:102E2000FEE10450E66E010E59EC1BF0AFD9100E16
:102E30003BD9FEE10450E66E020E59EC1BF0A6D918
:102E4000180E32D9FEE10450E66E030E59EC1BF069
:102E500087EC1BF0E552E750EF6EE4DAC4D7080EBA
:102E6000E15C02E2E16AE552FBD2CFDAB9DA01E3D2
:102E7000A2D022DB23EC1CF00720EA6EEFCF02F099
:102E8000036A046A056A010E0C6E0D6A0E6A0F6A07
:102E900043EC1CF0EE500C26EE500D22EE500E22AC
:102EA000EE500F22FB0EDB500C2423EC1CF00D2007
:102EB000EA6EEFCF08F0096A0A6A0B6A080E1F0B68
:102EC00002E004DBFEE108500212095003120A502E
:102ED00004120B500512020E146E156A166A176A58
:102EE00043EC1CF0EE501426EE501522EE50162244
:102EF000EE501722FB0EDB50142423EC1CF015209F
:102F0000EA6EEFCF10F0116A126A136A100E1F0BEF
:102F100007E0D8901036113612361336E806F9E17C
:102F200010500212115003121250041213500512C5
:102F3000030E1C6E1D6A1E6A1F6A43EC1CF0EE50E5
:102F40001C26EE501D22EE501E22EE501F22FB0EBC
:102F5000DB501C2423EC1CF01D20EA6EEFCF18F090
:102F6000196A1A6A1B6A180E1F0B07E0D8901836E8
:102F700019361A361B36E806F9E1185002121950B4
:102F800003121A5004121B500512DFCF00F0010E7D
:102F9000DBCF01F0D89000360136D89000360136EC
:102FA000B6DB02C0EEFF03C0EEFF04C0EEFF05C0BB
:102FB000EEFF38DA5BD7080EE15C02E2E16AE55227
:102FC0004FD288DB90DB9DEF1BF084DB040E00C04A
:102FD000DBFF050E01C0DBFF060E02C0DBFF070EA4
:102FE00003C0DBFF43EC1CF0AAEF1BF073DB98DBA4
:102FF00078EC1CF0DACFEAFFD0EF1BF06BDBC4DB20
:1030000047EC1CF0B7EF1BF0E96EDACFEAFFFDEFFB
:103010001BF0DACFEAFF0C50EE14086E0D50EE14E0
:10302000096E0E50EE140A6E0F50EE140B6EC4D3E0
:1030300003220050DE260150DE220250DE22035021
:10304000DD22DD52DD5247EC1CF03CEC1CF0EFCFF2
:1030500003F01200080EDBCF04F0090EDBCF05F001
:103060000A0EDBCF06F00B0EDBCF07F0120047ECA9
:103070001CF0BAD3040EDBCF04F0050EDBCF05F055
:10308000060EDBCF06F0070EDBCF07F012000C0EAA
:10309000DBCF04F00D0EDBCF05F00E0EDBCF06F01C
:1030A0000F0EDBCF07F01200D89007320632053240
:1030B0000432E806120094EC1CF00816EE500916D3
:1030C000EE500A16EE500B1677D3D8900036013624
:1030D00002360336E806120094EC1CF00416EE509B
:1030E0000516EE500616EE5007161200DACFEAFF6C
:1030F0000850EE18046E0950EE18056E0A50EE18CE
:10310000066E0B50EE18076E045012000C0EDBCF4B
:1031100000F00D0EDBCF01F00E0EDBCF02F00F0E34
:10312000DBCF03F01200080EDBCF00F0090EDBCF7F
:1031300001F00A0EDBCF02F00B0EDBCF03F0120022
:103140004CDB27EF1CF0F0DB041AEE50051AEE50B2
:10315000061AEE50071A04501200E6DB081AEE5069
:10316000091AEE500A1AEE500B1A1200DDDB041297
:10317000EE500512EE500612EE5007121200FD0E30
:10318000DBCFE9FFFE0EDBCFEAFF1200C0DAE5522B
:10319000E750EF6EDFCF08F0010EDBCF09F0D890DB
:1031A00008360936D89008360936FB0EDB5008245D
:1031B0004ADB0920EA6E18D30C0EDBCF08F00D0EA7
:1031C000DBCF09F00E0EDBCF0AF00F0EDBCF0BF0DA
:1031D0001200080EDBCF08F0090EDBCF09F00A0E53
:1031E000DBCF0AF00B0EDBCF0BF01200040EDBCFAF
:1031F00008F0050EDBCF09F0060EDBCF0AF0070E54
:10320000DBCF0BF0120043DBEECF08F0EECF09F07E
:10321000EECF0AF0EFCF0BF01200DBCF0FF00C1E59
:103220000D1E0E1E0F1E1200081E091E0A1E0B1E6A
:10323000D9501200041E051E061E071ED95012008A
:103240000901A225006E0550A321016E0650A4219C
:10325000026E0750A521036E12000901A625006E1B
:103260000550A721016E0650A821026E0750A92122
:10327000036E12000901AA25006E0550AB21016EF4
:103280000650AC21026E0750AD21036E12000901F9
:10329000AE25006E0550AF21016E0650B021026EC2
:1032A0000750B121036E12000901B225006E0550CE
:1032B000B321016E0650B421026E0750B521036E92
:1032C00012000901B625006E0550B721016E0650A7
:1032D000B821026E0750B921036E12000901BA2508
:1032E000006E0550BB21016E0650BC21026E0750D6
:1032F000BD21036E12000901BE25006E0550BF21DD
:10330000016E0650C021026E0750C121036E1200EB
:103310000901C225006E0550C321016E0650C4216B
:10332000026E0750C521036E12000901C625006E0A
:103330000550C721016E0650C821026E0750C921F1
:10334000036E12000901CA25006E0550CB21016EE3
:103350000650CC21026E0750CD21036E12000901E8
:10336000CE25006E0550CF21016E0650D021026E91
:103370000750D121036E12000901D225006E0550BD
:10338000D321016E0650D421026E0750D521036E61
:1033900012000901D625006E0550D721016E065096
:1033A000D821026E0750D921036E12000901DA25D7
:1033B000006E0550DB21016E0650DC21026E0750C5
:1033C000DD21036E12000901DE25006E0550DF21AC
:1033D000016E0650E021026E0750E121036E1200DB
:1033E000F70EDBCF00F0F80EDBCF01F0EFD94BDAB0
:1033F0000050EE5C0150EE580250EE580350EE586B
:103400001200E926000EEA22120004DA080EE12674
:1034100025DA040EDB6A050EDB6A060EDB6A070E90
:10342000DB6A120034DAEE2A000EEE22EE22EE22E1
:103430002ADA040EEE26000EEE22EE22EE22120012
:10344000E9CF00F0EACF01F0E9CFE6FFEACFE6FFEF
:103450001200FB0EDBCFE6FFFC0EDBCFE6FF120017
:10346000E16EE552E7CFD9FF120004501F0B04DADA
:10347000EECF03F0120058DA045C006EEE500558EF
:10348000016EEE5006581200E9CFE6FFEACFE6FFE4
:103490003CEC11F0E552E552E552E5521200E66EC1
:1034A000E66AE66AE66A35EF1CF0D890033202322B
:1034B00001320032E8061200040EDBCF06F0050EE2
:1034C000DBCF07F0FB0EDB5006241200D890083645
:1034D00009360A360B36E8061200F90EDBCF00F08B
:1034E000FA0EDBCF01F012007DDC026E080EE15E09
:1034F000025012008FD9100EE126120093EC0FF04B
:10350000006E060EE15E00501200016E00C0E6FF84
:10351000E66E12000222FD0E0322D9501200016A4B
:10352000026A036A12006ADDA5DDD9CFE9FFD4DDA6
:10353000AED9EECF0CF0EECF0DF0EECF0EF0EFCF18
:103540000FF00C1E0D1E0E1E0F1EA6D909EF18F04F
:103550000322D950080F58DD93EF18F047DD87DDBF
:10356000C7D9BADD0C0EDBCF0CF00D0EDBCF0DF0A2
:103570000E0EDBCF0EF00F0E50DEDAD909EF18F089
:103580000322D9500C0F40DD86EF18F01ADD7FDDE5
:1035900083D9A2DD080EDBCF0CF0090EDBCF0DF0D6
:1035A0000A0EDBCF0EF00B0E38DED9CFE9FF09EFA4
:1035B00018F050DDBDD990DD040EDBCF0CF0050E08
:1035C000DBCF0DF0060EDBCF0EF0070E26DE90D916
:1035D00009EF18F00322D9508FD108DD4BDD88D9CF
:1035E0007BDD04DE081E091E0A1E0B1ED9CFE9FF73
:1035F0005BEF18F0EADC4BDD9BD96EDDDDDD14DE20
:10360000080F8FD1DEDC33DD47D966DDFCDD0CDE53
:103610000C0F87D1F3DC1EDD041E051E061E071EDF
:10362000D9CFE9FFA3DD84D9A3EF18F0E7DC12DDE1
:10363000D9CFE9FF51DDCDDDF7DD040F72D1C5DC57
:1036400026DDF8DD040FE96E91DD26D9A3EF18F031
:10365000B8DC0DDDEFDD080FE96E88DD49D9A3EF99
:1036600018F0B3DCB6DD64D978DD42D976EF18F016
:10367000BDDCC9DD3DD971DD5BD976EF18F0B6DC74
:10368000F9DCD8DD0C0FE96E71DDD9CFE9FFA3EFCE
:1036900018F0B4DCABDDD9CFE9FF5FDDFDD876EF04
:1036A00018F08FDC89DDF8D858DDD9CFE9FF76EF47
:1036B00018F0006E34DFE7D8EE500026EE500122FD
:1036C000EE500222EE5003221200E76E58DDE75062
:1036D00001EF1AF0045000120550011206500212B8
:1036E000075003121200080E00C0DBFF090E01C0D4
:1036F000DBFF0A0E02C0DBFF0B0E03C0DBFFCCD8E2
:10370000DACFEAFF12003BDD100E01EF1AF0FD0EDA
:10371000DB500024E96EFE0EDB500120EA6E120041
:103720000C0E00C0DBFF0D0E01C0DBFF0E0E02C051
:10373000DBFF0F0E03C0DBFF12000C0EDB50EE268A
:103740000D0EDB50EE220E0EDB50EE220F0EDB5084
:10375000EE221200080EDB50EE26090EDB50EE22A0
:103760000A0EDB50EE220B0EDB50EE221200040E8E
:10377000DB50EE26050EDB50EE22060EDB50EE226D
:10378000070EDB50EE22120000C0DFFF010E01C069
:10379000DBFF020E02C0DBFF030E03C0DBFF1200E3
:1037A000DF50EE26010EDB50EE22020EDB50EE2241
:1037B000030EDB50EE2212000850041209500512CD
:1037C0000A5006120B50071204501200F90EDBCFFC
:1037D00002F0FA0EDBCF03F01200040EDBCF00F094
:1037E000050EDBCF01F01200EECF04F0EECF05F0B6
:1037F000EECF06F0EFCF07F012000050EE2601509A
:10380000EE220250EE220350EE221200B8DC180E17
:1038100001EF1AF0D9CFE6FFE1CFD9FF120008DCA3
:10382000070E1F0B120004DC050E1F0B120018EC14
:1038300018F0040E1F0B120018EC18F0060E1F0BE8
:10384000120068DE59D0E96EFC0EDB501200060E45
:10385000DBCF02F0070EDBCF03F01200DE6ADE6A78
:10386000DE6ADD6ADD52DD521200FB0EDBCFE9FFBE
:10387000FC0EDBCFEAFF1200EECF00F0EECF01F03E
:10388000EECF02F0120054D8DACFEAFF1200D9CFFF
:10389000E9FFDACFEAFF1200D950080FE96E1200F3
:1038A00032DF040E01EF1AF053DE110E1F0B12006F
:1038B00067DE090E1F0B12004BDE0E0E1F0B1200EF
:1038C00089DE140E1F0B12005BDE0B0E1F0B1200A5
:1038D0003FDE100E1F0B120053DE0A0E1F0B1200EC
:1038E00037DE0F0E1F0B120075DE150E1F0B1200B8
:1038F000D9500C0FE96E1200040F04EC18F0A0EF81
:1039000018F03EDE0C0E1F0B120064DE160E1F0BAD
:103910001200E5EC17F0D9EF1AF05CDE170E1F0B62
:103920001200E96E5BEF18F0DACFEAFFEE501200FA
:08393000D950040FE96E1200EA
:08393800D8CFE4FFE0CFE4FF6B
:10394000E46EDACFE4FFE2CFDAFFE9CFE4FFEACFBB
:10395000E4FFF6CFE4FFF7CFE4FFF8CFE4FFF5CFC5
:10396000E4FFF3CFE4FFF4CFE4FFFACFE4FFFBCFB3
:10397000E4FF00EE20F0140EE80403E3EECFE4FFD2
:10398000FBD700EE00F0200EE80403E3EECFE4FFE7
:10399000FBD7E652B6EC5EF015EC60F0E55200EEB7
:1039A0001FF0200EE80403E3E5CFEDFFFBD700EEA8
:1039B00033F0140EE80403E3E5CFEDFFFBD7E5CFCA
:1039C000FBFFE5CFFAFFE5CFF4FFE5CFF3FFE5CF4F
:1039D000F5FFE5CFF8FFE5CFF7FFE5CFF6FFE5CF41
:1039E000EAFFE5CFE9FFE5CFDAFFE550E5CFE0FFFD
:1039F000E5CFD8FF10000801009B120084EC27F0EF
:103A0000E652D9CFE6FFDACFE6FF8CEC5EF0E55266
:103A1000E552000901E1D0D0FF0E0501EB5D01E0A8
:103A200094D0C85103E07F0EC85D08E10A0EDF5C48
:103A3000E8E00D0EDF5C02E10A0EDF6E0D0EDF5CCA
:103A4000E0E097EC28F017EC28F003E1015001E1E9
:103A5000EA073A0EDF5C1EE1060EEA5D1BE335EC79
:103A600028F018E1490E015D15E1500E025D12E1EA
:103A7000440E035D0FE10501EA0563EC27F0EF6AF0
:103A8000050EE66E070EE66EFBEC27F0FD0EEB6F03
:103A9000EA6BB7D70A0EDF5CB4E10501EA07EA5129
:103AA00063EC27F0EF6A040EEA5D48E335EC28F09A
:103AB00045E1430E015D42E14D0E025D3FE1540ED2
:103AC000035D3CE1070EDF6EDF50DF2A63EC27F079
:103AD000EF50220804E00501EA51DF5CF5E3DF0462
:103AE00063EC27F0EF6A0501D66B140EE66EE66A0A
:103AF000070EE66E070EE66ED60EE66E050ECBECF2
:103B000027F00501E96BEAC5DFFFDF50DF0663EC54
:103B100027F0EF502C0803E0DF500008F6E3DF50F9
:103B2000016A000F006E070E0122020E1DEC28F044
:103B3000FBEC27F0EA6BFE0EEB6F63D70501B4ECEC
:103B400027F00701006B050135D0FE0EEB5D1CE18F
:103B50000D0EDF5C03E00A0EDF5C07E1EA51EA2BA1
:103B600063EC27F0200EEF6E02D097EC28F017ECF4
:103B700028F003E1015001E1EA07EC07EC5101E014
:103B800040D7F7EC28F016D00D0EDF5C08E097EC7C
:103B900028F017EC28F003E1015001E1EA07EC07F7
:103BA0000A0EDF5C03E1EA07F7EC28F0EC5101E0D4
:103BB00028D7EA6BEB6925D7E55289EF27F0FCECB3
:103BC00028F038E1DF6A5AEC27F00A080BE10D0E05
:103BD000DF5C08E0080100B1FDD70D0E8DEC27F089
:103BE0000FE1FBD70D0EDF5C0BE15AEC27F00A0862
:103BF00007E0080100B1FDD70A0E8DEC27F0FCE0CC
:103C00005AEC27F028E0080100B1FDD75AEC27F064
:103C10008DEC27F0FBE00801C7C8F6FFC72BC8C82A
:103C2000F7FF000EC823C9C8F8FFC9230800F550E4
:103C3000DF6EC9D75AEC27F00EE0080100B1FDD7BE
:103C40005AEC27F08DEC27F0FBE00801C72B000EA3
:103C5000C823C923EFD7E55289EF27F0FCEC28F001
:103C600035E1DF6A7CEC27F00A080BE10D0EDF5C22
:103C700008E0080100B1FDD70D0E8DEC27F00FE133
:103C8000FBD70D0EDF5C0BE17CEC27F00A0807E0A8
:103C9000080100B1FDD70A0E8DEC27F0FCE07CECAA
:103CA00027F025E0080100B1FDD77CEC27F08DEC72
:103CB00027F0FBE0FD0EDBCFE9FFDB2AFE0EDBCFBA
:103CC000EAFF01E3DB2AEFCFDFFFCCD77CEC27F064
:103CD0000EE0080100B1FDD77CEC27F08DEC27F059
:103CE000FBE0FD0EDB2AFE0EF1E3DB2AEFD7E55207
:103CF00089EF27F084EC27F0080100B1FDD7FE0E14
:103D0000DBCFE6FF65EC5EF0E5520009F8E089EFF5
:103D100027F084EC27F0040EE126030EBAEC27F01E
:103D2000D70EE66E8E0EE66E000E9EEC27F00EE0CD
:103D3000FD0EDBCF00F0FE0EDBCF01F000C001F086
:103D4000006A00500501F1130150F213D40EE66E23
:103D50008E0EE66E000E9EEC27F00BE0FD0EDBCF24
:103D600028F0FE0EDBCF29F028500501F113295071
:103D7000F213040EE15C02E2E16AE552E16E89EFC2
:103D800027F084EC27F0060EE12685EC28F0E66E9D
:103D9000FD0EDBCFE6FFFE0EDBCFE6FF31EC27F0BA
:103DA0006FE085EC28F002EC29F06AE028EC29F0BD
:103DB00067E028EC29F064E03DEC28F0EF504F0874
:103DC0005FE1010EE76E3DEC28F0E750E926000EBA
:103DD000EA22EF502D0854E1D00EE66E8E0EE66E0C
:103DE000000EE66E020EE76EDBCF00F0030EDBCFB7
:103DF00001F0E7501DEC28F05DEC61F0026E050E5D
:103E0000E15E02508FEC28F03BE0D00EE66E8E0EA5
:103E1000E66E000E69EC27F0F0EC27F032EC5DF076
:103E2000E552040EF3CFDBFF050EF4CFDBFFD3EC3E
:103E300027F00DE1040EDBCFE9FF050EDBCFEAFF33
:103E4000EF501EE0CF0EE66E8E0EE66E12D044EC02
:103E500028F0040EDBCFE6FF050EDBCFE6FF53ECC8
:103E600057F0E552E552E552E552000909E044EC0D
:103E700028F0F0EC27F079EC5DF0E552E552E552E0
:103E8000060EE15C02E2E16AE552E16E89EF27F09D
:103E900084EC27F0020EE126FE0EDBCFC8F505010B
:103EA000C851240A01E159D1070A01E14CD1010AA4
:103EB00001E143D1030A01E112D1010A01E1F9D084
:103EC000600A01E1D7D0030A01E1B9D0010A01E19A
:103ED0008FD0030A01E178D0530A69E0030A5CE05D
:103EE000010A4FE0160A47E0030A3CE0010A33E00A
:103EF000070A25E0010A21E0030A11E07E0A0CE02E
:103F00007F0A01E036D10EEC29F0ADEC27F0050177
:103F1000010ECD6F0A0E1ED1F6EC41F02AD10A0E29
:103F2000A2EC28F00501030ECD6F140ECE6FCF6BFF
:103F30000001BA6B4CEC00F01CD1CD6B1AD1ADEC8A
:103F400027F063EC3CF00501020ECD6FDBEC27F0AF
:103F50000501CC6B0ED1050ECD6F0A0EDBEC27F000
:103F60000A0E9BD0060ECD6F020ECE6FCF6BC96BC3
:103F700063EC3CF0FED0E66AF8EC26F039EC3CF05D
:103F8000F8D0090EA2EC28F005EC28F0E60EC76F79
:103F9000C30EC86F000ECED0080EA2EC28F005ECC0
:103FA00028F0F20EC76FC30EC86F000EC3D0070E05
:103FB000A2EC28F00501030ECD6F230ECE6FCF6B60
:103FC000C96B4BEC28F0B6D0050EE66E20EC29F05C
:103FD0000EEC28F006E2070E9AEC27F00501400EE1
:103FE00005D0080E9AEC27F00501020ECD6F14D013
:103FF000050EC0EC27F0B60EC76F8E0EC86F000E10
:10400000E7EC27F0090E9AEC27F00EEC28F002E21C
:10401000430E01D0020ECD6FCAC5CEF5CBC5CFF58C
:104020000A0ED880CE57000ECF570F0ECF03F3CF16
:10403000CFF5CE03F3CFCEF5F450CF279AD0050EAF
:10404000A2EC28F0C4EC27F00501020ECD6F3C0E67
:10405000CE6FCF6B060EC96F0001BA6B50EC00F04B
:1040600016EC29F052EC28F0E7EC27F00501400EA1
:10407000C86F7FD0050EA2EC28F0C4EC27F0EAEC64
:1040800028F014E0FBEC63F0000910E00501020EDB
:10409000CD6F3C0EDBEC27F0020E77EC27F0080129
:1040A000C30EC76F8E0EC86F000E44D00501200EE0
:1040B000C86F020EA2EC28F009015E6B0501CD6B02
:1040C000C96B0001B80507E0050EB85D04E0780E85
:1040D0000501D26F02D00501D26BD36B4AD0060E18
:1040E000A2EC28F016EC29F00501030ECD6FF00EBE
:1040F000CE6FCF6B50EC00F00D0EEAEC28F007E12C
:1041000008015A0EC76FC40EC86F000E13D0080105
:10411000900EC76F8E0EC86F000EE7EC27F0E0EC34
:1041200028F09CDDE552E5520801860EC76F8E0E21
:10413000C86F000EE7EC27F01CD00A0ECE6FCF6BD5
:10414000400ECD6F16D0060EA2EC28F00501240E0D
:10415000CD6F1E0ECE6FCF6B0CD0CC51CC2B006E22
:10416000140E005C02E2020E01D0030EE66E90DE39
:10417000E552020EE15C02E2E16AE552E16E89EF8E
:1041800027F084EC27F0020EE126FE0E0501EB5D20
:1041900019E10001B80507E0050EB85D04E0C4ECC4
:1041A00027F01CEC29F00001F7BF03D000010A0E34
:1041B000F86F59EC28F0D60EE66E050EE66E5DEC53
:1041C00028F061D3FF0EEB5D0FE00001F7BF03D0D5
:1041D0000001140EF86F80EC28F021EC06F0E55297
:1041E000E55261EC28F04FD30001F7BF03D0000186
:1041F0001E0EF86F0501C8517F0A01E13DD35F0A29
:1042000001E10FD2600A01E158D1630A01E13BD11B
:10421000020A01E1F1D0330A01E1C4D0030A62E0ED
:10422000010A26E0110A14E0010A01E02CD3050E70
:10423000EA5D01E228D366EC28F0800EE66E8E0E71
:10424000E66E000EF1EC26F001E01DD37F0EE6D104
:10425000020EEA5D01E217D339EC28F001E013D336
:104260004B0E015D01E00FD31CEC29F0100ED6D1EE
:10427000040EEA5D23E335EC28F020E1430E015DF6
:104280001DE1530E025D1AE14D0E035D17E180EC56
:1042900028F0ADEC57F0E552E552F3CFE9FFF4CF4B
:1042A000EAFFE906000EEA5A000EE926070EEA22A6
:1042B000EF50310801E1E7D2030E5AD00501C95190
:1042C00001E0E1D2020EEA5D01E2DDD239EC28F034
:1042D00001E0D9D24B0E015D01E0D5D21CEC29F0F2
:1042E000110E9CD1100EEA5D14E3380E0701005D3B
:1042F00010E1390E015D0DE1180EE66EE66A80EC04
:1043000028F0CE0EE66E000ECBEC27F00001E56B38
:10431000BAD2080E0501EA5D16E335EC28F013E188
:10432000430E015D10E1500E025D0DE1420E035D92
:104330000AE1460E045D07E13A0E055D04E180ECFA
:1043400028F01FDD93D1080E0501EA5D17E335EC77
:1043500028F014E1430E015D11E1500E025D0EE103
:10436000490E035D0BE1520E075D01E18CD2040E94
:104370009AEC27F00501010EC96F85D20501C951DC
:1043800001E081D2020EEA5D01E27DD239EC28F033
:1043900001E079D24B0E015D01E075D21CEC29F0F1
:1043A000120E3CD1060EEA5D16E335EC28F013E15F
:1043B000490E015D10E1500E025D0DE1520E035DEC
:1043C0000AE1390E065D07E00801910EC76FC40EC1
:1043D000C86F000E6AD1020E0501EA5D01E253D2F8
:1043E00039EC28F001E04FD24B0E015D01E04BD2D9
:1043F0001CEC29F0210E12D1020EEA5D0BE339EC20
:1044000028F008E14B0E015D05E161EC28F0CC6B72
:10441000220E04D1050E0501EA5D07E3450E0701F2
:10442000005D03E1520E015D05E0C5EC28F0F1EC02
:1044300026F002E1230EF2D06AEC28F06E0EE66E52
:104440008E0EE66E000EF1EC26F001E01CD285EC3B
:1044500028F0E66E80EC28F031EC27F001E113D271
:1044600085EC28F002EC29F001E10DD2080EE66E91
:10447000E66AE0EC28F0BE0EE66E000ECBEC27F00C
:104480000001C66B00D2A5EC28F001E0FCD12C0E97
:104490000701085D03E1070E091502D0070E071595
:1044A0000001B86FE80404E0050EB85D01E0EBD14F
:1044B00061EC28F0CC6B400EB1D0020EEA5D16E341
:1044C000450E0701005D12E1520E015D0FE1020E83
:1044D0000501C95D03E0030EC95D02E1410E9ED0F6
:1044E000050EC95D01E0CFD1030E98D0020E050183
:1044F000EA5D06E339EC28F003E14B0E015D0BE0C9
:10450000530E0701005D03E1480E015D04E0050E56
:104510000501C95D6DE10501EA6B1E0ECE6FCF6B23
:104520000001B96B16EC29F00501C92BC951080A25
:104530005DE00F0A48E0010A43E0030A3AE0010A9D
:1045400031E0070A26E0010A0DE0030A01E09BD1F1
:104550000801540EC76F8E0EC86F000EE7EC27F0EF
:10456000050E0FD00801470EC76F8E0EC86F000EE4
:10457000E7EC27F0050EADEC28F0060EADEC28F0C8
:10458000070E1FEC27F0510EC76F8E0EC86F000E7E
:104590008CD0040EC0EC27F0390EC76F8E0EC86F9A
:1045A000000E83D008012B0EC76F8E0EC86F000E51
:1045B0007CD00801210EC76F8E0EC86F000E75D01B
:1045C00052EC28F072D0030EC0EC27F00D0EC76F2E
:1045D0008E0EC86F000EE7EC27F0040E1FEC27F0DC
:1045E000030EC76F8E0EC86F000E5FD0200E16D060
:1045F000070EEA5D0DE3080EE66EE66AFA0EE66E59
:104600008D0EE66E000EF1EC26F002E1020E06D0F1
:10461000CEEC28F0E6DB01E036D1020EE66E38DCA7
:1046200026D0A5EC28F025E12C0E0701085D03E15A
:10463000070E091502D0070E07150001B86FE80430
:1046400003E0050EB85D05E10501D26BD36BE66AA8
:104650000AD00501D251D31101E015D1780ED26FE5
:10466000D36B010EE66EE66AE2EC5FF0E552E552CE
:104670000AD166EC28F0E80EE66E8D0EE66E000EAE
:10468000B0DB16E10001B80507E0050EB85D04E0F7
:10469000C4EC27F01CEC29F0010E77EC27F00801A0
:1046A000720EC76FC40EC86F000EE7EC27F0EBD098
:1046B0000A0EE66EE66ADD0EE66E8D0EE66E000E02
:1046C00090DB04E10001B95123E117D0070EE66E3B
:1046D000E66AD50EE66E8D0EE66E000E82DB3FE1D9
:1046E000110EE66EE66AC30EE66E8D0EE66E000EE5
:1046F00078DB12E10001B9510BE1010EE66EE66EC6
:1047000076EC28F053EC00F0F4EC00F070EC00F0E4
:104710000001010EB96FB7D0150EE66EE66AAD0E58
:10472000E66E8D0EE66E000E5CDB01E1ACD0110E84
:10473000E66EE66A9B0EE66E8D0EE66E000E51DBAF
:1047400053E00001B96B020EE66E20EC29F0000187
:10475000B80566E0050EB85D01E095D061D066EC65
:1047600028F0950EE66E8D0EE66E000E3ADB12E135
:104770002C0E0701085D09E1070E0715006E070EF4
:1047800006150A0DF350002402D0070E061500018D
:10479000BB6F79D0070EE66EE66A8D0EE66E8D0E63
:1047A000E66E000E1EDB53E00B0EE66EE66A810E2F
:1047B000E66E8D0EE66E000E14DB03E109015E6B02
:1047C00062D06AEC28F07A0EE66E8D0EE66E000E70
:1047D00008DB0AE00C0EE66EE66A6D0EE66E8D0EE4
:1047E000E66E000EA0DB04E150EC00F0420E32D089
:1047F000090EE66EE66A630EE66E8D0EE66E000E3C
:10480000F0DA0EE0C5EC28F08EDB0AE0CEEC28F002
:1048100024EC29F0026E070EE15E0250000904E16B
:1048200050EC00F0410E16D0040EE66EE66A5F0E04
:10483000E66E8D0EE66E000ED4DA09E06AEC28F022
:10484000580EE66E8D0EE66E000E6DDB07E150EC45
:1048500000F0010EE66E48EC1FF014D06AEC28F070
:10486000510EE66E8D0EE66E000EBBDA0CE180ECAA
:1048700028F048EC09F005D059EC28F083EC44F01E
:10488000E552E552E552020EE15C02E2E16AE552D0
:10489000E16E3FD339DB080EE1260501C8517F0ADE
:1048A00001E140D15F0A41E0220A3DE0230A31E004
:1048B000330A29E0030A1DE0010A11E0110A01E0B0
:1048C00033D1050ECE5D000ECF5902E2020E32DB6F
:1048D00008016E0EC76FC40EC86F000E18D0DEDA66
:1048E00001E022D10801E60EC76FC30EC86F000EAB
:1048F0000ED0D4DA01E018D10801F20EC76FC30E52
:10490000C86F000E04D0CADA01E00ED1C4DB5FDB51
:104910000BD1140ECE5D000ECF5901E305D1DADBC9
:10492000E2EC5FF0D6D0E66A22D0FF0EEB5D09E044
:10493000ED0503E1ED6BEB6910D0ED51010801E2EB
:10494000ED07000ED880D255000ED35508E2D207ED
:10495000000ED35BD251D31102E1210E07D0BEDB92
:1049600009E25E2B5E513C0805E2400EE66E48EC23
:104970001FF0B0D00001B80504E0050EB85D01E0FD
:10498000D3D009019E519F1106E009015D0503E1A5
:1049900009015E5125E0FF0E0501ADDB5DE2090175
:1049A0005D055AE119EC29F0200E0501A4DB04E2B3
:1049B000F19BDDEC0AF0B8D0040E9DDB14E2F1951A
:1049C000F35101E0B1D0060E09019E6F9F6BA0C9A3
:1049D000E9FFA1C9EAFFEF6A09015E5101E0A4D035
:1049E000C8EC08F0A1D0080E86DB06E2F197EEA332
:1049F0009BD010EC0BF098D0100E7DDB04E2F19907
:104A0000EBEC0AF091D0020E76DB0AE2F19319EC9E
:104A100029F0020EE66EBAEC01F0E55202087FD0F2
:104A2000010E69DB19E2F1910001BA51000814E2AC
:104A300009015E5111E1020EDF6E19EC29F0DFCFA2
:104A4000E6FFBAEC03F079DBBAEC01F0E552DF6E79
:104A5000020EDF5C69E063D0000E0501F115006E07
:104A6000FF0E59DB45E2E5DBC3DA000E0501F11567
:104A7000006E200E50DB05E2F29B03DAA8EC29F071
:104A800028D030DB040E47DB11E2F295F3514CE104
:104A90004C0EE66E8D0EE66E000ED7DA94EC57F0F3
:104AA00094DB040ED2DAEDD908DB3ED01BDB080E16
:104AB00032DB07E2F297EEA337D0E3D9F1EC29F02D
:104AC00008D010DB100E27DB07E2F299DAD9BDEC33
:104AD00029F0E552E55228D005DB020E1CDB02E28C
:104AE000F29306D0FFDA010E16DB02E2F2911CD03F
:104AF00000017151000818E20001EE51000814E2B3
:104B000009015E5111E10001BA5100080DE28EDB8E
:104B1000020EE66EAFEC02F0E552020805E070EC22
:104B200000F002D016EC42F0080EE15C02E2E16A0D
:104B3000E552E16EEED10501C851200A01E01200F4
:104B4000CDDA02E2EAEF27F04CDB13E06FDB08017D
:104B5000770EC76FC40EC86F000EC96FDFEC1DF073
:104B600008014151000803E2010EC1D9F9D7020E34
:104B7000BED91200C9D9030EE1260501C851200A89
:104B80001BE1ACDA02E226DA17D00001B90510E128
:104B90000001BA5100080CE24CDB09DB01E00CDB40
:104BA0000C0E29D901E03FDB30D902E070EC00F0B7
:104BB000010E0501C919C96F030EE15C02E2E16A49
:104BC000E552E16EA6D1120023DB0DE0020E665D18
:104BD0000AE00F0E665D07E0800E00016B1500080D
:104BE00002E3000E01D0010E38DA49E1050E0001A2
:104BF000725D29E2800E00016B1525E10501F0517F
:104C00000FE10001B9050DE109015E510AE105015D
:104C1000EEA502D0F9EC0AF00501480EF06F01D0C4
:104C2000F0070501EF510DE1E3D90501EEA505D02F
:104C300028D9D2EC29F0E552E5520501480EEF6F74
:104C400006D0EF0704D00501060EEF6FF06F0001EC
:104C5000B90515E10001BA5112E1030EDB500FE076
:104C60003DDA02E2B7D90BD0A2DA01E0A5DA0C0EE8
:104C7000C2D801E0D8DAC9D802E070EC00F0040E26
:104C8000E15C02E2E16AE552E16E43D1C1DA0DE096
:104C9000020E665D0AE00F0E665D07E0800E000101
:104CA0006B15000802E3000E01D0010ED6D918E101
:104CB0000001B90515E10001BA5112E1030EDB5004
:104CC0000FE10CDA02E286D90BD071DA01E074DA76
:104CD0000C0E91D801E0A7DA98D802E070EC00F051
:104CE000040EE15C02E2E16AE552E16E12D10501D7
:104CF000F351000801E2F307D02B000ED123CD5170
:104D0000000810E2CEC500F0CFC501F0CE07000EBE
:104D1000CF5B0050011006E1CDC5E6FF48EC1FF067
:104D2000E55201D0B7DD4ED91E0E2D6E2E6A82D807
:104D300001E101DF56DA01E11DDF44D92C0E2D6EB1
:104D4000010E2E6E77D801E13EDF3CD9580E2D6E54
:104D5000020E2E6E6FD801E137DF34D9100E2D6EA2
:104D60000E0E2E6E67D806E191DF100E0501D05FA2
:104D70000E0ED15B0501D407000ED55BD451D511C1
:104D800023E1E66A35D8050149DA0001F02BF0513C
:104D9000E66EE66AE66AE66AE66A000EE66E060E09
:104DA000E66E9BEC3EF0006E070EE15E0050000EDA
:104DB000E66E060EE66E1A0EE66E79EC5DF0E552D2
:104DC000E552E55239EC3CF012001200800E946E70
:104DD00049EC5EF00001B86BE66A48EC1FF0E55262
:104DE000120032DA006E070EE15E00500009120078
:104DF00027DA1CEF29F0E66EB8D9010EDBCFE9FF08
:104E0000020EDBCFEAFFEF501200DFCFE6FFBAEC75
:104E100001F093D9AFEC02F090D9CEEC02F08DD92D
:104E2000BAEC03F08AD964EC04F0E552DF6E020EAE
:104E3000DF5C1200D0C528F0D1C529F09DD1E66E07
:104E400032EC5DF0E552F3CF00F0F4CF01F0F3CF98
:104E5000E6FFF4CFE6FF2EEC1EF0E552E552080126
:104E600012005DEC61F0B1D98FEF28F0E66EDFCF74
:104E7000E6FF9EEC04F0E552E552E552E552DF6EA6
:104E80001200010EDBCFE6FF020EDBCFE6FF1200C1
:104E9000000ED8800054000E01541200CEC500F060
:104EA000CFC501F0030E2D6E2E6ACEC528F0CFC5FA
:104EB00029F062D1C7C8F6FFC8C8F7FFC9C8F8FF14
:104EC0000800F5501200EA6A000FE96E070EEA22A8
:104ED0001200E66E000EE66EE66A5DEC61F075D9D2
:104EE000020EF3CFDBFF030EF4CFDBFF1200E66E02
:104EF00053EC3CF0E5521200FD0EDBCFE9FFFE0E55
:104F0000DBCFEAFFEF501200D9CFE6FFE1CFD9FFA8
:104F10001200E552E7CFD9FF1200E66E65EC5EF0B5
:104F2000E5520009120090D9016E070EE15E0150B2
:104F300000091200E66EE66A76EF28F0E66E40D9C8
:104F400039EC58F0026E050EE15E0250F3CF00F02E
:104F5000F4CF01F0F350F4101200E66871D9E6685E
:104F6000E66AC4D809EF60F059D9C1EC20F0050118
:104F7000EA6B1200E66E32EC5DF0E5522CEF29F0A0
:104F8000E66E5ED9080112000501D26BD36B0001F9
:104F9000050EB86F1200E66E0BEC58F0006E060EB0
:104FA000E15E00501200D950020FE96EDACFEAFF3D
:104FB000EE50ED101200CE6FCF6BC96B0001BA6BD3
:104FC00050EF00F0D0C500F0D1C501F01200C96F5C
:104FD000DFEF1DF0050E0501D05F000ED15B120062
:104FE000EFD872EC4EF0E552E552F350E66E120047
:104FF000E66AB5EF28F072EC4EF0E552E552F3CFD9
:10500000ECF505013C0EED6F12000501030ECD6FAE
:105010005F0ECE6FCF6BC96B080112000501CA0786
:10502000000ECB5BD880CA55000ECB551200EA515A
:10503000006E016AC80E001812000026000E012240
:1050400000C0E6FF01C0E6FF1200E66ED950030F74
:10505000E66E000EDA20E66E1200E76E030EE7CF72
:10506000DBFF0501C851200A12002B0E0701005D6D
:1050700012004F0E0701005D1200020EDBCFE9FFA8
:10508000030EDBCFEAFF1200020EDBCFE6FF030EBA
:10509000DBCFE6FF120008010D0EC76FC40EC86F0C
:1050A000000E120008019E0EC76F8E0EC86F000E14
:1050B0001200EAC5E6FF80EF28F060EC31F0E5EF82
:1050C00028F00A0E0501CA6FCB6B1200050EE66EC2
:1050D000E66A1200060EE66EE66A120009015E51EB
:1050E00000081200000EF115006E1200E2EC5FF0F5
:1050F000E552E5521200F115006E016A48EF27F003
:10510000000EE66E070EE66E1200D20EE66E8E0EF2
:10511000E66E000E1200F215016E48EF27F09CD8E3
:10512000D9CFE9FFDACFEAFFEE50ED101200EA51D5
:10513000EA2BC9DEDFCFEFFF1200E552DF6EDFCFD3
:10514000E6FF1200E66EF8EF26F0C0DF680EE66EAE
:105150008E0EE66E000EF1EF26F071DE430EC76F85
:105160008E0EC86F000EE7EF27F032EC5DF0E552CF
:10517000DE5272D8DD521200B4EC63F024C000F0AD
:1051800025C001F02450251012000A0EE66EE66AD2
:10519000750EE66E8E0EE66E000E12000B0EE66EBB
:1051A000E66AEE0EE66E8D0EE66E000E1200020E40
:1051B000DF6E0B0EFBEF26F064DE010E36EF27F0FC
:1051C000DECFE6FFDDCFE6FF1200006E050EE15EEA
:1051D00000501200CFDEDECFE9FFDDCFEAFFEF5057
:1051E0001200F0DE3C0E2D6E2E6A1AEF27F0EA5107
:1051F0006ADEEF6AB4EF27F087DEE6527F0E050124
:10520000C85D1200E66E000EE66EE66A31EF27F02A
:105210007BDE040EE126000166051200080ED46F45
:10522000070ED56F12002DDE36EF27F0020E77EF56
:1052300027F00A0E77EF27F0E66AE66A76EF28F0A5
:10524000010EE66E76EF28F0E66E5ADF9BEF56F021
:105250005CDF3FDED3EF27F0F3CFDEFFF4CFDDFFDF
:0252600012003A
:0E52620032EC33F0F1EC34F009E108017D0E7E
:10527000C76F940EC86F000E8FEC33F017D0080183
:10528000730EC76F940EC86F000E8FEC33F059EC9D
:1052900034F0D7EC34F008016F0EC76F940EC86F6E
:1052A000000E8FEC33F0020EA8EC33F037EF33F042
:1052B000F1EC34F003E13DEC34F006D008016A0E65
:1052C000C76F940EC86F000E8FEF33F032EC33F0DF
:1052D0000001F4B50BD01CEC33F0FBC0C7F8FCC0E8
:1052E000C8F8FDC0C9F8DFEC1DF0E2DF37EF33F09E
:1052F00032EC33F00001F4B509D01CEC33F0FEC001
:10530000E6FFFFC0E6FFD7EC34F0D2DF37EF33F033
:1053100081EC34F0F4A502D0000E11D045EC35F04C
:1053200023EC35F0C6EC09F0E552E55223EC35F0FC
:105330005AEC3EF0E552E5523BEC33F0010ED3EC73
:1053400033F002E2E16AE552E16E005037EF33F0EC
:1053500081EC34F0F4B509D067EC35F0AF0EC76FCF
:10536000B20EC86F000E14EC35F0020EE15C02E2E2
:10537000E16AE552E16E37EF33F081EC34F0F4B5D9
:1053800009D067EC35F0CA0EC76FB20EC86F000EB9
:1053900014EC35F0020EE15C02E2E16AE552E16EE6
:1053A00037EF33F087EC34F00A0E45EC35F00001AE
:1053B0007251E66EE66A410EE66E940EE66E000EDF
:1053C00091EC34F062EC33F03A0EE66E940EE66E39
:1053D000000E94EC34F002E2E16AE552E16E37EF40
:1053E00033F087EC34F00A0E45EC35F00601CAA321
:1053F00008D071EC33F0130EE66E940EE66E000EDC
:1054000007D071EC33F0FB0EE66E930EE66E000EE5
:105410006DEC35F03DEC35F0BEEC33F0F30EE66E9E
:10542000930EE66E000E7CEC33F0F00EE66E930EFB
:10543000E66E000E94EC34F002E2E16AE552E16EB1
:1054400037EF33F087EC34F0E66A9FEC33F0C9ECC9
:1054500033F0FD0EDBCFE6FFFE0EEBEC33F002E1A6
:10546000010E06D00001F4B302D0ADEC33F0000E13
:10547000D3EC33F002E2E16AE552E16E005037EF1F
:1054800033F054EC35F0D950FB0F28EC35F00BE03D
:10549000C9EC33F0FB0EDBCFE6FFFC0EEBEC33F098
:1054A00002E1010E06D00001F4B302D0ADEC33F0FE
:1054B000000ED3EC33F002E2E16AE552E16E0050F7
:1054C00037EF33F032EC33F011EC34F021E0F8EC4C
:1054D00034F017EC35F059EC34F0ADEC57F050ECFB
:1054E00035F0E7CF01F0E552E7CF00F00050F324AC
:1054F0000001F96F0150F420FA6FF9C000F0016E5D
:10550000FD0EDB50001807E1FE0EDB50011803E131
:10551000F36AF46A16D0FD0E49EC34F0F5EC34F081
:1055200008E065EC33F005E0DF2A010EF7E3DB2A43
:10553000F5D7F5EC34F003E1C2EC34F0EF6A17EC88
:1055400034F0020EE15C02E2E16AE552E16E37EF0F
:1055500033F032EC33F011EC34F016E0FD0E49EC90
:1055600034F065EC33F005E0DF2A010EFAE3DB2AC4
:10557000F8D7DECF00F0DDCF01F00001F9510018BF
:1055800006E1FA51011803E1F36AF46A21D0DF2A37
:10559000010E01E3DB2AD9CFE9FFDACFEAFFFD0EE6
:1055A000EECFDBFFFE0EEDCFDBFFF5EC34F008E0D5
:1055B00065EC33F005E0DF2A010EF7E3DB2AF5D7CF
:1055C000F5EC34F003E1C2EC34F0EF6A17EC34F0A0
:1055D000020EE15C02E2E16AE552E16E37EF33F080
:1055E00087EC34F0E66A9FEC33F00001F4A502D0BA
:1055F000000E0BD01CEC33F060EC34F0DC0EE66EE9
:10560000930EE66E000E65EC34F0D3EC33F002E25C
:10561000E16AE552E16E005037EF33F032EC33F0DF
:1056200059EC34F0E66A44EC34F0F4A502D0000EF4
:105630000AD084EC34F0720EC76FB10EC86F000E42
:105640008FEC33F0010E37EF33F054EC35F00001FE
:10565000F4A502D0000E0BD01CEC33F060EC34F05B
:10566000CA0EE66E930EE66E000E65EC34F0D3ECD7
:1056700033F002E2E16AE552E16E005037EF33F0B9
:1056800032EC33F04EEC34F0010EE66E44EC34F0C4
:10569000F4A502D0000E0AD084EC34F09F0EC76F40
:1056A000B10EC86F000E8FEC33F0010E37EF33F000
:1056B00081EC34F0F4A502D0000E27D045EC35F093
:1056C000A3C0E6FFA4C0E6FFA5C0E6FFA6C0E6FFB4
:1056D000EE0EE66EB20EE66E000E6DEC35F01DECD1
:1056E00034F0A7C0E6FFA8C0E6FFA9C0E6FFAAC045
:1056F000E6FFC80EE66E930EE66E000E6AEC35F01D
:105700001DEC34F03BEC33F0010ED3EC33F002E24D
:10571000E16AE552E16E005037EF33F032EC33F0DE
:1057200059EC34F0F5DDE552E55237EF33F032EC69
:1057300033F0070EE1260001F4A502D0000E70D070
:1057400084EC34F0DCEC34F0070EF36E020EF3CF91
:10575000DBFFDF6A200EDF5C62E2DFCFE6FF32ECC8
:105760005DF0E552030EF3CFDBFF040EF4CFDBFF59
:10577000030EDBCFE9FF040EDBCFEAFFEF504DE075
:10578000DFCFE6FFE66ABE0EE66E930EE66E000E13
:1057900091EC34F025EC34F0030EDBCFE6FF040E81
:1057A000DBCFE6FFBC0EE66E930EE66E000EE66EF5
:1057B000050EDBCFE6FF060EDBCFE6FF95EC3EF0F5
:1057C00025EC34F0050EDBCF00F0060EDBCF01F048
:1057D000000E005E060E015A010E00C0DBFFDBCF9B
:1057E000E6FF020EDB50E552E724006E016A013449
:1057F00012E20050A008000E01540DE259DD140E13
:1058000067EC35F0DCEC34F0010EDB50070FE76E8F
:10581000020EE7CFDBFF3BEC33F0DF2A9BD7010E14
:10582000006E070EE15C02E2E16AE552E16E0050B3
:1058300037EF33F032EC33F0E652020EDF6E200E1B
:10584000DF5C11E255EC34F00EE0A4EC33F006E13D
:1058500068EC33F003E149EC33F002D04EEC34F065
:1058600092EC33F0ECD784EC34F0C10EC76FB10E7C
:10587000C86F000E14EC35F076EC54F0F1EC34F017
:1058800002E0E5EC33F0000EE55237EF33F01CECAC
:1058900035F0DF6A010EE66E32EC5DF0E55239EC70
:1058A00035F0200EDF5C11E255EC34F00EE0A4EC94
:1058B00033F006E168EC33F003E149EC33F002D059
:1058C0004EEC34F092EC33F0ECD7F1EC34F004E031
:1058D000E66A48EC1FF0E552000E006E030EE15C34
:1058E00002E2E16AE552E16E005037EF33F081ECFD
:1058F00034F0F4A502D0000E34D01CEC33F0B40E1A
:10590000E66E930EE66E000E57EC33F0080E2EECAA
:1059100033F0A60EE66E930EE66E000E2AEC33F020
:105920000E0E2EEC33F0960EE66E930EE66E000E23
:105930002AEC33F0020E2EEC33F08C0EE66E930E52
:10594000E66E000E2AEC33F0030E2EEC33F07A0EE6
:10595000E66E930EE66E000E2AEC33F03BEC33F06D
:10596000010ED3EC33F002E2E16AE552E16E005041
:1059700037EF33F020EC35F0080E22EC33F011E075
:105980004EEC34F0020E22EC33F00BE04EEC34F02F
:10599000030E22EC33F005E04EEC34F00E0E77EC03
:1059A00034F045EC33F0A3DF006E060EE15E0050EC
:1059B000DF6E76EC54F0F1EC34F002E0E5EC33F01D
:1059C000DF50E55237EF33F081EC34F0F4A502D02C
:1059D000000E56D01CEC33F0740EE66E930EE66E9D
:1059E000000E57EC33F0050E2EEC33F06C0EE66E25
:1059F000930EE66E000E2AEC33F0060E2EEC33F01A
:105A0000630EE66E930EE66E000E2AEC33F0070E80
:105A1000C7EC34F0BE0EE66E000EE66E4E0EE66E7D
:105A2000930EE66E000E6AEC35F095EC3EF062ECFB
:105A300033F009015D5106E02B0EE66E930EE66E23
:105A4000000E19D0200E0501C85D06E1080EE66EB5
:105A5000930EE66E000E0FD0C851E66EE66AE90EB0
:105A6000E66E920EE66E000E4BEC35F0E70EE66E3B
:105A7000920EE66E000E26EC33F03BEC33F0010E96
:105A8000D3EC33F002E2E16AE552E16E005037EF09
:105A900033F020EC35F0050E22EC33F01DE0A4ECE1
:105AA00033F006E168EC33F003E149EC33F002D067
