:020000040000FA
:06000000BCEF66F01200E7
:020006001200E6
:06000800B8EF57F01200F2
:02000E000203EB
:0100100001EE
:020011000100EC
:020013000000EB
:06001800F1EF1CF01200E4
:02001E000A00D6
:1000200060CF0000000A00004000000048CF000040
:10003000E80700001800000043CF0000FA090000A4
:10004000050000000ECF0000C900000035000000D0
:10005000C9CE0000630900004500000066CE000024
:100060000009000063000000FDCD000060000000FA
:100070006900000013000000FE0400000200000000
:10008000D2CD0000C80600002B00000011000000C7
:08009000FE0000000200000068
:080098000901A46BA56B120025
:1000A0000901636B12007F0E0001C95D08E10601C2
:1000B000660EFD6F970EFE6F000E46EF0DF0090104
:1000C000010E646F050E8FEC0EF006015A0EFD6FE7
:1000D000970EFE6F000E46EC0DF00A0E8FEF0EF03D
:1000E0007F0E0001C95D04E1060195EC0DF006D01C
:1000F0000601550EFD6F970EFE6F000E46EF0DF0D8
:100100002EEC0FF07F0E0001C95D05E12CEC0EF026
:1001100083EC1EF05AD00901930549E1450E060112
:10012000055D45E0410E055D42E0610E055D3FE085
:10013000670E055D3CE0500E055D39E0020E05C618
:10014000DBFF060EE66E060EE66E000EE66E050E90
:10015000B3EC0DF083EC0CF0C2EC0CF002E69FEC7B
:100160000DF005E298EC0EF0F7E3DB2AF5D7000E70
:10017000E66E050EE66E80EC0FF0000EE66E050EE4
:1001800002EC0CF04D0EE66E970EE66E000EF5ECEE
:100190000BF0020EDBCF07F6080EE66E060E9EECA5
:1001A0000FF0000EE66E050EE66ECAEC0DF02CECBC
:1001B0000EF080EC0FF0B5EC0CF017EC0EF02CEC20
:1001C0000EF017EC55F0E552E552E552E552060106
:1001D00095EC0DF046EC0DF0030EE15C02E2E16AF5
:1001E000E552E16EFEEF0BF0F9EC0BF0050EE126A7
:1001F000D650016E006A030E00C0DBFF040E01C082
:10020000DBFFD7502EEC0DF0DF6A080EDF5C0BE24F
:10021000DF50EA6AE90FE96E090EEA22EF502EEC90
:100220000DF0DF2AF2D7030EDBCFE6FF040EDBCFA3
:10023000E6FFD3EC53F0E552E552DF6A160EDF5CC1
:1002400011E204EC0CF004BE0568E7EC0CF0DF50A2
:10025000EA6A650FE96E090EEA22E552E750EF6E91
:10026000DF2AECD709017B6B090EE5EC0EF074EC8C
:100270000CF0D80EE66E040EE66E78EC0CF08DEC09
:100280000FF078EC0CF0160EE66EE66AA4EC0DF0BA
:1002900005EC62F0026E0A0EE15E02500601450EA8
:1002A000FD6F970EFE6F000E46EC0DF0A4EC0DF006
:1002B00020EC0DF0FCEC0EF0DFEC0CF017EC55F040
:1002C000EAEC0EF00601FCEC0EF0080EE5EC0EF088
:1002D00074EC0CF078EC0CF020EC0DF095EC0DF0DB
:1002E00046EC0DF0050EE15C02E2E16AE552E16EDA
:1002F000FEEF0BF05EEC0EF02CEC0EF08DEC0FF040
:100300002CEC0EF0CDEC3FF0E552E55270EC0CF029
:10031000FE0EDB50020A11E0030A03E0010A1EE1AF
:1003200009D019EC0DF0D1EC0DF003E1DE52DD50F7
:10033000011814E0CFEC0EF011D019EC0DF0D1EC57
:100340000DF003E1DE52DD50011808E0ACDECFEC29
:100350000EF0010EF36EFE0EF3CFDBFFFE0EDB5050
:10036000006E020EE15C02E2E16AE552E16E0050CD
:10037000FEEF0BF032EC0FF0020EE5EC0EF023EC8A
:100380000EF0A9EC0DF03C0EE66E970EE66E000E38
:10039000D8EC0BF031EC0EF017EC0EF011EC0EF087
:1003A000E66E90EC0FF076EC0DF031EC0EF060C0E4
:1003B000E6FF61C0E6FFAEEC0BF00001625194EC89
:1003C0000EF0000166510F0A20E0020A18E0090A47
:1003D00010E0060A08E0030A1EE1300EE66E970EF2
:1003E000E66E000E1DD0280EE66E970EE66E000E2D
:1003F00017D0220EE66E970EE66E000E11D0190E83
:10040000E66E970EE66E000E0BD0100EE66E970E9F
:10041000E66E000E05D0070EE66E970EE66E000E35
:10042000A6EC0CF000016851040A18E0070A10E07D
:10043000020A08E0010A18E1FD0EE66E960EE66E6D
:10044000000E14D0F40EE66E960EE66E000E0ED080
:10045000ED0EE66E960EE66E000E08D0E00EE66E2D
:10046000960EE66E000E02D011EC0EF0A6EC0CF02B
:10047000A0EC0CF04D080FE173C0E6FF74C0E6FF7E
:10048000AEEC0BF075C0E6FF76C0E6FF56EC0FF061
:1004900038EC0EF016D073C000F074C001F0040EFA
:1004A000AEEC0DF0FDE1A0EC0EF031EC0EF075C0FD
:1004B00000F076C001F0040EAEEC0DF0FDE1A0EC12
:1004C0000EF031EC0EF00001635194EC0EF064C0BC
:1004D000E6FF65C0E6FFAEEC0BF00001695194EC5D
:1004E0000EF000016A5194EC0EF00001675194EC9B
:1004F0000EF00001665194EC0EF00001685194EC8E
:100500000EF0AFC000F0016A00BE016885EC0FF08C
:10051000B0C0E6FFB1C0E6FFAEEC0BF0B7C000F034
:10052000016A00BE016885EC0FF0D1EC0CF056ECCE
:100530000FF0ABEC0EF031EC0EF0940EE66E090EFF
:10054000E5EC0BF0040EE15C02E2E16AE552E16EDB
:100550000050FEEF0BF05EEC0EF07AEC0DF0D90ED1
:10056000E66E960EE66E000E63EC0FF02FEC0CF0CC
:1005700040EC0FF000BE0168C6EC0BF0960EE66E84
:10058000090E36EC0FF002E2E16AE552E16E00502E
:10059000FEEF0BF0F9EC0BF0070EE126D20EE66E43
:1005A000960EE66E000E9DEC0CF074EC0CF0DF6A1B
:1005B000040EDF5C70E2D8EC0DF0EFCF00F0000E1F
:1005C000E76E0018E8AE02D0003403D0E750D880C0
:1005D000005453E2DF50EA6A990FE96E000EEA22F6
:1005E000EFCF04F004C029F0FCEC4DF027C000F080
:1005F00028C001F029C002F02AC003F0560E2C6E6C
:100600000E0E2D6E8D0E2E6E3E0E2F6EBFEC4EF02A
:1006100087EC50F0030E26C0DBFF040E27C0DBFF83
:10062000050E28C0DBFF060E29C0DBFFA1EC0FF092
:10063000D950030F24EC0FF007EC0DF0E66AE66AE0
:10064000E66A78EC0CF064EC41F0006E0B0EE15EB3
:10065000005074EC0CF0D8EC0DF0EF50D80F006E99
:10066000016A00BE016874EC0EF011EC0EF0E66E4B
:1006700089EC0FF011EC0EF005D0CD0EE66E960E63
:10068000E66E000EE66E78EC0CF050EC0EF074ECBA
:100690000CF0DF2A8DD7B6C000F0016A00BE0168F9
:1006A00074EC0EF0E66AE66AE66A89EC0FF0980EE2
:1006B000E66E090EE5EC0BF0070EE15C02E2E16A82
:1006C000E552E16E0050FEEF0BF02EEC0FF0010E44
:1006D000F36E020EF3CFDBFF49EC0DF0C60EE66EB3
:1006E000960EE66E000E78EC0FF00F0EF66E000E12
:1006F000F76E000E7FEC0CF0100EF66E000EF76E2B
:10070000000E7FEC0CF0ABEC0CF017EC0EF0DFEC15
:100710000DF023EC0EF0020ED7EC0EF09EEC0FF075
:1007200095EC0FF0800EE66E000E2AEC0CF0000146
:10073000BB514CEC0EF00501F4514CEC0EF0C80E20
:10074000E66E050E2AEC0CF0BE0EE66E000E2AECEC
:100750000CF09A0EE66E090EE5EC0BF0030EE15C70
:1007600002E2E16AE552E16E0050FEEF0BF0F9ECB7
:100770000BF0060EE12600017B517C117D117E11EC
:1007800009E1020EDB6A030EDB6A040EDB6A050E6A
:10079000DB6A1DD07B0EE96E000EEA6EEE500001A2
:1007A000775D006EEE507859016EEE507959026E09
:1007B000EE507A59036E020E00C0DBFF030E01C03B
:1007C000DBFF040E02C0DBFF050E03C0DBFF0001F0
:1007D0006B51E66EE66AB80EE66E960EE66E000E99
:1007E00078EC0FF000016C514CEC0EF000017051F0
:1007F0004CEC0EF092C000F0016A00BE0168C6EC3D
:100800000BF0000193514CEC0EF094C000F0016A23
:1008100000BE0168C6EC0BF09DC0E6FF9EC0E6FF7F
:10082000ABEC0BF083EC0DF03FEC0CF000017151E0
:100830004CEC0EF09BEC0DF007EC0DF03FEC0CF0E7
:100840007FC000F0016A00BE0168C6EC0BF0000139
:100850006D514CEC0EF0B4C000F0016A00BE0168AE
:10086000C6EC0BF0B3C000F0016A00BE0168C6EC34
:100870000BF051EC0CF011EC0EF05FEC0CF0000101
:100880006E514CEC0EF0F8EC0CF011EC0EF05FEC4D
:100890000CF000016F514CEC0EF09C0EE66E090E50
:1008A000E5EC0BF0060EE15C02E2E16AE552E16E76
:1008B0000050FEEF0BF05EEC0EF0B10EE66E960E01
:1008C000E66E000E9DEC0CF023EC0EF00601CF510D
:1008D000D011D11116E0CFC6F6FFD0C6F7FFD1C6B2
:1008E000F8FF0800F5500DE0CFC6E6FFD0C6E6FFE2
:1008F000D1C6E6FFE1EC0BF011EC0EF0E66EE1EC98
:100900000BF0A10EE66E960EE66E000EE66EE1ECC2
:100910000BF0A20EE66E090E36EC0FF002E2E16A71
:10092000E552E16E0050FEEF0BF05EEC0EF0E6ECEF
:100930000DF09A0EE66E960EE66E000E03EC0DF0CC
:10094000A9EC0DF0ABEC0BF0000171514CEC0EF08A
:1009500040EC0FF000BE0168C6EC0BF07AEC0DF035
:100960003DEC0FF02FEC0CF0FD0EDB0404E19E0ECD
:10097000E66E090E03D0A00EE66E090E36EC0FF0FF
:1009800002E2E16AE552E16E0050FEEF0BF0F9EC95
:100990000BF0090EE126010E02EC0EF054EC0DF006
:1009A000EE50ED1001E138D1FD0EDBCFDEFFDBCFE5
:1009B000DDFFA0EC0CF009E0A0EC0CF0200805E055
:1009C000DF2A010EF6E3DB2AF4D7A0EC0CF02008B6
:1009D00001E022D1EDEC0DF001E3DB2AEF6A1CEC23
:1009E0000EF0A4EC0DF0B8EC0DF001E115D1090EFC
:1009F000E66E8EEC0CF0D80EE66E040EF0EC0BF00A
:100A00001CEC0EF093EC0CF01CEC0EF05BEC0DF01B
:100A10002CEC0EF0DFEC0CF0CAEC0DF02CEC0EF030
:100A200017EC0EF0B8EC0DF001E0F6D01CEC0EF077
:100A3000000EE66E060EB3EC0DF0A4EC0DF06BECC0
:100A40000CF0D80EE66E040EF0EC0BF02CEC0EF071
:100A500093EC0CF02CEC0EF05BEC0DF0DFEC0CF0FA
:100A600003EC0FF038EC0DF010EC0DF002E69FEC0B
:100A70000DF00AE26FEC0FF0B8EC0CF0060EDB2A7A
:100A8000070EF2E3DB2AF0D7DFEC0CF00BEC0FF0F3
:100A900038EC0DF010EC0DF002E69FEC0DF00AE2E0
:100AA0006FEC0FF0B5EC0CF0060EDB2A070EF2E34C
:100AB000DB2AF0D70901010E636F0A0EE66E8EEC99
:100AC0000CF0DBEC0BF050084EE10901935127E1EB
:100AD000060EDB6A070EDB6A10EC0DF004E6160E5C
:100AE000005C000E015819E204EC0CF004BE05682D
:100AF000E7EC0CF0060EDBCFE9FF070EDBCFEAFFD9
:100B00007C0EE926090EEA22E552E750EF6E060E4A
:100B1000DB2A070EE1E3DB2ADFD70901926B936B37
:100B2000920EE66E960EE66E000EF5EC0BF007ECFC
:100B30000EF06BEC0CF053EC00F0C4EC0EF009017D
:100B4000010E936FE66E8EEC0CF0E80EE66E040E6E
:100B5000F0EC0BF007EC0EF093EC0CF007EC0EF061
:100B60005BEC0DF002D00901936B0501F69F49EC97
:100B70000DF0700EE66E960EE66E000E98EC0FF01D
:100B80000F0EF66E000EF76E000E62EC0EF0CBEC60
:100B90000BF0100EF66E000EF76E000E62EC0EF00B
:100BA000CBEC0BF0ABEC0CF081EC0EF0DFEC0DF0CD
:100BB0003CEC0EF00601CC51CD11CE110CE0CCC6B0
:100BC000E6FFCDC6E6FFCEC6E6FF81EC0EF050ECA8
:100BD0000EF03CEC0EF0080ED7EC0EF0CBEC0BF068
:100BE0000501F55151EC0FF00501F651E66EE66A8C
:100BF00011EC0EF0E66E81EC0EF0D1EC40F07BECE7
:100C00000FF03CEC0EF00501F75151EC0FF0140E13
:100C10005CEC0CF0C4EC0EF0090EE15C02E2E16A5F
:100C2000E552E16EFEEF0BF02EEC0FF0090163517F
:100C30001AE1070EE66EE66A680EE66E960EE66E3E
:100C4000000E9BEC0FF0BDEC0DF001E0B9D0070EEB
:100C500063EC0CF09CDEE552E5520001060ED16F0C
:100C60000E0ED26FADD0BBEC0CF02CEC0EF01CECE9
:100C70000EF028EC0FF017EC0EF0B8EC0CF0050EAF
:100C8000E66EE66A620EE66E960EE66E000E63ECA7
:100C90000FF0BDEC0DF006E0400EE66ECFEC1FF05D
:100CA000E5528ED0D950FD0F24EC0FF0050EEE6EFC
:100CB000060EED6EC6EC0CF0EF50450835E113EC76
:100CC0000FF04D0831E154EC0DF0020EEE26000E4F
:100CD000ED22BBEC0CF0010EE66E050EE66E010E89
:100CE00063EC0CF028EC0FF083EC0CF0C2EC0CF091
:100CF00002E69FEC0DF005E298EC0EF0F7E3DB2A3C
:100D0000F5D717EC0EF0010EE66E050E02EC0CF0B6
:100D1000C6EC0CF0EFCF00F5D950FD0F24EC0FF02E
:100D2000000EEE6E050EED6E0501F6BF03D0050157
:100D3000150EF76FC6EC0CF0EF50430A37E0190AB6
:100D400011E01B0A3DE15B0EE66E960EE66E000EAC
:100D5000F5EC0BF00901645133E153EC00F080EC49
:100D600000F01ED013EC0FF030081DE00001010E62
:100D7000BA6F0901645124E153EC00F0E66ABAEC61
:100D800001F0E552E66AABEC02F0E552E66ACAEC25
:100D900002F0E552E66A99DCE552E66AE8DCE552E3
:100DA00070EC00F00DD00001BA6B0AD0010E63ECBC
:100DB0000CF00ED8E552E5520901645101E1DAD98F
:100DC000030EE15C02E2E16AE552E16EFEEF0BF038
:100DD00032EC0FF0FD0EDBCFDEFFDBCFDDFFA0EC52
:100DE0000CF009E0A0EC0CF02C0805E0DF2A010E65
:100DF000F6E3DB2AF4D7A0EC0CF02C0805E1EDECCF
:100E00000DF001E3DB2AEF6AFD0EDBCFE6FFFE0EFD
:100E1000F4EC0DF0F3CFA4F9F4CFA5F9DECFA6F9E9
:100E2000DDCFA7F9040EE15C02E2E16AE552E16E72
:100E3000FEEF0BF0F9EC0BF0060EE126020E8FEC44
:100E40000EF0310E0901A41901E1A55101E172D1A1
:100E5000290EA41901E1A55101E15AD1280EA419C6
:100E600001E1A55101E127D1060EA41901E1A55127
:100E700001E11DD1050EA41901E1A55101E10ED139
:100E8000040EA41901E1A55101E1BFD0030EA4197C
:100E900001E1A55101E181D0020EA41901E1A551A2
:100EA0002AE0010EA41901E1A55102E0000E59D17A
:100EB000DE6ADD6AC2EC0CF004E6100E005C000E87
:100EC000015801E34DD117EC0EF0500EE66E960E70
:100ED000E66E000E98EC0FF0100E51EC0FF08CEC5B
:100EE0000DF0EF5051EC0FF080EC00F0DF2A010E16
:100EF000E1E3DB2ADFD762EC0DF0DBEC0BF009E07D
:100F0000F9EC0EF006E0020EDB2A030EF6E3DB2A14
:100F1000F4D7F9EC0EF001E0BAD026EC0DF001E3C5
:100F2000DB2AC8EC0EF001E0ACD0FBEC0DF004E6DF
:100F3000100E025C000E035801E3A3D090EC0FF0FA
:100F4000F4EC0DF0F350E66E8CEC0DF0E552E7504A
:100F5000EF6EC2EC0CF004E6080E005C000E0158C7
:100F600010E328EC0EF0F4EC0EF0080E005E000E1C
:100F7000015A180E0024E66E5BEC60F0E552E55273
:100F8000E5526EEC0DF00F0EEE1804E1ED5002E1AB
:100F900048EC57F040EC0DF07FD0DE6ADD6AC2EC21
:100FA0000CF004E6200E005C000E015801E3D8D0DE
:100FB000DFCFE6FF8EEC0CF06EEC0DF0090EEE18B4
:100FC00004E1ED5002E1C7EC0DF017EC0EF0450E18
:100FD000E66E960EE66E000E98EC0FF0200E51ECC9
:100FE0000FF028EC0EF011EC0EF0E66E040EDBCFE5
:100FF000E6FF050E76EC0DF03CEC0EF080EC00F018
:10100000DF2A010ECCE3DB2ACAD762EC0DF0D3DB7A
:1010100009E0F9EC0EF006E0020EDB2A030EF7E31E
:10102000DB2AF5D7F9EC0EF032E126EC0DF001E306
:10103000DB2AC8EC0EF025E1FBEC0DF004E6180EFF
:10104000025C000E03581DE228EC0EF0DFCFE6FF35
:101050005BEC60F0E552E552E55240EC0DF082DBCE
:101060006EEC0DF0020EEE1801E1ED5007E06EECB3
:101070000DF00E0EEE181CE1ED501AE148EC57F0A1
:1010800017D0980EE66ECA0EE66E000E05D06C0EF6
:10109000E66ECA0EE66E000E65DB0AD040EC0DF07F
:1010A0003AEC0FF0040EE66ECFEC1FF058D0BADA2F
:1010B00080EC00F055D062EC0DF07DDB09E0F9EC3E
:1010C0000EF006E0020EDB2A030EF7E3DB2AF5D76B
:1010D000F9EC0EF015E126EC0DF001E3DB2AEF6AE6
:1010E00069EC0DF0F3EC29F0E552E55228EC0EF036
:1010F00020EC0DF0550EFD6F970EFE6F000E23D005
:1011000053EC00F06C0EE66ECA0EE66E000E21D0B7
:101110000601390EFD6F960EFE6F000E46EC0DF0C7
:1011200069EC0DF020EC0DF0330EFD6F960EFE6FA6
:10113000000E09D069EC0DF020EC0DF0310EFD6FC2
:10114000960EFE6F000E46EC0DF0050EB5DB40EC82
:101150000DF03AEC0FF0020EE66E0DEC3EF0E552AB
:10116000010E006E060EE15C02E2E16AE552E16EFC
:10117000005044D30501F6BF03D00501160EF76FEA
:10118000020E8FEC0EF0280E0901A5AF02D0D89008
:1011900003D0A45D000EA55907E3A53507E2A451CD
:1011A0003108000EA55502E253EC00F00901F1519F
:1011B000F211F31119E0A6C9E6FFA7C9E6FFA4C919
:1011C000E6FFA5C9E6FF010EE66E07D0F3C9FBFFF7
:1011D000F2C9FAFF0901F151F96EF8DF006E050E50
:1011E000E15E005000090AE125DE000907E1070E73
:1011F000E66ECB0EE66E000E3AEC0FF070EC00F0EF
:101200000901A46BA56BA6C9E9FFA7C9EAFFEF6AAC
:101210001200EFDA090163512CE06451000829E360
:10122000020E4ADB290EE66E960EE66E000EDDDA41
:101230001E0EE66E960EE66E000E3EEC0DF01CECF9
:101240000EF049DB150EE66E960EE66E000E3EECD5
:101250000DF0AA0EE76EFB0EDBCFE9FFFC0EDBCF35
:10126000EAFF0CEC0EF0EF6AE6EC0DF034DBC4ECB8
:101270000EF0C4D232EC0FF0020EDB6A030EDB6A12
:101280000901635170E054EC0DF0EE50ED106BE08D
:10129000220E9BEC0FF011EC5AF0E552E552E552AC
:1012A00031EC0EF0F3CF00F0F4CF01F0F350F41076
:1012B00023E0020EDB2ADBCF00F0030E01E3DB2A82
:1012C000DBCF01F0FD0E00C0DBFFFE0E01C0DBFF37
:1012D00072DA10E070DA22080DE0F9EC0EF004E1A9
:1012E000B2EC0EF02E0EEF6E020EDB2A030EF0E3D0
:1012F000DB2AEED7C7EC0DF0290EE66EE66A690E22
:10130000E66E970EE66E000E78EC0FF09BEC0DF09B
:10131000EE50ED100EE01CEC0EF0110EE66E960E87
:10132000E66E000E9EEC0FF068EC40F0006E070ECB
:101330000BD0FA0EE66E950EE66E000E9EEC0FF0E8
:1013400039EC40F0006E050EE15E005023EC0EF02B
:1013500009016451000803E2140E8FEC0EF053EC07
:1013600000F0C4EC0EF0040EE15C02E2E16AE5522A
:10137000E16E44D23EDA0C0EE12675C0DEFF76C087
:10138000DDFF020E73C0DBFF030E74C0DBFF040E33
:101390009FC0DBFF050EA0C0DBFF060EA1C0DBFF78
:1013A000070EA2C0DBFFF60E02EC0EF0950EF36EF8
:1013B000090EF3CFDBFF000EF36E0A0EF3CFDBFF57
:1013C0004B0E0601CB5D59E1F4EC0EF0040EC6DBCA
:1013D000FEE15ADA28C0DEFF29C0DDFF020EDBCFB6
:1013E00000F0030EDBCF01F0040EB8DBFEE14CDAB7
:1013F00029C001F0020E28C0DBFF030E29C0DBFF6D
:10140000040E006ED950040F24EC0FF000501F0B97
:10141000EECF26F0EECF27F0EECF28F0EECF29F07A
:1014200007E0D8902636273628362936E806F9E12F
:10143000050E2626000E2722282229220A0E2B6EB0
:101440002C6A2D6A2E6A55EC66F0040E26C0DBFF6E
:10145000050E27C0DBFF060E28C0DBFF070E29C0E4
:10146000DBFFF20ECFDB950EF36E090EF3CFDBFF41
:10147000000EF36E0A0EF3CFDBFF00016BA57AD0EE
:10148000010EF36E0B0EF3CFDBFF00016851040A6F
:1014900018E0070A10E0020A08E0010A19E1E60E66
:1014A000E66E950EE66E000E11D0DB0EE66E950E22
:1014B000E66E000E0BD0D20EE66E950EE66E000EB6
:1014C00005D0C30EE66E950EE66E000EE66E68D988
:1014D000000166510F0A20E0020A18E0090A10E034
:1014E000060A08E0030A20E1BA0EE66E950EE66EE3
:1014F000000E17D0A40EE66E950EE66E000E11D00B
:10150000960EE66E950EE66E000E13D08C0EE66E0D
:10151000950EE66E000E05D07A0EE66E950EE66E1E
:10152000000EE66E3DD909D0690EE66E950EE66EA8
:10153000000EE66E35D90B0EDB6A0B0EDB5021E098
:1015400060C0E6FF61C0E6FF660EE66E950EE66ED1
:10155000000E2AD900016251E66EE66A630EE66E5D
:10156000950EE66E000E20D9610EE66E950EE66EC3
:10157000000E05D0540EE66E950EE66E000EE66E79
:101580000FD9E7DA4C0EE66E950EE66E000E0CD91A
:101590004A0EE66E950EE66E000EE66E01D9CBDAC7
:1015A000EE50ED1008E054DB3A0EE66E950EE66E56
:1015B000000EFAD878DB92DAEE50ED1008E037DB57
:1015C0002B0EE66E950EE66E000EEED86CDBA1ECEF
:1015D0000FF099DA230EE66E950EE66E000E83DAB2
:1015E000006E0B0EE15E005093DB5DDB0001C75126
:1015F000C8110CE0D6D91B0EE66E950EE66E000EF5
:1016000072DA046E0B0EE15E045082DBB2DB00C0C6
:10161000F3FF01C0F4FF0C0EE15C02E2E16AE55267
:10162000E16EECD04BDB7BDB290EE66E960EE66EB0
:10163000000E83D908DBFBDA9DDEE552E552020E8F
:10164000E15C02E2E16AE552E16ED8D060EC0FF0B5
:10165000F90EE66E940EE66E000EC7D89ED902E231
:10166000E16AE552E16ECAD060EC0FF0CE0EE66E94
:10167000940EE66E000EB9D890D902E2E16AE55206
:10168000E16EBCD060EC0FF064DA9E0EE66E940E54
:10169000E66E000E78EC0FF0970EE66E940EE66E96
:1016A000000EE66E8ED879D902E2E16AE552E16E6B
:1016B000A5D060EC0FF00601CAA307D0F2D8700ED7
:1016C000E66E940EE66E000E06D0EBD8580EE66E6F
:1016D000940EE66E000EF7DB3EDBB5DA89D9500ECC
:1016E000E66E940EE66E000EEAD84D0EE66E940E8F
:1016F000E66E000EE66E65D850D902E2E16AE55268
:10170000E16E7CD0DDDBC80EE66E050EE66E450EA2
:10171000E66E940EE66E000E76D92BDB026A036A43
:10172000E3DA02C0E6FF03C0E6FFA7DB8FEC40F080
:10173000046E090EE15E045086DAD950F90FE96EA5
:10174000FF0EDA20EA6E63D99AD827D902E2E16A5D
:10175000E552E16E53D091DB95EF0FF0A7DB88DA0D
:1017600031EF0EF0E66EA4C9E6FFA5C9E6FF620EF2
:10177000E66ECA0EE66E000EA6DBAFDA84DA39EC4E
:1017800040F0036E050EE15E03501200ADDA75DB2A
:10179000A4DA23EF0EF0E66EB4DA6ADA3CEF0EF06C
:1017A0004BDA7EDA88EF0EF0C6DB62DA88EF0EF0F5
:1017B0008ADB38EF0EF0D6DAEF50120077DB6DEFF0
:1017C0000EF035DA6DDA23EF0EF0E66EFE0EDBCFAB
:1017D000E6FF7AEC01F0E552E552E552006E1200A8
:1017E000E66E36DA9ADB28EF0EF06DDB66EC5AF027
:1017F0007AD3D9CFE6FFE1CFD9FF1200E552E7CF88
:10180000D9FF120063DB75D2A80E006ECB0E016EFD
:10181000000E026E69DAE66EDAEC53F0E552E7CFBD
:1018200002F0E552E7CF01F0E552E7CF00F0F3CF49
:1018300003F0F4CF04F0400E2D6E2E6AF3CF28F0A3
:10184000F4CF29F099EC4FF024C003F025C004F048
:10185000056A1200E66E11DB93DA23EF0EF089ECD5
:1018600042F028DBA7C0E6FFA8C0E6FFA9C0E6FF5C
:10187000AAC0E6FF02DB89EC42F05AEF0FF0FDDA76
:101880008FEC40F05AEF0FF0050E0026000E0122FB
:101890000A0E2D6E2E6A00C028F001C029F096EFC6
:1018A00066F04FDBBCC000F0016A026A036ABCC08C
:1018B000E6FF01C0E6FF84D232DA53EF00F03EDBF0
:1018C0004ADA23EF0EF0E76E54DAE7500026000EF6
:1018D000012274EF0EF0C0D9D1EC59F0EAEF0EF00E
:1018E000E552E55223EF0EF0DE52ADD9DD52120083
:1018F000010EDBCFE6FF020EDBCFE6FF1200E2D9DE
:101900001DDB95EF0FF0100EE66EE66AE80EE66E50
:10191000040EDCDA8EDADE6ADD6A120014EC60F0A6
:10192000E55231EF0EF05BDAF3CF02F0F4CF03F0C3
:10193000F3CFE6FFF4CFE6FF1200C5DA50EF0EF06A
:10194000DECFE9FFDDCFEAFFEF501200E66E80D96F
:10195000A7D931EF0EF00E0E38DA95D9C20EE66E29
:10196000960EE66E000EE66E120076D954DAC1D1FC
:1019700073D949DABED1570EE66E970EE66E000EA9
:10198000DADA5FD231DAD89001501200FD0EDBCFE7
:10199000E9FFFE0EDBCFEAFF1200F6D9020EE15C92
:1019A0001200020EE66EE66AC7C000F0C8C001F081
:1019B000026A036AC7C0E6FFC8C0E6FF01D2100E84
:1019C000E66EE66AD80EE66E040EE66E1200005071
:1019D0000324F36E01500420F46E02500520F86ECB
:1019E000F4CFF7FFF3CFF6FF0800F550E66E1200D4
:1019F000A8DABDC000F0016A026A036ABDC0E6FF52
:101A000001C0E6FFDDD15FDABBD923EF0EF0EECFE8
:101A1000E6FFEECFE6FFEECFE6FFEFCFE6FF1200E8
:101A2000060EDBCF00F0070EDBCF01F0D89001509F
:101A30001200FC0EDBCFE9FFFD0EDBCFEAFF120048
:101A400083EC1EF0E552E55206011200020EDBCFD8
:101A5000E9FFDB2A030EDBCFEAFF1200006E016A0A
:101A6000D950030FF1D90050EE260150ED2212009B
:101A7000E0D9060EDB6A070EDB6A120024DAE1D138
:101A8000690EE66ECA0EE66E000E1200FF6F34EFAE
:101A90001EF00E0EF66E000EF76E000EF86E0800C9
:101AA000F550E66EE66A1200D950FD0FE96EFF0EA2
:101AB000DA20EA6E120005EC62F0046E0A0EE15EB6
:101AC00004501200020EA6C9DBFF030EA7C9DBFFFC
:101AD0001200A6C9E6FFA7C9E6FF1200D9CFE9FFA9
:101AE000DACFEAFF120027DAC4EF41F0DBCFE6FFDE
:101AF000C0EF0EF0A3C0E6FFA4C0E6FFA5C0E6FF5E
:101B0000A6C0E6FF12009FC0E6FFA0C0E6FFA1C08E
:101B1000E6FFA2C0E6FF1200DECFE9FFDDCFEAFF5D
:101B2000E50EE926050EEA221200570EFD6F970E0C
:101B3000FE6F000E1200D950020F24EF0FF0000EBE
:101B4000005C040E01581200650EE66E090EE66E8A
:101B5000120000017251E66EE66A1200D89000365B
:101B60000136E8041200E66E45EC5AF0EAEF0EF09A
:101B700025EC5AF02FD9000912006DEC59F0BBD9B1
:101B80000009120031D90001800E01141200EAD8B8
:101B9000EF6A1200C2EC54F0006E060EE15E0050D7
:101BA0001200EECF00F0EFCF01F0DF50001812006E
:101BB000DF50EA6A950FE96E000EEA22120068EC27
:101BC00040F0026E070EE15E02501200FB0EDBCF0A
:101BD000E6FFFC0EDBCFE6FF1200DFCFE9FFDF2AD6
:101BE000010EDBCFEAFF1200DBCFE6FF44EC51F041
:101BF000E552E5521200DECF02F0DDCF03F0D890BF
:101C000003501200F36E080EF3CFDBFF12007C0EC0
:101C1000E66E090EE66E1200E750E926000EEA2293
:101C200012003A0EE66E970EE66E000E1200DECF40
:101C3000E6FFDDCFE6FF1200FD0EDBCFE6FFFE0E76
:101C4000DBCFE6FF1200F3CFDEFFF4CFDDFF1200A3
:101C500067D9DBCFE6FF1200000EE66E060EE66ED9
:101C60001200020EF3CFDBFF030EF4CFDBFF1200F6
:101C700070EC40F07BEF0FF0040EF3CFDBFF050EAE
:101C8000F4CFDBFF1200F3CF00F0F4CF01F0F3CF7D
:101C9000E6FFF4CFE6FF1200E66EE66AABEF0BF06C
:101CA00039EC40F020D1080EDBCFE6FF090EDBCF88
:101CB000E6FF0A0EDBCFE6FFD0EF0BF09ADD020E57
:101CC000E1261200F86E0800F550E66EE66AC40ED2
:101CD000E66E960EE66E000E120070EC40F0026E9C
:101CE000070EE15E0250120000C0E6FF01C0E6FFF1
:101CF0001200E66E1AEC5EF0006E080EE15E005017
:101D00001200040EDBCFE6FF050EDBCFE6FF12006C
:101D1000FD0EF3CFDBFFFE0EF4CFDBFF1200E66E0D
:101D20000DEC3EF0E5521200E66EE66AAEEF0BF007
:101D3000D6D8000EE66E060E65DDDF2A010E120013
:101D4000A3DD28C000F029C001F028C0E6FF29C0AB
:101D5000E6FFDEEF0BF064EC41F0046E0B0EE15E8B
:101D600004501200020EDBCFE9FF030EDBCFEAFFC7
:101D70001200FD0EDBCF00F0FE0EDBCF01F01200F3
:101D800068EC40F07BEF0FF080EC00F070EF00F0BB
:101D9000EF6A9FDE44EC51F0A3DDC2EF0DF080EC62
:101DA00000F047DEDECFEEFFDDCFEDFF1200DBCF30
:101DB000E6FFE66ABF0EE66E960EE66E000E1200B5
:101DC00002C0E6FF03C0E6FF1200E66E14EC60F00E
:101DD000E5521200E552E552E552E55212007FEC61
:101DE0005AF0E552E5521200DECF00F0DDCF01F0EF
:101DF0001200E1DC2C081200430EFD6F970EFE6FFF
:101E0000000E46EF0DF0000EE66E020EE66EFA0EC4
:101E1000E66E040E1200000EE66E010EE66EF80E7F
:101E2000E66E040E1200010EE76EB0DDF5DEEF5037
:101E30001200E66E71EC5DF0006E080EE15E00507F
:101E40001200F5EC59F04FD0E96EDACFEAFF12003C
:101E50007EEC55F0E552E55270EF0CF0CADC030E53
:101E6000E1261200C6DC040EE1261200AEDC020EF2
:101E7000E15C120077DC80EF00F0D3DE9EEF0FF024
:101E8000ABC0E6FFACC0E6FF66DCADC0E6FFAEC0AF
:101E9000E6FF61DC0001B251FFDEB5C000F0016A6F
:101EA0001200E66EE66ABDDECBEF0BF0BADEE66E40
:101EB00028EF0EF0006E090EE15E005023EF0EF0E9
:101EC000FDDE5CEF0CF0E66E2CEF0EF0E66E000E21
:101ED000E66E030EE66EFC0EE66E040E12000601C0
:101EE000006BA1EF0FF0006E050EE15E00501200D6
:101EF0005FDC23EF0EF0006E070EE15E0050120073
:101F00007FEC5AF0EDDC17EF0EF0EEDE57DC31EF30
:101F10000EF0EEDCE2DE74EF0CF061DF43EF0EF06A
:101F2000020EDBCFE6FF030E1200A2DE23EF0EF05F
:101F30003FDC3CEF0EF0E66E1CEF0EF0E66E17EFA6
:0A1F40000EF0010EE66EE66A1200D4
:061F4A005FEC1CF0A5ECA9
:101F50001CF0EE6AEE6AEE6AEE6AD8EC1BF0EE6AEE
:101F6000EE6AEE6AEE6A14EC19F0010EEE6E230EC4
:101F7000EE6E450EEE6E670EEE6E14EC19F0040E6A
:101F800056EC1AF0890EEE6EAB0EEE6ECD0EEE6EC6
:101F9000EF0EEE6E14EC19F0080E56EC1AF0FE0E71
:101FA000EE6EDC0EEE6EBA0EEE6E980EEE6E14EC69
:101FB00019F00C0E56EC1AF0760EEE6E540EEE6E14
:101FC000320EEE6E100EEE6EE552E7CFD9FF120024
:101FD0005FEC1CF0080EE126030E046ED8EC1BF03B
:101FE0008AEC1AF003E0AAEC1AF0FDE13F0E0016AD
:101FF000E4EC1AF019EC1CF0F90EDBCF04F0FA0E49
:10200000DBCF05F0066A076A05AE02D006680768EE
:10201000030E1F0B07E0D890043605360636073648
:10202000E806F9E1D8EC1BF00450EF26EECF00F003
:102030000550EF22EECF01F00650EF22EECF02F076
:102040000750EF22EECF03F0F90EDBCF08F0FA0EC7
:10205000DBCF09F00A6A0B6A09AE02D00A680B6886
:10206000030E1F0B03E0BBEC1AF0FDE10850005C0F
:10207000095001580A5002580B50035806E2A5ECCB
:102080001CF0EE2AEE22EE22EE22C2EC1AF0026AD8
:10209000036A01AE02D0026803681D0EAAEC1AF0B2
:1020A000FDE1A5EC1CF052EC1CF0400E046E056A3C
:1020B000066A076AD9CFE9FF90EC1AF0EE5007588C
:1020C000060E00C0DBFF070E01C0DBFFC2EC1AF0FA
:1020D0007CEC1CF001500318E8AE02D0033404D0AD
:1020E0000250005C035001586AE3060EDBCFE6FFA6
:1020F000070EDBCFE6FF7EEC1AF05BEC1CF0E9CFBD
:1021000002F0EACF03F0DB50E924006E010EDB5051
:10211000EA20DAEC1AF08CEC59F0046E060EE15E5F
:1021200004505BEC1CF075EC1AF014EC19F0E9CFDC
:1021300002F0EACF03F099EC1AF0060EDBCF28F09C
:10214000070EDBCF29F0040E28C0DBFF050E29C0E7
:10215000DBFF3F0EE76E42EC1CF0E7500026000E5E
:1021600001223BEC1CF001500318E8AE02D003340E
:1021700004D00250005C035001581EE2040EDBCF75
:1021800002F0050EDBCF03F0FB0EDB500224006EE5
:10219000FC0EDB500320DAEC1AF014EC19F0E9CF56
:1021A00004F0EACF05F099EC1AF098EC1CF0400E20
:1021B000EE26000EED22CDD783EC1CF004D0040EE9
:1021C000DB6A050EDB6A3BEC1CF0040EDB50025CA4
:1021D000006E050EDB500358DAEC1AF0B1EC1AF081
:1021E000046EFC0EDB500720056E04C0E6FFE66EB1
:1021F0005BEC1CF0E9CF0AF0EACF0BF0DB50E924EE
:10220000086E010EDB50EA20096E08C0E6FFE66E9C
:102210008CEC59F00C6E060EE15E0C50080EE15C81
:1022200002E2E16AE55285EF1AF0CFEC1AF0080EEF
:10223000A4EC1AF0100E56EC1AF075EC1AF0D9CF87
:10224000E6FFDACFE6FFC9EC1AF0030E046E8AEC63
:102250001CF0100E56EC1AF08AEC1AF003E0AAEC0F
:102260001AF0FDE13F0E0016E4EC1AF0C8EC1BF08A
:10227000380EEE5C000EEE58000EEE58000EEE58D2
:102280000DE2380E046E056A066A076AA1EC1CF0BE
:1022900090EC1AF0026EEE50075813D0780E086ECC
:1022A000096A0A6A0B6AA1EC1CF0E9EC1CF0085CF4
:1022B000006EEE500958016EEE500A58026EEE5054
:1022C0000B58036EE5EC1BF00C0EDBCFE6FF0D0E9A
:1022D000DBCFE6FF000EE66E0A0EE66E7EEC1AF02D
:1022E000D3EC1AF0080EE66EE66AD9CFE6FFDACF35
:1022F000E6FF7EEC1AF0D3EC1AF0100EA4EC1AF004
:1023000075EC1AF0FD0EDBCFE6FFFE0EDBCFE6FF2D
:10231000C9EC1AF0100EE15C02E2E16AE55285EFC9
:102320001AF0CFEC1AF014EC19F0EECFDFFF010E2B
:10233000EECFDBFF020EEECFDBFF030EEECFDBFFB7
:10234000040EBAEC1BF0040EEECFDBFF050EEECF51
:10235000DBFF060EEECFDBFF070EEECFDBFF080E36
:10236000BAEC1BF0080EEECFDBFF090EEECFDBFF61
:102370000A0EEECFDBFF0B0EEECFDBFF0C0EBAEC3E
:102380001BF00C0EEECFDBFF0D0EEECFDBFF0E0EC3
:10239000EECFDBFF0F0EEECFDBFF400EE66EE66A00
:1023A000E66AE66A7EEC1AF0A80EE66E090EE66EA4
:1023B0008AEC17F0006E080EE15E00502EEC1BF068
:1023C00075EC19F0780E0026A40E01226A0E022286
:1023D000D70E64EC1CF003E0BAEC18F0FDE18CECD5
:1023E00018F0190EA9EC18F0FDE1E8EC1AF082ECF7
:1023F00019F0560E0026B70E0122C70E0222E80E73
:10240000D6EC1CF003E0BAEC18F0FDE19CEC18F0FF
:10241000140EA9EC18F0FDE103EC1BF08FEC19F0A1
:10242000DB0E0026700E0122200E0222240EA9ECE3
:102430001CF003E0BAEC18F0FDE17FEC18F00F0E91
:10244000A9EC18F0FDE11BEC1BF09CEC19F0EE0E72
:102450000026CE0E0122BD0E0222C10EDAEC1CF0C7
:1024600003E0BAEC18F0FDE18FEC18F00A0EA9ECCD
:1024700018F0FDE1DEEC1CF0A9EC19F0AF0E00261F
:102480000F0E01227C0E0222F50E64EC1CF003E01C
:10249000BAEC18F0FDE18CEC18F0190EA9EC18F06C
:1024A000FDE1E8EC1AF0B6EC19F02A0E0026C60E93
:1024B0000122870E0222470ED6EC1CF003E0BAEC94
:1024C00018F0FDE19CEC18F0140EA9EC18F0FDE1F9
:1024D00003EC1BF0C3EC19F0130E0026460E01228C
:1024E000300E0222A80EA9EC1CF003E0BAEC18F0A2
:1024F000FDE17FEC18F00F0EA9EC18F0FDE11BECEC
:102500001BF0D0EC19F0002A950E0122460E76EC55
:102510001CF0160E1F0B03E0BAEC18F0FDE18FEC77
:1025200018F00A0EA9EC18F0FDE1DEEC1CF0DDEC71
:1025300019F0D80E0026980E0122800E0222690E94
:1025400064EC1CF003E0BAEC18F0FDE18CEC18F040
:10255000190EA9EC18F0FDE1E8EC1AF0EAEC19F01C
:10256000AF0E0026F70E0122440E02228B0ED6EC8F
:102570001CF003E0BAEC18F0FDE19CEC18F0140E2E
:10258000A9EC18F0FDE103EC1BF0F7EC19F0B10E2B
:1025900000265B0E0122FF0E0222A9EC1CF003E0D4
:1025A000BAEC18F0FDE17FEC18F00F0EA9EC18F072
:1025B000FDE11BEC1BF004EC1AF0BE0E0026D70E5A
:1025C00001225C0E0222890EDAEC1CF003E0BAEC68
:1025D00018F0FDE18FEC18F00A0EA9EC18F0FDE1FF
:1025E000DEEC1CF011EC1AF0220E0026110E012276
:1025F000900E02226B0E64EC1CF003E0BAEC18F0B3
:10260000FDE18CEC18F0190EA9EC18F0FDE1E8ECF6
:102610001AF01EEC1AF0930E0026710E0122980E8D
:10262000DFEC1AF00C0F59EC18F0DBEC18F00C0E84
:102630001F0B03E0BAEC18F0FDE19CEC18F0140E4F
:10264000A9EC18F0FDE103EC1BF02BEC1AF08E0E58
:102650000026430E0122790E0222A60EA9EC1CF0E0
:1026600003E0BAEC18F0FDE17FEC18F00F0EA9ECD6
:1026700018F0FDE11BEC1BF038EC1AF0210E0026DF
:10268000080E0122B40E0222490EDAEC1CF003E01F
:10269000BAEC18F0FDE18FEC18F00A0EA9EC18F076
:1026A000FDE14FEC1BF082EC19F0620E0026250EC6
:1026B00001221E0E0222F60E68EC1CF003E0BAECBA
:1026C00018F0FDE18CEC18F01B0EA9EC18F0FDE100
:1026D0006BEC1BF0C3EC19F0400E0026B30E012288
:1026E000400E0222C00EADEC1CF003E0BAEC18F074
:1026F000FDE19CEC18F0170EA9EC18F0FDE142EC9E
:102700001BF004EC1AF0510E00265A0E01225E0E48
:102710000222260EB1EC1CF003E0BAEC18F0FDE149
:102720007FEC18F0120EA9EC18F0FDE157EC1BF04D
:1027300075EC19F0AA0E0026C70E0122B60E022271
:10274000E90EB5EC1CF003E0BAEC18F0FDE18FECFB
:1027500018F00C0EA9EC18F0FDE14FEC1BF0B6ECF4
:1027600019F05D0E0026100E01222F0E0222D60E49
:1027700068EC1CF003E0BAEC18F0FDE18CEC18F00A
:102780001B0EA9EC18F0FDE16BEC1BF0F7EC19F057
:10279000530E0026140E0122440E0222020EADEC4E
:1027A0001CF003E0BAEC18F0FDE19CEC18F0170EF9
:1027B000A9EC18F0FDE142EC1BF038EC1AF0810EA8
:1027C0000026E60E0122A10E0222D80EB1EC1CF06A
:1027D00003E0BAEC18F0FDE17FEC18F0120EA9EC62
:1027E00018F0FDE157EC1BF0A9EC19F0C80E00261B
:1027F000FB0E0122D30E0222E70EB5EC1CF003E023
:10280000BAEC18F0FDE18FEC18F00C0EA9EC18F002
:10281000FDE14FEC1BF0EAEC19F0E60E0026CD0EC0
:102820000122E10E0222210E68EC1CF003E0BAEC5A
:1028300018F0FDE18CEC18F01B0EA9EC18F0FDE18E
:102840006BEC1BF02BEC1AF0D60E0026070E0122C3
:10285000370E0222C30EADEC1CF003E0BAEC18F008
:10286000FDE19CEC18F0170EA9EC18F0FDE142EC2C
:102870001BF09CEC19F0870E00260D0E0122D50EE0
:102880000222F40EB1EC1CF003E0BAEC18F0FDE10A
:102890007FEC18F0120EA9EC18F0FDE157EC1BF0DC
:1028A000DDEC19F0ED0E0026140E01225A0E022264
:1028B000450EB5EC1CF003E0BAEC18F0FDE18FEC2E
:1028C00018F00C0EA9EC18F0FDE14FEC1BF01EEC1B
:1028D0001AF0050E0026E90E0122E30E0222A90ECF
:1028E00068EC1CF003E0BAEC18F0FDE18CEC18F099
:1028F0001B0EA9EC18F0FDE16BEC1BF08FEC19F04E
:10290000F80E0026A30E0122EF0E0222FC0EADEC03
:102910001CF003E0BAEC18F0FDE19CEC18F0170E87
:10292000A9EC18F0FDE142EC1BF0D0EC19F0D90E47
:102930000026020E01226F0E0222670EB1EC1CF07F
:1029400003E0BAEC18F0FDE1DADB120EA9EC18F0A6
:10295000FDE157EC1BF011EC1AF08A0E00264C0E2C
:1029600001222A0E02228D0EB5EC1CF003E0BAEC17
:1029700018F0FDE1D4DB0C0EECDBFEE186EC1BF085
:10298000B6EC19F0420E0026390E0122FA0E022290
:10299000FF0E6CEC1CF002E0EDDBFEE1BDDB1C0E7B
:1029A000D8DBFEE19EEC1BF0DDEC19F0810E002679
:1029B000F60E0122710E0222870EB9EC1CF002E025
:1029C000D9DBFEE1B9DB150EC4DBFEE18DEC1BF0BB
:1029D00004EC1AF0220E0026610E01229D0E022246
:1029E0006D0EBDEC1CF002E0C5DBFEE188DB100ED5
:1029F000B0DBFEE1A6EC1BF02BEC1AF00C0E00266F
:102A0000380E0122E50E76EC1CF0170E1F0B02E0CB
:102A1000B1DBFEE184DB090E9CDBFEE186EC1BF002
:102A200082EC19F0440E0026EA0E0122BE0E0222AC
:102A3000A40E6CEC1CF002E09DDBFEE16DDB1C0ED5
:102A400088DBFEE19EEC1BF0A9EC19F0A90E002634
:102A5000CF0E0122DE0E02224B0EB9EC1CF002E07A
:102A600089DBFEE169DB150E74DBFEE18DEC1BF00A
:102A7000D0EC19F0600E00264B0E0122BB0E022294
:102A8000F60EBDEC1CF002E075DBFEE138DB100E4B
:102A900060DBFEE1A6EC1BF0F7EC19F0700E0026EF
:102AA000BC0E0122BF0E0222BE0EE2EC1CF002E0C0
:102AB00061DBFEE134DB090E4CDBFEE186EC1BF052
:102AC0001EEC1AF0C60E00267E0E01229B0E02227C
:102AD000280E6CEC1CF002E04DDBFEE11DDB1C0E51
:102AE00038DBFEE19EEC1BF075EC19F0FA0E0026C7
:102AF000270E0122A10E0222EA0EB9EC1CF002E020
:102B000039DBFEE119DB150E24DBFEE18DEC1BF059
:102B10009CEC19F0850E0026300E0122EF0E0222E9
:102B2000D40EBDEC1CF002E025DBFEE1E8DA100E6D
:102B300010DBFEE1A6EC1BF0C3EC19F0050E00263D
:102B40001D0E0122880E0222040EE2EC1CF002E0AF
:102B500011DBFEE1E4DA090EFCDAFEE186EC1BF0A3
:102B6000EAEC19F0390E0026D00E0122D40E022212
:102B7000D90E6CEC1CF002E0FDDAFEE1CDDA1C0EA1
:102B8000E8DAFEE19EEC1BF011EC1AF0E50E0026EF
:102B9000990E0122DB0E0222E60EB9EC1CF002E0D7
:102BA000E9DAFEE1C9DA150ED4DAFEE18DEC1BF0AC
:102BB00038EC1AF0F80E00267C0E0122A20E02223A
:102BC0001F0EBDEC1CF002E0D5DAFEE198DA100E23
:102BD000C0DAFEE1A6EC1BF0A2DB650E0026560E65
:102BE0000122AC0E0222C40EE2EC1CF002E0C2DABA
:102BF000FEE195DA090EADDAFEE174EC1BF075DB4F
:102C0000440E0026220E0122290E0222F40E71EC3F
:102C10001CF002E0AFDAFEE17FDA1A0E9ADAFEE18A
:102C20005FEC1BF0BDDB970E0026FF0E01222A0E83
:102C30000222430EC1EC1CF002E09CDAFEE17CDAD9
:102C4000160E87DAFEE194EC1BF02BEC1AF0A70EBF
:102C50000026230E0122940E0222AB0EC5EC1CF0BE
:102C600002E088DAFEE14BDA110E73DAFEE17DEC68
:102C70001BF07CDB390E0026A00E0122930E0222EF
:102C8000FC0EC9EC1CF002E075DAFEE148DA0B0E2E
:102C900060DAFEE174EC1BF0C4DBC30E0026590EB3
:102CA00001225B0E0222650E71EC1CF002E062DA7A
:102CB000FEE132DA1A0E4DDAFEE15FEC1BF03CDB8E
:102CC000920E0026CC0E01220C0E02228F0EC1ECB9
:102CD0001CF002E04FDAFEE12FDA160E3ADAFEE1DE
:102CE00094EC1BF084DB7D0E0026F40E0122EF0E27
:102CF0000222FF0EC5EC1CF002E03CDAFEE1FFD937
:102D0000110E27DAFEE17DEC1BF0FCDAD10E002675
:102D10005D0E0122840E0222850EC9EC1CF002E039
:102D200029DAFEE1FCD90B0E14DAFEE174EC1BF09B
:102D300044DB4F0E00267E0E0122A80E02226F0EEB
:102D400071EC1CF002E016DAFEE1E6D91A0E01DAA7
:102D5000FEE15FEC1BF08CDBE00E0026E60E0122AC
:102D60002C0E0222FE0EC1EC1CF002E003DAFEE1A2
:102D7000E3D9160EEED9FEE194EC1BF004DB140E41
:102D80000026430E0122010E0222A30EC5EC1CF008
:102D900002E0F0D9FEE1B3D9110EDBD9FEE17DEC02
:102DA0001BF04CDBA10E0026110E0122080E0222A0
:102DB0004E0EC9EC1CF002E0DDD9FEE1B0D90B0EDD
:102DC000C8D9FEE174EC1BF0C4DA820E00267E0E38
:102DD0000122530E0222F70E71EC1CF002E0CAD958
:102DE000FEE19AD91A0EB5D9FEE15FEC1BF00CDBBF
:102DF000350E0026F20E01223A0E0222BD0EC1EC63
:102E00001CF002E0B7D9FEE197D9160EA2D9FEE177
:102E100094EC1BF084DABB0E0026D20E0122D70EF2
:102E200002222A0EC5EC1CF002E0A4D9FEE167D90B
:102E3000110E8FD9FEE17DEC1BF0CCDA910E00264D
:102E4000D30E0122860E0222EB0EC9EC1CF002E02A
:102E500091D9FEE164D90B0E7CD9FEE10BD9E4D9FE
:102E600025EC1CF0040EBAEC1BF00CEC1CF0080E68
:102E7000BAEC1BF0FFEC1BF00C0EBAEC1BF0F2EC02
:102E80001BF0100EE15C02E2E16AE5523ED312DB78
:102E9000FCDA3AE2DFCF06F0010EDBCF07F0D89084
:102EA00006360736D89006360736FB0EDB5006246A
:102EB00078EC1CF00720EA6EEECF02F00250E66ECE
:102EC00042EC1CF0B8D9080E44D9FEE10450E66E7D
:102ED000010EAEEC1BF0AFD9100E3BD9FEE1045051
:102EE000E66E020EAEEC1BF0A6D9180E32D9FEE14A
:102EF0000450E66E030EAEEC1BF0DCEC1BF0E5526A
:102F0000E750EF6EE4DAC4D7080EE15C02E2E16A52
:102F1000E552FBD2CFDAB9DA01E3A2D022DB78ECBA
:102F20001CF00720EA6EEFCF02F0036A046A056A1C
:102F3000010E0C6E0D6A0E6A0F6A98EC1CF0EE50D2
:102F40000C26EE500D22EE500E22EE500F22FB0EFC
:102F5000DB500C2478EC1CF00D20EA6EEFCF08F06B
:102F6000096A0A6A0B6A080E1F0B02E004DBFEE125
:102F700008500212095003120A5004120B50051295
:102F8000020E146E156A166A176A98EC1CF0EE5061
:102F90001426EE501522EE501622EE501722FB0E8C
:102FA000DB50142478EC1CF01520EA6EEFCF10F003
:102FB000116A126A136A100E1F0B07E0D8901036C0
:102FC000113612361336E806F9E11050021211508C
:102FD00003121250041213500512030E1C6E1D6AC8
:102FE0001E6A1F6A98EC1CF0EE501C26EE501D2243
:102FF000EE501E22EE501F22FB0EDB501C2478ECFC
:103000001CF01D20EA6EEFCF18F0196A1A6A1B6ACD
:10301000180E1F0B07E0D890183619361A361B36D3
:10302000E806F9E118500212195003121A5004125E
:103030001B500512DFCF00F0010EDBCF01F0D8905E
:1030400000360136D89000360136B6DB02C0EEFFFE
:1030500003C0EEFF04C0EEFF05C0EEFF38DA5BD719
:10306000080EE15C02E2E16AE5524FD288DB90DBB8
:10307000F2EF1BF084DB040E00C0DBFF050E01C085
:10308000DBFF060E02C0DBFF070E03C0DBFF98EC80
:103090001CF0FFEF1BF073DB98DBCDEC1CF0DACFFC
:1030A000EAFF25EF1CF06BDBC4DB9CEC1CF00CEFA3
:1030B0001CF0E96EDACFEAFF52EF1CF0DACFEAFF3C
:1030C0000C50EE14086E0D50EE14096E0E50EE14F6
:1030D0000A6E0F50EE140B6EC4D303220050DE268E
:1030E0000150DE220250DE220350DD22DD52DD528D
:1030F0009CEC1CF091EC1CF0EFCF03F01200080EDA
:10310000DBCF04F0090EDBCF05F00A0EDBCF06F0B3
:103110000B0EDBCF07F012009CEC1CF0BAD3040EB0
:10312000DBCF04F0050EDBCF05F0060EDBCF06F09B
:10313000070EDBCF07F012000C0EDBCF04F00D0EF4
:10314000DBCF05F00E0EDBCF06F00F0EDBCF07F066
:103150001200D8900732063205320432E806120017
:10316000E9EC1CF00816EE500916EE500A16EE5067
:103170000B1677D3D8900036013602360336E806B0
:103180001200E9EC1CF00416EE500516EE5006167F
:10319000EE5007161200DACFEAFF0850EE18046E60
:1031A0000950EE18056E0A50EE18066E0B50EE1818
:1031B000076E045012000C0EDBCF00F00D0EDBCFBB
:1031C00001F00E0EDBCF02F00F0EDBCF03F012008A
:1031D000080EDBCF00F0090EDBCF01F00A0EDBCFCB
:1031E00002F00B0EDBCF03F012004CDB7CEF1CF087
:1031F000F0DB041AEE50051AEE50061AEE50071ACC
:1032000004501200E6DB081AEE50091AEE500A1AB2
:10321000EE500B1A1200DDDB0412EE500512EE50D8
:103220000612EE5007121200FD0EDBCFE9FFFE0E74
:10323000DBCFEAFF1200C0DAE552E750EF6EDFCFD6
:1032400008F0010EDBCF09F0D89008360936D89087
:1032500008360936FB0EDB5008244ADB0920EA6EEB
:1032600018D30C0EDBCF08F00D0EDBCF09F00E0EDD
:10327000DBCF0AF00F0EDBCF0BF01200080EDBCF16
:1032800008F0090EDBCF09F00A0EDBCF0AF00B0EB7
:10329000DBCF0BF01200040EDBCF08F0050EDBCF06
:1032A00009F0060EDBCF0AF0070EDBCF0BF01200A1
:1032B00043DBEECF08F0EECF09F0EECF0AF0EFCF10
:1032C0000BF01200DBCF0FF00C1E0D1E0E1E0F1E9A
:1032D0001200081E091E0A1E0B1ED9501200041EE1
:1032E000051E061E071ED95012000901A825006EF2
:1032F0000550A921016E0650AA21026E0750AB218C
:10330000036E12000901AC25006E0550AD21016E5F
:103310000650AE21026E0750AF21036E1200090164
:10332000B025006E0550B121016E0650B221026E2B
:103330000750B321036E12000901B425006E055039
:10334000B521016E0650B621026E0750B721036EFB
:1033500012000901B825006E0550B921016E065012
:10336000BA21026E0750BB21036E12000901BC2571
:10337000006E0550BD21016E0650BE21026E075041
:10338000BF21036E12000901C025006E0550C12146
:10339000016E0650C221026E0750C321036E120057
:1033A0000901C425006E0550C521016E0650C621D5
:1033B000026E0750C721036E12000901C825006E76
:1033C0000550C921016E0650CA21026E0750CB215B
:1033D000036E12000901CC25006E0550CD21016E4F
:1033E0000650CE21026E0750CF21036E1200090154
:1033F000D025006E0550D121016E0650D221026EFB
:103400000750D321036E12000901D425006E055028
:10341000D521016E0650D621026E0750D721036ECA
:1034200012000901D825006E0550D921016E065001
:10343000DA21026E0750DB21036E12000901DC2540
:10344000006E0550DD21016E0650DE21026E075030
:10345000DF21036E12000901E025006E0550E12115
:10346000016E0650E221026E0750E321036E120046
:103470000901E425006E0550E521016E0650E621A4
:10348000026E0750E721036E1200F70EDBCF00F04B
:10349000F80EDBCF01F0EFD94BDA0050EE5C0150B3
:1034A000EE580250EE580350EE581200E926000E76
:1034B000EA22120004DA080EE12625DA040EDB6A9D
:1034C000050EDB6A060EDB6A070EDB6A120034DAD1
:1034D000EE2A000EEE22EE22EE222ADA040EEE266C
:1034E000000EEE22EE22EE221200E9CF00F0EACF2B
:1034F00001F0E9CFE6FFEACFE6FF1200FB0EDBCFDB
:10350000E6FFFC0EDBCFE6FF1200E16EE552E7CFEF
:10351000D9FF120004501F0B04DAEECF03F01200A3
:1035200058DA045C006EEE500558016EEE500658F5
:103530001200E9CFE6FFEACFE6FF91EC11F0E55289
:10354000E552E552E5521200E66EE66AE66AE66A80
:103550008AEF1CF0D8900332023201320032E806C2
:103560001200040EDBCF06F0050EDBCF07F0FB0EDA
:10357000DB5006241200D890083609360A360B367E
:10358000E8061200F90EDBCF00F0FA0EDBCF01F0F7
:1035900012007DDC026E080EE15E025012008FD92F
:1035A000100EE1261200E8EC0FF0006E060EE15E50
:1035B00000501200016E00C0E6FFE66E120002220B
:1035C000FD0E0322D9501200016A026A036A12003A
:1035D0006ADDA5DDD9CFE9FFD4DDAED9EECF0CF0A1
:1035E000EECF0DF0EECF0EF0EFCF0FF00C1E0D1E54
:1035F0000E1E0F1EA6D95EEF18F00322D950080F39
:1036000058DDE8EF18F047DD87DDC7D9BADD0C0ECD
:10361000DBCF0CF00D0EDBCF0DF00E0EDBCF0EF07E
:103620000F0E50DEDAD95EEF18F00322D9500C0FDE
:1036300040DDDBEF18F01ADD7FDD83D9A2DD080E57
:10364000DBCF0CF0090EDBCF0DF00A0EDBCF0EF056
:103650000B0E38DED9CFE9FF5EEF18F050DDBDD993
:1036600090DD040EDBCF0CF0050EDBCF0DF0060E67
:10367000DBCF0EF0070E26DE90D95EEF18F00322A6
:10368000D9508FD108DD4BDD88D97BDD04DE081EE3
:10369000091E0A1E0B1ED9CFE9FFB0EF18F0EADCB5
:1036A0004BDD9BD96EDDDDDD14DE080F8FD1DEDC56
:1036B00033DD47D966DDFCDD0CDE0C0F87D1F3DC92
:1036C0001EDD041E051E061E071ED9CFE9FFA3DD61
:1036D00084D9F8EF18F0E7DC12DDD9CFE9FF51DD2E
:1036E000CDDDF7DD040F72D1C5DC26DDF8DD040F7A
:1036F000E96E91DD26D9F8EF18F0B8DC0DDDEFDDCD
:10370000080FE96E88DD49D9F8EF18F0B3DCB6DDB3
:1037100064D978DD42D9CBEF18F0BDDCC9DD3DD9E5
:1037200071DD5BD9CBEF18F0B6DCF9DCD8DD0C0F1E
:10373000E96E71DDD9CFE9FFF8EF18F0B4DCABDD4D
:10374000D9CFE9FF5FDDFDD8CBEF18F08FDC89DD45
:10375000F8D858DDD9CFE9FFCBEF18F0006E34DF91
:10376000E7D8EE500026EE500122EE500222EE5035
:1037700003221200E76E58DDE75056EF1AF00450AE
:1037800000120550011206500212075003121200D7
:10379000080E00C0DBFF090E01C0DBFF0A0E02C0ED
:1037A000DBFF0B0E03C0DBFFCCD8DACFEAFF120041
:1037B0003BDD100E56EF1AF0FD0EDB500024E96ED3
:1037C000FE0EDB500120EA6E12000C0E00C0DBFF83
:1037D0000D0E01C0DBFF0E0E02C0DBFF0F0E03C09B
:1037E000DBFF12000C0EDB50EE260D0EDB50EE223E
:1037F0000E0EDB50EE220F0EDB50EE221200080EF2
:10380000DB50EE26090EDB50EE220A0EDB50EE22D4
:103810000B0EDB50EE221200040EDB50EE26050EDE
:10382000DB50EE22060EDB50EE22070EDB50EE22BE
:10383000120000C0DFFF010E01C0DBFF020E02C05C
:10384000DBFF030E03C0DBFF1200DF50EE26010E8C
:10385000DB50EE22020EDB50EE22030EDB50EE2296
:10386000120008500412095005120A5006120B509B
:10387000071204501200F90EDBCF02F0FA0EDBCF74
:1038800003F01200040EDBCF00F0050EDBCF01F0D9
:103890001200EECF04F0EECF05F0EECF06F0EFCF42
:1038A00007F012000050EE260150EE220250EE22E8
:1038B0000350EE221200B8DC180E56EF1AF0D9CFE2
:1038C000E6FFE1CFD9FF120008DC070E1F0B120044
:1038D00004DC050E1F0B12006DEC18F0040E1F0B1C
:1038E00012006DEC18F0060E1F0B120068DE59D0A6
:1038F000E96EFC0EDB501200060EDBCF02F0070E65
:10390000DBCF03F01200DE6ADE6ADE6ADD6ADD52BA
:10391000DD521200FB0EDBCFE9FFFC0EDBCFEAFF2E
:103920001200EECF00F0EECF01F0EECF02F0120069
:1039300054D8DACFEAFF1200D9CFE9FFDACFEAFF95
:103940001200D950080FE96E120032DF040E56EF54
:103950001AF053DE110E1F0B120067DE090E1F0B4B
:1039600012004BDE0E0E1F0B120089DE140E1F0B11
:1039700012005BDE0B0E1F0B12003FDE100E1F0B42
:10398000120053DE0A0E1F0B120037DE0F0E1F0B44
:10399000120075DE150E1F0B1200D9500C0FE96EC8
:1039A0001200040F59EC18F0F5EF18F03EDE0C0E83
:1039B0001F0B120064DE160E1F0B12003AEC18F0FB
:1039C0002EEF1BF05CDE170E1F0B1200E96EB0EF3E
:1039D00018F0DACFEAFFEE501200D950040FE96E6A
:0239E0001200D3
:0E39E200D8CFE4FFE0CFE4FFE46EDACFE4FFDD
:1039F000E2CFDAFFE9CFE4FFEACFE4FFF6CFE4FF5E
:103A0000F7CFE4FFF8CFE4FFF5CFE4FFF3CFE4FF17
:103A1000F4CFE4FFFACFE4FFFBCFE4FF00EE20F0A9
:103A2000140EE80403E3EECFE4FFFBD700EE00F052
:103A3000200EE80403E3EECFE4FFFBD7E65298EC58
:103A400061F0F7EC62F0E55200EE1FF0200EE804A2
:103A500003E3E5CFEDFFFBD700EE33F0140EE804EF
:103A600003E3E5CFEDFFFBD7E5CFFBFFE5CFFAFFA3
:103A7000E5CFF4FFE5CFF3FFE5CFF5FFE5CFF8FFA6
:103A8000E5CFF7FFE5CFF6FFE5CFEAFFE5CFE9FFAA
:103A9000E5CFDAFFE550E5CFE0FFE5CFD8FF100036
:103AA0000801009B120030EC28F0E652D9CFE6FF67
:103AB000DACFE6FF6EEC61F0E552E552000901E174
:103AC000D0D0FF0E0001EC5D01E094D0C95103E0BD
:103AD0007F0EC95D08E10A0EDF5CE8E00D0EDF5CD9
:103AE00002E10A0EDF6E0D0EDF5CE0E059EC29F01A
:103AF000C3EC28F003E1015001E1EB073A0EDF5C73
:103B00001EE1060EEB5D1BE3E9EC28F018E1490E1F
:103B1000015D15E1500E025D12E1440E035D0FE1FF
:103B20000001EB050FEC28F0EF6A050EE66E070EBC
:103B3000E66EA7EC28F0FD0EEC6FEB6BB7D70A0E24
:103B4000DF5CB4E10001EB07EB510FEC28F0EF6A0A
:103B5000040EEB5D48E3E9EC28F045E1430E015D1E
:103B600042E14D0E025D3FE1540E035D3CE1070E64
:103B7000DF6EDF50DF2A0FEC28F0EF50220804E060
:103B80000001EB51DF5CF5E3DF040FEC28F0EF6A96
:103B90000001D76B140EE66EE66A070EE66E070E9E
:103BA000E66ED70EE66E000E77EC28F00001EA6BA9
:103BB000EBC0DFFFDF50DF060FEC28F0EF502C08E2
:103BC00003E0DF500008F6E3DF50016A000F006EEB
:103BD000070E0122020EC9EC28F0A7EC28F0EB6BCF
:103BE000FE0EEC6F63D7000160EC28F00701006B5C
:103BF000000135D0FE0EEC5D1CE10D0EDF5C03E034
:103C00000A0EDF5C07E1EB51EB2B0FEC28F0200EE6
:103C1000EF6E02D059EC29F0C3EC28F003E101501B
:103C200001E1EB07ED07ED5101E040D7BCEC29F0D5
:103C300016D00D0EDF5C08E059EC29F0C3EC28F03B
:103C400003E1015001E1EB07ED070A0EDF5C03E140
:103C5000EB07BCEC29F0ED5101E028D7EB6BEC69E8
:103C600025D7E55235EF28F0C1EC29F038E1DF6ABD
:103C700006EC28F00A080BE10D0EDF5C08E00801F5
:103C800000B1FDD70D0E39EC28F00FE1FBD70D0E7A
:103C9000DF5C0BE106EC28F00A0807E0080100B140
:103CA000FDD70A0E39EC28F0FCE006EC28F028E0FD
:103CB000080100B1FDD706EC28F039EC28F0FBE054
:103CC0000601FDC6F6FFFD2BFEC6F7FF000EFE2324
:103CD000FFC6F8FFFF230800F550DF6EC9D706ECDA
:103CE00028F00EE0080100B1FDD706EC28F039EC11
:103CF00028F0FBE00601FD2B000EFE23FF23EFD78B
:103D0000E55235EF28F0C1EC29F035E1DF6A28EC07
:103D100028F00A080BE10D0EDF5C08E0080100B195
:103D2000FDD70D0E39EC28F00FE1FBD70D0EDF5C4F
:103D30000BE128EC28F00A0807E0080100B1FDD7E4
:103D40000A0E39EC28F0FCE028EC28F025E0080108
:103D500000B1FDD728EC28F039EC28F0FBE0FD0E8F
:103D6000DBCFE9FFDB2AFE0EDBCFEAFF01E3DB2A34
:103D7000EFCFDFFFCCD728EC28F00EE0080100B130
:103D8000FDD728EC28F039EC28F0FBE0FD0EDB2A0B
:103D9000FE0EF1E3DB2AEFD7E55235EF28F030ECE9
:103DA00028F0080100B1FDD7FE0EDBCFE6FF47EC9F
:103DB00061F0E5520009F8E035EF28F030EC28F02A
:103DC000E150FD0FE96EFF0EDA20EA6EEE50ED10C5
:103DD00024E0F1EC28F00001F851001802E1F9515B
:103DE000011818E0FD0EDBCFF2F0FE0EDBCFF3F092
:103DF000F90EDBCFF4F0FA0EDBCFF5F0FB0EDBCFE4
:103E0000F6F0FC0EDBCFF7F0FD0EDBCFF8F0FE0E88
:103E1000DBCFF9F03C0EFA6F05D0D1EC28F0F86B4F
:103E2000F96BFA6B35EF28F030EC28F0040EE12640
:103E3000030E66EC28F0410EE66E940EE66E000E60
:103E40004AEC28F00AE0F1EC28F000C001F0006A2A
:103E500000500001FB130150FC133E0EE66E940E61
:103E6000E66E000E4AEC28F00BE0FD0EDBCF28F0EA
:103E7000FE0EDBCF29F028500001FB132950FC1364
:103E8000040EE15C02E2E16AE552E16E35EF28F0F2
:103E900030EC28F0060EE12647EC29F0E66EFD0E28
:103EA000DBCFE6FFFE0EDBCFE6FFDDEC27F06FE0B9
:103EB00047EC29F0C7EC29F06AE0EAEC29F067E06A
:103EC000EAEC29F064E0F8EC28F0EF504F085FE1ED
:103ED000010EE76EF8EC28F0E750E926000EEA2222
:103EE000EF502D0854E13A0EE66E940EE66E000E89
:103EF000E66E020EE76EDBCF00F0030EDBCF01F0C3
:103F0000E750C9EC28F03FEC64F0026E050EE15E6C
:103F1000025051EC29F03BE03A0EE66E940EE66E4C
:103F2000000E15EC28F09CEC28F014EC60F0E55243
:103F3000040EF3CFDBFF050EF4CFDBFF7FEC28F0A0
:103F40000DE1040EDBCFE9FF050EDBCFEAFFEF50FA
:103F50001EE0390EE66E940EE66E12D0FFEC28F0ED
:103F6000040EDBCFE6FF050EDBCFE6FF25EC5AF0B3
:103F7000E552E552E552E552000909E0FFEC28F070
:103F80009CEC28F05BEC60F0E552E552E552060E41
:103F9000E15C02E2E16AE552E16E35EF28F030ECD7
:103FA00028F0020EE126FE0EDBCFC9F00001C95158
:103FB000240A01E159D1070A01E14CD1010A01E1CA
:103FC00043D1030A01E112D1010A01E1F9D0600AEB
:103FD00001E1D7D0030A01E1B9D0010A01E18FD094
:103FE000030A01E178D0530A69E0030A5CE0010AA0
:103FF0004FE0160A47E0030A3CE0010A33E0070AF3
:1040000025E0010A21E0030A11E07E0A0CE07F0AA4
:1040100001E036D1D3EC29F059EC28F00001010E73
:10402000CE6F0A0E1ED1ABEC44F02AD10A0E64EC1E
:1040300029F00001030ECE6F140ECF6FD06B00017C
:10404000BA6B4CEC00F01CD1CE6B1AD159EC28F0B5
:104050001DEC3EF00001020ECE6F87EC28F000014F
:10406000CD6B0ED1050ECE6F0A0E87EC28F00A0E2E
:104070009BD0060ECE6F020ECF6FD06BCA6B1DECBD
:104080003EF0FED0E66AA4EC27F0EFEC3DF0F8D06D
:10409000090E64EC29F0B1EC28F0AA0EFD6FC90EF0
:1040A000FE6F000ECED0080E64EC29F0B1EC28F0C3
:1040B000B60EFD6FC90EFE6F000EC3D0070E64EC86
:1040C00029F00001030ECE6F230ECF6FD06BCA6BA9
:1040D00006EC29F0B6D0050EE66EE2EC29F0BAEC5B
:1040E00028F006E2070E46EC28F00001400E05D04D
:1040F000080E46EC28F00001020ECE6F14D0050E1B
:104100006CEC28F0200EFD6F940EFE6F000E93EC09
:1041100028F0090E46EC28F0BAEC28F002E2430E33
:1041200001D0020ECE6FCBC0CFF0CCC0D0F00A0EC3
:10413000D880CF57000ED0570F0ED003F3CFD0F05A
:10414000CF03F3CFCFF0F450D0279AD0050E64EC14
:1041500029F070EC28F00001020ECE6F3C0ECF6FFC
:10416000D06B060ECA6F0001BA6B50EC00F0DBECAE
:1041700029F00DEC29F093EC28F00001400EC96FF6
:104180007FD0050E64EC29F070EC28F0ACEC29F03F
:1041900014E0DDEC66F0000910E00001020ECE6FC5
:1041A0003C0E87EC28F0020E23EC28F006012D0EC1
:1041B000FD6F940EFE6F000E44D00001200EC96FFB
:1041C000020E64EC29F00901646B0001CE6BCA6B2E
:1041D0000001B80507E0050EB85D04E0780E0001A7
:1041E000D36F02D00001D36BD46B4AD0060E64ECBF
:1041F00029F0DBEC29F00001030ECE6FF00ECF6F3B
:10420000D06B50EC00F00D0EACEC29F007E106018C
:104210001E0EFD6FCA0EFE6F000E13D00601FA0EC1
:10422000FD6F930EFE6F000E93EC28F0A2EC29F0C8
:104230006ADDE552E5520601F00EFD6F930EFE6F4A
:10424000000E93EC28F01CD00A0ECF6FD06B400EFE
:10425000CE6F16D0060E64EC29F00001240ECE6F4E
:104260001E0ECF6FD06B0CD0CD51CD2B006E140E27
:10427000005C02E2020E01D0030EE66E90DEE55213
:10428000020EE15C02E2E16AE552E16E35EF28F0F0
:1042900030EC28F0020EE126FE0E0001EC5D19E183
:1042A0000001B80507E0050EB85D04E070EC28F0E9
:1042B000DEEC29F00501F6BF03D005010A0EF76F09
:1042C00014EC29F0D70EE66E000EE66E18EC29F01D
:1042D00062D3FF0EEC5D0FE00501F6BF03D00501D0
:1042E000140EF76F42EC29F014EC06F0E552E5529B
:1042F00023EC29F050D30501F6BF03D005011E0EB3
:10430000F76F0001C9517F0A01E13ED35F0A01E165
:1043100010D2600A01E158D1630A01E13BD1020ADF
:1043200001E1F1D0330A01E1C4D0030A62E0010ADD
:1043300026E0110A14E0010A01E02DD3050EEB5D21
:1043400001E229D328EC29F0EA0EE66E930EE66E20
:10435000000E9DEC27F001E01ED37F0EE7D1020E88
:10436000EB5D01E218D3EDEC28F001E014D34B0E25
:10437000015D01E010D3DEEC29F0100ED7D1040E60
:10438000EB5D23E3E9EC28F020E1430E015D1DE144
:10439000530E025D1AE14D0E035D17E142EC29F068
:1043A0007FEC5AF0E552E552F3CFE9FFF4CFEAFF94
:1043B000E906000EEA5A000EE926070EEA22EF503F
:1043C000310801E1E8D2030E5AD00001CA5101E0E0
:1043D000E2D2020EEB5D01E2DED2EDEC28F001E06C
:1043E000DAD24B0E015D01E0D6D2DEEC29F0110EDF
:1043F0009DD1100EEB5D14E3380E0701005D10E156
:10440000390E015D0DE1180EE66EE66A42EC29F008
:10441000CD0EE66E050E77EC28F00501E46BBBD2FD
:10442000080E0001EB5D16E3E9EC28F013E1430E02
:10443000015D10E1500E025D0DE1420E035D0AE1E7
:10444000460E045D07E13A0E055D04E142EC29F0F9
:104450001FDD94D1080E0001EB5D17E3E9EC28F0B5
:1044600014E1430E015D11E1500E025D0EE1490EB3
:10447000035D0BE1520E075D01E18DD2040E46ECA7
:1044800028F00001010ECA6F86D20001CA5101E076
:1044900082D2020EEB5D01E27ED2EDEC28F001E06B
:1044A0007AD24B0E015D01E076D2DEEC29F0120EDD
:1044B0003DD1060EEB5D16E3E9EC28F013E1490E61
:1044C000015D10E1500E025D0DE1520E035D0AE147
:1044D000390E065D07E00601550EFD6FCA0EFE6F30
:1044E000000E6BD1020E0001EB5D01E254D2EDEC47
:1044F00028F001E050D24B0E015D01E04CD2DEEC21
:1045000029F0210E13D1020EEB5D0BE3EDEC28F048
:1045100008E14B0E015D05E123EC29F0CD6B220E85
:1045200005D1050E0001EB5D07E3450E0701005DB7
:1045300003E1520E015D05E087EC29F09DEC27F0C8
:1045400002E1230EF3D02CEC29F0D80EE66E930E88
:10455000E66E000E9DEC27F001E01DD247EC29F03D
:10456000E66E42EC29F0DDEC27F001E114D247ECD5
:1045700029F0C7EC29F001E10ED2080EE66EE66ADA
:10458000A2EC29F0BE0EE66E000E77EC28F00001DA
:10459000C66B01D267EC29F001E0FDD12C0E0701BA
:1045A000085D03E1070E091502D0070E071500018B
:1045B000B86FE80404E0050EB85D01E0ECD123EC2F
:1045C00029F0CD6B400EB2D0020EEB5D16E3450E26
:1045D0000701005D12E1520E015D0FE1020E0001C4
:1045E000CA5D03E0030ECA5D02E1410E9FD0050ED5
:1045F000CA5D01E0D0D1030E99D0020E0001EB5D3F
:1046000006E3EDEC28F003E14B0E015D0BE0530EE9
:104610000701005D03E1480E015D04E0050E0001A5
:10462000CA5D6DE10001EB6B1E0ECF6FD06B000118
:10463000B96BDBEC29F00001CA2BCA51080A5DE016
:104640000F0A48E0010A43E0030A3AE0010A31E0B8
:10465000070A26E0010A0DE0030A01E09CD10601E9
:10466000BE0EFD6F930EFE6F000E93EC28F0050E4C
:104670000FD00601B10EFD6F930EFE6F000E93EC8E
:1046800028F0050E6FEC29F0060E6FEC29F0070EEE
:10469000CBEC27F0BB0EFD6F930EFE6F000E8DD09E
:1046A000040E6CEC28F0A30EFD6F930EFE6F000E4F
:1046B00084D00601950EFD6F930EFE6F000E7DD027
:1046C00006018B0EFD6F930EFE6F000E76D00DEC83
:1046D00029F073D0030E6CEC28F0770EFD6F930E6B
:1046E000FE6F000E93EC28F0040ECBEC27F06D0E5D
:1046F000FD6F930EFE6F000E60D0200E17D0070ED8
:10470000EB5D0DE3080EE66EE66A640EE66E930E50
:10471000E66E000E9DEC27F002E1020E07D090EC51
:1047200029F09DEC27F001E036D1020EE66E37DC71
:1047300026D067EC29F025E12C0E0701085D03E186
:10474000070E091502D0070E07150001B86FE8041F
:1047500003E0050EB85D05E10001D36BD46BE66A9A
:104760000AD00001D351D41101E015D1780ED36FD6
:10477000D46B010EE66EE66AC4EC62F0E552E552D7
:104780000AD128EC29F0520EE66E930EE66E000E6A
:10479000D4DB16E10001B80507E0050EB85D04E0C2
:1047A00070EC28F0DEEC29F0010E23EC28F0060175
:1047B000360EFD6FCA0EFE6F000E93EC28F0EBD0A4
:1047C0000A0EE66EE66A470EE66E930EE66E000E81
:1047D000B4DB04E10001B95123E117D0070EE66E06
:1047E000E66A3F0EE66E930EE66E000EA6DB3FE134
:1047F000110EE66EE66A2D0EE66E930EE66E000E64
:104800009CDB12E10001B9510BE1010EE66EE66E90
:1048100038EC29F053EC00F0F4EC00F070EC00F010
:104820000001010EB96FB7D0150EE66EE66A170EDD
:10483000E66E930EE66E000E80DB01E1ACD0110E49
:10484000E66EE66A050EE66E930EE66E000E75DB0A
:1048500053E00001B96B020EE66EE2EC29F00001B4
:10486000B80566E0050EB85D01E095D061D028EC92
:1048700029F0FF0EE66E920EE66E000E5EDB12E190
:104880002C0E0701085D09E1070E0715006E070EE3
:1048900006150A0DF350002402D0070E061500017C
:1048A000BB6F79D0070EE66EE66AF70EE66E920EE3
:1048B000E66E000E42DB53E00B0EE66EE66AEB0E90
:1048C000E66E920EE66E000E38DB03E10901646BC2
:1048D00062D02CEC29F0E40EE66E920EE66E000E2D
:1048E0002CDB0AE00C0EE66EE66AD70EE66E920E40
:1048F000E66E000EC4DB04E150EC00F0420E32D054
:10490000090EE66EE66ACD0EE66E920EE66E000EBB
:1049100014DB0EE087EC29F0B2DB0AE090EC29F022
:10492000E6EC29F0026E070EE15E0250000904E198
:1049300050EC00F0410E16D0040EE66EE66AC90E89
:10494000E66E920EE66E000EF8DA09E02CEC29F025
:10495000C20EE66E920EE66E000E91DB07E150ECA1
:1049600000F0010EE66ECFEC1FF014D02CEC29F015
:10497000BB0EE66E920EE66E000EDFDA0CE142EC44
:1049800029F03AEC09F005D014EC29F038EC47F0A6
:10499000E552E552E552020EE15C02E2E16AE552BF
:1049A000E16E63D35DDB080EE1260001FA510008D9
:1049B00005E2FA07FA5102E1F86BF96BC9517F0A77
:1049C00001E15CD15F0A42E0220A3EE0230A31E0C5
:1049D000330A29E0030A1DE0010A11E0110A01E08F
:1049E0004FD1050ECF5D000ED05902E2020E4EDB14
:1049F0000601320EFD6FCA0EFE6F000E18D0FADAF5
:104A000001E03ED10601AA0EFD6FC90EFE6F000E39
:104A10000ED0F0DA01E034D10601B60EFD6FC90EFA
:104A2000FE6F000E04D0E6DA01E02AD1EFDB7BDB7B
:104A300027D1140ECF5D000ED05901E321D12CEC0B
:104A400029F0C4EC62F0F1D0E66A22D0FF0EEC5DF2
:104A500009E0EE0503E1EE6BEC6910D0EE510108C0
:104A600001E2EE07000ED880D355000ED45508E2BF
:104A7000D307000ED45BD351D41102E1210E07D02D
:104A8000EFDB09E2642B64513C0805E2400EE66E60
:104A9000CFEC1FF0CBD00001B80504E0050EB85DE7
:104AA00001E0EED00901A451A51106E0090163055A
:104AB00003E10901645144E0BFDB1EE20901630523
:104AC0001BE10901645118E1B9EC29F0B5DB12E2F0
:104AD000F4C0E6FFF5C0E6FFF6C0E6FFF7C0E6FF6C
:104AE000F2C0E6FFF3C0E6FF82EC0BF0006E060EAC
:104AF000E15E005056DBC4D0FF0E0001BEDB58E281
:104B00000901630555E10901645152E1B9EC29F04D
:104B1000200E0001B2DB04E2FB9B26EC0BF0B0D0D0
:104B2000040EABDB10E2FB95FD5101E0A9D0060EAF
:104B30000901A46FA56BA6C9E9FFA7C9EAFFEF6A3F
:104B4000BAEC08F09DD0080E98DB06E2FB97EFA3C5
:104B500097D059EC0BF094D0100E8FDB04E2FB9948
:104B600034EC0BF08DD0020E88DB0AE2FB93B9EC3B
:104B700029F0020EE66EBAEC01F0E55202087BD095
:104B8000010E7BDB15E2FB910001BA51000810E237
:104B9000020EDF6EEEDBDFCFE6FFB7EC03F08FDB5C
:104BA000BAEC01F0E552DF6E020EDF5C69E063D023
:104BB000000E0001FB15006EFF0E6FDB45E2D9DB36
:104BC000C3DA000E0001FB15006E200E66DB05E265
:104BD000FC9B03DA6AEC2AF028D046DB040E5DDB8E
:104BE00011E2FC95FD514CE1B60EE66E920EE66EBA
:104BF000000EDFDA66EC5AF0AADB040EDADAEDD941
:104C000017DB3ED031DB080E48DB07E2FC97EFA351
:104C100037D0E3D9B3EC2AF008D026DB100E3DDB09
:104C200007E2FC99DAD97FEC2AF0E552E55228D068
:104C30001BDB020E32DB02E2FC9306D015DB010E19
:104C40002CDB02E2FC911CD000017151000818E23B
:104C50000501ED51000814E20901645111E1000160
:104C6000BA5100080DE2A7DB020EE66EABEC02F0D3
:104C7000E552020805E070EC00F002D0CBEC44F005
:104C8000080EE15C02E2E16AE552E16EEED100015C
:104C9000C951200A01E01200E3DA02E296EF28F09F
:104CA00062DB13E088DB06013B0EFD6FCA0EFE6F70
:104CB000000EFF6F34EC1EF008014151000803E2C2
:104CC000010EC1D9F9D7020EBED91200C9D9030EFF
:104CD000E1260001C951200A1BE1C2DA02E226DA0C
:104CE00017D00001B90510E10001BA5100080CE22B
:104CF00040DB1FDB01E022DB0C0E29D901E058DB91
:104D000030D902E070EC00F0010E0001CA19CA6F40
:104D1000030EE15C02E2E16AE552E16EA6D1120007
:104D20003CDB0DE0020E665D0AE00F0E665D07E0FB
:104D3000800E00016B15000802E3000E01D0010E89
:104D400040DA49E1050E0001725D29E2800E0001A2
:104D50006B1525E10001F1510FE10001B9050DE1ED
:104D6000090164510AE10001EFA502D042EC0BF009
:104D70000001480EF16F01D0F1070001F0510DE183
:104D8000E3D90001EFA505D028D994EC2AF0E5522B
:104D9000E5520001480EF06F06D0F00704D0000184
:104DA000060EF06FF16F0001B90515E10001BA516F
:104DB00012E1030EDB500FE053DA02E2B7D90BD059
:104DC000B8DA01E0BBDA0C0EC2D801E0F1DAC9D8DA
:104DD00002E070EC00F0040EE15C02E2E16AE552F0
:104DE000E16E43D1DADA0DE0020E665D0AE00F0EE5
:104DF000665D07E0800E00016B15000802E3000EFF
:104E000001D0010EDED918E10001B90515E100015C
:104E1000BA5112E1030EDB500FE122DA02E286D929
:104E20000BD087DA01E08ADA0C0E91D801E0C0DA03
:104E300098D802E070EC00F0040EE15C02E2E16A56
:104E4000E552E16E12D10001FD51000801E2FD07BB
:104E5000D12B000ED223CE51000810E2CFC000F0BB
:104E6000D0C001F0CF07000ED05B0050011006E16A
:104E7000CEC0E6FFCFEC1FF0E55201D093DD4ED956
:104E80001E0E2D6E2E6A82D801E101DF6CDA01E17F
:104E90001DDF44D92C0E2D6E010E2E6E77D801E148
:104EA0003EDF3CD9580E2D6E020E2E6E6FD801E1FA
:104EB00037DF34D9100E2D6E0E0E2E6E67D806E138
:104EC00091DF100E0001D15F0E0ED25B0001D507FD
:104ED000000ED65BD551D61123E1E66A35D8000124
:104EE00062DA0501EF2BEF51E66EE66AE66AE66AE2
:104EF000E66A000EE66E060EE66E70EC40F0006E9E
:104F0000070EE15E0050000EE66E060EE66E1A0E0B
:104F1000E66E5BEC60F0E552E552E552EFEC3DF0F9
:104F200012001200800E946E2BEC61F00001B86B41
:104F3000E66ACFEC1FF0E552120048DA006E070E69
:104F4000E15E0050000912003DDADEEF29F0E66E66
:104F5000CED9010EDBCFE9FF020EDBCFEAFFEF5027
:104F60001200DFCFE6FFBAEC01F0A9D9ABEC02F0FA
:104F7000A6D9CAEC02F0A3D9B7EC03F0A0D95BEC38
:104F800004F0E552DF6E020EDF5C1200D1C028F0A3
:104F9000D2C029F0B3D1E66E14EC60F0E552F3CF45
:104FA00000F0F4CF01F0F3CFE6FFF4CFE6FF83EC9F
:104FB0001EF0E552E552060112003FEC64F0C7D93D
:104FC00051EF29F0E66EDFCFE6FF95EC04F0E552F5
:104FD000E552E552E552DF6E1200010EDBCFE6FF2F
:104FE000020EDBCFE6FF1200000ED8800054000E48
:104FF00001541200CFC000F0D0C001F0030E2D6E9E
:105000002E6ACFC028F0D0C029F078D1FDC6F6FFB7
:10501000FEC6F7FFFFC6F8FF0800F5501200EA6A67
:10502000000FE96E070EEA221200E66E000EE66E31
:10503000E66A3FEC64F08BD9020EF3CFDBFF030E80
:10504000F4CFDBFF1200E66E0DEC3EF0E5521200ED
:10505000FD0EDBCFE9FFFE0EDBCFEAFFEF501200C3
:10506000D9CFE6FFE1CFD9FF1200E552E7CFD9FF54
:105070001200E66E47EC61F0E55200091200A6D975
:10508000016E070EE15E015000091200E66EE66A4D
:1050900038EF29F0E66E56D90BEC5BF0026E050E88
:1050A000E15E0250F3CF00F0F4CF01F0F350F410C2
:1050B0001200E66887D9E668E66ADAD8EBEF62F0B4
:1050C00072D948EC21F00001EB6B1200E66E14EC93
:1050D00060F0E552EEEF29F0E66E74D90601120099
:1050E0000001D36BD46B0001050EB86F1200E66EA1
:1050F000DDEC5AF0006E060EE15E00501200D95051
:10510000020FE96EDACFEAFFEE50ED101200CF6F1A
:10511000D06BCA6B0001BA6B50EF00F0D1C000F049
:10512000D2C001F01200FF6F34EF1EF0050E000137
:10513000D15F000ED25B120005D944EC51F0E5526C
:10514000E552F350E66E1200E66A77EF29F044EC80
:1051500051F0E552E552F3CFEDF000013C0EEE6F59
:1051600012000001030ECE6F5F0ECF6FD06BCA6BC3
:10517000060112000001CB07000ECC5BD880CB5596
:10518000000ECC551200EB51006E016AC80E0018DB
:1051900012000026000E012200C0E6FF01C0E6FF5B
:1051A00012000001F26BF36BF46BF56BF66BF76BAF
:1051B0001200E66ED950030FE66E000EDA20E66E9E
:1051C0001200E76E030EE7CFDBFF0001C951200A92
:1051D00012002B0E0701005D12004F0E0701005D4B
:1051E0001200FD0EDBCF00F0FE0EDBCF01F012004F
:1051F000020EDBCFE9FF030EDBCFEAFF1200020E47
:10520000DBCFE6FF030EDBCFE6FF12000601D10E77
:10521000FD6FC90EFE6F000E12000601080EFD6F35
:10522000940EFE6F000E1200EBC0E6FF42EF29F075
:105230004DEC32F0A7EF29F00001000ED880F255B6
:10524000000EF35512000A0E0001CB6FCC6B12005A
:10525000050EE66EE66A1200060EE66EE66A1200BB
:105260000901645100081200000EFB15006E1200C7
:10527000C4EC62F0E552E5521200FB15006E016AC3
:10528000F4EF27F0000EE66E070EE66E12003C0EFD
:10529000E66E940EE66E000E1200FC15016EF4EF41
:1052A00027F09CD8D9CFE9FFDACFEAFFEE50ED1016
:1052B0001200EB51EB2BB3DEDFCFEFFF1200E55214
:1052C000DF6EDFCFE6FF1200E66EA4EF27F0C0DF4F
:1052D000D20EE66E930EE66E000E9DEF27F05BDEBB
:1052E000AD0EFD6F930EFE6F000E93EF28F014ECE1
:1052F00060F0E552DE5272D8DD52120096EC66F094
:1053000024C000F025C001F02450251012000A0E20
:10531000E66EE66ADF0EE66E930EE66E000E120093
:105320000B0EE66EE66A580EE66E930EE66E000E03
:105330001200020EDF6E0B0EA7EF27F04EDE010EFD
:10534000E2EF27F0DECFE6FFDDCFE6FF1200006ED2
:10535000050EE15E00501200B9DEDECFE9FFDDCFC1
:10536000EAFFEF501200DADE3C0E2D6E2E6AC6EF19
:1053700027F00A0E23EF28F0EB5151DEEF6A60EFC1
:1053800028F06EDEE6527F0E0001C95D1200E66E67
:10539000000EE66EE66ADDEF27F062DE040EE1261F
:1053A000000166051200080ED56F070ED66F1200B9
:1053B00014DEE2EF27F0020E23EF28F0E66AE66A39
:1053C00038EF29F0010EE66E38EF29F0E66E5ADF6D
:1053D0006DEF59F05CDF29DE7FEF28F0F3CFDEFFC1
:0653E000F4CFDDFF120016
:0A53E6001FEC34F0F8EC35F009E19B
:1053F0000601220EFD6F9A0EFE6F000E7AEC34F05D
:1054000017D00601180EFD6F9A0EFE6F000E7AEC93
:1054100034F053EC35F0DEEC35F00601140EFD6F80
:105420009A0EFE6F000E7AEC34F0020E8FEC34F020
:1054300024EF34F0F8EC35F003E137EC35F006D02A
:1054400006010F0EFD6F9A0EFE6F000E7AEF34F01C
:105450001FEC34F00501F3B50BD009EC34F0D3C8E0
:10546000FDF6D4C8FEF6D5C8FFF634EC1EF0E2DF38
:1054700024EF34F01FEC34F00501F3B509D009EC4A
:1054800034F0D6C8E6FFD7C8E6FFDEEC35F0D2DF51
:1054900024EF34F07BEC35F0F3A502D0000E11D0F0
:1054A00045EC36F023EC36F0BAEC09F0E552E55263
:1054B00023EC36F023EC40F0E552E55228EC34F0D2
:1054C000010EC0EC34F002E2E16AE552E16E0050F8
:1054D00024EF34F07BEC35F0F3B509D067EC36F00F
:1054E000530EFD6FB80EFE6F000E14EC36F0020E78
:1054F000E15C02E2E16AE552E16E24EF34F07BEC1C
:1055000035F0F3B509D067EC36F06E0EFD6FB80ECE
:10551000FE6F000E14EC36F0020EE15C02E2E16A6E
:10552000E552E16E24EF34F081EC35F00A0E45ECE3
:1055300036F000017251E66EE66AE60EE66E990EEE
:10554000E66E000E90EC35F04FEC34F0DF0EE66EB8
:10555000990EE66E000E93EC35F002E2E16AE55238
:10556000E16E24EF34F081EC35F00A0E45EC36F0B4
:105570000601CAA308D05CEC34F0B80EE66E990EB2
:10558000E66E000E07D05CEC34F0A00EE66E990ECD
:10559000E66E000E6DEC36F03DEC36F0ABEC34F020
:1055A000980EE66E990EE66E000E67EC34F0950EDE
:1055B000E66E990EE66E000E93EC35F002E2E16ABB
:1055C000E552E16E24EF34F081EC35F0E66A8AECC6
:1055D00034F0B6EC34F0FD0EDBCFE6FFFE0ED2EC7D
:1055E00034F002E1010E06D00501F3B302D094ECD1
:1055F00034F0000EC0EC34F002E2E16AE552E16EF4
:10560000005024EF34F054EC36F0D950FB0F28EC66
:1056100036F00BE0B6EC34F0FB0EDBCFE6FFFC0E11
:10562000D2EC34F002E1010E06D00501F3B302D052
:1056300094EC34F0000EC0EC34F002E2E16AE55282
:10564000E16E005024EF34F01FEC34F002EC35F042
:1056500021E0FFEC35F017EC36F053EC35F07FEC41
:105660005AF050EC36F0E7CF01F0E552E7CF00F00A
:105670000050F3240801D16F0150F420D26FD1C83B
:1056800000F0016EFD0EDB50001807E1FE0EDB504E
:10569000011803E1F36AF46A16D0FD0E43EC35F00D
:1056A000FCEC35F008E059EC34F005E0DF2A010E9F
:1056B000F7E3DB2AF5D7FCEC35F003E1C1EC35F07C
:1056C000EF6A08EC35F0020EE15C02E2E16AE552B5
:1056D000E16E24EF34F01FEC34F002EC35F016E00C
:1056E000FD0E43EC35F059EC34F005E0DF2A010EF5
:1056F000FAE3DB2AF8D7DECF00F0DDCF01F00801B6
:10570000D151001806E1D251011803E1F36AF46A9D
:1057100021D0DF2A010E01E3DB2AD9CFE9FFDACF5E
:10572000EAFFFD0EEECFDBFFFE0EEDCFDBFFFCEC64
:1057300035F008E059EC34F005E0DF2A010EF7E31C
:10574000DB2AF5D7FCEC35F003E1C1EC35F0EF6A6C
:1057500008EC35F0020EE15C02E2E16AE552E16E2E
:1057600024EF34F081EC35F0E66A8AEC34F0050180
:10577000F3A502D0000E0BD009EC34F05AEC35F052
:10578000810EE66E990EE66E000E5FEC35F0C0EC11
:1057900034F002E2E16AE552E16E005024EF34F0A9
:1057A0001FEC34F053EC35F0E66A3EEC35F0F3A52F
:1057B00002D0000E0AD07EEC35F0160EFD6FB70E4B
:1057C000FE6F000E7AEC34F0010E24EF34F054EC4E
:1057D00036F00501F3A502D0000E0BD009EC34F031
:1057E0005AEC35F06F0EE66E990EE66E000E5FEC29
:1057F00035F0C0EC34F002E2E16AE552E16E0050AF
:1058000024EF34F01FEC34F048EC35F0010EE66E76
:105810003EEC35F0F3A502D0000E0AD07EEC35F058
:10582000430EFD6FB70EFE6F000E7AEC34F0010EE2
:1058300024EF34F07BEC35F0F3A502D0000E27D036
:1058400045EC36F0A3C0E6FFA4C0E6FFA5C0E6FF26
:10585000A6C0E6FF920EE66EB80EE66E000E6DEC88
:1058600036F00EEC35F0A7C0E6FFA8C0E6FFA9C0F1
:10587000E6FFAAC0E6FF6D0EE66E990EE66E000E1C
:105880006AEC36F00EEC35F028EC34F0010EC0EC8A
:1058900034F002E2E16AE552E16E005024EF34F0A8
:1058A0001FEC34F053EC35F0F5DDE552E55224EF12
:1058B00034F01FEC34F0070EE1260501F3A502D009
:1058C000000E70D07EEC35F0E3EC35F0070EF36E91
:1058D000020EF3CFDBFFDF6A200EDF5C62E2DFCF78
:1058E000E6FF14EC60F0E552030EF3CFDBFF040E8D
:1058F000F4CFDBFF030EDBCFE9FF040EDBCFEAFFC3
:10590000EF504DE0DFCFE6FFE66A630EE66E990EDC
:10591000E66E000E90EC35F016EC35F0030EDBCFA2
:10592000E6FF040EDBCFE6FF610EE66E990EE66E33
:10593000000EE66E050EDBCFE6FF060EDBCFE6FFC0
:1059400068EC40F016EC35F0050EDBCF00F0060EEB
:10595000DBCF01F0000E005E060E015A010E00C002
:10596000DBFFDBCFE6FF020EDB50E552E724006EE3
:10597000016A013412E20050A008000E01540DE249
:1059800059DD140E67EC36F0E3EC35F0010EDB5018
:10599000070FE76E020EE7CFDBFF28EC34F0DF2ABB
:1059A0009BD7010E006E070EE15C02E2E16AE55250
:1059B000E16E005024EF34F01FEC34F0E652020E9A
:1059C000DF6E200EDF5C11E24FEC35F00EE0C6EC2E
:1059D00035F006E185EC35F003E13AEC34F002D025
:1059E00048EC35F07DEC34F0ECD77EEC35F0650E0C
:1059F000FD6FB70EFE6F000E14EC36F048EC57F05A
:105A0000F8EC35F002E0A5EC34F0000EE55224EF9E
:105A100034F01CEC36F0DF6A010EE66E14EC60F038
:105A2000E55239EC36F0200EDF5C11E24FEC35F038
:105A30000EE0C6EC35F006E185EC35F003E13AEC1A
:105A400034F002D048EC35F07DEC34F0ECD7F8ECD3
:105A500035F004E0E66ACFEC1FF0E552000E006E70
:105A6000030EE15C02E2E16AE552E16E005024EFD0
:105A700034F07BEC35F0F3A502D0000E31D009EC08
:105A800034F0590EE66E990EE66E000E2FEC34F0EF
:105A9000080E1BEC34F04B0EE66E990EE66E000E0F
:105AA00017EC34F00E0E1BEC34F03B0EE66E990E44
