:020000040000FA
:0600000076EF8DF0120006
:020006001200E6
:0600080068EF79F0120020
:02000E000205E9
:0100100004EB
:020011000100EC
:020013000000EB
:0600180007EF11F01200D9
:02001E000C00D4
:10002000161D0100400B000040000000F51C0100FF
:10003000DC00000021000000F01C0100F2090000BB
:1000400005000000E41C0100F30700000C000000A4
:10005000AF1C0100C8060000350000006A1C01004A
:10006000BB0A000045000000041C0100000A00005B
:1000700066000000881B0100600000007C0000009A
:1000800013000000FD060000020000005D1B0100DF
:10009000C80700002B0000004B1B0100C70900002F
:1000A0001200000011000000FE0400000200000029
:1000B0000A01FC6BFD6B12000A01BB6B12007F0E84
:1000C0000601C85D08E10001AF0EFD6FB80EFE6FBE
:1000D000000E99EF0EF00A01010EBC6F050ED7EC71
:1000E0000FF00001A30EFD6FB80EFE6F000E99EC2D
:1000F0000EF00A0ED7EF0FF07F0E0601C85D04E187
:100100000001DAEC0EF006D000019E0EFD6FB80E75
:10011000FE6F000E99EF0EF082EC10F07F0E0601DC
:10012000C85D05E184EC0FF0BBEC12F05AD00A0177
:10013000EB0549E1450E0701055D45E0410E055D12
:1001400042E0610E055D3FE0670E055D3CE0500E4C
:10015000055D39E0020E05C7DBFF060EE66E070EF1
:10016000E66E000EE66E060EFAEC0EF0C6EC0DF032
:1001700009EC0EF002E6E6EC0EF005E2EFEC0FF013
:10018000F7E3DB2AF5D7000EE66E060EE66EE0EC2E
:1001900010F0000EE66E060E3EEC0DF0960EE66ECA
:1001A000B80EE66E000E31EC0DF0020EDBCF07F755
:1001B000080EE66E070E00EC11F0000EE66E060E5D
:1001C000E66E17EC0FF084EC0FF0E0EC10F0F8ECBA
:1001D0000DF07AEC0FF084EC0FF08FEC76F0E55236
:1001E000E552E552E5520001DAEC0EF099EC0EF022
:1001F000030EE15C02E2E16AE552E16E3AEF0DF0D6
:1002000035EC0DF0050EE126D650016E006A030EA6
:1002100000C0DBFF040E01C0DBFFD75081EC0EF005
:10022000DF6A080EDF5C0BE2DF50EA6AE90FE96E75
:10023000080EEA22EF5081EC0EF0DF2AF2D7030E0F
:10024000DBCFE6FF040EDBCFE6FF26EC72F0E552D3
:10025000E552DF6A160EDF5C11E248EC0DF004BED9
:1002600005682EEC0EF0DF50EA6ABD0FE96E0A0E4B
:10027000EA22E552E750EF6EDF2AECD70A01D36B92
:10028000090E3CEC10F0B7EC0DF0D80EE66E040E43
:10029000E66EBBEC0DF0EFEC10F0BBEC0DF0160EC3
:1002A000E66EE66AEBEC0EF0EDEC87F0026E0A0EFD
:1002B000E15E025000018E0EFD6FB80EFE6F000E63
:1002C00099EC0EF0EBEC0EF06EEC0EF049EC10F049
:1002D00026EC0EF08FEC76F0B8EC10F0000149EC53
:1002E00010F0080E3CEC10F0B7EC0DF0BBEC0DF08C
:1002F0006EEC0EF0DAEC0EF099EC0EF0050EE15C0F
:1003000002E2E16AE552E16E3AEF0DF0BFEC0FF068
:1003100084EC0FF0EFEC10F084EC0FF08CEC23F099
:10032000E552E552B3EC0DF0FE0EDB50020A11E08F
:10033000030A03E0010A1EE109D067EC0EF01EEC8F
:100340000FF003E1DE52DD50011814E025EC10F04F
:1003500011D067EC0EF01EEC0FF003E1DE52DD5021
:10036000011808E0ACDE25EC10F0010EF36EFE0E75
:10037000F3CFDBFFFE0EDB50006E020EE15C02E20B
:10038000E16AE552E16E00503AEF0DF086EC10F0B4
:10039000020E3CEC10F07FEC0FF0F0EC0EF0850E4E
:1003A000E66EB80EE66E000E12EC0DF089EC0FF062
:1003B0007AEC0FF066EC0FF0E66E020EDBCFE6FF94
:1003C000030EC4EC0EF089EC0FF060C0E6FF61C0D4
:1003D000E6FFE5EC0CF000016251DCEC0FF00001EF
:1003E00066510F0A20E0020A18E0090A10E0060A26
:1003F00008E0030A1EE1790EE66EB80EE66E000E06
:100400001DD0710EE66EB80EE66E000E17D06B0EA4
:10041000E66EB80EE66E000E11D0620EE66EB80EF5
:10042000E66E000E0BD0590EE66EB80EE66E000EAC
:1004300005D0500EE66EB80EE66E000EE9EC0DF03B
:1004400000016851040A18E0070A10E0020A08E0F7
:10045000010A18E1460EE66EB80EE66E000E14D0E4
:100460003D0EE66EB80EE66E000E0ED0360EE66E4F
:10047000B80EE66E000E08D0290EE66EB80EE66ED7
:10048000000E02D066EC0FF0E9EC0DF0E3EC0DF09D
:100490004D080FE173C0E6FF74C0E6FFE5EC0CF019
:1004A00075C0E6FF76C0E6FFAEEC10F090EC0FF002
:1004B0001AD073C002F074C003F0046A056A73C0F6
:1004C000E6FF74C0E6FF88EC0DF089EC0FF075C014
:1004D00002F076C003F0046A056A75C0E6FF76C0D4
:1004E000E6FF88EC0DF089EC0FF000016351DCECC5
:1004F0000FF064C0E6FF65C0E6FFE5EC0CF000011C
:100500006951DCEC0FF000016A51DCEC0FF00001E6
:100510006751DCEC0FF000016651DCEC0FF00001DC
:100520006851DCEC0FF0B0C000F0016A00BE016859
:1005300018EC0DF0B1C0E6FFB2C0E6FFE5EC0CF040
:10054000B8C000F0016A00BE016818EC0DF018ECAC
:100550000EF0AEEC10F0FCEC0FF089EC0FF0CAC01E
:10056000E6FFCBC0E6FFE5EC0CF04FEC0FF0E5EC5E
:100570000CF0CEC0E6FFCFC0E6FFE5EC0CF00001CA
:10058000D051DCEC0FF0D1C000F0016A00BE016870
:1005900018EC0DF0D4C0E6FFD5C0E6FFE5EC0CF09A
:1005A000D6C0E6FFD7C0E6FFE5EC0CF0D9C0E6FF09
:1005B000DAC0E6FFE5EC0CF0EC0EE66E0A0E21EC7C
:1005C0000DF0040EE15C02E2E16AE552E16E0050DA
:1005D0003AEF0DF0BFEC0FF0C8EC0EF0220EE66E15
:1005E000B80EE66E000EC0EC10F073EC0DF098EC57
:1005F00010F000BE01680DEC0DF0EE0EE66E0A0E76
:100600008AEC10F002E2E16AE552E16E00503AEF46
:100610000DF035EC0DF0070EE1261B0EE66EB80E60
:10062000E66E000EE0EC0DF0B7EC0DF0DF6A040EA4
:10063000DF5C6EE225EC0FF0EFCF00F0000EE76E0E
:100640000018E8AE02D0003403D0E750D880005440
:1006500051E2DF50EA6A9A0FE96E000EEA22EFCF0C
:1006600004F004C029F088EC68F027C000F028C02E
:1006700001F029C002F02AC003F0560E2C6E0E0EB7
:100680002D6E8D0E2E6E3E0E2F6E60EC69F07EECA0
:100690006BF0030E26C0DBFF040E27C0DBFF050E48
:1006A00028C0DBFF060E29C0DBFF03EC11F0D95098
:1006B000030FA7EC0DF0E66AE66AE66ABBEC0DF004
:1006C00067EC25F0006E0B0EE15E0050B7EC0DF00C
:1006D00025EC0FF0EF50D80F006E016A00BE0168E4
:1006E000D2EC0FF066EC0FF0E66EE5EC10F066EC85
:1006F0000FF005D0160EE66EB80EE66E000EE66E32
:10070000BBEC0DF0B5EC0FF0B7EC0DF0DF2A8FD796
:10071000B7C000F0016A00BE0168D2EC0FF0E66AD3
:10072000E66AE66AE5EC10F0F00EE66E0A0E21ECE1
:100730000DF0070EE15C02E2E16AE552E16E005065
:100740003AEF0DF082EC10F0010EF36E020EF3CFD3
:10075000DBFFF36EDB6E9CEC0EF00F0EE66EB80E58
:10076000E66E000ED5EC10F00F0EF66E000EF76E72
:10077000000EC2EC0DF0100EF66E000EF76E000EBD
:10078000C2EC0DF0EEEC0DF07AEC0FF02CEC0FF06B
:100790007FEC0FF0020EDBCFE6FF75EC10F000EC03
:1007A00011F0F2EC10F0800EE66E000E6EEC0DF023
:1007B0000001BC51AAEC0FF00501F851AAEC0FF0B2
:1007C000CC0EE66E050E6EEC0DF0BF0EE66E000E62
:1007D0006EEC0DF0F20EE66E0A0E21EC0DF0030E3B
:1007E000E15C02E2E16AE552E16E00503AEF0DF0A1
:1007F00035EC0DF0060EE12600017B517C117D11D8
:100800007E1109E1020EDB6A030EDB6A040EDB6A6D
:10081000050EDB6A1DD07B0EE96E000EEA6EEE500F
:100820000001775D006EEE507859016EEE507959F7
:10083000026EEE507A59036E020E00C0DBFF030E0B
:1008400001C0DBFF040E02C0DBFF050E03C0DBFFAF
:1008500000016B51E66EE66A010EE66EB80EE66EBA
:10086000000ED5EC10F000016C51AAEC0FF0000165
:100870007051AAEC0FF092C000F0016A00BE01684E
:100880000DEC0DF000019351AAEC0FF094C0E6FFBF
:1008900095C0E6FFE9EC0CF09EC0E6FF9FC0E6FFC6
:1008A000E9EC0CF0A0C0E6FFA1C0E6FFA2C0E6FFA5
:1008B000A3C0E6FF83EC0DF000017151AAEC0FF02C
:1008C000D950020FA7EC0DF083EC0DF07FC000F0C3
:1008D000016A00BE01680DEC0DF000016D51AAEC3B
:1008E0000FF0B5C000F0016A00BE01680DEC0DF01C
:1008F000B4C000F0016A00BE01680DEC0DF099EC87
:100900000DF066EC0FF0AAEC0DF000016E51AAECB0
:100910000FF03FEC0EF066EC0FF0AAEC0DF00001CA
:100920006F51AAEC0FF0F40EE66E0A0E21EC0DF0FA
:10093000060EE15C02E2E16AE552E16E00503AEF38
:100940000DF0BFEC0FF0FA0EE66EB70EE66E000E7D
:10095000E0EC0DF07FEC0FF00701CF51D011D11179
:1009600016E0CFC7F6FFD0C7F7FFD1C7F8FF0800E2
:10097000F5500DE0CFC7E6FFD0C7E6FFD1C7E6FFD1
:100980001DEC0DF066EC0FF0E66E1DEC0DF0EA0EBE
:10099000E66EB70EE66E000EE66E1DEC0DF0FA0E7A
:1009A000E66E0A0E8AEC10F002E2E16AE552E16EB0
:1009B00000503AEF0DF0BFEC0FF033EC0FF0E30E08
:1009C000E66EB70EE66E000E4AEC0EF0F0EC0EF09E
:1009D000E9EC0CF000017151AAEC0FF098EC10F06A
:1009E00000BE01680DEC0DF0C8EC0EF095EC10F0B7
:1009F00073EC0DF0FD0EDB0404E1F60EE66E0A0E5C
:100A000003D0F80EE66E0A0E8AEC10F002E2E16AFC
:100A1000E552E16E00503AEF0DF035EC0DF0090EA5
:100A2000E126010EF5EC0EF0020EF5EC0EF0A7EC4F
:100A30000EF0EE50ED1001E13DD1FD0EDBCFDEFFFB
:100A4000DBCFDDFFE3EC0DF009E0E3EC0DF0200877
:100A500005E0DF2A010EF6E3DB2AF4D7E3EC0DF024
:100A6000200801E027D13AEC0FF001E3DB2AEF6A1E
:100A70006CEC0FF0EBEC0EF0FFEC0EF001E11AD194
:100A8000090EE66ED1EC0DF0D80EE66E040E2CECDD
:100A90000DF06CEC0FF0D6EC0DF06CEC0FF0AEEC52
:100AA0000EF084EC0FF026EC0EF017EC0FF084EC57
:100AB0000FF07AEC0FF0FFEC0EF001E0FBD06CECE5
:100AC0000FF0000EE66E070EFAEC0EF0EBEC0EF0F7
:100AD000AEEC0DF0D80EE66E040E2CEC0DF084ECAE
:100AE0000FF0D6EC0DF084EC0FF0AEEC0EF026EC2F
:100AF0000EF050EC10F08BEC0EF05EEC0EF002E617
:100B0000E6EC0EF00AE2CCEC10F0FBEC0DF0060E79
:100B1000DB2A070EF2E3DB2AF0D726EC0EF058ECC6
:100B200010F08BEC0EF05EEC0EF002E6E6EC0EF050
:100B30000AE2CCEC10F0F8EC0DF0060EDB2A070E02
:100B4000F2E3DB2AF0D70A01010EBB6F0A0EE66E54
:100B5000D1EC0DF015EC0DF050084EE10A01EB510F
:100B600027E1060EDB6A070EDB6A5EEC0EF004E698
:100B7000160E005C000E015819E248EC0DF004BEA0
:100B800005682EEC0EF0060EDBCFE9FF070EDBCF7B
:100B9000EAFFD40EE9260A0EEA22E552E750EF6E8C
:100BA000060EDB2A070EE1E3DB2ADFD70A01EA6B38
:100BB000EB6BDB0EE66EB70EE66E000E31EC0DF061
:100BC00054EC0FF0AEEC0DF05FEC00F01AEC10F00E
:100BD0000A01010EEB6FE66ED1EC0DF0E80EE66E49
:100BE000040E2CEC0DF054EC0FF0D6EC0DF054ECA0
:100BF0000FF0AEEC0EF002D00A01EB6B0501FAAF7C
:100C000057D0FA9F9CEC0EF0B90EE66EB70EE66E6A
:100C1000000EF5EC10F00F0EF66E000EF76E000EE3
:100C2000C3EC0FF008EC0DF0100EF66E000EF76E30
:100C3000000EC3EC0FF008EC0DF0EEEC0DF0E8EC5C
:100C40000FF02CEC0FF094EC0FF00701CC51CD110C
:100C5000CE110CE0CCC7E6FFCDC7E6FFCEC7E6FF5E
:100C6000E8EC0FF0B5EC0FF094EC0FF05EEC0FF049
:100C700075EC10F008EC0DF00501F951A9EC10F03D
:100C80000501FA51E66EE66A66EC0FF0E66EE8ECF6
:100C90000FF0B4EC24F0D8EC10F094EC0FF0050158
:100CA000FB51A9EC10F0140EA4EC0DF01AEC10F0AE
:100CB0004CEC62F0090EE15C02E2E16AE552E16EA1
:100CC0003AEF0DF082EC10F00A01BB511AE1070E69
:100CD000E66EE66AB10EE66EB70EE66E000EDDEC6D
:100CE00010F004EC0FF001E0EDD0070E40EC0DF039
:100CF00094DEE552E5520601060ED06F0E0ED16F5E
:100D0000E1D00501FABF03D00501400EFB6F6CEC8A
:100D10000FF015EC10F0F8EC10F0020ED890003641
:100D20000136E806FBE1030E2D6E2E6A00C028F0A6
:100D300001C029F050EC8DF028C000F029C001F06E
:100D4000C50E285C000E29581FE2FEEC0DF084EC65
:100D50000FF06CEC0FF07CEC10F00501FABF03D043
:100D60000501410EFB6F7AEC0FF0FBEC0DF0050E68
:100D7000E66EE66AAB0EE66EB70EE66E000EC0ECEF
:100D800010F004EC0FF005E0400EE66E06EC14F0F7
:100D90008DD0D950FD0F91EC10F0050EEE6E070EC0
:100DA000ED6E0DEC0EF0EF50450835E160EC10F003
:100DB0004D0831E1A7EC0EF0020EEE26000EED22FA
:100DC000FEEC0DF0010EE66E060EE66E010E40EC36
:100DD0000DF07CEC10F0C6EC0DF009EC0EF002E624
:100DE000E6EC0EF005E2EFEC0FF0F7E3DB2AF5D7C7
:100DF0007AEC0FF0010EE66E060E3EEC0DF00DECF7
:100E00000EF0EFCF00F6D950FD0F91EC10F0000E70
:100E1000EE6E060EED6E0501FABF03D00501420E1F
:100E2000FB6F0DEC0EF0EF50430A42E02B0A37E067
:100E3000320A11E01B0A46E1A40EE66EB70EE66E1A
:100E4000000E31EC0DF00A01BC513CE15FEC00F00A
:100E50008CEC00F01ED060EC10F030081DE00001BA
:100E6000010EBB6F0A01BC512DE15FEC00F0E66A98
:100E7000C6EC01F0E552E66AEAEC02F0E552E66AF9
:100E800009EC03F0E552E66A5DDCE552E66AB0DCA7
:100E9000E5527CEC00F016D00001BB6B13D0010EC4
:100EA00040EC0DF041EC0FF07DEC62F0E5520AD021
:100EB000010E40EC0DF00ED8E552E5520A01BC518E
:100EC00001E1E1D9030EE15C02E2E16AE552E16E83
:100ED0003AEF0DF086EC10F0FD0EDBCFDEFFDBCF3E
:100EE000DDFFE3EC0DF009E0E3EC0DF02C0805E08C
:100EF000DF2A010EF6E3DB2AF4D7E3EC0DF02C0831
:100F000005E13AEC0FF001E3DB2AEF6A6CEC0FF03D
:100F100097EC6FF0E552E552F3CFFCFAF4CFFDFA0F
:100F2000DECFFEFADDCFFFFA040EE15C02E2E16AF9
:100F3000E552E16E3AEF0DF035EC0DF0060EE126CC
:100F4000020ED7EC0FF00501FABF03D00501430EE6
:100F5000FB6F310E0A01FC1901E1FD5101E171D174
:100F6000290EFC1901E1FD5101E159D1280EFC19AE
:100F700001E1FD5101E126D1060EFC1901E1FD510F
:100F800001E11CD1050EFC1901E1FD5101E10DD17A
:100F9000040EFC1901E1FD5101E1BCD0030EFC1966
:100FA00001E1FD5101E17ED0020EFC1901E1FD518C
:100FB0002AE0010EFC1901E1FD5102E0000E59D1B9
:100FC000DE6ADD6A09EC0EF004E6100E005C000E2D
:100FD000015801E34DD17AEC0FF0990EE66EB70E91
:100FE000E66E000EF5EC10F0100EA9EC10F0D1EC4E
:100FF0000EF0EF50A9EC10F08CEC00F0DF2A010E9F
:10100000E1E3DB2ADFD7B5EC0EF015EC0DF008E0DC
:1010100046EC10F005E062EC0FF0F7E3DB2AF5D7C1
:1010200046EC10F001E0B9D074EC0EF001E3DB2ADD
:101030001EEC10F001E0ABD048EC0FF004E6100E0F
:10104000025C000E035801E3A2D073EC0FF041ECF8
:101050000FF0D1EC0EF0E552E750EF6E09EC0EF018
:1010600004E6080E005C000E015810E373EC0FF06C
:1010700041EC10F0080E005E000E015A180E00241C
:10108000E66E2BEC84F0E552E552E5527CEC0EF076
:101090000F0EEE1804E1ED5002E1C0EC78F093EC95
:1010A0000EF080D0DE6ADD6A09EC0EF004E6200E58
:1010B000005C000E015801E3DBD0DFCFE6FFD1EC8E
:1010C0000DF07CEC0EF0090EEE1804E1ED5002E19B
:1010D0000EEC0FF07AEC0FF08E0EE66EB70EE66EA9
:1010E000000EF5EC10F0200EA9EC10F073EC0FF0F0
:1010F00066EC0FF0E66E040EDBCFE6FF050EC4ECE7
:101100000EF094EC0FF08CEC00F0DF2A010ECCE333
:10111000DB2ACAD7B5EC0EF015EC0DF008E046EC72
:1011200010F005E062EC0FF0F7E3DB2AF5D746ECB0
:1011300010F033E174EC0EF001E3DB2A1EEC10F04A
:1011400026E148EC0FF004E6180E025C000E03588E
:101150001EE273EC0FF0DFCFE6FF2BEC84F0E552DC
:10116000E552E55293EC0EF0F4EC0CF07CEC0EF052
:10117000020EEE1801E1ED5007E07CEC0EF00E0ED1
:10118000EE181DE1ED501BE1C0EC78F018D0160E02
:10119000E66E170EE66E010E05D0EA0EE66E160E2E
:1011A000E66E010EF4EC0CF00AD093EC0EF08EEC2F
:1011B00010F0040EE66E06EC14F059D071DB8CECE6
:1011C00000F056D0B5EC0EF015EC0DF008E046EC52
:1011D00010F005E062EC0FF0F7E3DB2AF5D746EC00
:1011E00010F015E174EC0EF001E3DB2AEF6ABCECC1
:1011F0000EF06AEC3BF0E552E55273EC0FF06EEC4A
:101200000EF09E0EFD6FB80EFE6F000E23D05FEC49
:1012100000F0EA0EE66E160EE66E010E22D0000118
:10122000820EFD6FB70EFE6F000E99EC0EF0BCEC57
:101230000EF06EEC0EF07C0EFD6FB70EFE6F000E22
:1012400009D0BCEC0EF06EEC0EF07A0EFD6FB70E0E
:10125000FE6F000E99EC0EF0050EA4EC0DF093EC71
:101260000EF08EEC10F0020EE66ED8EC20F0E55297
:10127000010E006E060EE15C02E2E16AE552E16EEB
:1012800000503AEF0DF00501FABF03D00501440EFE
:10129000FB6F020ED7EC0FF0280E0A01FDAF02D053
:1012A000D89003D0FC5D000EFD5907E3FD3507E241
:1012B000FC513108000EFD5502E25FEC00F0080120
:1012C000F151F211F31119E0FECAE6FFFFCAE6FF81
:1012D000FCCAE6FFFDCAE6FF010EE66E07D0F3C8C2
:1012E000FBFFF2C8FAFF0801F151F96EF8DF006E5A
:1012F000050EE15E005000090AE11EDE000907E16B
:10130000850EE66E170EE66E010E8EEC10F07CEC8C
:1013100000F00A01FC6BFD6BFECAE9FFFFCAEAFFA1
:10132000EF6A1200A2DB0A01BB5134E0BC51000895
:1013300031E30501FABF03D00501450EFB6F020E34
:10134000A4EC0DF0720EE66EB70EE66E000E89DBB1
:10135000670EE66EB70EE66E000E91EC0EF06CECCA
:101360000FF0AEEC0DF05E0EE66EB70EE66E000E00
:1013700091EC0EF0AA0EE76EFB0EDBCFE9FFFC0E40
:10138000DBCFEAFF59EC0FF0EF6A33EC0FF0E6DB4E
:101390001AEC10F06FD386EC10F0020EDB6A030E2D
:1013A000DB6A0A01BB5101E195D0A7EC0EF0EE50CB
:1013B000ED1001E18FD0FC0EDB5001E18BD0FC0E73
:1013C000DBCFE6FFE66A220EDDEC10F0BFEC7DF02D
:1013D000026E050EE15E025089EC0FF0F8EC10F0A1
:1013E000F350F41038E062EC0FF001E3DB2A4EEC2E
:1013F0000EF0DBCFE7FF0050E75EFC0EE7CFDBFF30
:10140000020EDBCF28F0030EDBCF29F0FD0E28C043
:10141000DBFFFE0E29C0DBFF08DB1BE006DB22083A
:1014200018E04EEC0EF0DB50000101AE02D0D89077
:1014300003D0005C000E01580CE246EC10F004E111
:1014400003EC10F02E0EEF6E62EC0FF0E5E3DB2AFA
:10145000E3D70EEC0FF0290EE66EE66AB20EE66EEA
:10146000B80EE66E000ED5EC10F011EC0FF00EE0A9
:101470006CEC0FF05A0EE66EB70EE66E000E00EC46
:1014800011F029EC24F0006E070E0BD0430EE66E2F
:10149000B70EE66E000E00EC11F0F3EC23F0006ED8
:1014A000050EE15E00507FEC0FF00A01BC51000810
:1014B00005E2140ED7EC0FF0DE6ADD6A5FEC00F097
:1014C0001AEC10F07CEC0EF0EE50ED1003E1140E6F
:1014D000D7EC0FF0040EE15C02E2E16AE552E16E46
:1014E000C9D2C3DA0C0EE12675C0DEFF76C0DDFF7F
:1014F000020E73C0DBFF030E74C0DBFF040EA0C03E
:10150000DBFF050EA1C0DBFF060EA2C0DBFF070E4E
:10151000A3C0DBFF3F0EF5EC0EF0B70EF36E090E25
:10152000F3CFDBFF000EF36E0A0EF3CFDBFF4B0EA3
:101530000701CB5D36E141EC10F067DBCEEC0FF03C
:1015400026C0DEFF27C0DDFF020EDBCF00F0030E5A
:10155000DBCF01F05ADBCEEC0FF0020E26C0DBFF32
:10156000030E27C0DBFFD950040FF1DACEEC0FF0E9
:10157000040E26C0DBFF050E27C0DBFF060E28C0C9
:10158000DBFF070E29C0DBFF3B0EF5EC0EF0B70EBC
:10159000F36E090EF3CFDBFF000EF36E0A0EF3CFEE
:1015A000DBFF0001D13537E294C0E6FF95C0E6FFCE
:1015B000300EE66EB70EE66E000E12DAD4C0E6FF0D
:1015C000D5C0E6FF2D0EE66EB70EE66E000E08DA09
:1015D000D1C000F0016A00BE0168D2EC0FF0290E04
:1015E000E66EB70EE66E000EDDEC10F0AEEC0FF01E
:1015F000B8EC0FF0D6C0E6FFD7C0E6FF200EE66ECF
:10160000B70EE66E000EECD9130EE66EB70EE66E60
:10161000000EE66EE1D900016BA5D9D0010EF36E84
:101620000B0EF3CFDBFF00016851040A18E0070A34
:1016300010E0020A08E0010A19E1070EE66EB70E93
:10164000E66E000E11D0FC0EE66EB60EE66E000ED3
:101650000BD0F30EE66EB60EE66E000E05D0E40E6D
:10166000E66EB60EE66E000EE66EB6D90001665165
:101670000F0A20E0020A18E0090A10E0060A08E052
:10168000030A20E1DB0EE66EB60EE66E000E17D002
:10169000C50EE66EB60EE66E000E11D0B70EE66E03
:1016A000B60EE66E000E13D0AD0EE66EB60EE66E0A
:1016B000000E05D09B0EE66EB60EE66E000EFDEC3B
:1016C00010F009D08A0EE66EB60EE66E000EFDEC46
:1016D00010F00B0EDB6A00016B950B0EDB5001E185
:1016E0007DD060C0E6FF61C0E6FF36EC10F078D92F
:1016F00000016251E66EE66A840EE66EB60EE66E94
:10170000000E6ED9820EE66EB60EE66E000EFDEC91
:1017100010F00001800ECB150BE1CAC0E6FFCBC074
:10172000E6FF790EE66EB60EE66E000E66EC10F081
:101730000001D05100080EE2D051E66EE66A36ECA8
:1017400010F04ED9ACDB6F0EE66EB60EE66E000EF4
:1017500066EC10F00001000ED880CE55000ECF557B
:101760003DE24B0E0701CB5D15E1CEC004F0CFC0CA
:1017700005F0066A076ACEC0E6FFCFC0E6FF06C0E6
:10178000E6FF07C0E6FFE9EC10F028C002F029C030
:1017900003F006D0CEC000F0CFC001F0026A036AA9
:1017A000D2EC0FF036EC10F0DDEC10F034EC24F05D
:1017B000086E070EE15E0850DBDBBDDB70DB6C0EF4
:1017C000E66EB60EE66E000E0BD9FADA05D05F0EA5
:1017D000E66EB60EE66E000EE66EFED801DB570E24
:1017E000E66EB60EE66E000EFBD8550EE66EB60E31
:1017F000E66E000EFDEC10F014DB08E074DB450E25
:10180000E66EB60EE66E000EEBD895DB75DAEE509E
:10181000ED1008E06FDB360EE66EB60EE66E000EDB
:10182000DFD889DB040EDBCF00F0050EDBCF01F043
:10183000060EDBCF02F0070EDBCF03F000500110E5
:101840000210031011E003EC11F0D950040F7FD9FE
:101850002E0EE66EB60EE66E000E93DA006E0B0EDE
:10186000E15E005085DB67DB0001C851C9110CE067
:10187000DFD9260EE66EB60EE66E000E82DA046E34
:101880000B0EE15E045074DBC5DB00C0F3FF01C04A
:10189000F4FF0C0EE15C02E2E16AE552E16EEAD08F
:1018A0006EDB85DB720EE66EB70EE66E000E88D933
:1018B00026DB20DB16DEE552E552020EE15C02E299
:1018C000E16AE552E16ED6D0BDEC10F0040EE66E92
:1018D000B60EE66E000EC5D8A7D902E2E16AE5525F
:1018E000E16EC8D0BDEC10F0D90EE66EB50EE66E16
:1018F000000EB7D899D902E2E16AE552E16EBAD09A
:10190000BDEC10F06DDAA90EE66EB50EE66E000EB7
:10191000D5EC10F0A20EE66EB50EE66E000EE66E89
:101920008CD882D902E2E16AE552E16EA3D0BDEC27
:1019300010F00701CAA307D0FCD87B0EE66EB50EE7
:10194000E66E000E06D0F5D8630EE66EB50EE66EB6
:10195000000EC0EC10F050DBD2DA91D95B0EE66ECF
:10196000B50EE66E000EF6D8580EE66EB50EE66EB3
:10197000000EE66E62D858D902E2E16AE552E16EE5
:1019800079D0BDEC10F0CC0EE66E050EE66E500E72
:10199000E66EB50EE66E000E7DD93CDB36D9C5DBB2
:1019A00062EC24F0046E090EE15E0450A8DAD9500E
:1019B000F90FE96EFF0EDA20EA6E4FDBA4D834D9B6
:1019C00002E2E16AE552E16E55D0C8DBA9DA89EF9F
:1019D0000FF0ABDBF2EF10F07FDAC7DAB8EF0FF001
:1019E000ECDB9EDAB8EF0FF0E66EFCCAE6FFFDCA4C
:1019F000E6FFE00EE66E160EE66E010EC1DBAEDA15
:101A0000A3DAF3EC23F0036E050EE15E035012003F
:101A1000E66EDEDA85DA94EF0FF0C4DA86DB9EDA62
:101A20007FEF0FF0ADDB90EF0FF0EDDAEF5012002B
:101A3000B9DA94DB93DA89EF0FF05CDA96DA7FEFAC
:101A40000FF0E66EFE0EDBCFE6FF86EC01F0E5520E
:101A5000E552E552006E1200E66E45DAC0DB73EF28
:101A60000FF08EDBD6EC7EF09BD3D9CFE6FFE1CF33
:101A7000D9FF1200E552E7CFD9FF120084DBA0D2D4
:101A8000E76EC8DAE7500026000E0122D2EF0FF011
:101A9000260E006E180E016E010E026E83DAE66EDF
:101AA0002DEC72F0E552E7CF02F0E552E7CF01F0FE
:101AB000E552E7CF00F0F3CF03F0F4CF04F0400E8F
:101AC0002D6E2E6AF3CF28F0F4CF29F03AEC6AF0AD
:101AD00024C003F025C004F0056A1200E66E25DB81
:101AE000A0DA7FEF0FF049EC26F03CDBA8C0E6FF60
:101AF000A9C0E6FFAAC0E6FFABC0E6FF16DB49ECD3
:101B000026F0B2EF10F011DB62EC24F0B2EF10F02F
:101B100004C0E6FF05C0E6FF5CDB26C0E6FF27C089
:101B2000E6FF1CDB34EC24F0066E070EE15E065087
:101B3000120069DBBDC000F0016A026A036ABDC021
:101B4000E6FF01C0E6FF53D232DA5FEF00F0E9DAD8
:101B50002DEF10F055DB50DA7FEF0FF0D5D941ECC7
:101B60007EF0B8EF10F0E552E5527FEF0FF0DE5255
:101B7000C6D9DD521200010EDBCFE6FF020EDBCF2D
:101B8000E6FF120000DA3CDBF2EF10F0100EE66E1A
:101B9000E66AE80EE66E040EF6DA9CDADE6ADD6AC4
:101BA000120075EC83F0E55289EF0FF03EDAF3CFC7
:101BB00002F0F4CF03F0F3CFE6FFF4CFE6FF12001C
:101BC000DFDAB5EF0FF0DECFE9FFDDCFEAFFEF5050
:101BD0001200E66E88D9C9D989EF0FF00E0E4CDAE3
:101BE000B3D90B0EE66EB80EE66E000EE66E12006E
:101BF0008BD95EDAE5D188D953DAE2D1A00EE66E50
:101C0000B80EE66E000ED9DA6DD2026A036ACAD93E
:101C1000EED137DAD89001501200FD0EDBCFE9FF8C
:101C2000FE0EDBCFEAFF120005DA020EE15C1200C5
:101C3000020EE66EE66AC8C000F0C9C001F0026A92
:101C4000036AC8C0E6FFC9C0E6FFD1D1100EE66E38
:101C5000E66AD80EE66E040EE66E1200005003240B
:101C6000F36E01500420F46E02500520F86EF4CF9C
:101C7000F7FFF3CFF6FF0800F550E66E1200C3DA67
:101C8000BEC000F0016A026A036ABEC0E6FF01C07E
:101C9000E6FFADD175DAC5D97FEF0FF0020EDBCFCD
:101CA00002F0030EDBCF03F0FD0EDB50025C006E92
:101CB000FE0EDB500358016EFC0E1200060EDBCF49
:101CC00000F0070EDBCF01F0D89001501200FC0E9F
:101CD000DBCFE9FFFD0EDBCFEAFF1200BBEC12F019
:101CE000E552E55200011200020EDBCFE9FFDB2ACC
:101CF000030EDBCFEAFF1200D9CFE9FFDACFEAFF0C
:101D00001200006E016AD950030F0BDA0050EE2664
:101D10000150ED221200DED9060EDB6A070EDB6AE7
:101D200012002EDADFD1E70EE66E160EE66E010E19
:101D30001200FF6F6CEF12F00E0EF66E000EF76ED3
:101D4000000EF86E0800F550E66EE66A1200D950F3
:101D5000FD0FE96EFF0EDA20EA6E1200EDEC87F05F
:101D6000046E0A0EE15E04501200020EFECADBFF92
:101D7000030EFFCADBFF1200FECAE6FFFFCAE6FF42
:101D800012001BDACDEF25F0DBCFE6FF11EF10F0EC
:101D9000A4C0E6FFA5C0E6FFA6C0E6FFA7C0E6FF19
:101DA0001200DECFE9FFDDCFEAFFE90EE926050EDE
:101DB000EA221200A00EFD6FB80EFE6F000E120098
:101DC000730EE66EB60EE66E000E1200000E005C9C
:101DD000040E01581200BD0EE66E0A0EE66E1200E9
:101DE00000017251E66EE66A1200F36E080EF3CF40
:101DF000DBFF1200E66EB5EC7EF0B8EF10F095EC6C
:101E00007EF0B6D900091200DDEC7DF0D1D90009D1
:101E1000120037D90001800E01141200F4D8EF6AC5
:101E20001200D950020F7DD9EE50ED1012003AEC9D
:101E300076F0006E060EE15E00501200EECF00F06C
:101E4000EFCF01F0DF5000181200DF50EA6A960F62
:101E5000E96E000EEA22120029EC24F0026E070E51
:101E6000E15E02501200FB0EDBCFE6FFFC0EDBCF83
:101E7000E6FF1200DFCFE9FFDF2A010EDBCFEAFF2A
:101E8000120097EC6FF0E552E552F350E66E120047
:101E9000DECF02F0DDCF03F0D89003501200CCC0AB
:101EA000E6FFCDC0E6FF1200D40EE66E0A0EE66E27
:101EB0001200E750E926000EEA221200080EDBCFDE
:101EC000E6FF1200020EDB2A030E1200830EE66EFE
:101ED000B80EE66E000E1200FD0EDBCFE6FFFE0E22
:101EE000DBCFE6FF1200020EDBCFE6FF030EDBCFF7
:101EF000E6FF1200DECFE6FFDDCFE6FF1200F3CFF4
:101F0000DEFFF4CFDDFF1200000EE66E070EE66E78
:101F10001200020EF3CFDBFF030EF4CFDBFF120043
:101F200034EC24F0D8EF10F0040EF3CFDBFF050EF5
:101F3000F4CFDBFF1200C2DF090EDBCFE6FF0A0E93
:101F4000DBCFE6FFECEF0CF053D9F3CFE6FFF4CF95
:101F5000E6FF1200E66EE66AE9EF0CF034EC24F0DE
:101F6000026E070EE15E02501200F3EC23F018D16E
:101F7000FD0EF3CFDBFFFE0EF4CFDBFF120075DDAD
:101F8000020EE1261200F86E0800F550E66EE66AD1
:101F90000D0EE66EB80EE66E000E12008FEC21F00C
:101FA000B8EF10F000C0E6FF01C0E6FF1200E66ED9
:101FB000D8EC20F0E5521200E66EE66AE5EF0CF090
:101FC000E66E7DEC85F0006E080EE15E00501200BA
:101FD000040EDBCFE6FF050EDBCFE6FF1200DCD8F8
:101FE000000EE66E070E4ADDDF2A010E120002C067
:101FF000E6FF03C0E6FF120067EC25F0046E0B0E4F
:10200000E15E04501200020EDBCFE9FF030EDBCFCE
:10201000EAFF1200FD0EDBCF00F0FE0EDBCF01F079
:10202000120029EC24F0D8EF10F0EFEC7EF0E5522E
:10203000E55212008CEC00F07CEF00F0EF6A9CDEC1
:1020400097EC6FF090DD09EF0FF08CEC00F03FDEC5
:10205000DECFEEFFDDCFEDFF1200EECFE6FFEECFDD
:10206000E6FFEECFE6FFEFCFE6FF1200870EE66E4B
:10207000B60EE66E000E1200E66E75EC83F0E552C9
:102080001200DECF00F0DDCF01F01200CEDC2C0814
:1020900012008C0EFD6FB80EFE6F000E99EF0EF061
:1020A000000EE66E020EE66EFA0EE66E040E1200EA
:1020B000000EE66E010EE66EF80EE66E040E1200DD
:1020C000010EE76EAADDF5DEEF50120089DC78DE46
:1020D000FDEF10F0E66ED4EC84F0006E080EE15EC9
:1020E0000050120065EC7EF05BD0E66A080EE66EEA
:1020F000B80EE66E000E1200F6EC76F0E552E552F0
:10210000B3EF0DF0B2DC030EE1261200AEDC040EDC
:10211000E126120096DC020EE15C120065DC8CEF19
:1021200000F0E96EDACFEAFF1200D0DE00EF11F026
:10213000ACC0E6FFADC0E6FF4CDCAEC0E6FFAFC012
:10214000E6FF47DC0001B35105DFB6C000F0016ACD
:102150001200E66EE66ABADE08EF0DF0B7DEE66E54
:1021600073EF0FF0006E090EE15E00507FEF0FF08D
:10217000E552E552E552E552120001DFA4EF0DF001
:10218000E66E84EF0FF0E66E000EE66E030EE66E6E
:10219000FC0EE66E040E12000701006B03EF11F057
:1021A000006E050EE15E005012003CDC7FEF0FF088
:1021B000006E070EE15E00501200E66E6CEF0FF04D
:1021C000EFEC7EF0D0DC7AEF0FF0D5DCC7DEB7EFB6
:1021D0000DF0E4DE26C000F027C001F0120025DF7C
:1021E000A4EF0FF09DDE7FEF0FF01CDC94EF0FF0FB
:1021F000F3CF00F0F4CF01F01200E66EECEF0CF03C
:0E220000E66E7AEF0FF0010EE66EE66A12004F
:02220E00D8CF27
:10221000E4FFE0CFE4FFE46EDACFE4FFE2CFDAFFE1
:10222000E9CFE4FFEACFE4FFF6CFE4FFF7CFE4FF26
:10223000F8CFE4FFF5CFE4FFF3CFE4FFF4CFE4FF02
:10224000FACFE4FFFBCFE4FF00EE20F0140EE80429
:1022500003E3EECFE4FFFBD700EE00F0200EE8042E
:1022600003E3EECFE4FFFBD7E65280EC87F0DFEC30
:1022700088F0E55200EE1FF0200EE80403E3E5CFFE
:10228000EDFFFBD700EE33F0140EE80403E3E5CFD7
:10229000EDFFFBD7E5CFFBFFE5CFFAFFE5CFF4FF7E
:1022A000E5CFF3FFE5CFF5FFE5CFF8FFE5CFF7FF8B
:1022B000E5CFF6FFE5CFEAFFE5CFE9FFE5CFDAFFAF
:1022C000E550E5CFE0FFE5CFD8FF10000901009B06
:1022D0001200C8EC1EF0E6520501FABF03D005015A
:1022E000300EFB6FD9CFE6FFDACFE6FF56EC87F072
:1022F000E552E552000901E1ECD0FF0E0601EB5D6D
:1023000001E0A0D0C85103E07F0EC85D08E10A0ECD
:10231000DF5CE8E00D0EDF5C02E10A0EDF6E0D0E01
:10232000DF5CE0E01BEC20F071EC1FF003E10150FA
:1023300001E1EA073A0EDF5C24E1060EEA5D21E3E3
:102340008FEC1FF01EE1490E015D1BE1500E025D96
:1023500018E1440E035D15E10501FABF03D0050144
:10236000310EFB6F0601EA05A7EC1EF0EF6A050EC1
:10237000E66E080EE66E46EC1FF0FD0EEB6FEA6BA4
:10238000B1D70A0EDF5CAEE10501FABF03D005014B
:10239000320EFB6F0601EA07EA51A7EC1EF0EF6A66
:1023A000040EEA5D48E38FEC1FF045E1430E015D4A
:1023B00042E14D0E025D3FE1540E035D3CE1070E2C
:1023C000DF6EDF50DF2AA7EC1EF0EF50220804E09A
:1023D0000601EA51DF5CF5E3DF04A7EC1EF0EF6ACB
:1023E0000601D66B140EE66EE66A070EE66E080E60
:1023F000E66ED60EE66E060E1DEC1FF00601E96BCA
:10240000EAC6DFFFDF50DF06A7EC1EF0EF502C0816
:1024100003E0DF500008F6E3DF50016A000F006EB2
:10242000080E0122020E77EC1FF046EC1FF0EA6B5B
:10243000FE0EEB6F57D7060101EC1FF00801006B91
:10244000060145D0FE0EEB5D24E10501FABF03D085
:102450000501330EFB6F0D0EDF5C03E00A0EDF5C3F
:1024600008E10601EA51EA2BA7EC1EF0200EEF6E00
:1024700003D006011BEC20F071EC1FF003E10150CA
:1024800001E1EA07EC07EC5101E02CD77FEC20F0EA
:102490001ED00501FABF03D00501340EFB6F0D0EEF
:1024A000DF5C09E006011BEC20F071EC1FF003E19A
:1024B000015001E1EA070601EC070A0EDF5C03E1C7
:1024C000EA077FEC20F0EC5101E00CD7EA6BEB69F6
:1024D00009D7E552CDEF1EF084EC20F038E1DF6A39
:1024E0009EEC1EF00A080BE10D0EDF5C08E009010E
:1024F00000B1FDD70D0ED1EC1EF00FE1FBD70D0E94
:10250000DF5C0BE19EEC1EF00A0807E0090100B158
:10251000FDD70A0ED1EC1EF0FCE09EEC1EF028E088
:10252000090100B1FDD79EEC1EF0D1EC1EF0FBE0DE
:102530000001FDC0F6FFFD2BFEC0F7FF000EFE23DD
:10254000FFC0F8FFFF230800F550DF6EC9D79EECEF
:102550001EF00EE0090100B1FDD79EEC1EF0D1EC9B
:102560001EF0FBE00001FD2B000EFE23FF23EFD742
:10257000E552CDEF1EF084EC20F035E1DF6AC0ECCF
:102580001EF00A080BE10D0EDF5C08E0090100B146
:10259000FDD70D0ED1EC1EF00FE1FBD70D0EDF5C69
:1025A0000BE1C0EC1EF00A0807E0090100B1FDD7FD
:1025B0000A0ED1EC1EF0FCE0C0EC1EF025E0090193
:1025C00000B1FDD7C0EC1EF0D1EC1EF0FBE0FD0E1B
:1025D000DBCFE9FFDB2AFE0EDBCFEAFF01E3DB2ADC
:1025E000EFCFDFFFCCD7C0EC1EF00EE0090100B149
:1025F000FDD7C0EC1EF0D1EC1EF0FBE0FD0EDB2A97
:10260000FE0EF1E3DB2AEFD7E552CDEF1EF0C8EC6A
:102610001EF0090100B1FDD7FE0EDBCFE6FF2FEC67
:1026200087F0E5520009F8E0CDEF1EF0C8EC1EF08F
:10263000E150FD0FE96EFF0EDA20EA6EEE50ED106C
:1026400029E097EC1FF00601F751001802E1F8515C
:1026500001181CE0080E0501F71518E1FD0EDBCF8F
:10266000F1F6FE0EDBCFF2F6F90EDBCFF3F6FA0E43
:10267000DBCFF4F6FB0EDBCFF5F6FC0EDBCFF6F688
:10268000FD0EDBCFF7F6FE0EDBCFF8F606013C0EB3
:10269000F96F05D07FEC1FF0F76BF86BF96BCDEF9E
:1026A0001EF0C8EC1EF0040EE126030E07EC1FF02E
:1026B0004C0EE66EB50EE66E000EE8EC1EF00AE07B
:1026C00097EC1FF000C001F0006A00500601FA13F9
:1026D0000150FB13490EE66EB50EE66E000EE8ECF7
:1026E0001EF00BE0FD0EDBCF28F0FE0EDBCF29F055
:1026F00028500601FA132950FB13040EE15C02E294
:10270000E16AE552E16ECDEF1EF0C8EC1EF0060E58
:10271000E12604EC20F0E66EFD0EDBCFE6FFFE0EB8
:10272000DBCFE6FF74EC1EF069E004EC20F08AECED
:1027300020F064E0AFEC20F061E0AFEC20F05EE070
:102740009EEC1FF0EF504F0859E1010EE76E9EEC32
:102750001FF0E750E926000EEA22EF502D084EE167
:10276000450EE66EB50EE66E000EE66E020EE76EE4
:10277000DBCF00F0030EDBCF01F0E75077EC1FF06A
:10278000F7EC1FF00AEC20F039E0450EE66EB50ECE
:10279000E66E000EADEC1EF0DEEC1EF0F350B3EC76
:1027A00020F0040EF3CFDBFF050EF4CFDBFF25ECAA
:1027B0001FF00DE1040EDBCFE9FF050EDBCFEAFFD2
:1027C000EF501CE0440EE66EB50EE66E12D0A5EC9E
:1027D0001FF0040EDBCFE6FF050EDBCFE6FF95EC26
:1027E0007EF0E552E552E552E552000907E0A5EC1E
:1027F0001FF0DEEC1EF0F350ACEC1FF0060EE15CB7
:1028000002E2E16AE552E16ECDEF1EF0C8EC1EF087
:10281000020EE126FE0EDBCFC8F60601C851240ADF
:1028200001E167D1070A01E15AD1010A01E151D161
:10283000030A01E11CD1010A01E103D1600A01E1AF
:10284000DED0030A01E1BFD0010A01E195D0030AFD
:1028500001E17ED0530A6FE0030A62E0010A55E00D
:10286000160A47E0030A3CE0010A33E0070A25E0C4
:10287000010A21E0030A11E07E0A0CE07F0A01E070
:1028800044D196EC20F0FAEC1EF00601010ECD6F5B
:102890000A0E2CD1F2EC52F038D10A0E32EC20F0B4
:1028A0000601030ECD6F140ECE6FCF6B0001BB6B14
:1028B00058EC00F02AD1CD6B28D1FAEC1EF0ECECEC
:1028C00020F00601020ECD6F2DEC1FF00601CC6B3F
:1028D0001CD1050ECD6F0A0E2DEC1FF00A0EA5D0EF
:1028E000060ECD6F020ECE6FCF6BC96BECEC20F0F5
:1028F0000CD1E66A3EEC1EF00501FABF03D00501DB
:10290000F00EFB6FB8EC20F000D1090E32EC20F095
:1029100050EC1FF01E0EFD6F150EFE6F010ED6D08F
:10292000080E32EC20F050EC1FF0650EFD6F150E16
:10293000FE6F010ECBD0070E32EC20F00601030E25
:10294000CD6F230ECE6FCF6BC96BB3EC1FF0BED033
:10295000050EE66EA2EC20F059EC1FF006E2070E21
:10296000E4EC1EF00601400E05D0080EE4EC1EF06B
:102970000601020ECD6F14D0050E0AEC1FF02B0ECF
:10298000FD6FB50EFE6F000E1AEC1FF0090EE4ECA1
:102990001EF059EC1FF002E2430E01D0020ECD6F83
:1029A000CAC6CEF6CBC6CFF60A0ED880CE57000EDA
:1029B000CF570F0ECF03F3CFCFF6CE03F3CFCEF624
:1029C000F450CF27A2D0050E32EC20F00EEC1FF011
:1029D0000601020ECD6F3C0ECE6FCF6B060EC96F97
:1029E0000001BB6B5CEC00F0020EBBEC1EF0BAEC1D
:1029F0001FF01AEC1FF00601400EC86F86D0050EBE
:102A000032EC20F00EEC1FF007EC1FF041EC1FF051
:102A1000EF5014E00FEC8BF0000910E00601020EFD
:102A2000CD6F3C0E2DEC1FF0020EBBEC1EF0000132
:102A3000380EFD6FB50EFE6F000E48D00601200E59
:102A4000C86F020E32EC20F00A01BC6B0601CD6BA0
:102A5000C96B0001B90507E0050EB95D04E0780E09
:102A60000601D26F02D00601D26BD36B4ED0060E98
:102A700032EC20F0020EBBEC1EF00601030ECD6F0F
:102A8000F00ECE6FCF6B5CEC00F00D0E07EC1FF07C
:102A900041EC1FF0EF5007E10001CD0EFD6F150E68
:102AA000FE6F010E13D00001050EFD6FB50EFE6F17
:102AB000000E1AEC1FF028EC20F05DDDE552E55227
:102AC0000001FB0EFD6FB40EFE6F000E1AEC1FF03E
:102AD0001CD00A0ECE6FCF6B400ECD6F16D0060EF7
:102AE00032EC20F00601240ECD6F1E0ECE6FCF6BA0
:102AF0000CD0CC51CC2B006E140E005C02E2020E06
:102B000001D0030EE66E82DEE552020EE15C02E2C7
:102B1000E16AE552E16ECDEF1EF0C8EC1EF0110E39
:102B2000E1260501FABF03D00501350EFB6FFE0E4D
:102B30000601EB5D21E10001B90507E0050EB95D75
:102B400004E00EEC1FF09EEC20F00501FABF03D06C
:102B50000501360EFB6F3DEC1FF0D60EE66E060E3D
:102B6000E66EC1EC1FF00501FABF2CEF1AF005016B
:102B7000350EFB6F2CEF1AF0FF0EEB5D16E0050132
:102B8000FABF03D00501370EFB6FFFEC1FF062ECBC
:102B900006F0E552E5520501FABF03D00501350EF6
:102BA000FB6FD3EC1FF02CEF1AF0C8517F0A02E143
:102BB00025EF1AF05F0A01E118D2600A01E15ED147
:102BC000630A01E141D1020A01E1F7D0330A01E1D0
:102BD000CAD0030A68E0010A2CE0110A17E0010AD2
:102BE00002E02CEF1AF0050EEA5D02E22CEF1AF07B
:102BF000DDEC1FF0F50EE66EB40EE66E000E31EC65
:102C00001EF002E02CEF1AF07F0EEBD1020EEA5D0F
:102C100002E22CEF1AF093EC1FF002E02CEF1AF016
:102C20004B0E015D02E02CEF1AF09EEC20F0100E2E
:102C3000D8D1040EEA5D23E38FEC1FF020E1430EB0
:102C4000015D1DE1530E025D1AE14D0E035D17E1BA
:102C5000FFEC1FF0EFEC7EF0E552E552F3CFE9FF19
:102C6000F4CFEAFFE906000EEA5A000EE926080E44
:102C7000EA22EF50310801E1EFD3030E5AD00601EA
:102C8000C95101E0E9D3020EEA5D01E2E5D393EC1C
:102C90001FF001E0E1D34B0E015D01E0DDD39EECBE
:102CA00020F0110E9ED1100EEA5D14E3380E0801DB
:102CB000005D10E1390E015D0DE1180EE66EE66A69
:102CC000FFEC1FF0D10EE66E050E1DEC1FF00501A6
:102CD000E86BC2D3080E0601EA5D16E38FEC1FF025
:102CE00013E1430E015D10E1500E025D0DE1420E55
:102CF000035D0AE1460E045D07E13A0E055D04E15D
:102D0000FFEC1FF002DD96D1080E0601EA5D17E325
:102D10008FEC1FF014E1430E015D11E1500E025DD6
:102D20000EE1490E035D0BE1520E075D01E194D304
:102D3000040EE4EC1EF00601010EC96F8DD30601EE
:102D4000C95101E089D3020EEA5D01E285D393EC1B
:102D50001FF001E081D34B0E015D01E07DD39EECBD
:102D600020F0120E3ED1060EEA5D16E38FEC1FF046
:102D700013E1490E015D10E1500E025D0DE1520EAE
:102D8000035D0AE1390E065D07E00001040EFD6FE8
:102D9000160EFE6F010E6ED1020E0601EA5D01E213
:102DA0005BD393EC1FF001E057D34B0E015D01E0C4
:102DB00053D39EEC20F0210E14D1020EEA5D0BE3FA
:102DC00093EC1FF008E14B0E015D05E1D3EC1FF021
:102DD000CC6B220E06D1050E0601EA5D07E3450E17
:102DE0000801005D03E1520E015D05E055EC20F0A5
:102DF00031EC1EF002E1230EF4D0E1EC1FF0E30E03
:102E0000E66EB40EE66E000E31EC1EF001E024D347
:102E100004EC20F0E66EFFEC1FF074EC1EF001E114
:102E20001BD304EC20F08AEC20F001E115D3080E4E
:102E3000E66EE66A28EC20F0BF0EE66E000E1DEC92
:102E40001FF00001C76B08D335EC20F001E004D37C
:102E50002C0E0801085D03E1070E091502D0070ECC
:102E600007150001B96FE80404E0050EB95D01E043
:102E7000F3D2D3EC1FF0CC6B400EB3D0020EEA5D60
:102E800016E3450E0801005D12E1520E015D0FE1EF
:102E9000020E0601C95D03E0030EC95D02E1410EA9
:102EA000A0D0050EC95D01E0D7D2030E9AD0020E64
:102EB0000601EA5D06E393EC1FF003E14B0E015DB2
:102EC0000BE0530E0801005D03E1480E015D04E0D4
:102ED000050E0601C95D6EE10601EA6B1E0ECE6F9E
:102EE000CF6B0001BA6B020EBBEC1EF00601C92BC2
:102EF000C951080A5DE00F0A48E0010A43E0030AED
:102F00003AE0010A31E0070A26E0010A0DE0030A6F
:102F100001E0A2D20001C90EFD6FB40EFE6F000EDB
:102F20001AEC1FF0050E0FD00001BC0EFD6FB40EA1
:102F3000FE6F000E1AEC1FF0050E3DEC20F0060EA1
:102F40003DEC20F0070E65EC1EF0C60EFD6FB40ED2
:102F5000FE6F000E8FD0040E0AEC1FF0AE0EFD6F58
:102F6000B40EFE6F000E86D00001A00EFD6FB40EF1
:102F7000FE6F000E7FD00001960EFD6FB40EFE6F47
:102F8000000E78D0BAEC1FF075D0030E0AEC1FF0DB
:102F9000820EFD6FB40EFE6F000E1AEC1FF0040ED1
:102FA00065EC1EF0780EFD6FB40EFE6F000E62D061
:102FB000200E17D0070EEA5D0DE3080EE66EE66AF6
:102FC0006F0EE66EB40EE66E000E31EC1EF002E1FE
:102FD000020E07D05EEC20F031EC1EF001E03CD296
:102FE000020EE66E06EC14F026D035EC20F025E15A
:102FF0002C0E0801085D03E1070E091502D0070E2B
:1030000007150001B96FE80403E0050EB95D05E19D
:103010000601D26BD36BE66A0AD00601D251D311F6
:1030200001E01AD2780ED26FD36B010EE66EE66A1B
:10303000ACEC88F0E552E5520FD2DDEC1FF05D0EEE
:10304000E66EB40EE66E000E31EC1EF016E10001E5
:10305000B90507E0050EB95D04E00EEC1FF09EEC2B
:1030600020F0010EBBEC1EF00001E50EFD6F150E09
:10307000FE6F010E1AEC1FF0EFD1020EE66EE66A4B
:103080005A0EE66EB40EE66E000E31EC1EF001E054
:10309000BCD0D8EC1FF001E3B8D021EC20F0020E38
:1030A000E66E080EF7EC1EF038EC1EF00EE062EC57
:1030B0001FF0020E26C0DBFF030E27C0DBFF040E4D
:1030C00028C0DBFF050E29C0DBFF38EC1EF005E051
:1030D00041EC1FF00A0EEFCFDBFF38EC1EF00EE0E4
:1030E00062EC1FF0060E26C0DBFF070E27C0DBFFD9
:1030F000080E28C0DBFF090E29C0DBFF38EC1EF0EC
:1031000005E041EC1FF00B0EEFCFDBFF38EC1EF0BB
:1031100005E041EC1FF00C0EEFCFDBFF38EC1EF0AA
:1031200038EC1EF038EC1EF008E0DEEC1EF00D0E60
:10313000F3CFDBFF0E0EF4CFDBFF0AEC20F001E152
:103140008BD10C0EDB50010B0001B36FE8505AE03D
:103150000A0EDB50530818E1020EDBCF00F0030E1D
:10316000DBCF01F0040EDBCF02F0050EC5EC1FF043
:10317000020E00C0DBFF030E01C0DBFF040E02C025
:10318000DBFF050E03C0DBFF0B0EDB50570818E119
:10319000060EDBCF00F0070EDBCF01F0080EDBCF11
:1031A00002F0090EC5EC1FF0060E00C0DBFF070E93
:1031B00001C0DBFF080E02C0DBFF090E03C0DBFF0E
:1031C000020EDBCFA4F0030EDBCFA5F0040EDBCFA5
:1031D000A6F0050EDBCFA7F0060EDBCFA8F0070E9A
:1031E000DBCFA9F0080EDBCFAAF0090EDBCFABF0E6
:1031F0000D0EDBCFAEF00E0EDBCFAFF00001780E80
:10320000B66F2AD10001B66B27D1030EE66EE66ACF
:10321000540EE66EB40EE66E000E31EC1EF022E1A6
:10322000D8EC1FF01FE221EC20F0030EE66E080E32
:10323000F7EC1EF008E0DEEC1EF00F0EF3CFDBFF24
:10324000100EF4CFDBFF0AEC20F001E105D1000104
:10325000B35101E101D10F0EDBCFACF0100EDBCF8B
:10326000ADF0FAD00A0EE66EE66A490EE66EB40ECE
:10327000E66E000E31EC1EF004E10001BA5125E1CA
:1032800019D0070EE66EE66A410EE66EB40EE66EE3
:10329000000E31EC1EF042E1110EE66EE66A2F0ED2
:1032A000E66EB40EE66E000E31EC1EF012E1000187
:1032B000BA510BE1010EE66EE66EEDEC1FF05FEC2D
:1032C00000F000EC01F07CEC00F00001010EBA6FA0
:1032D000C3D0150EE66EE66A190EE66EB40EE66E03
:1032E000000E31EC1EF001E1B7D0110EE66EE66A79
:1032F000070EE66EB40EE66E000E31EC1EF058E0DE
:103300000001BA6B020EE66EA2EC20F00001B905D6
:103310006DE0050EB95D01E09FD068D0DDEC1FF0D7
:10332000010EE66EB40EE66E000E31EC1EF012E1F8
:103330002C0E0801085D09E1070E0715006E070E47
:1033400006150A0DF350002402D0070E06150001E1
:10335000BC6F82D0070EE66EE66AF90EE66EB30E1B
:10336000E66E000E31EC1EF05AE00B0EE66EE66AD9
:10337000ED0EE66EB30EE66E000E31EC1EF003E1CC
:103380000A01BC6B69D0E1EC1FF0E60EE66EB30EED
:10339000E66E000E31EC1EF00BE00C0EE66EE66AF7
:1033A000D90EE66EB30EE66E000ED7EC1EF004E109
:1033B0005CEC00F0420E36D0090EE66EE66ACF0EE7
:1033C000E66EB30EE66E000E31EC1EF00FE055EC2B
:1033D00020F0D7EC1EF00AE05EEC20F0A6EC20F026
:1033E000026E070EE15E0250000904E15CEC00F0A1
:1033F000410E18D0040EE66EE66ACB0EE66EB30EF2
:10340000E66E000E31EC1EF00AE0E1EC1FF0C40E97
:10341000E66EB30EE66E000ED7EC1EF007E15CEC34
:1034200000F0010EE66E06EC14F015D0E1EC1FF092
:10343000BD0EE66EB30EE66E000E31EC1EF00CE132
:103440003DEC1FF0CBEC09F004D03DEC1FF0A4ECF8
:1034500057F0E552E552E552110EE15C02E2E16AF5
:10346000E552E16ECDEF1EF0C8EC1EF0080EE1262D
:103470000501FABF03D00501380EFB6F0601F951B3
:10348000000805E2F907F95102E1F76BF86BC85142
:103490007F0A01E1A8D15F0A48E0220A44E0230A3A
:1034A00037E0330A2CE0030A1FE0010A12E0110A98
:1034B00001E09BD1050ECE5D000ECF5903E2020E56
:1034C000E4EC1EF00001E10EFD6F150EFE6F010E23
:1034D0001CD092EC1EF001E088D100011E0EFD6FA1
:1034E000150EFE6F010E11D092EC1EF001E07DD1A1
:1034F0000001650EFD6F150EFE6F010E06D092ECF9
:103500001EF001E072D1B3EC1FF01AEC1FF06DD188
:10351000140ECE5D000ECF5901E367D1E1EC1FF030
:10352000ACEC88F00FD1E66A23D0FF0EEB5D09E02A
:10353000ED0503E1ED6BEB6910D0ED51010801E2FF
:10354000ED07000ED880D255000ED35508E2D20701
:10355000000ED35BD251D31102E1210E08D0E5EC6D
:103560001FF009E2BC2BBC513C0805E2400EE66EA0
:1035700006EC14F036D10001B90504E0050EB95D82
:1035800001E017D10A01FC51FD1106E00A01BB055B
:1035900003E10A01BC514AE0CCEC1FF020E20A0131
:1035A000BB051DE10A01BC511AE175EC20F0CCEC21
:1035B0001FF012E2F3C6E6FFF4C6E6FFF5C6E6FF2B
:1035C000F6C6E6FFF1C6E6FFF2C6E6FFC1EC0CF078
:1035D000006E060EE15E00507FEC1FF006D1FF0E7C
:1035E0000601F2EC1FF063E20A01BB0560E10A018B
:1035F000BC515DE175EC20F0200E0601F2EC1FF0ED
:1036000004E2FA9B64EC0CF0F0D0040EF2EC1FF034
:1036100010E2FA95FC5101E0E8D0060E0A01FC6FB9
:10362000FD6BFECAE9FFFFCAEAFFEF6A43EC09F04F
:10363000DCD0080EF2EC1FF006E2FA97EEA3D5D02C
:1036400097EC0CF0D2D0100EF2EC1FF004E2FA99D5
:1036500072EC0CF0CAD0020EF2EC1FF00AE2FA9300
:1036600075EC20F0020EE66EC6EC01F0E5520208A1
:103670001BD0010EF2EC1FF01AE2FA910001BB51CF
:10368000000815E2020EDF6E75EC20F0DFCFE6FFDA
:10369000F8EC03F02DEC20F0C6EC01F0E552DF6E03
:1036A000020EDF5C01E1A1D07CEC00F09ED0000EA8
:1036B0000601FA15006EFF0E11EC20F055E275ECD4
:1036C00020F0D8DB000E0601FA15006E200E11EC7A
:1036D00020F005E2FB9B19DBE1EC3BF033D0E9EC99
:1036E0001FF0040E11EC20F016E2FB95FC5101E0F6
:1036F0007CD0B80EE66EB30EE66E000E87EC1FF0BF
:10370000D6EC7EF070EC20F0040E87EC1FF0FDDAB2
:10371000C1EC1FF06AD0E9EC1FF0080E11EC20F0AC
:1037200007E2FB97EEA361D0F0DA2AEC3CF00AD076
:10373000E9EC1FF0100E11EC20F006E2FB99E5DA3F
:10374000F6EC3BF0E5524DD0E9EC1FF0020E11EC27
:1037500020F002E2FB9308D0E9EC1FF0010E11EC1F
:1037600020F002E2FB9141D000017151000821E2FA
:10377000010E0501F1151DE00A01BC511AE100011D
:10378000BB51000816E2010E0601EE1509E0D0C695
:1037900000F00001016A010E00160050011009E15D
:1037A000020EE66EEAEC02F0E552020802E07CEC62
:1037B00000F000016B51800B03E115EC20F015E1E6
:1037C0000A01BC5112E1D8EC1FF00FE20001400EDB
:1037D000FD6F150EFE6F010E2DDB010EE66ED8ECAF
:1037E00020F0E55202D012EC53F0080EE15C02E248
:1037F000E16AE552E16ED1D20501FABF03D00501BD
:10380000390EFB6F0601C851200A01E01200DDDB12
:1038100002E234EF1FF015EC20F014E0020EABDAF8
:103820000001EA0EFD6F150EFE6F010EFF6F6CECCE
:1038300012F009014151000803E2010E9CDAF9D7A8
:10384000020E99DA1200A4DA030EE1260501FABF8E
:1038500003D005013A0EFB6F0001BD511AE140ECA7
:103860008BF026C000F027C001F028C002F029C06C
:1038700003F02EDB01C028F002C029F003C02AF0BB
:10388000B3EC69F028EC6BF029C0BDF00001BE6B11
:103890003BD0BD51026E036ABDC0E6FF03C0E6FF28
:1038A00040EC8BF0E552E7CF03F0E552E7CF02F0B2
:1038B00026C004F027C005F028C006F029C007F094
:1038C00007DB05C028F006C029F007C02AF0B3ECDA
:1038D00069F04FEC6BF002502824006E0350292051
:1038E000016E010E0026000E0122020E2D6E2E6AC0
:1038F00000C028F001C029F03AEC6AF028C000F0BE
:1039000029C001F028C0BDF000016FB907D00F0E2B
:103910000001BE5D09E200016BAF03D00001BE6B88
:103920000ED00001BE2B0BD00F0EBE5D08E10001D2
:103930006B51800B04E1BDC0BEF00701CA930001CA
:10394000BE510F0825E200016B51800B21E1020EF0
:103950000701CA150AE10F0E0001BE5D0001D88003
:10396000BD5503E30701CA830CD0020E0701CA1537
:103970000FE00D0E0001BE5D0001BD5D09E3070112
:10398000CA93080EE66EE66A51EC13F0E552E55272
:103990000601C851200A2AE118DB02E265DA26D0C6
:1039A0000001BA050CE1BDEC61F0000808E29DDB06
:1039B0005FEC00F0C0EC61F07CEC00F017D000018F
:1039C000BA0510E10001BB5100080CE28EDB7FDB81
:1039D00001E082DB0C0E55D901E0ADDB5CD902E0E1
:1039E0007CEC00F0010E0601C919C96F030EE15C01
:1039F00002E2E16AE552E16ED0D10501FABF03D0DF
:103A000005013B0EFB6F12008BDB0DE0020E665DC5
:103A10000AE00F0E665D07E0800E00016B150008DE
:103A200002E3000E01D0010EE76E030EE7CFDBFFCD
:103A30000501FABF03D005013C0EFB6F0601C8511A
:103A4000200A4AE10001DB510001725D29E2800E8B
:103A500000016B1525E10601F0510FE10001BA05E7
:103A60000DE10A01BC510AE10601EEA502D080EC8D
:103A70000CF00601480EF06F01D0F0070601EF517F
:103A80000DE1F8D90601EEA505D03FD90BEC3CF0CD
:103A9000E552E5520601480EEF6F06D0EF0704D05D
:103AA0000601060EEF6FF06F0001BA0515E1000187
:103AB000BB5112E1030EDB500FE087DA02E2D4D9EA
:103AC0000BD005DB01E008DB0C0EDBD801E033DBBB
:103AD000E2D802E07CEC00F0040EE15C02E2E16A74
:103AE000E552E16E5AD11CDB0DE0020E665D0AE084
:103AF0000F0E665D07E0800E00016B15000802E303
:103B0000000E01D0010EE76E030EE7CFDBFF0501CB
:103B1000FABF03D005013D0EFB6F0601C851200A14
:103B200018E10001BA0515E10001BB5112E1030ED5
:103B3000DB500FE14ADA02E297D90BD0C8DA01E094
:103B4000CBDA0C0E9ED801E0F6DAA5D802E07CECC8
:103B500000F0040EE15C02E2E16AE552E16E1DD183
:103B60000501FABF03D005013E0EFB6F0601FC51B3
:103B7000000801E2FC07D02B000ED123CD51000834
:103B800010E2CEC600F0CFC601F0CE07000ECF5B2C
:103B90000050011006E1CDC6E6FF06EC14F0E55238
:103BA00001D062DC42D91E0E2D6E2E6A89D801E149
:103BB00023DE3BDA01E147DE38D92C0E2D6E010EF3
:103BC0002E6E7ED801E119DF30D9580E2D6E020E0F
:103BD0002E6E76D801E118DF28D9100E2D6E0E0E4C
:103BE0002E6E6ED806E17FDF100E0601D05F0E0E3E
:103BF000D15B0601D407000ED55BD451D51124E169
:103C0000E66A3CD8060192DA0501F32BF351E66E21
:103C1000E66AE66AE66AE66A000EE66E070EE66E99
:103C200034EC24F0006E070EE15E0050000EE66EEC
:103C3000070EE66E1A0E90D90501FABF03D00501F2
:103C4000F10EFB6FB8EC20F012001200800E946EA3
:103C500013EC87F00001B96BE66A06EC14F0E5524C
:103C6000120074DA006E070EE15E005000091200C7
:103C7000E8D9000EE66EE66ABAD93AD263DA9EEF68
:103C800020F0E66E02DA010EDBCFE9FF020EDBCF99
:103C9000EAFFEF501200DFCFE6FFC6EC01F0DDD9FE
:103CA000EAEC02F0DAD909EC03F0D7D9F8EC03F02A
:103CB000D4D9A1EC04F0E552DF6E020EDF5C1200F5
:103CC000D0C628F0D1C629F0E7D14DDAF3CF00F005
:103CD000F4CF01F0F3CFE6FFF4CFE6FFBBEC12F038
:103CE000E552E552000112006AEC89F0F9D932DAA6
:103CF0000AEF20F0E66EDFCFE6FFDBEC04F0E552E2
:103D0000E552E552E552DF6E1200010EDBCFE6FF11
:103D1000020EDBCFE6FF1200000ED8800054000E2A
:103D200001541200CEC600F0CFC601F0030E2D6E76
:103D30002E6ACEC628F0CFC629F0AED1FDC0F6FF60
:103D4000FEC0F7FFFFC0F8FF0800F5501200EA6A56
:103D5000000FE96E080EEA221200E66E000EE66E13
:103D6000E66A6AEC89F0BCD9020EF3CFDBFF030EE2
:103D7000F4CFDBFF1200E66ED8EC20F0E552120023
:103D8000FD0EDBCFE9FFFE0EDBCFEAFFEF501200A6
:103D9000D9CFE6FFE1CFD9FF1200E552E7CFD9FF37
:103DA0001200E66E2FEC87F0E55200091200CED922
:103DB000016E070EE15E01500009120049D997EC2F
:103DC0006FF0E552E5521200E66EE66AEDEF1FF085
:103DD000E66E3ED97BEC7FF0026E050EE15E02508E
:103DE000F3CF00F0F4CF01F0F350F4101200E66EC0
:103DF000FED87ED1E668A6D9E668E66AEED8D3EFAB
:103E000088F094D98DEC15F00601EA6B1200ABD95D
:103E1000AAEF20F0E66E96D9000112000601D26BDF
:103E2000D36B0001050EB96F1200D0C600F0D1C6E9
:103E300001F01200FF6F6CEF12F0E66E4DEC7FF0B8
:103E4000006E060EE15E00501200D950020FE96EBE
:103E5000DACFEAFFEE50ED101200CE6FCF6BC96BD8
:103E60000001BB6B5CEF00F0050E0601D05F000E99
:103E7000D15B1200E66A45EF20F0EAC6E6FFFFEFED
:103E80001FF0DECFE9FFDDCFEAFF120097EC6FF005
:103E9000E552E552F3CFECF606013C0EED6F120051
:103EA0000601030ECD6F5F0ECE6FCF6BC96B0001A5
:103EB00012000601CA07000ECB5BD880CA55000E5F
:103EC000CB551200C5D8E8EC22F0E552E5521200BD
:103ED0002C6A2D6A200E2E6E410E2F6E26C027F002
:103EE0001200EA51006E016AC80E00181200002686
:103EF000000E012200C0E6FF01C0E6FF120006012D
:103F0000F16BF26BF36BF46BF56BF66B1200E66E14
:103F1000D950030FE66E000EDA20E66E12002B0E6B
:103F20000801005D12004F0E0801005D1200FD0E39
:103F3000DBCF00F0FE0EDBCF01F01200020EDBCF74
:103F4000E9FF030EDBCFEAFF1200020EDBCFE6FF34
:103F5000030EDBCFE6FF1200E66E2BEC84F0E55299
:103F6000E552E55212000001800EFD6F150EFE6F46
:103F7000010E12000001130EFD6FB50EFE6F000E54
:103F80001200B7EC43F070EF20F0DBCF03F0001E1F
:103F9000011E021E031E12000601000ED880F155FC
:103FA000000EF25512000A0E0601CA6FCB6B12000A
:103FB000010E0601EE1500081200050EE66EE66A17
:103FC0001200060EE66EE66A12000A01BC510008F5
:103FD0001200000EFA15006E1200ACEC88F0E552EB
:103FE000E5521200FA15006E016A8CEF1EF06AECC1
:103FF00089F0026E050EE15E0250AAEF20F0000E7D
:10400000E66E080EE66E1200470EE66EB50EE66E20
:10401000000E1200D9CFE9FFDACFEAFFEE50ED1023
:104020001200FB15016E8CEF1EF0FFDE3C0E2D6EB4
:104030002E6A60EF1EF0EA51EA2B89DEDFCFEFFF38
:104040001200580EE66EB40EE66E000EE66E12001A
:10405000DECFE6FFDDCFE6FF1200E552DF6EDFCFF9
:10406000E6FF1200E66E3EEF1EF0A7DFDD0EE66E05
:10407000B40EE66E000E31EF1EF027DEB80EFD6FB7
:10408000B40EFE6F000E1AEF1FF075EC83F0E552D0
:10409000DE5260D8DD52120050EC8DF024C000F0EA
:1040A00025C001F02450251012000A0EE66EE66AC3
:1040B000EA0EE66EB40EE66E000E12000B0EE66E11
:1040C000E66A630EE66EB40EE66E000E1200020E95
:1040D000DF6E0B0E41EF1EF018DE010E7AEF1EF0C0
:1040E000006E050EE15E005012000A0EBBEF1EF0DE
:1040F000DECF00F0DDCF01F0005001101200EA51D8
:1041000026DEEF6A01EF1FF043DEE6527F0E060166
:10411000C85D1200E66E000EE66EE66A74EF1EF0F1
:1041200037DE040EE126000166051200080ED46F8A
:10413000070ED56F1200E9DD7AEF1EF0E66AE66A37
:10414000EDEF1FF0010EE66EEDEF1FF0E66E57DFAC
:10415000DDEF7DF0F3CFDEFFF4CFDDFF120054DFA3
:10416000FCDD25EF1FF0E66E75EC83F0E5521200E2
:10417000FF001200CEEC2AF0EFEC2CF0060EDF5C14
:1041800005E29EA2FED79E92DF2AF8D7E552CAEF3B
:104190002AF0CEEC2AF0EFEC2CF07A0EDF5C05E290
:1041A0009EA2FED79E92DF2AF8D7E552CAEF2AF0E8
:1041B000CEEC2AF0FE0EDB50000804E2EADFFE0E31
:1041C000DB06F8D7CAEF2AF0D9CFE6FFCAEF2AF00C
:1041D000D9CFE6FFCAEF2AF081B005D08180050E65
:1041E000E66EE6DFE5528190140EE66EE1DFE55201
:1041F00081801200CEEC2AF0030EE66EE66AA00E75
:10420000E66EBB0EE66E000E09EC2BF002E1000E2E
:1042100028D0030EE66EE66A9C0EE66EBB0EE66ED6
:10422000000E09EC2BF002E1010E1BD0030EE66E2E
:10423000E66A980EE66EBB0EE66E000E09EC2BF0F9
:1042400002E1030E0ED0030EE66EE66A940EE66EF1
:10425000BB0EE66E000E09EC2BF002E1040E01D05D
:10426000000ECAEF2AF0CEEC2AF0020EE126010E73
:10427000DE6EDD6A83EC2DF003E1F36AF46A47D069
:1042800083EC2DF02D0806E1DE68DD6870EC2CF083
:1042900001E3DB2A83EC2DF0D00F086E096A580E7B
:1042A0000902F3CF09F0020E0802F3500926580E56
:1042B0000802F3CF08F0F4500926010E93EC2DF01C
:1042C0003C0D0850F324066E0950F420076E030ECF
:1042D00093EC2DF00A0D0650F324046E0750F420E1
:1042E000056E040E93EC2DF000010424026E000E06
:1042F0000520036E02C028F0296EDECF2DF0DDCF41
:104300002EF094EC6AF026C0F3FF27C0F4FF020EF3
:10431000E15C02E2E16AE552E16ECAEF2AF097EC55
:104320002DF006EC2CF0FDE10CEC2EF0FE0E2B6EC9
:104330009B0E2C6E02EC2BF04CEC2DF082EC2CF052
:104340000DEC2CF0FE0E2B6E9B0E9DEC2DF079ECFF
:104350002CF05DEC2CF0FDE195EC2BF002E2E16A33
:10436000E552E16ECAEF2AF097EC2DF006EC2CF046
:10437000FDE10CEC2EF0120E2B6E9F0E2C6E02EC5B
:104380002BF0FB0EDBCF08F0FC0EDBCF09F0FD0EAF
:10439000DBCF0AF0FE0EDBCF0BF0060EFCEC2DF0AF
:1043A00063EC2DF00FEC8DF026C008F027C009F06B
:1043B00028C00AF029C00BF0040EDBCF26F0050E52
:1043C000DBCF27F0060EDBCF28F0070EDBCF29F07E
:1043D000120E2B6E9F0E2C6E2D6A2E6A5CEC8CF0EA
:1043E00022500824046E23500920056E24500A2010
:1043F000066E25500B20076E79EC2CF05DEC2CF04E
:10440000FDE195EC2BF002E2E16AE552E16ECAEFC4
:104410002AF0CEEC2AF00E0EDBEC2CF00CEC70F057
:1044200015EC2CF02E0EE66E15EC2DF081EC7EF0E6
:10443000E552E552E5520C0EF3CFDBFF0D0EF4CF43
:10444000DBFFF3CF00F0F4CF01F0F350F41001E103
:10445000A7D06BEC2CF0060EDB6A070EDB6A010EB0
:10446000F36E080EF3CFDBFF090EDB6A0A0EDB6A80
:104470000B0EDB6A0C0EDB2ADBCFE9FF0D0E01E32E
:10448000DB2ADBCFEAFFEF503CE064EC2CF0060EB9
:10449000DBCF02F0070EDBCF03F00A0E2B6E2C6A87
:1044A00002EC2BF00C0EDBCFE9FF0D0EDBCFEAFFA9
:1044B000EF50D00F046E056A066A076AE850A3EC55
:1044C0002DF076EC2DF0080EDBCF26F0090EDBCFB9
:1044D00027F00A0EDBCF28F00B0EDBCF29F00A0EF7
:1044E000FCEC2DF05CEC8CF0080E22C0DBFF090E1A
:1044F00023C0DBFF0A0E24C0DBFF0B0E25C0DBFF51
:10450000B9D763EC2BF02AEC2CF0040EDBCF14F0BF
:10451000050EDBCF15F0060EDBCF16F0070EDBCF56
:1045200017F014C026F015C027F016C028F017C0E9
:1045300029F0B0EC68F027C010F028C011F029C0B5
:1045400012F02AC013F0080EDBCF1CF0090EDBCFEF
:104550001DF00A0EDBCF1EF00B0EDBCF1FF01CC0D0
:1045600026F01DC027F01EC028F01FC029F0B0ECB7
:1045700068F027C018F028C019F029C01AF02AC026
:104580001BF07AEC2BF08BEC2CF060EC69F094ECE7
:104590002CF07AEC2BF0F4EC2BF0CAEC68F006D09F
:1045A00029EC2BF0D8EC2AF0B0EC68F083EC2BF07F
:1045B00027C026F028C027F029C028F02AC029F0FB
:1045C0000E0EE15C02E2E16AE552E16ECAEF2AF00A
:1045D000CEEC2AF0080EDBEC2CF01BDF15EC2CF0F7
:1045E00040EC2DF08AEC2DF02C6A2D6AC80E2E6E50
:1045F000420E2F6E9DEC2CF060EC69F07EEC6BF0BF
:10460000040E26C0DBFF050E27C0DBFF060E28C008
:10461000DBFF070E29C0DBFF0DEC2CF0D8EC2AF0F5
:10462000B0EC68F083EC2BF040EC2DF0EECF10F006
:10463000EECF11F0EECF12F0EFCF13F0040EDBCF80
:1046400018F0050EDBCF19F0060EDBCF1AF0070EBF
:10465000DBCF1BF0640EFCEC2DF018C026F019C067
:1046600027F01AC028F01BC029F05CEC8CF022C0A7
:1046700018F023C019F024C01AF025C01BF022C086
:1046800026F023C027F024C028F025C029F0B0EC84
:1046900068F027C014F028C015F029C016F02AC011
:1046A00017F07AEC2BF08BEC2CF0C9EC68F094EC62
:1046B0002CF02C6A2D6A700E2E6E420E2F6E60EC5E
:1046C00069F027C008F028C009F029C00AF02AC004
:1046D0000BF07AEC2BF09DEC2CF0CAEC68F035EC8A
:1046E0002CF029EC2BF0F6EC2CF0F4EC2BF0B3ECE6
:1046F00069F083EC2BF02C6A2D6A2E6A450E2F6E22
:10470000B3EC69F07EEC6BF0080EE15C02E2E16A6A
:10471000E552E16ECAEF2AF0CEEC2AF0040EE12653
:10472000DE68DD68B8EC2DF0013436E20BEC2DF0DC
:1047300033E21CEC2DF001E3DB2AEF50DF1AFB0E15
:10474000DB06FC0E01E2DB06020EDB6A030EDB6A0F
:10475000020EDBCF00F0030EDBCF01F0D89001504A
:1047600004E6080E005C000E0158DCE2DF50010B8D
:1047700007E0DEEC2CF0010E001AA00E011A02D0A8
:10478000DEEC2CF000C0DEFF01C0DDFF020EDB2AF4
:10479000030EDEE3DB2ADCD7F2EC2DF0EDEC2DF09E
:1047A000040EE15C02E2E16AE552E16ECAEF2AF032
:1047B000CEEC2AF0D950FD0FD3EC2AF0EE50ED10DC
:1047C00010E083EC2DF00DE083EC2DF00D0804E1FA
:1047D000B6EC2AF00A0EEF6E70EC2CF0EBE3DB2A5D
:1047E000E9D7CAEF2AF0CEEC2AF0D950FA0FD3EC71
:1047F0002AF0EFCFF6FFEE2AEFCFF7FF000EEE2202
:10480000EFCFF8FFEE220800F550BFEC2DF005E0E9
:1048100070EC2CF0EAE3DB2AE8D7B3EC2AF0CAEF1D
:104820002AF0CEEC2AF0FB0EDBCFE9FFDB2AFC0EF0
:10483000DBCFEAFF01E3DB2AEF50BFEC2DF005E010
:1048400070EC2CF0F0E3DB2AEED7B3EC2AF0CAEFE1
:104850002AF073EC2DF002E09DEC2AF0C5EC2DF06F
:1048600022EC2CF0CAEF2AF073EC2DF002E09DEC64
:104870002AF027EC2CF0B7EC70F0F7EC2DF083EC7D
:104880002DF005E070EC2CF0FAE3DB2AF8D7B3EC5E
:104890002AF0CAEF2AF073EC2DF002E09DEC2AF02A
:1048A0001AEC2EF051EC71F0D6EC2CF083EC2DF0DC
:1048B00005E070EC2CF0FAE3DB2AF8D7B3EC2AF031
:1048C000CAEF2AF073EC2DF002E09DEC2AF015EC13
:1048D0002DF050EC2DF0CCEC2DF083EC2DF005E01C
:1048E00070EC2CF0FAE3DB2AF8D7B3EC2AF0CAEF2D
:1048F0002AF0CEEC2AF0E6524CEC2DF0040EEE2617
:10490000000EED22FB0EDBCFE9FFFC0EDBCFEAFF52
:10491000EF6A040EDF6EDF5024E0E3EC2CF0E76E6C
:10492000FD0EDBCF03F0FE0EE7500316046A056AA6
:10493000B2EC2BF0FB0EDB06DBCFE9FFFC0E01E255
:10494000DB06FDEC2CF0FD0FD3EC2AF0040E0F0B70
:1049500006E0EC52D890ED32EF32E806FAE1DF06DD
:10496000DAD7E552CAEF2AF073EC2DF002E09DECA5
:104970002AF027EC2CF0BDDFF7EC2DF083EC2DF0C6
:1049800005E070EC2CF0FAE3DB2AF8D7B3EC2AF060
:10499000CAEF2AF0CEEC2AF0E652D950F90FD3EC48
:1049A0002AF0080EEE26000EED22F90EDBCFE9FF0D
:1049B000FA0EDBCFEAFFEF6A080EDF6EDF5028E069
:1049C000E3EC2CF0036E046A056A066A4CEC2DF0E9
:1049D000EE50031604EC2DF0B2EC2BF0F90EDB06D2
:1049E000DBCFE9FFFA0E01E2DB06FDEC2CF0FB0F5A
:1049F000D3EC2AF0040EE76ED890030EEB32020ED1
:104A0000EB32010EEB32EF32E706F6E1DF06D6D7E6
:104A1000E552CAEF2AF073EC2DF002E09DEC2AF08B
:104A20001AEC2EF0B7DFD6EC2CF083EC2DF005E07D
:104A300070EC2CF0FAE3DB2AF8D7B3EC2AF0CAEFDB
:104A40002AF0CEEC2AF00C0EE126A6EC2AF002E0C9
:104A50009DEC2AF010EC2DF050EC2DF0CCEC2DF06C
:104A600010EC2DF0EFEC7EF0E552E5520B0EF3CF9B
:104A7000DBFFDB50006E016AF40EDBCF02F0F50EB7
:104A8000DBCF03F001500318E8AE02D0033404D0AA
:104A90000250005C035001580AE21CEC2DF001E3C7
:104AA000DB2AF30EDBCFEFFF0B0EDB2AE2D710EC95
:104AB0002DF022EC2CF06CEC2DF0B3EC2AF00C0E67
:104AC000E15C02E2E16AE552E16ECAEF2AF0CEEC67
:104AD0002AF0050EE126010EDE6EDE6ADE6ADD6A70
:104AE000DD52DD52F40EDB50E76E040EE7CFDBFF44
:104AF000DB5000080CE240EC2DF00A0E24EC2DF007
:104B00005CEC8CF0A6EC2CF0040EDB06F1D754EC38
:104B10002DF060EC6AF0D1EC2DF001EC2EF0BBDE54
:104B2000086E090EAFEC2CF01CEC2DF001E3DB2A33
:104B30002E0EEF6E300EE66EF40EDBCFE6FFF50EB6
:104B4000DBCFE6FF54EC2DF02EC0F5FF60EC6AF0F1
:104B5000F5AE08D0000E226C231E2322241E242230
:104B6000251E25222EEC2DF022C0E6FF23C0E6FFF5
:104B700024C0E6FF25C0E6FF74EC2CF062DF086E6F
:104B80000C0EAFEC2CF0B3EC2AF0050EE15C02E267
:104B9000E16AE552E16ECAEF2AF0D7EC2DF002E0AF
:104BA0009DEC2AF0ABEC2DF0F5EC2AF00050011052
:104BB000021003100BE1DEEC2BF0E8AE02D005345E
:104BC00004D00450065C055007584AE3040EDBCFBE
:104BD00002F0050EDBCF03F0F40EDB50025C006E3A
:104BE000F50EDB500358016E030EB3EC2CF024C01D
:104BF00000F025C001F02450251011E1DEEC2BF06F
:104C0000E8AE02D0053404D00450065C05500758C5
:104C100006E21CEC2DF001E3DB2A2C0EEF6EF5EC26
:104C20002AF00A0EBDEC2AF001E3DB2A14EC2EF088
:104C3000040EDB2ADBCF00F0050E01E3DB2ADBCF1D
:104C400001F0F40EDB500018AFE1F50EDB50011857
:104C5000ABE11CEC2DF001E3DB2A2E0EEF6EA4D7A6
:104C6000C3EC2BF0E8EC2BF00CE24DEC2BF001E365
:104C7000DB2A40EC2CF001E2DB06060EDBCFEFFF77
:104C8000F1D7B2EC2DF002E2E16AE552E16ECAEF33
:104C90002AF0CEEC2AF0040EE126A6EC2AF002E07F
:104CA0009DEC2AF050EC2DF0D890030EEB50000A4A
:104CB00002E6BBEC2CF018E21CEC2DF001E3DB2A41
:104CC0002D0EEF6EF5EC2AF0001E011E021E031ED3
:104CD000F60E00C0DBFFF70E01C0DBFFF80E02C0CE
:104CE000DBFFF90E03C0DBFFF60EDBCF08F0F70E9B
:104CF000DBCF09F0F80EDBCF0AF0F90EDBCF0BF0BB
:104D000063EC2DF02AEC2CF02C6A2D6A2E6A450EED
:104D10002F6E60EC69F083EC2BF0F6EC2CF060EC7D
:104D200069F035EC2CF0060EE66EE66A29EC2BF005
:104D30002C6A240E2D6E740E2E6E490E2F6EF4EC1E
:104D40002BF0B3EC69F07EEC6BF0D1EC2DF074EC51
:104D50002CF0BDDE086E0B0EE15E0850040EE15C27
:104D600002E2E16AE552E16ECAEF2AF0D7EC2DF0DB
:104D700001E0E3DBABEC2DF064EC2CF0D8900150BB
:104D800004E6030E005C000E01583AE264EC2CF0DD
:104D9000013409E20BEC2DF006E21CEC2DF001E3EE
:104DA000DB2A3A0EEF6ED950040FE96EDACFEAFF34
:104DB000020EEE180BE1ED5009E150EC2DF0180E4B
:104DC00024EC2DF00FEC8DF0A6EC2CF0F5EC2AF095
:104DD0000A0ED3DB01E3DB2A14EC2EF0F5EC2AF00B
:104DE000060ECBDB01E3DB2A00C0EFFF50EC2DF019
:104DF000060EE7DB040EDB2A050EBEE3DB2ABCD77A
:104E0000C3EC2BF0E8EC2BF00CE24DEC2BF001E3C3
:104E1000DB2A40EC2CF001E2DB06060EDBCFEFFFD5
:104E2000F1D7B2EC2DF002E2E16AE552E16EB2D3C5
:104E300073EC2DF001E081DBF90EDB50030A18E082
:104E4000010A10E0030A08E0010A1EE17A0EE66E8C
:104E5000BB0EE66E000E11D0720EE66EBB0EE66E55
:104E6000000E0BD06C0EE66EBB0EE66E000E05D08B
:104E7000600EE66EBB0EE66E000EE66E15EC2DF0D3
:104E8000B2DC006E050E0FD0F90EDBCFE6FFE66A4E
:104E90005A0EE66EBB0EE66E000EE66E15EC2DF0B9
:104EA000E3DC006E070EE15E00506CEC2DF05BDB86
:104EB00071D374DB1A0EE126F30EDBCF08F0F40E8B
:104EC000DBCF09F0F50EDBCF0AF0F60EDBCF0BF0EF
:104ED0004CEC2DF0EE50085C046EEE500958056E57
:104EE000EE500A58066EEE500B58076E0001800E09
:104EF00007141DE0F30EDBCF0CF0F40EDBCF0DF04A
:104F0000F50EDBCF0EF0F60EDBCF0FF04CEC2DF0F4
:104F1000EE500C5C006EEE500D58016EEE500E58C7
:104F2000026EEE500F58036EC4EC2CF01AD0F30E44
:104F3000DBCF10F0F40EDBCF11F0F50EDBCF12F06B
:104F4000F60EDBCF13F04CEC2DF0EE50105C006E43
:104F5000EE501158016EEE501258026EEE5013587A
:104F6000036E0A0E00C0DBFF0B0E01C0DBFF0C0E50
:104F700002C0DBFF0D0E03C0DBFF0A0EDBCF26F005
:104F80000B0EDBCF27F00C0EDBCF28F00D0EDBCFA6
:104F900029F0EBEC2CF00E0E26C0DBFF0F0E27C025
:104FA000DBFF100E28C0DBFF110E4BEC2CF001AE26
:104FB00002D002680368D9500E0FCDEC2CF0E8AE99
:104FC00002D0F33402D0FDEC2BF001E268D158DBC3
:104FD00086EC2DF0030EEBCFF3FF0350F318E8AE91
:104FE00002D0F33402D0FDEC2BF020E286EC2DF061
:104FF000120EEECFDBFF130EEECFDBFF140EEECF63
:10500000DBFF150EEECFDBFFD950EF0FCCDAF70E3A
:10501000EECFDBFFF80EEECFDBFFF90EEECFDBFFBE
:10502000FA0EEECFDBFFD950120FB8DBEF0EDBCF5D
:1050300027F0F00EDBCF28F0F10EDBCF29F0F20ED7
:10504000DBCF2AF02A34000E2A1809E6D880000E99
:105050002754000E2854000E2954000E2A543BE217
:10506000DCEC2DF086EC2DF0030EEB500318E8AECF
:1050700002D0033408D00050EE5C0150EE580250CC
:10508000EE580350EE5827E2006A016A1A0E026ECB
:105090004F0E036E86EC2DF082EC2CF0160E00C045
:1050A000DBFF170E01C0DBFF180E02C0DBFF190E7D
:1050B00003C0DBFFDCEC2DF0F70E00C0DBFFF80EC9
:1050C00001C0DBFFF90E02C0DBFFFA0E03C0DBFFFD
:1050D000D950160F63DBEF0EDBCF04F0F00EDBCF01
:1050E00005F0F10EDBCF06F0F20EDBCF07F086EC19
:1050F0002DF0EE50045C006EEE500558016EEE503F
:105100000658026EEE500758036EE9EC2DF04CEC99
:105110002DF0D890030EEB50000A02E6BBEC2CF009
:1051200004E25BDAC4EC2CF001D057DAD8900350DB
:10513000230A08E6000E005C000E0158280E0258F3
:10514000230E035826E2ED0EDBCF04F0EE0EDBCF8C
:1051500005F0066A076A05AE02D0066807684A0EBF
:105160002B6E010E9DEC2DF040EC2DF0030EEBCFDD
:10517000F3FF2550F318E8AE02D0F33408D0EE5018
:10518000045CEE500558EE500658EE50075801E208
:1051900086D023DAB70E2B6E640E2C6E2D6A2E6A23
:1051A00037EC2DF060EC6AF05EDA1BD9E552E5527F
:1051B000040EF3CFDBFF050EF4CFDBFF040EDBCFD5
:1051C00008F0050EDBCF09F00A6A0B6A09AE02D0BF
:1051D0000A680B6804683F0E056E066A076A40ECB1
:1051E0002DF004EC2DF0EE500716E2D9A4DA0E0EE5
:1051F0000DDBFEE1040EDBCF10F0050EDBCF11F06E
:10520000126A136A11AE02D01268136840EC2DF0D6
:10521000EECF0CF0EECF0DF0EECF0EF0EFCF0FF0A3
:105220000E0ED8900F320E320D320C32E806F9E134
:105230000CC026F00DC027F00EC028F00FC029F0DA
:1052400010C02BF011C02CF012C02DF013C02EF0A6
:105250005CEC8CF000502224266E01502320276E37
:1052600002502420286E03502520296EB4DB060E40
:1052700026C0DBFF070E27C0DBFF080E28C0DBFFC0
:10528000090E09DB01AE02D002680368D950060F8F
:1052900084DBE8AE02D0F33401D0AFDA03E2F36A84
:1052A000F46A98D00E0EDBCF0AF00F0EDBCF0BF0B6
:1052B000100EDBCF0CF0110EDBCF0DF00AC026F084
:1052C0000BC027F00CC028F00DC029F00E0EDBCF6C
:1052D0002BF00F0EDBCF2CF0100EDBCF2DF0110ECC
:1052E000DBCF2EF05CEC8CF022C006F023C007F080
:1052F00024C008F025C009F0060EDBCF0EF0070E23
:10530000DBCF0FF0080EDBCF10F0090EDBCF11F072
:105310000EC026F00FC027F010C028F011C029F0F1
:10532000060EDBCF2BF0070EDBCF2CF0080EDBCF09
:105330002DF0090EDBCF2EF05CEC8CF00650222411
:10534000026E07502320036E08502420046E09507B
:105350002520056EED0EDBCF16F0EE0EDBCF17F03D
:10536000186A196A17AE02D018681968ED0EDBCFFB
:1053700012F0EE0EDBCF13F0146A156A13AE02D0F2
:105380001468156812C026F013C027F014C028F066
:1053900015C029F016C02BF017C02CF018C02DF046
:1053A00019C02EF05CEC8CF025500518E8AE02D048
:1053B000053408D00250225C03502358045024586E
:1053C0000550255802E2000E01D0010E016AF36E6D
:1053D00001C0F4FF1A0EE15C02E2E16AE552E16EFF
:1053E000D9D0DCD8060EE12676DA4FDB0001800E3C
:1053F000011410E028682968FD0EDBCF2DF0FE0EA9
:10540000DBCF2EF094EC6AF0FD0E26C0DBFFFE0E23
:1054100027C0DBFF60DA39DB026A036A01AE02D023
:10542000026803680334000E031809E6D880000EF2
:105430000054100E0154000E0254000E035417E2E3
:10544000010EE76E22DBE7500026000E0122020E5D
:105450008ADA29C001F0FD0E28C0DBFFFE0E29C04C
:10546000DBFF040EDB2A050ED6E3DB2AD4D7DE6A87
:10547000400EDE6EDE6ADD6ADD52DD52FD0EDBCFF0
:1054800008F0FE0EDBCF09F00A6A0B6A09AE02D003
:105490000A680B68FD0EDBCF04F0FE0EDBCF05F0D3
:1054A000066A076A05AE02D00668076881D843D944
:1054B000400E0126000E022203220F0EA7D9FEE1A4
:1054C000DFDA0050EE5E0150EE5A0250EE5A035001
:1054D000EE5A040EDBCF00F0DB06050EDBCF01F049
:1054E00001E2DB0601341CE296DA1AE2ECD8F6D8C7
:1054F0002ED9100E0526000E062207220D0EDDD92C
:10550000FEE105C001F006C002F007C003F0400E46
:10551000015E000E025A035A04C0DFFF90D8D9D7AB
:10552000DFCF00F0010EDBCF01F057DB060EE15CB0
:1055300002E2E16AE552E16E2DD063DBF3EC23F089
:10554000006E050EE15E00506CEF2DF0FA0EDBCF21
:1055500000F0FB0EDBCF01F0FC0EDBCF02F00050C1
:1055600001100210120091DAEDEF2DF0FD0EDBCFED
:10557000E9FFFE0EDBCFEAFF12003EDB78DA0FEC2C
:105580008DF06CDA300E0026000E0122022203227A
:105590001CEF2DF0E552E7CFD9FF1200D9CFE6FF7F
:1055A000E1CFD9FF1200E96EFF0EDA20EA6E120099
:1055B00004C026F005C027F006C028F007C029F077
:1055C000120042DA0FEC8DF029C0EDFF28C0EDFF8C
:1055D00027C0EDFF26C0EFFF1200CADAFD0EDBCFB9
:1055E00002F0FE0EDBCF03F01200F60EDBCF00F070
:1055F000F70EDBCF01F0F80EDBCF02F0F90EDBCFB8
:1056000003F012002D6A2E6A32DA5CEC8CF02EEF79
:105610002DF0E66E0ADADDEC7DF0006E070EE15E3D
:10562000005000091200EE500016EE500116EE5028
:105630000216EE5003165ADA23DA8AEF2DF0010E25
:1056400001C0DBFF020E02C0DBFF030E03C0DBFF65
:10565000120016DAEECF04F0EECF05F0EECF06F032
:10566000EFCF07F0120026C000F027C001F028C0DD
:1056700002F029C003F026C0E6FF27C0E6FF1200B3
:10568000EF0EDBCF00F0F00EDBCF01F0F10EDBCF41
:1056900002F0F20EDBCF03F01200DECFE9FFDDCF28
:1056A000EAFF060EEFCFDBFF020EDBCFE9FF030EB2
:1056B000DBCFEAFFEF50E66EDFCFE9FFDF2A010E16
:1056C000DBCFEAFF1200DCD9EECF08F0EECF09F015
:1056D000EECF0AF0EFCF0BF063EF2DF0DFCF2BF022
:1056E000010EDBCF2CF0020EDBCF2DF0030EDBCF53
:1056F0002EF0120027C02CF028C02DF029C02EF06B
:105700002AC02FF0120027C000F028C001F029C0E5
:1057100002F02AC003F01200EECFE6FFEECFE6FF64
:10572000EECFE6FFEFCFE6FF120004500CDA9FD970
:10573000080EE15C120008C02BF009C02CF00AC072
:105740002DF00BC02EF05CEC8CF02EEF2DF05CEC0D
:105750008CF022C004F023C005F024C006F025C060
:1057600007F0120000500324F36E01500420F46E81
:1057700002500520F86EF4CFF7FFF3CFF6FF0800D4
:10578000F550E66E120081D90006000E015A020E95
:1057900000C0DBFF030E01C0DBFF1200E96EDACFB1
:1057A000EAFFEF0EEECFDBFFF00EEECFDBFFF10EE8
:1057B000EECFDBFFF20EEECFDBFF120003DAF40ECA
:1057C000DBCF06F0F50EDBCF07F00750051812000F
:1057D00009DA020EDBCF02F0030EDBCF03F002503A
:1057E000005C03500158120004C027F005C028F0E7
:1057F00006C029F007C02AF01200EE50005CEE50FF
:105800000158EE500258EE5003581200D89003325F
:10581000023201320032E8061200D4D9060EDBCF84
:1058200006F0070EDBCF07F01200E552E55226C066
:10583000DEFF27C0DEFF28C0DEFF29C0DDFFDD520E
:10584000DD521200F2D811EC24F0F7EF2DF0EDD874
:10585000C5EF2DF0B0EC68F027C004F028C005F0CB
:1058600029C006F02AC007F0120027C0DEFF28C0BA
:10587000DEFF29C0DEFF2AC0DDFFDD52DD5212004F
:10588000E552E750EF6E020EDBCFE9FFDB06030EB9
:10589000DBCFEAFF120029C0DBFFED0EDBCF00F00B
:1058A000EE0EDBCF01F0026A036A1200E750E92630
:1058B000000EEA22EF50D00F1200D89007320632C5
:1058C00005320432E8061200040EDBCF00F0050EAC
:1058D000DBCF01F01200040EDB6A050EDB6A12005A
:1058E000FD0EDB2AFE0E1200E66AE66AE66A15EF96
:1058F0002DF0FF0E04267F0E0522000E0622072241
:10590000100E1200EE500026EE500122EE50022240
:10591000EE500322120010C027F011C028F012C070
:1059200029F013C02AF0120027C00CF028C00DF097
:1059300029C00EF02AC00FF0120000C027F001C0ED
:1059400028F002C029F003C02AF0120025C0EDFFA4
:1059500024C0EDFF23C0EDFF22C0EFFF1200E15E87
:1059600008506CEF2DF02D6E2E6A00C028F001C09B
:1059700029F03AEF6AF0000EEE5C000EEE58000ED1
:10598000EE58000EEE581200000E006C011E0122AF
:10599000021E0222031E03221200E96EDACFEAFF82
:1059A000030EEBCFF3FF0350F3181200006E060E48
:1059B000E15E00501200E12615EF2DF013D9D890CA
:1059C000013200321200830E006EBB0E016E000E1B
:1059D000026E0F0E1200420E0FD960EF6AF0E6520F
:1059E000DF6A7C0ECA6ECC6ACB6812002C6A2D6A04
:1059F000610E2E6E450E2F6E1200DBCFEAFFE552D0
:105A0000E750EF6ED9501200EE500416EE50051616
:105A1000EE500616120000500008000E015412004D
:105A2000D9CFE6FFDACFE6FF1200FD0EDBCFE6FFAF
:105A3000FE0EDBCFE6FF1200FD0EDBCFE9FFDB2A17
:105A4000FE0EDBCFEAFF1200D7D8EECF26F0EECF66
:105A500027F0EECF28F0EFCF29F0120022C000F09F
:105A600023C001F024C002F025C003F0120000C0E2
:105A700026F001C027F002C028F003C029F0120070
:105A8000D9CFE9FFDACFEAFF1200FD0EDBCF00F03D
:105A9000FE0EDBCF01F01200D950FB0FD3EF2AF03E
:105AA000D950F60FD3EF2AF0F60EDBCF04F0F70E45
:105AB000DBCF05F0F80EDBCF06F0F90EDBCF07F0F9
