:020000040000FA
:06000000F9EFA3F012006D
:020006001200E6
:06000800AAEF7BF01200DC
:02000E000301EC
:0100100004EB
:020011000100EC
:060018006BEF1AF012006C
:02001E000B00D5
:10002000DC490100E60800000F000000D54901008E
:10003000E209000007000000C9490100C7090000EB
:100040000C00000094490100C806000035000000C3
:100050004F490100000B000045000000E34801008B
:10006000920A00006C00000051480100000A0000E4
:100070009200000033480100C80800001E00000084
:1000800021480100E8070000120000001B480100A1
:10009000FA0500000600000011000000FE0000004C
:0400A000020000005A
:0C00A40040EC16F083E942E8010EE66E25
:1000B0001AEC9CF041E9F350036EF450046E0050CA
:1000C00001101AE003EBE9FF04EBEAFFEF5014E044
:1000D0003FEC19F09AEC95F042E9F3CFE6FFF4CF4C
:1000E000E6FF21EC19F03FEC19F0CDEC95F046E974
:1000F000000902E1010E01D0000EA2EF18F040EC61
:1001000016F081E947E8EC0E0001021902E1070E42
:10011000031901E1D9D1EA0E021902E1070E031910
:1001200001E161D19C0E021902E1070E031901E100
:100130002FD1DE0E021902E0F0EF04F0070E0319D2
:1001400002E0F0EF04F0060E0001511902E0F0EFBA
:1001500004F0525102E0F0EF04F00A01780E666FED
:1001600000015851591127E10DC0D7FBDFEC19F000
:1001700004E00B012FEC16F0FDE1E4EC19F004E0D3
:100180000B019AEC16F0FDE14FEC1AF004E00B01C4
:1001900044EC17F0FDE10B0108EC1AF002E1F0EF7E
:1001A00004F004EBD8F005EBD9F006EBDAF007EB3E
:1001B000DBF0F0EF04F0010E58192BE1595129E161
:1001C00000010651016E015002E001EBECF007C0A6
:1001D000E8F0DCC0D7FBDFEC19F004E00B012FECFA
:1001E00016F0FDE1E4EC19F004E00B019AEC16F0D6
:1001F000FDE14FEC1AF004E00B0144EC17F0FDE1D7
:100200000B0108EC1AF001E1EBD3D3EC17F0F0EF9F
:1002100004F0020E581946E1595144E106C0D7FBDB
:10022000B6EC17F0DDC0DCFBDEC0DDFBDFC0DEFBC3
:10023000DB6B76EC19F0D0EC15F002E0D3EC17F0A4
:1002400000010751016E015002E001EBEDF008C022
:10025000E9F0E0C0D7FBE1C0D8FB0B01D96BDA6B4A
:100260000CC0DBFBD4EC19F0100E1F0B04E00B01EB
:100270002FEC16F0FDE1B4EC15F00BC0DFFBE06BEA
:10028000E16BE26B180E1F0B04E00B019AEC16F009
:10029000FDE173EC19F0D0EC15F001E1A1D3DCEC39
:1002A00017F09ED3030E58193EE159513CE107C0A7
:1002B000D7FBB6EC17F006C0DBFB3BEC17F004E015
:1002C0000B012FEC16F0FDE1B4EC15F0E2C0E1FB00
:1002D000E3C0E2FBDF6BE06BF2EC15F0D0EC15F065
:1002E00002E0DCEC17F000010851016E015002E061
:1002F00001EBEEF009C0EAF0E4C0D7FBE5C0D8FBA3
:10030000E6C0D9FB0B01E5EC17F004E00B012FEC84
:1003100016F0FDE1B4EC15F0D0EC15F001E160D37E
:10032000ECEC17F05DD3040E581901E059D3595184
:1003300001E056D308C0D7FBB6EC17F007C0DBFBD3
:100340003BEC17F004E00B012FEC16F0FDE1B4ECF0
:1003500015F006C0DFFB64EC17F004E00B019AEC2B
:1003600016F0FDE173EC19F0E7C0E6FBE36BE46B1C
:10037000E56B08EC1AF002E0ECEC17F00001095113
:10038000016E015002E001EBEFF00AC0EBF028D360
:10039000020E0001511901E023D3525101E020D394
:1003A0000001010E581901E01BD3595101E018D387
:1003B0000A0EE66EE66A08C0DCFB0B01DB6B00018F
:1003C00009510B01DB11D96F08C0DAFBE66E08C0DA
:1003D000E6FF3AEC76F0E552E5CFD8FBE7CFD7FB66
:1003E000D7CBF0F0FDD2020E0001511901E15251BC
:1003F00011E0515101E0F4D2525101E0F1D200017B
:10040000010E581901E0ECD2595101E0E9D209C0BE
:10041000F1F0E6D2000158510008000E595526E2CD
:10042000090E0001505D22E110EC17F000010551AA
:10043000015C10E264EC18F0110ED75D000ED85983
:1004400009E271EC17F0330EE9260A0EA6EC18F05B
:10045000012AECD700015451551108E1015090ECEC
:1004600019F0330EE9260A0EEA22EF6A210E000186
:10047000505D01E0B5D20001030E581901E0B0D281
:10048000595101E0ADD200010A510A01476F486B92
:10049000280E475F000E485B00010B510A01456FB3
:1004A000466B280E455F000E465B00010C510B01A8
:1004B000D76FD86B280ED75F000ED85BD7CBD6F09E
:1004C0000A01780E646F8CD2050E0001511901E10A
:1004D000525101E149D2020E511901E1525101E19B
:1004E0000DD2030E511901E1525101E107D2040E60
:1004F000511901E1525101E101D2010E511901E0FE
:100500006FD2525101E06CD2000158510008000E28
:10051000595501E365D2010E58193BE1595139E1B2
:10052000F5EC17F00001926F07C093F000010B513A
:10053000016E800E0114000802E3000E01D0010ECE
:1005400000016197E8B06187400E0114000802E3E2
:10055000000E01D0010E7C91E8B07C81200E0114C8
:10056000000802E3000E01D0010E7C93E8B07C830A
:10057000FF0E90150B01D76FD86B0CC0DAFBD96B4F
:10058000D751D9110001906F0B01D851DA11000138
:10059000916F0001020E581923E1595121E1000E1B
:1005A000000190150B01D76FFF0E000191150B0193
:1005B000D86F000106510B01D7110001906FD8CB05
:1005C00091F0F5EC17F000018E6F07C08FF009C0B5
:1005D00086F00AC087F00BC088F00CC089F000D20A
:1005E000030E581912E1595110E106C08AF007C0F4
:1005F0008BF008C08CF00AC08DF00A01780E646F91
:100600000BC094F00CC095F0EBD1040E58193AE1F0
:10061000595138E106C096F007C097F00F0E00015F
:10062000091500010F0BF36EF346F346F346F3464C
:100630000F0E7C15F3107C6F08C0D7F098C0D7FB65
:1006400099C0D8FB0B01D96BDA6B0BC0DBFBD4EC88
:1006500019F0180E1F0B04E00B012FEC16F0FDE152
:10066000B4EC15F00CC0DFFB64EC17F004E00B01F8
:100670009AEC16F0FDE173EC19F0FEEC17F00AC0ED
:1006800069F0AED1050E581959E1595157E19AC098
:10069000D9FB9BC0DAFB0B01D76BD86B06C0DBFB29
:1006A0003BEC17F004E00B012FEC16F0FDE19FECA2
:1006B00019F0F2EC15F0FEEC17F00BC0D7FBD86B7D
:1006C000D96BDA6B0AC0DBFB3BEC17F004E00B01E3
:1006D0002FEC16F0FDE1B4EC15F009C0DFFB64EC83
:1006E00017F004E00B019AEC16F0FDE173EC19F041
:1006F00008C0E3FBA9EC17F004E00B0144EC17F091
:10070000FDE10B01A1EC16F0D7CB9CF0D8CB9DF00E
:10071000D9CB9EF0DACB9FF0A0C0D7FBA1C0D8FB0D
:10072000A2C0D9FBE5EC17F004E00B012FEC16F0AA
:10073000FDE1B4EC15F007EC18F052D1060E581993
:1007400057E1595155E1A3C0DAFB0B01D76BD86BC8
:10075000D96B06C0DBFBD4EC19F0100E1F0B04E0C4
:100760000B012FEC16F0FDE19FEC19F0080E1F0BAA
:1007700004E00B019AEC16F0FDE173EC19F008C0EF
:10078000E3FBE46BE56BE66BA1EC16F007EC18F00D
:100790000CC0D7FBD86BD96BDA6B0BC0DBFB3BEC27
:1007A00017F004E00B012FEC16F0FDE1B4EC15F0AE
:1007B0000AC0DFFB64EC17F004E00B019AEC16F0C2
:1007C000FDE173EC19F009C0E3FBA9EC17F004E0BC
:1007D0000B0144EC17F0FDE10B01A1EC16F0D7CBB7
:1007E000A4F0D8CBA5F0D9CBA6F0DACBA7F0F8D0FF
:1007F000070E581901E0F4D0595101E0F1D0100E64
:10080000E66E0E0E96EC16F009C0DBFB0B01D4EC85
:1008100019F008C0DFFBE06BE16BE26B080E1F0B09
:1008200004E00B019AEC16F0FDE10B01DF51DB1344
:10083000E051DC13E151DD13E251DE1307C0E3FBAD
:10084000E46BE56BE66B100E1F0B04E00B0144EC50
:1008500017F0FDE10B01E351DB13E451DC13E5512B
:10086000DD13E651DE1306C0E7FBE86BE96BEA6BCC
:10087000180E1F0B08E00B01D890E737E837E9376F
:10088000EA37E806F9E10B01E751DB13E851DC1325
:10089000E951DD13EA51DE13DBCBE6FFDCCBE6FFEB
:1008A000DDCBE6FFDECBE6FFD4EC76F0E552E5CF1C
:1008B000DAFBE5CFD9FBE5CFD8FBE7CFD7FB0B01C0
:1008C0007FEC19F07CEC17F0100E71EC18F0FDE1E4
:1008D0000B01D7510001A86F7CEC17F0080E0B013B
:1008E00071EC18F0FDE10B01D7510001A96F7CEC10
:1008F00017F00B01D7510001AA6F72D000017DB52E
:100900006FD07D51030B0B01D76FD86B51C0D9FB52
:1009100052C0DAFB020ED95F000EDA5BD951D7194B
:100920005FE1DA51D8195CE10001000E585D000E5C
:10093000595956E310EC17F000010551015C10E223
:1009400064EC18F0200ED75D000ED85909E271EC66
:1009500017F0AB0EE926000EA6EC18F0012AECD732
:1009600000017D857D973CD00001010E581907E1FB
:10097000595105E10BC0CCF00CC0CBF031D0020EC8
:10098000581905E1595103E106C0CDF029D0030EF5
:10099000581907E1595105E10BC0CEF00CC0CFF05A
:1009A0001FD0040E58191CE159511AE10B01D76BE5
:1009B000000107510B01D7110001D06F06C0D1F023
:1009C00008C0D2F009C0D8FB0B01D76B00010A5157
:1009D0000B01D7110001D36F09C0D4F00BC0D5F0C3
:1009E000010E48E9E7CFD9FF120040EC16F081E98B
:1009F00044E800010A0E606F530E0001021902E183
:100A0000060E031901E12CD1940E021902E1050E24
:100A1000031901E1F6D0810E021902E1050E031956
:100A200001E1E4D0420E021902E1050E031901E1D1
:100A3000C1D0F20E021902E1040E031901E18BD0BC
:100A4000F00E021902E1040E03196FE0330E0219D1
:100A500002E1040E03195BE0025102E1020E0319E8
:100A600046E0200E021902E1010E03192DE0180ED6
:100A7000021901E003D1035101E000D1010E000190
:100A80000615000802E3000E01D0010E0001619579
:100A9000E8B06185100E00010615000802E3000EA3
:100AA00001D0010E00016191E8B06181800E00016A
:100AB0000615000802E3000E01D0010E000161934B
:100AC000E8A0DCD06183DAD0200E0001085D01E0EF
:100AD000D5D0200E095D03E10001628705D0100E1C
:100AE000095D02E10001629709C0FDF0C7D0000175
:100AF0000851016E026A036A046A043401E3BED03D
:100B000085EC17F001E3BAD001EB65F0B7D0100E19
:100B100000010815000802E3000E01D0010E0001DB
:100B2000619DE8A0ABD0618DA9D000010D5106E117
:100B30000C5104E10B5102E1000E01D0010E000145
:100B4000056F000901E19AD00DC06AF00CC06BF08E
:100B50000BC06CF093D04D0E00010F5D0FE1000152
:100B600007417F0B45EC1AF051EC4BF044E9FCC710
:100B7000EDFBFDC7EEFBFAC717FA05D000010741F0
:100B80007F0B0A01176F00010851000803E30D51A4
:100B9000000803E20001618F71D008516FE10D512F
:100BA0006DE10A0117516AE100016151400B66E0F5
:100BB000619F64D000010651016E026A036A046AF3
:100BC00004345CE285EC17F059E201EBEBFB02EB3D
:100BD000ECFB03EBEDFB04EBEEFB0B01D890EE33EB
:100BE000ED33EC33EB33EBCB18FA48D00B01EB6B66
:100BF00000010C510B01EB110001676F0DC068F093
:100C00003DD000010C510B01ED6FEE6B00010B515B
:100C1000050DF3500B01ED25EB6FF450EE21EC6F59
:100C2000EB51016EEC51026E036A046A043426E251
:100C300085EC17F023E20A0E45EC1AF054EC1AF09A
:100C40003FEC19F076EC76F0E552E5CFEEFBE5CF20
:100C5000EDFBE5CFECFBE7CFEBFBEBCB64F00ED08D
:100C600000010B510A01326BE8307F0B316F280E07
:100C7000315F000E325B0A01780E636F080E0001CF
:100C8000FB250B01EB6F000E0001FC210B01EC6F4B
:100C9000EB51000102191BE10B01EC51000103199A
:100CA00016E1FF0E0001FA5D12E1030EFA6F06C0B5
:100CB000F2F007C0F3F008C0F4F009C0F5F00AC084
:100CC000F6F00BC0F7F00CC0F8F00DC0F9F0000121
:100CD0007DBD44D07EC0EEFB0B01ED6B00017F516A
:100CE0000B01ED11EB6F7EC0ECFBEB510001021923
:100CF00035E10B01EC510001031930E100017D8D5C
:100D0000016A026A036A046AD890045008E6080E71
:100D1000015C000E0258000E0358000E04581CE23D
:100D2000060E0124E96E000E0220EA6EEF50E66E18
:100D30007E0E0124E96E000E0220EA6EE552E750B5
:100D4000EF6ED950010FE96EDACFEAFFEE2A000EFE
:100D5000EE22EE22EE22D8D700017D9F010E6DEF2C
:100D600017F040EC16F081E942E80B01BA51016E30
:100D7000026A0150021038E0640E45EC1AF0A00E31
:100D8000E66E3F0EE66E31CAD0F532CAD1F50501E6
:100D9000140ED880D057000ED157D13506E3BFECE2
:100DA00017F0CE6DCF1FCF2302D0BFEC17F059EC58
:100DB0001AF0D5EC74F0FFEC78F054EC75F05AECC6
:100DC00018F00501640ED880CC57000ECD5723ECE7
:100DD0001AF054EC1AF01AEC78F0F2EC75F0E552D7
:100DE000E550026EE750016E0150A2EF18F040ECA2
:100DF00016F052EC17F0B80EE66EE60EE66E000E38
:100E00006AEC17F0C9EC17F0080ED89004BE03D0B6
:100E1000035C000E04580EE278EC18F0EFCFE6FF0A
:100E20000EEC19F06AEC17F009EC51F046E99CEC75
:100E300017F0EAD7AF0EE66EE60EE66E000E6AEC2D
:100E400017F0C9EC17F0080ED89004BE03D0035C6D
:100E5000000E04580AE278EC18F0EF50E66EE66AED
:100E60000EEC19F0A6EC19F0EED75CEC16F0E8ECFD
:100E700056F000017D8F6DEF17F040EC16F052EC4C
:100E800017F0000E016E070E026E200E035C000EBE
:100E9000045832E2AB0E0324E96E000E0420EA6E21
:100EA000EF500501CC6FCD6BD890CC37CD3723EC0C
:100EB0001AF0080EE66EE66A3FEC19F0F5EC75F0F4
:100EC000E552E5CFD2F5E7CFD1F50501070ED119EF
:100ED00008E1D25106E1AD0ECE6FE60ECF6F000EE7
:100EE00005D0B60ECE6FE60ECF6F000ED06F59EC68
:100EF0001AF0A6EC19F0C9D75CEC16F0E8EC56F045
:100F000000017D876DEF17F040EC16F081E948E8AD
:100F100000016051000801E26007605106E1619F35
:100F20006199676B686B0A01176B0B01B851036E0F
:100F3000B951026E16DF016E000165510501D06FD7
:100F4000D16BD890D037D1373EEC1AF0FAC71BFAE4
:100F5000FBC71CFA015014E0E66AE66A10EC18F0D0
:100F600001EBE6FFB6EC74F096EC19F097EC75F037
:100F700051EC4BF044E9FAC719FAFBC71AFA04D04E
:100F80001BCA19FA1CCA1AFA00016A51000806E3C2
:100F90006B51000803E36C5100081BE226EC17F0CC
:100FA00004E00501F3EC16F0FDE12AEC17F004E093
:100FB0000501B8EC16F0FDE1AFEC15F051EC4BF08B
:100FC00044E9FAC75BFAFBC75CFAFCC75DFAFDC7E8
:100FD0005EFA080EE66EE66A000187518625050175
:100FE000D86FD96BD937000188510501D825D66F44
:100FF000000ED921D76F000189510501D625D46F84
:10100000000ED721D56F00018A510501D425D26F7A
:10101000000ED521D36F00018B510501D225D06F71
:10102000000ED321D16F00018C510501D025CE6F68
:10103000000ED121CF6F00018D510501CE25CC6F5F
:10104000000ECF21CD6FCCC5E6FFE66EF2EC75F059
:10105000E552E5CF4AFAE7CF49FA086A040E085C80
:101060003DE2EC0EE66E510EE66E300EE66E3F0E81
:10107000E66E0850EA6AEC0FE96E000EEA22EFCF46
:10108000E6FFB6EC74F0FFEC78F01BEC75F041E98C
:10109000E750E66E0850EA6A550FE96E0A0EA6ECB4
:1010A00018F00850EA6AE80FE96E000EEA22EF50E5
:1010B000F10F0501CC6FCD6B800B01E0CD69EA6AC1
:1010C0000834FE0BE96EEA364D0EE9260A0EEA22D6
:1010D000CCC5EEFFCDC5EDFF082AC0D70A011151DE
:1010E000010B0501CC6F00016151010B0501CC5DC5
:1010F0003CE10A011151020B01E0010E0501CD6F27
:1011000000016151020B01E0010E0501CD5D2DE1F1
:101110000A011151040B01E0010E0501CE6F00011F
:101120006151040B01E0010E0501CE5D1EE10A01D3
:101130001151400B01E0010E0501CF6F000161511B
:10114000400B01E0010E0501CF5D0FE10A011251D4
:10115000080B01E0010E0501D06F00016251080B80
:1011600001E0010E0501D05D26E0000161510A0198
:101170001191010B01E01181000161510A011193EC
:10118000020B01E01183000161510A011195040B6A
:1011900001E01185000161510A01119D400B01E040
:1011A000118D000162510A011297080B01E01287AC
:1011B000020EFAEC16F0000161AF46D00A0111BF31
:1011C00017D0118F6AC06DF06BC06EF06CC06FF0FD
:1011D000A4C070F0A5C071F0A6C072F0A7C073F0F3
:1011E000A0C074F0A1C075F0A2C076F0A3C077F0E3
:1011F0000A012C512D112E112F1107E02C6B2D6B94
:101200002E6B2F6B020EFAEC16F018EC18F004E0BF
:1012100005014BEC17F0FDE121EC18F004E00501AD
:101220007FEC18F0FDE1BFEC16F004E00501AFEC37
:1012300017F0FDE12AEC18F004E0050186EC18F047
:10124000FDE1FBEC15F038D00A01119F0A01176B84
:101250000A012C512D112E112F112EE128CA2CFA22
:1012600029CA2DFA2ACA2EFA2BCA2FFA2C07000EE9
:101270002D5B2E5B2F5B18EC18F004E005014BECA6
:1012800017F0FDE121EC18F004E005017FEC18F007
:10129000FDE1BFEC16F004E00501AFEC17F0FDE155
:1012A0002AEC18F004E0050186EC18F0FDE1FBECF7
:1012B00015F0020EFAEC16F000017CA342D0F051BA
:1012C0000A01006F016BF0C0E6FF01CAE6FFE66AA3
:1012D000E66AE80EE66E030E96EC16F067C0E6FFCF
:1012E00068C0E6FF60EC18F0E552E5CFD3F5E5CF36
:1012F000D2F5E5CFD1F5E7CFD0F5080E0501D890AE
:10130000D333D233D133D033E806F9E130EC17F0E0
:1013100076EC76F000EC17F0CCC502FA0A01086B07
:1013200000CAE6FF01CAE6FFC80EE66E190EE66EB9
:101330003AEC76F05AEC18F0CCC503FA0A01010E2B
:1013400037D07CA136D00A0E8DEC18F03AEC76F04E
:10135000E552E5CF01FAE7CF00FA0A0EE66EE66A3B
:10136000E668E66890C0E6FF91C0E6FF1AEC78F008
:10137000F2EC75F05AEC18F0CCC502FA0A01040E32
:10138000086F8EC0E6FF8FC0E6FFE66AE66A640E6D
:1013900045EC1AF092C0E6FF93C0E6FF60EC18F04F
:1013A00076EC76F000EC17F0CCC503FA0A01020ED9
:1013B0000C6F00016151080B0AE07C51010B03E145
:1013C0007C51020B04E00A010251000802E3000E06
:1013D00001D0010E00016199E8B061896151100BE3
:1013E00002E0020E06D06151800B02E0010E01D036
:1013F000000EE66EB1EC79F041E9000161A9F8D088
:101400000A0111B920D01187118511890A011589A6
:101410000A017C6B7D6B0A01046B056B0A01010EEE
:10142000066F0A01086B0A010A6B0B6B0A01036B5A
:1014300000017D89A0C078F0A1C079F0A2C07AF047
:10144000A3C07BF024D00A01042B000E05230A015F
:101450001851000809E2035007E00350185D04E347
:1014600003500001635D10E300016551000814E2C0
:10147000025012E00A010250195D000E1A590CE3E5
:1014800002500001665D08E20A01020E066F040EBA
:10149000FAEC16F0020E07D05F0E0A01185D05E3A4
:1014A0000A01020E066FFAEC16F00A01005100085C
:1014B000000E015501E392D00A010251000801E338
:1014C0008DD00A01010E066F03500CE00350E66E4A
:1014D000E66A0E0EE66E010EE66E1AEC78F0D5ECBA
:1014E00074F014D002501DE001EBE6FFD8EC19F0C7
:1014F000780EE66E690E96EC16F002EBE6FFE66AF1
:1015000060EC18F076EC76F0F6EC74F000EC17F086
:101510000501CC51046ECD51056ECE51066ECF51F2
:1015200006D0046AF00E056ED20E066E460E076EE9
:1015300000017C51010B14E0E66A140EE66EAF0E5A
:10154000E66E460EE66E33EC18F077EC77F00009A5
:1015500007E0046A140E056EAF0E066E460E076EA7
:101560000A010251E66EE66A00CAE6FF01CAE6FF1A
:101570001AEC78F0D3EC74F0E66AE66A700EE66E68
:10158000420E96EC16F010EC18F0E66AF00EE66EDD
:10159000D20EE66E460EE66E96EC19F033EC18F0BD
:1015A00086EC73F096EC19F054EC75F0E552E5CF4B
:1015B0007DFAE7CF7CFA0A017D3509E27C51A0086B
:1015C000050E7D5504E2A00E7C6F050E7D6F0001B7
:1015D0007DA907D07D99EAEC19F003D00A010F0E1E
:1015E000066F47EC19F018CA63F019CA66F01ED0EE
:1015F0000A0111A91BD0119711990A0115990A0125
:10160000026B640E0A01185D03E10A01040E02D0A8
:101610000A01150E066F0A01036B47EC19F0000171
:10162000786B796B7A6B7B6BEAEC19F000017D517A
:10163000400B05E07D51800B02E1F7EC06F0000164
:101640007D51040B04E07D51080B01E116DC49E9F2
:10165000E7CFD9FF12000B01BD51000846E20F0190
:1016600040B7FDD745EC4AF00F01406B070E000173
:10167000FB150501CE6FCF6B050ECEC5CCF5CFC5E2
:10168000CDF5000A06E00501D890CC37CD37E80447
:10169000FBE1CCC542FF0501030ECE6FCE51FBC06E
:1016A000CCF5FCC0CDF506E00501D890CD33CC33A8
:1016B000E804FBE1CCC541FFF2C046FFF3C047FFA1
:1016C000F4C048FFF5C049FFF6C04AFFF7C04BFF22
:1016D000F8C04CFFF9C04DFF0F01080E456F000127
:1016E000FA690F01406F40B7FED71200D9CFE6FF6D
:1016F000E1CFD9FF8BE941E808EBFBF009EBFCF007
:1017000007EBF2F006EBF3F005EBF4F004EBF5F089
:1017100003EBF6F002EBF7F001EBF8F000EBF9F079
:101720009ADF0400C80E0B6E45EC4AF0FF0E000174
:10173000FA5D02E10B06F8E10B500CE0400E0624C6
:101740000001F35D03E1010E0AD003D00001020E97
:10175000FA6F03D00001010EFA6F000E00D042E9CB
:10176000E7CFD9FF120040EC16F084E9D8EC19F06D
:10177000E66AE66A00EBE6FF100EE66E020E6AEC21
:1017800017F0B4DF4AE9BBEF17F040EC16F084E93C
:101790000001F1A128D021EC19F052EC00F042E94F
:1017A000000921E0030EE66E710EE66E070EE66E8E
:1017B000DADF43E9000917E0D8EC19F0030EE66E12
:1017C000025002E0100E01D0110EE66EBC0EE66E65
:1017D0002F0EE66E040EE66E710EE66E070EE66ED6
:1017E00085DF4AE901D0000EBBEF17F044EC19F099
:1017F000BCB50CD00450051003E06BEC16F008E10A
:1018000024EC16F003E06BEC16F002E1000E87D139
:10181000065002E0B3EC16F097EC17F00050011000
:1018200001E1C5D00AEC17F0430801E0C0D0ACECF0
:1018300019F00001F051E66EE66A9F0EE66EE60EC4
:10184000E66E000EA8EC15F000016451E66EE66A43
:10185000960EE66EE60EE66E000EA8EC15F067EC4E
:101860001AF067C0CCF568C0CDF50501E80ECD03D0
:10187000F3CFCDF5030ECC03F350CD27E80ECC0308
:10188000F450CD27CDC5CCF5CD6B23EC1AF0E66A2C
:10189000E66A8D0EE66EE60EE66E000EA1EC15F021
:1018A000000164EC16F00A0DF350E66EE66A810E54
:1018B000E66EE60EE66E000EA8EC15F0000164EC94
:1018C00016F0000906E17E0EE66EE60EE66E000EEC
:1018D00059D064EC16F0010806E1790EE66EE60ECA
:1018E000E66E000E4FD064EC16F0020806E1730EAF
:1018F000E66EE60EE66E000E45D064EC16F00308C8
:1019000006E16D0EE66EE60EE66E000E3BD064EC70
:1019100016F0040806E1670EE66EE60EE66E000EAF
:1019200031D064EC16F0050806E1610EE66EE60EB5
:10193000E66E000E27D064EC16F0060806E15B0E9A
:10194000E66EE60EE66E000E1DD064EC16F007089B
:1019500006E1550EE66EE60EE66E000E13D064EC60
:1019600016F0080806E14F0EE66EE60EE66E000E73
:1019700009D064EC16F0090807E1490EE66EE60EA0
:10198000E66E000EABEC15F00001D751E66EE66A8C
:10199000390EE66EE60EE66E000EA8EC15F0360E79
:1019A000E66EE60EE66E000EABEC15F0B5D0ACECD4
:1019B00019F00001FD51E66EE66A2E0EE66EE60EA7
:1019C000E66E000EA8EC15F00A011751E66EE66A05
:1019D000260EE66EE60EE66E000EA8EC15F000018F
:1019E0006151400B01E0010EE66EE66A1D0EE66EE7
:1019F000E60EE66E000EA8EC15F00001F151E66E61
:101A0000E66A150EE66EE60EE66E000EA8EC15F020
:101A100063EC1AF069C0E6FFD8EC19F00E0EE66E22
:101A2000E60EE66E000E19EC1AF06CCAE6FFD8EC72
:101A300019F0070EE66EE60EE66E000EA1EC15F04C
:101A400000016251080B01E0010EE66EE66A000E2D
:101A5000E66EE60EE66E000EA8EC15F0FBC0E6FFA3
:101A6000FCC0E6FFF70EE66EE50EE66E000E1DEC1E
:101A70001AF0DBEC50F047E92CEC1AF00001FA51B7
:101A800006E1F30EE66EE50EE66E000E1FD0FF0EC9
:101A9000FA5D06E1ED0EE66EE50EE66E000E16D07E
:101AA000FA0506E1E90EE66EE50EE66E000E0ED0D2
:101AB000020EFA5D06E1E40EE66EE50EE66E000E3D
:101AC00005D0DE0EE66EE50EE66E000EABEC15F010
:101AD000B80EE66EE60EE66E000E10EC1AF0080E7A
:101AE000D8900BBE03D00A5C000E0B5815E2F20E24
:101AF0000A24E96E000E0B20EA6EEFCFE6FF0EEC33
:101B000019F01DEC1AF009EC51F046E92CEC1AF032
:101B10000A2A000E0B22E3D75CEC16F0010E6DEFE3
:101B200017F044EC19F0BCB50CD00450051003E0DC
:101B30006BEC16F008E124EC16F003E06BEC16F009
:101B400002E1000ED8D0065002E0B3EC16F097EC9C
:101B500017F0010E8DEC18F0E66AE66AD50EE66E17
:101B6000E50EE66E000E19EC1AF090C0CCF591C0AF
:101B7000CDF50501CE6BCF6BCDAF02D0CE69CF696D
:101B8000D5EC18F0D20EE66EE50EE66E000E28ECEF
:101B90001AF092C0E6FF93C0E6FFE66AE66ACD0E51
:101BA000E66EE50EE66E000E28EC1AF094C0CCF559
:101BB00094EC18F004E00501F3EC16F0FDE1D5EC2F
:101BC00018F0C80EE66EE50EE66E000EA1EC15F0FC
:101BD0000001955150EC19F067EC1AF096C0CCF565
:101BE00094EC18F004E00501F3EC16F0FDE1D5ECFF
:101BF00018F00EEC19F0A1EC15F00001975150EC23
:101C000019F063EC1AF098C0E6FF99C0E6FF9AC09D
:101C1000E6FF9BC0E6FFC10EE66EE50EE66E000E27
:101C200019EC1AF0A0C0E6FFA1C0E6FFA2C0E6FFD3
:101C3000A3C0E6FFB3EC19F063EC1AF09CC0E6FF1A
:101C40009DC0E6FF9EC0E6FF9FC0E6FFB60EE66EB3
:101C5000E50EE66E000E3AEC19F0B3EC19F0A8C0F0
:101C6000CCF5EFEC19F004E00501F3EC16F0FDE122
:101C7000A9C0D0F59AEC19F0080E1F0B04E005017D
:101C8000B8EC16F0FDE162EC19F0AAC0D4F531EC25
:101C90001AF0AF0EE66EE50EE66E000E1DEC1AF0C1
:101CA00071EC50F049E92CEC1AF063EC1AF0D0C05A
:101CB000E6FFD1C0E6FFE66AE66AA90EE66EE50E2B
:101CC000E66E000EA1EC15F00001D25159EC19F0AE
:101CD00063EC1AF0D3C0E6FFD4C0E6FFE66AE66A1A
:101CE0000EEC19F0A1EC15F00001D55159EC19F0EA
:101CF0005CEC16F0010E6DEF17F044EC19F0BCB57A
:101D00000CD00450051003E06BEC16F008E124EC55
:101D100016F003E06BEC16F002E1000EB8D00650AE
:101D200002E0B3EC16F097EC17F0920EE66EE50EBB
:101D3000E66E000E10EC1AF0080ED8900BBE03D021
:101D40000A5C000E0B5848E205010A28CC6F000E11
:101D50000B20CD6FCCC5E6FFE66E900EE66EE50E6D
:101D6000E66E000EA8EC15F0860E0A24E96E000E51
:101D70000B20EA6EEF50E66EE66A8E0EE66EE50E1A
:101D8000E66E000EA8EC15F0040EE66EE66A05019C
:101D90000A28D16F000E0B20D26FD1C5E6FFE66E88
:101DA000F5EC75F0E552E5CFD0F5E7CFCFF50501BD
:101DB000CF51D01106E08B0ECC6FE50ECD6F000E2B
:101DC00005D0880ECC6FE50ECD6F000EBAEC19F081
:101DD0000A2A000E0B22B0D70001CD51E66EE66A4A
:101DE000840EE66EE50EE66E000EA8EC15F000011E
:101DF000CB51E66EE66A7E0EE66EE50EE66E000EEE
:101E0000A8EC15F00001CC51E66EE66A750EE66EA0
:101E1000E50EE66E000EA8EC15F00001CE51E66E60
:101E2000E66A6C0EE66EE50EE66E000EA8EC15F0A6
:101E30000001CF51E66EE66A670EE66EE50EE66ECD
:101E4000000EA8EC15F047CAE6FF48CAE6FF5F0E91
:101E5000E66EE50EE66E000EA8EC15F045CAE6FF4C
:101E600046CAE6FF570EE66EE50EE66E000EA8ECDB
:101E700015F00001D651E66EE66A500EE66EE50EEC
:101E8000E66E000EA8EC15F05CEC16F0010E6DEF9E
:101E900017F044EC19F0BCB50CD00450051003E069
:101EA0006BEC16F008E124EC16F003E06BEC16F096
:101EB00002E1000E80D0065002E0B3EC16F097EC81
:101EC00017F04B0EE66EE50EE66E000E10EC1AF003
:101ED000040ED8900BBE03D00A5C000E0B5868E2CB
:101EE0000AEBE9FF0BEBEAFFD890E936EA36D89027
:101EF000E936EA36D80EE926000EEA22EECFE6FFF2
:101F0000EECFE6FFEECFE6FFEECFE6FF470EE66E42
:101F1000E50EE66E000E1DEC1AF0F6EC50F049E905
:101F20002CEC1AF067EC1AF0190E45EC1AF0EC0ED6
:101F30000A24E96E000E0B20EA6EEFCFE6FFE66A98
:101F400060EC18F00EEC19F00AEC19F0E66AE80EF5
:101F50000A24E96E000E0B20EA6EEFCFD0F59AEC62
:101F600019F0D0AF03D0D169D269D36930EC17F042
:101F7000AEEC78F000EC17F07C0E0501CC5F150E8E
:101F8000CD5B000ECE5BCF5BD5EC18F0420EE66E5B
:101F9000E50EE66E000EA1EC15F0400EE66EE50EC5
:101FA000E66E000EABEC15F00A2A000E0B2290D75D
:101FB0005CEC16F0010E6DEF17F0DCEC19F052E856
:101FC000065002E0B3EC16F097EC17F0740EE96ED1
:101FD000000E71EC16F0CC51166ECD51176ECE512D
:101FE000186ECF51196E700EE96E000EEA6EEE504B
:101FF0000001A45D0501CC6FEE500001A55905015B
:10200000CD6FEE500001A6590501CE6FEE500001D4
:10201000A7590501CF6FCC510E6ECD510F6ECE5129
:10202000106ECF51116E0EEBD0F50FEBD1F510EB1A
:10203000D2F511EBD3F5D950160FE96EDACFEAFFDE
:10204000EE50D05DCC6FEE50D159CD6FEE50D259DD
:10205000CE6FEE50D359CF6FCC510A6ECD510B6E6F
:10206000CE510C6ECF510D6E6AC0D0F5D16BD26BD4
:10207000D36B100E1F0B04E00501B8EC16F0FDE168
:102080008EEC17F004E005014BEC17F0FDE145EC98
:1020900016F06DC0DCF5DD6BDE6BDF6B100E1F0B19
:1020A00008E00501D890DC37DD37DE37DF37E8069A
:1020B000F9E16EC0E0F50501E16BE26BE36B080E40
:1020C0001F0B04E00501AFEC17F0FDE10501E05145
:1020D000DC13E151DD13E251DE13E351DF136FC076
:1020E000E4F5E56BE66BE76BE451DC13E551DD13DA
:1020F000E651DE13E751DF13DC51D05DCC6FDD51CB
:10210000D159CD6FDE51D259CE6FDF51D359CF6F38
:1021100039EC18F04D0E00010F5D76E112501310EE
:10212000141015102BE00001745175117611771100
:1021300025E0705171117211731120E087EC16F0D7
:1021400051EC4BF0F7EC18F0050139EC18F0D8EC35
:1021500018F0360EE66EE50EE66E000E14EC19F081
:102160002B0EE66EE50EE66E000EBEEC19F01F0EAD
:10217000E66EE50EE66E000EB4EC18F067EC1AF0B1
:10218000640E45EC1AF042EC18F004E00501B8ECDE
:1021900016F0FDE18EEC17F004E005014BEC17F0B2
:1021A000FDE145EC16F030EC17F0D4EC76F088EC5D
:1021B00019F06CEC19F048EC1AF036EC16F042EC21
:1021C00018F004E00501B8EC16F0FDE18EEC17F014
:1021D00004E005014BEC17F0FDE145EC16F030ECA6
:1021E00017F088EC19F076EC76F076EC76F02B0EA2
:1021F000E66EE50EE66E000E3AEC19F0F40EE66EB1
:10220000E40EE66E000E79D0125013101410151063
:1022100022E0000174517511761177111CE07051A4
:1022200071117211731117E0D8EC18F0EC0EE66E14
:10223000E40EE66E000E14EC19F0E10EE66EE40E0C
:10224000E66E000EBEEC19F0D50EE66EE40EE66EFC
:10225000000EB4EC18F063EC1AF026EC17F004E072
:102260000501F3EC16F0FDE12AEC17F004E005019E
:10227000B8EC16F0FDE1AFEC15F048EC1AF0E66AA8
:1022800026EC17F004E00501F3EC16F0FDE12AEC72
:1022900017F004E00501B8EC16F0FDE1AFEC15F025
:1022A000D4EC76F06CEC19F0EC0EE66EE40EE66E13
:1022B000000E0AEC19F036EC16F0D4EC76F026ECB1
:1022C00017F004E00501F3EC16F0FDE12AEC17F03D
:1022D00004E00501B8EC16F0FDE1AFEC15F076EC8A
:1022E00076F0E10EE66EE40EE66E000E3AEC19F0C2
:1022F000D50EE66EE40EE66E000EA1EC15F0F00EC3
:10230000E66EE40EE66E000EABEC15F05CEC16F03B
:10231000010E53E9E7CFD9FF1200DCEC19F00B01F5
:10232000BCB50CD00450051003E06BEC16F008E1CE
:1023300024EC16F003E06BEC16F002E1000E1CD06A
:102340000050011018E09BEC18F0300E0501CC5D38
:1023500012E30AEC17F033080EE30AEC17F0D00F83
:102360000001030BF36EFC0E7D15F3107D6F7D9560
:102370007D97010E01D0000EBBEF17F044EC19F071
:10238000BCB50CD00450051003E06BEC16F008E16E
:1023900024EC16F003E06BEC16F002E1000E1DD009
:1023A000065002E0B3EC16F097EC17F00050011065
:1023B00007E00AEC17F004E06CEC18F0F3CFBAFB7E
:1023C000B1EC06F0E66EE66ACB0EE66EE40EE66E63
:1023D000000EBEDB5CEC16F0010E6DEF17F0DCECCE
:1023E00019F04CE80B01BCB50CD00450051003E00B
:1023F0006BEC16F008E124EC16F003E06BEC16F041
:1024000002E1000E50D1065002E0B3EC16F097EC5A
:1024100017F00250031058E0020E90EC19F0EF5044
:102420003F0852E0106A116A126A136A0B01B86B16
:10243000B96B0050011038E00AEC17F035E06CEC95
:1024400018F0F3500C6EF4500D6E21EC19F09AEC6C
:1024500095F042E9F3CFCCF5F4CFCDF50501CC07EB
:10246000000ECD5BCC510024E96ECD510120EA6E07
:10247000EF500E6E250E0E5C07E180EB10F081EB45
:1024800011F00CEBB8FB06D080EB12F081EB13F0EF
:102490000CEBB9FB21EC19F0CAEC4FF042E9F35018
:1024A000006EF450016EC5D7ABEC18F01A0EE66E54
:1024B0002FEC9CF043E912EBE6FF13EBE6FF1B0E5B
:1024C000E66E2FEC9CF043E9BC0EE66EE40EE66E81
:1024D000000EE66E000EE66E070EE66EC1EC19F019
:1024E0000B01B85108E1B95106E1B80EE66EE40EF1
:1024F000E66E000E67D0B851000808E2B85145EC0E
:102500001AF0E66A01EC19F0C6EC19F00B01B951AA
:1025100000082BE2B951E66EE66AB851000808E2FD
:102520000501B10ECC6FE40ECD6F000ECE6F04D05E
:102530000501CC6BCD6BCE6B23EC1AF0CEC5E6FF5C
:1025400001EC19F04D0E00010F5D07E10501AD0E24
:10255000CC6FE40ECD6F000E06D00501A90ECC6F36
:10256000E40ECD6F000EBAEC19F00A017F350FE2D0
:102570000A01813581510A017F1908E60A0180515B
:102580000A017E5D0A0181510A017F5902E3000EB2
:1025900001D0010E000905E07ECACCF57FCACDF559
:1025A00004D080CACCF581CACDF523EC1AF0A00E78
:1025B000E66EE40EE66E000ECBDA9A0EE66EE40EE0
:1025C000E66E000EC8DA7CCAE6FF7DCAE6FF8A0E18
:1025D000E66EE40EE66E000EBBDA830EE66EE40EE7
:1025E000E66E000EB8DA0A0111A520D00A010651E4
:1025F000040A16E0060A0EE0030A06E0450EE66E3F
:10260000E40EE66E000E17D07A0EE66EE40EE66E6D
:10261000000E11D0640EE66EE40EE66E000E0BD0D6
:10262000560EE66EE40EE66E000E05D0380EE66E2F
:10263000E40EE66E000E8FDA4D0E00010F5D0EE126
:102640001BCAE6FF1CCAE6FF2FEC19F0CDEC19F00F
:10265000AD0EE66EE40EE66E000E11D01BCAE6FF6C
:102660001CCAE6FFF6EC19F02FEC19F0F6EC19F0A5
:10267000CDEC19F0A90EE66EE40EE66E000E6BDAF4
:1026800063EC1AF00A0E0A011803F3CFE6FFD8EC48
:1026900019F0220EE66EE40EE66E000E52DAC6EC7B
:1026A00019F00ADB010E4DE9E7CFD9FF1200DCEC8F
:1026B00019F00B01BCA502D0000E41D00050011052
:1026C0003DE0A8DB3BE09BEC18F0410E0501CC5D42
:1026D00004E3A0DBBF0F0A0F02D09CDBD00F000188
:1026E0007E6F0028A4EC17F0EFCFCCF5410E05016A
:1026F000CC5D07E30028A4EC17F0EF50BF0F0A0FE2
:1027000005D00028A4EC17F0EF50D00F100DF3CF38
:102710007FF015EC1AF0EFCFCCF5410ECC5D06E35F
:1027200015EC1AF0EF50BF0F0A0F04D015EC1AF099
:10273000EF50D00F00017F277D9D7D9F010EBBEFE5
:1027400017F0DCEC19F041E8086AEDEC18F008EB42
:10275000E6FFE66AE66A0BDAF55018E026EC19F0B7
:1027600008EBE6FFFCEC19F00FE0085026DB06EB67
:10277000E6FF51EC18F0086E065004E0085002E045
:10278000E8EC56F0085003D0082ADFD7000E42E9E3
:10279000E7CFD9FF120074DA87E941E8076AEDEC68
:1027A00018F002EC1AF0F55034E026EC19F007EBC3
:1027B000E6FFFCEC19F02BE0200EE66E21EC19F0A0
:1027C0008EEC4FF043E9F350006EF450016ED9CF18
:1027D000E6FFDACFE6FF5EEC1AF0EDEC18F002EC63
:1027E0001AF0F5CFE6FFB6EC5DF045E9000902E12D
:1027F000000E10D00750E1DA010EE66E51EC18F031
:10280000076E075002E0E8EC56F0075003D0072AA5
:10281000C6D7000E42E9E7CFD9FF1200DCEC19F071
:1028200042E80B01BCA502D0000E3CD01C0EE66EA7
:10283000E40EE66E000EE66E76EC1CF043E9086AE4
:10284000096AEDEC18F008EBD2F509EBD3F5D46B7F
:10285000D3BFD469D2C5E6FFD3C5E6FFD4C5E6FF32
:1028600086D9F5501EE00EEC19F0E66E76EC1CF001
:1028700043E9050126EC19F008EBD5F509EBD6F58F
:10288000D76BD6BFD769D5C5E6FFD6C5E6FFD7C596
:10289000E6FF8CD976EC1CF043E9082A000E0922E9
:1028A000D0D7010EA2EF18F0EBD986E902EBF3FFC7
:1028B00003EBF4FF180EF31801E1F4502EE0150EAF
:1028C000F31801E1F45029E0170EF31801E1F45078
:1028D00024E0160EF31801E1F45015E0140EF3187D
:1028E00001E1F45006E0060EF31819E1F45017E187
:1028F00014D021EC19F0010EE66EC5EC0BF043E9A3
:10290000000909E10AD021EC19F0E66AC5EC0BF0E8
:1029100043E9000902E0010E03D0000E01D0000ED1
:102920002AD30B014B0E856F530E866F876B886B16
:10293000896B0001606B619F619961916193619DF9
:10294000619762970A01640E186F0001636F646FEC
:102950000A017A0E6D6F0001696B656B666B676BC0
:10296000686B0A01176B030EE1D96A0EE66E000E62
:1029700086DA030EDBD96D0EE66E000E80DA080EE5
:10298000D5D97E0EE66E000E7ADA0001FD6B080ED8
:10299000CDD9860EE66E000E72DA00018E6B8F6B5B
:1029A000906B916B926B936B946B956B966B976B33
:1029B000986B996B9A6B9B6B9C6B9D6B9E6B9F6BE3
:1029C000A06BA16BA26BA36BA46BA56BA66BA76B93
:1029D000030EACD9A80EE66E000E51DA200EA6D971
:1029E000AB0EE66E000E4BDA0001CB6BCC6BCD6B01
:1029F000CE6BCF6BD06BD16BD26BD36BD46BD56BF3
:102A0000D66B7C917C937C997C9B7C9D7C9FD76BC7
:102A10007D997D917D937D857D87F06BF16B0A01BA
:102A2000316B326B100E82D9D80EE66E000E27DAAB
:102A3000040E7CD9EC0EE66E000E21DA040E76D977
:102A4000E80EE66E000E1BDA0001FB6BFC6BFA6B06
:102A5000080E6CD9F20EE66E000E11DA900E6F6E53
:102A60006EAEFED7606A0F01196BF10E186F016B25
:102A7000006F056BE00E046F506B1D6BC00E1C6F7A
:102A8000096B086F0D6B400E0C6F116B800E106F91
:102A9000156B146B010E706ED20E716E020E726E9B
:102AA000200E736E6F6A0B01BD81BC8B00010E0E90
:102AB000106F3F0E116F010E126F0001130E136F96
:102AC0003F0E146F010E156F0001FE0E196F000E00
:102AD0001A6F000E1B6F0001EA0E1C6F090E1D6FAE
:102AE000000E1E6F0001080E1F6F0F0E206F000EEC
:102AF000216F0001420E3A6F270E3B6F000E3C6FB4
:102B00000001960E3D6F270E3E6F000E3F6F0001D5
:102B1000A80E376F280E386F000E396F1D0EE66E47
:102B20003F0EE66E010EE66EA4EC79F043E9E66A2C
:102B3000B1EC79F041E90601EE81EE83EE85EE8796
:102B4000010C1DEC1AF062EC51F04BE92CEF1AF07D
:102B5000E66E01EF19F01DEC1AF0C1EF19F0B2DBCF
:102B60006CC0D4F531EF1AF00B0176EF19F04EEC92
:102B700078F0E552E5CFD1F5E5CFD0F5E7CFCFF549
:102B80000501CC51CF25F36ECD51D021F46ECE513D
:102B9000D121F86EF4CFF7FFF3CFF6FF0800120053
:102BA000AEDB045005100610071012004EEC78F052
:102BB000E552E5CFD4F5E5CFD3F5E7CFD2F5050162
:102BC000CF51D225CC6FD051D321CD6FD151D4214B
:102BD000CE6FCC2B000ECD23CE2323EC1AF0CEC526
:102BE000E6FF1200DF51D713E051D813E151D9139A
:102BF000E251DA1312000501E451E013E551E1134B
:102C0000E651E213E751E3136FC0E8F5E96BEA6BB5
:102C1000EB6BE851E013E951E113EA51E213EB5198
:102C2000E313E051D45DD06FE151D559D16FE2513A
:102C3000D659D26FE351D759D36F3EEC1AF0FAC789
:102C400059FAFBC75AFA1200E66A1AEC9CF041E9FD
:102C5000F350046EF450056E045005101200D89025
:102C6000DB37DC37DD37DE37E8061200E66AA4C062
:102C7000E6FFA5C0E6FFA6C0E6FFA7C0E6FF12007C
:102C8000D9CFE6FFE1CFD9FF12000501D451D0130F
:102C9000D551D113D651D213D751D3136CC0D8F517
:102CA000D96BDA6BDB6BD851D013D951D113DA5110
:102CB000D213DB51D3131200000EE66E070EE66E40
:102CC00002EC1DF042E912007C51F00BE842E842B0
:102CD000E842E842120004EBE9FF05EBEAFFEF509F
:102CE0001200EA6EEE500001A05D0501CC6FEE50BF
:102CF0000001A1590501CD6FEE500001A259050157
:102D0000CE6FEE500001A3590501CF6F120012EBF8
:102D1000E6FF13EBE6FF14EBE6FF15EBE6FF120010
:102D200066DAFAC7E6FFFBC7E6FF1200E66EE66A60
:102D3000E66A1200D890DF37E037E137E237E8067D
:102D40001200E351D713E451D813E551D913E651DA
:102D5000DA1312000AEBE6FF0BEBE6FF0CEBE6FFE3
:102D60000DEBE6FF1200AADB53EC56F042E912002D
:102D7000D890D037D137D237D337E80612000501C3
:102D8000D851D413D951D513DA51D613DB51D713F7
:102D90006CC0DCF5DD6BDE6BDF6BDC51D413DD5119
:102DA000D513DE51D613DF51D7136DC0E0F5E16BBB
:102DB000E26BE36B100E1F0B1200030DF3CFE9FF64
:102DC000F4CFEAFFC80EE926080EEA22EECFCCF5D2
:102DD000EECFCDF5EFCFCEF534DA02EBE6FF4FDAEA
:102DE00005EBE6FF1200D890CC37CD37CE37CF3782
:102DF000E8061200E66EE66AC8EC1DF042E9120031
:102E0000E552E5CFCFF5E5CFCEF5E5CFCDF5E7CF70
:102E1000CCF5120000EBE9FF01EBEAFFEF501200E6
:102E200000010551F36EF46AF3500001565D0B0189
:102E3000D76FF450000157590B01D86F030ED75DBF
:102E4000026E000ED859036E016A12006AC0CCF5FA
:102E5000EFEF19F06BC0D0F56DDA080E1F0B120002
:102E6000DADAD2C5E6FFD3C5E6FF1200F4EC74F05F
:102E70005DDA97EF75F098DA080E1F0B1200E66E18
:102E8000D2EC94F045E91200D890E337E437E53707
:102E9000E637E8061200D890D437D537D637D7377B
:102EA000E806120081E944E8E66A1AEC9CF041E980
:102EB000F3CFE6FFF4CFE6FF53EC56F042E9000E05
:102EC000016E070E026E1200E06BE16BE26B100EFA
:102ED0001F0B1200E66E54EF1AF045E9E7CFD9FF59
:102EE00012000150EA6A060FE96E000EEA22EF5066
:102EF000E66E015090EF19F004EBD7FB05EBD8FB21
:102F000006EBD9FB07EBDAFB120001500008000EBC
:102F10000254000E0354000E045412006BC0D4F58A
:102F20000501D56BD66BD76B080E1F0B1200000E78
:102F3000086E070E096E1200F350016EF450026E17
:102F4000032A000E04221200E96E000E0120EA6E30
:102F50001200E46BE56BE66B180E1F0B1200D890A5
:102F6000E037E137E237E337E80612000B01D86BB0
:102F7000D96BDA6B120041E9E7CFD9FF120031CAF1
:102F8000CEF532CACFF5140ED880CE57000ECF57EB
:102F9000120006EC50F045E9F350016EF450026E59
:102FA000036A046A120004EBDCF005EBDDF006EBCB
:102FB000DEF007EBDFF0120004EBE0F005EBE1F0F0
:102FC00006EBE2F007EBE3F01200DA6B0CC0DBFB80
:102FD000EBD9180E1F0B120004EBE4F005EBE5F043
:102FE00006EBE6F007EBE7F0120007C0D8FB0B0199
:102FF000D76B000108510B01D7111200D7CB98F005
:10300000D8CB99F0D9CB9AF0DACB9BF01200D7CB82
:10301000A0F0D8CBA1F0D9CBA2F0DACBA3F012006C
:10302000C80EE66E420EE66E18CAE6FFB6EF74F002
:103030006AC0D4F50501D56BD66BD76B100E1F0B8C
:1030400012006BC0D8F50501D96BDA6BDB6B080E8B
:103050001F0B12006EC0E4F50501E56BE66BE76B34
:10306000080E1F0B12002ADA06EBE6FF07EBE6FF5D
:103070001200CC51126ECD51136ECE51146ECF5141
:10308000156E12006AC0D0F555D9100E1F0B120034
:1030900002EBE6FF03EBE6FF6EEC4FF045E90009BB
:1030A0001200CEC5FBFFCDC5FAFF0501CC511400BF
:1030B00047E91200E552E5CFCDF5E7CFCCF5120098
:1030C000E66AE66AAEEF78F001500B010224D76F92
:1030D000000E0320D86F1200B4D8F4EC89F042E956
:1030E0001200D890DA33D933D833D733E806120038
:1030F0007E0E0324E96E000E0420EA6E1200D890C2
:10310000D837D937DA37DB37E8061200D890E437FA
:10311000E537E637E737E8061200E66EE66A8EC066
:10312000E6FF8FC0E6FF12000501CD6BCE6BCF6BC3
:10313000010E1F0B120000EBE9FF01EBEAFFEFCFDE
:10314000CCF5120043E9E7CFD9FF1200EA22E5529D
:10315000E750EF6E120010EBE6FF11EBE6FF1200F6
:1031600088E944E80B01120064D916EBE6FF17EB7F
:10317000E6FF18EBE6FF19EBE6FF160EE66EE50E2E
:10318000E66E000E56D90EEBE6FF0FEBE6FFE3DF2F
:103190000D0EE66EE50EE66E000ED3DC070EE66E53
:1031A000E50EE66E000EABEF15F04DD959EF1AF0B3
:1031B0008AD9ADDD3A0EE66EE50EE66E000E48D910
:1031C000A6DDF4EC74F0E66A400EE66E1C0EE66EC8
:1031D000460EE66EBFDD36EF17F00501AC0ECC6F84
:1031E0003F0ECD6F010ECE6F100E96EF16F044E934
:1031F000FAC7CCF5FBC7CDF5FCC7CEF5FDC7CFF5BB
:10320000120008EBE6FF09EBE6FF58EC50F047E947
:103210002CEF1AF01DD9640E96EF16F0B60EE66E7E
:10322000E60EE66E000E120013D994DDF4EC74F095
:10323000E66AE66AC80EE66E420EE66E68DD36EFB6
:1032400017F000EBE6FF01EBE6FF1200AC0ECF6FCC
:103250003F0ED06F010ED16F100E96EF16F02E0EAE
:10326000E66EE40EE66E000E73DC19CAE6FF1ACABB
:10327000E6FF120066DC010EE66E36EF16F003EB99
:10328000E6FF04EBE6FF1200FBDCB0EF18F0780E6F
:10329000E96E000E26DDCCC50AFACDC50BFA120088
:1032A000E66EE66AC50EE66EE50EE66E000EA8EF67
:1032B00015F0E66EE66AA60EE66EE50EE66E000E08
:1032C000A8EF15F00501D051CC13D151CD13D25137
:1032D000CE13D351CF131200640E28DDC7DCAEEC41
:1032E00078F076EF76F00B01F2EF15F0DB51D713A3
:1032F000DC51D813DD51D913DE51DA131200D75146
:10330000046ED851056ED951066EDA51076E12005F
:1033100051EC4BF005DDFCC7E6FFFDC7E6FF1200F0
:103320000224E96E000E0320EA6E1200FFEC78F032
:103330001AEF77F00501D16BD26BD36B120014DC5E
:1033400007C0DFFBE06BE16BE26B1200C3DD58EC02
:1033500050F047E99CEF17F0A70EE66EE60EE66E1A
:10336000000EABEF15F0BD0EE66EE50EE66E000E3C
:10337000A1EF15F0CE6F67D8ABEF15F05AD8AAEFD2
:1033800016F006EC50F045E92CEF1AF0B60EE66E9A
:10339000E40EE66E000EABEF15F02A0EE66EE40EBC
:1033A000E66E000EA8EF15F0DC6BDD6BDE6B120035
:1033B000E66AE66AE66A120063DC88E91200D6DD96
:1033C0000CC0DBFB3BEF17F0B4EC15F00BC0DFFBE0
:1033D00064EF17F0040E0EDD020EFAEF16F0050191
:1033E000CD6BCE6BCF6B100E1F0B1200E66AE66A38
:1033F00027EC4BF090EF16F0E66AE66AD6EC15F093
:1034000048EF18F007EBE6FFE66AE66AB7EF15F05B
:1034100098DCD0EF15F0D0C5E6FFD1C5E6FF12006D
:10342000ABEC15F00A6A0B6A1200020E0024A4EF3E
:1034300017F0A1EC15F063EF1AF0E66E08EBE6FF6B
:1034400009EBE6FF1200CCC5E6FFCDC5E6FF120092
:10345000A1EC15F067EF1AF0F350086EF450096E06
:103460001200D56BD66BD76BD451CC13D551CD137D
:10347000D651CE13D751CF13D5EF18F0CCDFE66A73
:10348000E66A51EC4BF0F7EF18F050DCE66A1200F8
:10349000020EE66EE50EE66E000E0AEF19F023DF6F
:1034A0000AC0E3FBA9EF17F001EBE6FF02EBE6FF32
:1034B0001200CEC5E6FFCFC5E6FF120004EBE6FF23
:1034C00005EBE6FF1200010EE66EE66A1200020E40
:0634D000E66EE66A120040
:0A34D600D8CFE4FFE0CFE4FFE46E7E
:1034E000DACFE4FFE2CFDAFFE9CFE4FFEACFE4FF8F
:1034F000D9CFE4FFDACFE4FFFAC7E4FFFBC7E4FF6C
:10350000FCC7E4FFFDC7E4FFF6CFE4FFF7CFE4FF1D
:10351000F8CFE4FFF5CFE4FFF3CFE4FFF4CFE4FF0F
:10352000FACFE4FFFBCFE4FFE6523EEC9EF012EC54
:103530009DF0E552E5CFFBFFE5CFFAFFE5CFF4FFC5
:10354000E5CFF3FFE5CFF5FFE5CFF8FFE5CFF7FFD8
:10355000E5CFF6FFE5CFFDF7E5CFFCF7E5CFFBF7CD
:10356000E5CFFAF7E5CFDAFFE5CFD9FFE5CFEAFF00
:10357000E5CFE9FFE5CFDAFFE550E5CFE0FFE5CFA6
:10358000D8FF10000901009B12002DEC2AF083E9FE
:103590000050011003E037EC2AF010E1E66A3AEC43
:1035A0002AF0DAEC2AF060EC95F044E90501D60E39
:1035B000CC6F060ECCC5F3FFF46E04D000EBF3FF26
:1035C00001EBF4FF2BEF2BF01AEC2CF041E80B0190
:1035D000BFBF03D00B01300EC06FD950010FE66E94
:1035E000DACFE6FF0DEC9EF042E9000901E118D1C7
:1035F0005EEC2BF001E0C3D0C85103E07F0EC85D44
:1036000021E10A0E015CE9E00D0E015C03E10A0E06
:10361000016E18D0080E015C07E1EA510008DDE2F6
:10362000EA07EEEC2BF0D9D7010403E0030E015CAE
:1036300009E1EA6B4F0EE66ED90EE66E000E32EC33
:103640002AF0CBD70D0E015CC8E0E8EC2BF0D3ECF0
:103650002AF004E1CD5102E10601EA073A0E015CCD
:103660002AE1060E0601EA5D26E362EC2BF023E177
:10367000490E015D20E1500E025D1DE1440E035D27
:103680001AE109010051100B16E10B01BFBF03D075
:103690000B01310EC06F0601EA051CEC2AF0EF6A3F
:1036A000050EE66E080EE66E6EEC2BF03C0EED6F2E
:1036B000EA6BFD0E62D00A0E015C8FE10B01BFBF09
:1036C00003D00B01320EC06F0601EA07EEEC2BF0BF
:1036D000040EEA5D01E27BD062EC2BF001E077D0D2
:1036E000430E015D74E14D0E025D71E1540E035D08
:1036F0006EE109010051100B6AE1070E016E0150E5
:103700001CEC2AF0EF50220806E00601EA51015CA9
:1037100002E2012AF4D701501CEC2AF0EF6A140EE1
:10372000E66EE66A070EE66E080EE66EDAEC2AF042
:10373000F8EC95F046E90601E96BEA51016E01509B
:103740001CEC2AF0EF502C0804E0015002E00106C6
:10375000F6D701500501CD6B000FCC6F080ECD23BD
:10376000CC2B000ECD23CCC5E6FFCDC5E6FF6EEC1D
:103770002BF00A0EED6FEA6BFE0EEB6F2ED7FE0EEE
:10378000EB5D29E10B01BFBF03D00B01330EC06F0E
:103790000D0E015C03E00A0E015C08E10601EA512E
:1037A000EA2B1CEC2AF0200EEF6E03D00601E8ECA9
:1037B0002BF0D3EC2AF004E1CD5102E10601EA0737
:1037C0000601EC07EC5101E008D7EEEC2BF0F8EC29
:1037D0001FF0060122D00B01BFBF03D00B01340E36
:1037E000C06F0D0E015C0AE00601E8EC2BF0D3EC93
:1037F0002AF004E1CD5102E10601EA070601EC07D7
:103800000A0E015C07E1EA07EEEC2BF0F8EC1FF082
:103810000601EA6BEC5101E0E0D6EA6BEB69DDD61C
:103820000601EEEC2BF02FEF2BF01AEC2CF042E817
:10383000090100B305D000A3FED7050E83EC2BF0E1
:10384000016A0901C451026E0A0E015C0AE245ECEC
:103850004AF002500901C45D02E0016AF3D7012A6F
:10386000F1D788EF2BF01AEC2CF044E8880E036EA9
:10387000130E046E800EE66EE66A7E0E40EC2AF0B1
:10388000016E800EE66EE66A7F0E40EC2AF0026E54
:103890003E0E015C05E1200E025C02E1010E22D029
:1038A000450E015C05E1520E025C02E1000E1AD0E9
:1038B000010EE66ED9ECA3F041E90306000E045AAE
:1038C00003EBCCF504EBCDF50501CC51CD11D2E1E4
:1038D0000601D4510108000ED55503E2D407000EAD
:1038E000D55B000E45E9E7CFD9FF12002DEC2AF099
:1038F00084E941E80401FE51FF110FE01DEC2CF0BA
:1039000001E17ED08CEC2BF001E37AD01DEC2CF0A1
:1039100020EC2CF003EC2BF0F1D77F0E0601C85DF4
:1039200061E1046A1DEC2CF00A080BE10D0E045C49
:1039300008E0090100B1FDD70D0E22EC2AF020E1CC
:10394000FBD70D0E045C1CE11DEC2CF00A0818E0FE
:10395000090100B1FDD70A0E22EC2AF0FCE00B01B0
:1039600001510EE0090100B1FDD7230E22EC2AF02F
:10397000FCE0090100B1FDD7200E22EC2AF0FCE0AA
:103980001DEC2CF03DE0090100B1FDD714EC2AF04C
:1039900075EC2BF0FBE00B01015112E01DEC2CF05B
:1039A0000A080EE1090100B1FDD7230E22EC2AF02E
:1039B000FCE0090100B1FDD7200E22EC2AF0FCE06A
:1039C000D9CFE9FFDACFEAFFEFCFF6FFEE2AEFCF4C
:1039D000F7FF000EEE22EFCFF8FFEE220800F550C1
:1039E000046EA0D71DEC2CF00BE0090100B1FDD74F
:1039F00014EC2AF075EC2BF0FBE003EC2BF0F2D783
:103A00002FEF2BF02DEC2AF083E941E80401FE5161
:103A1000FF110FE037EC2AF001E171D08CEC2BF0B4
:103A20006EE237EC2AF020EC2CF0002A000E012286
:103A3000F1D77F0E0601C85D55E1036A37EC2AF025
:103A40000A080BE10D0E035C08E0090100B1FDD787
:103A50000D0E22EC2AF020E1FBD70D0E035C1CE1D9
:103A600037EC2AF00A0818E0090100B1FDD70A0E68
:103A700022EC2AF0FCE00B0101510EE0090100B13B
:103A8000FDD7230E22EC2AF0FCE0090100B1FDD79E
:103A9000200E22EC2AF0FCE037EC2AF030E009019D
:103AA00000B1FDD7C5EC2AF0FDE00B01015112E099
:103AB00037EC2AF00A080EE1090100B1FDD7230E08
:103AC00022EC2AF0FCE0090100B1FDD7200E22EC27
:103AD0002AF0FCE026EC2CF0002A000E0122EF5028
:103AE000036EACD737EC2AF00AE0090100B1FDD72C
:103AF000C5EC2AF0FDE0002A000E0122F3D72FEFDB
:103B00002BF02DEC2AF082E90401FE51FF1108E0B0
:103B10008CEC2BF00FE2B2EC2AF000EBEFFF0AD0B6
:103B2000090100B1FDD700EBE6FFE3EC9DF041E9B0
:103B30000009F9E02BEF2BF02DEC2AF087E9045077
:103B400005101FE00601F751041802E1F8510518AD
:103B500014E0080E0B01BC1510E104EBF1F605EBC7
:103B6000F2F600EBF3F601EBF4F602EBF5F603EBFD
:103B7000F6F604EBF7F605EBF8F606013C0EF96FE6
:103B800005D033EC2BF0F76BF86BF96B2BEF2BF0C8
:103B90002DEC2AF083E942E8030EE66E35EC2CF0BA
:103BA000F350036EF450046E4B0EE66ED90EE66EC3
:103BB000000E73EC2AF00AE000EBCDF5CC6BCC5193
:103BC0000601FA130501CD510601FB13480EE66EFE
:103BD000D90EE66E000E73EC2AF005E006010050E7
:103BE000FA130150FB1388EF2BF02DEC2AF083E938
:103BF00046E8220EE66E00EBE6FF01EBE6FFE4ECA2
:103C00002AF067E080EC2AF0036EF450046E035053
:103C100004105FE080EC2AF0056EF450066E05504B
:103C2000061057E091EC2BF0CAEC4FF042E9F3504C
:103C3000056EF450066E055006104BE005EBE9FFEB
:103C400006EBEAFFEF504F0844E10528E96E000E4D
:103C50000620EA6EEF502D083CE12D0EE66E020EB6
:103C600005010524CC6F000E0620CD6FCCC5E6FF04
:103C7000E66EE4EC2AF02DE080EC2AF0056EF450BC
:103C8000066EEEEC2AF035EC2CF0F350076EF45093
:103C9000086E055006100BE107EBE9FF08EBEAFFA1
:103CA000EF5017E0470EE66ED90EE66E0DD091ECA0
:103CB0002BF007EBE6FF08EBE6FF40EC95F044E95C
:103CC000000907E091EC2BF0EEEC2AF02FEC9CF0D1
:103CD00043E947E9E7CFD9FF12002DEC2AF082E94A
:103CE00042E800EBC8F60601C851240A01E172D18E
:103CF000070A01E164D1010A01E15BD1030A01E194
:103D00002BD1010A01E112D1600A01E1F1D0030ACD
:103D100001E1D1D0010A01E1A7D0030A01E191D06C
:103D2000530A01E17ED0030A71E0010A5CE0160A41
:103D30004CE0030A3FE0010A36E0070A26E0010AE8
:103D400022E0030A14E07E0A0FE07F0A01E04ED170
:103D50003C0ED46FD56B99EC2AF00601010ECD6FA5
:103D60000A0ECE6FCF6B42D11DEC83F03FD10A0E0D
:103D7000FFEC29F00601030ECD6F140ECE6FCF6B52
:103D800050EC2CF033D1CD6B31D199EC2AF07FEC93
:103D90004AF07FEC4AF00601020ECD6F26EC2BF0C4
:103DA0000601CC6B23D1050ECD6F030E26EC2BF054
:103DB0000A0EB1D0060ECD6F020ECE6FCF6BC96B5F
:103DC0007FEC4AF07FEC4AF011D1E66AB1EC2BF0BF
:103DD000B7EC2BF00B01BFBF03D00B01F00EC06F8F
:103DE00043EC4AF003D1090EFFEC29F03BEC2BF039
:103DF000EEA106D0CB0EE66E410EE66E010ED6D0D9
:103E0000E20EE66E410EE66E010ED0D0080EFFEC1B
:103E100029F03BEC2BF0EE0EE66E410EE66E010E45
:103E2000C5D0070EFFEC29F00601030ECD6F230E5F
:103E3000CE6FCF6BC96B090EE66E420EE66E010EB9
:103E4000B5D0050E39EC2CF00CEC2BF006E2070E89
:103E50006AEC2AF00601400E05D0080E6AEC2AF042
:103E60000601020ECD6F14D0050E39EC2CF02E0E8B
:103E7000E66ED90EE66E000E32EC2AF0090E6AEC00
:103E80002AF00CEC2BF002E2430E01D0020ECD6FB3
:103E9000CAC6CEF6CBC6CFF60A0ED880CE57000ED5
:103EA000CF57050ECF03F3CFCFF6CE03F3CFCEF629
:103EB000F450CF279BD0050EFFEC29F08CEC2AF0B4
:103EC0000601020ECD6F3C0ECE6FCF6B070EC96F91
:103ED00059EC2CF0020EBAEC2AF0160EE66ED90E52
:103EE000E66E000E32EC2AF00601400EC86F7ED05E
:103EF000050EFFEC29F08CEC2AF09FEC2AF013E081
:103F000065ECA1F000090FE00601020ECD6F3C0E3A
:103F100026EC2BF0020EBAEC2AF03B0EE66ED90E20
:103F2000E66E000E43D00601200EC86F020EFFECB5
:103F300029F00B01016B0601CD6BC96B0A01680505
:103F400007E0050E685D04E0780E0601D26F02D02E
:103F50000601D26BD36B4AD0060EFFEC29F0020E9D
:103F6000BAEC2AF00601030ECD6F780ECE6FCF6B40
:103F700059EC2CF00D0E9FEC2AF006E1660EE66E71
:103F8000420EE66E010E12D0080EE66ED90EE66EF7
:103F9000000E32EC2AF002EBE6FF03EBE6FFA5ECA5
:103FA0002BF0FE0EE66ED80EE66E000E32EC2AF016
:103FB0001DD00A0ECE6FCF6B400ECD6F17D0060E00
:103FC000FFEC29F00601240ECD6F2C0ECE6F010EF2
:103FD000CF6F0CD0CC51CC2B0501CC6F140ECC5D27
:103FE00002E2020E01D0030E96EC2BF088EF2BF0CC
:103FF0001AEC2CF05EE80601ED6B3C0ED46FD56B2D
:104000000B01BFBF03D00B01350EC06FFE0E0601C2
:10401000EB5D20E10A01680507E0050E685D04E03C
:104020008CEC2AF0B7EC2BF00B01BFBF03D00B01D7
:10403000360EC06FCAEC2BF0DAEC2AF0D9EC5DF04A
:1040400044E90B01BFBF44EF25F00B01350EC06FF3
:1040500044EF25F0FF0EEB5D15E00B01BFBF03D071
:104060000B01370EC06FCAEC2BF000EC33F042E9C5
:104070000B01BFBF03D00B01350EC06F9BEC2BF0C3
:1040800044EF25F0C8517F0A02E13FEF25F05F0AB7
:1040900001E142D2600A01E16CD1630A01E14FD132
:1040A000020A01E106D1330A01E1DAD0030A6EE027
:1040B000010A2CE0110A16E0010A02E044EF25F0A3
:1040C000050EEA5D02E244EF25F0FFEC2AF0F80E5F
:1040D000E66ED80EE66E000EF0EC29F002E044EF3A
:1040E00025F038D0020EEA5D02E244EF25F066ECDE
:1040F0002BF002E044EF25F04B0E015D02E044EFAF
:1041000025F0B7EC2BF0100E2CEF25F0040EEA5D35
:1041100024E362EC2BF021E1430E015D1EE1530E1E
:10412000025D1BE14D0E035D18E1CAEC2BF09AEC29
:1041300095F042E9F3CFE9FFF4CFEAFFE906000E7C
:10414000EA5A000EE926080EEA22EF50310802E191
:1041500044EF25F07F0E2CEF25F00601C95102E057
:1041600044EF25F0020EEA5D02E244EF25F066EC32
:104170002BF002E044EF25F04B0E015D02E044EF2E
:1041800025F0B7EC2BF0110E2CEF25F0100EEA5DA8
:1041900017E3380E0801005D13E1390E015D10E1EF
:1041A000180EE66EE66ACAEC2BF0960EE66E0B0E63
:1041B000E66EF8EC95F046E90B01AD6B44EF25F0A7
:1041C000080E0601EA5D16E362EC2BF013E1430EE4
:1041D000015D10E1500E025D0DE1420E035D0AE14A
:1041E000460E045D07E13A0E055D04E1CAEC2BF0D2
:1041F000FCDCB7D1080E0601EA5D19E362EC2BF096
:1042000016E1430E015D13E1500E025D10E1490E0F
:10421000035D0DE1520E075D02E144EF25F0040E4F
:104220006AEC2AF00601010EC96F44EF25F0060181
:10423000C95102E044EF25F0020EEA5D02E244EFCC
:1042400025F066EC2BF002E044EF25F04B0E015D0B
:1042500002E044EF25F0B7EC2BF0120E2CEF25F026
:10426000060EEA5D15E362EC2BF012E1490E015DEA
:104270000FE1500E025D0CE1520E035D09E1390EB3
:10428000065D06E0AA0EE66E420EE66E010E87D1CE
:10429000020E0601EA5D01E2F7D366EC2BF001E0C5
:1042A000F3D34B0E015D01E0EFD3B7EC2BF0210E01
:1042B000D3D3020EEA5D0BE366EC2BF008E14B0E64
:1042C000015D05E19BEC2BF0CC6B220EC5D3050EF6
:1042D0000601EA5D07E3450E0801005D03E1520EA9
:1042E000015D03E0A9EC2BF002E1230EB5D3060E2D
:1042F000E66EE66AE60EE66ED80EE66E000EF0ECAE
:1043000029F001E0C1D3220EE66E000EE66E080E23
:104310005BEC2AF001E1B8D3F7EC29F001E1B4D36A
:10432000080EE66EE66AC0EC2BF0700EE66E0A0E22
:10433000E66EF8EC95F046E90A01786BA5D3F2EC4D
:104340002BF001E0A1D32C0E0801085D03E1070E5C
:10435000091502D0070E07150A01686FE80404E08A
:10436000050E685D01E090D39BEC2BF0CC6B400E0A
:1043700073D3020EEA5D07E3450E0801005D03E119
:10438000520E015D03E0A9EC2BF00FE1020E0601D5
:10439000C95D01E138D3030EC95D01E134D3050ED7
:1043A000C95D01E071D3030E57D3020E0601EA5D29
:1043B00006E366EC2BF003E14B0E015D0CE0530EBF
:1043C0000801005D03E1480E015D05E0050E0601F0
:1043D000C95D01E08DD00601EA6B1E0ECE6FCF6B7A
:1043E0000A01696B020EBAEC2AF00601C92BC95109
:1043F000090A01E17BD0010A63E00F0A5BE0010AD0
:104400003BE0030A33E0010A2BE0070A20E0010A3F
:104410000CE0030A01E038D3CC0EE66ED80EE66E4F
:10442000000E32EC2AF0050E0ED0BF0EE66ED80E4E
:10443000E66E000E32EC2AF0050ECFEC2BF0060EE5
:10444000CFEC2BF0070EE66E3AEC2AF02BD0040EE0
:1044500039EC2CF0B10EE66ED80EE66E000E9FD051
:10446000A30EE66ED80EE66E000E99D0990EE66E9B
:10447000D80EE66E000E93D0160EE66E43EC2BF0CF
:10448000BFEC2AF006E1950EE66ED80EE66E000E41
:1044900086D0880EE66ED80EE66E000E32EC2AF05C
:1044A000C0EC2BF0A5EC2BF0C90EE66ED80EE66E34
:1044B000000E75D0160EE66ED90EE66E000E6FD0A9
:1044C000030E39EC2CF0740EE66ED80EE66E000E7C
:1044D00032EC2AF0040EE66E3AEC2AF0A5EC2BF052
:1044E0006A0EE66ED80EE66E000E59D0200EB4D2DB
:1044F000070EEA5D0BE3080EE66EE66A610EE66EF5
:10450000D80EE66E000EF0EC29F004E0DEEC2BF0A5
:1045100001E0BAD2020EA0D2F2EC2BF024E12C0E74
:104520000801085D03E1070E091502D0070E071503
:104530000A01686FE80403E0050E685D05E1060105
:10454000D26BD36BE66A0AD00601D251D31101E0D7
:104550009BD2780ED26FD36B010EE66EE66ADBEC6F
:104560009CF042E991D2FFEC2AF04F0EE66ED80E95
:10457000E66E000EF0EC29F015E10A01680507E08F
:10458000050E685D04E08CEC2AF0B7EC2BF0010E10
:10459000BAEC2AF07A0EE66E420EE66E010E32ECAE
:1045A0002AF072D2FFEC2AF0490EE66ED80EE66EC3
:1045B000000EF0EC29F001E09CD0080E0601EE158B
:1045C000000801E361D2070EE66E080EE66EC4EC49
:1045D0004EF056EC2AF0036ECD51046ECE51056EAE
:1045E000CF51066E03500A01281908E10450291919
:1045F00005E105502A1902E106502B1901E144D2C8
:104600000350285D0450295905502A5906502B594A
:1046100038E2D950030FE96EDACFEAFF2851EE5C99
:104620000501CC6F0A012951EE580501CD6F0A0131
:104630002A51EE580501CE6F0A012B51EE580501A3
:10464000CF6FCC51076ECD51086ECE51096ECF5150
:104650000A6E0A012C512D112E112F1108E007505E
:104660002C2708502D2309502E230A502F230A01EE
:10467000075028270850292309502A230A502B23A2
:1046800003D2D950030FE96EDACFEAFFEE50285D6E
:104690000501CC6FEE500A0129590501CD6FEE508E
:1046A0000A012A590501CE6FEE500A012B59050166
:1046B000CF6FCC510B6ECD510C6ECE510D6ECF51D4
:1046C0000E6E0A012C512D112E112F1108E00B50E6
:1046D0002C5F0C502D5B0D502E5B0E502F5B0A0192
:1046E0000B50285F0C50295B0D502A5B0E502B5B42
:1046F000CBD1020EE66EE66A460EE66ED80EE66E88
:10470000000EF0EC29F001E088D0A0EC2BF001E3E2
:1047100084D02C0EE66E020EE66E080E5BEC2AF0DC
:10472000F7EC29F004E03CEC2CF046EC2BF0F7EC35
:1047300029F003E0BFEC2AF0176EF7EC29F004E053
:104740003CEC2CF04EEC2BF0F7EC29F003E0BFEC46
:104750002AF0186EF7EC29F003E0BFEC2AF0196E8E
:10476000F7EC29F003E086EC2AF01A6EF7EC29F05A
:10477000F7EC29F005E086EC2AF01B6EF4501C6E75
:104780000150021001E180D1030E1914400DF350C5
:104790001A240A01626FF5EC2AF004E0E8427F0B6C
:1047A000E706FCE1000936E0530E175C0CE10FEB65
:1047B000CCF510EBCDF511EBCEF512EBCFF578EC97
:1047C0002BF046EC2BF0570E185C0CE113EBCCF5FC
:1047D00014EBCDF515EBCEF516EBCFF578EC2BF011
:1047E0004EEC2BF00FEB8AFB10EB8BFB11EB8CFBF1
:1047F00012EB8DFB13EB8EFB14EB8FFB15EB90FB99
:1048000016EB91FB1BEB94FB1CEB95FB0A01780E5E
:10481000656F3AD10A01656B37D1030EE66EE66A21
:10482000420EE66ED80EE66E000EF0EC29F023E1A3
:10483000A0EC2BF020E22C0EE66E030EE66E080EC6
:104840005BEC2AF005E086EC2AF01D6EF4501E6E3B
:104850000150021001E118D1F5EC2AF004E0E84221
:104860007F0BE706FCE1000901E10ED11DEB92FB95
:104870001EEB93FB09D16AEC2BF0370EE66ED80ED7
:10488000E66E000EF0EC29F004E10A01695126E120
:1048900019D0070EE66EE66A2F0EE66ED80EE66EAB
:1048A000000EF0EC29F042E1110EE66EE66A1D0EF4
:1048B000E66ED80EE66E000EF0EC29F013E10A0168
:1048C00069510CE1010EE66EE66EDBEC9CF042E90C
:1048D0005FEC2CF016EC2DF07BEC2CF00A01010EB5
:1048E000696FD2D0150EE66EE66A070EE66ED80E38
:1048F000E66E000EF0EC29F001E1C6D0110EE66E76
:10490000E66AF50EE66ED70EE66E000EF0EC29F0C4
:104910006BE00A01696B020E39EC2CF00A016805A4
:1049200070E0050E685D01E0AFD06BD0FFEC2AF0BF
:10493000EF0EE66ED70EE66E000EF0EC29F011E1F8
:104940002C0E0801085D08E1070E06150A0D070E7A
:1049500007150501F32402D0070E06150A016B6F37
:1049600093D0070EE66EE66AE70EE66ED70EE66EA9
:10497000000EF0EC29F00BE00B0EE66EE66ADB0EA3
:10498000E66ED70EE66E000EF0EC29F003E10B01A7
:1049900001697AD0060EE66EE66AD40EE66ED70E90
:1049A000E66E000EF0EC29F01FE00C0EE66EE66AF3
:1049B000C70EE66ED70EE66E000EF0EC29F014E09E
:1049C0000B01015115E0090EE66EE66ABD0EE66EBA
:1049D000D70EE66E000EF0EC29F006E0FAEC2BF0B4
:1049E00003E0A9EC2BF004E159EC2CF0420E34D09A
:1049F000DEEC2BF006E0FAEC2BF003E0A9EC2BF058
:104A000004E159EC2CF0410E27D0040EE66EE66A64
:104A1000B30EE66ED70EE66E000EF0EC29F00BE05A
:104A2000060EE66EE66AAC0EE66ED70EE66E000E79
:104A3000F0EC29F003E159EC2CF00DD0110EE66EEC
:104A4000E66A9A0EE66ED70EE66E000EF0EC29F0DE
:104A500006E17FEC4AF0010E96EC2BF015D0060E25
:104A6000E66EE66A930EE66ED70EE66E000EF0EC8A
:104A700029F00AE17FEC2BF028EC36F004D07FEC33
:104A80002BF0E3EC84F043E95FE9E7CFD9FF1200B4
:104A90001AEC2CF046E87F0E0601C85D0BE0200EF4
:104AA000C85D01E03CD10A01680504E0050E685DBF
:104AB00001E035D10B01015101E031D15EEC2BF069
:104AC00001E02DD1EA5101E02AD10901415101E073
:104AD00026D10901C45101E022D10B0141514211FB
:104AE00003E00B01000549E00601F1510008000E4A
:104AF000F2551BE20B01000518E10601F151000817
:104B0000000EF2550FE2F3C6E6FFF4C6E6FFF5C667
:104B1000E6FFF6C6E6FFF1C6E6FFF2C6E6FFA5EC45
:104B200039F046E933EC2BF0FAD0FF0E0AEC2AF00C
:104B300001E39CD00B01000501E098D0200E0AECA7
:104B40002AF004E20601FA9B040E33D0040E0AECAC
:104B50002AF016E20601FA95FC5101E0E0D0060EBB
:104B60000B01416F426B0B01D950020F436FDACF3B
:104B700044FBE96EDACFEAFFEF6AACEC35F0CFD058
:104B8000080E0AEC2AF006E20601FA97EEA3C7D057
:104B9000020E0FD0100E0AEC2AF004E20601FA9978
:104BA000030E07D0400E0AEC2AF008E20601FA9D37
:104BB000050EE66E94EC39F041E9B1D0010E0AEC35
:104BC0002AF02DE27C0E0601FA17FB6B020E016E35
:104BD00001EBE6FFB8EC2DF0DFEC2AF060EC30F0F2
:104BE000DFEC2AF011EC2FF041E9016E010E56ECDA
:104BF0002BF0020E56EC2BF001EBE6FF80EC2FF0D1
:104C0000DFEC2AF0FEEC2FF0DFEC2AF02EEC31F096
:104C100041E9016E020E015C01E181D024D0020E57
:104C20000AEC2AF012E20601FA93020E016E01EB81
:104C3000E6FF60EC30F0DFEC2AF0B8EC2DF041E953
:104C4000016E020E015C6BE00ED0800E0AEC2AF0C1
:104C50000DE20601FA9FFB6B020EE66E11EC2FF0DF
:104C600041E902085CE07BEC2CF059D06DEC2AF0B5
:104C70007C0E24EC2AF053E2000EE66EE66AC5ECE8
:104C80001AF042E96DEC2AF0200EDEDB04E20601A8
:104C9000FB9B040E3ED06DEC2AF0040ED5DB1DE22A
:104CA0000601FB95FC513BE18E0EE66ED70EE66EDB
:104CB000000EE66ED950020FE66EDACFE6FF06EC84
:104CC00050F045E9D950020FE66EDACFE6FFDAEC94
:104CD0002AF0D9EC5DF044E922D06DEC2AF0080E00
:104CE000B3DB06E20601FB97EEA319D0020E11D04A
:104CF0006DEC2AF0100EA8DB04E20601FB99030E0E
:104D000008D06DEC2AF0400E9FDB09E20601FB9D06
:104D1000050EE66EDAEC2AF044EC57F043E947E979
:104D2000E7CFD9FF12000B01BFBF03D00B01380E34
:104D3000C06F0601F951000805E2F907F95102E1D7
:104D4000F76BF86BC8517F0A01E1FBD05F0A01E104
:104D500071D0220A6DE0210A54E0020A49E0330AC8
:104D60003CE0030A30E0010A24E0110A01E01200ED
:104D70000A0ECE1908E1CF5106E17FEC4AF0320E5F
:104D8000BAEC2AF007D0050ECE5D000ECF5902E234
:104D9000020EA0DB0601EEA106D08A0EE66E410EE1
:104DA000E66E010E23D0980EE66E410EE66E010E01
:104DB0001DD0C5EC2BF001E0C6D0E20EE66E410E30
:104DC000E66E010E13D0C5EC2BF001E0BCD0EE0E68
:104DD000E66E410EE66E010E09D0C5EC2BF001E047
:104DE000B2D0090EE66E420EE66E010E32EF2AF0E8
:104DF000140ECE5D000ECF5901E3A5D0060E6AEF6A
:104E00002AF06AEC2BF041EC2CF001E09CD015EC80
:104E10001CF0A00EE66E420EE66E010E23DB0901C9
:104E200041510008FCE3020EE66E53EC4AF033D029
:104E3000E66A2FD0FF0EEB5D0AE0ED0504E1ED6BB5
:104E4000EA6BEB690FD0ED51010801E2ED07D25199
:104E50000008000ED35508E2D207000ED35BD251F2
:104E6000D31102E1210E14D00B01015116E0012BE8
:104E70003C0EE76E011902E7013502D00151E75CF3
:104E80000CE20601D251D31102E1420E01D0400ED4
:104E9000E66E6DEC1EF041E912000A011151800B23
:104EA00004E011DB01E1CD510DE03C0E02EC2CF0F1
:104EB000E5CFCFF5E7CFCEF50501370ECE1920E1CE
:104EC000CF511EE10B0101511BE15EEC2BF018E10B
:104ED000EA5116E10901415113E10901C45110E100
:104EE000A0EC2BF00DE2A60EE66E410EE66E010E72
:104EF000B9DA090141510008FCE30F0E83EC2BF0F5
:104F00000A01680503E0050E685D15E10A01175105
:104F1000000811E20B01B6050EE10A016A51000812
:104F20000AE2010E0601EE1504E0CDDA04E1CD51EE
:104F300002E1800EF8DA0A0115A905D00A016D6BAD
:104F400012002BEC83F012000B01BFBF03D00B014A
:104F5000390EC06F0601C851200A01E012003C0E54
:104F600047EC2CF01FE00B0101510AE1A7DB08E13F
:104F7000EA5106E10901415103E10901C45106E08A
:104F8000020E0601D05F000ED15B12007F0EE66EAE
:104F9000420EE66E010E66DA090141510008FCE39B
:104FA000020EB1DB12000B01BFBF03D00B013A0EA2
:104FB000C06F0A016C510DE138DB0CEC2CF0E9DA22
:104FC0001BEC75F041E9E7500A016C6F0A016D6B4B
:104FD0002AD0020EE66EE66A28DBFAC7D2F5FBC7D6
:104FE000D3F5FCC7D4F5FDC7D5F5D3DA54EC75F08D
:104FF000E552E5CFD1F5E7CFD0F50A016C510501B7
:10500000D025CE6F000ED121CF6FCE2B000ECF2337
:10501000CEC5E6FFCFC5E6FFF2EC75F0E5522BEC0E
:105020002CF0CCC56CFA0A0115B918D00F0E0A0184
:105030006D5D09E20A0111AF03D00A016D6B0ED05C
:105040000A016D2B0BD00F0E6D5D08E10A011151A5
:10505000800B04E16CCA6DFA00010E930A016D51D8
:105060000F0822E20A0111AF03D000010E931CD0F9
:10507000020E00010E150AE1100E0A016D5D0A0113
:10508000D8806C5503E300010E830CD0020E0001A2
:105090000E150AE00A0E0A016D5D0A016C5D04E35B
:1050A00000010E93080E3FDA0601C851200A01E004
:1050B00012000B0100511DE0BFEC80F0000819E266
:1050C0000B0101510AE1FADA08E1EA5106E10901AE
:1050D000415103E10901C45106E0040E0601D05F0D
:1050E000000ED15B06D05FEC2CF0C2EC80F07BEFC1
:1050F0002CF00A016A51000802E2010E14DA010ED6
:105100000601C919C96F12000B01BFBF03D00B0103
:105110003B0EC06F12008EDB43E80A0106050DE06E
:10512000020E065D0AE00F0E065D07E0800E0A0122
:105130001115000802E3000E01D0010E036E0B01F1
:10514000BFBF03D00B013C0EC06F0601C851200A3F
:105150004BE10A0191510A01185D38E2800E0A0103
:10516000111534E10601F0511CE10B0100511AE068
:105170000B01015117E1A2DA15E1EA5113E109012E
:10518000415110E10901C4510DE10601EEA505D020
:10519000010EE66E94EC39F041E90601480EF06F1D
:1051A00001D0F0070601EF510FE1E66A6CDA060163
:1051B000EEA506D0010EE66EE3DA44EC57F043E9C3
:1051C0000601480EEF6F06D0EF0704D00601060E69
:1051D000EF6FF06F0B01005107E00A016A5104E123
:1051E000035002E0010E9FD944E9E7CFD9FF120036
:1051F00021DB41E80A0106050DE0020E065D0AE02A
:105200000F0E065D07E0800E0A011115000802E38B
:10521000000E01D0010E016E0B01BFBF03D00B01C8
:105220003D0EC06F0601C851200A0AE10B01005172
:1052300007E00A016A5104E1015002E1010E73D94D
:105240000ED20B01BFBF03D00B013E0EC06F060193
:10525000FC51000801E2FC07D02B000ED123CD51F8
:10526000000811E2CEC6CCF5CFC6CDF5CE07000EB4
:10527000CF5B0501CC51CD1106E1CDC6E6FF6DEC4B
:105280001EF041E901D04FDD1E0E01DB01E15CDEC5
:105290003C0EFDDA01E187DE2C0EE66E010EE66EB5
:1052A00069DA01E131DF580EE66E020EE66E62DA6F
:1052B00001E131DF100EE66E0E0EE66E5BDA06E1FE
:1052C00097DF100E0601D05F0E0ED15B7F0E060138
:1052D000C85D15E0D407000ED55BD451D5110FE1A0
:1052E0003C0ED46FD56B0B01BFBF03D00B01F10E89
:1052F000C06F010E1BDA0B0E0601CE6FCF6B1200D2
:105300001200C7EC9DF00A01686BE66A6DEC1EF0B6
:1053100041E91200A2D884E90050050A51E0010ACF
:1053200049E0070A41E0010A1AE0030A54E10A01D0
:105330001851E66EE66A650EE66ED70EE66E000E52
:10534000E66E000EE66E070EE66E58EC50F047E98A
:1053500030DA5E0EE66ED70EE66E000E36D0000135
:105360000EA307D06AD93E0EE66ED70EE66E000E8B
:1053700006D063D92D0EE66ED70EE66E000EEBD882
:10538000010EE66EE66A6DCAE6FFE66AE66AE66A5E
:10539000250EE66ED70EE66E000EDDD8220EE66E06
:1053A000D70EE66E000E11D0FE0EE66ED60EE66E3D
:1053B000000E0BD0E30EE66ED60EE66E000E05D0A4
:1053C000C60EE66ED60EE66E000EE66ED9D906EC77
:1053D00050F045E9EED901EBF3FF02EBF4FF3BD1CE
:1053E000E66ED8D988EC94F047E900091200C8D9D4
:1053F000CAEC4FF042E9DDD901500210120039DA4F
:10540000B7EF2BF03DEC76F0E55225DA0501CC51F3
:10541000CD1112000601FA150501CC6FCD6BCC51F0
:105420000008000ECD55120000EBF6FF01EBF7FF70
:1054300002EBF8FF08001200EA6A000FE96E080E9E
:10544000EA221200E66EF1D10601FB150501CD6FCF
:10545000CC510008000ECD551200D9CFE6FFE1CFA8
:10546000D9FF1200E66E76EC1CF043E91200EED98B
:10547000EF501200FAD9F3CFE6FFF4CFE6FF1200A7
:105480000901C5250501CC6FCD6BCD37E66ECDC5C5
:10549000E6FFF5EC75F0E552E5CFEAFFE7CFE9FF6F
:1054A000440EE926090EEA22EF50120042E9B4D96F
:1054B0000501CC511200E66E8EEC4FF043E979D92C
:1054C000015002101200030E9DD9C5D90501010E2D
:1054D000CC191200E66E4BEF2CF0000E0601FA1507
:1054E0000501CC6F1200E66EBBD926EC96F045E9BB
:1054F000F3CFCCF5F4CFCDF50501F350F410120045
:10550000AFD9CAEC4FF042E9F350120039D9F4ECAC
:1055100089F042E9F35012000601D26BD36B0A0105
:10552000050E686F1200E66EE66AC8EC1DF042E9EF
:105530001200E66816D9E668AED902EF9DF0E66E75
:1055400094D9F350026EF450036E02EBE9FF03EBC3
:10555000EAFFEF501200E66E13D962EC51F04BE90E
:10556000D9EF2BF0FEC4E9FFFFC4EAFFFE2B000ECB
:10557000FF231200E66E6BEC4AF041E9120001EBEA
:10558000E9FF02EBEAFFEF50120060D9EFCFE6FF30
:105590004CD1FAC7E6FFFBC7E6FFFCC7E6FFFDC735
:1055A000E6FFFFEF78F0EA510501CC6FCD6BC80E36
:1055B000CC191200D60EE66E060EE66E120041E918
:1055C000016E01EBE6FF12008EEC4FF043E9F35061
:1055D000036EF450046E03500410120041D9F4EC31
:1055E00089F042E9F3CFE6FF12000501060ECC6F09
:1055F000C00E0A016215CCC5E7FFE7521200050E86
:10560000E66EE66A1200D9CFE9FFDACFEAFFEE2AAA
:10561000000EEE22EE2212000601CA07000ECB5B3E
:10562000CA510008000ECB551200E66AE66A200E49
:10563000E66E410EE66E96EFA1F0010EE66EE66AAA
:105640006CCAE6FFE66AE66AE66A1200CE6FCF6BC6
:10565000C96B59EF2CF041E9E7CFD9FF120042E9BD
:10566000E7CFD9FF12000601F16BF26BF36BF46B1D
:10567000F56BF66B12000601030ECD6F5F0ECE6F59
:10568000CF6BC96B1200F1D8D9EF2BF00F6ECD5153
:10569000106ECE51116ECF51126E1200136ECD519D
:1056A000146ECE51156ECF51166E1200E66E01EBE0
:1056B000E6FF63EC31F042E9016E1200FF0E0601D5
:1056C000EB5D12002B0E0801005D12004F0E080169
:1056D000005D12000A0EE66EE66A1200F4EC89F034
:1056E00042E9F3CFECF606011200F5CFE6FF9DD0BC
:1056F0000501CC1FCD1FCE1FCF1FCC511200EAC613
:10570000E6FFCAEF2BF0E66E53EC4AF041E91200D7
:1057100043E9E7CFD9FF1200BD0EFE5D080EFF5929
:10572000120005EBE6FF06EBE6FF1200E66E6DECFD
:105730001EF041E912000A0E0601CA6FCB6B12007F
:10574000010E0601EE150008120002EC1DF042E900
:105750001200C0DFED0EE66ED80EE66E000EF0EF22
:1057600029F0010EE66EDBEC9CF042E91200E66ADD
:105770004BEF2CF0D0C6E6FFD1C6E6FF02EF2AF0D1
:1057800001EBE6FF02EBE6FF1200030EE66EE66AAF
:1057900041EF2CF0000EE66E080EE66E1200E66E8B
:1057A00069DED3DFBB0EE66ED80EE66E000E32EF7A
:1057B0002AF0F350016EF450026E12000B0EE66EEA
:1057C000E66A550EE66ED80EE66E000EF0EF29F092
:1057D000EA51EA2B31DE01EBEFFF1200EA512CDE39
:1057E000EF6A12000CDFE00EE66ED80EE66E000ED9
:1057F000F0EF29F004DFB70EE66ED70EE66E000E6E
:10580000F0EF29F0E66EE66AD0C6E6FFD1C6E6FF05
:105810003DEC76F0E5521200FAC7CCF5FBC7CDF5AA
:10582000FCC7CEF5FDC7CFF51200E3EC9DF041E9D2
:105830000009120012DE81E91200F6DDF5501200B7
:10584000E66E90DEE552E750EF6E120000EBE9FFE6
:1058500001EBEAFF1200E5CFCDF5E7CFCCF5120062
:1058600003EBE6FF04EBE6FF12001AEC9CF041E9C3
:105870001200E66EB1EF2BF083DF3AEC4EF056EFFC
:105880002AF0CEC6E6FFCFC6E6FF02EF2AF0E66EAC
:10589000E66ABAEF2BF0E66ADBEC9CF042E9120014
:1058A0000B01416B426B0401FE6BFF6B0A016A6BDB
:1058B00012000B01006B016B0A016A6B12007F0E74
:1058C0000601C85D0AE10B01010E016F3D0EE66E97
:1058D000DC0EE66E000E63EF3AF015EC1CF0310EB4
:1058E000E66EDC0EE66E000E63EC3AF033EC1CF074
:1058F0000B01016F12007F0E0601C85D08E10B016C
:10590000016B2C0EE66EDC0EE66E000E13D00B0162
:10591000015107E005012A0ECC6FDC0ECD6F000EA1
:1059200006D00501280ECC6FDC0ECD6F000ECE6FB9
:10593000F3EC39F063EF3AF0FDEC39F081E943E83C
:105940000B0101516FE07F0E0601C85D06E1CEEC50
:1059500039F002EC1DF042E963D00B0130054DE156
:10596000450E0701055D49E0410E055D46E0610E0B
:10597000055D43E0670E055D40E0500E055D3DE0CE
:105980000551036E060EE66E070EE66EF6EC3AF073
:1059900060EC95F044E922EC3CF0016A026AD89090
:1059A000025004E6000E015C040E025808E206EC08
:1059B0003CF05BEC3CF0012A000E0222F0D7F6EC42
:1059C0003AF09AEC3BF04FEC3CF0F6EC3AF05BEC42
:1059D0003CF0200EE66EDC0EE66E000ED2EC3BF0E4
:1059E00003EB07F7080EE66E070EE66EA3EC3AF03F
:1059F000F6EC3AF03CEC90F046E9CEEC39F09AEC5B
:105A00003BF04FEC3CF0CEEC39F0C4EC3AF01AEC41
:105A10003BF0A3EC3AF0CEEC39F0ABEC90F044E97B
:105A200072EC3CF044E9E7CFD9FF1200FDEC39F00D
:105A300081E945E8E66A010EE66ED650E66EE66A52
:105A40009FEC3BF0056EE750046ED7500426000E25
:105A50000522016A080E015C0CE20150EA6A060F99
:105A6000E96E000EEA22EF500426000E0522012AFC
:105A7000F1D70BEC3CF083EC8CF042E9016A160E96
:105A8000015C11E2F6EC3BF0D0BFD16992EC3AF048
:105A90000150EA6A020FE96E0B0EEA22E552E75066
:105AA000EF6E012AECD70B01186B090EE66E7AEC4B
:105AB0003AF01FEC3DF0BBEC3BF005EC3AF0BBECF0
