:020000040000FA
:06000000DDEF87F01200A5
:020006001200E6
:06000800DAEF5CF01200CB
:02000E000208E6
:0100100006E9
:020011000100EC
:020013000000EB
:06001800F5EF10F01200EC
:02001E000A00D6
:1000200078110100E70900000F00000071110100C4
:10003000D30A00000700000065110100C70A000094
:100040000C00000030110100C8060000350000005F
:10005000EB100100000B0000450000007F100100C4
:10006000000A00006C000000F50F010060000000B5
:100070008A00000013000000FE08000002000000DB
:10008000E30F0100EA000000120000001100000070
:08009000FE0400000200000064
:080098000B01416B426B1200E9
:1000A0000B01006B12007F0E0601C85D07E1560EC2
:1000B000E66EA20EE66E000E31EF0EF00B01010EA1
:1000C000016F050EC7EC0FF04A0EE66EA20EE66E4B
:1000D000000E31EC0EF00A0EC7EF0FF07F0E060196
:1000E000C85D03E11BEC0FF005D0450EE66EA20ED5
:1000F000E66E000E31EF0EF0E5EC10F043E87F0EF7
:100100000601C85D06E1A6EC0DF0F8EC12F042E93C
:100110005FD00B0130054BE1450E0701055D47E05F
:10012000410E055D44E0610E055D41E0670E055D31
:100130003EE0500E055D3BE00551036E060EE66E97
:10014000070EE66ECBEC0EF03CEC77F044E9EFECFA
:100150000FF0016A026AD890025004E6000E015CBA
:10016000040E025808E2D7EC0FF023EC10F0012A3D
:10017000000E0222F0D7CBEC0EF03CEC10F0CBECF2
:100180000EF023EC10F03D0EE66EA20EE66E000EB1
:10019000A0EC0FF003EB07F7080EE66E070EE66E15
:1001A00017EC0EF0CBEC0EF0FDEC71F046E9A6EC8E
:1001B0000DF03CEC10F0A6EC0DF09BEC0EF0F9EC21
:1001C0000EF017EC0EF0A6EC0DF06CEC72F044E9BA
:1001D0001BEC0FF031EC0EF044E9E7CFD9FF120031
:1001E000E5EC10F045E8E66A010EE66ED650E66EE4
:1001F000E66A7BEC0FF0056EE750046ED7500426DC
:10020000000E0522016A080E015C0CE20150EA6A48
:10021000060FE96E000EEA22EF500426000E0522BA
:10022000012AF1D7DCEC0FF051EC6EF042E9016AE3
:10023000160E015C11E2C7EC0DF0CCBFCD696BEC82
:100240000EF00150EA6A020FE96E0B0EEA22E55247
:10025000E750EF6E012AECD70B01186B090EE66E22
:100260004CEC0EF026EC10F08DEC0FF0ECEC0DF0F9
:100270008DEC0FF0160EE66EE66A27EC0FF0D2EC6E
:1002800083F04AE9350EE66EA20EE66E000E31EC02
:100290000EF027EC0FF0F8EC12F042E942EC10F00F
:1002A00050EC0EF06CEC72F044E942EC10F0080EE9
:1002B000E66E4CEC0EF036EC0FF01BEC0FF031EC70
:1002C0000EF046E9E7CFD9FF1200BEEC0DF084E94D
:1002D00042E860EC10F0F4EC31F044E9B8EC10F0D6
:1002E0000250020A10E0030A03E0010A19E108D0F3
:1002F000B6EC0EF00450EE1802E10550ED1810E0D7
:1003000006EC10F00DD0B6EC0EF00450EE1802E141
:100310000550ED1805E0C7DE06EC10F0010E026E88
:100320000250CCEF0FF059EC10F044E8020EE66EEC
:100330004CEC0EF02CEC0FF02C0EE66EA20EE66EDE
:10034000000EACEC10F01CEC0EF060C0E6FF61C0DB
:10035000E6FF98EC0DF000016251AFEC0FF00001E8
:1003600066510F0A20E0020A18E0090A10E0060AA6
:1003700008E0030A1EE1200EE66EA20EE66E000EF5
:100380001DD0180EE66EA20EE66E000E17D0120EED
:10039000E66EA20EE66E000E11D0090EE66EA20EFB
:1003A000E66E000E0BD0000EE66EA20EE66E000E9C
:1003B00005D0F70EE66EA10EE66E000EA4EC0EF070
:1003C000B8EC10F000016851040A18E0070A10E0C8
:1003D000020A08E0010A18E1ED0EE66EA10EE66ED3
:1003E000000E14D0E40EE66EA10EE66E000E0ED0E6
:1003F000DD0EE66EA10EE66E000E08D0D00EE66EA3
:10040000A10EE66E000E02D09BEC10F0A4EC0EF0F4
:10041000B8EC10F0BBEC0DF04D0807E174C0E6FF3E
:1004200075C0E6FF64EC10F00AD074C0E6FF75C03A
:10043000E6FFC9EC10F064EC10F0C9EC10F098EC99
:100440000DF000016351AFEC0FF064C0E6FF65C032
:10045000E6FF98EC0DF000016951AFEC0FF00001E0
:100460006A51AFEC0FF000016751AFEC0FF00001E3
:100470006651AFEC0FF000016851AFEC0FF0BAC05D
:10048000C8F80801C96BC8BFC96993EC10F0BBC0BC
:10049000E6FFBCC0E6FF98EC0DF0C2C0C8F808014A
:1004A000C96BC8BFC96993EC10F0EFEC0EF0DAEC41
:1004B00010F088EC10F0B8EC10F0D4C0E6FFD5C016
:1004C000E6FF98EC0DF00001D7350FE20001D935B9
:1004D000D9510001D71908E60001D8510001D65DB5
:1004E0000001D9510001D75902E3000E01D0010EDD
:1004F000000905E0D6C0C8F8D7C0C9F804D0D8C0F4
:10050000C8F8D9C0C9F893EC10F0BBEC0DF04D0859
:1005100003E13BEC0FF002D0CFEC10F093EC10F0C5
:100520000001DC51AFEC0FF0DFC0C8F80801C96B67
:10053000C8BFC96993EC10F0E2C0E6FFE3C0E6FF74
:1005400098EC0DF0E4C0E6FFE5C0E6FF98EC0DF096
:10055000E7C0E6FFE8C0E6FF98EC0DF0D6C0E6FF86
:10056000D7C0E6FF98EC0DF0D8C0E6FFD9C0E6FF93
:1005700098EC0DF0BBEC0DF04D0808E1DDC0C8F8BB
:10058000DEC0C9F80801CA6BCB6B06D0DDC0E6FF40
:10059000DEC0E6FFD0EC0FF093EC10F06BC0C8F8B3
:1005A0000801C96BC8BFC96993EC10F0310EE66E43
:1005B0000B0E10EC0EF045E9E7CFD9FF120059EC15
:1005C00010F042E8FDEC0EF0C90EE66EA10EE66EEC
:1005D000000EA1EC10F043EC0FF00EEC10F0EFEC7D
:1005E00010F043EC0FF0B6C0E6FFB7C0E6FF9CEC9E
:1005F0000DF0B8C0E6FFB9C0E6FF9CEC0DF00001BD
:10060000BD51BEEC0FF0C0C0C8F80801C96BC8BF2F
:10061000C969B5EC10F0330EE66E0B0E10EC0EF05F
:10062000CCEF0FF059EC10F047E8C20EE66EA10EC9
:10063000E66E000EA0EC0FF0BBEC0EF0026A040EAA
:10064000025C5CE289EC0EF0C9354AE2C851000850
:10065000000EC95545E2560EE66E0E0EE66E8D0E84
:10066000E66E3E0EE66E0250EA6AA40FE96E000ED8
:10067000EA22EFCFE6FF5DEC56F0EFEC58F03EECEF
:1006800057F0E552E5CFCBF8E5CFCAF8E5CFC9F88A
:10069000E7CFC8F80801C851056EC951066ECA51A6
:1006A000076ECB51086ED0EC0EF056EC0FF008EB55
:1006B000E6FF35EC10F036EC0EF088EC10F0BBECF9
:1006C0000EF089EC0EF0280EC85F000EC95B9BECA3
:1006D0000FF08AEC0FF049EC10F09BEC10F005D015
:1006E000BD0EE66EA10EE66E000EE66E36EC0EF066
:1006F000A4EC10F0BBEC0EF0022AA1D7C1C0C8F8E0
:100700000801C96BC8BFC9699BEC0FF035EC10F04C
:1007100049EC10F0350EE66E0B0E10EC0EF048E9C9
:10072000E7CFD9FF120059EC10F043E8010E046E38
:10073000020E046EDAEC0EF0B60EE66EA10EE66E58
:10074000000E97EC0FF0026EF450036E0F0EF66E73
:10075000000EF76E000E07EC0EF0100EF66E000E97
:10076000F76E000E07EC0EF081EC0EF08DEC0FF042
:100770005CEC10F096EC10F0000110511111121108
:1007800004E05AEC0FF0EAEC0DF004504DEC10F0E0
:10079000E66E90EC10F096EC10F0AA0EE66EA10E4C
:1007A000E66E000EE66E6AEC10F08DEC0FF035ECA4
:1007B00033F048E996EC10F0820EE66E000EF1EC94
:1007C0000DF00001C651BEEC0FF00501F851BEEC72
:1007D0000FF0CC0EE66E050EF1EC0DF0C90EE66ED4
:1007E000000EF1EC0DF0370EE66E0B0E10EC0EF075
:1007F00044E9E7CFD9FF120059EC10F046E80001B8
:100800007C517D117E117F1105E1046A056A066A3B
:10081000076A20D07C0EE96E000EEA6EEE500001F1
:10082000785D0801C86FEE50000179590801C96F61
:10083000EE5000017A590801CA6FEE5000017B5951
:100840000801CB6FC851046EC951056ECA51066EBE
:10085000CB51076E00016C51E66EE66AA30EE66EA0
:10086000A10EE66E000E97EC0FF0026EF450036ED0
:1008700000016D51BEEC0FF000017151BEEC0FF0A4
:1008800094C0E6FF95C0E6FF9CEC0DF096C0E6FF35
:1008900097C0E6FF9CEC0DF098C0E6FF99C0E6FF1C
:1008A0009CEC0DF04D0E00010F5D08E1A8C0C8F8EA
:1008B000A9C0C9F80801CA6BCB6B06D0A8C0E6FF77
:1008C000A9C0E6FFD0EC0FF0B5EC10F04D0E000122
:1008D0000F5D09E1AAC0C8F8ABC0C9F8ACC0CAF83E
:1008E000ADC0CBF80AD0AAC0E6FFABC0E6FFACC0F3
:1008F000E6FFADC0E6FFABEC0DF006EC0FF03BEC15
:100900000EF000017251BEEC0FF004EBE6FF56EC66
:100910000FF03BEC0EF080C0E6FF81C0E6FF9CECE0
:100920000DF000016E51BEEC0FF0BFC0C8F8080119
:10093000C96BC8BFC969B5EC10F0BEC0C8F80801E2
:10094000C96BC8BFC969B5EC10F07BEC10F021ECA5
:100950000EF000016F51BEEC0FF0D0EC0EF0C8C0ED
:10096000E6FF21EC0EF000017051BEEC0FF09AC0D2
:10097000E6FF9BC0E6FF9CEC0DF0390EE66E0B0E19
:1009800010EC0EF047E9E7CFD9FF120059EC10F058
:1009900042E89C0EE66EA10EE66E000EA0EC0FF093
:1009A00096EC10F0000113511411151115E013C04D
:1009B000F6FF14C0F7FF15C0F8FF0800F5500CE073
:1009C00013C0E6FF14C0E6FF15C0E6FFEAEC0DF029
:1009D0008AEC0FF0EAEC0DF08C0EE66EA10EE66EDE
:1009E000000EE66EEAEC0DF03F0EE66E0B0E10EC1C
:1009F0000EF0CCEF0FF0BEEC0DF085E942E8A3EC71
:100A00000FF0850EE66EA10EE66E000EA1EC10F062
:100A10005CEC10F0F350056EF450066E2CEC0FF009
:100A2000B7EC0DF000017251E66EE66AB7EC0DF01E
:100A3000B6C0E6FFB7C0E6FFB7EC0DF0B8C0E6FF02
:100A4000B9C0E6FFB7EC0DF00001BD51E66EE66AF5
:100A5000B7EC0DF0C0C0C8F80801C96BC8BFC969C0
:100A60009BEC0FF0B7EC0DF0FDEC0EF040EC0EF04F
:100A70000EEC10F040EC0EF0020404E13B0EE66ECA
:100A80000B0E03D03D0EE66E0B0EE66E03EBE6FF9B
:100A90001CDC43E9CCEF0FF0BEEC0DF083E949E834
:100AA000010E0B6E020E0B6E0050011001E135D1EC
:100AB00080EB03F081EB04F065EC0EF008E065ECF0
:100AC0000EF0200804E0032A000E0422F5D765EC9E
:100AD0000EF0200801E021D10CEC0FF0A3EC0FF098
:100AE00027EC0FF01CEC77F044E9000901E115D187
:100AF000090EA8EC0EF026EC10F0A8EC10F0A3EC18
:100B00000FF0ECEC0DF0A3EC0FF0D2EC83F04AE91F
:100B1000A6EC0DF050EC0EF0FDEC71F046E9A6EC01
:100B20000DF036EC0EF01CEC77F044E9000901E022
:100B3000F4D0A3EC0FF0A6EC0DF03CEC77F044E918
:100B400027EC0FF0EAEC0FF026EC10F0A8EC10F018
:100B500060EC10F0D2EC83F04AE950EC0EF0ADEC12
:100B60000EF0FCEC82F048E9096A0A6AD8900A5053
:100B700004E6000E095C040E0A580AE2D7EC0FF0F6
:100B8000ADEC0EF0F9EC0EF0092A000E0A22EED7B9
:100B900050EC0EF09BEC0EF0FCEC82F048E9096A98
:100BA0000A6AD8900A5004E6000E095C040E0A583E
:100BB0000AE2D7EC0FF09BEC0EF0F9EC0EF0092AEC
:100BC000000E0A22EED70B01010E006F0A0EA8ECF0
:100BD0000EF005EBE9FF06EBEAFFEF50500845E1A8
:100BE0000B0130511FE1096A0A6A160ED8900ABE3D
:100BF00003D0095C000E0A5813E2C7EC0DF0CCBF1D
:100C0000CD696BEC0EF0190E0924E96E0B0E0A206B
:100C1000EA6EE552E750EF6E092A000E0A22E5D788
:100C20000B012F6B306B7D0EE66EA10EE66E000E93
:100C3000A0EC0FF080EC0FF0EAEC0FF053EC00F0BA
:100C4000F8EC0FF00B01010E306FA8EC0EF076EC13
:100C50000FF0A8EC10F080EC0FF0ECEC0DF080EC55
:100C60000FF0D2EC83F04AE902D00B01306B0501A2
:100C7000FAAF51D0FA9FDAEC0EF05B0EE66EA10EE1
:100C8000E66E000E97EC0FF0076EF450086E0F0E34
:100C9000F66E000EF76E000EB3EC0FF0C3EC0DF025
:100CA000100EF66E000EF76E000EB3EC0FF0C3ECF4
:100CB0000DF081EC0EF0E1EC0FF047EC0FF00001CD
:100CC00010511111121108E05AEC0FF0E1EC0FF085
:100CD000A4EC10F0DDEC10F00B504DEC10F0C3EC78
:100CE0000DF00501F951FCEC0FF00501FA51E66E2B
:100CF000E66A8AEC0FF0E1EC0FF0CCEC33F047E958
:100D0000DDEC10F00501FB51FCEC0FF0140E02ECD1
:100D10000EF0F8EC0FF049EC66F04AE9E7CFD9FFA6
:100D20001200BEEC0DF083E942E80B0100511EE118
:100D3000070EE66EE66A530EE66EA10EE66E000E34
:100D4000E66EA3EC0FF064EC76F047E9000901E0F1
:100D5000CFD0070E0801002455EC0EF09DDE42E9CD
:100D60000601060ED06F0E0ED16FC2D0A6EC0DF0AC
:100D7000A3EC0FF0FFEC72F044E9BBEC0EF00501C0
:100D8000FABF03D00501410EFB6F36EC0EF0A6EC66
:100D90000DF0ADEC0EF0F9EC0EF0050EE66EE66A25
:100DA0004D0EE66EA10EE66E000EA1EC10F064ECA6
:100DB00076F047E9000905E0400EE66E31EC14F0EC
:100DC0008DD0050E006E070E016EB6EC0EF0EF50E2
:100DD000450837E161EC0FF04D0833E1020E0026C3
:100DE000000E0122010EE66E060EE66E7FEC10F09C
:100DF000FFEC72F044E9BBEC0EF0EFEC0FF0036A8D
:100E0000046AD890045004E6000E035C040E0458F3
:100E100008E2D7EC0FF023EC10F0032A000E0422B6
:100E2000F0D736EC0EF0010EE66E060EE66E23EC01
:100E300010F0B6EC0EF0EFCF00F6000E006E060ECE
:100E4000016E0501FABF03D00501420EFB6FB6EC3F
:100E50000EF0EF50430A44E02B0A37E0320A11E06B
:100E60001B0A46E1460EE66EA10EE66E000EA0ECF1
:100E70000FF00B0101513CE153EC00F07CEC00F071
:100E80001ED061EC0FF030081DE00001010EC56FAF
:100E90000B0101512DE153EC00F0E66A93EC01F0F7
:100EA00041E9E66ADFEC02F041E9E66A12EC03F0A0
:100EB00041E9E66A38DC41E9E66A9EDC41E96EEC2C
:100EC00000F016D00001C56B13D07FEC10F0C2EC1F
:100ED0006BF042E9F3CFE6FF70EC66F041E908D031
:100EE0007FEC10F007D842E90B01015101E1D2D9A2
:100EF000CCEF0FF0BEEC0DF083E942E880EB03F09D
:100F000081EB04F065EC0EF008E065EC0EF02C08C7
:100F100004E0032A000E0422F5D765EC0EF02C083D
:100F200002E10CEC0FF0A3EC0FF0C2EC6BF042E925
:100F3000F3CF41FBF4CF42FB03EB43FB04EB44FB59
:100F4000CCEF0FF0E5EC10F045E8020EC7EC0FF027
:100F50000501FABF03D00501430EFB6F310E0B01F3
:100F6000411901E1425101E17BD1290E411901E111
:100F7000425101E166D1280E411901E1425101E1DE
:100F80003DD1070E411901E1425101E1DBD0060ECE
:100F9000411901E1425101E1D2D0050E411901E1AF
:100FA000425101E1C3D0040E411901E1425101E176
:100FB00081D0030E411901E142515AE0020E41195C
:100FC00001E1425122E0010E411901E1425102E0EA
:100FD000000E5CD1016A100E015C01E356D1015094
:100FE000E66EE66A3B0EE66EA10EE66E000EACEC17
:100FF00010F0100EAFEC0FF068EC0FF0EF50AFEC0C
:101000000FF07CEC00F0012AE6D785EC0FF0BBEC8A
:101010000DF006E039EC10F003E08CEC10F0F7D79F
:1010200039EC10F001E07AD071EC10F071E2100EA2
:10103000015C6EE28DEC0FF031EC0FF0E66E68ECC7
:101040000FF0E552E750EF6E080E015C09E38DECFE
:101050000FF0080E015C180FE66E7AEC80F043E9A1
:101060000F0E015C02E1A6EC5DF0D4EC0EF05BD05B
:10107000016A200E015C01E308D101EBE6FF4CECB4
:101080000EF0090E015C03E183EC10F0EF6A0150F1
:10109000E66EE66A300EE66EA10EE66E000EACEC71
:1010A00010F0200EAFEC0FF01CEC0EF07CEC00F01A
:1010B000012ADFD785EC0FF0BBEC0DF006E039EC30
:1010C00010F003E08CEC10F0F7D739EC10F026E1CB
:1010D00071EC10F01DE2180E015C1AE201500108DB
:1010E00003E3BBEC0DF014E08DEC0FF001EBE6FF39
:1010F0007AEC80F043E9D4EC0EF092EC0FF0020EA3
:10110000015C03E00E0E015C76E1A6EC5DF073D0AD
:10111000A80EE66E0B0EE66E010E05D07C0EE66E96
:101120000B0EE66E010E92EC0FF065D0D4EC0EF0D3
:10113000E2EC10F0040EE66E31EC14F0A5D02AECCF
:101140000DF059D02BEC10F0CBEC0EF013EC33F08B
:1011500044E90501000EFE6F080EFF6F000EE66EFB
:10116000E66A4FEC11F042E9CBEC0EF0D60EE66EDB
:10117000060EE66EC4EC40F044E9016EFEC5E9FFE0
:10118000FFC5EAFFEF6A0501FE6BFF6BBBEC10F0D9
:10119000ACEC10F0010ED8800154AFEC0FF0015010
:1011A0002AE05DEC0EF02C0EEF6E000E026E080EC3
:1011B000036EBBEC0DF01AE0BBEC0DF00A0804E185
:1011C0005DEC0EF00D0E0ED039EC10F004E15DEC8C
:1011D0000EF03B0E07D0BBEC0DF0E66E5DEC0EF0B2
:1011E000E552E750EF6E8CEC10F0E3D704EBE9FF2B
:1011F00005EBEAFFEF6A7CEC00F047D085EC0FF0DE
:10120000BBEC0DF006E039EC10F003E08CEC10F0D4
:10121000F7D739EC10F00DE10BEC0EF013EC39F0D0
:1012200042E936EC0FF0450EE66EA20EE66E000EB9
:101230001ED053EC00F07C0EE66E0B0EE66E010E37
:101240001DD0240EE66EA10EE66E000E31EC0EF0FF
:1012500049EC0FF01E0EE66EA10EE66E000E07D0F2
:1012600049EC0FF01C0EE66EA10EE66E000E31EC9E
:101270000EF0050E02EC0EF0D4EC0EF0E2EC10F0E5
:10128000020EE66E0DEC2EF041E9010E46E9E7CFC5
:10129000D9FF12000501FABF03D00501440EFB6F10
:1012A000020EC7EC0FF0280E0B01D89042BF03D0FE
:1012B000415D000E425907E3423507E241513108D2
:1012C000000E425502E253EC00F000013751381194
:1012D00039110FE02BEC10F0C0EC0EF0010EE66EB1
:1012E00039C0FBFF38C0FAFF3751140045E9000947
:1012F0000AE128DE000907E1170EE66E0C0EE66E25
:10130000010EE2EC10F06EEC00F00B01416B426B51
:1013100043CBE9FF44CBEAFFEF6A1200BEEC0DF0CD
:1013200085E90B0100512DE0015100082AE3050178
:10133000FABF03D00501450EFB6F020E02EC0EF062
:10134000C2EC10F0090EE66EA10EE66E000E76EC11
:1013500010F08DEC0FF0EAEC0FF0000EE66EA10E2F
:10136000E66E000E76EC10F09B0E0024E96E000E87
:101370000120EA6EEF6AA3EC0FF0EAEC0FF0F8EC54
:101380000FF041E9E7CFD9FF1200BEEC0DF084E980
:1013900044E8066A076A0B01005101E17BD0015065
:1013A000021001E177D0005075E00050E66EE66A69
:1013B000220EE66E17EC0EF046EC76F045E9F3509F
:1013C000066EF450076E065007102FE0062A000E36
:1013D000072208016FEC0FF0C851005E86EB01F0A8
:1013E00087EB02F0E5EC0EF0EF501CE0E5EC0EF0C0
:1013F000EF50220817E06FEC0FF00050D890C9BFF3
:1014000003D0C85D000EC9590DE2E5EC0EF0EF50B7
:101410002C0804E1E5EC0EF02E0EEF6E062A000E0D
:101420000722E0D7E5EC0EF0EF6A290EE66EE66AD9
:10143000590EE66EA20EE66E000EACEC10F00650F1
:1014400007100CE0F4DBFC0EE66EA00EE66E000E5C
:10145000E66EDCEC0FF05CEC10F007D0E50EE66E0B
:10146000A00EE66E000EA4EC0EF0B8EC10F00B012E
:101470000151000805E2140EC7EC0FF0046A056A7A
:1014800053EC00F0F8EC0FF00450051003E1140EDB
:10149000C7EC0FF045E9E7CFD9FF12006FDB83E916
:1014A0004CE800017651036E7751046E00017451CF
:1014B000056E7551066E0001AA51076EAB51086E9C
:1014C000AC51096EAD510A6EE10E0B6EA00E0C6EA2
:1014D000000E0D6E4B0E00010F5D23E1C7DBD0EC5B
:1014E0000FF00801C851036EC951046EAAEC0FF049
:1014F000D0EC0FF00801C851056EC951066E15EC0D
:101500000FF029DB0801C851076EC951086ECA5196
:10151000096ECB510A6EDD0E0B6EA00E0C6E000E26
:101520000D6E0001DF3533E298C0E6FF99C0E6FF9B
:10153000D20EE66EA00EE66E000E01DBE2C0E6FF04
:10154000E3C0E6FFCF0EE66EA00EE66E000EF7DA01
:10155000DFC0C8F80801C96BC8BFC9699BEC0FF0B0
:10156000CB0EE66EA00EE66E000EE9DAE4C0E6FFF2
:10157000E5C0E6FFC20EE66EA00EE66E000EDFDAF4
:10158000B50EE66EA00EE66E000EE66EDCDA000129
:101590006CA5B6D0010E0E6E00016851040A18E069
:1015A000070A10E0020A08E0010A19E1A90EE66E36
:1015B000A00EE66E000E11D09E0EE66EA00EE66E38
:1015C000000E0BD0950EE66EA00EE66E000E05D056
:1015D000860EE66EA00EE66E000EE66EB4DA000130
:1015E00066510F0A20E0020A18E0090A10E0060A14
:1015F00008E0030A20E17D0EE66EA00EE66E000E06
:1016000017D0670EE66EA00EE66E000E11D0590ED2
:10161000E66EA00EE66E000E13D04F0EE66EA00E24
:10162000E66E000E05D03D0EE66EA00EE66E000ED4
:10163000E8EC10F008D02C0EE66EA00EE66E000E60
:10164000E8EC10F00E6A0E5062E060C0E6FF61C088
:10165000E6FFAFEC10F073DA00016251E66EE66A65
:10166000260EE66EA00EE66E000E69DA240EE66E19
:10167000A00EE66E000EE8EC10F00001D5350BE28E
:10168000D4C0E6FFD5C0E6FF1B0EE66EA00EE66EE8
:10169000000E55EC10F00001DC51000811E2DC51A5
:1016A000E66EE66AAFEC10F04ADAD8C0E6FFD9C0C1
:1016B000E6FF110EE66EA00EE66E000E55EC10F081
:1016C0000001DA510008000EDB5521E24B0E00014B
:1016D0000F5D03E1CFEC10F001D0CDDB9BEC0FF000
:1016E000AFEC10F0D4EC0FF0D6C0E6FFD7C0E6FFA9
:1016F0000E0EE66EA00EE66E000E21DAA2DB05D01D
:10170000010EE66EA00EE66E000EE66E1CDAA4DB9D
:10171000F90EE66E9F0EE66E000E11DAF70EE66E1B
:101720009F0EE66E000EE8EC10F00550061009E082
:10173000AAEC0FF0E70EE66E9F0EE66E000ED4ECFC
:101740000FF00350041008E091DAD80EE66E9F0EF9
:10175000E66E000ED4EC0FF00750081009100A10C6
:101760000AE01EDB62DBD00EE66E9F0EE66E000E18
:101770000CDBD5EC10F00001D251D31107E02FDBC8
:10178000C80EE66E9F0EE66E000EFFDA00EBF3FF6A
:1017900001EBF4FF4DE9E7CFD9FF1200EFD985E95E
:1017A0005BE800017451056E7551066E076A086AA0
:1017B000096A0A6A0001D2510B6ED3510C6E000106
:1017C00060510D6E61510E6E000163510F6E106A13
:1017D00000018051116E8151126E00016851136E2B
:1017E000146A156A166A000140514111421109E15B
:1017F000B60EE66E9F0EE66E000EE66EF2EC10F090
:1018000025D10050011001E180D09DDB76EC77F00E
:1018100042E9F3501B6EF4501C6E95DB64EC78F0DB
:1018200042E91C3469E21B500008000E1C5464E2BB
:1018300008010BDAEF501F6E08DAEF6A1C344AE237
:101840001B500108000E1C5445E27DDB0ADB1D6EB7
:10185000F4501E6E1F50440A38E0070A2AE0020ABC
:1018600023E0170A1CE0010A15E0720A0EE0600A84
:1018700007E0160A3DE19DEB05F09EEB06F038D03F
:101880009DEB07F09EEB08F033D09DEB09F09EEB4B
:101890000AF02ED09DEB15F09EEB16F029D09DEBB3
:1018A0000DF09EEB0EF024D09DEB0FF09EEB10F0B0
:1018B0001FD0640EE66EE66A1DEBE6FF1EEBE6FF48
:1018C0001ADB0C6EE7500B6E13D09DEB11F09EEB04
:1018D00012F00ED01F50500A08E0020A04E0010A7C
:1018E00007E1136A04D0030E01D0040E136E146ACC
:1018F0000801ABD91FEBEFFF26DBEEEC3AF042E933
:10190000F350006EF450016E7CD70E3418E20D5087
:101910000008000E0E5413E2103411E20F500008BC
:10192000000E10540CE20FEBE6FF10EBE6FF0DEBA0
:10193000E6FF0EEBE6FFDFDA166EE750156ED89085
:10194000165004E6E80E155C030E165806E29D0ECE
:10195000E66E9F0EE66E000E66D0D950170FE66E4B
:10196000DACFE6FF11EBE6FF35DA09EBE6FF0AEB2B
:10197000E6FF27DBEFDA15EBE6FF16EBE6FF13EBEE
:10198000E6FF42C0FBFF41C0FAFF000140511400D6
:101990004EE9F350196EF4501A6EDCDAC9D917EB20
:1019A000E6FF18EBE6FF980EE66E9F0EE66E000E61
:1019B000E66EB6DBBBDB8D0EE66E9F0EE66E000EAE
:1019C000E66E08D91A3424E269DAC7EC57F0B0D9C8
:1019D000300EE66E020EE66EE66A60DACAEC57F08A
:1019E000E552E5CFC9F8E7CFC8F80801CA6BCB6B61
:1019F000C9AF02D0CA69CB6909DA8B0EE66E9F0EB9
:101A0000E66E000EE66E89DA1AEC34F04CE919D075
:101A1000FD0E19180BE1FF0E1A1808E17C0EE66E98
:101A20009F0EE66E000EE66EDDDB0BD019EBE6FFD7
:101A30001AEBE6FF740EE66E9F0EE66E000EE66E83
:101A40006FDB74DB02EBF3FF03EBF4FF5CE9E7CF42
:101A5000D9FF1200BADB42E8020E99DA93DB4CD9C7
:101A6000E6D81CDD42E998D28DDA520EE66E9F0E62
:101A7000E66E000E65DAC9D085DA270EE66E9F0E97
:101A8000E66E000E5DDAC1D07DDAE6D9F70EE66EBD
:101A90009E0EE66E000E55DB9EDB2ED9F00EE66E36
:101AA0009E0EE66E000EADD26DDA00010EA308D0D8
:101AB00022DBDBDAC90EE66E9E0EE66E000E07D064
:101AC0001ADBD3DAB10EE66E9E0EE66E000E39DB3F
:101AD0001FDB12D965D9C8C0E6FFC7DAA90EE66ECA
:101AE0009E0EE66E000EE66EA2D812DB05D9A60E9B
:101AF000E66E9E0EE66E000E84D240D887E942E87C
:101B0000020E80D8CC0EE66E050EE66E9E0EE66ED8
:101B10009E0EE66E000E15DBBAD94EDAE66AE66A6C
:101B2000B5D800EBE6FF83D803EBE6FFAFD86DD066
:101B300041DB51DBB8EF10F0EDD9F2DA09D2E66EF5
:101B400002DA49DB74D2FFD9FFDA71D2000EE66EF9
:101B5000070EE66E1200C9EC2EF044E9FCC0C8F88E
:101B6000FDC0C9F8FEC0CAF8FFC0CBF81200D2D938
:101B7000F1D931DB61D2C7DAEF501200D9CFE6FFDD
:101B8000E1CFD9FF1200E66E1CDA25DB5AD208013C
:101B90005A0EC86F0D0EC96F010ECA6F400EE66E69
:101BA000E66AC9D9CAC8E6FF58EC6EF0E552E7CF3D
:101BB000CAF8E552E7CFC9F8E552E7CFC8F850DADE
:101BC000CAEC57F0E552E5CFCCF8E7CFCBF80801E7
:101BD000CD6B120007DBBCD176EC77F042E930EF39
:101BE00010F0E66EFCDA68DAB3D1F5DA39DAA4EF90
:101BF00010F0000EE66E030EE66EFC0EE66E040EAE
:101C0000E66E1200C4D953EF00F0F2D9C5D1ABD9BA
:101C1000E66E86DA9DD177DA7FDAEF6A2BEF10F085
:101C2000E66E00EBE6FF65EC01F043E9120001EB24
:101C3000E6FF02EBE6FF120070D9BCDA3DDAB8EF3E
:101C400010F013DACCDA64DA83D11B04C86F000E0B
:101C50001C58C96FC8510024E96EC9510120EA6EB1
:101C60001200E66E96EC12F043E9120003EBE6FF79
:101C700004EBE6FF1200B3DA74EC33F049E968D103
:101C800049D968D93FEC35F049E9D6D143D999D93A
:101C900074EC33F049E9D5D167EC80F041E958D1D3
:101CA000100EE66EE66A26EF10F0C86F000E0120F7
:101CB000C96FC8C8E6FFE66E120004EBE9FF05EB4A
:101CC000EAFF042A000E0522120003EBE9FF04EBF1
:101CD000EAFFEF501200C851CB25F36EC951CC2159
:101CE000F46ECA51CD21F86EF4CFF7FFF3CFF6FFB3
:101CF0000800F550E66E1200F350016EF450026ECB
:101D000012000E0EE66E67EC80F041E9A9D96AEF89
:101D100010F0EA6A0234FE0BE96EEA369C0EE92600
:101D2000000EEA22EECFC8F8EFCFC9F80801120082
:101D30009CD9F6D90DD1000EE66E010EE66EF80EB6
:101D4000E66E040EE66E1200E66E36D9A4EF10F0D1
:101D5000E66E67EC80F041E96FD1000EE66E020E90
:101D6000E66EFA0EE66E040EE66E120000EBE9FF78
:101D700001EBEAFF1200F350036EF450046E120000
:101D800041CBE6FF42CBE6FF1200E66EDCD8ACECBE
:101D900034F04BE94CD1000EE66E060EE66E1200F2
:101DA000010EE66EE66A1200790EE66E0B0EE66E26
:101DB000010E12000E0EF66E000EF76E000EF86E9B
:101DC0000800F550E66EE66A120006EBE9FF07EB45
:101DD000EAFF12000BEBE6FF0CEBE6FF1200020E2F
:101DE000E66EE66AD2C0E6FFD3C0E6FFE66AE66AC0
:101DF000120069EC83F048E91200AEC0E6FFAFC004
:101E0000E6FFB0C0E6FFB1C0E6FF120094D8CAC832
:101E1000E6FFCBC8E6FF120003EBE9FF04EBEAFFA5
:101E2000032A000E0422EF6A1200CBD809EBE6FF6A
:101E30000AEBE6FF1200470EE66EA20EE66E000EFB
:101E40001200150EE66EA00EE66E000E1200020ED7
:101E5000E66E0B0EE66E120000017351E66EE66A46
:101E60001200C2EC6BF042E9F350120056D8F8ECC5
:101E700012F042E91200DAC0C8F8DBC0C9F8080164
:101E8000CA6BCB6B12003FEC35F049E961D014D935
:101E9000D8D0E1D8F8EC12F042E912003C0EE66E20
:101EA000E66A19EBE6FF1AEBE6FF120053D807EBE0
:101EB000E6FF120010C0E6FF11C0E6FF12C0E6FF09
:101EC00012000028E96E000E0120EA6EEF501200A9
:101ED0000150EA6AE90FE96E050EEA22120001508C
:101EE000065CC86F02500758C96F1200E80EE66E14
:101EF000040EE66E12007FEC59F0E552E550120038
:101F0000190EE66E0B0EE66E12004351026E44513E
:101F1000036E120010D9E66E120002EBE6FF03EB2F
:101F2000E6FF1200E66E27D90CD9F5EF0DF009D9BE
:101F300052D9F3501200C8C8E6FFC9C8E6FF120024
:101F400000D9A4EF10F000EBE6FF01EBE6FF120072
:101F500096EF10F005EBE6FF06EBE6FF1200E66EEB
:101F6000E66A98EF0DF0F86E0800F550E66EE66A46
:101F7000B40EE66EA10EE66E000E1200E66EE66A84
:101F80009CEF0DF022D942E8020E02EF0EF0E66E51
:101F90000DEC2EF041E9120043E9E7CFD9FF120022
:101FA000E66AE66AABEF0DF0CADDD5EF10F0070187
:101FB000006BF6DEA6EF0DF004EBE6FF05EBE6FFA7
:101FC000120007EBE6FF08EBE6FF1200046EF45088
:101FD000056E1200BBDDC8EC76F044E91200100E6D
:101FE000E66EE66A83DF05DEFCEC82F048E912006B
:101FF0007CEC00F06EEF00F0E66EE66A9CD8C3EF72
:102000000DF0E66E14DEA0D877DEFFD57CEC00F094
:10201000ADDE04EBEEFF05EBEDFF1200B2C0E6FF14
:10202000B3C0E6FFB4C0E6FFB5C0E6FF1200F35050
:10203000006EF450016E1200F350056EF450066EFF
:102040001200DDEF10F0D5DDF9EF0EF0D80EE66EE0
:10205000040EE66E120043CBE6FF44CBE6FF12000F
:10206000F3CFE6FFF4CFE6FF1200E66AE66AE66A1F
:10207000120081DD2C08120076EC77F042E93CDE9C
:1020800017EF0EF0330EE66EA20EE66E000E31EF85
:102090000EF0ECDDA0D8BBEF0EF0E66EE66AAF0EF8
:1020A000E66EA10EE66E000E120049DDCADEE8EF14
:1020B00010F064DD82E9120029EC33F047E91200E8
:1020C00045DD8ADDA6EF0DF033DD76C0E6FF77C093
:1020D000E6FF1200B20EE66EA10EE66E000EE66E90
:1020E000120099DDBEDE016ED89012002AD8ECEC09
:1020F00076F045E9120054DEC7C0E6FF1200080181
:10210000002855EF0EF002EBE9FF03EBEAFF1200A7
:1021100056EC34F04BE91200022A000E03221200A2
:10212000FCDEEBEF10F007DF98EF0DF0F350026EDE
:10213000F450036E12002A0EE66EA20EE66E000E3A
:102140001200E66EA6EF0DF0F2EC32F045E9120057
:1021500001DF42DDAAEF0FF0EADEE6EF0FF0290E15
:10216000E66EA00EE66E000E1200E5DE9CEF0DF0AE
:10217000F350E6EF0FF004DE720EE66E0B0EE66E25
:10218000010E1200140EE66EA10EE66E000EA0EF18
:102190000FF006DFFCC0E6FFFDC0E6FF1200DAC06C
:1021A000E6FFDBC0E6FFD0EF0FF014DE0DEBE6FF3D
:1021B000A3EF0DF0AFDEDCEF0FF0F350076EF4503D
:1021C000086E1200AFDE7CEF00F0D8DC81E912006F
:1021D000E66EA3EF0DF049EC33F047E912009ADE0A
:0A21E0008DEF0FF09ADEA4EF10F06F
:0621EA00D8CFE4FFE0CFB6
:1021F000E4FFE46EDACFE4FFE2CFDAFFE9CFE4FFF9
:10220000EACFE4FFD9CFE4FFDACFE4FFFCC0E4FF7C
:10221000FDC0E4FFFEC0E4FFFFC0E4FFF6CFE4FF33
:10222000F7CFE4FFF8CFE4FFF5CFE4FFF3CFE4FF0F
:10223000F4CFE4FFFACFE4FFFBCFE4FFE65289ECF2
:1022400082F05DEC81F0E552E5CFFBFFE5CFFAFFD0
:10225000E5CFF4FFE5CFF3FFE5CFF5FFE5CFF8FFDE
:10226000E5CFF7FFE5CFF6FFE5CFFFF0E5CFFEF0D6
:10227000E5CFFDF0E5CFFCF0E5CFDAFFE5CFD9FF04
:10228000E5CFEAFFE5CFE9FFE5CFDAFFE550E5CF9F
:10229000E0FFE5CFD8FF10000901009B120005EC1C
:1022A0001FF083E90050011003E01FEC1FF010E164
:1022B000E66A12EC1FF052EC1FF03CEC77F044E9B8
:1022C0000801D60EC86F060EC8C8F3FFF46E04D01E
:1022D00000EBF3FF01EBF4FFE6EF1FF095EC20F0CD
:1022E00041E80501FABF03D00501300EFB6FD9505C
:1022F000010FE66EDACFE6FF58EC82F042E9000902
:1023000001E112D1FF0E0601EB5D01E0BED0C85124
:1023100003E07F0EC85D22E10A0E015CE8E00D0ECD
:10232000015C03E10A0E016E19D0080E015C06E1A2
:10233000EA51000803E273EC20F0D9D7010403E06E
:10234000030E015C0BE1EA6B0801006B9B0EE66E6D
:102350009E0EE66E000E00EC1FF0C9D70D0E015C5C
:10236000C6E043EC20F085EC1FF004E1C95102E126
:102370000601EA073A0E015C25E1060E0601EA5D58
:1023800021E3CFEC1FF01EE1490E015D1BE1500E71
:10239000025D18E1440E035D15E10501FABF03D0AB
:1023A0000501310EFB6F0601EA05F5EC1EF0EF6A40
:1023B000050EE66E080EE66E96EC1FF0FD0EEB6F56
:1023C000EA6B95D70A0E015C92E10501FABF03D0D2
:1023D0000501320EFB6F060173EC20F0040EEA5D7E
:1023E0004DE3CFEC1FF04AE1430E015D47E14D0E96
:1023F000025D44E1540E035D41E1070E016E0150A0
:10240000012AF5EC1EF0EF50220804E00601EA5123
:10241000015CF5E30104F5EC1EF0EF6A0601D66BF2
:10242000140EE66EE66A070EE66E080EE66E52ECD5
:102430001FF0D4EC77F046E90601E96BEA51016E32
:1024400001500106F5EC1EF0EF502C0802E001509F
:10245000F7E101500801C96B000FC86F080EC923CE
:10246000020EC827000EC923C8C8E6FFC9C8E6FF88
:1024700096EC1FF0EA6BFE0EEB6F39D7060142ECCB
:102480001FF00801006B06014DD0FE0EEB5D2AE146
:102490000501FABF03D00501330EFB6F0D0E015C81
:1024A00003E00A0E015C08E10601EA51EA2BF5ECB3
:1024B0001EF0200EEF6E03D0060143EC20F085ECF9
:1024C0001FF004E1C95102E10601EA070601EC0729
:1024D000EC5101E00CD7EA51F5EC1EF0EF6A42EC4A
:1024E0001FF020D00501FABF03D00501340EFB6FA9
:1024F0000D0E015C0AE0060143EC20F085EC1FF0B4
:1025000004E1C95102E10601EA070601EC070A0EDF
:10251000015C04E173EC20F042EC1FF0EC5101E0AF
:10252000E6D6EA6BEB69E3D6EAEF1FF005EC1FF0A5
:1025300084E941E80501FE51FF110DE098EC20F01F
:1025400055E0EEEC1FF052E298EC20F09BEC20F00E
:102550009FEC1FF0F3D77F0E0601C85D3BE1046AD4
:1025600098EC20F00A080CE10D0E045C09E009016A
:1025700000B1FDD70D0EE66E28EC1FF010E1FAD782
:102580000D0E045C0CE198EC20F00A0808E009014B
:1025900000B1FDD70A0EE66E28EC1FF0FBE098ECC8
:1025A00020F024E0090100B1FDD7A1EC20F0FDE00E
:1025B000D9CFE9FFDACFEAFFEFCFF6FFEE2AEFCF70
:1025C000F7FF000EEE22EFCFF8FFEE220800F550E5
:1025D000046EC6D798EC20F009E0090100B1FDD7E0
:1025E000A1EC20F0FDE09FEC1FF0F4D7EAEF1FF024
:1025F00005EC1FF083E941E80501FE51FF110EE0F3
:102600001FEC1FF04DE0EEEC1FF04AE21FEC1FF054
:102610009BEC20F0002A000E0122F2D77F0E06016B
:10262000C85D31E1036A1FEC1FF00A080CE10D0ED2
:10263000035C09E0090100B1FDD70D0EE66E28EC40
:102640001FF010E1FAD70D0E035C0CE11FEC1FF038
:102650000A0808E0090100B1FDD70A0EE66E28EC71
:102660001FF0FBE01FEC1FF01BE0090100B1FDD7DC
:1026700065EC20F0FDE0C7EC20F0002A000E0122FE
:10268000EF50036ED0D71FEC1FF00AE0090100B134
:10269000FDD765EC20F0FDE0002A000E0122F3D703
:1026A000EAEF1FF005EC1FF082E90501FE51FF1172
:1026B00008E0EEEC1FF00DE25DEC1FF000EBEFFF29
:1026C00008D0090100B1FDD700EBE6FF28EC1FF0B0
:1026D000FBE0E6EF1FF005EC1FF087E90450051062
:1026E0001FE00601F751041802E1F851051814E043
:1026F000080E0501F71510E104EBF1F605EBF2F613
:1027000000EBF3F601EBF4F602EBF5F603EBF6F66D
:1027100004EBF7F605EBF8F606013C0EF96F05D071
:10272000BFEC1FF0F76BF86BF96BE6EF1FF005ECF1
:102730001FF083E942E8030EE66E50EC20F0036ED2
:10274000F450046E970EE66E9E0EE66E000E32ECAE
:102750001FF00AE000EBC9F8C86BC8510601FA1374
:102760000801C9510601FB13940EE66E9E0EE66E3B
:10277000000E32EC1FF005E006010050FA13015084
:10278000FB1343E9E7CFD9FF120005EC1FF083E903
:1027900046E849EC20F000EBE6FF01EBE6FFA6EC93
:1027A00020F05BE0F2EC1EF0B9EC1FF056E08EEC8E
:1027B00020F053E08EEC20F050E005EBE9FF06EB53
:1027C000EAFFEF504F0849E10528E96E000E0620A8
:1027D000EA6EEF502D0841E1DBEC1FF0020E08011C
:1027E0000524C86F000E0620C96FC8C8E6FFE66E54
:1027F000A6EC20F032E0DBEC1FF02AEC20F0056EB6
:10280000F450066E8CEC1FF050EC20F0076EF45084
:10281000086E055006100BE107EBE9FF08EBEAFF35
:10282000EF501BE08F0EE66E9E0EE66E11D005EBAC
:10283000E6FF06EBE6FF07EBE6FF08EBE6FF1CEC26
:1028400077F044E9000909E005EBE6FF06EBE6FF57
:102850008CEC1FF07AEC80F043E947E9E7CFD9FF31
:10286000120005EC1FF082E942E800EBC8F6060111
:10287000C851240A01E16FD1070A01E161D1010ABF
:1028800001E158D1030A01E12BD1010A01E112D182
:10289000600A01E1F1D0030A01E1D0D0010A01E1AF
:1028A000A6D0030A01E190D0530A01E17DD0030ACA
:1028B00070E0010A5BE0160A4DE0030A42E0010AFB
:1028C00039E0070A2BE0010A27E0030A17E07E0A35
:1028D00012E07F0A01E04CD10501FE6BFF6B06019F
:1028E000BBEC20F057EC1FF00601010ECD6F0A0E75
:1028F000CE6FCF6B3DD12EEC68F03AD10A0E5AEC78
:1029000020F00601030ECD6F140ECE6FCF6B0001C9
:10291000C56B4CEC00F02CD1CD6B2AD157EC1FF0DD
:1029200021EC2EF00601020ECD6F65EC1FF00601C2
:10293000CC6B1ED1050ECD6F0A0E65EC1FF00A0E92
:10294000AED0060ECD6F020ECE6FCF6BC96B21ECF1
:102950002EF00ED1E66AB4EC1EF00501FABF03D0EA
:102960000501F00EFB6FE5EC2DF002D1090E5AECDB
:1029700020F0C7EC1FF0EEA106D0FA0EE66E080EAE
:10298000E66E010ED4D0060EE66E090EE66E010E5E
:10299000CED0080E5AEC20F0C7EC1FF0120EE66EF7
:1029A000090EE66E010EC3D0070E5AEC20F00601A8
:1029B000030ECD6F230ECE6FCF6BC96B2D0EE66E5F
:1029C000090EE66E010EB3D0050ED6EC20F0A8EC91
:1029D0001FF006E2070E4FEC1FF00601400E05D077
:1029E000080E4FEC1FF00601020ECD6F14D0050E3D
:1029F000D6EC20F0760EE66E9E0EE66E000E00EC33
:102A00001FF0090E4FEC1FF0A8EC1FF002E2430E7E
:102A100001D0020ECD6FCAC6CEF6CBC6CFF60A0ED7
:102A2000D880CE57000ECF570F0ECF03F3CFCFF67F
:102A3000CE03F3CFCEF6F450CF279AD0050E5AEC42
:102A400020F048EC1FF00601020ECD6F3C0ECE6F59
:102A5000CF6B070EC96F0001C56B50EC00F0C0ECE6
:102A600020F05E0EE66E9E0EE66E000E00EC1FF08D
:102A70000601400EC86F7CD0050E5AEC20F048ECE1
:102A80001FF0B7EC1EF013E0F3EC84F000090FE048
:102A90000601020ECD6F3C0E65EC1FF0020EFBEC42
:102AA0001EF0830EE66E9E0EE66E000E40D006010E
:102AB000200EC86F020E5AEC20F00B01016B0601CC
:102AC000CD6BC96B0001C30507E0050EC35D04E0D3
:102AD000780E0601D26F02D00601D26BD36B48D0BC
:102AE000060E5AEC20F0C0EC20F00601030ECD6F6C
:102AF000780ECE6FCF6B50EC00F00D0EB7EC1EF0E1
:102B000006E1820EE66E090EE66E010E10D0500E42
:102B1000E66E9E0EE66E000E00EC1FF02DEC1FF030
:102B2000F8EC1FF0460EE66E9E0EE66E000E00EC10
:102B30001FF01ED00A0ECE6FCF6B400ECD6F18D097
:102B4000060E5AEC20F00601240ECD6F2C0ECE6F2F
:102B5000010ECF6F0DD0CC51CC2B0801C86F140ED5
:102B6000C85D02E2020E01D0030EE66E7ADE41E994
:102B700043E9E7CFD9FF120095EC20F05BE80501AF
:102B8000FABF03D00501350EFB6FFE0E0601EB5DAB
:102B900020E10001C30507E0050EC35D04E048EC39
:102BA0001FF018EC20F00501FABF03D00501360E26
:102BB000FB6F1BEC20F052EC1FF0C4EC40F044E93A
:102BC0000501FABFAAEF1AF00501350EFB6FAAEF57
:102BD0001AF0FF0EEB5D15E00501FABF03D0050109
:102BE000370EFB6F1BEC20F091EC06F042E905017B
:102BF000FABF03D00501350EFB6FF3EC1FF0AAEF0F
:102C00001AF0080EEA5D0DE3080EE66EE66A3D0E68
:102C1000E66E9E0EE66E000E9EEC1EF002E1AAEF3E
:102C20001AF00601C8517F0A02E1A5EF1AF05F0A07
:102C300001E13FD2600A01E167D1630A01E14AD1B3
:102C4000020A01E100D1330A01E1D4D0030A6FE0A6
:102C5000010A2EE0110A18E0010A02E0AAEF1AF0B8
:102C6000050EEA5D02E2AAEF1AF0D3EC1FF0370E70
:102C7000E66E9E0EE66E000E9EEC1EF002E0AAEFDF
:102C80001AF07F0E91EF1AF0020EEA5D02E2AAEF4F
:102C90001AF0D7EC1FF002E0AAEF1AF04B0E015D1C
:102CA00002E0AAEF1AF018EC20F0100E91EF1AF0E3
:102CB000040EEA5D23E3CFEC1FF020E1430E015D3B
:102CC0001DE1530E025D1AE14D0E035D17E11BEC91
:102CD00020F076EC77F042E9F3CFE9FFF4CFEAFF9A
:102CE000E906000EEA5A000EE926080EEA22EF5025
:102CF000310802E1AAEF1AF0030E62D00601C951B1
:102D000002E0AAEF1AF0020EEA5D02E2AAEF1AF060
:102D1000D7EC1FF002E0AAEF1AF04B0E015D02E0C3
:102D2000AAEF1AF018EC20F0110E91EF1AF0100E25
:102D3000EA5D17E3380E0801005D13E1390E015D0D
:102D400010E1180EE66EE66A1BEC20F0D10EE66E7E
:102D5000050EE66ED4EC77F046E90501E86BAAEFC4
:102D60001AF0080E0601EA5D16E3CFEC1FF013E13E
:102D7000430E015D10E1500E025D0DE1420E035D58
:102D80000AE1460E045D07E13A0E055D04E11BEC25
:102D900020F0FBDCB3D1080E0601EA5D17E3CFECAF
:102DA0001FF014E1430E015D11E1500E025D0EE1D2
:102DB000490E035D0BE1520E075D01E1CBD3040E1A
:102DC0004FEC1FF00601010EC96FC4D30601C951B3
:102DD00001E0C0D3020EEA5D01E2BCD3D7EC1FF0E4
:102DE00001E0B8D34B0E015D01E0B4D318EC20F044
:102DF000120E97D3060EEA5D15E3CFEC1FF012E139
:102E0000490E015D0FE1500E025D0CE1520E035DB3
:102E100009E1390E065D06E0C60EE66E090EE66EA5
:102E2000010E8AD1020E0601EA5D01E293D3D7ECCE
:102E30001FF001E08FD34B0E015D01E08BD318EC46
:102E400020F0210E6ED3020EEA5D0BE3D7EC1FF0EB
:102E500008E14B0E015D05E1F3EC1FF0CC6B220E97
:102E600060D3050E0601EA5D07E3450E0801005D2B
:102E700003E1520E015D03E02FEC20F002E1230E8E
:102E800050D3FCEC1FF0250EE66E9E0EE66E000E93
:102E90009EEC1EF001E05ED349EC20F0000EE66EE1
:102EA000080E77EC1FF001E155D3F2EC1EF078EC40
:102EB00020F001E14FD3080EE66EE66A6CEC1FF0DD
:102EC000C90EE66E000EE66ED4EC77F046E900011E
:102ED000D16B40D35DEC20F001E03CD32C0E080117
:102EE000085D03E1070E091502D0070E0715000162
:102EF000C36FE80404E0050EC35D01E02BD3F3ECDF
:102F00001FF0CC6B400E0DD3020EEA5D16E3450EAA
:102F10000801005D12E1520E015D0FE1020E060193
:102F2000C95D01E1E4D2030EC95D01E1E0D2050E05
:102F3000C95D01E00FD3030EF4D2020E0601EA5D73
:102F400006E3D7EC1FF003E14B0E015D0CE0530EDE
:102F50000801005D03E1480E015D05E0050E060174
:102F6000C95D01E092D00601EA6B1E0ECE6FCF6BF9
:102F70000001C46BC0EC20F00601C92BC951090A3D
:102F800001E181D0010A69E00F0A61E0010A3BE03A
:102F9000030A33E0010A2BE0070A20E0010A0CE0F3
:102FA000030A01E0D7D20B0EE66E9E0EE66E000E0F
:102FB00000EC1FF0050E0ED0FE0EE66E9D0EE66EC6
:102FC000000E00EC1FF0050E20EC20F0060E20ECA9
:102FD00020F0070EE66E12EC1FF031D0040ED6EC96
:102FE00020F0F00EE66E9D0EE66E000EA5D0E20E0D
:102FF000E66E9D0EE66E000E9FD0D80EE66E9D0E1C
:10300000E66E000E99D0160EE66E50EC20F0016EC2
:10301000F450026E01EBE9FF02EBEAFFEF5006E12C
:10302000D40EE66E9D0EE66E000E86D0C70EE66EDE
:103030009D0EE66E000E00EC1FF06CEC1FF0F8EC3D
:103040001FF0080EE66E9E0EE66E000E75D05E0E48
:10305000E66E9E0EE66E000E6FD0030ED6EC20F0EC
:10306000B30EE66E9D0EE66E000E00EC1FF0040E31
:10307000E66E12EC1FF0F8EC1FF0A90EE66E9D0E46
:10308000E66E000E59D0200E4CD2070EEA5D0BE31F
:10309000080EE66EE66AA00EE66E9D0EE66E000E67
:1030A0009EEC1EF004E039EC20F001E053D2020E59
:1030B00038D25DEC20F024E12C0E0801085D03E11C
:1030C000070E091502D0070E07150001C36FE804AB
:1030D00003E0050EC35D05E10601D26BD36BE66A22
:1030E0000AD00601D251D31101E034D2780ED26F4A
:1030F000D36B010EE66EE66A26EC81F042E92AD235
:10310000D3EC1FF08E0EE66E9D0EE66E000E9EEC6A
:103110001EF015E10001C30507E0050EC35D04E0E4
:1031200048EC1FF018EC20F0010EFBEC1EF0960EA0
:10313000E66E090EE66E010E00EC1FF00BD2D3EC2A
:103140001FF0880EE66E9D0EE66E000E9EEC1EF0E1
:1031500001E09CD0080E0601EE15000801E3FAD14B
:10316000070EE66E080EE66E2BEC32F01AEC1FF03E
:10317000036EC951046ECA51056ECB51066E0350E1
:103180000001781908E10450791905E105507A1910
:1031900002E106507B1901E1DDD10350785D045056
:1031A000795905507A5906507B5938E2D950030FA6
:1031B000E96EDACFEAFF7851EE5C0801C86F0001D2
:1031C0007951EE580801C96F00017A51EE58080193
:1031D000CA6F00017B51EE580801CB6FC851076ED2
:1031E000C951086ECA51096ECB510A6E00017C515B
:1031F0007D117E117F1108E007507C2708507D2348
:1032000009507E230A507F23000107507827085079
:10321000792309507A230A507B239CD1D950030F7C
:10322000E96EDACFEAFFEE50785D0801C86FEE5024
:10323000000179590801C96FEE5000017A5908015F
:10324000CA6FEE5000017B590801CB6FC8510B6E5D
:10325000C9510C6ECA510D6ECB510E6E00017C51DE
:103260007D117E117F1108E00B507C5F0C507D5B5F
:103270000D507E5B0E507F5B00010B50785F0C5051
:10328000795B0D507A5B0E507B5B64D1090EE66E64
:10329000E66A7E0EE66E9D0EE66E000E9EEC1EF059
:1032A0006AE1010E0601EE15000865E2A9EC20F0C6
:1032B000090EE66E080E77EC1FF0A5EC1EF006E096
:1032C00001EBE9FF02EBEAFFEF50176EA5EC1EF0F1
:1032D000A5EC1EF009E0B0EC20F00F6EC951106EA5
:1032E000CA51116ECB51126EA5EC1EF009E0B0EC84
:1032F00020F0136EC951146ECA51156ECB51166E63
:10330000A5EC1EF005E0B5EC20F0186EF450196E37
:10331000A5EC1EF0A5EC1EF005E0B5EC20F01A6E51
:10332000F4501B6E0150021001E114D1010E17146C
:103330000001BD6FBD511CE00FEBAEF010EBAFF024
:1033400011EBB0F012EBB1F013EBB2F014EBB3F001
:1033500015EBB4F016EBB5F018EBB8F019EBB9F0CB
:103360001AEBB6F01BEBB7F00001780EC06FF2D08D
:103370000001C06BEFD00A0EE66EE66A710EE66ED3
:103380009D0EE66E000E9EEC1EF004E10001C4519D
:1033900026E119D0070EE66EE66A690EE66E9D0E0E
:1033A000E66E000E9EEC1EF042E1110EE66EE66A3D
:1033B000570EE66E9D0EE66E000E9EEC1EF013E1BB
:1033C0000001C4510CE1010EE66EE66E26EC81F0C0
:1033D00042E953EC00F0F0EC00F06EEC00F000017C
:1033E000010EC46FB7D0150EE66EE66A410EE66EAA
:1033F0009D0EE66E000E9EEC1EF001E1ABD0110EAC
:10340000E66EE66A2F0EE66E9D0EE66E000E9EECF0
:103410001EF056E00001C46B020ED6EC20F0000155
:10342000C30563E0050EC35D01E094D05ED0D3EC2C
:103430001FF0290EE66E9D0EE66E000E9EEC1EF04D
:1034400011E12C0E0801085D08E1070E06150A0DB2
:10345000070E07150801F32402D0070E0615000118
:10346000C66F78D0070EE66EE66A210EE66E9D0EF8
:10347000E66E000E9EEC1EF051E00B0EE66EE66A64
:10348000150EE66E9D0EE66E000E9EEC1EF003E13C
:103490000B01016B5FD0FCEC1FF00E0EE66E9D0E73
:1034A000E66E000E9EEC1EF00BE00C0EE66EE66A79
:1034B000010EE66E9D0EE66E000E9EEC1EF004E11F
:1034C00050EC00F0420E2DD0090EE66EE66AF70EC3
:1034D000E66E9C0EE66E000E9EEC1EF006E02FECF3
:1034E00020F003E039EC20F004E150EC00F0410E54
:1034F00018D0040EE66EE66AF30EE66E9C0EE66EDB
:10350000000E9EEC1EF00AE0FCEC1FF0EC0EE66EE6
:103510009C0EE66E000E9EEC1EF008E150EC00F0F2
:10352000010EE66E31EC14F041E914D0FCEC1FF012
:10353000E50EE66E9C0EE66E000E9EEC1EF00AE1B5
:10354000E2EC1FF0C5EC09F004D0E2EC1FF00AEC4D
:103550006AF043E95CE9E7CFD9FF120095EC20F06F
:1035600046E80501FABF03D00501380EFB6F0601DE
:10357000F951000805E2F907F95102E1F76BF86B20
:10358000C8517F0A01E1CCD15F0A6CE0220A68E0F1
:10359000210A50E0020A43E0330A34E0030A27E03C
:1035A000010A1AE0110A01E0BDD1050ECE5D000E40
:1035B000CF5903E2020E4FEC1FF00601EEA106D038
:1035C000D20EE66E080EE66E010E26D0E00EE66E16
:1035D000080EE66E010E20D0030E0AEC20F001E08A
:1035E000A1D1060EE66E090EE66E010E15D0030E91
:1035F0000AEC20F001E096D1120EE66E090EE66E9E
:10360000010E0AD0030E0AEC20F001E08BD12D0E42
:10361000E66E090EE66E010E00EC1FF083D1140E6B
:10362000CE5D000ECF5901E37DD1FCEC1FF026ECFE
:1036300081F02AD10A0E0AEC20F001E073D1C0EC2F
:1036400020F0BC0EE66E090EE66E010ED9DB090114
:103650004151000803E2010ECEDBF9D7020E5BD127
:10366000E66A22D0FF0EEB5D09E0ED0503E1ED6BAC
:10367000EB690FD0ED51010801E2ED07D2510008CE
:10368000000ED35508E2D207000ED35BD251D311FE
:1036900002E1210E08D000EC20F009E2012B0151DB
:1036A0003C0805E2400EE66E31EC14F037D1000123
:1036B000C30504E0050EC35D01E016D10B014151C5
:1036C000421106E00B01000503E10B0101514FE03F
:1036D0000601F1510008000EF25520E20B01000531
:1036E0001DE10B0101511AE18BEC20F00601F151B3
:1036F0000008000EF2550FE2F3C6E6FFF4C6E6FF3F
:10370000F5C6E6FFF6C6E6FFF1C6E6FFF2C6E6FF3F
:103710007DEC0DF046E9BFEC1FF004D1FF0E47DB56
:1037200067E20B01000564E10B01015161E18BECE3
:1037300020F0200E3CDB05E20601FA9B34EC0DF094
:10374000F1D0040E34DB16E20601FA95FC5101E0DB
:10375000E9D0060E0B01416F426B0B01D950020FED
:10376000436FDACF44FBE96EDACFEAFFEF6A4AEC47
:1037700009F0D8D0080E1BDB07E20601FA97EEA38A
:10378000D1D054EC0DF0CED0100E11DB05E20601C5
:10379000FA993CEC0DF0C6D0020E09DB0BE20601F3
:1037A000FA938BEC20F0020EE66E93EC01F041E907
:1037B00002081BD0010EFBDA1BE20601FA910001A0
:1037C000C551000815E2020E016E8BEC20F001EBF2
:1037D000E6FFFCEC03F055EC20F093EC01F041E93E
:1037E000016E020E015C01E19DD06EEC00F09AD0FA
:1037F00029DBFF0EE6DA58E28BEC20F0000EE66ED5
:10380000E66A4FEC11F042E91DDB200EDADA06E23F
:103810000601FB9B47DB03EC3AF036D013DB040ECA
:10382000D0DA1DE20601FB95FC5101E07BD0E00EF1
:10383000E66E9C0EE66E000EE66ED950020FE66E46
:10384000DACFE6FFF2EC32F045E9D950020FE66E2E
:10385000DACFE6FF27DBC4EC40F044E963D0F2DACC
:10386000080EAFDA08E20601FB97EEA35BD01ADB85
:103870003EEC3AF009D0E6DA100EA3DA07E20601D0
:10388000FB9910DB14EC3AF042E94CD0DBDA020E83
:1038900098DA03E20601FB9307D0D4DA010E91DA3D
:1038A00003E20601FB913ED00001725100081CE2C8
:1038B000010E0501F11518E00B01015115E10001A0
:1038C000C551000811E2010E0601EE1504E0020EDA
:1038D000C3EC20F009E1020EE66EDFEC02F041E9F4
:1038E000020802E06EEC00F000016C51800B04E174
:1038F0003C0EC3EC20F016E10B01015113E1010E67
:103900000601EE1500080EE2EE0EE66E080EE66EFB
:10391000010E76DA010EE66E0DEC2EF041E902D0D2
:1039200044EC68F047E9E7CFD9FF12000501FABF80
:1039300003D00501390EFB6F0601C851200A01E0D2
:1039400012005EDB02E271EF1FF03C0EC3EC20F0D0
:1039500011E0C0EC20F09B0EE66E090EE66E010E43
:103960004FDA09014151000803E2010E44DAF9D7A8
:10397000020E41DA1200D9DB43E80501FABF03D099
:1039800005013A0EFB6F0001C7510CE1EADAA2DB38
:10399000B2DAC2EC56F041E9E7500001C76F00010E
:1039A000C86B2CD0020EE66EE66ADBDAFCC0CEF8FD
:1039B000FDC0CFF8FEC0D0F8FFC0D1F89CDAFBEC18
:1039C00056F0E552E5CFCDF8E7CFCCF80001C7516E
:1039D0000801CC25CA6F000ECD21CB6FCA2B000E7B
:1039E000CB23CAC8E6FFCBC8E6FFC7EC57F0E552C9
:1039F000E5CFC9F8E7CFC8F8C8C8C7F0000170B96B
:103A000007D00F0E0001C85D09E200016CAF03D0C2
:103A10000001C86B0ED00001C82B0BD00F0EC85D83
:103A200008E100016C51800B04E1C7C0C8F000013F
:103A30000E930001C8510F0826E200016CAF03D0BD
:103A400000010E9320D0020E00010E150AE1100EA7
:103A50000001C85D0001D880C75503E300010E8353
:103A60000CD0020E00010E150EE00A0E0001C85D1A
:103A70000001C75D08E300010E93080EE66EE66ADA
:103A800097EC13F042E90601C851200A2AE1B8DA9E
:103A900002E227DA26D00001C4050CE1D0EC65F083
:103AA000000808E238DB53EC00F0D3EC65F06EEC74
:103AB00000F017D00001C40510E10001C551000855
:103AC0000CE229DB1BDB01E01EDB0C0E50D901E010
:103AD0001EDB58D902E06EEC00F0010E0601C91998
:103AE000C96F44E9E7CFD9FF12000501FABF03D03F
:103AF00005013B0EFB6F120018DB44E80001660570
:103B00000DE0020E665D0AE00F0E665D07E0800EB6
:103B100000016C15000802E3000E01D0010E046ED6
:103B20000501FABF03D005013C0EFB6F0601C85129
:103B3000200A4CE10001E9510001735D2CE2800E86
:103B400000016C1528E10601F0510FE10001C405E8
:103B50000DE10B0101510AE10601EEA502D044EC92
:103B60000DF00601480EF06F01D0F0070601EF518D
:103B700010E1E66A95DA026EF450036E0601EEA5D6
:103B800004D06BD925EC3AF042E90601480EEF6FFC
:103B900006D0EF0704D00601060EEF6FF06F0001AC
:103BA000C40514E10001C55111E104500FE028DA09
:103BB00002E297D90BD0A2DA01E0A5DA0C0ED7D831
:103BC00001E0A5DADFD802E06EEC00F045E9E7CFCE
:103BD000D9FF1200AADA44E8000166050DE0020EE2
:103BE000665D0AE00F0E665D07E0800E00016C1551
:103BF000000802E3000E01D0010E046E0501FABFB9
:103C000003D005013D0EFB6F0601C851200A17E1E4
:103C10000001C40514E10001C55111E104500FE198
:103C2000EFD902E25ED90BD069DA01E06CDA0C0E52
:103C30009ED801E06CDAA6D802E06EEC00F045E90F
:103C4000E7CFD9FF12000501FABF03D005013E0EF0
:103C5000FB6F0601FC51000801E2FC07D02B000EAF
:103C6000D123CD51000811E2CEC6C8F8CFC6C9F89D
:103C7000CE07000ECF5B0801C851C91106E1CDC6C1
:103C8000E6FF31EC14F041E901D068DC1E0E7BDA6E
:103C900001E14CDE3C0E77DA01E16DDE2C0EE66EC2
:103CA000010EE66EB1D901E120DF580EE66E020E7C
:103CB000E66EAAD901E120DF100EE66E0E0EE66E6A
:103CC000A3D906E187DF100E0601D05F0E0ED15B8F
:103CD0000601D407000ED55BD451D51124E1E66A64
:103CE00043D8060148DA0501F32BF351E66EE66A84
:103CF000E66AE66AE66A000EE66E070EE66E49ECD4
:103D000033F047E9000EE66E070EE66E1A0EE66E19
:103D10007AEC80F043E90501FABF03D00501F10E0A
:103D2000FB6FE5EC2DF01200120012EC82F00001A6
:103D3000C36BE66A31EC14F041E91200E66E7BD900
:103D400064EC76F047E90009120003DA83D978EFD2
:103D500020F012EC58F0E552E5CFC9F8E7CFC8F8EB
:103D60000801C851C91112005DD918EF20F0E66EA4
:103D700097D9026EF450036E02EBE9FF03EBEAFF02
:103D8000EF50120001EBE6FF93EC01F08ED9DFEC6F
:103D900002F08BD912EC03F088D9FCEC03F085D942
:103DA000C6EC04F041E9016E020E015C120006014E
:103DB000FA150801C86FC96BC8510008000EC95533
:103DC00012000601FB150801C96FC8510008000E5A
:103DD000C955120000EBF6FF01EBF7FF02EBF8FF0D
:103DE0000800120056D92AEF20F0EA6A000FE96EA7
:103DF000080EEA221200E66E0DEC2EF041E91200E8
:103E0000E66E96EC12F043E91200D9CFE6FFE1CF5F
:103E1000D9FF1200E66E01EBE6FFFBEC04F044E98B
:103E2000016E120067EC80F041E9F3CFE6FFF4CFBA
:103E3000E6FF120042E94ED90801C8511200A7D985
:103E4000EF501200000E0601FA150801C86F1200AB
:103E50002EEC82F041E90009120002EBE6FF03EBD1
:103E6000E6FF1200E66E03EBE6FF04EBE6FF02EC72
:103E700078F045E9F3CFC8F8F4CFC9F80801F3505A
:103E8000F410120078D9BCEC15F00601EA6B1200B0
:103E90000601D26BD36B0001050EC36F1200E66EF4
:103EA000CCEF20F0D60EE66E060EE66E1200E66847
:103EB000B9D8E66871D94DEF81F0FEC5E9FFFFC5BD
:103EC000EAFFFE2B000EFF231200CE6FCF6BC96BF3
:103ED0000001C56B50EF00F001EBE6FF02EBE6FFDF
:103EE0001200050E0601D05F000ED15B1200E66ED7
:103EF00058D978EF20F0FCC0E6FFFDC0E6FFFEC019
:103F0000E6FFFFC0E6FF64EF5AF0EA510801C86F10
:103F1000C96BC80EC819120003EBE6FF04EBE6FFFD
:103F2000C2EC6BF042E9F3CFE6FF1200C2EC6BF09B
:103F300042E9F3CFECF606013C0EED6F1200D9CF4B
:103F4000E9FFDACFEAFFEE2A000EEE22EE2212009F
:103F50000601CA07000ECB5BCA510008000ECB5504
:103F60001200E66AE66A200EE66E410EE66E24EF67
:103F700085F0036EF450046E035004101200060125
:103F8000F16BF26BF36BF46BF56BF66B12000601E1
:103F9000030ECD6F5F0ECE6FCF6BC96B12002B0E71
:103FA0000801005D1200050EE66EE66A12004F0E73
:103FB0000801005D1200900EE66E9E0EE66E000E89
:103FC000E66E1200EAC6E6FF1BEF20F041E9E7CFFC
:103FD000D9FF120042E9E7CFD9FF1200BD0EFE5D06
:103FE000080EFF5912000A0E0601CA6FCB6B1200B1
:103FF000F8EC12F042E91200060EE66EE66A1200D4
:104000000B01015100081200D0C6E6FFD1C6E6FF41
:10401000A9EF1EF0E66EE66ACEC6E6FFCFC6E6FF63
:10402000A9EF1EF0010EE66E26EC81F042E91200C7
:10403000E66ACCEF20F0000EE66E080EE66E120087
:10404000E66EF0DED5DFFA0EE66E9D0EE66E000E31
:1040500000EF1FF0000EE66EE66AD1EF20F00A0EC8
:10406000E66EE66A2C0EE66E9E0EE66E000E9EEF83
:104070001EF00B0EE66EE66A940EE66E9D0EE66E80
:10408000000E9EEF1EF0EA51EA2BAFDE01EBEFFFD0
:104090001200920EE66E9E0EE66E000EE66E1200A6
:1040A00067EC80F041E9F350120041E9016E01EB49
:1040B000E6FF1200E66EB4EF1EF075DF1F0EE66E2F
:1040C0009E0EE66E000E9EEF1EF061D8EFCFE6FF6B
:1040D00028EF1FF0FCC0C8F8FDC0C9F8FEC0CAF840
:1040E000FFC0CBF81200EA07EA517FDEEF6A120048
:1040F000016EF450026E015002101200020E016EA9
:104100000B0EB7EF1EF0A9DE010E0AEF1FF0A5DEC1
:10411000020E0AEF1FF00A0EFBEF1EF063DE056EC3
:10412000F450066E0550061012006FDE81E9120091
:1041300051DEF5501200E66EC0DEE552E750EF6E3C
:10414000120048DEF5CFE6FF28EF1FF02AD8B9EFBE
:104150001FF07C0EE66E9D0EE66E000EE66E1200FF
:10416000BBDED4EC31F01AEF1FF0B6DEC2EC6BF020
:1041700042E9F3501200080ED46F070ED56F1200FB
:10418000020EFBEF1EF0E66EE66A04EF20F000EB95
:10419000E9FF01EBEAFF1200E66A26EC81F042E952
:1041A000120055EC85F045E9F3501200E66E12EF6F
:0241B00020F0FD
:0E41B2002FEC2CF083E931EC2BF08FEC2BF08E
:1041C000EE6AEE6AEE6AEE6A31EC2BF0EE6AEE6AA7
:1041D000EE6AEE6A8DEC2CF0010EEE6E230EEE6EA2
:1041E000450EEE6E670E8CEC2BF08FEC2BF0890EEB
:1041F000EE6EAB0EEE6ECD0EEE6EEF0E8CEC2BF087
:10420000080EE926000EEA22FE0EEE6EDC0EEE6EC1
:10421000BA0EEE6E980E8CEC2BF00C0EE926000E0A
:10422000EA22760EEE6E540EEE6E320EEE6E100E2A
:10423000EE6E41E9E7CFD9FF12002FEC2CF087E9B1
:1042400048E80801030ECC6F34EC2BF076EC2BF031
:1042500004E008017CEC2BF0FDE191EC2BF0076E03
:10426000C951086ECA51096ECB510A6E00EBCCF8E9
:1042700001EBCDF8CE6BCF6BCDAF02D0CE69CF695D
:10428000030E1F0B04E0080199EC2BF0FDE134EC68
:104290002BF00801CC51EF26EECFC8F8CD51EF221C
:1042A000EECFC9F8CE51EF22EECFCAF8CF51EF22B0
:1042B000EECFCBF800EBD0F801EBD1F8D26BD36B9B
:1042C000D1AF02D0D269D369030E1F0B08E00801F9
:1042D000D890D037D137D237D337E806F9E1080183
:1042E000D051C85DD151C959D251CA59D351CB59B6
:1042F00008E234EC2BF08FEC2BF0EE2AEE22EE22CB
:10430000EE2200EBC8F801EBC9F8CA6BCB6BC9AF62
:1043100002D0CA69CB691D0E7CEC2BF0FDE134ECB8
:104320002BF08FEC2BF0080152EC2CF0400ECC6FF0
:10433000CD6BCE6BCF6BD950070F6DEC2BF0EE50E1
:10434000CF59C8510D6EC9510E6E0E3401500E1862
:1043500004E60D50005C0E50015845E30DEBE6FFFE
:104360000EEBE6FF02EBE6FF03EBE6FF61EC2BF062
:10437000E9CFCAF8EACFCBF80750E924C86F085054
:10438000EA20A0EC2BF083EC76F046E961EC2BF010
:1043900064EC2BF048EC2BF08DEB0BF08EEB0CF07B
:1043A0003F0E08010B24C86F000E0C20C96F0134AA
:1043B000C951011804E60050C85D0150C9590EE208
:1043C00002500B24C86F03500C20A0EC2BF048ECDB
:1043D0002BF0400E0B26000E0C22E2D7076A086A6B
:1043E000096A0A6A02D00B6A0C6A0B50005CC86F3B
:1043F0000C500158A0EC2BF002500B24CA6F035054
:104400000C20CB6FCAC8E6FFE66E61EC2BF0E9CF5B
:10441000CEF8EACFCFF80750E924CC6F0850EA2055
:10442000CD6FCCC8E6FFE66E83EC76F046E9A5EFEB
:104430002BF02FEC2CF085E951E8080EA9EC2BF0BD
:1044400031EC2BF064EC2BF0D950050FE66EDACF8F
:10445000E6FF6DEC28F048E90801030ECC6F31EC63
:104460002BF076EC2BF004E008017CEC2BF0FDE166
:1044700091EC2BF0D6EC2CF0380E0D5C000E0E58A3
:10448000000E0F58000E10580DE2380ECC6FCD6B99
:10449000CE6BCF6BD9500D0F6DEC2BF0CA6FEE5079
:1044A000CF5913D0780ED06FD16BD26BD36BD9505C
:1044B0000D0FC6EC2DF0D05DC86FEE50D159C96F0D
:1044C000EE50D259CA6FEE50D359CB6F5BEC2CF043
:1044D000115012101310141004E0800E156EDEEC53
:1044E0002CF0156AD950110F56EC2DF0EE06000E87
:1044F000EE5AEE5AEE5A115012101310141003E037
:10450000DEEC2CF0EFD7080EE66EE66AD950050F08
:1045100037EC2BF0100EA9EC2BF08DEC2CF064ECAA
:104520002BF002EBE6FF03EBE6FF6DEC28F048E929
:1045300052E9E7CFD9FF12002FEC2CF085E950E8C3
:1045400002EBE9FF03EBEAFFEE50056EEE50066E5C
:10455000EE50076EEF50086E040E42EC2BF0EE505A
:10456000096EEE500A6EEE500B6EEF500C6E080E98
:1045700042EC2BF0EE500D6EEE500E6EEE500F6EC4
:10458000EF50106E0C0E42EC2BF0EE50116EEE5010
:10459000126EEE50136EEF50146E400EA9EC2BF01D
:1045A00000EBE6FF01EBE6FF450EE66E0B0EE66E56
:1045B000A2EC28F048E98BEC29F0D950090FC6ECA1
:1045C0002DF00801E5EC2CF0AFEC29F0ECEC29F033
:1045D000A4EC2DF006EC2AF0780ED46FA40ED56F63
:1045E0006A0ED66FD70E5AEC2DF004E0080181EC6C
:1045F00029F0FDE192EC2CF07AEC29F0FDE11FECC2
:104600002DF017EC2AF0560ED46FB70ED56FC70EEB
:10461000D66FE80E5FEC2DF004E0080181EC29F084
:10462000FDE196EC2CF07AEC29F0FDE100EC2DF0A8
:1046300028EC2AF0DB0ED46F700ED56F200ED66FEB
:10464000240E7DEC2DF004E0080181EC29F0FDE161
:104650009AEC2CF07AEC29F0FDE10DEC2DF039EC20
:104660002AF0EE0ED46FCE0ED56FBD0ED66FC10EF2
:1046700064EC2DF004E0080181EC29F0FDE19EECF2
:104680002CF07AEC29F0FDE11AEC2DF04AEC2AF03E
:10469000AF0ED46F0F0ED56F7C0ED66FF50E5AECA1
:1046A0002DF004E0080181EC29F0FDE192EC2CF002
:1046B0007AEC29F0FDE11FEC2DF05BEC2AF02A0EDC
:1046C000D46FC60ED56F870ED66F470E5FEC2DF0F8
:1046D00004E0080181EC29F0FDE196EC2CF07AEC85
:1046E00029F0FDE100EC2DF06CEC2AF0130ED46FF4
:1046F000460ED56F300ED66FA80E7DEC2DF004E07F
:10470000080181EC29F0FDE19AEC2CF07AEC29F01B
:10471000FDE10DEC2DF07DEC2AF0010ED46F950E2D
:10472000D56F460ED66FFD0E64EC2DF004E0080147
:1047300081EC29F0FDE19EEC2CF07AEC29F0FDE112
:104740001AEC2DF08EEC2AF0D80ED46F980ED56F9F
:10475000800ED66F690E5AEC2DF004E0080181EC52
:1047600029F0FDE192EC2CF07AEC29F0FDE11FEC50
:104770002DF09FEC2AF0AF0ED46FF70ED56F440EDC
:10478000D66F8B0E5FEC2DF004E0080181EC29F070
:10479000FDE196EC2CF07AEC29F0FDE100EC2DF037
:1047A000B0EC2AF0B10ED46F5B0ED56FD669D76925
:1047B00034EC2CF0CDEC2BF0110E1F0B04E00801B3
:1047C00081EC29F0FDE19AEC2CF07AEC29F0FDE186
:1047D0000DEC2DF0C1EC2AF0BE0ED46FD70ED56FC4
:1047E0005C0ED66F890E64EC2DF004E0080181ECBC
:1047F00029F0FDE19EEC2CF07AEC29F0FDE11AECB9
:104800002DF0D2EC2AF0220ED46F110ED56F900E3F
:10481000D66F6B0E5AEC2DF004E0080181EC29F004
:10482000FDE192EC2CF07AEC29F0FDE11FEC2DF08B
:10483000E3EC2AF0930ED46F710ED56F980ED66FFD
:10484000FD0E5FEC2DF004E0080181EC29F0FDE1A4
:1048500096EC2CF07AEC29F0FDE100EC2DF0F4EC74
:104860002AF08E0ED46F430ED56F790ED66FA60E3A
:104870007DEC2DF004E0080181EC29F0FDE19AECDB
:104880002CF07AEC29F0FDE10DEC2DF005EC2BF08D
:10489000210ED46F080ED56FB40ED66F490E64EC9E
:1048A0002DF004E0080181EC29F0FDE19EEC2CF0F4
:1048B0007AEC29F0FDE125EC2DF017EC2AF0620EE0
:1048C000D06F250ED16F1E0ED26FF60E69EC2DF053
:1048D00004E0080181EC29F0FDE1A2EC2CF07AEC77
:1048E00029F0FDE12FEC2DF06CEC2AF0400ED06F9A
:1048F000B30ED16F400ED26FC00EAEEC2DF004E0BF
:10490000080181EC29F0FDE1A6EC2CF07AEC29F00D
:10491000FDE139EC2DF0C1EC2AF0510ED06F5A0EAA
:10492000D16F5E0ED26F260EB2EC2DF004E00801BE
:1049300081EC29F0FDE1AAEC2CF07AEC29F0FDE104
:1049400043EC2DF006EC2AF0AA0ED06FC70ED16F03
:10495000B60ED26FE90EB6EC2DF004E0080181EC42
:1049600029F0FDE1AEEC2CF07AEC29F0FDE125EC2C
:104970002DF05BEC2AF05D0ED06F100ED16F2F0E74
:10498000D26FD60E69EC2DF004E0080181EC29F01D
:10499000FDE1A2EC2CF07AEC29F0FDE12FEC2DF0FA
:1049A000B0EC2AF0530ED06F140ED16F440ED26FBC
:1049B000020EAEEC2DF004E0080181EC29F0FDE1DF
:1049C000A6EC2CF07AEC29F0FDE139EC2DF005ECA9
:1049D0002BF0810ED06FE60ED16FA10ED26FD80EE4
:1049E000B2EC2DF004E0080181EC29F0FDE1AAEC25
:1049F0002CF07AEC29F0FDE143EC2DF04AEC2AF0A2
:104A0000C80ED06FFB0ED16FD30ED26FE70EB6EC8F
:104A10002DF004E0080181EC29F0FDE1AEEC2CF072
:104A20007AEC29F0FDE125EC2DF09FEC2AF0E60E62
:104A3000D06FCD0ED16FE10ED26F210E69EC2DF04B
:104A400004E0080181EC29F0FDE1A2EC2CF07AEC05
:104A500029F0FDE12FEC2DF0F4EC2AF0D60ED06F0A
:104A6000070ED16F370ED26FC30EAEEC2DF004E0FF
:104A7000080181EC29F0FDE1A6EC2CF07AEC29F09C
:104A8000FDE139EC2DF039EC2AF0870ED06F0D0ED8
:104A9000D16FD50ED26FF40EB2EC2DF004E0080108
:104AA00081EC29F0FDE1AAEC2CF07AEC29F0FDE193
:104AB00043EC2DF08EEC2AF0ED0ED06F140ED16F7A
:104AC0005A0ED26F450EB6EC2DF004E0080181ECD1
:104AD00029F0FDE1AEEC2CF07AEC29F0FDE125ECBB
:104AE0002DF0E3EC2AF0050ED06FE90ED16FE30E46
:104AF000D26FA90E69EC2DF004E0080181EC29F0D9
:104B0000FDE1A2EC2CF0F6DBFEE12FEC2DF028EC21
:104B10002AF0F80ED06FA30ED16FEF0ED26FFC0EFD
:104B2000AEEC2DF003E00801ECDBFEE1A6EC2CF08E
:104B3000E1DBFEE139EC2DF07DEC2AF0D90ED06FEF
:104B4000020ED16F6F0ED26F670EB2EC2DF003E044
:104B50000801D7DBFEE1AAEC2CF0CCDBFEE143EC54
:104B60002DF0D2EC2AF08A0ED06F4C0ED16F2A0EA7
:104B7000D26F8D0EB6EC2DF003E00801C2DBFEE132
:104B8000AEEC2CF0B7DBFEE18CEC2DF05BEC2AF008
:104B9000420ED06F390ED16FFA0ED26FD3693EEC50
:104BA0002CF0C5EC2BF0040E1F0B03E00801A9DB71
:104BB000FEE1B2EC2CF09EDBFEE18FEC2DF08EECF2
:104BC0002AF0810ED06FF60ED16F710ED26F870E64
:104BD000BAEC2DF003E0080194DBFEE1B6EC2CF01A
:104BE00089DBFEE192EC2DF0C1EC2AF0220ED06FB1
:104BF000610ED16F9D0ED26F6D0EBEEC2DF003E0F5
:104C000008017FDBFEE1BAEC2CF074DBFEE195ECF1
:104C10002DF0F4EC2AF00C0ED06F380ED16FE50EAB
:104C2000D26FFD0EC2EC2DF003E008016ADBFEE15D
:104C3000BEEC2CF05FDBFEE18CEC2DF0F8DB440EDB
:104C4000D06FEA0ED16FBE0ED26FA40E82EC2DF0A3
:104C500003E0080156DBFEE1B2EC2CF04BDBFEE199
:104C60008FEC2DF04AEC2AF0A90ED06FCF0ED16F49
:104C7000DE0ED26F4B0EBAEC2DF003E0080141DBE3
:104C8000FEE1B6EC2CF036DBFEE192EC2DF07DEC93
:104C90002AF0600ED06F4B0ED16FBB0ED26FF60EA6
:104CA000BEEC2DF003E008012CDBFEE1BAEC2CF0A9
:104CB00021DBFEE195EC2DF0B0EC2AF0700ED06F08
:104CC000BC0ED16FBF0ED26FBE0EC2EC2DF003E052
:104CD000080117DBFEE1BEEC2CF00CDBFEE18CECF6
:104CE0002DF0E3EC2AF0C60ED06F7E0ED16F9B0E36
:104CF000D26F280E82EC2DF003E0080102DBFEE10A
:104D0000B2EC2CF0F7DAFEE18FEC2DF07FDBFA0E3F
:104D1000D06F270ED16FA10ED26FEA0EBAEC2DF034
:104D200003E00801EEDAFEE1B6EC2CF0E3DAFEE196
:104D300092EC2DF09EDB850ED06F300ED16FEF0E12
:104D4000D26FD40EBEEC2DF003E00801DADAFEE1FA
:104D5000BAEC2CF0CFDAFEE195EC2DF0BDDB050EC0
:104D6000D06F1D0ED16F880ED26F040EC2EC2DF0E5
:104D700003E00801C6DAFEE1BEEC2CF0BBDAFEE18E
:104D80008CEC2DF0DCDB390ED06FD00ED16FD40E51
:104D9000D26FD90E82EC2DF003E00801B2DAFEE109
:104DA000B2EC2CF0A7DAFEE18FEC2DF0D2EC2AF079
:104DB000E50ED06F990ED16FDB0ED26FE60EBAEC16
:104DC0002DF003E008019DDAFEE1B6EC2CF092DA5A
:104DD000FEE192EC2DF005EC2BF0F80ED06F7C0E7E
:104DE000D16FA20ED26F1F0EBEEC2DF003E00801B2
:104DF00088DAFEE1BAEC2CF07DDAFEE195EC2DF0DC
:104E000027DB650ED06F560ED16FAC0ED26FC40E7D
:104E1000C2EC2DF003E0080174DAFEE1BEEC2CF0E8
:104E200069DAFEE198EC2DF0F1DA440ECC6F220E37
:104E3000CD6F290ECE6FF40E6EEC2DF003E008015D
:104E400060DAFEE1C2EC2CF055DAFEE19BEC2DF0CD
:104E500054DB970ECC6FCD692A0ECE6F430E73ECE8
:104E60002DF003E008014DDAFEE1C6EC2CF042DA49
:104E7000FEE19EEC2DF0B8DBA70ECC6F230ECD6FBC
:104E8000940ECE6FAB0E87EC2DF003E0080139DAFB
:104E9000FEE1CAEC2CF02EDAFEE1A1EC2DF00BDBEA
:104EA000390ECC6FA00ECD6F930ECE6FFC0E78EC4A
:104EB0002DF003E0080125DAFEE1CEEC2CF01ADA41
:104EC000FEE198EC2DF06EDBC30ECC6F590ECD6F6A
:104ED0005B0ECE6F650E6EEC2DF003E0080111DA6B
:104EE000FEE1C2EC2CF006DAFEE19BEC2DF0C1DA1B
:104EF000920ECC6FCC0ECD6F0C0ECE6F8F0E73EC6E
:104F00002DF003E00801FDD9FEE1C6EC2CF0F2D94A
:104F1000FEE19EEC2DF024DB7D0ECC6FF40ECD6F08
:104F2000EF0ECE6FCF6948EC2CF0CDEC2BF00F0ECE
:104F30001F0B03E00801E5D9FEE1CAEC2CF0DAD939
:104F4000FEE1A1EC2DF073DAD10ECC6F5D0ECD6FCA
:104F5000840ECE6F850E78EC2DF003E00801D1D9D8
:104F6000FEE1CEEC2CF0C6D9FEE198EC2DF0D6DABD
:104F70004F0ECC6F7E0ECD6FA80ECE6F6F0E6EEC07
:104F80002DF003E00801BDD9FEE1C2EC2CF0B2D94E
:104F9000FEE19BEC2DF039DBE00ECC6FE60ECD6F21
:104FA0002C0ECE6FFE0E73EC2DF003E00801A9D994
:104FB000FEE1C6EC2CF09ED9FEE19EEC2DF08CDAE1
:104FC000140ECC6F430ECD6F010ECE6FA30E87EC87
:104FD0002DF003E0080195D9FEE1CAEC2CF08AD946
:104FE000FEE1A1EC2DF0EFDAA10ECC6F110ECD6F2A
:104FF000080ECE6F4E0E78EC2DF003E0080181D93B
:10500000FEE1CEEC2CF076D9FEE198EC2DF042DA00
:10501000820ECC6F7E0ECD6F530ECE6FF70E6EEC00
:105020002DF003E008016DD9FEE1C2EC2CF062D94D
:10503000FEE19BEC2DF0A5DA350ECC6FF20ECD6FB4
:105040003A0ECE6FBD0E73EC2DF003E0080159D976
:10505000FEE1C6EC2CF04ED9FEE19EEC2DF0F8D925
:10506000BB0ECC6FD20ECD6FD70ECE6F2A0E87EC53
:105070002DF003E0080145D9FEE1CAEC2CF03AD945
:10508000FEE1A1EC2DF05BDA910ECC6FD30ECD6F6B
:10509000860ECE6FEB0E78EC2DF003E0080131D9CF
:1050A000FEE1CEEC2CF026D9FEE16CDB08D902EB58
:1050B000E9FF03EBEAFF6DEC2CF0040EE3DA64EC9D
:1050C0002CF0080EDFDA7FEC2CF00C0EDBDA76EC3D
:1050D0002CF051E9E7CFD9FF1200E7DA14DB31E217
:1050E000A8DBEDEC2CF0F4EC2CF0EFCFCBF80801C2
:1050F000C851E66E06500D24E96E07500E2071D996
:10510000080E0801F7D8FEE188EC2CF0C82B9DDBD7
:1051100068D9100E0801EED8FEE188EC2CF0020EE2
:10512000C82793DB5ED9180E0801E4D8FEE1F0DB56
:10513000030EC8278ADBEA6EE552E750EF6E7FDA8E
:10514000CDD703D3B2DADFDA01E38FD004500D24D8
:10515000E96E05500E20EA6EEFCFC8F80801C96B62
:10516000CA6BCB6B63DAD02B000ED123D223D323AF
:10517000D0510424E96ED1510520EA6EEFCFCCF86E
:10518000CD6BCE6BCF6B080E1F0B03E00801D1DA9D
:10519000FEE1F8DA0DEBD8F80EEBD9F80FEBDAF800
:1051A00010EBDBF8020ED827000ED923DA23DB231D
:1051B000D8510424E96ED9510520EA6EEFCFD4F816
:1051C000D56BD66BD76B100E1F0B08E00801D8907B
:1051D000D437D537D637D737E806F9E10801D451A7
:1051E000C813D551C913D651CA13D751CB130DEBE0
:1051F000E0F80EEBE1F80FEBE2F810EBE3F8030E4A
:10520000E027000EE123E223E323E0510424E96ECA
:10521000E1510520EA6EEFCFDCF8DD6BDE6BDF6B72
:10522000180E1F0B08E00801D890DC37DD37DE3799
:10523000DF37E806F9E10801DC51C813DD51C91375
:10524000DE51CA13DF51CB13F4DA0624E96E41E9CB
:10525000E5500720EA6EC8C8EEFFC9C8EEFFCAC80D
:10526000EEFFCBC8EEFFEBD96ED76FD2CC51C8138F
:10527000CD51C913CE51CA13CF51CB13120056ECE6
:105280002DF052EF2CF0C851056EC951066ECA516F
:10529000076ECB51086ED950050F56EC2DF064EF18
:1052A0002CF009DBD950110F56EC2DF06DEF2CF0DE
:1052B000C8517CDBD9500D0FF9DB76EF2CF0C851CB
:1052C000096EC9510A6ECA510B6ECB510C6ED95082
:1052D000090FECDB7FEF2CF0C6EC2DF0C81BEE5075
:1052E000C91BEE50CA1BEE50CB1B1200C6EC2DF0B2
:1052F000E5EF2CF0D890CF33CE33CD33CC33E80666
:105300001200D890C837C937CA37CB37E806120021
:10531000D36F3EEF2CF00DEBC8F80EEBC9F80FEB96
:10532000CAF810EBCBF8120005EBC8F806EBC9F889
:1053300007EBCAF808EBCBF8120009EBC8F80AEB48
:10534000C9F80BEBCAF80CEBCBF8120011EBC8F85C
:1053500012EBC9F813EBCAF814EBCBF8120009EB07
:10536000CCF80AEBCDF80BEBCEF80CEBCFF8120033
:1053700005EBCCF806EBCDF807EBCEF808EBCFF851
:10538000120011EBCCF812EBCDF813EBCEF814EBC6
:10539000CFF812000DEBCCF80EEBCDF80FEBCEF8FA
:1053A00010EBCFF81200F2DBC813EE50C913EE5029
:1053B000CA13EE50CB13D9501200D76F34EF2CF034
:1053C000CF6F48EF2CF0CC51C81BCD51C91BCE512B
:1053D000CA1BCF51CB1B1200CC1FCD1FCE1FCF1F1E
:1053E0001200EA6EE552E750EF6E23DAF6DAEECFFE
:1053F000CCF8EECFCDF8EECFCEF8EFCFCFF812004D
:10540000C81FC91FCA1FCB1FD95012000B0145511D
:105410000801C8270B0146510801C9230B01475158
:105420000801CA230B0148510801CB2312000B01CC
:1054300049510801C8270B014A510801C9230B0132
:105440004B510801CA230B014C510801CB23120018
:105450000B014D510801C8270B014E510801C9230A
:105460000B014F510801CA230B0150510801CB23F6
:1054700012000B0151510801C8270B0152510801BC
:10548000C9230B0153510801CA230B0154510801D0
:10549000CB2312000B0155510801C8270B015651AF
:1054A0000801C9230B0157510801CA230B015851A8
:1054B0000801CB2312000B0159510801C8270B0129
:1054C0005A510801C9230B015B510801CA230B0182
:1054D0005C510801CB2312000B015D510801C82764
:1054E0000B015E510801C9230B015F510801CA235A
:1054F0000B0160510801CB2312000B01615108011F
:10550000C8270B0162510801C9230B01635108012F
:10551000CA230B0164510801CB2312000B01655112
:105520000801C8270B0166510801C9230B01675107
:105530000801CA230B0168510801CB2312000B019B
:1055400069510801C8270B016A510801C9230B01E1
:105550006B510801CA230B016C510801CB231200C7
:105560000B016D510801C8270B016E510801C923B9
:105570000B016F510801CA230B0170510801CB23A5
:1055800012000B0171510801C8270B01725108016B
:10559000C9230B0173510801CA230B01745108017F
:1055A000CB2312000B0175510801C8270B0176515E
:1055B0000801C9230B0177510801CA230B01785157
:1055C0000801CB2312000B0179510801C8270B01F8
:1055D0007A510801C9230B017B510801CA230B0131
:1055E0007C510801CB2312000B017D510801C82713
:1055F0000B017E510801C9230B017F510801CA2309
:105600000B0180510801CB2312000B0181510801CD
:10561000C8270B0182510801C9230B0183510801DE
:10562000CA230B0184510801CB2312000DEBD0F8E3
:105630000EEBD1F80FEBD2F810EBD3F81200D950E3
:10564000090F34DAEE2A000EEE22EE22EE22D950B5
:105650000D0F2CDA040EEE26000EEE22EE22EE22C4
:1056600012005BD9100E9ED1C6D9100E9BD1E66EEA
:10567000DACFE6FF00EBE6FF01EBE6FF1DEC21F0E1
:1056800046E912000224E96E000E0320EA6E1200C1
:10569000B2D9E9CFCAF8EACFCBF8E9CFE6FFEACF33
:1056A000E6FF9CEC22F044E91200D9D889E948E8E9
:1056B000096A0A6A0B6A0C6A0D6A0E6A0F6A106A36
:1056C000120099D9180E6ED1E9CFC8F8EACFC9F8FF
:1056D000E9CFE6FFEACFE6FF120058DACC5DC86FEB
:1056E000EE50CD59C96FEE50CE591200CC511F0B60
:1056F0007BD9EECFCBF81200D890CB33CA33C93365
:10570000C833E806120000500D5C01500E580250DC
:105710000F58035010581200EE6E8DEF2CF0040E4F
:1057200041D13F0E0801C817C96BCA6BCB6BC8517A
:105730001200D890CC37CD37CE37CF37E8061200DD
:10574000C96FC8C8E6FFE66E120049E9E7CFD9FF86
:105750001200E66EE66AE66AE66A120017DACC170D
:10576000EE50CD17EE50CE17EE50CF1736EF29F092
:10577000D051CC17D151CD17D251CE17D351CF170D
:1057800036EF29F0080136EF29F0050F78DD94EFA8
:1057900029F0110F74DDA6EF29F00D0F70DD8BEFEE
:1057A00029F0090F6CDD9DEF29F0F3D995DDE9DDD6
:1057B000E3EF29F0F5D990DDEDDDE3EF29F0F7D93E
:1057C0008BDDCDDDE3EF29F0F9D986DDD1DDE3EF27
:1057D00029F075DDBBDD14DE090FE5DD0D0F6CEF83
:1057E00029F051DD98DD0CDE050FDDDD090F6CEFD2
:1057F00029F057DDA2DD04DE110FD5DD050F6CEFBA
:1058000029F056DD91DDFCDD0D0FCDDD110F6CEFC4
:1058100029F06CDDADDDECEF29F068DDB2DDECEFF9
:1058200029F064DDB7DDECEF29F060DD98DDECEF09
:1058300029F0040EE66EE66A09EBE6FF0AEBE6FFE6
:105840007FEC59F0FE0EE3501200000EC923CA236C
:10585000CB23C8510624E96EC95107201200D9CFC5
:10586000E6FFE1CFD9FF1200D451C827D551C92393
:10587000D651CA23D751CB23D9501200D051C827B3
:10588000D151C923D251CA23D351CB23D9501200AD
:10589000CC51C827CD51C923CE51CA23CF51CB23D8
:1058A000D9501200C851EE26C951EE22CA51EE223B
:1058B000CB51EE221200C851116EC951126ECA515D
:1058C000136ECB51146E12000950EE260A50EE22D0
:1058D0000B50EE220C50EE2212000550EE26065020
:1058E000EE220750EE220850EE2212001150EE2652
:1058F0001250EE221350EE221450EE2212000D50E0
:10590000EE260E50EE220F50EE221050EE22120024
:105910000801CC51E66E8BEF29F000EBE9FF01EBBB
:10592000EAFF120025DD190E080112002ADD140E0F
:10593000080112002FDD0F0E0801120010DD0A0E03
:105940000801120015DD1B0E080112001ADD170EEA
:10595000080112001FDD120E0801120000DD0C0EFE
:105960000801120005DD1C0E080112000ADD150EEB
:10597000080112000FDD100E08011200F0DC090E04
:1059800008011200F5DC1A0E08011200FADC160EEE
:1059900008011200FFDC110E08011200E0DC0B0E02
:1059A00008011200E926000EEA2212000D6EC9510C
:1059B0000E6ECA510F6ECB51106E1200010EE66EC4
:1059C000E66AD950150F37EF2BF0C817EE50C917FC
:1059D000EE50CA17EE50CB1712000424E96E41E9CD
:1059E000E5500520EA6E1200EECFC8F8EECFC9F8F8
:1059F000EECFCAF8120004EBE9FF05EBEAFF120054
:105A0000C1DED5D80ADF09EBD0F80AEBD1F80BEBF1
:105A1000D2F80CEBD3F8B8EF2BF0B4DECFD801DF1F
:105A200005EBD0F806EBD1F807EBD2F808EBD3F88A
:105A3000B8EF2BF0A7DEADD8F8DEA4EF2DF0A2DE94
:105A4000AFD8E7DEF3DDB8EF2BF09CDE38DC7EDC90
:105A5000D950090FE2DED9500D0FAEEF2BF092DED8
:105A600012DC59DCD950050FDCDED950090FAEEF3E
:105A70002BF088DE16DC61DCD950110FD6DED95050
:105A8000050FAEEF2BF07EDE13DC4EDCD9500D0F90
:105A9000C0DED950110FAEEF2BF03ADCC9EF2BF07E
:105AA00037DCCDEF2BF034DCD1EF2BF0E96EDACF21
