:020000040000FA
:0600000017EF8FF0120063
:020006001200E6
:06000800BDEF61F01200E3
:02000E000301EC
:0100100003EC
:020011000100EC
:020013000000EB
:0600180046EF00F01200AB
:02001E000900D7
:10002000E11F0100C807000021000000DA1F0100E5
:10003000EF08000007000000CE1F0100F2000000E2
:100040000C000000991F0100C806000035000000E8
:10005000541F0100000B000045000000E81E0100D5
:10006000000A00006C000000561E01006000000045
:100070009200000013000000FE04000002000000D7
:0C00800011000000FE0000000200000063
:04008C00D8CFE4FFE6
:10009000E0CFE4FFE46EDACFE4FFE2CFDAFFE9CFAE
:1000A000E4FFEACFE4FFD9CFE4FFDACFE4FFFAC5FB
:1000B000E4FFFBC5E4FFFCC5E4FFFDC5E4FFF6CFAC
:1000C000E4FFF7CFE4FFF8CFE4FFF5CFE4FFF3CF91
:1000D000E4FFF4CFE4FFFACFE4FFFBCFE4FFE65206
:1000E00078EC89F04CEC88F0E552E5CFFBFFE5CFEA
:1000F000FAFFE5CFF4FFE5CFF3FFE5CFF5FFE5CF5E
:10010000F8FFE5CFF7FFE5CFF6FFE5CFFDF5E5CF4B
:10011000FCF5E5CFFBF5E5CFFAF5E5CFDAFFE5CF66
:10012000D9FFE5CFEAFFE5CFE9FFE5CFDAFFE550FC
:10013000E5CFE0FFE5CFD8FF10000901009B1200DA
:10014000EAEC0FF083E90050011003E0F4EC0FF04B
:1001500010E1E66AF7EC0FF089EC10F0DEEC81F0CC
:1001600044E90501D60ECC6F060ECCC5F3FFF46E44
:1001700004D000EBF3FF01EBF4FFCFEF10F0DBEC6A
:1001800011F041E80B01C3BF03D00B01300EC46F67
:10019000D950010FE66EDACFE6FF47EC89F042E96D
:1001A000000901E118D109EC11F001E0C3D0C851F8
:1001B00003E07F0EC85D21E10A0E015CE9E00D0E4F
:1001C000015C03E10A0E016E18D0080E015C07E124
:1001D000EA510008DDE2EA07A4EC11F0D9D70104E6
:1001E00003E0030E015C09E1EA6BFB0EE66EB60E5E
:1001F000E66E000EEFEC0FF0CBD70D0E015CC8E001
:1002000090EC11F082EC10F004E1CD5102E1060116
:10021000EA073A0E015C2AE1060E0601EA5D26E3D2
:100220000DEC11F023E1490E015D20E1500E025D5D
:100230001DE1440E035D1AE109010051100B16E1A6
:100240000B01C3BF03D00B01310EC46F0601EA05D9
:10025000D6EC0FF0EF6A050EE66E080EE66E19ECAE
:1002600011F03C0EED6FEA6BFD0E62D00A0E015CE0
:100270008FE10B01C3BF03D00B01320EC46F060127
:10028000EA07A4EC11F0040EEA5D01E27BD00DEC6C
:1002900011F001E077D0430E015D74E14D0E025D77
:1002A00071E1540E035D6EE109010051100B6AE12A
:1002B000070E016E0150D6EC0FF0EF50220806E059
:1002C0000601EA51015C02E2012AF4D70150D6ECA2
:1002D0000FF0EF6A140EE66EE66A070EE66E080E81
:1002E000E66E89EC10F076EC82F046E90601E96BE7
:1002F000EA51016E0150D6EC0FF0EF502C0804E0EB
:10030000015002E00106F6D701500501CD6B000F48
:10031000CC6F080ECD23CC2B000ECD23CCC5E6FF31
:10032000CDC5E6FF19EC11F00A0EED6FEA6BFE0E7B
:10033000EB6F2ED7FE0EEB5D29E10B01C3BF03D09F
:100340000B01330EC46F0D0E015C03E00A0E015C5D
:1003500008E10601EA51EA2BD6EC0FF0200EEF6E11
:1003600003D0060190EC11F082EC10F004E1CD51C5
:1003700002E10601EA070601EC07EC5101E008D7AB
:10038000A4EC11F0C6EC05F0060122D00B01C3BFAE
:1003900003D00B01340EC46F0D0E015C0AE00601A0
:1003A00090EC11F082EC10F004E1CD5102E1060175
:1003B000EA070601EC070A0E015C07E1EA07A4EC74
:1003C00011F0C6EC05F00601EA6BEC5101E0E0D655
:1003D000EA6BEB69DDD60601A4EC11F0D3EF10F067
:1003E000DBEC11F042E8090100B305D000A3FED711
:1003F000050E35EC11F0016A0901C451026E0A0EB6
:10040000015C0AE2E4EC3DF002500901C45D02E047
:10041000016AF3D7012AF1D73AEF11F0DBEC11F0C2
:1004200044E8880E036E130E046E800EE66EE66AD4
:100430007E0EFFEC0FF0016E800EE66EE66A7F0E18
:10044000FFEC0FF0026E3E0E015C05E1200E025C37
:1004500002E1010E22D0450E015C05E1520E025C64
:1004600002E1000E1AD0010EE66EF7EC8EF041E9C3
:100470000306000E045A03EBCCF504EBCDF50501A1
:10048000CC51CD11D2E10601D4510108000ED55551
:1004900003E2D407000ED55B000E45E9E7CFD9FF94
:1004A0001200EAEC0FF084E941E80801F851F91173
:1004B0000FE0DEEC11F001E17ED03EEC11F001E343
:1004C0007AD0DEEC11F0E8EC11F0A1EC10F0F1D7ED
:1004D0007F0E0601C85D61E1046ADEEC11F00A08D6
:1004E0000BE10D0E045C08E0090100B1FDD70D0E13
:1004F000DFEC0FF020E1FBD70D0E045C1CE1DEEC1D
:1005000011F00A0818E0090100B1FDD70A0EDFEC6E
:100510000FF0FCE00B0101510EE0090100B1FDD725
:10052000230EDFEC0FF0FCE0090100B1FDD7200E37
:10053000DFEC0FF0FCE0DEEC11F03DE0090100B172
:10054000FDD7CEEC0FF020EC11F0FBE00B010151D8
:1005500012E0DEEC11F00A080EE1090100B1FDD74E
:10056000230EDFEC0FF0FCE0090100B1FDD7200EF7
:10057000DFEC0FF0FCE0D9CFE9FFDACFEAFFEFCFF5
:10058000F6FFEE2AEFCFF7FF000EEE22EFCFF8FFD7
:10059000EE220800F550046EA0D7DEEC11F00BE05F
:1005A000090100B1FDD7CEEC0FF020EC11F0FBE01B
:1005B000A1EC10F0F2D7D3EF10F0EAEC0FF083E9E2
:1005C00041E80801F851F9110FE0F4EC0FF001E1F6
:1005D00071D03EEC11F06EE2F4EC0FF0E8EC11F0AB
:1005E000002A000E0122F1D77F0E0601C85D55E1F9
:1005F000036AF4EC0FF00A080BE10D0E035C08E04F
:10060000090100B1FDD70D0EDFEC0FF020E1FBD7A3
:100610000D0E035C1CE1F4EC0FF00A0818E0090170
:1006200000B1FDD70A0EDFEC0FF0FCE00B01015129
:100630000EE0090100B1FDD7230EDFEC0FF0FCE066
:10064000090100B1FDD7200EDFEC0FF0FCE0F4EC67
:100650000FF030E0090100B1FDD774EC10F0FDE0BF
:100660000B01015112E0F4EC0FF00A080EE1090150
:1006700000B1FDD7230EDFEC0FF0FCE0090100B163
:10068000FDD7200EDFEC0FF0FCE0FCEC11F0002AAF
:10069000000E0122EF50036EACD7F4EC0FF00AE02D
:1006A000090100B1FDD774EC10F0FDE0002A000E46
:1006B0000122F3D7D3EF10F0EAEC0FF082E9080142
:1006C000F851F91108E03EEC11F00FE261EC10F086
:1006D00000EBEFFF0AD0090100B1FDD700EBE6FF08
:1006E0001DEC89F041E90009F9E0CFEF10F0EAECE8
:1006F0000FF087E9045005101FE00601F7510418B8
:1007000002E1F851051814E0080E0B01C01510E1C4
:1007100004EBF1F605EBF2F600EBF3F601EBF4F681
:1007200002EBF5F603EBF6F604EBF7F605EBF8F65D
:1007300006013C0EF96F05D0D7EC10F0F76BF86BA3
:10074000F96BCFEF10F0EAEC0FF083E942E8030E0B
:10075000E66ED6EC11F0036EF450046EF70EE66E02
:10076000B60EE66E000E33EC10F00AE000EBCDF5AD
:10077000CC6BCC510601FA130501CD510601FB13D8
:10078000F40EE66EB60EE66E000E33EC10F005E0E9
:1007900006010050FA130150FB133AEF11F0EAEC96
:1007A0000FF083E946E896EC11F000EBE6FF01EB71
:1007B000E6FFEEEC11F05BE0DCEC0FF0C4EC10F0C7
:1007C00056E0E1EC11F053E0E1EC11F050E005EB04
:1007D000E9FF06EBEAFFEF504F0849E10528E96E13
:1007E000000E0620EA6EEF502D0841E123EC11F0D7
:1007F000020E05010524CC6F000E0620CD6FCCC57E
:10080000E6FFE66EEEEC11F032E023EC11F081EC45
:1008100011F0056EF450066E93EC10F0D6EC11F06A
:10082000076EF450086E055006100BE107EBE9FF68
:1008300008EBEAFFEF501BE0EF0EE66EB60EE66E39
:1008400011D005EBE6FF06EBE6FF07EBE6FF08EB52
:10085000E6FFA8EC81F044E9000909E005EBE6FFBA
:1008600006EBE6FF93EC10F069EC87F043E947E90B
:10087000E7CFD9FF1200EAEC0FF082E942E800EB83
:10088000C8F60601C851240A01E172D1070A01E144
:1008900064D1010A01E15BD1030A01E12BD1010A14
:1008A00001E112D1600A01E1F1D0030A01E1D1D0E6
:1008B000010A01E1A7D0030A01E191D0530A01E145
:1008C0007ED0030A71E0010A5CE0160A4CE0030ADC
:1008D0003FE0010A36E0070A26E0010A22E0030AA7
:1008E00014E07E0A0FE07F0A01E04ED13C0ED46F87
:1008F000D56B50EC10F00601010ECD6F0A0ECE6FD5
:10090000CF6B42D134EC6AF03FD10A0EB9EC0FF054
:100910000601030ECD6F140ECE6FCF6B22EC12F0DA
:1009200033D1CD6B31D150EC10F01EEC3EF01EEC0B
:100930003EF00601020ECD6FCAEC10F00601CC6B42
:1009400023D1050ECD6F030ECAEC10F00A0EB1D004
:10095000060ECD6F020ECE6FCF6BC96B1EEC3EF054
:100960001EEC3EF011D1E66A5EEC11F064EC11F081
:100970000B01C3BF03D00B01F00EC46FE2EC3DF0DE
:1009800003D1090EB9EC0FF0DFEC10F0EEA106D0A8
:10099000BB0EE66E180EE66E010ED6D0D20EE66ED7
:1009A000180EE66E010ED0D0080EB9EC0FF0DFEC99
:1009B00010F0DE0EE66E180EE66E010EC5D0070EC4
:1009C000B9EC0FF00601030ECD6F230ECE6FCF6B87
:1009D000C96BF90EE66E180EE66E010EB5D0050E67
:1009E00006EC12F0AAEC10F006E2070E2AEC10F06A
:1009F0000601400E05D0080E2AEC10F00601020E8A
:100A0000CD6F14D0050E06EC12F0D60EE66EB60EC3
:100A1000E66E000EEFEC0FF0090E2AEC10F0AAECD7
:100A200010F002E2430E01D0020ECD6FCAC6CEF620
:100A3000CBC6CFF60A0ED880CE57000ECF57050E84
:100A4000CF03F3CFCFF6CE03F3CFCEF6F450CF27BC
:100A50009BD0050EB9EC0FF043EC10F00601020E2E
:100A6000CD6F3C0ECE6FCF6B070EC96F2BEC12F023
:100A7000020E69EC10F0BE0EE66EB60EE66E000ECB
:100A8000EFEC0FF00601400EC86F7ED0050EB9ECFA
:100A90000FF043EC10F056EC10F013E0DDEC8CF0AE
:100AA00000090FE00601020ECD6F3C0ECAEC10F0FB
:100AB000020E69EC10F0E30EE66EB60EE66E000E66
:100AC00043D00601200EC86F020EB9EC0FF00B01E7
:100AD000016B0601CD6BC96B0001C80507E0050E6F
:100AE000C85D04E0780E0601D26F02D00601D26B19
:100AF000D36B4AD0060EB9EC0FF0020E69EC10F081
:100B00000601030ECD6F780ECE6FCF6B2BEC12F07B
:100B10000D0E56EC10F006E1560EE66E190EE66E5E
:100B2000010E12D0B00EE66EB60EE66E000EEFECC1
:100B30000FF002EBE6FF03EBE6FF52EC11F0A60E1E
:100B4000E66EB60EE66E000EEFEC0FF01DD00A0E4C
:100B5000CE6FCF6B400ECD6F17D0060EB9EC0FF0F5
:100B60000601240ECD6F2C0ECE6F010ECF6F0CD070
:100B7000CC51CC2B0501CC6F140ECC5D02E2020EE1
:100B800001D0030E43EC11F03AEF11F0DBEC11F061
:100B90005DE80601ED6B3C0ED46FD56B0B01C3BF56
:100BA00003D00B01350EC46FFE0E0601EB5D20E194
:100BB0000001C80507E0050EC85D04E043EC10F035
:100BC00064EC11F00B01C3BF03D00B01360EC46FF0
:100BD00072EC11F089EC10F028EC51F044E90B01B3
:100BE000C3BF00EF0BF00B01350EC46F00EF0BF02D
:100BF000FF0EEB5D15E00B01C3BF03D00B01370EF9
:100C0000C46F72EC11F0D2EC18F042E90B01C3BFD3
:100C100003D00B01350EC46F48EC11F000EF0BF060
:100C2000C8517F0A02E1FBEF0AF05F0A01E144D2FA
:100C3000600A01E16ED1630A01E151D1020A01E1CA
:100C400006D1330A01E1DAD0030A6EE0010A2CE092
:100C5000110A16E0010A02E000EF0BF0050EEA5D52
:100C600002E200EF0BF09DEC10F0A00EE66EB60E67
:100C7000E66E000EAEEC0FF002E000EF0BF038D0A5
:100C8000020EEA5D02E200EF0BF011EC11F002E05F
:100C900000EF0BF04B0E015D02E000EF0BF064EC97
:100CA00011F0100EE8EF0AF0040EEA5D24E30DECFB
:100CB00011F021E1430E015D1EE1530E025D1BE1C7
:100CC0004D0E035D18E172EC11F018EC82F042E970
:100CD000F3CFE9FFF4CFEAFFE906000EEA5A000E6F
:100CE000E926080EEA22EF50310802E100EF0BF08E
:100CF0007F0EE8EF0AF00601C95102E000EF0BF0A9
:100D0000020EEA5D02E200EF0BF011EC11F002E0DE
:100D100000EF0BF04B0E015D02E000EF0BF064EC16
:100D200011F0110EE8EF0AF0100EEA5D17E3380E2D
:100D30000801005D13E1390E015D10E1180EE66E49
:100D4000E66A72EC11F09A0EE66E0B0EE66E76EC29
:100D500082F046E90B01B16B00EF0BF0080E0601C3
:100D6000EA5D16E30DEC11F013E1430E015D10E1B5
:100D7000500E025D0DE1420E035D0AE1460E045D78
:100D800007E13A0E055D04E172EC11F008DDB9D11E
:100D9000080E0601EA5D19E30DEC11F016E1430EB1
:100DA000015D13E1500E025D10E1490E035D0DE19E
:100DB000520E075D02E100EF0BF0040E2AEC10F07A
:100DC0000601010EC96F00EF0BF00601C95102E0E8
:100DD00000EF0BF0020EEA5D02E200EF0BF011EC07
:100DE00011F002E000EF0BF04B0E015D02E000EFAE
:100DF0000BF064EC11F0120EE8EF0AF0060EEA5D5B
:100E000015E30DEC11F012E1490E015D0FE1500EFA
:100E1000025D0CE1520E035D09E1390E065D06E04C
:100E20009A0EE66E190EE66E010E89D1020E0601CB
:100E3000EA5D01E2E5D311EC11F001E0E1D34B0EE4
:100E4000015D01E0DDD364EC11F0210EC1D3020E8F
:100E5000EA5D0BE311EC11F008E14B0E015D05E1D9
:100E600048EC11F0CC6B220EB3D3050E0601EA5DFF
:100E700007E3450E0801005D03E1520E015D03E04A
:100E800056EC11F002E1230EA3D3060EE66EE66ADD
:100E90008E0EE66EB60EE66E000EAEEC0FF001E0C2
:100EA000AFD396EC11F0000EE66E080E1FEC10F0BA
:100EB00001E1A6D3DCEC0FF0CBEC11F001E1A0D303
:100EC000080EE66EE66A1AEC10F0D00EE66E000E22
:100ED000E66E76EC82F046E90001D86B91D3A8EC7F
:100EE00011F001E08DD32C0E0801085D03E1070E1F
:100EF000091502D0070E07150001C86FE80404E0C9
:100F0000050EC85D01E07CD348EC11F0CC6B400EBF
:100F10005FD3020EEA5D07E3450E0801005D03E1C1
:100F2000520E015D03E056EC11F00FE1020E0601D6
:100F3000C95D01E124D3030EC95D01E120D3050E93
:100F4000C95D01E05DD3030E43D3020E0601EA5DE5
:100F500006E311EC11F003E14B0E015D0CE0530EC2
:100F60000801005D03E1480E015D05E0050E060184
:100F7000C95D01E08DD00601EA6B1E0ECE6FCF6B0E
:100F80000001C96B020E69EC10F00601C92BC951B2
:100F9000090A01E17BD0010A63E00F0A5BE0010A64
:100FA0003BE0030A33E0010A2BE0070A20E0010AD4
:100FB0000CE0030A01E024D3740EE66EB60EE66E72
:100FC000000EEFEC0FF0050E0ED0670EE66EB60EBB
:100FD000E66E000EEFEC0FF0050E77EC11F0060E4A
:100FE00077EC11F0070EE66EF7EC0FF02BD0040E45
:100FF00006EC12F0590EE66EB60EE66E000E9FD0AD
:101000004B0EE66EB60EE66E000E99D0410EE66E01
:10101000B60EE66E000E93D0160EE66EE7EC10F0FC
:101020006EEC10F006E13D0EE66EB60EE66E000EBA
:1010300086D0300EE66EB60EE66E000EEFEC0FF0C8
:101040001AEC10F052EC11F0710EE66EB60EE66E70
:10105000000E75D0BE0EE66EB60EE66E000E6FD0B8
:10106000030E06EC12F01C0EE66EB60EE66E000ED7
:10107000EFEC0FF0040EE66EF7EC0FF052EC11F00F
:10108000120EE66EB60EE66E000E59D0200EA0D2FD
:10109000070EEA5D0BE3080EE66EE66A090EE66EE1
:1010A000B60EE66E000EAEEC0FF004E086EC11F02A
:1010B00001E0A6D2020E8CD2A8EC11F024E12C0E95
:1010C0000801085D03E1070E091502D0070E071598
:1010D0000001C86FE80403E0050EC85D05E10601E4
:1010E000D26BD36BE66A0AD00601D251D31101E06C
:1010F00087D2780ED26FD36B010EE66EE66A15ECDE
:1011000088F042E97DD29DEC10F0F70EE66EB50E48
:10111000E66E000EAEEC0FF015E10001C80507E029
:10112000050EC85D04E043EC10F064EC11F0010E14
:1011300069EC10F06A0EE66E190EE66E010EEFEC29
:101140000FF05ED29DEC10F0F10EE66EB50EE66E7D
:10115000000EAEEC0FF001E09CD0080E0601EE157B
:10116000000801E34DD2070EE66E080EE66E65EC50
:1011700042F015EC10F0036ECD51046ECE51056EA9
:10118000CF51066E03500001881908E104508919F7
:1011900005E105508A1902E106508B1901E130D2B0
:1011A0000350885D0450895905508A5906508B595F
:1011B00038E2D950030FE96EDACFEAFF8851EE5CCE
:1011C0000501CC6F00018951EE580501CD6F00017A
:1011D0008A51EE580501CE6F00018B51EE58050182
:1011E000CF6FCC51076ECD51086ECE51096ECF51E5
:1011F0000A6E00018C518D118E118F1108E007507D
:101200008C2708508D2309508E230A508F2300010C
:10121000075088270850892309508A230A508B23B6
:10122000EFD1D950030FE96EDACFEAFFEE50885DB7
:101230000501CC6FEE50000189590501CD6FEE50CC
:1012400000018A590501CE6FEE5000018B5905014E
:10125000CF6FCC510B6ECD510C6ECE510D6ECF5168
:101260000E6E00018C518D118E118F1108E00B5004
:101270008C5F0C508D5B0D508E5B0E508F5B0001B0
:101280000B50885F0C50895B0D508A5B0E508B5B56
:10129000B7D1020EE66EE66AEE0EE66EB50EE66EAB
:1012A000000EAEEC0FF001E07AD04DEC11F001E34E
:1012B00076D09DEC11F0020EE66E080E1FEC10F0D9
:1012C000B5EC0FF004E0F1EC11F0ECEC10F0B5EC43
:1012D0000FF003E06EEC10F0176EB5EC0FF004E0C9
:1012E000F1EC11F0F4EC10F0B5EC0FF003E06EEC63
:1012F00010F0186EB5EC0FF003E06EEC10F0196E04
:10130000B5EC0FF0B5EC0FF0B5EC0FF005E0F6EC36
:1013100011F01A6EF4501B6E0150021001E170D1F1
:10132000010E19140001C26FC25136E0530E175C52
:101330000CE10FEBCCF510EBCDF511EBCEF512EB8C
:10134000CFF52AEC11F0ECEC10F0570E185C0CE124
:1013500013EBCCF514EBCDF515EBCEF516EBCFF585
:101360002AEC11F0F4EC10F00FEB8EFB10EB8FFB7E
:1013700011EB90FB12EB91FB13EB92FB14EB93FB45
:1013800015EB94FB16EB95FB1AEB98FB1BEB99FB0B
:101390000001780EC56F34D10001C56B31D1030E49
:1013A000E66EE66AE80EE66EB50EE66E000EAEEC90
:1013B0000FF01DE14DEC11F01AE29DEC11F0030E5F
:1013C000E66E080E1FEC10F005E0F6EC11F01C6E56
:1013D000F4501D6E0150021001E112D10001C25102
:1013E00001E10ED11CEB96FB1DEB97FB09D115EC2F
:1013F00011F0DD0EE66EB50EE66E000EAEEC0FF0EF
:1014000004E10001C95126E119D0070EE66EE66A33
:10141000D50EE66EB50EE66E000EAEEC0FF042E1B4
:10142000110EE66EE66AC30EE66EB50EE66E000EAF
:10143000AEEC0FF013E10001C9510CE1010EE66EB4
:10144000E66E15EC88F042E931EC12F0E8EC12F0AF
:101450004DEC12F00001010EC96FD2D0150EE66EF0
:10146000E66AAD0EE66EB50EE66E000EAEEC0FF05F
:1014700001E1C6D0110EE66EE66A9B0EE66EB50E71
:10148000E66E000EAEEC0FF06BE00001C96B020ED1
:1014900006EC12F00001C80570E0050EC85D01E021
:1014A000AFD06BD09DEC10F0950EE66EB50EE66EEB
:1014B000000EAEEC0FF011E12C0E0801085D08E102
:1014C000070E06150A0D070E07150501F32402D0B5
:1014D000070E06150001CB6F93D0070EE66EE66A85
:1014E0008D0EE66EB50EE66E000EAEEC0FF00BE064
:1014F0000B0EE66EE66A810EE66EB50EE66E000E27
:10150000AEEC0FF003E10B0101697AD0060EE66E36
:10151000E66A7A0EE66EB50EE66E000EAEEC0FF0E1
:101520001FE00C0EE66EE66A6D0EE66EB50EE66E18
:10153000000EAEEC0FF014E00B01015115E0090EA6
:10154000E66EE66A630EE66EB50EE66E000EAEEC73
:101550000FF006E0B0EC11F003E056EC11F004E1FE
:101560002BEC12F0420E34D086EC11F006E0B0EC19
:1015700011F003E056EC11F004E12BEC12F0410EF7
:1015800027D0040EE66EE66A590EE66EB50EE66EDC
:10159000000EAEEC0FF00BE0060EE66EE66A520EA1
:1015A000E66EB50EE66E000EAEEC0FF003E12BEC2E
:1015B00012F00DD0110EE66EE66A400EE66EB50E24
:1015C000E66E000EAEEC0FF006E11EEC3EF0010EF2
:1015D00043EC11F015D0060EE66EE66A390EE66EA3
:1015E000B50EE66E000EAEEC0FF00AE131EC11F034
:1015F000FAEC1BF004D031EC11F0EEEC6CF043E9A6
:101600005EE9E7CFD9FF1200DBEC11F046E87F0E70
:101610000601C85D0BE0200EC85D01E03BD1000172
:10162000C80504E0050EC85D01E034D10B0101518D
:1016300001E030D109EC11F001E02CD1EA5101E0D8
:1016400029D10901415101E025D10901C45101E02D
:1016500021D10B014151421103E00B01000549E08A
:101660000601F1510008000EF2551BE20B010005C6
:1016700018E10601F1510008000EF2550FE2F3C621
:10168000E6FFF4C6E6FFF5C6E6FFF6C6E6FFF1C6DE
:10169000E6FFF2C6E6FF77EC1FF046E9D7EC10F064
:1016A000F9D0FF0EC4EC0FF001E39BD00B01000555
:1016B00001E097D0200EC4EC0FF004E20601FA9B83
:1016C000040E33D0040EC4EC0FF016E20601FA95B6
:1016D000FC5101E0DFD0060E0B01416F426B0B01A4
:1016E000D950020F436FDACF44FBE96EDACFEAFF3D
:1016F000EF6A7EEC1BF0CED0080EC4EC0FF006E2D1
:101700000601FA97EEA3C6D0020E0FD0100EC4EC5D
:101710000FF004E20601FA99030E07D0400EC4EC64
:101720000FF008E20601FA9D050EE66E66EC1FF06A
:1017300041E9B0D0010EC4EC0FF02DE27C0E0601A1
:10174000FA17FB6B020E016E01EBE6FF8AEC13F059
:101750008EEC10F032EC16F08EEC10F0E3EC14F09E
:1017600041E9016E010EFCEC10F0020EFCEC10F0F1
:1017700001EBE6FF52EC15F08EEC10F0D0EC15F01A
:101780008EEC10F000EC17F041E9016E020E015CE6
:1017900001E180D023D0020EC4EC0FF012E206016A
:1017A000FA93020E016E01EBE6FF32EC16F08EECBE
:1017B00010F08AEC13F041E9016E020E015C6AE060
:1017C0000DD0800EE1DB0DE20601FA9FFB6B020EED
:1017D000E66EE3EC14F041E902085CE04DEC12F037
:1017E00059D02DEC10F07C0EE1EC0FF053E2000E1E
:1017F000E66EE66AA0EC00F042E92DEC10F0200E57
:10180000E0DB04E20601FB9B040E3ED02DEC10F061
:10181000040ED7DB1DE20601FB95FC513BE1340EC3
:10182000E66EB50EE66E000EE66ED950020FE66E5D
:10183000DACFE6FF2CEC43F045E9D950020FE66E13
:10184000DACFE6FF89EC10F028EC51F044E922D021
:101850002DEC10F0080EB5DB06E20601FB97EEA3B7
:1018600019D0020E11D02DEC10F0100EAADB04E2FC
:101870000601FB99030E08D02DEC10F0400EA1DB01
:1018800009E20601FB9D050EE66E89EC10F065ECA1
:101890004AF043E947E9E7CFD9FF12000B01C3BF84
:1018A00003D00B01380EC46F0601F951000805E2A0
:1018B000F907F95102E1F76BF86BC8517F0A01E1B2
:1018C000FAD05F0A01E171D0220A6DE0210A54E0EA
:1018D000020A49E0330A3CE0030A30E0010A24E04E
:1018E000110A01E012000A0ECE1908E1CF5106E1FB
:1018F0001EEC3EF0320E69EC10F007D0050ECE5D06
:10190000000ECF5902E2020EA5DB0601EEA106D0C1
:101910007A0EE66E180EE66E010E23D0880EE66E85
:10192000180EE66E010E1DD06DEC11F001E0C5D071
:10193000D20EE66E180EE66E010E13D06DEC11F0AD
:1019400001E0BBD0DE0EE66E180EE66E010E09D089
:101950006DEC11F001E0B1D0F90EE66E180EE66EF6
:10196000010EEFEF0FF0140ECE5D000ECF5901E324
:10197000A4D0060E2AEF10F015EC11F009EC12F0CD
:1019800001E09BD0F0EC01F0900EE66E190EE66ED1
:10199000010E25DB090141510008FCE3020EE66E51
:1019A000F2EC3DF033D0E66A2FD0FF0EEB5D0AE09B
:1019B000ED0504E1ED6BEA6BEB690FD0ED51010829
:1019C00001E2ED07D2510008000ED35508E2D2071C
:1019D000000ED35BD251D31102E1210E14D00B01C2
:1019E000015116E0012B3C0EE76E011902E70135AB
:1019F00002D00151E75C0CE20601D251D31102E1A1
:101A0000420E01D0400EE66E3BEC04F041E91200BC
:101A100000017151800B04E016DB01E1CD510DE0B6
:101A20003C0EB8EC11F0E5CFCFF5E7CFCEF50501D0
:101A3000370ECE191FE1CF511DE10B0101511AE103
:101A4000E8DB18E1EA5116E10901415113E109010E
:101A5000C45110E14DEC11F00DE2960EE66E180E39
:101A6000E66E010EBCDA090141510008FCE30F0EDD
:101A700035EC11F00001C80503E0050EC85D15E165
:101A800000017751000811E20B01BA050EE10001D7
:101A9000CA5100080AE2010E0601EE1504E0D3DA8D
:101AA00004E1CD5102E1800EF5DA000175A905D0FF
:101AB0000001CD6B120047EC6AF012000B01C3BFAE
:101AC00003D00B01390EC46F0601C851200A01E092
:101AD00012003C0E0FEC12F01FE00B0101510AE165
:101AE00098DB08E1EA5106E10901415103E10901EE
:101AF000C45106E0020E0601D05F000ED15B120059
:101B00006F0EE66E190EE66E010E69DA090141519B
:101B10000008FCE3020EA9DB12000B01C3BF03D0D7
:101B20000B013A0EC46F0001CC510DE11CDBC2EC7D
:101B300011F0DEDA1DEC56F041E9E7500001CC6F00
:101B40000001CD6B2AD0020EE66EE66A0CDBFAC508
:101B5000D2F5FBC5D3F5FCC5D4F5FDC5D5F5C8DA7E
:101B600056EC56F0E552E5CFD1F5E7CFD0F50001C0
:101B7000CC510501D025CE6F000ED121CF6FCE2BD9
:101B8000000ECF23CEC5E6FFCFC5E6FF22EC57F00F
:101B9000E55201EC12F0CCC5CCF0000175B918D0BB
:101BA0000F0E0001CD5D09E2000171AF03D000010D
:101BB000CD6B0ED00001CD2B0BD00F0ECD5D08E10B
:101BC00000017151800B04E1CCC0CDF000010E93F7
:101BD0000001CD510F0822E2000171AF03D00001D6
:101BE0000E931CD0020E00010E150AE1100E00012A
:101BF000CD5D0001D880CC5503E300010E830CD0ED
:101C0000020E00010E150AE00A0E0001CD5D000172
:101C1000CC5D04E300010E93080E3CDA0601C851C6
:101C2000200A01E012000B0100511DE0E7EC78F002
:101C3000000819E20B0101510AE1EBDA08E1EA516F
:101C400006E10901415103E10901C45106E0040E16
:101C50000601D05F000ED15B06D031EC12F0EAEC49
:101C600078F04DEF12F00001CA51000802E2010EB7
:101C700011DA010E0601C919C96F12000B01C3BFA9
:101C800003D00B013B0EC46F120095DB43E800014B
:101C900066050DE0020E665D0AE00F0E665D07E068
:101CA000800E00017115000802E3000E01D0010E44
:101CB000036E0B01C3BF03D00B013C0EC46F0601C2
:101CC000C851200A4BE10001F1510001785D38E272
:101CD000800E0001711534E10601F0511CE10B0189
:101CE00000511AE00B01015117E193DA15E1EA51B5
:101CF00013E10901415110E10901C4510DE106014F
:101D0000EEA505D0010EE66E66EC1FF041E9060176
:101D1000480EF06F01D0F0070601EF510FE1E66ABF
:101D200056DA0601EEA506D0010EE66E83D965EC03
:101D30004AF043E90601480EEF6F06D0EF0704D0E2
:101D40000601060EEF6FF06F0B01005107E0000176
:101D5000CA5104E1035002E0010E9CD944E9E7CFE7
:101D6000D9FF120028DB41E8000166050DE0020EF4
:101D7000665D0AE00F0E665D07E0800E00017115DA
:101D8000000802E3000E01D0010E016E0B01C3BF7B
:101D900003D00B013D0EC46F0601C851200A0AE1B1
:101DA0000B01005107E00001CA5104E1015002E1BA
:101DB000010E70D9F8D10B01C3BF03D00B013E0E49
:101DC000C46F0601FC51000801E2FC07D02B000E95
:101DD000D123CD51000811E2CEC6CCF5CFC6CDF54A
:101DE000CE07000ECF5B0501CC51CD1106E1CDC66B
:101DF000E6FF3BEC04F041E901D050DD1E0E0FDBA5
:101E000001E15CDE3C0E0BDB01E187DE2C0EE66EB1
:101E1000010EE66E5CDA01E131DF580EE66E020E6D
:101E2000E66E55DA01E131DF100EE66E0E0EE66E5B
:101E30004EDA06E197DF100E0601D05F0E0ED15B81
:101E40007F0E0601C85D15E0D407000ED55BD451A6
:101E5000D5110FE13C0ED46FD56B0B01C3BF03D07E
:101E60000B01F10EC46F010E0EDA0B0E0601CE6FE0
:101E7000CF6B1200120001EC89F00001C86BE66A1A
:101E80003BEC04F041E91200A5D884E90050050AB2
:101E900055E0010A4DE0070A45E0010A1AE0030A8D
:101EA00058E100017851E66EE66A0B0EE66EB50E5B
:101EB000E66E000EE66E000EE66E070EE66E80EC35
:101EC00043F047E9B0DA040EE66EB50EE66E000E9A
:101ED0003AD000010EA307D04ED9E40EE66EB40E40
:101EE000E66E000E06D047D9D30EE66EB40EE66E4F
:101EF000000EE66E9FD888D9010EE66EE66ACDC068
:101F0000E6FFE66AE66AE66ACB0EE66EB40EE66EB9
:101F1000000EE66E8FD878D9C80EE66EB40EE66E67
:101F2000000E11D0A40EE66EB40EE66E000E0BD0BD
:101F3000890EE66EB40EE66E000E05D06C0EE66EEF
:101F4000B40EE66E000EE66E75D82CEC43F045E953
:101F50006ADA01EBF3FF02EBF4FF21D1E66EC2D99E
:101F6000F0EC80F047E900091200E7D9CAD9CBEFBD
:101F700011F04CDA64EF11F06DEC57F0E55241DAF4
:101F80000501CC51CD1112000601FA150501CC6FE7
:101F9000CD6BCC510008000ECD55120000EBF6FFC2
:101FA00001EBF7FF02EBF8FF08001200EA6A000FEE
:101FB000E96E080EEA221200B9D981EF11F0E66E3F
:101FC000F0D10601FB150501CD6FCC510008000EC4
:101FD000CD551200D9CFE6FFE1CFD9FF1200E66E52
:101FE00051EC02F043E9120007DAEF50120054EC12
:101FF00087F041E9F3CFE6FFF4CFE6FF12000901D5
:10200000C5250501CC6FCD6BCD37E66ECDC5E6FF9E
:1020100025EC57F0E552E5CFEAFFE7CFE9FF440EA4
:10202000E926090EEA22EF50120042E9ABD9050178
:10203000CC51120001EBE6FF02EBE6FF1200E66E68
:10204000F7D9CBEF11F0030E93D9DBD90501010EBF
:10205000CC191200E66E1DEF12F0000E0601FA1503
:102060000501CC6F1200E66E03EBE6FF04EBE6FF22
:10207000A4EC82F045E9F3CFCCF5F4CFCDF5050122
:10208000F350F41012000601D26BD36B0001050E61
:10209000C86F1200E66EE66AA3EC03F042E9120094
:1020A000E6680CD9E668C9D93CEF88F0E66E7ED9BF
:1020B000026EF450036E02EBE9FF03EBEAFFEF5010
:1020C0001200F8C8E9FFF9C8EAFFF82B000EF9235F
:1020D0001200E66E0AEC3EF041E9120001EBE9FF66
:1020E00002EBEAFFEF50120087D9EFCFE6FF59D19C
:1020F000FAC5E6FFFBC5E6FFFCC5E6FFFDC5E6FF4A
:10210000BFEF59F0EA510501CC6FCD6BC80ECC1969
:102110001200D60EE66E060EE66E120041E9016E62
:1021200001EBE6FF120003EBE6FF04EBE6FF45ECF4
:102130007BF042E9F3CFE6FF1200050EE66EE66A99
:102140001200D9CFE9FFDACFEAFFEE2A000EEE2225
:10215000EE2212000601CA07000ECB5BCA5100082E
:10216000000ECB551200E66AE66A200EE66E410EBE
:10217000E66E0EEF8DF0010EE66EE66ACCC0E6FF6D
:10218000E66AE66AE66A1200036EF450046E0350D3
:1021900004101200CE6FCF6BC96B2BEF12F041E928
:1021A000E7CFD9FF120042E9E7CFD9FF12000601BD
:1021B000F16BF26BF36BF46BF56BF66B12000601CF
:1021C000030ECD6F5F0ECE6FCF6BC96B1200EED8D2
:1021D000016EF450026E12000F6ECD51106ECE5192
:1021E000116ECF51126E1200136ECD51146ECE517E
:1021F000156ECF51166E1200E66E01EBE6FF35EC60
:1022000017F042E9016E12008DEC44F04BE913EF38
:1022100012F0FF0E0601EB5D12002B0E0801005DAF
:1022200012004F0E0801005D12000A0EE66EE66A0B
:10223000120045EC7BF042E9F3CFECF60601120008
:10224000F5CFE6FFAED0F00EE66EB60EE66E000EEF
:10225000E66E12000501CC1FCD1FCE1FCF1FCC5143
:102260001200EAC6E6FF72EF11F0E66EF2EC3DF006
:1022700041E9120043E9E7CFD9FF1200BD0EF85D36
:10228000080EF9591200E66E3BEC04F041E9120029
:102290000A0E0601CA6FCB6B1200010E0601EE1585
:1022A00000081200DDEC02F042E91200BEDF950EDC
:1022B000E66EB60EE66E000EAEEF0FF0010EE66EA5
:1022C00015EC88F042E91200E66A1DEF12F0D0C664
:1022D000E6FFD1C6E6FFBCEF0FF0030EE66EE66A3E
:1022E00009EF12F0000EE66E080EE66E1200E66EC2
:1022F0007EDED8DF630EE66EB60EE66E000EEFEF02
:102300000FF0000EE66EE66A18EF12F00B0EE66EA6
:10231000E66AFD0EE66EB50EE66E000EAEEF0FF04D
:10232000EA51EA2B43DE01EBEFFF1200F20EE66EFC
:10233000B60EE66E000EE66E1200EC0EE66EB50E00
:10234000E66E000EE66E1200EA5130DEEF6A120011
:10235000F4DE880EE66EB60EE66E000EAEEF0FF0FF
:10236000ECDE5D0EE66EB50EE66E000EAEEF0FF023
:10237000E66EE66AD0C6E6FFD1C6E6FF6DEC57F022
:10238000E5521200FAC5CCF5FBC5CDF5FCC5CEF57E
:10239000FDC5CFF51200016EF450026E015002101F
:1023A00012001DEC89F041E90009120054EC87F09D
:1023B00041E9F35012000EDE81E91200EFDDF55025
:1023C0001200FADD056EF450066E0550061012007C
:1023D000E66E77DEE552E750EF6E120029D8C4EFC3
:1023E00010F028DEDBEC41F015EF10F023DE45ECB9
:1023F0007BF042E9F350120000EBE9FF01EBEAFF4A
:102400001200E5CFCDF5E7CFCCF51200E66E5EEF1A
:1024100011F0CEC6E6FFCFC6E6FFBCEF0FF0E66ECA
:10242000E66A67EF11F0F350016EF450026E12008D
:102430003FEC8DF045E9F3501200E66A15EC88F0A8
:0424400042E912005B
:0C2444000B01416B426B0801F86BF96B57
:102450000001CA6B12000B01006B016B0001CA6B1B
:1024600012007F0E0601C85D0AE10B01010E016F2B
:10247000E90EE66EB90EE66E000E35EF20F0F0ECD8
:1024800001F0DD0EE66EB90EE66E000E35EC20F0C2
:102490000EEC02F00B01016F12007F0E0601C85D09
:1024A00008E10B01016BD80EE66EB90EE66E000E68
:1024B00013D00B01015107E00501D60ECC6FB90E08
:1024C000CD6F000E06D00501D40ECC6FB90ECD6FC6
:1024D000000ECE6FC5EC1FF035EF20F0CFEC1FF0F3
:1024E00081E943E80B0101516FE07F0E0601C85DF1
:1024F00006E1A0EC1FF0DDEC02F042E963D00B0135
:1025000030054DE1450E0701055D49E0410E055DD1
:1025100046E0610E055D43E0670E055D40E0500E4C
:10252000055D3DE00551036E060EE66E070EE66E94
:10253000C8EC20F0DEEC81F044E9F4EC21F0016A13
:10254000026AD890025004E6000E015C040E0258A4
:1025500008E2D8EC21F02DEC22F0012A000E022234
:10256000F0D7C8EC20F06CEC21F021EC22F0C8ECA4
:1025700020F02DEC22F0CC0EE66EB90EE66E000EC9
:10258000A4EC21F003EB07F7080EE66E070EE66EEB
:1025900075EC20F0C8EC20F0CAEC7EF046E9A0EC27
:1025A0001FF06CEC21F021EC22F0A0EC1FF096EC77
:1025B00020F0ECEC20F075EC20F0A0EC1FF039ECF2
:1025C0007FF044E944EC22F044E9E7CFD9FF120060
:1025D000CFEC1FF081E945E8E66A010EE66ED650C1
:1025E000E66EE66A71EC21F0056EE750046ED75096
:1025F0000426000E0522016A080E015C0CE201505F
:10260000EA6A060FE96E000EEA22EF500426000E79
:102610000522012AF1D7DDEC21F0D4EC7DF042E96E
:10262000016A160E015C11E2C8EC21F0D0BFD1693D
:1026300064EC20F00150EA6A020FE96E0B0EEA2208
:10264000E552E750EF6E012AECD70B01186B090E2B
:10265000E66E4CEC20F0F1EC22F08DEC21F0D7ECA2
:102660001FF08DEC21F0160EE66EE66A1AEC21F0F2
:10267000A6EC8BF04AE9C10EE66EB90EE66E000ECE
:1026800035EC20F01AEC21F0DDEC02F042E94BECE5
:1026900022F051EC20F039EC7FF044E94BEC22F0D1
:1026A000080EE66E4CEC20F01FEC21F044EC22F01A
:1026B00046E9E7CFD9FF1200CFEC1FF084E942E8EA
:1026C00072EC22F02CEC42F044E9BCEC22F0025017
:1026D000020A10E0030A03E0010A19E108D0B9EC8C
:1026E00020F00450EE1802E10550ED1810E010EC57
:1026F00022F00DD0B9EC20F00450EE1802E10550A4
:10270000ED1805E0AEDE10EC22F0010E026E025074
:102710003AEF20F03EEC22F044E8020EE66E4CEC7C
:1027200020F076EC21F0B80EE66EB90EE66E000EE3
:102730009CEC21F025EC20F060C0E6FF61C0E6FFD4
:1027400093EC1FF000016251A7EC21F000016651EB
:102750000F0A20E0020A18E0090A10E0060A08E061
:10276000030A1EE1AC0EE66EB90EE66E000E1DD039
:10277000A40EE66EB90EE66E000E17D09E0EE66E43
:10278000B90EE66E000E11D0950EE66EB90EE66E2D
:10279000000E0BD08C0EE66EB90EE66E000E05D064
:1027A000830EE66EB90EE66E000E76EC22F00001A6
:1027B0006851040A18E0070A10E0020A08E0010A5A
:1027C00018E1790EE66EB90EE66E000E14D0700EAA
:1027D000E66EB90EE66E000E0ED0690EE66EB90E0C
:1027E000E66E000E08D05C0EE66EB90EE66E000EC8
:1027F00002D0B6EC22F076EC22F0B6EC1FF04D08D9
:1028000007E179C0E6FF7AC0E6FF79EC22F00AD052
:1028100079C0E6FF7AC0E6FFD2EC22F079EC22F034
:10282000D2EC22F093EC1FF000016351A7EC21F0F1
:1028300064C0E6FF65C0E6FF93EC1FF0000169513C
:10284000A7EC21F06AC0E6FF6BC0E6FF93EC1FF037
:1028500000016751A7EC21F000016651A7EC21F0BF
:1028600000016851A7EC21F0BFC0CCF50501CD6B8C
:10287000CCBFCD69E2EC21F0C0C0E6FFC1C0E6FFED
:1028800093EC1FF0C7C0CCF50501CD6BCCBFCD6973
:10289000E2EC21F052EC22F0DCEC1FF0DCC0E6FFB1
:1028A000DDC0E6FF93EC1FF00001DF350FE2000111
:1028B000E135E1510001DF1908E60001E0510001B6
:1028C000DE5D0001E1510001DF5902E3000E01D09D
:1028D000010E000905E0DEC0CCF5DFC0CDF504D067
:1028E000E0C0CCF5E1C0CDF5E2EC21F0B6EC1FF094
:1028F0004D0803E124EC21F002D0D8EC22F0E2EC08
:1029000021F00001E451A7EC21F0E7C0CCF505016E
:10291000CD6BCCBFCD69E2EC21F0EAC0E6FFEBC0A5
:10292000E6FF93EC1FF0ECC0E6FFEDC0E6FF93EC92
:102930001FF0EFC0E6FFF0C0E6FF93EC1FF0DEC033
:10294000E6FFDFC0E6FF93EC1FF0E0C0E6FFE1C06A
:10295000E6FF93EC1FF0B6EC1FF04D0807E1E5C071
:10296000CCF5E6C0CDF5A0EC22F006D0E5C0E6FF40
:10297000E6C0E6FFBAEC21F0E2EC21F06CC0CCF549
:102980000501CD6BCCBFCD69E2EC21F0BEEC20F0AF
:102990006DC0E6FF6EC0E6FFDCEC1FF0BEEC20F081
:1029A0006FC0E6FF70C0E6FFDCEC1FF00001DB51FA
:1029B000A7EC21F0310EE66E0B0E1EEC20F045E97F
:1029C000E7CFD9FF12003EEC22F042E8F0EC20F015
:1029D000550EE66EB90EE66E000EFCEC22F02AEC07
:1029E00021F018EC22F003EC23F02AEC21F096CB36
:1029F000E6FF97CBE6FF96EC1FF098CBE6FF99CB6E
:102A0000E6FF96EC1FF00001C251ABEC21F0C5C00F
:102A1000CCF50501CD6BCCBFCD6908EC22F00001EF
:102A20007751ABEC21F04D0E00010F5D03E12FEC6F
:102A300021F002D0DEEC22F008EC22F07DC0E6FFAF
:102A400003EC23F031EC44F046E992EC21F0BEECCB
:102A500020F07EC0CCF57FC0CDF5A0EC22F0CDAF4C
:102A600002D0CE69CF6990EC22F0BFEC1FF080C09D
:102A7000E6FF81C0E6FF82C0E6FF83C0E6FFB9EC57
:102A80001FF084C0E6FF85C0E6FF86C0E6FF87C072
:102A9000E6FFB9EC1FF0330EE66E0B0E1EEC20F0D5
:102AA0003AEF20F03EEC22F047E84E0EE66EB90E0B
:102AB000E66E000EFCEC22F035EC21F0026A040E0A
:102AC000025C57E282EC20F0CD3547E2CC510008A1
:102AD000000ECD5542E2560EE66E0E0EE66E8D0EDF
:102AE000E66E3E0EE66E0250EA6AB50FE96E000E23
:102AF000EA22EFCFE6FFB8EC55F04AEC58F099EC3B
:102B000056F0E552E5CFCFF5E5CFCEF5E5CFCDF5E3
:102B1000E7CFCCF50501CC51056ECD51066ECE51F7
:102B2000076ECF51086EBEEC20F00CEC20F0C3EC29
:102B300021F038EC21F08DEC44F04BE9E5EC21F08C
:102B400082EC20F0280ECC5F000ECD5BC5EC1FF0B0
:102B5000A5EC1FF0B6EC22F005D0490EE66EB90EDA
:102B6000E66E000EE66EBEEC21F035EC21F0022A96
:102B7000A6D7C6C0CCF50501CD6BCCBFCD69C5ECE1
:102B80001FF038EC21F0FFEC22F0E5EC21F0350EDF
:102B9000E66E0B0E1EEC20F048E9E7CFD9FF1200DD
:102BA0003EEC22F043E8010E046E020E046ED2ECFD
:102BB00020F0420EE66EB90EE66E000EACEC22F08E
:102BC00092EC21F00F0EF66E000EF76E000E15EC73
:102BD00020F0100EF66E000EF76E000E15EC20F0D1
:102BE0007AEC20F0E4EC22F00001105111111211E6
:102BF00004E052EC21F0D4EC1FF004505AEC22F027
:102C0000E66EA8EC22F0360EE66EB90EE66E000E09
:102C1000E66E7FEC22F08DEC21F06CEC43F048E99D
:102C200092EC21F0930EE66E000EE3EC1FF0000133
:102C3000CB51ABEC21F00B01C151ABEC21F0890E73
:102C4000E66E0B0EE3EC1FF0D00EE66E000EE3EC2A
:102C50001FF0370EE66E0B0E1EEC20F044E9E7CFB6
:102C6000D9FF12003EEC22F046E800018C518D1194
:102C70008E118F1105E1046A056A066A076A20D081
:102C80008C0EE96E000EEA6EEE500001885D0501C3
:102C9000CC6FEE50000189590501CD6FEE50000157
:102CA0008A590501CE6FEE5000018B590501CF6F97
:102CB000CC51046ECD51056ECE51066ECF51076ECC
:102CC00000017151E66EE66A2F0EE66EB90EE66EF1
:102CD000000EACEC22F092EC21F000017251ABEC52
:102CE00021F000017651ABEC21F0A5C0E6FFA6C0B3
:102CF000E6FF96EC1FF0A7C0E6FFA8C0E6FF96EC43
:102D00001FF0A9C0E6FFAAC0E6FF96EC1FF04D0E2B
:102D100000010F5D03E12FEC21F002D0DEEC22F088
:102D200008EC22F04D0E00010F5D09E1BBC0CCF5AF
:102D3000BCC0CDF5BDC0CEF5BEC0CFF50AD0BBC07E
:102D4000E6FFBCC0E6FFBDC0E6FFBEC0E6FFAAECE2
:102D50001FF090EC22F0B9EC1FF000017751ABECC2
:102D600021F004EBE6FF0CEC20F007EBE6FFB9ECFA
:102D70001FF091C0E6FF92C0E6FF96EC1FF0000145
:102D80007351ABEC21F0C4C0CCF50501CD6BCCBFC9
:102D9000CD6908EC22F0C3C0CCF50501CD6BCCBFEA
:102DA000CD6908EC22F0BEEC20F0CCC0E6FFE66A6C
:102DB00093EC22F000017451ABEC21F0BEEC20F05A
:102DC000CDC0E6FFE66A93EC22F000017551ABEC52
:102DD00021F0ABC0E6FFACC0E6FF96EC1FF0BEEC06
:102DE00020F0CEC0E6FFCFC0E6FF93EC22F0390E14
:102DF000E66E0B0E1EEC20F047E9E7CFD9FF12007C
:102E00003EEC22F042E8280EE66EB90EE66E000EA9
:102E1000A4EC21F092EC21F00001135114111511D2
:102E200015E013C0F6FF14C0F7FF15C0F8FF080047
:102E3000F5500CE013C0E6FF14C0E6FF15C0E6FF36
:102E4000D4EC1FF08AEC21F0D4EC1FF0180EE66EE3
:102E5000B90EE66E000EE66ED4EC1FF03F0EE66E85
:102E60000B0E1EEC20F03AEF20F097EC22F00A0E49
:102E70000024E66EABEC86F041E90801C85152E04F
:102E8000C80EE66E080EE66E110EE66EB90EE66E20
:102E9000000EFCEC22F06EEC22F0E5EC21F076EC7A
:102EA00021F0A5EC1FF000017751E66EE66AA5EC73
:102EB0001FF096CBE6FF97CBE6FFA5EC1FF098CB73
:102EC000E6FF99CBE6FFA5EC1FF00001C251E66ECC
:102ED000E66AA5EC1FF0C5C0CCF50501CD6BCCBFF3
:102EE000CD69C5EC1FF0A5EC1FF0F0EC20F03EEC36
:102EF00020F018EC22F03EEC20F0000405E1050182
:102F00003B0ECC6F0B0E04D005013D0ECC6F0B0EAB
:102F1000CD6FCCC5E6FFE66E01EBE6FF5CEC13F08F
:102F200043E9016E01503AEF20F0CFEC1FF083E946
:102F300049E8010E0B6E020E0B6E0050011001E10C
:102F40002DD180EB03F081EB04F05EEC20F008E083
:102F50005EEC20F0200804E0032A000E0422F5D7DE
:102F60005EEC20F0200801E019D1F9EC20F09FEC94
:102F700021F01AEC21F0A8EC81F044E9000901E10C
:102F80000DD1090EA3EC20F0FDEC21F09FEC21F017
:102F9000D7EC1FF09FEC21F0A6EC8BF04AE9A0ECF7
:102FA0001FF051EC20F0CAEC7EF046E9A0EC1FF0D7
:102FB000BEEC21F0A8EC81F044E9000901E0EED07C
:102FC0009FEC21F0A0EC1FF0DEEC81F044E91AEC5C
:102FD00021F0EFEC21F0FDEC21F072EC22F0A6ECF8
:102FE0008BF04AE951EC20F0ACEC20F0D0EC8AF008
:102FF00048E9096A0A6AD8900A5004E6000E095C9A
:10300000040E0A580AE2D8EC21F0ACEC20F0ECEC0B
:1030100020F0092A000E0A22EED751EC20F096EC9F
:1030200020F0D0EC8AF048E9096A0A6AD8900A5080
:1030300004E6000E095C040E0A580AE2D8EC21F0FE
:1030400096EC20F0ECEC20F0092A000E0A22EED7D4
:103050000B01010E006F0A0EA3EC20F005EBE9FF57
:1030600006EBEAFFEF50500843E10B0130511FE13E
:10307000096A0A6A160ED8900ABE03D0095C000ECF
:103080000A5813E2C8EC21F0D0BFD16964EC20F0FB
:10309000190E0924E96E0B0E0A20EA6EE552E7507C
:1030A000EF6E092A000E0A22E5D70B012F6B306B59
:1030B000090EE66EB90EE66E000EA4EC21F080EC6F
:1030C00021F0EFEC21F0B5EC20F00B01010E306F98
:1030D000A3EC20F067EC21F0E8EC22F080EC21F08A
:1030E000D7EC1FF080EC21F0A6EC8BF04AE902D07F
:1030F0000B01306B0B01C3AF4FD0C39FD2EC20F05C
:10310000E70EE66EB80EE66E000EACEC22F0EAECCE
:1031100021F00F0EF66E000EF76E000EAFEC21F0F0
:10312000CAEC1FF0100EF66E000EF76E000EAFEC3C
:1031300021F0CAEC1FF07AEC20F0C3EC21F03DEC5A
:1031400021F0000110511111121108E052EC21F090
:10315000C3EC21F0C1EC22F0EAEC21F00B505AEC68
:1031600022F0CAEC1FF00B01C2510BEC22F00B0154
:10317000C351E66EE66A8AEC21F0C3EC21F003EC61
:1031800044F047E9EAEC21F00B01C4510BEC22F0CA
:1031900008EC21F0B5EC20F060EC79F04AE9E7CFDB
:1031A000D9FF120097EC22F00B0100511EE1070E2F
:1031B000E66EE66ADF0EE66EB80EE66E000EE66EAE
:1031C0009FEC21F0F0EC80F047E9000901E0CDD060
:1031D000070E0501002462EC22F0A7DE42E9060199
:1031E000060ED06F0E0ED16FC0D0A0EC1FF09FEC7A
:1031F00021F040EC21F00B01C3BF03D00B01410EC5
:10320000C46FBEEC21F0A0EC1FF0ACEC20F0ECECB5
:1032100020F0050EE66EE66AD90EE66EB80EE66E92
:10322000000EFCEC22F0F0EC80F047E9000905E02C
:10323000400EE66E3BEC04F08ED0050E006E070EDD
:10324000016EB9EC20F0EF50450838E10028E96E36
:10325000000E0120EA6EEF504D0830E1020E00260C
:10326000000E0122010EE66E060EE66E11EC20F055
:1032700040EC21F0F4EC21F0036A046AD890045089
:1032800004E6000E035C040E045808E2D8EC21F0BA
:103290002DEC22F0032A000E0422F0D7BEEC21F020
:1032A000010EE66E060EE66E2DEC22F0B9EC20F073
:1032B000EFCF00F6000E006E060E016E0B01C3BFCD
:1032C00003D00B01420EC46FB9EC20F0EF50430A5B
:1032D00044E02B0A37E0320A0FE01B0A46E10B01FB
:1032E000015143E1D20EE66EB80EE66E000EA4EC7C
:1032F00021F0B5EC20F039D011EC20F0DDEC20F01D
:10330000036EF450046E0001CA51F36E043417E2E8
:103310000350F35C000E045412E20B01316B326B6C
:10332000396B3A6B336B346B356B366B376B386B91
:103330003F6B406BBEEC20F0A3EC03F042E903EBE3
:10334000CAF013D011EC20F045EC7BF042E9F3CF4A
:10335000E6FF87EC79F041E908D011EC20F007D8BE
:1033600042E90B01015101E1C9D93AEF20F097EC94
:1033700022F080EB03F081EB04F05EEC20F008E03B
:103380005EEC20F02C0804E0032A000E0422F5D79E
:103390005EEC20F02C0802E1F9EC20F09FEC21F02B
:1033A00045EC7BF042E9F3CF41FBF4CF42FB03EB6A
:1033B00043FB04EB44FB3AEF20F0CFEC1FF081E934
:1033C00045E80B01C3BF03D00B01430EC46F310EA0
:1033D0000B01411901E1425101E175D1290E411959
:1033E00001E1425101E160D1280E411901E1425150
:1033F00001E137D1070E411901E1425101E1D7D076
:10340000060E411901E1425101E1CED0050E4119EC
:1034100001E1425101E1BCD0040E411901E14251E8
:1034200001E180D0030E411901E1425159E0020E41
:10343000411901E1425122E0010E411901E14251DD
:1034400002E0000E57D1016A100E015C01E351D178
:103450000150E66EE66AC70EE66EB80EE66E000E26
:103460009CEC21F0100EA7EC21F059EC21F0EF506C
:10347000A7EC21F06EEC12F0012AE6D785EC21F0E2
:10348000B6EC1FF006E041EC22F003E0A4EC22F0E1
:10349000F7D741EC22F001E001D186EC22F072E294
:1034A000100E015C6FE28DEC21F0DDEC20F0E66E99
:1034B00059EC21F0E552E750EF6E080E015C09E38C
:1034C0008DEC21F0080E015C180FE66E69EC87F0B8
:1034D00043E90F0E015C01E006D192EC62F003D1EA
:1034E000016A200E015C01E304D101EBE6FF4CEC24
:1034F00020F0090E015C03E19BEC22F0EF6A015021
:10350000E66EE66ABC0EE66EB80EE66E000E9CEC49
:1035100021F0200EA7EC21F025EC20F06EEC12F04B
:10352000012ADFD785EC21F0B6EC1FF006E041EC74
:1035300022F003E0A4EC22F0F7D741EC22F001E006
:10354000ADD086EC22F01EE2180E015C1BE20150A9
:10355000010803E3B6EC1FF015E08DEC21F001EB60
:10356000E6FF69EC87F043E90EEC21F097EC21F0DF
:10357000020E015C04E00E0E015C01E0B8D092EC9A
:1035800062F0B5D07C0EE66E1B0EE66E010EADD07D
:103590000EEC21F097EC21F06EEC12F0040EE66ECA
:1035A0003BEC04F041E9A5D05DEC1FF0A0D030EC7D
:1035B00022F0C8EC20F04DEC43F044E90801000E85
:1035C000F86F080EF96F000EE66EE66AA0EC00F0E8
:1035D00042E9C8EC20F0D60EE66E060EE66E28EC48
:1035E00051F044E9016EF8C8E9FFF9C8EAFFEF6A53
:1035F0000801F86BF96BCBEC22F09CEC21F0010E8A
:10360000D8800154A7EC21F0015071E056EC20F075
:103610002C0EEF6E000E026E080E036EB6EC1FF05D
:103620001AE0B6EC1FF00A0804E156EC20F00D0E8B
:103630000ED041EC22F004E156EC20F03B0E07D016
:10364000B6EC1FF0E66E56EC20F0E552E750EF6E58
:10365000A4EC22F0E3D704EBE9FF05EBEAFFEF6A05
:1036600046D085EC21F0B6EC1FF006E041EC22F0EC
:1036700003E0A4EC22F0F7D741EC22F00DE119ECC5
:1036800020F074EC49F042E91FEC21F0D60EE66E12
:10369000B90EE66E000E1ED031EC12F0500EE66E42
:1036A0001B0EE66E010E21D0B00EE66EB80EE66E71
:1036B000000E35EC20F045EC21F0AA0EE66EB80EB7
:1036C000E66E000E07D045EC21F0A80EE66EB80EAF
:1036D000E66E000E35EC20F0050EE66E0AEC3EF0CC
:1036E00041E931EC12F00EEC21F097EC21F06EEC98
:1036F00012F0010E46E9E7CFD9FF12000B01C3BF5C
:1037000003D00B01440EC46F280E0B01D89042BFAA
:1037100003D0415D000E425907E3423507E24151B3
:103720003108000E425502E231EC12F0000137512F
:10373000381139110FE030EC22F0CDEC20F0010E01
:10374000E66E39C0FBFF38C0FAFF3751140045E977
:1037500000090CE132DE000909E1EB0EE66E1B0EFA
:10376000E66E010E97EC21F06EEC12F04DEC12F0CB
:103770000B01416B426B43CBE9FF44CBEAFFEF6A9D
:103780001200CFEC1FF085E90B0100512FE0015131
:103790002DE1800E0B01C01529E10B01C3BF03D041
:1037A0000B01450EC46F31EC12F0AFEC22F0950E18
:1037B000E66EB80EE66E000E8BEC22F08DEC21F07A
:1037C000EFEC21F08C0EE66EB80EE66E000E8BEC80
:1037D00022F09B0E0024E96E000E0120EA6EEF6AD3
:1037E0009FEC21F0EFEC21F035EC22F041E9E7CF3E
:1037F000D9FF1200D4DB84E944E8066A076A0B01AA
:10380000005101E176D00150021073E0005071E0E8
:103810000050E66EE66A220EE66E75EC20F0D2EC01
:1038200080F045E9F350066EF450076E065007101D
:103830002FE0062A000E0722050160EC21F0CC5192
:10384000005E86EB01F087EB02F0E2EC20F0EF5037
:103850001CE0E2EC20F0EF50220817E060EC21F0D1
:103860000050D890CDBF03D0CC5D000ECD590DE2F5
:10387000E2EC20F0EF502C0804E1E2EC20F02E0EF8
:10388000EF6E062A000E0722E0D7E2EC20F0EF6A86
:10389000290EE66EE66AEC0EE66EB90EE66E000ED6
:1038A0009CEC21F0065007100DE075EC20F0880E1E
:1038B000E66EB80EE66E000EE66EDDEC21F06EEC04
:1038C00022F007D0710EE66EB80EE66E000E9FEC89
:1038D00020F0BCEC22F00B01015104E008EC21F0D7
:1038E000046A056AB5EC20F00450051002E108EC0A
:1038F00021F045E9E7CFD9FF120051DB83E94CE81D
:1039000000017B51036E7C51046E00017951056EFC
:103910007A51066E0001BB51076EBC51086EBD5155
:10392000096EBE510A6E6D0E0B6EB80E0C6E000E57
:103930000D6E4B0E00010F5D23E1BEEC21F0BAECE1
:1039400021F00501CC51036ECD51046E65DBBAEC5C
:1039500021F00501CC51056ECD51066E02EC21F02F
:10396000F9DA0501CC51076ECD51086ECE51096EC2
:10397000CF510A6E690E0B6EB80E0C6E000E0D6EF6
:103980000001E73532E2A9C0E6FFAAC0E6FF5E0EFD
:10399000E66EB80EE66E000ECCDAEAC0E6FFEBC0CB
:1039A000E6FF5B0EE66EB80EE66E000EC2DAE7C00A
:1039B000CCF50501CD6BCCBFCD69E7DA570EE66ECD
:1039C000B80EE66E000EB5DAECC0E6FFEDC0E6FF1D
:1039D0004E0EE66EB80EE66E000EABDA410EE66EE7
:1039E000B80EE66E000EE66EA8DA000171A5B5D03D
:1039F000010E0E6E00016851040A18E0070A10E07B
:103A0000020A08E0010A19E1350EE66EB80EE66E0C
:103A1000000E11D02A0EE66EB80EE66E000E0BD028
:103A2000210EE66EB80EE66E000E05D0120EE66EA2
:103A3000B80EE66E000EE66E80DA000166510F0ADF
:103A400020E0020A18E0090A10E0060A08E0030A6A
:103A500020E1090EE66EB80EE66E000E17D0FD0EE0
:103A6000E66EB70EE66E000E11D0F10EE66EB70EE2
:103A7000E66E000E13D0E70EE66EB70EE66E000E91
:103A800005D0D50EE66EB70EE66E000EF9EC22F00C
:103A900008D0C60EE66EB70EE66E000EF9EC22F008
:103AA0000E6A0E5061E060C0E6FF61C0E6FFC5EC43
:103AB00022F03FDA00016251E66EE66AC00EE66E61
:103AC000B70EE66E000E35DABE0EE66EB70EE66E87
:103AD000000EF9EC22F00001DD350BE2DCC0E6FF60
:103AE000DDC0E6FFB50EE66EB70EE66E000E6AECC0
:103AF00022F00001E451000811E2E451E66EE66AAA
:103B0000C5EC22F016DAE0C0E6FFE1C0E6FFAB0E3E
:103B1000E66EB70EE66E000E6AEC22F00001E2518E
:103B20000008000EE35520E24B0E00010F5D03E19B
:103B3000D8EC22F001D088DB28DAC5EC22F0D5ECF5
:103B400021F0DEC0E6FFDFC0E6FFA80EE66EB70E8E
:103B5000E66E000EEED968DB05D09B0EE66EB70E62
:103B6000E66E000EE66EE9D9C1DB930EE66EB70E87
:103B7000E66E000E00EC22F00550061008E04CDA6C
:103B8000810EE66EB70EE66E000ED5EC21F0035006
:103B9000041008E0F3DB720EE66EB70EE66E000E60
:103BA000D5EC21F00750081009100A100AE0E6DAF7
:103BB00029DB6A0EE66EB70EE66E000EE3DAECEC79
:103BC00022F00001D951DA110AE052EC22F0E66A43
:103BD000E66A620EE66EB70EE66E000ED3DA0001FC
:103BE000DB510AE0DB51E66EE66A5A0EE66EB70E6E
:103BF000E66E000E00EC22F000EBF3FF01EBF4FFA9
:103C00004DE9E7CFD9FF1200CAD985E95BE8000189
:103C10007951056E7A51066E076A086A096A0A6A5E
:103C20000001D9510B6EDA510C6E000160510D6E1E
:103C300061510E6E000163510F6E106A00019151C7
:103C4000116E9251126E00016851136E146A156A5A
:103C5000166A000140514111421109E1480EE66E19
:103C6000B70EE66E000EE66E06EC23F022D1005091
:103C7000011001E17DD063DB2FDB1B6EF4501C6E65
:103C80005EDB06EC83F042E91C3469E21B5000085D
:103C9000000E1C5464E20501DCD9EF501F6ED9D927
:103CA000EF6A1C344AE21B500108000E1C5445E226
:103CB00046DB83DA1D6EF4501E6E1F50440A38E056
:103CC000070A2AE0020A23E0170A1CE0010A15E0AD
:103CD000720A0EE0600A07E0160A3DE19DEB05F06E
:103CE0009EEB06F038D09DEB07F09EEB08F033D04A
:103CF0009DEB09F09EEB0AF02ED09DEB15F09EEBAC
:103D000016F029D09DEB0DF09EEB0EF024D09DEB2C
:103D10000FF09EEB10F01FD0640EE66EE66A1DEB0E
:103D2000E6FF1EEBE6FFDDDA0C6EE7500B6E13D0FC
:103D30009DEB11F09EEB12F00ED01F50500A08E0E0
:103D4000020A04E0010A07E1136A04D0030E01D05D
:103D5000040E136E146A05017CD91FEBEFFFEFDA36
:103D600000EC4BF042E9F350006EF450016E7FD747
:103D70000E3418E20D500008000E0E5413E21034F9
:103D800011E20F500008000E10540CE20FEBE6FF9A
:103D900010EBE6FF0DEBE6FF0EEBE6FFA2DA166E88
:103DA000E750156ED890165004E6E80E155C030E29
:103DB000165806E22F0EE66EB70EE66E000E63D0C2
:103DC000D950170FE66EDACFE6FF11EBE6FFFFD909
:103DD00009EBE6FF0AEBE6FFD6DA1ED915EBE6FFA4
:103DE00016EBE6FF13EBE6FF42C0FBFF41C0FAFF14
:103DF0000001405114004EE9F350196EF4501A6E50
:103E00000BD98FD917EBE6FF18EBE6FF2A0EE66E0B
:103E1000B70EE66E000EE66E9BDB1F0EE66EB70E6B
:103E2000E66E000EE66EC0D81A3422E233DA22ECD7
:103E300057F077D9300EE66E020EE66EE66A2ADAA1
:103E400025EC57F0E552E5CFCDF5E7CFCCF578DBA3
:103E5000CDAF02D0CE69CF6963DB1D0EE66EB70E23
:103E6000E66E000EE66E59DA51EC44F04CE91CD0D7
:103E7000FD0E19180BE1FF0E1A1808E10E0EE66E82
:103E8000B70EE66E000EE66EC1DB0ED019EBE6FF54
:103E90001AEBE6FF060EE66EB70EE66E000EE66E55
:103EA0003CDA80EC43F047E93DDA02EBF3FF03EB49
:103EB000F4FF5CE9E7CFD9FF120071D881E942E84D
:103EC0004EDBF350BEDA19DD42E9D4D0D7DA42E84E
:103ED0000B01C0B70BD031EC12F041DB23DA00EB61
:103EE000E6FF1BDA44EC0FF043E9BFDAC3D057D842
:103EF00087E942E831EC12F0890EE66E0B0EE66EB1
:103F0000FE0EE66EB60EE66E000E76DBB6D955DA1C
:103F1000E66AE66ABAD800EBE6FFE7D803EBE6FF0D
:103F2000B4D8A3DAA7D062DB6ADB90D2F3D9A8EFCA
:103F300022F0E66E04DA63DB8BD201DA22DB88D270
:103F4000000EE66E070EE66E1200E4D917DA57DBB4
:103F5000E5EF21F0C6EC3EF044E9FAC5CCF5FBC52F
:103F6000CDF5FCC5CEF5FDC5CFF51200E4DAEF5076
:103F7000120049DBABEC43F049E992EF21F043DB5F
:103F80008DEC44F04BE992EF21F0CCC5E6FFCDC5B6
:103F9000E6FF1200E66EF7D932DBEAEF21F0D9CF67
:103FA000E6FFE1CFD9FF120031DB92EF21F018ECF0
:103FB00082F042E939EF22F0E66AE66A17DB8DEC1F
:103FC00044F04BE943D2E66EA5D9E4EF22F0000EAF
:103FD000E66E030EE66EFC0EE66E040EE66E120052
:103FE000CEC5E6FFDBEC7DF0E552E7CFCEF5E5523E
:103FF000E7CFCDF5E552E7CFCCF53BDA25EC57F02E
:10400000E552E5CFD0F5E7CFCFF50501D16B120032
:10401000F6DA2FDAC1EF22F005EBE6FF06EBE6FF5A
:1040200012000501002862EF22F099D9E66EA8EF90
:1040300022F081DA89DAEF6A30EF22F0E66E00EBE7
:10404000E6FF5CEC13F043E9120067D9CFDA46DAF9
:10405000FDD11B04CC6F000E1C58CD6FCC51002439
:10406000E96ECD510120EA6E1200E66E51EC02F0CD
:1040700043E9120043E9E7CFD9FF12004BD97ED9BB
:1040800080EC45F049E9E5EF21F044D97CD9ABEC6F
:1040900043F049E9EAEF21F054EC87F041E992EF6F
:1040A00021F0100EE66EE66AF1EF22F004EBE9FF74
:1040B00005EBEAFF042A000E0522120003EBE9FFDC
:1040C00004EBEAFFEF501200CC51CF25F36ECD5137
:1040D000D021F46ECE51D121F86EF4CFF7FFF3CF9B
:1040E000F6FF0800F550E66E120001EBE6FF02EB6A
:1040F000E6FF12000E0EE66E54EC87F041E9B9D9E6
:104100007FEF22F0EA6A0234FE0BE96EEA36AD0E6A
:10411000E926000EEA22EECFCCF5EFCFCDF5050172
:104120001200E66AE66AE66AA8EF22F0000EE66E82
:10413000010EE66EF80EE66E040EE66E1200E66EF6
:104140003CD9C1EF22F0E66E54EC87F041E9F35020
:10415000056EF450066E1200000EE66E020EE66E5C
:10416000FA0EE66E040EE66E120031EC12F035EF38
:1041700022F000EBE9FF01EBEAFF1200010EE66E10
:10418000E66A1200E66EDBD8F1EC44F04BE960D150
:10419000000EE66E060EE66E120041CBE6FF42CB45
:1041A000E6FF12000E0EF66E000EF76E000EF86EB1
:1041B0000800F550E66EE66A120045EC7BF042E935
:1041C000F350120006EBE9FF07EBEAFF12000BEBDE
:1041D000E6FF0CEBE6FF12003DEC8BF048E9120025
:1041E0008ECBE6FF8FCBE6FF90CBE6FF91CBE6FFD1
:1041F000120003EBE9FF04EBEAFF032A000E04229E
:10420000EF6A1200C0D809EBE6FF0AEBE6FF1200E6
:10421000140EE66E0AEC3EF041E912004D0EE66E19
:104220001B0EE66E010E1200AF0EE66EB70EE66EC6
:10423000000E1200020EE66E0B0EE66E12006DD836
:10424000DDEC02F042E91200E2C0CCF5E3C0CDF5AE
:10425000A0EF22F080EC45F049E992EF21F0B9C0DF
:10426000CCF5BAC0CDF5A0EF22F08BD9E5EF21F067
:10427000E66AE66AE66ABEEF21F030D9EAEF21F09D
:10428000CCEC7FF044E9E5EF21F0EAD8DDEC02F078
:1042900042E912003C0EE66EE66A19EBE6FF1AEB05
:1042A000E6FF120010C0E6FF11C0E6FF12C0E6FFF5
:1042B00012000150EA6AB20FE96E0B0EEA221200F8
:1042C0000150065CCC6F02500758CD6F1200E80E0B
:1042D000E66E040EE66E120018EC82F042E9F3502E
:1042E0001200DAEC58F0E552E55012000001785166
:1042F000E66EE66A1200CEC5E6FFCFC5E6FF120005
:10430000190EE66E0B0EE66E12004351026E44511A
:10431000036E12002BD9E66E120002EBE6FF03EBF0
:10432000E6FF1200F350026EF450036E1200E66EC8
:1043300032D962D908EF20F00FD9BCEF22F000EBA0
:10434000E6FF01EBE6FF120057D9C1EF22F0E66E5F
:10435000E66A93EF1FF0E66EE66A96EF1FF0F86EDE
:104360000800F550E66EE66A400EE66EB90EE66E9F
:10437000000E1200E66AE66AAAEF1FF003EBE6FF02
:1043800004EBE6FF120007EBE6FF08EBE6FF120086
:1043900005018C0ECC6F1C0ECD6F010ECE6F400E42
:1043A000E66EE66AF2DDF0EF1FF0C3DDECEF22F01F
:1043B0000701006BE3DEA0EF1FF004EBE6FF05EB67
:1043C000E6FF1200E2DD93EF1FF0F350036EF450AE
:1043D000046E1200F350076EF450086E1200B0DD48
:1043E00054EC81F044E91200100EE66EE66A6FDFCD
:1043F000EEDDD0EC8AF048E91200F3D8E8EF22F0C5
:1044000098DD910EE66EB70EE66E000EF9EF22F023
:10441000BCDD96EF1FF0E66EE66AA8D8CAEF1FF083
:104420006EEC12F0A6DE04EBEEFF05EBEDFF1200E2
:1044300092CBE6FF93CBE6FF94CBE6FF95CBE6FF6E
:104440001200016EF450026E75EF20F0BCEF22F006
:10445000F350006EF450016E1200B9DDECEF20F065
:1044600043CBE6FF44CBE6FF12006EEC12F04DEFBB
:1044700012F0F3CFE6FFF4CFE6FF120090DD82E901
:10448000120074DD2C081200C90EE66EB90EE66E3D
:10449000000E35EF20F0BF0EE66EB90EE66E000E90
:1044A00035EF20F0020EE66EE66AD9C0E6FFDAC00C
:1044B000E6FF1200E66EE66A3B0EE66EB90EE66EA9
:1044C000000E1200CC6F000E0120CD6FCCC5E6FFB0
:1044D000E66E12002EDDA8DEF9EF22F060EC43F06C
:1044E00047E912002DDD63DDA0EF1FF028DEBCEFF1
:1044F00022F019DD7BC0E6FF7CC0E6FF12003E0E15
:10450000E66EB90EE66E000EE66E120092DD55DE26
:10451000016ED890120070D878EC81F045E9120055
:1045200034DD7BEF21F0E66AE66ABFEF1FF037DD8E
:1045300083E942E8120002EBE9FF03EBEAFF120015
:104540000501CE6BCF6B1200022A000E032212006F
:10455000E4DE55D892EF21F04FD8FFEF22F0A00E05
:10456000E66EB80EE66E000EA4EF21F0B60EE66E13
:10457000B90EE66E000E1200F350046EF450056E94
:1045800012002CEC43F045E91200C30EE66EB70EA4
:10459000E66E000E120001DE460EE66E1B0EE66EA3
:1045A000010E1200E7DEFAC5E6FFFBC5E6FF1200CA
:1045B000E2C0E6FFE3C0E6FFBAEF21F0B9C0E6FFD4
:1045C000BAC0E6FFBAEF21F0A8DE88DF92EF21F053
:1045D00023DDEDDC0CEF20F0FADD0DEBE6FF9DEFC7
:1045E0001FF0D80EE66E040EE66E120093DEDDEFCD
:1045F00021F0E66E9DEF1FF0E66EA0EF1FF080EC5D
:1046000043F047E9120086DE8DEF21F086DEC1EF30
:0246100022F096
:0E46120028EC2FF081E947E80001025101E099
:1046200032D3010E031901E02ED300010651A60A70
:1046300001E122D3030A01E1F6D2010A01E1E9D244
:10464000070A01E1D1D23D0A01E1A1D2080A01E144
:1046500028D2030A01E1DCD11A0A01E1B9D11C0A0E
:1046600001E14CD11A0A01E105D1010A01E1ECD0C6
:104670000D0A01E1B5D0010A01E191D0070A6EE00F
:10468000010A62E0030A3FE0010A17E0860A01E03E
:104690000DD31B0E075D03E10AC0BFF00AD01A0E4E
:1046A000075D01E003D30A51F3500B250001C06FF1
:1046B000C16B0001010EC76FF9D207C078F0D9ECC9
:1046C0002EF00001796F000E0B01462100017A6F78
:1046D000C7EC2FF000017B6F000E0B01462100019B
:1046E0007C6F000179517008170E7A5502E2796BE0
:1046F0007A6B00017B517008170E7C5501E3D6D20E
:104700007B6B7C6BD3D202EC2FF004E00B017CECD2
:104710002FF0FDE19CEC2EF004E00B0183EC2FF078
:10472000FDE1A5EC2EF004E00B019DEC2FF0FDE186
:104730000B0135EC2FF045CB88F046CB89F047CB09
:104740008AF048CB8BF0B2D207C091F00001926B97
:1047500091BF92690001780EC36FA8D202EC2FF0CE
:1047600004E00B017CEC2FF0FDE19CEC2EF004E06A
:104770000B0183EC2FF0FDE1A5EC2EF004E00B0122
:104780009DEC2FF0FDE10B0135EC2FF045CB8EFBBE
:1047900046CB8FFB47CB90FB48CB91FB87D202ECFB
:1047A0002FF004E00B017CEC2FF0FDE19CEC2EF0EF
:1047B00004E00B0183EC2FF0FDE1A5EC2EF004E00A
:1047C0000B019DEC2FF0FDE10B0135EC2FF045CBFB
:1047D00092FB46CB93FB47CB94FB48CB95FB66D231
:1047E00007C0C2F00001C2512CE0D9EC2EF00B0141
:1047F000966F000E0B0146210B01976F680E9619FC
:1048000005E1010E971902E1966B976BF00E00011E
:104810000B1504E00B01986B996B0FD00BC046FB96
:104820000B01456B00010A510B0145250B01986FE7
:10483000000E0B0146210B01996F0001780EC56F28
:1048400035D20001C56B32D20001635100010C5D0D
:1048500003E0020E96EC2EF007C062F00CC063F08D
:10486000D9EC2EF00001646F000E0B01462100010F
:10487000656F1CD24D0E00010F5D03E107C077F09C
:1048800033D076EC30F0490EE66E060EE66EE66A40
:10489000E66A07C0E6FFE66ABCEC30F0E552E5CF19
:1048A0004CFBE5CF4BFBE5CF4AFBE7CF49FBF40ED2
:1048B0000B014927010E4A23000E4B234C2349CB01
:1048C000E6FF4ACBE6FF4BCBE6FF4CCBE6FF04EC22
:1048D00058F0E552E5CF48FBE5CF47FBE5CF46FB77
:1048E000E7CF45FB45CB77F0D9EC2EF00001606FA8
:1048F000000E0B0146210001616FD8D10751016EF6
:10490000D9EC2EF0026E000E4621036E0DC045FB61
:10491000466B476B486B180E1F0B08E00B01D890D5
:104920004537463747374837E806F9E10CC049FBB9
:104930000B014A6B4B6B4C6B100E1F0B04E00B0111
:104940007CEC2FF0FDE181EC30F00BC04DFB4E6BA9
:104950004F6B506B080E1F0B04E00B0183EC2FF024
:10496000FDE18BEC30F00AC051FB526B536B546B82
:1049700035EC2FF04551046E4651056E4751066ED9
:104980004851076E021C01E1031C01E18FD1140E96
:10499000015C0BE1190E021808E1035006E103EC7B
:1049A00030F077EC03F046E902D001A00BD004EB25
:1049B000E6FF05EBE6FF30EC30F002EBE6FF03EB41
:1049C000E6FF02D003EC30F077EC03F046E96ED15D
:1049D000C7EC2FF0026E000E4621036E025003104A
:1049E00005E00001758F0A016C6960D10001E735AF
:1049F0000CE200017551800B08E00001E72B0A0171
:104A00003C0E6C6F020E96EC2EF00001759F4ED19D
:104A1000000166510001075D0EE0000166510208C9
:104A200003E20F0E665D07E1040E0001075D03E07F
:104A3000040E96EC2EF0000166510001075D05E1C1
:104A4000000167510001085D09E0020E96EC2EF0AE
:104A50000001070503E10A01020E766F07C066F048
:104A600008C067F00B01C0A104D00F0E00010A15A9
:104A700004D000010B390F0B0F0B016E00016851C0
:104A8000015C05E001EB68F0020E96EC2EF009C027
:104A900069F000010D510A0DF3CF6AF0F4CF6BF00D
:104AA00005D10F0E0001665D02E1000107890001DA
:104AB00007510001715D0FE1000108510001725DB5
:104AC0000AE1000109510001735D05E100010A518D
:104AD0000001745D03E0020E96EC2EF0800E0001E2
:104AE00072150AE1800E0001081506E0100E081587
:104AF00003E0100E96EC2EF0020E0001741507E193
:104B0000020E00010A1503E0200E96EC2EF007C0FD
:104B100071F008C072F009C073F00AC074F03AEC8A
:104B200030F01FE100018C518D118E118F1119E1B0
:104B30000001885189118A118B1113E00A01020EBC
:104B4000766F88C08CF089C08DF08AC08EF08BC0E3
:104B50008FF000018C07000E8D5B8E5B8F5B020E69
:104B600013D03AEC30F001E1A1D000018C518D114D
:104B70008E118F1101E19AD00A01020E766F0001A9
:104B80008C6B8D6B8E6B8F6B96EC2EF08FD00A0139
:104B9000760502E1030E766FE66A010EE66E00010D
:104BA0000851640DF3CF47FBF4CF48FB800E0B0197
:104BB0004727000E482347CBE6FF48CBE6FF6AECC9
:104BC00057F0E552E5CF46FBE7CF45FB0001095121
:104BD000640DF3500B0145250001D96FF4500B0112
:104BE00046210001DA6F62D007C0A5F00001A66B74
:104BF000A5BFA669000108510001A76FA86B0CC0F2
:104C0000A9F00001AA6BA9BFAA690001780EC46FC0
:104C10004DD0016A070E015C49E2D0EC2FF0015043
:104C2000ACEC2FF0F7D7016A070E015C07E2D0EC7D
:104C30002FF0070E0124ACEC2FF0F6D7410E000147
:104C4000095D03E0420E095D03E10B01320E02D063
:104C50000B01310E8B6F380E0001095D02E10B0173
:104C6000C081330E0001075D03E10B01530E02D03A
:104C70000B014E0E8C6F1AD007C0A1F008C0A2F035
:104C800009C0A3F013D0020E021910E1010E03199E
:104C90000DE1000106510E0A09E107510001765DA0
:104CA00003E0020E96EC2EF007C076F0010E48E904
:104CB000E7CFD9FF12000001025142E1040E0319AF
:104CC0003FE1020E0001065D01E0CCD0010E0B01B8
:104CD000BF1501E1C7D0010EC01501E0C3D03AEC09
:104CE00030F001E1BFD0000108510001775D01E122
:104CF000B9D00B01C151000801E3B4D006C06DFA70
:104D000007C06EFA77C06FFAF00E000109150A01AC
:104D1000706F0AC071FA0BC072FA0CC073FA0DC042
:104D200074FA0F0140B7FDD710EC2FF00A01050E01
:104D3000756F75510A0801E395D00A0E756F010C65
:104D4000440E021937E1030E031934E10001095141
:104D5000000808E208C0B5F009C0ADF00001AE6B74
:104D6000ADBFAE6900010D51000808E20CC0B6F0FD
:104D70000DC0AFF00001B06BAFBFB06900010751CB
:104D8000000808E206C0B7F007C0B1F00001B26B3E
:104D9000B1BFB26900010B51000808E20AC0B8F0C7
:104DA0000BC0B3F00001B46BB3BFB4690001780E5F
:104DB000C66F010C020E021955E1040E031952E1EF
:104DC00000010651FA0A4EE109C055FB0B01566B72
:104DD000576B586B0AC059FB5A6B5B6B5C6B080EC8
:104DE0001F0B08E00B01D89059375A375B375C37F7
:104DF000E806F9E10B01595155275A5156235B51E9
:104E000057235C5158230BC05DFB5E6B5F6B606B7F
:104E1000100E1F0B08E00B01D8905D375E375F372F
:104E20006037E806F9E10B015D5155275E515623C5
:104E30005F5157236051582355CBBBF056CBBCF084
:104E400057CBBDF058CBBEF00DC056FB556B0001E3
:104E50000C510B0155250001B96F000E0B015621B5
:104E60000001BA6F010C0A01755102E1050E756F60
:104E7000000C0A017651010826E20B01C15103E141
:104E80000A01766B20D0020E0A01765D0AE1010E5E
:104E9000766F0F0140B7FDD79FEC30F0B6EC2FF0E6
:104EA00012D0030E765D0FE1766B0F0140B7FDD790
:104EB000CEEC30F0476B486BB6EC2FF08FEC2DF05A
:104EC000020E96EC2EF00A01755101E1000C020E63
:104ED0006D5D18E1010E0B01BF1514E0010EC01548
:104EE00011E13AEC30F00EE00B01C15100080AE28A
:104EF000010EE66EF7EC8EF041E90F0140B7FDD7E9
:104F000010EC2FF00A017507000C0F0140B7FDD718
:104F100090EC2EF00A0E466F010E456F080E406FA2
:104F200040B7FED712000F0140B7FDD7CEEC30F0EE
:104F30002C0E476F010E486F496B4A6B090E4B6F81
:104F4000100E4C6F4D6B080E456F406F40B7FED78B
:104F500012000F0140B7FDD79FEC30F0496B4A6B50
:104F6000800E4B6F4C6B080E4D6F456F406F40B716
:104F7000FED7120072EC30F00F0140B7FDD77DEC88
:104F800030F0190E2DEC2FF040B7FED7A8EF2FF020
:104F900072EC30F00F0140B7FDD77DEC30F0020E1F
:104FA0002DEC2FF040B7FED7A8EF2FF072EC30F0C9
:104FB0000F0140B7FDD77DEC30F0030E2DEC2FF044
:104FC00040B7FED7A8EF2FF028EC2FF084E944E893
:104FD0006DEC30F0BAEC7BF042E9FAC5CCF5FBC5DC
:104FE000CDF5FCC5CEF5FDC5CFF50501CC51046E60
:104FF000CD51056ECE51066ECF51076E020E025C8A
:1050000005E1400E0001711501E178D0020E025C4D
:1050100007E13AEC30F004E0010E0B01BC156EE044
:105020000F0140B7FDD790EC2EF00B0E466F02EB50
:1050300047FF486B496B6AEC2FF00501CC510F011B
:105040004A6F6AEC2FF0080E05011BEC30F0FDE111
:105050000501CC510F014B6F6AEC2FF0100E0501CA
:105060001BEC30F0FDE10501CC510F014C6F6DECF4
:1050700030F018EC82F042E9F3CFD0F5F4CFD1F55F
:10508000040EF3CFCCF5F4CFCDF5000A06E0050110
:10509000D890CC37CD37E804FBE10501CE6BCF6B60
:1050A00004EBD2F505EBD3F506EBD4F507EBD5F51C
:1050B000180ED890D533D433D333D233E806F9E180
:1050C00005010F0ED66FD76BD86BD96BD651D2179F
:1050D000D751D317D851D417D951D517D251CC277E
:1050E000D351CD23D451CE23D551CF23CCC54DFFA1
:1050F0000F01080E456F406F40B7FED745E9E7CF77
:10510000D9FF120028EC2FF084E9FFDE0F0140B731
:10511000FDD77DEC30F01B0E476F486B496B02EBFF
:105120004AFF4B6BADEC30F040B7FED7020414E100
:105130007DEC30F01A0E476F486B496B050101EBAF
:10514000CCF5CD6BCC510F014A6FFF0E00144B6FA5
:10515000ADEC30F040B7FED7A8EF2FF072EC30F096
:105160000F0140B7FDD790EC2EF0090E466F476B4C
:1051700000EB48FF030E456F080E406F40B7FED7A7
:10518000A8EF2FF028EC2FF081E944E800017151DD
:10519000100B02E0010E01D0000E0001EE6F68C09E
:1051A000E8F063C0E9F00F0EE66E54EC87F041E9D9
:1051B000F350016EF450026E22EC30F001EBE6FF8A
:1051C00002EBE6FFBDEC2FF015E00BEC30F0F3CF77
:1051D000EAF0F4CFEBF022EC30F0000EE66EE66A77
:1051E000BDEC2FF00BE00BEC30F0F3CFECF0F4CF94
:1051F000EDF008D01F0E0001EA6FEB6B3C0E0001D2
:10520000EC6FED6B0001AA35AA510001EB1902E623
:10521000D9EC2FF02DE200017151800B29E1715181
:10522000040B26E072DE0A0EC0EC30F0036A046A5A
:10523000020ED89004BE03D0035C000E045813E2A3
:105240000D0EE66EA5DEA4EC2FF0030EE66E92DEE8
:10525000A4EC2FF0010EE66EA9DEA4EC2FF0032AD9
:10526000000E0422E5D775DE0001E76B0A016C69C8
:1052700045E9E7CFD9FF120028EC2FF086E943E893
:10528000086A02EBF3FF03EBF4FF190EF31801E1D8
:10529000F45001E113D1180EF31801E1F45001E1CB
:1052A00005D1170EF31801E1F45001E1E6D0160E16
:1052B000F31801E1F45001E1D9D0150EF31801E122
:1052C000F45001E1CCD0140EF31801E1F45001E1E7
:1052D000BFD0130EF31801E1F45001E1B4D0120E67
:1052E000F31801E1F45001E1A9D0110EF31801E126
:1052F000F45001E17AD0100EF31801E1F45052E0BD
:105300000F0EF31801E1F45046E00C0EF31801E122
:10531000F4502DE00B0EF31801E1F4500FE00A0EEB
:10532000F31801E1F45002E0000EE5D00B01C15189
:1053300001E1C7D025EC2FF01DDEBED00B01C1511D
:1053400001E1BFD0040E000171150BE0070E000152
:10535000675D07E0010EE66E29DE41E90601FC6BA0
:10536000B7D0960EE66E1B0EE66E010EB6D00B01A0
:10537000C15101E1A6D0000171A907D0E66A16DE8D
:1053800041E906011E0EFC6FA3D0BC0EE66E1B0E9B
:10539000E66E010EA2D00B01C15101E192D06DEC7D
:1053A00030F01FD00B01C15101E18BD080EB06F032
:1053B00081EB07F04FEC2FF008E04FEC2FF02C08BA
:1053C00004E0062A000E0722F5D74FEC2FF02C0838
:1053D0002FE1E2EC2FF025EC2FF0CCDD41E930ECB1
:1053E00030F0B0EC30F0D4DD67D00B01C15169E092
:1053F00080EB06F081EB07F04FEC2FF008E04FEC6C
:105400002FF02C0804E0062A000E0722F5D74FECF7
:105410002FF02C080DE1E2EC2FF030EC30F0B0EC86
:1054200030F0F4CFE6FF25EC2FF06CDE43E950D0EE
:10543000500EE66E1B0EE66E010E4FD00B01C151F1
:1054400040E063DD03D00B01C1513BE06CDD40D097
:105450000B01C15115E06DEC30F0020E1AD00B01BA
:10546000C1510EE06DEC30F0E66A14D00B01C15171
:1054700007E06DEC30F0030E0CD00B01C15106E1DA
:10548000620EE66E1B0EE66E010E0BD06DEC30F078
:10549000010EE66E99DD43E94D0EE66E1B0EE66EDB
:1054A000010EEBEC2EF0010E086E19D00B01C1516C
:1054B00008E025EC2FF052DE41E90AD00B01C15182
:1054C00006E1620EE66E1B0EE66E010E06D05ADE97
:1054D0004D0EE66E1B0EE66E010EEBEC2EF0045048
:1054E00009E06EEC12F0020EC0EC30F0E66A32EC2D
:1054F00016F041E9010E44E9E7CFD9FF120028EC8C
:105500002FF08FE964E87F0E0601C85D33E10D508E
:10551000E66EE66A0B0EE66EBF0EE66E000E8EECD1
:105520002FF009EBE6FF0AEBE6FFDBDB07EBE6FF1C
:1055300008EBE6FFD6DB05EBE6FF06EBE6FFD1DB8B
:1055400003EBE6FF04EBE6FFCCDB0BEBE6FF0CEB3B
:10555000E6FFC7DB02EBCCF50501CD6BCCBFCD6917
:1055600035EC30F0BEDB040EE66EBF0EE66E000ECC
:105570003EEC2FF00350041004E1800E036E3E0E4B
:10558000046E063404E205500008000E065403E3DE
:10559000640E056E066A0D50040A5CE0070A34E0EA
:1055A000030A0AE0640E0D240501CC6FCD6BCC6DAF
:1055B000CD1F000ECD237CD2C6EC2EF0D5AF02D08D
:1055C000D669D769E2EC2EF0A50EE66E040ED5EC96
:1055D0002EF0800E0501D027380ED123010ED223E4
:1055E000000ED32365EC30F0BF0E1D6E1E6AA90EAF
:1055F000216E226ACA0E236E030E246E256E266A61
:10560000410E276E4D0E4BD0C1DBD5AF02D0D6690F
:10561000D769D8DB0A0EE66E060EC7DB200E050141
:10562000D05F300ED15B050ED25B000ED35B65EC14
:1056300030F0F40E1D6E1E6AD70E216E226ABC0E6B
:10564000236E3C0E246E030E256E266A470E276ECF
:10565000600E25D09BDBD5AF02D0D669D769B2DB0F
:10566000580EE66E050EA1DBD00E0501D05FFB0ED5
:10567000D15B010ED25B000ED35B65EC30F0DA0E2D
:105680001D6E1E6AA70E216E226A940E236E8C0E6A
:10569000246E060E256E266A520E276E5A0E286E4E
:1056A000083404E207500008000E085420E3640E9A
:1056B000E66EE66A05EBE6FF06EBE6FF1FEBE6FFAC
:1056C00020EBE6FFDAEC58F0E552E5CFCDF5E7CF79
:1056D000CCF5320E0501CC27000ECD2335EC30F091
:1056E00022EC57F0E552E550086EE750076E005087
:1056F000011008E000EBE9FF01EBEAFF07EBEEFF2A
:1057000008EBEDFF0C3404E20B500008000E0C54C3
:1057100002E3FE0ED5D008340A50081804E60750FC
:10572000095C08500A5802E3FD0ECAD0023405E2B3
:1057300002503C0802E23C0E026E050113EC30F010
:105740000926CD510A2213EC30F00726CD5108224C
:1057500008341E50081804E607501D5C08501E58F7
:1057600004E29DEB07F09EEB08F0D8900C5004E6A5
:10577000FC0E0B5C080E0C5807E3200ECC6F010EDC
:10578000CD6FCE6BCF6B0FD0E90ED06F020E97DBD3
:10579000D9AF02D0DA69DB69A6DBC70EDFDACE6FDC
:1057A000D751D359CF6FCC510F6ECD51106E040E1F
:1057B000D06F0E0E84DBD9AF02D0DA69DB6993DBE0
:1057C000FA0ECCDAD751D359CC51116ECD51126E9D
:1057D000123402E3116A126A0FEBCCF510EBCDF52F
:1057E000CE6BCF6BCDAF02D0CE69CF6976EC30F007
:1057F00002EBD8F5D96BDA6BDB6BD8AF03D0D96984
:10580000DA69DB6970DB11EBD4F512EBD5F5D66BF9
:10581000D76BD5AF02D0D669D769D4DA6EEC59F020
:10582000A6EC57F095EC30F00501D051CC27D151C2
:10583000CD23D251CE23D351CF23CC51136ECD5192
:10584000146E0BEBD4F50CEBD5F5D66BD76BD5AF4F
:1058500002D0D669D769B6DA100EE66E0E0EE66E85
:10586000E66AE66A13EBD0F514EBD1F5D26BD36B95
:10587000D1AF02D0D269D36948EC30F06EEC59F068
:10588000CAEC30F00501CC51156ECD51166ECE51DB
:10589000176ECF51186E9FDBE20EE66EE6681D0EA6
:1058A00039DBD8900501CF51000A08E6F40ECC5D33
:1058B000000ECD59000ECE59000ECF5904E2FC0E59
:1058C000F36EF468F9D0196A1A6A1B6A1C6A2234EA
:1058D0000A50221804E62150095C22500A582EE290
:1058E00022340850221804E62150075C2250085840
:1058F00005E207EBCCF508EBCDF504D021EBCCF5B8
:1059000022EBCDF5CC512B6ECD512C6E09502B5C7A
:10591000D06F0A502C58D16FD26BD36BD1AF02D05D
:10592000D269D369B5DB57DB6EEC59F0A7DBD950F0
:10593000190FE96EDACFEAFF050156DB0834225071
:10594000081804E60750215C0850225801E39DD056
:105950000A3422500A1804E60950215C0A502258E1
:1059600005E209EBCCF50AEBCDF504D021EBCCF543
:1059700022EBCDF5CC512D6ECD512E6E0C340AE2BA
:105980000B50D008070E0C5405E2D00ED06F070E56
:10599000D16F04D00BEBD0F50CEBD1F5D26BD36B00
:1059A000D1AF02D0D269D36973DB480EE66E0B0E1D
:1059B000E66E110EAFDA0501CC512F6ECD51306E6F
:1059C00008342E50081804E607502D5C08502E5855
:1059D0005CE22DEBE6FF2EEBE6FF640EE66EE66A78
:1059E000DAEC58F00501FE0EE350275CD06F41E978
:1059F000E5502858D16FD26BD36BD1AF02D0D269AA
:105A0000D36946DB23EBE6FF24EBE6FF25EBE6FF5D
:105A100026EBE6FFBFDB0501CC51316ECD51326E76
:105A2000323409E232343050321804E631502F5CFF
:105A30003250305805E2AFEB31F0B0EB32F016D017
:105A400008DBCDAF02D0CE69CF691834CF5118181A
:105A500008E61550CC5D1650CD591750CE59185048
:105A6000CF5904E295EB31F096EB32F0F2DACDAF9C
:105A700002D0CE69CF69D950190FE96EDACFEAFFAB
:105A8000B3DA2D2A000E2E229BD77F0E0601C85DA9
:105A90000EE107DBEADAE50EE66EBE0EE66E000EFC
:105AA0003DDAE20EE66EBE0EE66E000EE7D9F9DADA
