:020000040000FA
:0600000054EF9EF0120017
:020006001200E6
:060008009BEF8CF01200DA
:02000E000205E9
:0100100003EC
:020011000100EC
:020013000000EB
:060018004EEF2DF0120076
:02001E000B00D5
:10002000AD3E0100850A0000400000008C3E01004A
:10003000D804000021000000873E0100E508000010
:1000400005000000523E0100C80500003500000018
:100050000D3E0100000A000045000000A73D010020
:100060006E090000660000002D3D010060000000E8
:100070007A00000013000000EA08000002000000FF
:10008000023D0100D40900002B000000EE3C0100FD
:10009000C70800001400000011000000FD07000068
:0400A000020000005A
:0C00A400EEEC1AF0FBEC17F001340FE258
:1000B00000501008270E01540AE2100EF36EFD0ED8
:1000C000F3CFDBFF270EF36EFE0EF3CFDBFF63EC07
:1000D0001BF003E3F36AF46A50D0DE6ADD6AFBECDE
:1000E00017F0013430E20050B808240E01542BE21E
:1000F000B80E035D240E04590DE2FBEC17F0B80EA8
:10010000005E240E015A026A036A01AE05D002683D
:10011000036802D05CEC18F0280E1BEC1CF02C0ECF
:100120000026010EA6EC1BF0580E2B6E020E6AEC98
:1001300017F0B80EF36EFD0EF3CFDBFF240EF36E57
:10014000FE0EF3CFDBFF63EC1BF00FE25CEC18F06C
:10015000B40E1BEC1CF05C0E0026120EA6EC1BF07D
:10016000B80E2B6E240E6AEC17F0DECF00F0DDCF58
:1001700001F000C0F3FF01C0F4FF020EE15C02E2F7
:10018000E16AE552E16E66EF16F061EC16F00E0ED4
:10019000E12650EC17F07FEC19F0040E02C0DBFFF3
:1001A000050E0CEC17F086EC19F0080E02C0DBFF10
:1001B000090E27EC17F00A0E00C0DBFF0B0E01C082
:1001C000DBFF0C0E02C0DBFF0D0E03C0DBFFA0C087
:1001D000E6FFA1C0E6FFA2C0E6FFA3C0E6FF3B0E1C
:1001E000E66EEF0EE66E000E0BEC1BF07BEC5BF0A8
:1001F000DAEC1BF037EC19F0330EE66EEF0EE66E1C
:10020000000E01EC1AF062EC5DF020EC18F0CBEC83
:100210001BF001EC1AF062EC5DF0A0EC18F0EBECD6
:1002200019F0ACC0E6FFADC0E6FFEBEC19F0000141
:100230007151F9EC1BF00001B351F9EC1BF0B6C0A1
:1002400000F0016A00BE016807EC17F06AEC1BF0D1
:100250000001BC51F9EC1BF056EC1BF0026A036A7A
:1002600001AE02D002680368040ED8900036013651
:1002700002360336E806F9E18EEC1CF0CBEC1BF0FD
:1002800001EC1AF064EC5BF07AEC1CF098EC17F0DF
:10029000080EDBCF02F0090EDBCF03F02DEC15F0DA
:1002A00064EC1AF094EC19F08DEC19F02DEC15F0CB
:1002B00064EC1AF0FCEC18F0040EDBCF02F0050E33
:1002C000DBCF03F0EEEC1BF0EEEC19F064EC1AF06F
:1002D0006A0EE66E090E26EC19F0006E0E0EE15C59
:1002E00002E2E16AE552E16E005066EF16F0ABEC17
:1002F0001BF0010EDB6A020EDB6ADF6ADF50006E64
:10030000016AFD0EDBCF02F0FE0EDBCF03F00350DF
:100310000118E8AE02D0013404D00050025C015054
:10032000035801E290D08DEC18F06BEC19F004BE8C
:100330000568F3EC1AF024C003F025C004F026C0D1
:1003400005F00CEC1CF00800F55037E1F40E066ED9
:100350002D0E076E010E086E010EDBCF09F0020EA6
:10036000DBCF0AF00B6A0ABE0B6824EC1CF009C054
:1003700027F00AC028F00BC029F0BCEC84F024C0A0
:1003800009F025C00AF026C00BF006502424F36EB5
:1003900007502520F46E085026207BEC1AF08CECD8
:1003A0001BF00BE18DEC18F06BEC19F004BE056846
:1003B00056EC16F0F550DF6E3FD0DF50006E016A4C
:1003C000FD0EDB50001838E1FE0EDB50011834E161
:1003D0007F0E0501C85D21E1010EDBCFE6FF020EB5
:1003E000DBCFE6FF200EE66EEF0EE66E000EC5ECEC
:1003F00018F09BEC19F01E0EE66EEF0EE66E000E86
:10040000E66E030EDBCFE6FF040EDBCFE6FF29EC42
:100410001CF09BEC19F0D9EC16F0A390A392010EFE
:10042000DBCFC7F8020EDBCFC8F815D85DD90801BD
:10043000C769C869A382A380010EDB2A020E01E20C
:100440005DD7DB2A5BD7050EE15C02E2E16AE5528B
:10045000E16E66EF16F0ABEC1BF00801800EC815DC
:100460004EE1C8EC18F008BE096871EC16F00EBE3B
:100470000F68B5EC16F0030E00C0DBFF040E01C0E0
:10048000DBFFD950030F72EC1CF0550EEE1809E19A
:10049000010EED1806E1DF6A6DEC1BF004AE04D02E
:1004A00002D0000E17D1056856EC16F0F5CFE8F72C
:1004B000030EDB6A040EDB6A030EDBCF00F0040ED2
:1004C000DBCF01F0080E005C000E015830E2D4ECE6
:1004D00018F007BE0868AAEC17F0030EDBCF09F08E
:1004E000040E77EC17F0030EDBCFE9FF040E2DECC2
:1004F00019F0030EDB2A040EDFE3DB2ADDD7010E41
:100500006014DF6E0F0E65140701E86F66CFE9F720
:1005100067CFEAF768CFEBF769CFECF76ACFEDF773
:100520006BCFEEF76CCFEFF76DCFF0F7609EDF503B
:1005300001E0CFD0540E0701EC5D01E0CAD0EDC759
:1005400003F0026AEE518BEC17F02CE203EC19F089
:10055000026A0234000E021807E6D880400E0054EA
:100560009C0E0154000E02541DE3010EDBCF03F973
:10057000020EDBCF04F90901D89004330333D8907D
:10058000043303330351095D04510A5904E203C9DA
:1005900009F904C90AF90551035D0651045902E23B
:1005A00040EC19F00F0E0701EA15036E026AEB51D9
:1005B0008BEC17F001E38DD003EC19F0000E005C1A
:1005C0000F0E015801E385D0010EDBCF15F9020EA5
:1005D000DBCF16F90901D00ED8801557070E165734
:1005E0003E51135D3F51145907E33E51135D006EB8
:1005F00014513F55016E21D0A2EC19F0086A096A26
:10060000010E0A6E0B6A3EC90CF03FC90DF00E6A6E
:100610000F6A0C50085C046E0D500958056E0E50A0
:100620000A58066E0F500B58076E045000260550EE
:100630000122065002220750032293EC1BF013C93B
:100640003EF914C93FF903EC19F0026A036AF0ECB1
:1006500017F03CEC1BF0163521E215510008000E96
:1006600016551CE256EC1BF0026A036A01AE02D07A
:1006700002680368F0EC17F0040E42EC18F0026A0E
:10068000036A01AE02D0026803680050622701507D
:10069000632302506423035065231BD056EC1BF0E8
:1006A000A9EC19F001AE02D002680368F0EC17F073
:1006B000080E42EC18F0A9EC19F001AE02D0026865
:1006C00003680050662701506723025068230350D7
:1006D0006923010E006E050EE15C02E2E16AE5525B
:1006E000E16E005066EF16F061EC16F0080EE126A0
:1006F0000801800EC81571E1C8EC18F008BE096841
:1007000071EC16F00EBE0F68B5EC16F094EC18F014
:10071000A4EC16F0900E0016050E0116900E0018AF
:1007200005E1050E011802E1020E1BD0A4EC16F043
:10073000900E0016060E0116900E001805E1060E2A
:10074000011802E1030E0DD0A4EC16F0500E0016B5
:10075000050E0116500E001816E1050E011813E1E2
:10076000040EDF6E0F0EE76E040EDBCF00F0050EF9
:10077000E7500016016A010E00C0DBFF6DEC1BF0B4
:1007800004AE04D002D0000E90D1056856EC16F0ED
:10079000F5CFE8F7040EDB6A050EDB6AA4EC16F071
:1007A000080E005C000E015841E2D4EC18F007BEC0
:1007B0000868AAEC17F0040EDBCF09F0050E77EC01
:1007C00017F0040EDBCFE9FF050E2DEC19F0040E37
:1007D000DB2A050EE3E3DB2AE1D7070E0F015015F4
:1007E000DF6EE00E5215E00BE838E840006E010EB7
:1007F0005115080DF3500024E76E010EE7CFDBFF23
:100800000F0E55150701E86F56CFE9F757CFEAF7F6
:1008100058CFEBF759CFECF75ACFEDF75BCFEEF7A8
:100820005CCFEFF75DCFF0F70F01509F020EDF5C5A
:1008300001E0A4D0010EDB500E0A01E185D0070AC9
:1008400031E00E0A01E030D10701E9AB08D0E60E35
:100850000001606F616B00010A0E626F05D000013C
:10086000606B616B0001626BEAC717F9100E09013A
:1008700017150AE000016B51800B06E1000E09011B
:100880003E6F3F6B136F146B0701F051000801E3DB
:100890000BD1F00EF05D01E307D1280EF05D0001F1
:1008A000926F02D1600E090117150BE1FF0E0701CF
:1008B000EE5D07E0EE51000804E2EE5109010B6F16
:1008C0000C6BEFC703F0026A0701F05118EC1BF044
:1008D0007FEC19F0D950020F72EC1CF0FF0EEE18ED
:1008E00002E1FF0EED1801E1DFD0020EDBCF28F0B0
:1008F000030EDBCF29F009010D51285C006E0E516B
:100900002958016E86EC19F098EC17F0D890015038
:1009100004E60A0E005C000E015802E3010E0AD044
:1009200098EC17F0013408E30050F608FF0E01546C
:1009300003E3020E3D6F01D03D6B020EDBCF0DF9DC
:10094000030EDBCF0EF9B0D0E9C701F0006A070152
:10095000EA5109010024136F000E0120146F0701F2
:10096000EE51280808E2F00EEE5D05E2280EEE5D7D
:100970000001936F99D00001936B96D0030EDF5C5A
:1009800035E1010EDB500F0A01E08ED000018751E6
:1009900001E18AD00F0E0701EC15300F0001806FC6
:1009A0000701EC390F0B300F0001816F0F0E0701AB
:1009B000EB15300F0001826F0701EB390F0B300F81
:1009C0000001836F0F0E0701EA15300F0001846FDD
:1009D0000701EA390F0B300F0001856F0F0E070179
:1009E000E915300F0001866F876B5ED0050EDF5C66
:1009F0005BE1010EDB50070A57E1EEC700F0016A28
:100A0000026A036A040ED8900332023201320032C5
:100A1000E806F9E1EDC704F0056A066A076A040E04
:100A20001F0B07E0D8900436053606360736E80671
:100A3000F9E104500012055001120650021207504D
:100A40000312ECC708F0096A0A6A0B6A0C0E1F0B46
:100A500007E0D890083609360A360B36E806F9E181
:100A600008500012095001120A5002120B500312D2
:100A7000EBC70CF00D6A0E6A0F6A140E1F0B07E02D
:100A8000D8900C360D360E360F36E806F9E10050D8
:100A90000C1009010F6F01500D10106F02500E1055
:100AA000116F03500F10126F010E006E080EE15C03
:100AB00002E2E16AE552E16E005066EF16F0ABEC3F
:100AC0001BF0D7EC19F07F0E0501C85D04E0200E85
:100AD000C85D01E08DD0030EE66E73EC19F029ECD1
:100AE0001AF01A0EE66EEF0EE66E000E02EC18F02B
:100AF00005E0010EF36E020EF3CFDBFF170EE66E7C
:100B0000EF0EE66E000E02EC18F005E0010EF36E3B
:100B1000030EF3CFDBFF090118A32CD0030EDB502B
:100B200013E00A01005110E00A0101510DE1000E2D
:100B3000E66EE66ACF0EE66EE66AE66AB6EC0CF0A2
:100B400067EC1AF009011893020EDB5013E0000E57
:100B5000E66EE66AE66EE66AE66EE66A010EE66E46
:100B60008BEC0CF0A9EC1CF0000902E053EC65F0F2
:100B700009011893090118A527D00A01000524E1ED
:100B80000A01015121E1020EF36E040EF3CFDBFFE7
:100B9000D00EE66EE66A040EDBCFE6FF58EC19F0E5
:100BA000E76E040EE7CFDBFFDBCFE6FFC5EC00F01E
:100BB000E552E76E040EE7CFDBFFDB50020802E0F0
:100BC000D2EC1CF009011895090118A711D00A01EF
:100BD00000050EE10A0101510BE1020EE66EC5ECC3
:100BE00000F0E552020802E0D2EC1CF0090118976F
:100BF000050EE15C02E2E16AE552E16E66EF16F095
:100C00005EDF010C61EC16F0070EE1260601EF51E4
:100C1000DE6EDD6AF051E66ED950020F0EEC18F070
:100C2000F151E66ED950040F0EEC18F04B0E09018D
:100C3000D75D2EE1FCEC18F0013413E29BEC18F0C8
:100C400010E2FCEC18F0026A036A01AE02D00268FE
:100C500003685BEC1BF0020E26C0DBFF030E27C00F
:100C6000DBFFA4EC16F0013413E29BEC18F010E269
:100C7000A4EC16F0026A036A01AE02D002680368AF
:100C80005BEC1BF0040E26C0DBFF050E27C0DBFF6C
:100C90000001772B000E782379237A23320E090185
:100CA000016A0325006E04510EEC1BF028C072F09F
:100CB0000FC900F010C901F011C902F012C903F008
:100CC00006EC1CF00FC926F010C927F011C928F056
:100CD00012C929F0C4EC9DF0EEEC19F0CDEC58F0FF
:100CE000E552E552E552E55226C0A0F027C0A1F03A
:100CF00028C0A2F029C0A3F067EC19F00BE1CBECFF
:100D000017F0026A036A92EC1CF06AEC16F026C037
:100D100071F004D0CBEC17F028C071F00001000E88
:100D2000D8806055000E615505E200016B87000117
:100D30006F8904D000016B9700016F99600E090163
:100D40001715200804E100016B856B8902D00001B2
:100D50006B99090117A90ED000016BBF2CD06B8FC6
:100D600000017B6B7C6B7D6B7E6B010E42EC17F0A0
:100D70008AD921D000016BAF1ED06B9F77C07BF06A
:100D800078C07CF079C07DF07AC07EF000017B07EE
:100D9000000E7C5B7D5B7E5B010E42EC17F0D88021
:100DA000E40E09011D55570E1E55000E1F55000E6D
:100DB000205501E2188373D900016BA9E9D0640EB4
:100DC000006E016AB0EC1BF02D6E01C02EF01EEC1F
:100DD0009EF0060E28C0DBFF0901000ED8800755E3
:100DE000000E085543E2000ED8800355000E04554E
:100DF0003DE2000ED8800555000E065537E2C2ECE4
:100E000015F0B0EC1BF076EC82F027C00CF028C097
:100E10000DF029C00EF02AC00FF035EC1CF000C018
:100E200027F001C028F002C029F003C02AF090EC9E
:100E300083F02CEC85F028C00BF929C00CF90901CE
:100E4000000ED8802854000E295402E2DCEC1AF07F
:100E5000A4EC16F0013406E29BEC18F003E203EC7C
:100E600016F004D075C073F076C074F0150E000152
:100E7000665D03E1040E42EC17F0000166510208C2
:100E800008E2010E666F03C909F904C90AF9FBD823
:100E900066D00901000ED8800355000E04552EE2DD
:100EA000DECF00F0DDCF01F0013428E29BEC18F03A
:100EB00025E2060EDB50026E036ADECF04F0DDCFC2
:100EC00005F003500518E8AE02D0053404D00450F4
:100ED000025C0550035812E30051066E076ADECF2C
:100EE00008F0DDCF09F007500918E8AE02D0093448
:100EF00004D00850065C095007582BE3000ED88038
:100F00000B55000E0C552DE2020EDBCF0AF0030E3E
:100F1000DBCF0BF00B3425E20A500008000E0B5417
:100F200020E2020EDBCF0CF0030EDBCF0DF0000150
:100F30000C50735D0D50745914E3020EDBCF0EF0AC
:100F4000030EDBCF0FF009010E50015D0F50025967
:100F500008E20001020E666F040E42EC17F0020E6A
:100F60000DD0020E0001665D0BE00901B80E035DB5
:100F7000240E045905E30001020E666F42EC17F0DF
:100F8000060EDBCF00F973C001F974C002F93ED040
:100F90000901000ED8800B55000E0C5510E2DCEC58
:100FA0001AF0A4EC16F0013406E29BEC18F003E210
:100FB00003EC16F004D075C073F076C074F0000135
:100FC0006651020813E30901100E095D270E0A5944
:100FD00003E30001040E02D00001150E666F040E3B
:100FE00042EC17F0020E42EC17F010D000016B51EA
:100FF000800B0CE06B51100B09E16B51040B06E008
:101000006B950001040E666F40EC19F00901000EAB
:10101000D8800D55000E0E5516E2020E0601ED1594
:1010200012E0D4C900F0D5C901F0050E2D6E2E6A6C
:10103000D4C928F0D5C929F01EEC9EF02450251003
:1010400002E109011887000E006E070EE15C02E262
:10105000E16AE552E16E005066EF16F0090117BF34
:101060000DD0400E176F0001606B616B0001626B69
:1010700009010D6B0E6B156B166B000C179F000CA6
:1010800009011885000CA3902AEC18F013C93EF949
:1010900014C93FF9D7EC17F0A380BEEF17F061EC4D
:1010A00016F0100EE126090117A9EDD00001B65186
:1010B00003E174EC1BF0E7D009015C515D115E1196
:1010C0005F1107E1A6EC18F0A390D7EC17F0A3800E
:1010D000DAD05C0EE96E090EEA6EEE500F5D266EF8
:1010E000EE501059276EEE501159286EEE501259DD
:1010F000296E06EC1CF05CEC9DF022C0DEFF23C0E4
:10110000DEFF24C0DEFF25C0DDFFDD52DD52FDEC39
:101110001BF0D890030EEB50000A08E6640EEE5C5C
:10112000000EEE58000EEE58000EEE5801E2ABD065
:10113000A390080E62C9DBFF090E63C9DBFF0A0E2C
:1011400064C9DBFF0B0E65C9DBFF0C0E66C9DBFF54
:101150000D0E67C9DBFF0E0E68C9DBFF0F0E69C9F4
:10116000DBFF0901D7EC17F0A38060510001AE5DF1
:10117000006EAF5109016155016E94EC18F0A4ECBA
:1011800016F0026A036A01AE02D002680368640EB8
:101190001BEC1CF081EC1AF03DEC84F0B0EC19F083
:1011A000A6EC18F098EC17F0D890015004E6010E68
:1011B000005C000E01582BE3DF5009014027010EAF
:1011C000DB504123020EDB504223030EDB5043234E
:1011D0009AEC1BF02850442729504523080EDB5079
:1011E0004627090EDB5047230A0EDB5048230B0E1F
:1011F000DB5049230C0EDB504A270D0EDB504B23EE
:101200000E0EDB504C230F0EDB504D233CD098ECE0
:1012100017F0013438E30050FF08FF0E015433E3A8
:10122000DF5009014E27010EDB504F23020EDB5029
:101230005023030EDB50512328682968040EDBCFAE
:101240002DF0050EDBCF2EF071EC84F02650090155
:10125000522727505323080EDB505427090EDB502A
:1012600055230A0EDB5056230B0EDB5057230C0E72
:10127000DB5058270D0EDB5059230E0EDB505A233E
:101280000F0EDB505B23100EE15C02E2E16AE552D7
:10129000E16E66EF16F061EC16F0190EE1260C0E09
:1012A000DB6A0D0EDB6A0E0EDB6A50EC17F000C035
:1012B000DFFF010E01C0DBFF020E02C0DBFF030EE9
:1012C0000CEC17F094EC18F0060E02C0DBFF070ED2
:1012D00027EC17F0080E00C0DBFF090E01C0DBFF92
:1012E0000A0E02C0DBFF0B0E03C0DBFFD9CFE9FF04
:1012F0006CEC1AF045E219C900F01AC901F01BC9DB
:1013000002F01CC903F0E0EC1BF019C926F01AC961
:1013100027F01BC928F01CC929F0B5EC1BF00C0EF6
:1013200026C0DBFF25C900F026C901F027C902F05D
:1013300028C903F0E0EC1BF025C926F026C927F0E8
:1013400027C928F028C929F0B5EC1BF00D0E26C0DE
:10135000DBFF31C900F032C901F033C902F034C9F2
:1013600003F0E0EC1BF031C926F032C927F033C995
:1013700028F034C929F0B5EC1BF00E0E26C0DBFFB7
:10138000F7EC18F0E7EC1BF0A4EC16F00AEC19F0FF
:10139000005001100210031007E0FDEC1BF0D88094
:1013A0000A0E5DEC1CF003E3CEEC1AF0B4D0FE0E96
:1013B000DB50740801E0B7D0CEEC1AF03AEC1AF02A
:1013C000010EE66EE66AFDEC1BF0EECF00F0EECF0C
:1013D00001F0EECF02F0EFCF03F0E80E2B6E030E1C
:1013E00065EC1CF0030EE66EEF0EE66E000EC3EC2D
:1013F0001BF080EC5CF0046E0B0E45EC1BF00C0E49
:1014000076EC1CF0F70EE66EEE0EE66E000EFDECCE
:1014100019F01DC900F01EC901F01FC902F020C952
:1014200003F0BDEC1AF03EEC1CF03AEC1AF00D0E95
:1014300076EC1CF0E70EE66EEE0EE66E000EFDECAE
:1014400019F029C900F02AC901F02BC902F02CC9F2
:1014500003F0BDEC1AF02DC900F02EC901F02FC920
:1014600002F030C903F03AEC1AF00E0E76EC1CF0E4
:10147000DB0EE66EEE0EE66E000EFDEC19F035C9E1
:1014800000F036C901F037C902F038C903F0BDECED
:101490001AF039C900F03AC901F03BC902F03CC961
:1014A00003F03AEC1AF06BEC18F0D20EE66EEE0E8A
:1014B000E66E000EB0EC15F046C900F047C901F029
:1014C00048C902F049C903F02EEC1BF04AC900F0EC
:1014D0004BC901F04CC902F04DC903F03AEC1AF0C7
:1014E00077EC18F0C30EE66EEE0EE66E000EB0EC72
:1014F00015F054C900F055C901F056C902F057C99A
:1015000003F02EEC1BF058C900F059C901F05AC97C
:1015100002F05BC903F03AEC1AF0080EE66EEF0E2B
:10152000E66E000E29D1FDEC1BF0150EEECFDBFFB1
:10153000160EEECFDBFF170EEECFDBFF180EEECF51
:10154000DBFF83EC15F010E251EC16F00DE204EC39
:101550001AF016EC1CF0B70EE66EEE0EE66E000EFC
:1015600037EC15F0EBEC15F0040E1DC9DBFF050E92
:101570001EC9DBFF060E1FC9DBFF070E20C9DBFFFC
:10158000080E21C9DBFF090E22C9DBFF0A0E23C9A1
:10159000DBFF0B0E24C9DBFF150E19C9DBFF160E8E
:1015A0001AC9DBFF170E1BC9DBFF180E1CC9DBFFB6
:1015B00083EC15F00DE251EC16F00AE20C0E76EC1D
:1015C0001CF0A20EE66EEE0EE66E000E2EEC1AF089
:1015D000040E29C9DBFF050E2AC9DBFF060E2BC945
:1015E000DBFF070E2CC9DBFF080E2DC9DBFF090E40
:1015F0002EC9DBFF0A0E2FC9DBFF0B0E30C9DBFF44
:10160000150E25C9DBFF160E26C9DBFF170E27C9ED
:10161000DBFF180E28C9DBFF83EC15F00DE251EC5F
:1016200016F00AE20D0E76EC1CF0960EE66EEE0E4B
:10163000E66E000E2EEC1AF0040E35C9DBFF050E27
:1016400036C9DBFF060E37C9DBFF070E38C9DBFFE3
:10165000080E39C9DBFF090E3AC9DBFF0A0E3BC988
:10166000DBFF0B0E3CC9DBFF150E31C9DBFF160E8D
:1016700032C9DBFF170E33C9DBFF180E34C9DBFF9D
:1016800083EC15F00DE251EC16F00AE20E0E76EC4A
:101690001CF08D0EE66EEE0EE66E000E2EEC1AF0CD
:1016A000040E46C9DBFF050E47C9DBFF060E48C91D
:1016B000DBFF070E49C9DBFF080E4AC9DBFF090E35
:1016C0004BC9DBFF0A0E4CC9DBFF0B0E4DC9DBFF1C
:1016D000150E40C9DBFF160E41C9DBFF170E42C9CC
:1016E000DBFF180E43C9DBFF83EC15F010E251EC71
:1016F00016F00DE244C9E6FF45C9E6FF870EE66E27
:10170000EE0EE66E000E8EEC1AF0EBEC15F0040E09
:1017100054C9DBFF050E55C9DBFF060E56C9DBFFBA
:10172000070E57C9DBFF080E58C9DBFF090E59C960
:10173000DBFF0A0E5AC9DBFF0B0E5BC9DBFF150E80
:101740004EC9DBFF160E4FC9DBFF170E50C9DBFF7A
:10175000180E51C9DBFF83EC15F010E251EC16F0C6
:101760000DE252C9E6FF53C9E6FF7C0EE66EEE0EAF
:10177000E66E000E8EEC1AF0EBEC15F0190EE15C43
:1017800002E2E16AE552E16E66EF16F061EC16F0F6
:10179000020EC0EC18F0D00EEE1801E0B1D0ED5002
:1017A00001E0AED05C0EE66EEE0EE66E000E1EECB4
:1017B00016F019C9E6FF1AC9E6FF1BC9E6FF1CC9E6
:1017C000E6FF7DEC15F01DC9E6FF1EC9E6FF1FC947
:1017D000E6FF20C9E6FF7DEC15F021C9E6FF22C92E
:1017E000E6FF23C9E6FF24C9E6FF7DEC15F025C915
:1017F000E6FF26C9E6FF27C9E6FF28C9E6FF7DEC1C
:1018000015F029C9E6FF2AC9E6FF2BC9E6FF2CC956
:10181000E6FF7DEC15F02DC9E6FF2EC9E6FF2FC9C6
:10182000E6FF30C9E6FF7DEC15F031C9E6FF32C9AD
:10183000E6FF33C9E6FF34C9E6FF7DEC15F035C994
:10184000E6FF36C9E6FF37C9E6FF38C9E6FF7DEC9B
:1018500015F039C9E6FF3AC9E6FF3BC9E6FF3CC9C6
:10186000E6FF7DEC15F040C9E6FF41C9E6FF42C93D
:10187000E6FF43C9E6FF7DEC15F06BEC18F064EC75
:101880001AF046C9E6FF47C9E6FF48C9E6FF49C95D
:10189000E6FF7DEC15F04AC9E6FF4BC9E6FF4CC9EF
:1018A000E6FF4DC9E6FF7DEC15F04EC9E6FF4FC9D6
:1018B000E6FF50C9E6FF51C9E6FF7DEC15F077EC75
:1018C00018F064EC1AF054C9E6FF55C9E6FF56C992
:1018D000E6FF57C9E6FF7DEC15F058C9E6FF59C988
:1018E000E6FF5AC9E6FF5BC9E6FF7DEC15F06C0E1A
:1018F000E66E090E26EC19F0E76EFE0EE7CFDBFF71
:10190000FE0EDB5077EC19F002E2E16AE552E16E7F
:10191000005066EF16F061EC16F0E652FE0EDB505A
:101920000FE00601F3B50CD002EC1CF003E09CECD8
:1019300016F008E11FEC1AF003E09CEC16F002E14F
:10194000000E11D05FEC1BF004E015EC18F020093C
:1019500001D0650EDF6E0601006BDFCFE6FF9BDC7A
:10196000E5529CEC1AF0E55266EF16F061EC16F0C9
:10197000030EC0EC18F0D00EEE1813E1ED5011E19B
:10198000FE0EDB5005E01DEC18F058EC19F022D0EB
:10199000AAEC1AF0020EE66E58EC19F0020835E0D7
:1019A00032D026EC1BF005E09FEC17F0EF50200939
:1019B00001D0650EE76E020EE7CFDBFF38EC18F0C2
:1019C000020EDBCFE6FF67DCE552FE0EDB5017E0D0
:1019D000E2EC1CF0AAEC1AF0550EE66EEE0EE66E86
:1019E000000EC5EC18F029EC1AF0520EE66EEE0E61
:1019F000E66E000EBCEC15F0E2EC1CF006D0B5EC87
:101A00001CF0E2EC1CF0D2EC1CF0010E006E030E98
:101A1000E15C02E2E16AE552E16E005066EF16F029
:101A2000EEEC1AF0FE0EDBCFE6FF46EC20F0E552BE
:101A3000E76EFE0EE7CFDBFF72EC1AF003E011EC6D
:101A400019F003D0C80E006E016AC6EC1AF0090145
:101A50001751FCEC1AF0D2EC16F000016B5137EC88
:101A60001BF000016F5137EC1BF000016651F9ECDF
:101A70001BF00DC9E6FF0EC9E6FFEBEC19F015C926
:101A8000E6FF16C9E6FFEBEC19F049EC19F07DEC26
:101A900015F003C9E6FF04C9E6FFEBEC19F005C930
:101AA000E6FF06C9E6FFEBEC19F009C9E6FF0AC933
:101AB000E6FFEBEC19F0DCEC19F0EBEC19F007C9E0
:101AC000E6FF08C9E6FFEBEC19F0E1EC19F0EBECEE
:101AD00019F0E6EC19F0EBEC19F00901D651F9EC2C
:101AE0001BF05BEC19F002E1010E02D0FE0EDB50A0
:101AF00077EC19F002E2E16AE552E16E005066EF20
:101B000016F061EC16F0E150FA0FE6EC15F00AE081
:101B10009FEC17F0EF5006E0B1EC1AF0E0EC17F094
:101B200052EC19F0FE0EDB5006E01DEC18F078DFE9
:101B3000E552E552E552010E66EF16F0EEEC1AF0B2
:101B40005FEC1BF009E015EC18F006E049EC17F02B
:101B5000E0EC17F052EC19F00601F3B50CD002ECF2
:101B60001CF003E09CEC16F008E11FEC1AF003E017
:101B70009CEC16F002E1000E86D0FE0EDB5002E077
:101B8000E0EC16F0000EDE6E060EDD6E0901175158
:101B9000E66EE66A380EE66EEE0EE66E000ED2ECEB
:101BA00016F049EC19F0320EE66EEE0EE66E000EFF
:101BB00050EC1CF0DAEC1BF0A2EC19F08EEC1CF0EF
:101BC0002D0EE66EEE0EE66E000ED7EC15F03EC959
:101BD00000F03FC901F0026A036A8EEC1CF0280E87
:101BE000E66EEE0EE66E000ED7EC15F00001BC516D
:101BF000E66EE66A230EE66EEE0EE66E000E32EC40
:101C00001CF0D9EC16F07F0E0501C85D3BE1000E1B
:101C1000DE6E060EDD6E0001B351E66EE66A1B0E47
:101C2000E66EEE0EE66E000E32EC1CF037EC19F0AC
:101C3000150EE66EEE0EE66E000E01EC1AF024ECC8
:101C40005CF020EC18F00F0EE66EEE0EE66E000E65
:101C500001EC1AF024EC5CF0A0EC18F0090EE66E32
:101C6000EE0EE66E000E32EC1CF0ACC0E6FFADC02E
:101C7000E6FF030EE66EEE0EE66E000E32EC1CF092
:101C8000D9EC16F0010E77EC19F002E2E16AE552A8
:101C9000E16E005066EF16F0EEEC1AF0F7EC18F07B
:101CA00029EC1AF000016BA53FD000016651040A2F
:101CB00010E0060A08E0030A12E1FA0EE66EED0EE5
:101CC000E66E000E11D0E40EE66EED0EE66E000E2E
:101CD0000BD0D60EE66EED0EE66E000E05D0C50EEC
:101CE000E66EED0EE66E000EBCEC15F03EEC1CF060
:101CF0002DEC15F0BD0EE66EED0EE66E000ED7EC87
:101D000015F0080EE66EEF0EE66E000EBCEC15F058
:101D1000040E0001665D1EE0ABEC16F0B40EE66E3C
:101D2000ED0EE66E000E14D0A10EE66EED0EE66E20
:101D3000000EBCEC15F00901100E035D270E0459CE
:101D400009E2ABEC16F0910EE66EED0EE66E000EBB
:101D5000A1EC1BF067EC19F018E1E1EC19F0870E2B
:101D6000E66EED0EE66E000E32EC1CF0E6EC19F0BD
:101D7000830EE66EED0EE66E000E32EC1CF07F0E6A
:101D8000E66EED0EE66E000E27D075C002F076C04E
:101D900003F0046A056AE1EC19F0E4EC17F0870E31
:101DA000E66EED0EE66E000E48EC18F073C002F021
:101DB00074C003F0046A056AE6EC19F0E4EC17F06D
:101DC000830EE66EED0EE66E000E48EC18F07B0E0C
:101DD000E66EED0EE66E000EBCEC15F0020EE66E41
:101DE000E66A03C900F004C901F0026A036A03C984
:101DF000E6FF04C9E6FFB8EC1AF0730EE66EED0ECE
:101E0000E66E000EF2EC16F0020EE66EE66A05C90A
:101E100000F006C901F0026A036A05C9E6FF06C9B7
:101E2000E6FFB8EC1AF06F0EE66EED0EE66E000EF1
:101E3000F2EC16F0020EE66EE66A09C900F00AC975
:101E400001F0026A036A09C9E6FF0AC9E6FFB8ECB5
:101E50001AF06B0EE66EED0EE66E000EF2EC16F06A
:101E6000680EE66EED0EE66E000EBCEC15F067EC4B
:101E700019F014E1A0C000F0A1C001F0A2C002F06E
:101E8000A3C003F051EC18F06BEC1CF0D7EC15F08C
:101E90007F0EE66EED0EE66E000E27D0A0C004F0B9
:101EA000A1C005F0A2C006F0A3C007F051EC18F0E5
:101EB00026C004F027C005F028C006F029C007F0AE
:101EC0002DEC1CF092EC1CF080EC1CF06BEC1CF088
:101ED00050EC1CF0086E090EE15E085029EC1AF077
:101EE0007B0EE66EED0EE66E000EBCEC15F0020EFB
:101EF000E15C02E2E16AE552E16E66EF16F061EC48
:101F000016F0FE0EDB500FE00601F3B50CD002EC2C
:101F10001CF003E09CEC16F008E11FEC1AF003E063
:101F20009CEC16F002E1000E05D00601006BB4DE59
:101F30009CEC1AF066EF16F061EC16F038EC18F035
:101F4000ABDEE2EC1CF0010E66EF16F0EEEC1AF0E0
:101F500072EC1AF003E011EC19F003D0C90E006E18
:101F6000016AC6EC1AF00601F151FCEC1AF032ECF1
:101F70001CF05BEC19F002E1010E02D0FE0EDB500A
:101F800077EC19F002E2E16AE552E16E005066EF8B
:101F900016F061EC16F0E150FC0FB9EC1BF0CA0E24
:101FA000EE1815E1ED5013E126EC1BF009E09FEC73
:101FB00017F0EF5005E0B1EC1AF0B7EC19F002D0D1
:101FC0000601F16BB1EC1AF01C0EA6EC17F0FE0E38
:101FD000DB5006E01DEC18F0B9DFE552E552E552A2
:101FE000010E66EF16F0EEEC1AF0FE0EDB502BE061
:101FF00002EC1CF003E09CEC16F006E11FEC1AF07A
:1020000022E09CEC16F01FE026EC1BF019E0050E18
:10201000E76E9FEC17F0BEEC19F012E05FEC1BF0DE
:1020200008E015EC18F005E049EC17F0B7EC19F0F2
:1020300002D00601F16B49EC17F01C0EA6EC17F06C
:102040000601F3A502D0000E31D0E0EC16F04E0EE2
:10205000E66EED0EE66E000E1EEC16F00601F15176
:102060000AE1480EE66EED0EE66E000E01EC1AF087
:1020700029EC1CF016D0F15104EC1BF067EC19F0C0
:1020800006E17F0E006EED0E016E000E05D07B0E98
:10209000006EED0E016E000E026E07EC17F0E0EC24
:1020A00018F029EC1AF0D9EC16F0010E77EC19F0C3
:1020B00002E2E16AE552E16E005066EF16F061EC73
:1020C00016F0080EE126D7EC19F0040EDB6A050EB7
:1020D000DB6A060183EC18F018EC19F00601F151E7
:1020E000000807E2F151E66ED950060F0EEC18F029
:1020F00021D00901055106110AE00751081107E036
:10210000C2EC15F0E8EC18F0C5EC19F004D0060E9E
:10211000DB6A070EDB6A67EC19F00CE198EC17F04C
:10212000026A036A01AE02D0026803685BEC1BF02E
:10213000B0EC19F0D950060FEDEC18F00FE0060ED8
:10214000DBCF08F0070EDBCF09F00A6A0B6A09AE95
:1021500002D00A680B6832EC16F002D0006A016AFD
:1021600094EC18F072EC1AF003E011EC19F003D0C3
:10217000CB0E006E016AC6EC1AF00601F051FCECC1
:102180001AF032EC1CF00601EF51F9EC1BF0040ED2
:10219000DBCFE6FF050EDBCFE6FFEBEC19F01FEC23
:1021A00019F0EBEC19F0ABEC16F06AEC1BF05BEC01
:1021B00019F002E1010E02D0FE0EDB50006E080E97
:1021C000E15C02E2E16AE552E16E005066EF16F072
:1021D00061EC16F0040EC0EC18F0CC0EEE1846E1DF
:1021E000ED5044E1DE6ADD6AD7EC19F026EC1BF015
:1021F00017E09FEC17F0EF5013E0CBEC1BF0E66E0E
:10220000B1EC1AF0CCEC19F029EC1AF0CBEC1BF085
:10221000E66E000EE66EE66ACCEC19F018EC19F0EA
:10222000FDEC1BF0EE50ED1005E053EC1CF0E0EC83
:1022300017F002D0006A016A00C0F0F6D950020F10
:10224000EDEC18F005E01FEC19F0E0EC17F002D00F
:10225000006A016A00C0EFF653EC1CF01B0EA6ECFE
:1022600017F01FEC19F01A0EA6EC17F0FE0EDB505B
:1022700006E01DEC18F023DFE552E552E552010EB1
:10228000006E040EE15C02E2E16AE552E16E00508C
:1022900066EF16F061EC16F0100EE126FE0EDB5034
:1022A00001E17BD002EC1CF003E09CEC16F006E1AF
:1022B0001FEC1AF072E09CEC16F06FE026EC1BF0BD
:1022C00069E0020EE76E9FEC17F0BEEC19F062E0D9
:1022D000060EDB6A070EDB6A080EDB6A090EDB6A94
:1022E0000601EF6BF06B5FEC1BF042E015EC18F0B1
:1022F0003FE049EC17F018EC86F0E552E55218EC97
:1023000019F049EC17F0BAEC8FF0EAEC1AF000067D
:10231000000E015AF80EDB500024E96EF90EDB5076
:102320000120EA6E040EEFCFDBFFDB50250808E149
:10233000D0EC19F0C5EC19F0020EDBCFEFF60BD0A4
:10234000D0EC19F0080E28C0DBFF090E29C0DBFF16
:10235000020EDBCFF0F649EC17F0A4EC66F0E55284
:10236000E552F80EF3CFDBFFF90EF4CFDBFFBBD75E
:10237000060EDBCFE6FF070EDBCFE6FF1A0EA6EC5C
:1023800017F0080EDBCFE6FF090EDBCFE6FF1B0ED2
:10239000A6EC17F00601F3A502D0000EF3D0E0EC96
:1023A00016F0390EE66EED0EE66E000E1EEC16F01F
:1023B0000601EF5108E1F05106E1350EE66EED0E33
:1023C000E66E000ED3D00A0EDB6A0B0EDB6A0C0E33
:1023D000DB6A0D0EDB6AEF51000812E283EC18F0A5
:1023E0000A0EF3CFDBFF0B0EF4CFDBFF0601EF513C
:1023F00004EC1BF0AB0EE66EEE0EE66E000EBCDBE0
:102400000601F051000874E2F151000807E2F151B1
:10241000E66ED9500E0F0EEC18F02CD009010551C4
:1024200006110DE0075108110AE0ACDBE8EC18F0EA
:102430000E0E28C0DBFF0F0E29C0DBFF04D00E0EEE
:10244000DB6A0F0EDB6A67EC19F014E10E0EDBCFCE
:1024500000F00F0EDBCF01F0026A036A01AE02D07A
:10246000026803685BEC1BF00E0E26C0DBFF0F0E4C
:1024700027C0DBFFD9500E0FEDEC18F00EE00E0E6A
:10248000DBCF08F00F0EDBCF09F00A6A0B6A09AE4A
:1024900002D00A680B68E6DB02D0006A016A0C0E03
:1024A00000C0DBFF0D0E01C0DBFF0601EF5100088D
:1024B00006E2300EE66EED0EE66E000E5DDB060106
:1024C000F05104EC1BF067EC19F006E17F0E006E92
:1024D000ED0E016E000E05D07B0E006EED0E016E4E
:1024E000000E026E07EC17F0E0EC18F029EC1AF081
:1024F0000C0EDBCF00F00D0EDBCF01F0013420E23B
:102500009BEC18F01DE2D9500A0FEDEC18F013E027
:102510008DEC19F00A0EDBCF04F00B0EDBCF05F0CB
:1025200003500518E8AE02D0053404D00450025C14
:102530000550035805E20C0EDBCFE6FF0D0E0BD065
:1025400094EC19F0013410E29BEC18F00DE20A0E45
:10255000DBCFE6FF0B0EDBCFE6FF270EE66EED0EC0
:10256000E66E000EE66EC3DA61EC19F005DBF3DB14
:10257000170EE66EED0EE66E000EA1EC1BF0D9EC28
:1025800016F0010E006E100EE15C02E2E16AE55207
:10259000E16E00509BD395DBFC0EDBCF28F0FD0EE7
:1025A000DBCF29F0CF0E281801E1295030E0D00E02
:1025B000281801E129502BE0CB0E281801E1295001
:1025C00023E0CC0E281801E129501EE0C90E28187E
:1025D00001E1295016E0CA0E281801E1295011E046
:1025E000C80E281801E1295008E0060E281815E148
:1025F000295013E100DBA0DC0DD0FDDA81EC0DF0F9
:1026000009D0F9DAC6DC06D0F6DAE2DD03D0F3DA77
:10261000B6EC0CF067EC1AF001D0000E57D351DB8A
:10262000030EE126DE6ADD6AD1DB04BE0568040E16
:10263000F1EC18F0FDE1DFDB01E1E2D0D80E066E2F
:102640002F0E076E010E086EDECF09F0DDCF0AF007
:102650000B6A0ABE0B68040ED89009360A360B3690
:10266000E806FAE106500924036E07500A20046EBA
:1026700008500B20056E03C0E6FF04C0E6FFE66EBF
:10268000C8EC8FF0E552E552E5521FEC1BF0000656
:10269000000E015A025ABBDBD80E0F6E2F0E106EC1
:1026A000010E116EDECF12F0DDCF13F0146A13BEEF
:1026B0001468040ED890123613361436E806FAE180
:1026C0000F5012240C6E105013200D6E1150142058
:1026D0000E6E0C2A000E0D220E220CC0E6FF0DC05D
:1026E000E6FF0EC0E6FFF90EDBCFE6FFFA0EDBCF0A
:1026F000E6FFA8EC8EF0156E070EE15E155000099E
:1027000001E078D0FE0EDB502EE0F70EDBCFE6FFC7
:10271000F80EDBCFE6FF5DEC66F0E552E552F70E12
:10272000F3CFDBFFF80E7BEC19F0F70FE66EFF0E30
:10273000DA20E66EFB0EDBCFE6FFFC0EDBCFE6FF1A
:1027400045DB04BE0568040EF1EC18F0FDE153DB37
:10275000E66E55EC6DF0066E050EE15E0650000962
:1027600002E1000E4ED0DECFE9FFDDCFEAFF030E1F
:10277000EA02F3CFEAFFE902F3CFE9FFF450EA26D9
:10278000C90EE926080EEA22EECF00F0EECF01F0E6
:10279000EFCF02F0F70EDBCFE6FFF80EDBCFE6FF60
:1027A000F90EDBCFE6FFFA0EDBCFE6FFFB0EDBCF49
:1027B000E6FFFC0EDBCFE6FFFD0EDBCFE6FF06D02B
:1027C00002C0FBFF01C0FAFF0050F96EF9DF036E93
:1027D000070EE15E0350E76E020EE7CFDBFFFD0E52
:1027E000DB5005E0020EDB5002E053EC65F0020E18
:1027F000DB5007D0DF2A010E01E216D7DB2A14D7FF
:10280000000E006E030EE15C02E2E16AE552E16E49
:1028100000505CD256DA3DDBEED9E66A7CEF1BF065
:1028200050DAF90EDBCFE6FFE6D9010EE66EE66E72
:102830007CEF1BF0EEEC1AF0FE0EDB5003E106011C
:10284000F3A502D0000E3AD00501040EFD6FED0E87
:10285000FE6F000EFF6FB3EC2EF0DE6ADD6AB6DAB3
:1028600004BE0568040EF1EC18F0FDE1C4DA25E0C1
:102870000501020EFD6FED0EFE6F000EFF6FB3EC53
:102880002EF0A4DA04BE0568040EF1EC18F0FDE1A8
:10289000005003240501FD6F01500420FE6F02501B
:1028A0000520FF6FFD2B000EFE23FF23B3EC2EF05F
:1028B000DF2A010ED4E3DB2AD2D7010E77EC19F020
:1028C00002E2E16AE552E16E005000D2FAD9E65226
:1028D000520E0601C85D05E1540EC95D02E1CA5100
:1028E0003AE0520EC86F540EC96FCA6BCB6BCC6BFB
:1028F0000901400E176F880E036F130E046F100E40
:10290000056F270E066F096B0A6B0001320E726F9E
:102910000901006B0B6F0C6B640E076F086B016B8A
:10292000026B0D6B0E6B156B166B0F6B106B116BD7
:10293000126B136B146B8EDB3E6B3F6B1FDB37DB55
:10294000186B0001776B786B796B7A6B00017B6B8E
:102950007C6B7D6B7E6B900E6F6E6EAEFED7606A89
:102960000F011869E00E196F2A0E006FA00E016F9B
:10297000046B056B506BFE0E1C6F1D6BB20E086F67
:10298000096BD20E0C6F0D6BAA0E106F116BBA0E85
:10299000146F156B706ABF0E716E020E726E200E90
:1029A000736E0601F451000802E26F6A02D0600EF5
:1029B0006F6E0901DA0ED86F2D0ED96F010EDA6F26
:1029C0000901E00EDB6F2D0EDC6F010EDD6F0901DA
:1029D000560EE16F040EE26F000EE36F0901E80E80
:1029E000E46F060EE56F000EE66F0901000EFC6F46
:1029F0000C0EFD6F000EFE6F0901040EE76F0C0E4A
:102A0000E86F000EE96F09015C0EEA6F100EEB6FC4
:102A1000000EEC6F0901800EED6F100EEE6F000ED0
:102A2000EF6F0701140EF46F280EF56F000EF66FAE
:102A30000701200EF76F280EF86F000EF96F0701DF
:102A4000960EF16F250EF26F000EF36F0501EE8109
:102A5000EE83EE85010EE55239D1F20E00262B0EE3
:102A6000A6EC1BF0E40E2B6E570E65EF1CF0C3ECCA
:102A70001BF064EC5BF0086E090E49EC1BF0080ECD
:102A8000DBCF04F0090EDBCF05F00A0EDBCF06F03A
:102A90000B0EDBCF07F0E0EC1BF004C026F057EC88
:102AA0001AF0040EDBCF2BF0050EDBCF2CF0060E58
:102AB000DBCF2DF0070E9CEC1CF0050EEEEC1BF0AE
:102AC000D1EC1BF02DEC1CF0AD0EE66EEE0EE66EBA
:102AD000000EC3EC1BF04DEC5BF0086E070E49ECEA
:102AE0001BF0AB0EE66EEE0EE66E000E120053EC1F
:102AF0001CF020EC1CF029EF1AF0CBEC1BF050EC92
:102B00001CF0DAEF1BF0040EDBCF04F0050EDBCF78
:102B100005F0060EDBCF06F0070EDBCF07F0D9502D
:102B2000080F72EC1CF0EE50045C006EEE5005587D
:102B3000016EEE500658026EEE500758036E110EED
:102B400000C0DBFF120E01C0DBFF130E02C0DBFF73
:102B5000140E03C0DBFFD950040FE96E6CEF1AF0BE
:102B6000C3EC1BF07BEC5BF0046E090E45EF1BF031
:102B7000FDEC19F004EF1AF001EC1AF029EC1CF04E
:102B800029EF1AF007C928F008C929F076EC82F07D
:102B90004DEC1BF005C928F006C929F043EC1AF0EA
:102BA0003DEC83F01FEC1BF02AC003F0120050EC48
:102BB0001CF07AEF1CF05CEC9DF022C000F023C00A
:102BC00001F024C002F025C003F01200B9EC1BF0A4
:102BD000EE50ED101200C3EC1BF029EC1CF0E7EFF7
:102BE0001BF001EC1AF04DEC5BF0026E070EE15E9B
:102BF000025029EF1AF0B1EC1AF0AAEC1AF0FE0E0E
:102C0000DBCFE6FF12009AEC1BF078EC82F04DEC83
:102C10001BF0B0EC1BF043EC1AF090EC83F01FECCF
:102C20001BF02AC003F084EC1BF03DEC83F02CEC8D
:102C300085F028C073F029C074F012000BEC1BF073
:102C400029EC1CF029EF1AF081EC1AF0C4EC9DF08D
:102C5000050E2626000E27222822292206EC1CF02B
:102C6000C4EF9DF0F0C604F0056A066A076AA2EC9C
:102C70001CF0F0C626F057EC1AF008C02BF009C083
:102C80002CF00AC02DF00BC02EF03DEC84F026C0D5
:102C900002F027C003F02DEC1CF052EC00F0EAEF3C
:102CA0001AF0D950150FE96E6CEF1AF0F3EC1AF028
:102CB0000CEC1CF0020EF626000EF722F82208009B
:102CC0001200D9CFE6FFE1CFD9FF1200E552E7CFDE
:102CD000D9FF1200B8EC1AF0CDEC58F0E5522AEF0B
:102CE0001BF024EC1CF007C027F008C028F009C036
:102CF00029F0BCEC84F024C007F025C008F026C001
:102D000009F004502424F36E05502520F46E06507B
:102D10002620F1DB0800F5CF02F002C003F0026AC2
:102D2000F40E0A6E2D0E0B6E010E0C6EC7C80DF060
:102D3000C8C80EF00F6A1200FC0EDBCFE9FFFD0ED3
:102D4000DBCFEAFFEF501200040EDBCF00F0050EE0
:102D5000DBCF01F01200100EE66E270EE66E52EC8D
:102D600000F0EAEC1AF0BEEF1BF024EC1CF00DC0F2
:102D700027F00EC028F00FC029F0BCEC84F024C06E
:102D80000DF025C00EF026C00FF00A502424F36E7B
:102D90000B502520F46E0C502620ADDB8CEC1BF084
:102DA00018EF1BF02EDBCDEC5BF0A9EC1CF029EF4B
:102DB0001AF058EC1CF002EC2FF0E552E55212002C
:102DC000C9DB2CEC65F0E552E5521200D80E006E1E
:102DD0002F0E016E010E026EDECF03F0DDCF04F088
:102DE000056A12000EDB80EC5CF0046E0B0EE15EF7
:102DF000045029EF1AF000500324F36E0150042010
:102E0000F46E0250052077DB0800F550120000C078
:102E1000E6FF01C0E6FF120003C0DBFF290EE96EEA
:102E2000090EEA6E1D51EE24006E1E51EE20016E59
:102E30001F51EE20026E2051EE20036E3551002608
:102E4000365101223751022238510322120003C0A9
:102E5000DBFF2D0EE96E090EEA6E2151EE24006EA5
:102E60002251EE20016E2351EE20026E2451EE20FD
:102E7000036E395100263A5101223B5102223C5146
:102E800003221200E66EE66A98EC2FF0E552E55256
:102E90001200F80EDBCFE6FFF90EDBCFE6FF1200E3
:102EA000250EE96E090EEA6E09011951EE24006E35
:102EB0001A51EE20016E1B51EE20026E1C51EE20C5
:102EC000036E315100263251012233510222345116
:102ED000032212002C6E86DA3DEC84F027C001F04C
:102EE000FDEC1BF02650EE260150ED221200DBCF48
:102EF0000AF0030E0926000E0A220B6A005009246C
:102F0000F36E01500A20F46E02500B20F4DA080030
:102F1000F550E66E12008CDB93EC1BF0D950010FDC
:102F200072EC1CF0000ED880EE54000EED5412002E
:102F3000060EDBCF00F0070EDBCF01F01200FA0E19
:102F4000DBCFE9FFFB0EDBCFEAFF1200E66EEAEC17
:102F500094F080D324EC1CF006C027F007C028F0C2
:102F600008C029F0BCEC84F003502424006E045007
:102F70002520016E05502620026E12001C0EE66E02
:102F8000E66AE66A400EE66E090EE66EF2EC8EF038
:102F90009EDA74EF1BF0320E0901016A0D25006EF6
:102FA0000E513CDB28C000F029C001F01200626B1A
:102FB000636B646B656B666B676B686B696B120048
:102FC00018EC86F0EAEF1AF004C0E6FF05C0E6FF51
:102FD00080EC1CF026C000F027C001F02DEF1CF0A3
:102FE0003D510C0DF3CFE9FFF4CFEAFF190EE926AE
:102FF000090EEA221200FD0EDBCF00F0FE0EDBCF41
:1030000001F01200FED946EC90F0026E050EE15E72
:10301000025097EC1CF0F350F410120072EC1CF00C
:10302000E552E750EE6EED6A1200F80EDBCFE9FFD5
:10303000F90EDBCFEAFFEF5012008CDAE66A1200DD
:10304000B9DBA8C0E6FFA9C0E6FFAAC0E6FFABC097
:10305000E6FF1200240EE66EE66AE66A190EE66ED8
:10306000090EE66EF2EC8EF032DA09013D6B1200C9
:103070004A0EE66EEE0EE66E000ECDDAA1EC8FF093
:1030800067EF1AF0E926000EEA22F6DA56EF1BF097
:10309000B8D94DEC5BF0066E070EE15E065029EFE5
:1030A0001AF0B4DBA0C026F0A1C027F0A2C028F01F
:1030B000A3C029F0C4EF9DF0FD0EDBCF28F0FE0E7B
:1030C000DBCF29F00351285C006E04512958016EB2
:1030D000026A036A120044C900F045C901F0026A9D
:1030E000036A44C9E6FF45C9E6FFB8EF1AF052C9C2
:1030F00000F053C901F0026A036A52C9E6FF53C9DE
:10310000E6FFB8EF1AF0EF51640D97EC1CF036DBD8
:1031100052EC00F0E552E5521200F40E006E2D0E56
:10312000016E010E026E1200040E00C0DBFF050EE0
:1031300001C0DBFF120000500008000E0154120015
:1031400039DBAEC0E6FFAFC0E6FF12000FC95CF985
:1031500010C95DF911C95EF912C95FF9AEC060F915
:10316000AFC061F91200080EDBCF00F0090EDBCF13
:1031700001F00A0EDBCF02F00B0EDBCF03F01200E2
:10318000E126D950FC0FB9EF1BF045DA20EF1CF017
:10319000F40E046E2D0E056E010E066EC7C807F004
:1031A000C8C808F0096A1200F40E036E2D0E046EF2
:1031B000010E056EC7C806F0C8C807F0086A1200FD
:1031C00020D90CEC5BF0036E050EE15E035012009B
:1031D0009BDA90EC83F02CEF85F084DBEE50ED1061
:1031E0001200D890033604360536E8061200E66A67
:1031F0005FDB4CEC8FF02ED2020EDBCF00F0030E23
:10320000DBCF01F01200010EDBCF00F0020EDBCFAE
:1032100001F01200060EDBCF02F0070EDBCF03F049
:103220001200FC0EDBCF00F0FD0EDBCF01F0120030
:10323000020EF3CFDBFF030EF4CFDBFF1200020E12
:10324000DBCFE6FF030EDBCFE6FF1200E66EFE0EDD
:10325000DBCFE6FFDCEC1DF0FDD1DBCFEAFFE90EB2
:10326000E926070EEA22E552E750EF6E1200A4C0ED
:10327000E6FFA5C0E6FFA6C0E6FFA7C0E6FF120076
:1032800003C905F904C906F90BC907F90CC908F9FE
:1032900012000FC9E6FF10C9E6FF11C9E6FF12C907
:1032A000E6FF12006BDA77EC01F0E552E55212000E
:1032B000C6EC0BF0CFD1E2EC1CF0FE0EDB500208A6
:1032C0001200AE0EE66EED0EE66E000E12004D0E12
:1032D0000901D75D1200010EDBCF03F0020EDBCF38
:1032E00004F0056A120034EC94F0E5521200006E0E
:1032F000020EE15C1200F4CFDBFFD9501200020E87
:1033000000C0DBFF030E01C0DBFF1200060E00C091
:10331000DBFF070E01C0DBFF12000C0EDBCF02F05B
:103320000D0EDBCF03F012000A0EDBCF00F00B0E08
:10333000DBCF01F01200030EF3CFDBFF040EF4CF5E
:10334000DBFF120013C900F014C901F0026A036A1E
:103350001200006C011E000E0122026A036A1200B4
:10336000060E26C0DBFF070E27C0DBFF120018EC9D
:1033700086F0E552E552F3CFF1F61200E750E92668
:10338000000EEA22EF503F081200060E28C0DBFFB5
:10339000070E29C0DBFF120060EC9BF067EF1AF00C
:1033A000F80EDBCF28F0F90EDBCF29F01200020E69
:1033B000DB6A030EDB6A12000BC9E6FF0CC9E6FFED
:1033C000120075C0E6FF76C0E6FF120073C0E6FF8C
:1033D00074C0E6FF1200DFD932EF1CF0E2D93DDA0B
:1033E00092EF1CF02D6A2E6A00C026F001C027F073
:1033F00002C028F003C029F01200C5D921DAE7EF96
:103400001BF0E66E53EF1CF0110EDBCF04F0120E32
:10341000DBCF05F0130EDBCF06F0140EDBCF07F089
:1034200004C026F074DA150EDBCF2BF0160EDBCFBE
:103430002CF0170EDBCF2DF0180E9CEF1CF0E66A77
:1034400052DFFC0EF3CFDBFFFD0E55DFFC0FE6EF86
:1034500015F0F3CFDEFFF4CFDDFF1200B8EC15F06E
:10346000E5D99F0EE66EEE0EE66E000E37EC15F017
:10347000EBEF15F02DEC15F00C0EE66EEF0EE66E90
:10348000000EB0EF15F076EC82F027C008F028C0EF
:1034900009F029C00AF02AC00BF0E7D904C027F0D0
:1034A00005C028F006C029F007C02AF012002FDA64
:1034B0005CEC9DF022C004F023C005F024C006F0AF
:1034C00025C007F047EF1CF066D9D7EF15F0006E66
:1034D000050EE15E00501200DACFEAFFD880000E40
:1034E0005DEF1CF0440EE66EEE0EE66E000E1EEC76
:1034F00016F002EF1CF0F86EF4CFF7FFF3CFF6FFF3
:103500001200C5D9DFCF2BF0010EDBCF2CF0020E5D
:10351000DBCF2DF0030EDBCF2EF01200B8EC15F050
:103520004FD9DBEC15F02DEC15F0840EE66EEE0EA7
:10353000E66E000E37EF15F0BBD9F1EC5AF0E5520C
:10354000E552020EE66E4DEC58F0E55239DC31DC06
:10355000010E1200FC0EDBCFE6FFFD0EDBCFE6FF17
:103560001200FA0EDBCFE6FFFB0EDBCFE6FF120008
:1035700002C0E6FF03C0E6FF12002DEC15F0F30ECB
:10358000E66EEE0EE66E000EB0EF15F040DC420E79
:10359000E66EEE0EE66E000EF1EF15F0A4EC16F0FE
:1035A00039DE2DEC15F00F0EE66EEF0EE66E000E16
:1035B000B0EC15F0B3EF18F00BC900F00CC901F036
:1035C000026A036AF9DE6AEC16F026C075F027C0BD
:1035D00076F01200E552E55297EF1CF061EC16F020
:1035E000020EE126120030D903C027F004C028F0F3
:1035F00005C029F0BCEF84F0E66EE66A3E0EE66E8A
:10360000EE0EE66E000E1200E66EE66AE66AE66A06
:10361000E66A77EF15F0E66E58EF1CF00122640EB3
:103620002D6E2E6A00C028F001C029F01EEF9EF01A
:1036300000010224006E000E0320016E120027C05C
:1036400000F028C001F029C002F01200D950FA0F92
:10365000E6EF15F0E552E552E55212002DEC15F0BB
:10366000CE0EE66EEE0EE66E000EB0EF15F0E66ED4
:10367000E66A91D8D2EF16F00050EE260150EE2205
:103680000250EE220350EE221200E15E0450E7EFFA
:103690001BF0E15E0850E7EF1BF027C004F028C0E4
:1036A00005F029C006F02AC007F0120015C900F085
:1036B00016C901F0120007EC17F06AEF16F0D950A6
:1036C000F80FE6EF15F097DC09010050035D01509B
:1036D0000459120060D8F1EF15F01FDDC7C803F0E0
:1036E000C8C804F0056A120009015C6B5D6B5E6B73
:1036F0005F6B606B616B12000FEC13F0006E080ED5
:10370000E15E005066EF16F02C6A400E2D6E1C0E26
:103710002E6E460E2F6E1200F62A000EF722F822A9
:103720000800F5501200010E00C0DBFF020E01C0C0
:10373000DBFF1200040EDBCF28F0050EDBCF29F0F3
:103740001200F1EC15F0BDDDBCEF15F00122000E0A
:1037500002220322120061EC16F0050EE12612008F
:1037600003C928F004C929F01200DBEC15F024EF9E
:1037700016F0E96EFF0EDA20EA6E1200F3CFE6FFD4
:10378000F4CFE6FF1200E66E0F0EDBCFE6FF100E61
:10379000DBCFE6FF1200310EE66EEF0EE66E000E96
:1037A000120026C000F027C001F028C002F029C096
:1037B00003F01200006E090EE15E005029EF1AF0CE
:1037C000E80E2B6E030E2C6E2D6A2E6A12000F0E61
:1037D000F3CFDBFF100EF4CFDBFF12000026000E4C
:1037E0000122022203220A0E2B6E2C6AFBDDC4EF9B
:1037F0009DF0E66EE66AEBEF19F0D9CFE9FFDACF7C
:10380000EAFF1200D950FC0FE6EF15F00A0E2B6EFE
:103810002C6A2D6A2E6A120000502424F36E015087
:103820002520F46E025026207BEF1AF08BD8DBECBB
:1038300015F02DEF15F02B6E2C6AD4DDDBEF15F0B3
:103840004DEC5BF0A9EF1CF00B0E2C6E2D6A2E6A6E
:1038500012000CEC5BF067EF1AF026C0E6FF27C001
:10386000E6FF1200E66E77EF15F027C02CF028C0B7
:103870002DF029C02EF02AC02FF0120021C900F02F
:1038800022C901F023C902F024C903F0120022C0AA
:1038900026F023C027F024C028F025C029F012000C
:1038A000B0DD7BEF5BF0DECFE6FFDDCFE6FF1200A1
:1038B000000EE66E060EE66E1200EE54000EEE549A
:1038C000000EEE54000EEE5412002C6E8BDDC4EC94
:1038D0009DF0EEEF19F082DD600EE66EED0EE66E05
:1038E000000E1200E96EDACFEAFF1200DBCFE6FF2E
:1038F000E66A1200046E090EE15E045029EF1AF028
:10390000A8EC58F0E552E552E552E552120005C028
:1039100027F006C028F007C029F0120007EC17F0C6
:10392000B8EF1AF028C0E6FF29C0E6FF1200F3CF77
:1039300000F0F4CF01F01200DBCF2EF0C4EC9DF0CC
:10394000D1EF1BF0100E2B6E270E2C6E2D6A2E6AF7
:0C3950001200006E070EE15E0050120035
:04395C000A01416BB0
:10396000426B12000A01006B12007F0E0501C85D58
:1039700008E10501270EFD6FE80EFE6F000EDEEF79
:103980002AF00A01010E016F050E19EC2CF0050159
:103990001B0EFD6FE80EFE6F000EDEEC2AF00A0E25
:1039A00019EF2CF07F0E0501C85D04E105011FEC45
:1039B0002BF006D00501160EFD6FE80EFE6F000E0F
:1039C000DEEF2AF0C4EC2CF07F0E0501C85D05E1A6
:1039D000C6EC2BF002EC2FF05AD00A01300549E179
:1039E000450E0601055D45E0410E055D42E0610EB4
:1039F000055D3FE0670E055D3CE0500E055D39E07A
:103A0000020E05C6DBFF060EE66E060EE66E000E23
:103A1000E66E050E3FEC2BF00BEC2AF04EEC2AF094
:103A200002E62BEC2BF005E231EC2CF0F7E3DB2A7D
:103A3000F5D7000EE66E050EE66E22EC2DF0000EB8
:103A4000E66E050E83EC29F00E0EE66EE80EE66ECD
:103A5000000E76EC29F0020EDBCF07F6080EE66EBC
:103A6000060E47EC2DF0000EE66E050EE66E5CECE1
:103A70002BF0C6EC2BF022EC2DF03DEC2AF0B8EC4C
:103A80002BF0C6EC2BF0EBEC89F0E552E552E55259
:103A9000E55205011FEC2BF0DEEC2AF0030EE15C91
:103AA00002E2E16AE552E16E7FEF29F07AEC29F05B
:103AB000050EE126D650016E006A030E00C0DBFF42
:103AC000040E01C0DBFFD750C6EC2AF0DF6A080EF7
:103AD000DF5C0BE2DF50EA6AE90FE96E070EEA22CB
:103AE000EF50C6EC2AF0DF2AF2D7030EDBCFE6FF59
:103AF000040EDBCFE6FFA7EC88F0E552E552DF6A63
:103B0000160EDF5C11E285EC29F004BE056873EC4B
:103B10002AF0DF50EA6A020FE96E0A0EEA22E55245
:103B2000E750EF6EDF2AECD70A01186B090E7EEC26
:103B30002CF0FCEC29F0DA0EE66E000EE66E00ECDE
:103B40002AF031EC2DF000EC2AF0160EE66EE66A53
:103B500030EC2BF0E3EC99F0026E0A0EE15E0250BD
:103B60000501060EFD6FE80EFE6F000EDEEC2AF07A
:103B700030EC2BF0B3EC2AF08BEC2CF06BEC2AF051
:103B8000EBEC89F0FAEC2CF005018BEC2CF0080E34
:103B90007EEC2CF0FCEC29F000EC2AF0B3EC2AF0DF
:103BA0001FEC2BF0DEEC2AF0050EE15C02E2E16A8C
:103BB000E552E16E7FEF29F001EC2CF0C6EC2BF022
:103BC00031EC2DF0C6EC2BF0A5EC5AF0E552E552A5
:103BD000F8EC29F0FE0EDB50020A11E0030A03E0C4
:103BE000010A1EE109D0ACEC2AF063EC2BF003E1F2
:103BF000DE52DD50011814E067EC2CF011D0ACEC73
:103C00002AF063EC2BF003E1DE52DD50011808E0EE
:103C1000ACDE67EC2CF0010EF36EFE0EF3CFDBFF93
:103C2000FE0EDB50006E020EE15C02E2E16AE5523C
:103C3000E16E00507FEF29F0C8EC2CF0020E7EEC14
:103C40002CF0C1EC2BF035EC2BF0FD0EE66EE70E00
:103C5000E66E000E57EC29F0CBEC2BF0B8EC2BF015
:103C6000ABEC2BF0E66E34EC2DF009EC2BF0CBEC4A
:103C70002BF060C0E6FF61C0E6FF2AEC29F00001EE
:103C800062511EEC2CF0000166510F0A20E0020A7E
:103C900018E0090A10E0060A08E0030A1EE1F10E26
:103CA000E66EE70EE66E000E1DD0E90EE66EE70E3C
:103CB000E66E000E17D0E30EE66EE70EE66E000E1F
:103CC00011D0DA0EE66EE70EE66E000E0BD0D10EC6
:103CD000E66EE70EE66E000E05D0C80EE66EE70E45
:103CE000E66E000E2EEC2AF000016851040A18E07E
:103CF000070A10E0020A08E0010A18E1BE0EE66EAB
:103D0000E70EE66E000E14D0B50EE66EE70EE66E18
:103D1000000E0ED0AE0EE66EE70EE66E000E08D078
:103D2000A10EE66EE70EE66E000E02D0ABEC2BF0B5
:103D30002EEC2AF028EC2AF04D080FE173C0E6FFC4
:103D400074C0E6FF2AEC29F075C0E6FF76C0E6FFF6
:103D5000F0EC2CF0D2EC2BF01AD073C002F074C04F
:103D600003F0046A056A73C0E6FF74C0E6FFC5ECA1
:103D700029F0CBEC2BF075C002F076C003F0046A9A
:103D8000056A75C0E6FF76C0E6FFC5EC29F0CBEC0E
:103D90002BF0000163511EEC2CF064C0E6FF65C0FF
:103DA000E6FF2AEC29F0000169511EEC2CF000011D
:103DB0006A511EEC2CF0000167511EEC2CF0000142
:103DC00066511EEC2CF0000168511EEC2CF0B0C0C6
:103DD00000F0016A00BE01685DEC29F0B1C0E6FFA9
:103DE000B2C0E6FF2AEC29F0B8C000F0016A00BEBC
:103DF00001685DEC29F05DEC2AF0F0EC2CF03EEC73
:103E00002CF0CBEC2BF0CAC0E6FFCBC0E6FF2AECCF
:103E100029F094EC2BF02AEC29F0CEC0E6FFCFC0BD
:103E2000E6FF2AEC29F00001D0511EEC2CF0D1C0A5
:103E300000F0016A00BE01685DEC29F0D4C0E6FF25
:103E4000D5C0E6FF2AEC29F0D6C0E6FFD7C0E6FFD2
:103E50002AEC29F0310EE66E0A0E66EC29F0040E0B
:103E6000E15C02E2E16AE552E16E00507FEF29F089
:103E700001EC2CF00DEC2BF09A0EE66EE70EE66EE0
:103E8000000E02EC2DF0B0EC29F0DAEC2CF000BEC4
:103E9000016852EC29F0330EE66E0A0ECCEC2CF0E1
:103EA00002E2E16AE552E16E00507FEF29F07AEC20
:103EB00029F0070EE126930EE66EE70EE66E000E81
:103EC00025EC2AF0FCEC29F0DF6A040EDF5C6EE2E0
:103ED0006AEC2BF0EFCF00F0000EE76E0018E8AEB2
:103EE00002D0003403D0E750D880005451E2DF50B4
:103EF000EA6A9A0FE96E000EEA22EFCF04F004C0DE
:103F000029F065EC82F027C000F028C001F029C03C
:103F100002F02AC003F0560E2C6E0E0E2D6E8D0E82
:103F20002E6E3E0E2F6E3DEC83F05BEC85F0030EA3
:103F300026C0DBFF040E27C0DBFF050E28C0DBFF19
:103F4000060E29C0DBFF4AEC2DF0D950030FE4EC3C
:103F500029F0E66AE66AE66A00EC2AF080EC5CF09A
:103F6000006E0B0EE15E0050FCEC29F06AEC2BF0C9
:103F7000EF50D80F006E016A00BE016814EC2CF0FF
:103F8000ABEC2BF0E66E27EC2DF0ABEC2BF005D074
:103F90008E0EE66EE70EE66E000EE66E00EC2AF080
:103FA000F7EC2BF0FCEC29F0DF2A8FD7B7C000F03C
:103FB000016A00BE016814EC2CF0E66AE66AE66A63
:103FC00027EC2DF0350EE66E0A0E66EC29F0070E92
:103FD000E15C02E2E16AE552E16E00507FEF29F018
:103FE000C4EC2CF0010EF36E020EF3CFDBFFF36E88
:103FF000DB6EE1EC2AF0870EE66EE70EE66E000E51
:1040000017EC2DF00F0EF66E000EF76E000E07EC9B
:104010002AF0100EF66E000EF76E000E07EC2AF076
:1040200033EC2AF0B8EC2BF071EC2BF0C1EC2BF058
:10403000020EDBCFE6FFB7EC2CF047EC2DF039ECAD
:104040002DF0800EE66E000EABEC29F00001BC51A5
:10405000ECEC2BF00601F451ECEC2BF0C80EE66E04
:10406000060EABEC29F0BF0EE66E000EABEC29F0AD
:10407000370EE66E0A0E66EC29F0030EE15C02E2F2
:10408000E16AE552E16E00507FEF29F07AEC29F009
:10409000060EE12600017B517C117D117E1109E1A4
:1040A000020EDB6A030EDB6A040EDB6A050EDB6AB6
:1040B0001DD07B0EE96E000EEA6EEE500001775DBA
:1040C000006EEE507859016EEE507959026EEE5046
:1040D0007A59036E020E00C0DBFF030E01C0DBFF46
:1040E000040E02C0DBFF050E03C0DBFF00016B51B5
:1040F000E66EE66A790EE66EE70EE66E000E17ECE7
:104100002DF000016C51ECEC2BF000017051ECEC47
:104110002BF092C000F0016A00BE016852EC29F059
:1041200000019351ECEC2BF094C0E6FF95C0E6FF44
:104130002EEC29F09EC0E6FF9FC0E6FF2EEC29F092
:10414000A0C0E6FFA1C0E6FFA2C0E6FFA3C0E6FF55
:10415000C0EC29F000017151ECEC2BF0D950020FAA
:10416000E4EC29F0C0EC29F07FC000F0016A00BE49
:10417000016852EC29F000016D51ECEC2BF0B5C058
:1041800000F0016A00BE016852EC29F0B4C000F0F2
:10419000016A00BE016852EC29F0D6EC29F0ABECC4
:1041A0002BF0E7EC29F000016E51ECEC2BF084ECE5
:1041B0002AF0ABEC2BF0E7EC29F000016F51ECECAE
:1041C0002BF0390EE66E0A0E66EC29F0060EE15C65
:1041D00002E2E16AE552E16E00507FEF29F001EC66
:1041E0002CF0720EE66EE70EE66E000E25EC2AF05D
:1041F000C1EC2BF00901DB51DC11DD1116E0DBC94C
:10420000F6FFDCC9F7FFDDC9F8FF0800F5500DE047
:10421000DBC9E6FFDCC9E6FFDDC9E6FF62EC29F099
:10422000ABEC2BF0E66E62EC29F0620EE66EE70E68
:10423000E66E000EE66E62EC29F03F0EE66E0A0EA8
:10424000CCEC2CF002E2E16AE552E16E00507FEF27
:1042500029F001EC2CF078EC2BF05B0EE66EE70E0B
:10426000E66E000E8FEC2AF035EC2BF02EEC29F0E8
:1042700000017151ECEC2BF0DAEC2CF000BE01687F
:1042800052EC29F00DEC2BF0D7EC2CF0B0EC29F02F
:10429000FD0EDB0404E13B0EE66E0A0E03D03D0E7C
:1042A000E66E0A0ECCEC2CF002E2E16AE552E16E19
:1042B00000507FEF29F07AEC29F0090EE126010E7B
:1042C0003AEC2BF0020E3AEC2BF0ECEC2AF0EE502C
:1042D000ED1001E13BD1FD0EDBCFDEFFDBCFDDFFDB
:1042E00028EC2AF009E028EC2AF0200805E0DF2A73
:1042F000010EF6E3DB2AF4D728EC2AF0200801E0CF
:1043000025D17FEC2BF001E3DB2AEF6AB1EC2BF037
:1043100030EC2BF044EC2BF001E118D1090EE66EE5
:1043200016EC2AF0DA0EE66E000E71EC29F0B1EC14
:104330002BF01BEC2AF0B1EC2BF0F3EC2AF0C6ECDE
:104340002BF06BEC2AF05CEC2BF0C6EC2BF0B8EC0D
:104350002BF044EC2BF001E0F9D0B1EC2BF0000E87
:10436000E66E060E3FEC2BF030EC2BF0F3EC29F070
:10437000DA0EE66E000E71EC29F0C6EC2BF01BECA9
:104380002AF0C6EC2BF0F3EC2AF06BEC2AF092EC5E
:104390002CF0D0EC2AF0A3EC2AF002E62BEC2BF068
:1043A0000AE20EEC2DF040EC2AF0060EDB2A070E96
:1043B000F2E3DB2AF0D76BEC2AF09AEC2CF0D0EC8D
:1043C0002AF0A3EC2AF002E62BEC2BF00AE20EEC2A
:1043D0002DF03DEC2AF0060EDB2A070EF2E3DB2A75
:1043E000F0D70A01010E006F0A0EE66E16EC2AF0F5
:1043F0005AEC29F050084EE10A01305127E1060E2F
:10440000DB6A070EDB6AA3EC2AF004E6160E005CFA
:10441000000E015819E285EC29F004BE056873EC22
:104420002AF0060EDBCFE9FF070EDBCFEAFF190EFD
:10443000E9260A0EEA22E552E750EF6E060EDB2A65
:10444000070EE1E3DB2ADFD70A012F6B306B530E37
:10445000E66EE70EE66E000E76EC29F099EC2BF096
:10446000F3EC29F0B5EC1CF05CEC2CF00A01010E29
:10447000306FE66E16EC2AF0EA0EE66E000E71EC76
:1044800029F099EC2BF01BEC2AF099EC2BF0F3ECD3
:104490002AF002D00A01306B0601F6AF57D0F69F22
:1044A000E1EC2AF0310EE66EE70EE66E000E3CEC13
:1044B0002DF00F0EF66E000EF76E000E05EC2CF0D0
:1044C0004DEC29F0100EF66E000EF76E000E05ECA6
:1044D0002CF04DEC29F033EC2AF02AEC2CF071ECA6
:1044E0002BF0D6EC2BF00901D851D911DA110CE0E0
:1044F000D8C9E6FFD9C9E6FFDAC9E6FF2AEC2CF0F5
:10450000F7EC2BF0D6EC2BF0A3EC2BF0B7EC2CF067
:104510004DEC29F00601F551EBEC2CF00601F651BB
:10452000E66EE66AABEC2BF0E66E2AEC2CF0CDECF6
:104530005BF01AEC2DF0D6EC2BF00601F751EBEC0A
:104540002CF0140EE1EC29F05CEC2CF0090EE15C8F
:1045500002E2E16AE552E16E7FEF29F0C4EC2CF053
:104560000A0100511AE1070EE66EE66A290EE66EB0
:10457000E70EE66E000E1FEC2DF049EC2BF001E08B
:10458000E5D0070EEBEC29F096DEE552E552050189
:10459000060ED06F0E0ED16FD9D00601F6BF03D034
:1045A0000601400EF76FB1EC2BF057EC2CF03FEC0E
:1045B0002DF0020ED89000360136E806FBE1030E1E
:1045C0002D6E2E6A00C028F001C029F01EEC9EF06E
:1045D00028C000F029C001F0C50E285C000E295843
:1045E0001FE243EC2AF0C6EC2BF0B1EC2BF0BEEC52
:1045F0002CF00601F6BF03D00601410EF76FB8ECB0
:104600002BF040EC2AF0050EE66EE66A230EE66E0D
:10461000E70EE66E000E02EC2DF049EC2BF006E002
:10462000400EE66E4DEC30F0E55290D0D950FD0FC3
:10463000D3EC2CF0050EEE6E060EED6E52EC2AF069
:10464000EF50450835E1A2EC2CF04D0831E1ECECDF
:104650002AF0020EEE26000EED2243EC2AF0010EA7
:10466000E66E050EE66E010EEBEC29F0BEEC2CF0CA
:104670000BEC2AF04EEC2AF002E62BEC2BF005E2D4
:1046800031EC2CF0F7E3DB2AF5D7B8EC2BF0010E78
:10469000E66E050E83EC29F052EC2AF0EFCF00F520
:1046A000D950FD0FD3EC2CF0000EEE6E050EED6E22
:1046B0000601F6BF03D00601420EF76F52EC2AF056
:1046C000EF50430A39E02B0A41E0320A11E01B0A9D
:1046D0003DE11C0EE66EE70EE66E000E76EC29F06C
:1046E0000A01015133E1B5EC1CF0E2EC1CF01ED0E4
:1046F000A2EC2CF030081DE00001010EBB6F0A0196
:10470000015124E1B5EC1CF0E66A1CEC1EF0E55208
:10471000E66A38EC1FF0E552E66A57EC1FF0E55206
:10472000E66A5EDCE552E66AB1DCE552D2EC1CF0EA
:104730000DD00001BB6B0AD0010EEBEC29F00ED8B6
:10474000E552E5520A01015101E1E3D9030EE15CB2
:1047500002E2E16AE552E16E7FEF29F0C8EC2CF04D
:10476000FD0EDBCFDEFFDBCFDDFF28EC2AF009E01A
:1047700028EC2AF02C0805E0DF2A010EF6E3DB2AFC
:10478000F4D728EC2AF02C0805E17FEC2BF001E3AC
:10479000DB2AEF6AFD0EDBCFE6FFFE0E86EC2BF088
:1047A000F3CF41FAF4CF42FADECF43FADDCF44FA39
:1047B000040EE15C02E2E16AE552E16E7FEF29F06E
:1047C0007AEC29F0060EE126020E19EC2CF0060117
:1047D000F6BF03D00601430EF76F310E0A014119EF
:1047E00001E1425101E173D1290E411901E1425128
:1047F00001E15BD1280E411901E1425101E128D1CB
:10480000060E411901E1425101E11ED1050E411987
:1048100001E1425101E10FD1040E411901E1425180
:1048200001E1BED0030E411901E1425101E180D006
:10483000020E411901E142512AE0010E411901E144
:10484000425102E0000E5BD1DE6ADD6A4EEC2AF0D6
:1048500004E6100E005C000E015801E34FD1B8ECE5
:104860002BF0110EE66EE70EE66E000E3CEC2DF01E
:10487000100EEBEC2CF016EC2BF0EF50EBEC2CF0D8
:10488000E2EC1CF0DF2A010EE1E3DB2ADFD7FAECD1
:104890002AF05AEC29F008E088EC2CF005E0A7ECAF
:1048A0002BF0F7E3DB2AF5D788EC2CF001E0BBD046
:1048B000B9EC2AF001E3DB2A60EC2CF001E0ADD08A
:1048C0008DEC2BF004E6100E025C000E035801E3A1
:1048D000A4D034EC2DF086EC2BF0F350E66E16EC01
:1048E0002BF0E552E750EF6E4EEC2AF004E6080E8E
:1048F000005C000E015810E3BDEC2BF083EC2CF0B3
:10490000080E005E000E015A180E0024E66EEAEC56
:1049100094F0E552E552E552C1EC2AF00F0EEE1884
:1049200004E1ED5002E11CEC8CF0D8EC2AF080D0D0
:10493000DE6ADD6A4EEC2AF004E6200E005C000E12
:10494000015801E3DBD0DFCFE6FF16EC2AF0C1EC23
:104950002AF0090EEE1804E1ED5002E153EC2BF0C1
:10496000B8EC2BF0060EE66EE70EE66E000E3CECA1
:104970002DF0200EEBEC2CF0BDEC2BF0ABEC2BF083
:10498000E66E040EDBCFE6FF050E09EC2BF0D6EC4D
:104990002BF0E2EC1CF0DF2A010ECCE3DB2ACAD7B5
:1049A000FAEC2AF05AEC29F008E088EC2CF005E04B
:1049B000A7EC2BF0F7E3DB2AF5D788EC2CF033E1FA
:1049C000B9EC2AF001E3DB2A60EC2CF026E18DEC57
:1049D0002BF004E6180E025C000E03581EE2BDEC3C
:1049E0002BF0DFCFE6FFEAEC94F0E552E552E5521A
:1049F000D8EC2AF039EC29F0C1EC2AF0020EEE18BE
:104A000001E1ED5007E0C1EC2AF00E0EEE181DE1B9
:104A1000ED501BE11CEC8CF018D0150EE66E390E33
:104A2000E66E010E05D0E90EE66E380EE66E010E5A
:104A300039EC29F00AD0D8EC2AF0D0EC2CF0040E96
:104A4000E66E4DEC30F059D071DBE2EC1CF056D044
:104A5000FAEC2AF05AEC29F008E088EC2CF005E09A
:104A6000A7EC2BF0F7E3DB2AF5D788EC2CF015E167
:104A7000B9EC2AF001E3DB2AEF6A01EC2BF02CEC15
:104A800065F0E552E552BDEC2BF0B3EC2AF0160EC2
:104A9000FD6FE80EFE6F000E23D0B5EC1CF0E90EA2
:104AA000E66E380EE66E010E22D00501FA0EFD6F9D
:104AB000E60EFE6F000EDEEC2AF001EC2BF0B3ECFC
:104AC0002AF0F40EFD6FE60EFE6F000E09D001EC29
:104AD0002BF0B3EC2AF0F20EFD6FE60EFE6F000E27
:104AE000DEEC2AF0050EE1EC29F0D8EC2AF0D0EC4F
:104AF0002CF0020EE66E4DEC58F0E552010E006E01
:104B0000060EE15C02E2E16AE552E16E00507FEFE1
:104B100029F00601F6BF03D00601440EF76F020E1E
:104B200019EC2CF0280E0A0142AF02D0D89003D025
:104B3000415D000E425907E3423507E24151310819
:104B4000000E425502E2B5EC1CF00701F151F211E2
:104B5000F31119E043CAE6FF44CAE6FF41CAE6FF83
:104B600042CAE6FF010EE66E07D0F3C7FBFFF2C7AD
:104B7000FAFF0701F151F96EF8DF006E050EE15EF4
:104B8000005000090AE11CDE000907E1840EE66E10
:104B9000390EE66E010ED0EC2CF0D2EC1CF00A01BE
:104BA000416B426B43CAE9FF44CAEAFFEF6A120055
:104BB000A1DB0A01005134E00151000831E3060194
:104BC000F6BF03D00601450EF76F020EE1EC29F0A7
:104BD000EA0EE66EE60EE66E000E88DBDF0EE66E8F
:104BE000E60EE66E000ED6EC2AF0B1EC2BF0F3ECFC
:104BF00029F0D60EE66EE60EE66E000ED6EC2AF032
:104C0000AA0EE76EFB0EDBCFE9FFFC0EDBCFEAFF5F
:104C10009EEC2BF0EF6A78EC2BF0E5DB5CEC2CF0F3
:104C20006ED3C8EC2CF0020EDB6A030EDB6A0A01BD
:104C3000005101E195D0ECEC2AF0EE50ED1001E1CD
:104C40008FD0FC0EDB5001E18BD0FC0EDBCFE6FFFA
:104C5000E66A220E1FEC2DF08AEC8EF0026E050E35
:104C6000E15E0250CBEC2BF03FEC2DF0F350F41052
:104C700038E0A7EC2BF001E3DB2A93EC2AF0DBCF42
:104C8000E7FF0050E75EFC0EE7CFDBFF020EDBCF55
:104C900028F0030EDBCF29F0FD0E28C0DBFFFE0E4F
:104CA00029C0DBFF07DB1BE005DB220818E093ECE3
:104CB0002AF0DB50000101AE02D0D89003D0005C96
:104CC000000E01580CE288EC2CF004E145EC2CF0CD
:104CD0002E0EEF6EA7EC2BF0E5E3DB2AE3D753ECC7
:104CE0002BF0290EE66EE66A2A0EE66EE80EE66EF8
:104CF000000E17EC2DF056EC2BF00EE0B1EC2BF083
:104D0000D20EE66EE60EE66E000E47EC2DF042EC9B
:104D10005BF0006E070E0BD0BB0EE66EE60EE66E85
:104D2000000E47EC2DF00CEC5BF0006E050EE15E22
:104D30000050C1EC2BF00A010151000805E2140EED
:104D400019EC2CF0DE6ADD6AB5EC1CF05CEC2CF0A2
:104D5000C1EC2AF0EE50ED1003E1140E19EC2CF02A
:104D6000040EE15C02E2E16AE552E16EC8D2C2DA09
:104D70000C0EE12675C0DEFF76C0DDFF020E73C0AB
:104D8000DBFF030E74C0DBFF040EA0C0DBFF050ECB
:104D9000A1C0DBFF060EA2C0DBFF070EA3C0DBFF36
:104DA000B70E3AEC2BF0E60EF36E090EF3CFDBFFF5
:104DB000000EF36E0A0EF3CFDBFF4B0E0901D75D39
:104DC00036E183EC2CF066DB10EC2CF026C0DEFF25
:104DD00027C0DDFF020EDBCF00F0030EDBCF01F0BA
:104DE00059DB10EC2CF0020E26C0DBFF030E27C0AF
:104DF000DBFFD950040FE8DA10EC2CF0040E26C0CB
:104E0000DBFF050E27C0DBFF060E28C0DBFF070E09
:104E100029C0DBFFB30E3AEC2BF0E60EF36E090E61
:104E2000F3CFDBFF000EF36E0A0EF3CFDBFF0001C2
:104E3000D13537E294C0E6FF95C0E6FFA80EE66ED6
:104E4000E60EE66E000E11DAD4C0E6FFD5C0E6FF2E
:104E5000A50EE66EE60EE66E000E07DAD1C000F093
:104E6000016A00BE016814EC2CF0A10EE66EE60E9D
:104E7000E66E000E1FEC2DF0F0EC2BF0FAEC2BF0B0
:104E8000D6C0E6FFD7C0E6FF980EE66EE60EE66EE9
:104E9000000EEBD98B0EE66EE60EE66E000EE66EA9
:104EA000E0D900016BA5D9D0010EF36E0B0EF3CF44
:104EB000DBFF00016851040A18E0070A10E0020A4B
:104EC00008E0010A19E17F0EE66EE60EE66E000EBE
:104ED00011D0740EE66EE60EE66E000E0BD06B0E71
:104EE000E66EE60EE66E000E05D05C0EE66EE60E91
:104EF000E66E000EE66EB5D9000166510F0A20E09D
:104F0000020A18E0090A10E0060A08E0030A20E194
:104F1000530EE66EE60EE66E000E17D03D0EE66E00
:104F2000E60EE66E000E11D02F0EE66EE60EE66E71
:104F3000000E13D0250EE66EE60EE66E000E05D0CE
:104F4000130EE66EE60EE66E000E44EC2DF009D070
:104F5000020EE66EE60EE66E000E44EC2DF00B0E31
:104F6000DB6A00016B950B0EDB5001E17DD060C068
:104F7000E6FF61C0E6FF78EC2CF077D900016251C2
:104F8000E66EE66AFC0EE66EE50EE66E000E6DD984
:104F9000FA0EE66EE50EE66E000E44EC2DF0000112
:104FA000800ECB150BE1CAC0E6FFCBC0E6FFF10EC9
:104FB000E66EE50EE66E000EA8EC2CF00001D05176
:104FC00000080EE2D051E66EE66A78EC2CF04DD97E
:104FD000ABDBE70EE66EE50EE66E000EA8EC2CF0FD
:104FE0000001000ED880CE55000ECF553DE24B0E8D
:104FF0000901D75D15E1CEC004F0CFC005F0066A07
:10500000076ACEC0E6FFCFC0E6FF06C0E6FF07C0D6
:10501000E6FF2BEC2DF028C002F029C003F006D0EB
:10502000CEC000F0CFC001F0026A036A14EC2CF08D
:1050300078EC2CF01FEC2DF04DEC5BF0086E070EB9
:10504000E15E0850D7DBB9DB6FDBE40EE66EE50E00
:10505000E66E000E0AD9F9DA05D0D70EE66EE50E37
:10506000E66E000EE66EFDD800DBCF0EE66EE50EB6
:10507000E66E000EFAD8CD0EE66EE50EE66E000E78
:1050800044EC2DF013DB08E078DBBD0EE66EE50E98
:10509000E66E000EEAD891DB74DAEE50ED1008E00F
:1050A00067DBAE0EE66EE50EE66E000EDED885DB43
:1050B000040EDBCF00F0050EDBCF01F0060EDBCFD8
:1050C00002F0070EDBCF03F00050011002100310B6
:1050D00011E04AEC2DF0D950040F76D9A60EE66EF9
:1050E000E50EE66E000E92DA006E0B0EE15E0050E9
:1050F00081DB63DB0001C851C9110CE0DED99E0ED3
:10510000E66EE50EE66E000E81DA046E0B0EE15ED1
:10511000045070DBC1DB00C0F3FF01C0F4FF0C0ED4
:10512000E15C02E2E16AE552E16EE9D06ADB81DB33
:10513000EA0EE66EE60EE66E000E87D922DB18DB7D
:1051400016DEE552E552020EE15C02E2E16AE5524A
:10515000E16ED5D0FFEC2CF07C0EE66EE50EE66E2F
:10516000000EC4D8A6D902E2E16AE552E16EC7D0CA
:10517000FFEC2CF0510EE66EE50EE66E000EB6D892
:1051800098D902E2E16AE552E16EB9D0FFEC2CF069
:105190006CDA210EE66EE50EE66E000E17EC2DF0D1
:1051A0001A0EE66EE50EE66E000EE66E8BD881D91D
:1051B00002E2E16AE552E16EA2D0FFEC2CF00901B7
:1051C000D6A307D0F3D8F30EE66EE40EE66E000E1B
:1051D00006D0ECD8DB0EE66EE40EE66E000E02ECB6
:1051E0002DF04CDBCEDA90D9D30EE66EE40EE66EEF
:1051F000000EEDD8D00EE66EE40EE66E000EE66E02
:1052000061D857D902E2E16AE552E16E78D0F7DB66
:10521000C80EE66E060EE66EC80EE66EE40EE66E8C
:10522000000E7DD939DB36D9C2DB7BEC5BF0046E36
:10523000090EE15E0450A5DAD950F90FE96EFF0EB0
:10524000DA20EA6E4CDB9CD834D902E2E16AE552FE
:10525000E16E55D0C5DBA6DACBEF2BF0A8DB39EF3A
:105260002DF07FDAC4DAFAEF2BF0E9DB9BDAFAEF04
:105270002BF0E66E41CAE6FF42CAE6FFDF0EE66E9D
:10528000380EE66E010EBEDBABDAA0DA0CEC5BF09A
:10529000036E050EE15E03501200E66EDBDA82DA81
:1052A000D6EF2BF0C1DA83DB9BDAC1EF2BF0AADB60
:1052B000D2EF2BF0EADAEF501200B6DA91DB90DA97
:1052C000CBEF2BF055DA93DAC1EF2BF0E66EFE0E42
:1052D000DBCFE6FFDCEC1DF0E552E552E552006E57
:1052E0001200E66E4ADABDDBBDEF2BF08BDBA1ECE2
:1052F0008FF098D3D9CFE6FFE1CFD9FF1200E55266
:10530000E7CFD9FF120081DB9DD2260E006E3A0E48
:10531000016E010E026E88DAE66EAEEC88F0E552A0
:10532000E7CF02F0E552E7CF01F0E552E7CF00F01A
:10533000F3CF03F0F4CF04F0400E2D6E2E6AF3CFBE
:1053400028F0F4CF29F017EC84F024C003F025C036
:1053500004F0056A1200E66E2ADBA5DAC1EF2BF035
:1053600062EC5DF041DBA8C0E6FFA9C0E6FFAAC081
:10537000E6FFABC0E6FF1BDB62EC5DF0F4EF2CF068
:1053800016DB7BEC5BF0F4EF2CF004C0E6FF05C00D
:10539000E6FF61DB26C0E6FF27C0E6FF21DB4DEC20
:1053A0005BF0066E070EE15E0650120073DBBDC0B7
:1053B00000F0016A026A036ABDC0E6FF01C0E6FFB1
:1053C00058D237DAB5EF1CF0EEDA6FEF2CF05FDB76
:1053D00055DAC1EF2BF0E76E5FDAE7500026000EDA
:1053E000012214EF2CF0D2D90CEC8FF0FAEF2CF054
:1053F000E552E552C1EF2BF0DE52C3D9DD52120067
:10540000010EDBCFE6FF020EDBCFE6FF1200FDD977
:105410003EDB39EF2DF0100EE66EE66AEA0EE66E20
:10542000000EF3DA99DADE6ADD6A120034EC94F0E9
:10543000E552CBEF2BF03BDAF3CF02F0F4CF03F0E1
:10544000F3CFE6FFF4CFE6FF1200DCDAF7EF2BF044
:10545000DECFE9FFDDCFEAFFEF501200E66E8DD917
:10546000C6D9CBEF2BF00E0E49DAB0D9830EE66E1B
:10547000E70EE66E000EE66E120088D95BDAE2D126
:1054800085D950DADFD1180EE66EE80EE66E000E12
:10549000D6DA6AD2026A036AC7D9EBD134DAD89075
:1054A00001501200FD0EDBCFE9FFFE0EDBCFEAFF5D
:1054B000120002DA020EE15C1200020EE66EE66AEB
:1054C000C8C000F0C9C001F0026A036AC8C0E6FFA4
:1054D000C9C0E6FFCED1100EE66EE66ADA0EE66EC1
:1054E000000EE66E120000500324F36E01500420FB
:1054F000F46E02500520F86EF4CFF7FFF3CFF6FFFD
:105500000800F550E66E1200C5DABEC000F0016A70
:10551000026A036ABEC0E6FF01C0E6FFAAD172DAE2
:10552000C2D9C1EF2BF0020EDBCF02F0030EDBCFAE
:1055300003F0FD0EDB50025C006EFE0EDB500358E4
:10554000016EFC0E1200060EDBCF00F0070EDBCF63
:1055500001F0D89001501200FC0EDBCFE9FFFD0EE8
:10556000DBCFEAFF120002EC2FF0E552E552050115
:105570001200020EDBCFE9FFDB2A030EDBCFEAFFCE
:105580001200D9CFE9FFDACFEAFF1200006E016AFC
:10559000D950030F08DA0050EE260150ED22120018
:1055A000DBD9060EDB6A070EDB6A12002BDADCD1D0
:1055B000E60EE66E380EE66E010E1200FF6FB3EFD8
:1055C0002EF00E0EF66E000EF76E000EF86E08004E
:1055D000F550E66EE66A1200D950FD0FE96EFF0E37
:1055E000DA20EA6E1200E3EC99F0046E0A0EE15E36
:1055F00004501200020E43CADBFF030E44CADBFF55
:10560000120043CAE6FF44CAE6FF120018DAE6EFCA
:105610005CF0DBCFE6FF53EF2CF0A4C0E6FFA5C0A3
:10562000E6FFA6C0E6FFA7C0E6FF1200DECFE9FF57
:10563000DDCFEAFFE50EE926060EEA221200180E7B
:10564000FD6FE80EFE6F000E1200EB0EE66EE50E2B
:10565000E66E000E1200000E005C040E01581200EF
:10566000020EE66E0A0EE66E120000017251E66E40
:10567000E66A1200F36E080EF3CFDBFF1200E66E4F
:1056800080EC8FF0FAEF2CF060EC8FF0B3D90009CA
:105690001200A8EC8EF0CED90009120034D9000116
:1056A000800E01141200F1D8EF6A1200D950020FD7
:1056B0007AD9EE50ED10120096EC89F0006E060ECD
:1056C000E15E00501200EECF00F0EFCF01F0DF50AE
:1056D00000181200DF50EA6A960FE96E000EEA2207
:1056E000120042EC5BF0026E070EE15E0250120007
:1056F000FB0EDBCFE6FFFC0EDBCFE6FF1200DFCFB9
:10570000E9FFDF2A010EDBCFEAFF1200DBCFE6FF65
:1057100018EC86F0E552E5521200DECF02F0DDCF44
:1057200003F0D89003501200CCC0E6FFCDC0E6FFD6
:105730001200190EE66E0A0EE66E1200E750E92618
:10574000000EEA221200080EDBCFE6FF1200020E66
:10575000DB2A030E1200FB0EE66EE70EE66E000E6D
:105760001200FD0EDBCFE6FFFE0EDBCFE6FF1200E0
:10577000DECFE6FFDDCFE6FF120076D9DBCFE6FF16
:105780001200F3CFDEFFF4CFDDFF1200000EE66E55
:10579000060EE66E1200020EF3CFDBFF030EF4CF0F
:1057A000DBFF12004DEC5BF01AEF2DF0040EF3CF8F
:1057B000DBFF050EF4CFDBFF1200C5DF090EDBCFE8
:1057C000E6FF0A0EDBCFE6FF31EF29F058D9F3CF21
:1057D000E6FFF4CFE6FF1200E66EE66A2EEF29F050
:1057E0004DEC5BF0026E070EE15E025012000CEC15
:1057F0005BF018D1FD0EF3CFDBFFFE0EF4CFDBFF25
:10580000120078DD020EE1261200F86E0800F55055
:10581000E66EE66A850EE66EE70EE66E000E120094
:10582000A8EC58F0FAEF2CF000C0E6FF01C0E6FF4C
:105830001200E66E4DEC58F0E5521200E66EE66A94
:105840002AEF29F0E66E3CEC96F0006E080EE15E61
:1058500000501200040EDBCFE6FF050EDBCFE6FFA3
:105860001200DCD8000EE66E060E4DDDDF2A010EBA
:10587000120002C0E6FF03C0E6FF120080EC5CF0FD
:10588000046E0B0EE15E04501200020EDBCFE9FF46
:10589000030EDBCFEAFF1200FD0EDBCF00F0FE0EA1
:1058A000DBCF01F0120042EC5BF01AEF2DF0BAEC06
:1058B0008FF0E552E5521200E2EC1CF0D2EF1CF042
:1058C000EF6A9FDE18EC86F093DD4EEF2BF0E2ECF2
:1058D0001CF042DEDECFEEFFDDCFEDFF1200EECF9B
:1058E000E6FFEECFE6FFEECFE6FFEFCFE6FF1200DA
:1058F000FF0EE66EE50EE66E000E1200E66E34EC6C
:1059000094F0E5521200DECF00F0DDCF01F012007E
:10591000D1DC2C081200040EFD6FE80EFE6F000EA5
:10592000DEEF2AF0000EE66E020EE66EFC0EE66E6C
:10593000000E1200000EE66E010EE66EFA0EE66E26
:10594000000E1200010EE76EADDDF8DEEF50120022
:105950008CDC7BDE44EF2DF0E66E93EC95F0006E70
:10596000080EE15E0050120030EC8FF05BD0E66A6A
:10597000800EE66EE70EE66E000E120052EC8AF024
:10598000E552E552F8EF29F0B5DC030EE1261200EE
:10599000B1DC040EE126120099DC020EE15C12007B
:1059A00068DCE2EF1CF0E96EDACFEAFF1200D3DE2A
:1059B00047EF2DF0ACC0E6FFADC0E6FF4FDCAEC058
:1059C000E6FFAFC0E6FF4ADC0001B35105DFB6C019
:1059D00000F0016A1200E66EE66ABDDE4DEF29F0C6
:1059E000BADEE66EBDEF2BF0006E090EE15E0050F0
:1059F000C1EF2BF0E552E552E552E552120001DF0E
:105A0000E1EF29F0E66EC6EF2BF0E66E000EE66ED3
:105A1000030EE66EFE0EE66E000E12000601006B2F
:105A20004AEF2DF0006E050EE15E005012003FDCE3
:105A3000C1EF2BF0006E070EE15E00501200E66E23
:105A4000B1EF2BF0BAEC8FF0D3DCB8EF2BF0D8DC51
:105A5000C7DEFCEF29F0E4DE26C000F027C001F02D
:105A6000120025DFE6EF2BF0020EDBCFE6FF030E80
:105A7000120098DEC1EF2BF01ADCD6EF2BF0F3CF3B
:105A800000F0F4CF01F01200E66E31EF29F0E66E7F
:0C5A9000B8EF2BF0010EE66EE66A120083
:045A9C00D8CFE4FF7C
:105AA000E0CFE4FFE46EDACFE4FFE2CFDAFFE9CF44
