:020000040000FA
:060000005AEF9EF0120011
:020006001200E6
:0600080032EF8BF0120044
:02000E000208E6
:0100100005EA
:020011000100EC
:020013000000EB
:060018008EEF2CF0120037
:02001E000A00D6
:100020006B3E0100C808000021000000643E010092
:10003000EE00000007000000583E0100E908000043
:100040000C000000233E0100C8060000350000003F
:10005000DE3D0100B90A000045000000723D0100CC
:10006000000B00006C000000EB3C01006000000091
:100070008700000013000000FE0A000002000000DC
:10008000DC3C0100EF0B00000F000000110000003D
:08009000FE0400000200000064
:0800980085EC15F083E942E854
:1000A000013409E200501008270E015404E2100E3A
:1000B000006E270E016E0A010050035D01500459C5
:1000C00004E3000EF36EF46A8CD0036A046A40EC19
:1000D00018F00701CA6BCB6BC9AF02D0CA69CB69F4
:1000E000CB35000ECB1909E6D880B80EC855240EC2
:1000F000C955000ECA55000ECB5547E203CAC8F7D2
:1001000004CAC9F7CA6BCB6BD890CB51000A08E67A
:10011000B80EC85D240EC959000ECA59000ECB593D
:1001200014E23BEC17F000EBD0F701EBD1F7D26B08
:10013000D36BD1AF02D0D269D369B80ED05F240E91
:10014000D15B000ED25BD35B0ED03BEC17F000EB23
:10015000D4F701EBD5F7D66BD76BD5AF02D0D66904
:10016000D76986EC16F042EC17F0D3C7E6FF5AECDD
:1001700016F02C0E0701CC27010E39EC1BF01CECFD
:100180001AF0B80E006E240E016E0A010050035DD5
:100190000150045922E2B80EE66E240EFDEC1AF06E
:1001A000B40EADEC18F000EBD4F701EBD5F7070176
:1001B000D66BD76BD5AF02D0D669D76986EC16F06F
:1001C00042EC17F0E66E5AEC16F05C0E0701CC27F5
:1001D000120E39EC1BF01CEC1AF003EBF3FF04EBEE
:1001E000F4FF57EF17F085EC15F082E956E8EAECDA
:1001F00014F0A3900A012251106E2351116E245164
:10020000126E2551136E2F51146E3051156E3151EF
:10021000166E3251176E4DEC16F0A380E5EC16F019
:10022000270EE66EE90EE66E000EE66E6AEC19F039
:10023000D1EC1BF01AEC15F082EC17F01F0EE66EF5
:10024000E90EE66E000EE66E41EC19F018EC5FF078
:1002500049E91AEC15F0E6EC1AF0B3C0E6FFB4C0B9
:10026000E6FF8FEC18F00001715183EC1BF00001E8
:10027000BA5183EC1BF0BDC0C8F70701C96BC8BFFA
:10028000C96902EC19F08FEC18F00001C35183EC3E
:100290001BF099EC16F020CACCF721CACDF763EC1D
:1002A0001AF0CDAF02D0CE69CF693FEC1BF01AEC4B
:1002B00015F0A5EC1AF0FF0E101806E17F0E1118CC
:1002C00003E124EC1AF01ED099EC16F010EBCCF7F9
:1002D00011EBCDF763EC1AF0CDAF02D0CE69CF6948
:1002E0003FEC1BF01AEC15F099EC16F012EBCCF782
:1002F00013EBCDF763EC1AF0CDAF02D0CE69CF6926
:100300003FEC1BF01AEC15F00A012651E66EE66A86
:100310009BEC14F0A5EC5DF047E91AEC15F0130E18
:10032000E66EE90EE66E000E5FEC16F01AEC15F0C4
:10033000FF0E141806E17F0E151803E124EC1AF0E5
:1003400025D005EC17F014EBC8F715EBC9F707013A
:10035000CA6BCB6BC9AF02D0CA69CB69A4EC1BF0E6
:1003600093EC18F005EC17F016EBC8F717EBC9F78C
:100370000701CA6BCB6BC9AF02D0CA69CB69A4ECC9
:100380001BF09BEC14F02FEC5EF04BE91AEC15F02F
:10039000B50EE66E0A0EE66E00EBE6FF0CEC1DF005
:1003A00043E957E9E7CFD9FF120085EC15F082E960
:1003B00053E8EAEC14F0F70EE66EE80EE66E000E77
:1003C0008EEC15F01AEC15F0020EE66E65EC17F0E7
:1003D00093EC18F082EC17F086EC19F0E6EC1AF0CA
:1003E00000016B51040B03E00001665101D0000EC7
:1003F00083EC1BF000017B517C117D117E111FE00D
:100400003C0EADEC18F07B0EE96E000EEA6EEE507D
:100410000001775D0701CC6FEE50000178590701AC
:10042000CD6FEE50000179590701CE6FEE500001FB
:100430007A590701CF6F1E0ECBEC1AF002D063EC95
:1004400016F002EC19F08FEC18F00CEC1AF0E7EC57
:100450001BF049EC17F093EC18F06FEC17F093ECED
:1004600018F0A5EC1AF0BCEC1BF08FEC18F060EC67
:1004700017F0FDEC18F08FEC18F0F00EE66EE80EB9
:10048000E66E000E5FEC16F01AEC15F095C0E6FF74
:1004900096C0E6FF8FEC18F093C0E6FF94C0E6FF2D
:1004A0008FEC18F0020EE66E1BEC16F087EC1BF0DA
:1004B000E66EE7EC1BF00BCAD0F70CCAD1F70701C8
:1004C000D26BD36BFEC0D4F7FFC0D5F7D66BD76B1A
:1004D000D451D05DCC6FD551D159CD6FD651D259B1
:1004E000CE6FD751D359CF6F800ECF1526E0E66877
:1004F000E668E668E6680BCADCF70CCADDF7DE6B77
:10050000DF6BFEC0E0F7FFC0E1F7E26BE36BE051A9
:10051000DC5DD86FE151DD59D96FE251DE59DA6FF8
:10052000E351DF59DB6FD8C7E6FFD9C7E6FFDAC76B
:10053000E6FFE66EC0EC1BF018D00BCAE4F70CCA5D
:10054000E5F7E66BE76BFEC0E8F7FFC0E9F7EA6B9B
:10055000EB6BE851E45DC86FE951E559C96FEA51A9
:10056000E659CA6FEB51E759CB6F9FEC14F093EC4F
:1005700018F0020E0FEC17F005E269EC16F054ECDF
:100580001BF002D063EC16F05AEC1BF08BEC17F06A
:1005900009E294EC17F0DFEC1BF0E9EC19F00BEC3E
:1005A00017F002D063EC16F05AEC1BF09DEC17F03C
:1005B00009E2A6EC17F0DFEC1BF0F2EC19F00BEC03
:1005C00017F002D063EC16F09FEC14F093EC18F0E7
:1005D00007EC1BF010EC78F093EC18F013EC1BF028
:1005E00010EC78F093EC18F0020EE66EFFEC17F0CA
:1005F00093EC18F0020E005C02E1FAEC1BF023EC25
:100600001CF0020E005C02E1010E01D0005054E922
:10061000E7CFD9FF1200D3EC19F043E80B0170517A
:1006200001E025D1550E0B016E1901E020D1010E1C
:100630006F1901E01CD1540E0B01755D01E017D15B
:1006400076CB1DF000011C6B0B017751AFEC17F05E
:100650002AE001EB1CF002EB1DF01E6B1E35000EB4
:100660001E1907E6D880400E1C559C0E1D55000E25
:100670001E5519E30A01D8900230046F0130036F50
:10068000D890043303330351095D04510A5904E23D
:1006900003CA09FA04CA0AFA0551035D065104594E
:1006A00002E2EEEC16F00F0E0B01731500011D6F48
:1006B0001C6B0B017451AFEC17F001E1D8D0000EA8
:1006C000015C0F0E025801E3D2D00A010150D0089C
:1006D0002D6F070E02542E6F303530512E1904E65F
:1006E0002F512D5D30512E5904E22DCA2FFA2ECAFA
:1006F00030FA2E352E51321904E62D51315D2E512E
:10070000325904E22DCA31FA2ECA32FA206B216B1B
:1007100023352351211904E62251205D235121590B
:1007200004E220CA22FA21CA23FA213521512519CF
:1007300004E62051245D2151255904E220CA24FAFF
:1007400021CA25FA8951195D8A511A5906E389513E
:10075000195D016E1A518A5529D019CA1CF01ACA9E
:100760001DF000011E6B1F6B246B256B010E266FA5
:10077000276B89CA28F08ACA29F02A6B2B6B28516B
:10078000245D206F29512559216F2A512659226F46
:100790002B512759236F20511C2721511D232251F2
:1007A0001E2323511F231C51016E1D51026E19CAB5
:1007B00089FA1ACA8AFA01EB1CF002EB1DF000015B
:1007C0001E6B1F6B13EC1AF00001B1EC15F00A015F
:1007D0002E3528E22D510008000E2E5523E2E5ECBF
:1007E00017F000011E6B1F6B1DAF02D01E691F6941
:1007F00013EC1AF0040E2BEC1AF01E6B1F6B1DAFDE
:1008000002D01E691F69AD0EE96E0A0E31EC1AF0B6
:100810001E6B1F6B1DAF02D01E691F69330EE96E80
:100820000A0E22D0E5EC17F0000150EC17F01DAFD6
:1008300002D01E691F6913EC1AF0080E2BEC1AF097
:1008400050EC17F01DAF02D01E691F69B10EE96EA2
:100850000A0E31EC1AF050EC17F01DAF02D01E69F1
:100860001F69370EE96E0A0EEA6EB1EC15F0010E43
:10087000EAEF17F0D3EC19F046E8020E0B01705DB9
:1008800001E09DD19F0E0B016E1902E1060E6F195A
:1008900001E165D19E0E6E1902E1050E6F1901E1AD
:1008A0003BD19B0E6E1902E1050E6F1901E11ED1BD
:1008B000990E6E1902E1050E6F1949E0970E6E1937
:1008C00001E0E9D1050E6F1901E0E5D10B0172AB32
:1008D00008D0E60E0001606F616B00010A0E626FC6
:1008E00005D00001606B616B0001626B100E0B01A3
:1008F000731509E0100E0A01261505E1000E896F37
:100900008A6B196F1A6B0B0173AD06D0F00E73155D
:1009100000012C6F070E05D0F00E731500012C6F2F
:100920000F0E1DEC18F00B01795100080CE2F00ECF
:10093000795D09E279510001936F946B280E935F02
:10094000000E945BA8D10001936B946BA4D1600E50
:100950000A0126150BE1FF0E0B01775D07E07751C9
:10096000000804E277510A010D6F0E6B78CB2DF071
:1009700000012C6B0B01795100012C25016E000E3A
:100980002D21026E011C01E1021C01E184D10A014A
:100990000F51015C056E10510258066E86350650E7
:1009A000861904E68551055C8651065804E205EB7C
:1009B00085FA06EB86FA06348851061804E60550D7
:1009C000875D0650885904E205EB87FA06EB88FA42
:1009D000030EE66EE66A83CAE6FF84CAE6FFE6EC2B
:1009E00078F00A01FE0EE3500524836F41E9E550DB
:1009F0000620846FE8340EE3836D841F000E842389
:100A0000020E8327000E842324EC18F0836D841FCC
:100A1000842308D0020E8325836F000E8421846F07
:100A200024EC18F0070ED89084BF03D0835D000E2D
:100A3000845902E3010E08D0843508E38351F90894
:100A4000FF0E845503E3020E826F01D0826B0A0E03
:100A5000015C000E025845E3522B000E5323542331
:100A6000552301EB2CF002EB2DF000012C510A0173
:100A7000562700012D510A015723000E58235923F0
:100A800082512FE0825158EC15F00C0E37EC17F024
:100A9000EE2AEE22EE22EE2284350AE383CA2CF0FF
:100AA00084CA2DF000012C6D2D1F000E2D2304D0C3
:100AB00083CA2CF084CA2DF000012E6B2F6B2DAF52
:100AC00002D02E692F6913EC1AF0100E37EC17F0D4
:100AD00000012C51EE262D51EE222E51EE222F51E7
:100AE000EE2201EB0FFA02EB10FAD5D0090E0B0142
:100AF000731500012C6FF00E1DEC18F0800E0B0129
:100B0000725D03E10A012683C6D0080E725D01E022
:100B1000C2D00A012685BFD072CB2DF000012C6B0C
:100B20000B01735100012C250A01196F000E000101
:100B30002D210A011A6F0B01775100080CE2F00E0B
:100B4000775D09E277510001956F966B280E955FEE
:100B5000000E965BA0D00001956B966B9CD00001B7
:100B6000885101E198D00F0E0B017515300F00016F
:100B7000816F0B0175390F0B300F0001826F0F0E63
:100B80000B017415300F0001836F0B0174390F0BCB
:100B9000300F0001846F0F0E0B017315300F000131
:100BA000856F0B0173390F0B300F0001866F0F0E2D
:100BB0000B017215300F0001876F886B6CD0050E2A
:100BC000705D69E1D70E0B016E1965E1050E6F19B5
:100BD00062E177CB2CF000012D6B2E6B2F6B040E96
:100BE000D8902F332E332D332C33E806F9E176CB12
:100BF00030F00001316B326B336B040E1F0B08E0D9
:100C00000001D8903037313732373337E806F9E111
:100C1000000130512C1331512D1332512E13335109
:100C20002F1375CB34F0356B366B376B0C0E1F0BF7
:100C300008E00001D8903437353736373737E806C3
:100C4000F9E1000134512C1335512D1336512E1377
:100C500037512F1374CB38F0396B3A6B3B6B140E52
:100C60001F0B08E00001D890383739373A373B3747
:100C7000E806F9E1000138512C1339512D133A518E
:100C80002E133B512F132CC011FA2DC012FA2EC077
:100C900013FA2FC014FA010E47E9E7CFD9FF12006B
:100CA000D3EC19F043E8016A026A7F0E0601C85DC1
:100CB00004E0200EC85D01E08BD0030EE66ED0ECA0
:100CC00095F041E9530ED5EC16F006E0040E05014F
:100CD000F71502E1010E016E490ED5EC16F002E0A7
:100CE000010E026E05010A0145A327D0025011E052
:100CF0000A01B9510EE00A01BA510BE1000EE66E8D
:100D0000E66ACF0EFDEC1AF0E3EC0DF045E90A01BE
:100D10004593015012E0000EE66EE66AE66EE66A62
:100D2000E66EE66A010EE66EC3EC0DF047E90009D7
:100D300002E08CEC63F00A0145930A0145AD13D043
:100D40000A01B95110E00A01BA510DE1020EE66E36
:100D5000D5EC01F041E9036E020E035C02E015ECF4
:100D60001CF00A01459D0A0145A51ED00A01B905DE
:100D70001BE10A01BA5118E1020E036ED00EE66EB5
:100D8000E66A03EBE6FF4BEC0DF043E9036E03EB81
:100D9000E6FFF3EC00F041E9036E020E035C02E0B3
:100DA00015EC1CF00A0145950A0145A711D00A016E
:100DB000B9050EE10A01BA510BE1020EE66EF3EC41
:100DC00000F041E9020802E015EC1CF00A01459729
:100DD000EAEF17F065DF010C000CD3EC19F042E8E4
:100DE0000501F551016E026A015002101CE00A0E65
:100DF000E66EE66A060EE66EE66A97C0C8F798C029
:100E0000C9F70701140ED880C857000EC95702EC65
:100E100019F0E6EC78F02EEC77F0FE0EE350015E70
:100E200041E9E550025A01EBF3FF02EBF4FF57EF03
:100E300017F0E66AE66AC80EE66E420EE66E1D0E12
:100E4000E66E7CEC96F041E9F3CFE6FFF4CFE6FFE7
:100E5000C1EC5AF042E9FBEC19F06FEC1AF0CBEC64
:100E600079F090EC76F0E552E5CF44FAE7CF43FA1B
:100E7000640EE66EE66A320E0A0143250701CA6F68
:100E8000000E0A01442139EC1AF0C8C7F6F5120029
:100E9000D3EC19F04EE8A0DF0501F351016E026AB0
:100EA000F451036E046A99DFF350056EF450066E38
:100EB0004B0E0B017B5D21E104340DE245EC18F093
:100EC0000AE2BDEC16F0CDAF02D0CE69CF698BEC53
:100ED0001BF097EC19F0063410E24AEC18F00DE222
:100EE00007EC18F0CDAF02D0CE69CF698BEC1BF0C8
:100EF0000701C851056EC951066E9BDF640EA7EC51
:100F000016F0B8EC16F0C8C772F00A0EFDEC1AF035
:100F100065EC17F010EC78F0A2EC58F044E9FCC551
:100F2000A7F0FDC5A8F0FEC5A9F0FFC5AAF0DFEC4B
:100F30001BF075EC1AF031EC16F010EC78F06FEC59
:100F400019F0FCC5A5F0FDC5A6F07EEC17F011E187
:100F50002BEC18F00701CC6F000E0A0110210701DD
:100F6000CD6FCCC7E6FFE66E88EC1AF06FEC19F097
:100F700009D02BEC18F00701CA6F000E0A011021EE
:100F800039EC1AF0C8C771F0000160510008000E7A
:100F9000615505E200016B8700016F8904D00001F3
:100FA0006B9700016F99600E0A012615200804E175
:100FB00000016B856B8902D000016B99080E0A0154
:100FC000261502E0010E01D0000E00016B9FE8B073
:100FD0006B8F100E0A01261525E0400E261522E122
:100FE00000016D51020B1EE16D8300017B6B7C6B78
:100FF0007D6B7E6B03CA0BFA04CA0CFA11CA15FA90
:1010000012CA16FA13CA17FA14CA18FA0A01836B1D
:10101000846B856B866B876B886B010E15EC16F005
:101020006DD92DD0100E0A01261529E100016D5150
:10103000020B25E06D9377C07BF078C07CF079C01F
:101040007DF07AC07EF000017B07000E7C5B7D5B4B
:101050007E5B03CAFEF004CAFFF0010E15EC16F029
:1010600065EC18F0D8802A0EC855750EC955150EB6
:10107000CA55000ECB5503E2420E0A0145136FD943
:1010800000016BA9B8D0640EA7EC16F0B8EC16F00E
:101090000701C851086E0001642B000E65230A0188
:1010A00007510008000E085535E203510008000EF4
:1010B000045530E205510008000E06552BE27CEC89
:1010C0001AF005CAE6FF06CAE6FF0FEC76F007CA7B
:1010D000E6FF08CAE6FF0FEC76F056EC78F0CBECB2
:1010E00079F090EC76F0E552E5CF0EFAE7CF0DFA05
:1010F0000A014FEC18F002E21FEC1BF0063406E286
:101100004AEC18F003E2C3EC15F004D075C073F09C
:1011100076C074F0150E0001665D03E1040E15EC57
:1011200016F000016651020815E203CA09FA04CA62
:101130000AFA150E665D03E0EEEC16F0DFD800014A
:10114000010E666F020E15EC16F00501F7AD4CD0DE
:10115000040E48D00A0103510008000E045519E29C
:10116000023417E201500008000E025412E2085047
:10117000F36E023404E20150F35C000E025409E302
:101180000051F36E023404E20150F35C000E02548D
:1011900014E34FEC18F019E2043417E245EC18F0B0
:1011A00014E200010350735D045074590EE30A0108
:1011B0000350015D0450025908E20001020E666FFF
:1011C000040E15EC16F0020E0DD0020E0001665D45
:1011D0000BE00A01B80E035D240E045905E300017B
:1011E000020E666F15EC16F008EB00FA73C001FAF8
:1011F00074C002FA3DD00A014FEC18F00EE21FEC69
:101200001BF0063406E24AEC18F003E2C3EC15F0DA
:1012100004D075C073F076C074F000016651020806
:1012200013E30A01100E095D270E0A5903E30001BA
:10123000040E02D00001150E666F040E15EC16F0B8
:10124000020E15EC16F014D000016D51020B10E0E7
:1012500000016B51100B0CE16B51040B09E06B9515
:101260000001646B656B0001040E666FEEEC16F016
:10127000C2EC19F0300EE66E2A0EE66EE66AFFEC5E
:1012800017F07AEC79F08AEC15F0C8C7CFF0C9C72F
:10129000D0F00A010F510008000E105516E2020EA0
:1012A0000501F11512E0050EE66EE66A6CCBE6FF6D
:1012B0006DCBE6FF79EC77F0E552EAEC1BF0070125
:1012C000C851C91102E10A014587000E4FE9E7CF75
:1012D000D9FF12000A0126BF0AD0400E266F000176
:1012E000606B616B0001626B40EC1AF0000C269F92
:1012F000000C05EC10F00A014585000CA3903C0E93
:10130000FDEC1AF0460EE66E0A0EE66E95EC90F0D5
:1013100045E90A01826B19CA89FA1ACA8AFAF7ECF6
:1013200016F0336B346B356B366B376B386B396B50
:101330003A6BA3801C0EFDEC1AF08B0EE66E0A0EC3
:10134000E66E95EC90F045E90DEC18F03B6B3C6BCC
:101350003D6B3E6B416B426B3F6B406B1200D3ECBD
:1013600019F050E80A0126A9C1D00001BD5103E1DE
:101370000DEC18F0BBD00A01A751A811A911AA11B0
:1013800007E11CEC17F0A390F7EC16F0A380AED0A9
:10139000DFEC1BF0A70EE96E0A0EEA6EEE5031ECA0
:1013A00016F0C0EC1BF00701C851016EC951026E66
:1013B000CA51036ECB51046ED890045008E6640EF7
:1013C000015C000E0258000E0358000E045801E2A2
:1013D0008DD0A3900A01AD51096EAE510A6EAF5186
:1013E0000B6EB0510C6EB1510D6EB2510E6EB35109
:1013F0000F6EB451106EF7EC16F0A380AB510001E4
:10140000B55D056EB6510A01AC55066E01EBE6FFFF
:1014100041EC19F004EBE6FF640EADEC18F007ECBC
:1014200018F0CDAF02D0CE69CF69AEEC15F08AECE2
:1014300015F00701C851076EC951086E1CEC17F072
:10144000010ED89008BE03D0075C000E08581EE3BA
:101450000A0101508B2702508C2303508D23045026
:101460008E2305508F2706509023095091270A504C
:1014700092230B5093230C5094230D5095270E501C
:1014800096230F5097231050982330D008342EE322
:101490000750FF08FF0E085429E30A01015099275D
:1014A00002509A2303509B2304509C2305EBC8F75A
:1014B00006EBC9F70701C86DC91F000EC923C85143
:1014C0000A019D270701C9510A019E2309509F2740
:1014D0000A50A0230B50A1230C50A2230D50A32788
:1014E0000E50A4230F50A5231050A62351E9E7CF97
:1014F000D9FF120085EC15F082E959E80E6A0F6AEF
:10150000106AB0EC18F0026EC951036ECA51046E35
:10151000CB51056E65EC18F0C851066EC951076EC7
:10152000CA51086ECB51096EDAEC18F00A6EC95137
:101530000B6ECA510C6ECB510D6E0250031004108D
:10154000051027E0A8EC15F046CAE6FF47CAE6FFFB
:1015500048CAE6FF49CAE6FF8DEC1AF00E6EA8EC09
:1015600015F05ACAE6FF5BCAE6FF5CCAE6FF5DCA31
:10157000E6FF8DEC1AF00F6EA8EC15F06ECAE6FFD0
:101580006FCAE6FF70CAE6FF71CAE6FF8DEC1AF07B
:10159000106E77EC17F0116EF450126E06500710B3
:1015A0000810091009E002500A08000E0354000E4A
:1015B0000454000E055403E3D3EC1AF0A7D0740EC4
:1015C000005C01E0ABD0D3EC1AF02BEC1BF097ECF5
:1015D0001AF07CEC19F041EC19F032EC19F010EC37
:1015E00078F0DC0EE66EE80EE66E000E60EC15F0AC
:1015F0000E50E66EE66AD00EE66EE80EE66E000E5F
:10160000C4EC1BF060EC1BF0F5EC1AF069EC1BF07D
:101610002BEC1BF00F50E66EE66AC00EE66EE80E8D
:10162000E66E000EC4EC1BF05ECAC8F75FCAC9F7CD
:1016300060CACAF761CACBF7F5EC1AF062CAC8F7FC
:1016400063CAC9F764CACAF765CACBF72BEC1BF0AB
:101650001050E66EE66AB40EE66EE80EE66E000E18
:10166000C4EC1BF072CAC8F773CAC9F774CACAF7C8
:1016700075CACBF7F5EC1AF076CAC8F777CAC9F77E
:1016800078CACAF779CACBF72BEC1BF08FCAE6FFF2
:1016900090CAE6FFE66AE66AAB0EE66EE80EE66E14
:1016A000000E5FEC19F091CAC8F792CAC9F793CA45
:1016B000CAF794CACBF744EC1BF095CAC8F796CA90
:1016C000C9F797CACAF798CACBF72BEC1BF09DCA8B
:1016D000E6FF9ECAE6FFE66AE66A9C0EE66EE80E44
:1016E000E66E000E5FEC19F09FCAC8F7A0CAC9F7F2
:1016F000A1CACAF7A2CACBF744EC1BF0A3CAC8F729
:10170000A4CAC9F7A5CACAF7A6CACBF72BEC1BF027
:10171000E10EE66EE80EE66E000EB7D1AEEC16F006
:10172000E66A1BEC16F0050E78EC19F0960EE66EE4
:10173000E80EE66E000E60EC15F0010E0FEC17F0EF
:1017400007E2DFEC1BF069EC16F0E2EC1BF002D0D4
:1017500063EC16F09FEC14F0920EE66EE80EE66E67
:10176000000E60EC15F08E0EE66EE80EE66E000ED2
:1017700025EC15F082EB17F083EB18F084EB19F0F1
:1017800085EB1AF0A4EC14F016E01A3414E2BAEC6B
:1017900015F011E263EC19F003E2FCEC15F002D055
:1017A00004EC16F097EC18F08C0EE66EE80EE66E80
:1017B000000ECBEC19F00001FE510A010B5D000197
:1017C000FF510A010C5933E3AEEC16F00001FE5153
:1017D0000A010B5D0701C86F0001FF510A010C5996
:1017E0000701C96F050EFBEC17F002EC19F088EC4D
:1017F0001AF07F0EE66EE80EE66E000E60EC15F055
:10180000AEEC16F0050E0A0103250701C86F000EA5
:101810000A010421C9EC16F07C0EE66EE80EE66EB5
:10182000000E60EC15F09DEC19F025EC15F00A01A6
:101830004A51066E4B51076E4C51086E4D51096E60
:101840004E510A6E4F510B6E50510C6E51510D6E30
:101850004651176E4751186E4851196E49519BEC0D
:101860001AF01DE01A341BE2BAEC15F018E20E5023
:10187000E66EE66A760EE66EE80EE66E000E8BEC1D
:1018800018F063EC19F003E2FCEC15F002D004EC64
:1018900016F097EC18F0A3EC19F0CBEC19F00A0154
:1018A0005E51066E5F51076E6051086E6151096EA0
:1018B00062510A6E63510B6E64510C6E65510D6E70
:1018C0005A51176E5B51186E5C51196E5D519BEC4D
:1018D0001AF029E01A3427E2BAEC15F024E20F508E
:1018E000E66EE66A6D0EE66EE80EE66E000EB3EC8E
:1018F00016F08BEC17F00BE2DFEC1BF094EC17F01A
:10190000ADEC18F0E9EC19F0E3EC14F002D063EC64
:1019100016F072EC1BF003E2FCEC15F002D004ECC4
:1019200016F04CEC1BF00A017251066E7351076EF3
:101930007451086E7551096E76510A6E77510B6EAF
:1019400078510C6E79510D6E6E51176E6F51186E85
:101950007051196E71519BEC1AF029E01A3427E28C
:10196000BAEC15F024E21050E66EE66A620EE66EFE
:10197000E80EE66E000EB3EC16F09DEC17F00BE2ED
:10198000DFEC1BF0A6EC17F0ADEC18F0F2EC19F060
:10199000E3EC14F002D063EC16F072EC1BF003E2FF
:1019A000FCEC15F002D004EC16F04CEC1BF00A0134
:1019B0009151066E9251076E9351086E9451096EC3
:1019C00095510A6E96510B6E97510C6E98510D6E93
:1019D0008B51176E8C51186E8D51196E8E519BEC78
:1019E0001AF01CE01A341AE2BAEC15F017E28FCAAA
:1019F000E6FF90CAE6FF5C0EE66EE80EE66E000EAD
:101A00008BEC18F047EC1AF003E2FCEC15F002D076
:101A100004EC16F099EC1BF0CBEC19F00A019F5185
:101A2000066EA051076EA151086EA251096EA35116
:101A30000A6EA4510B6EA5510C6EA6510D6E9951F4
:101A4000176E9A51186E9B51196E9C519BEC1AF0AF
:101A50001EE01A341CE2BAEC15F019E29DCAE6FF4A
:101A60009ECAE6FF530EE66EE80EE66E000E8BECA5
:101A700018F047EC1AF003E2FCEC15F002D004EC8D
:101A800016F099EC1BF073EC14F025EC15F05AE904
:101A9000E7CFD9FF120085EC15F084E943E8D00EBA
:101AA00000186EE101506CE1380EE66EE80EE66E4D
:101AB000000E8EEC15F081EC19F0066A0650020853
:101AC0002AE3DFEC1BF00701050EC86FC96BCA6B78
:101AD000CB6B9EEC1AF0A3EC18F037EC19F09EECEF
:101AE0001AF0040E8EEC1BF037EC19F09EEC1AF095
:101AF000080E8EEC1BF09EEC1AF00C0E37EC17F073
:101B0000C7EC19F09EEC1AF0100E37EC17F0C7EC8A
:101B100019F0062AD3D7066A065001081FE30CEC19
:101B200016F0C7EC19F00CEC16F0040E37EC17F0B9
:101B300000EC17F0E66AE66A0AEC15F037EC19F0EB
:101B40000CEC16F0060E8EEC1BF037EC19F00CECDA
:101B500016F00A0E8EEC1BF0062ADED707EC1BF0FF
:101B60007DEC16F013EC1BF07DEC16F0B70EE66E74
:101B70000A0EE66E02EBE6FF0CEC1DF043E9026E86
:101B80000250EAEF17F067EC1AF041E8065004E063
:101B9000140E0501F71502E0000E13D0DEEC15F06F
:101BA0000050011004E0C3EC16F0200901D0650ECE
:101BB000086E0701006B08EBE6FF9CDC41E9EEECE8
:101BC00015F0EEEF17F0A1EC1AF043E8D00E021872
:101BD00012E1035010E1045005E0D0EC17F05BDF98
:101BE00043E91CD041EC19F0020EE66E54DF43E9E4
:101BF00002083AE037D00050011004E0C3EC16F0C0
:101C0000200901D0650E086E4EEC1AF008EBE6FFD5
:101C100071DC41E904501FE023EC1CF041EC19F0A9
:101C2000310EE66EE80EE66E000EE66E6AEC19F016
:101C3000A0EC1BF054EC18F02E0EE66EE80EE66EEB
:101C4000000EE66E17EC1AF06BEC1AF054EC18F07C
:101C500023EC1CF009D00501F7B906D0FAEC1BF013
:101C600023EC1CF015EC1CF0010EEAEF17F0D3EC9E
:101C700019F046E877EC17F0016EF450026E00019F
:101C80006BA563D000016651040A10E0060A08E063
:101C9000030A12E11D0EE66EE80EE66E000E11D08C
:101CA000070EE66EE80EE66E000E0BD0F90EE66E3D
:101CB000E70EE66E000E05D0E80EE66EE70EE66E65
:101CC000000E2BEC15F015EC15F04ECACCF74FCAF0
:101CD000CDF750CACEF751CACFF7DD0E0701CC279A
:101CE0006D0E9DEC15F0E00EE66EE70EE66E000E52
:101CF00029EC17F0680EE66E030EFDEC1AF07CEC92
:101D000019F0AAEC1BF05AEC16F0B40E0701CC2720
:101D1000010E9DEC15F0DC0EE66EE70EE66E000E91
:101D200029EC17F0D70EE66EE70EE66E000E2BECF0
:101D300015F0040E0001665D25E0F2EC17F0CE0E02
:101D4000E66EE70EE66E000E14D0BB0EE66EE70EF2
:101D5000E66E000E2BEC15F00A01100E035D270E47
:101D6000045910E2F2EC17F0AB0EE66EE70EE66EE9
:101D7000000E92EC15F0C80EE66EE70EE66E000E51
:101D80002BEC15F07EEC17F00BE15BEC17F0D7ECC9
:101D900019F0A9EC19F092EC15F0D3EC17F00CD077
:101DA000BCEC1BF0D7EC19F0FDEC18F0A9EC19F025
:101DB00092EC15F0D9EC17F02BEC15F00CEC1AF0B6
:101DC0008D0EE66EE70EE66E000E66EC15F0CFECBB
:101DD00019F049EC17F0890EE66EE70EE66E000E7C
:101DE00066EC15F06FEC17F0850EE66EE70EE66E0A
:101DF000000E66EC15F0820EE66EE70EE66E000E43
:101E00002BEC15F07EEC17F009E197EC1AF0E5ECFD
:101E100016F055EC1AF0D3EC17F00CD097EC1AF042
:101E2000E5EC16F092EC1BF06FEC1AF055EC1AF0A2
:101E3000D9EC17F02BEC15F00A0143510008000E05
:101E4000445529E2AEEC16F0050E43250701C86F94
:101E5000000E0A014421C9EC16F0720EE66EE70E80
:101E6000E66E000E66EC15F0AEEC16F0050E000105
:101E7000CF250701C86F000E0001D021C9EC16F074
:101E8000A3EC19F066EC15F06E0EE66EE70EE66E4A
:101E9000000E2BEC15F047E9E7CFD9FF120067ECF5
:101EA0001AF0065004E00C0E0501F71502E0000ED2
:101EB00007D0DEEC15F00701006BD9DEEEEC15F073
:101EC000F7EF17F0A1EC1AF00501F7B709D04EECC7
:101ED0001AF0CDDE23EC1CF0E66AD5EC01F041E906
:101EE000010EF7EF17F085EC15F084E942E82EECCF
:101EF0001BF003E040EC18F004D00701C90EC86FD6
:101F0000C96B02EC19F05CEC1AF00501F551E0EC3C
:101F100019F023EC1CF0020E025C02E1010E01D06C
:101F2000025057EF17F0A1EC1AF0CA0E021814E194
:101F3000035012E10050011008E0C3EC16F005E078
:101F40002DEC17F0F3CFF5F502D00501F56B73EC2E
:101F500019F01C0E32EC17F058D8045004E0D0EC05
:101F600017F0C1DF43E9010EF7EF17F067EC1AF045
:101F700042E806501FE0DEEC15F00250031016E0B8
:101F8000050E15EC18F012E00050011008E0C3EC4B
:101F900016F005E02DEC17F0F3CFF5F502D00501B2
:101FA000F56B73EC19F01C0E32EC17F02ED805010E
:101FB000F7A502D0000E27D079EC1BF0500EE66E8C
:101FC000E70EE66E000E8EEC15F08DEC19F00501B3
:101FD000F55106E14A0EE66EE70EE66E000E11D0F0
:101FE000F551ADEC18F0E66A1FEC15F07EEC17F039
:101FF00003E132EC18F002D039EC18F0CA6F02ECB1
:1020000019F0B0EC1BF057EF17F0D3EC19F044E8DF
:102010000501F55100081FE2EDEC06F0F350036EE8
:10202000F450046E7EEC17F011E103EBDAF004EBF0
:10203000DBF0BDEC16F0CDAF02D0CE69CF6987ECF6
:1020400018F092EC1BF097EC19F02BD0BDEC16F0C9
:10205000CDAF21D01ED00A010551061114E0075161
:10206000081111E049EC17F0C2EC19F007CAE6FFBD
:1020700008CAE6FFE66AE66A7AEC79F08AEC15F0BF
:1020800097EC19F002D0036A046ABDEC16F0CDAFEC
:1020900002D0CE69CF698BEC1BF0FCC5DAF0FDC530
:1020A000DBF0F3C5D9F00001D95104E10001D56995
:1020B000D6690DD0D951640DF3CFE6FFF4CFE6FF1A
:1020C0004CEC00F042E9F3CFD5F0F4CFD6F00501A7
:1020D000F451016E026A7EEC17F012E101EBD7F0C9
:1020E00002EBD8F0D7C0E6FFD8C0E6FFE66AE66AA2
:1020F00092EC1BF00701C851016EC951026E10D05D
:1021000001EBCCF702EBCDF763EC1AF0CDAF02D0C8
:10211000CE69CF698BEC1BF0FCC5D7F0FDC5D8F0BC
:102120000001D751D81104E10001D369D46931D03D
:1021300004342CE245EC18F029E203EBD0F704EB71
:10214000D1F70701D26BD36BD1AF02D0D269D3697B
:1021500042EC17F0D3C7E6FFC2EC19F001EBCCF765
:1021600002EBCDF7CE6BCF6BCDAF02D0CE69CF698E
:10217000AEEC15F08AEC15F002EC19F04CEC00F026
:1021800042E9F3CFD3F0F4CFD4F003D00001D36B06
:10219000D46B100EE66E270EE66E4CEC00F042E9B2
:1021A000F3CFD1F0F4CFD2F0020E15EC16F045E9E2
:1021B000E7CFD9FF120085EC15F084E948E8066AFC
:1021C000076A086A096A2EEC1BF003E040EC18F07D
:1021D00004D00701CB0EC86FC96B02EC19F05CECA0
:1021E0001AF00501F451E0EC19F00501F351E66E27
:1021F000E66A96EC1BF0D3C0E6FFD4C0E6FF96EC8F
:102200001BF0D5C0E6FFD6C0E6FF96EC1BF0F2EC63
:1022100017F096EC1BF023EC1CF0020E025C02E1BE
:10222000010E01D0025049E9E7CFD9FF1200A1EC1D
:102230001AF044E8CC0E021847E1035045E1066A63
:10224000076A086A096A0050011016E0C3EC16F02C
:1022500013E0D5EC1BF073EC19F05DEC9CF045E954
:1022600054EC18F0D5EC1BF0000EE66EE66A5DEC5F
:102270009CF045E98DEC19F00650071007E017ECCB
:102280001AF0FEEC87F0DFEC17F003D00701C86B03
:10229000C96BC8C7F4F50850091007E092EC19F0B3
:1022A000FEEC87F0DFEC17F003D00701C86BC96BB9
:1022B000C8C7F3F517EC1AF01B0E32EC17F092ECCE
:1022C00019F01A0E32EC17F0A0DE045004E0D0EC46
:1022D00017F071DF43E9010E45E9E7CFD9FF12009E
:1022E00067EC1AF04AE806505AE0DEEC15F00250AE
:1022F000031051E0020E15EC18F04DE00E6A0F6A63
:10230000106A116A0501F36BF46B0050011035E09F
:10231000C3EC16F032E02DEC17F0F3500A6EF450D7
:102320000B6E73EC19F044EC91F0DFEC17F0070141
:10233000C807000EC95BC8510024E96EC9510120CD
:10234000EA6EEF500C6E250E0C5C07E180EB0EF090
:1023500081EB0FF00AEBF3F506D080EB10F081EB88
:1023600011F00AEBF4F573EC19F0D1EC64F042E9EA
:10237000F350006EF450016EC8D70EEBE6FF0FEB82
:10238000E6FF1A0E32EC17F010EBE6FF11EBE6FF5A
:102390001B0E32EC17F039DE0501F7A502D0000E56
:1023A000DED079EC1BF03B0EE66EE70EE66E000E1B
:1023B000B5DB8DEC19F00501F35108E1F45106E1AC
:1023C000370EE66EE70EE66E000E63D0F35100089E
:1023D00008E2F351ADEC18F0E66A31DB9DEC19F040
:1023E00047DB0501F451000821E2F451E66EE66A8C
:1023F000F351000808E20701320EC86FE70EC96FFB
:10240000000ECA6F04D00701C86BC96BCA6B87EC9A
:102410001BF015DB7EEC17F003E132EC18F002D074
:1024200039EC18F0CA6F02EC19F022DB0001D43548
:1024300014E2D3510008000ED4550FE20001D63546
:10244000D6510001D41908E60001D5510001D35D31
:102450000001D6510001D45902E3000E01D0010E53
:10246000000905E0D3C0C8F7D4C0C9F704D0D5C06F
:10247000C8F7D6C0C9F702EC19F0290EE66EE70ED0
:10248000E66E000ED8EC1BF0C80EE66EE70EE66EA8
:10249000000EEEDAF2EC17F0190EE66EE70EE66EBD
:1024A000000ED8EC1BF0120EE66EE70EE66E000E84
:1024B000DFDA00016BA520D000016651040A16E0A6
:1024C000060A0EE0030A06E0E80EE66EE70EE66E88
:1024D000000E17D01D0EE66EE80EE66E000E11D04F
:1024E000070EE66EE80EE66E000E0BD0F90EE66EF5
:1024F000E70EE66E000E05D0BB0EE66EE70EE66E4A
:10250000000EB6DA7EEC17F00BE15BEC17F0BAECDC
:1025100019F0A9EC19F0D8EC1BF0D3EC17F00CD0A3
:10252000BCEC1BF0BAEC19F0FDEC18F0A9EC19F0BA
:10253000D8EC1BF0D9EC17F09BDA0CEC1AF0000E7B
:10254000E66EE70EE66E000EE66E92EC19F0DBEC3E
:102550001BF08DEC19F09DEC19F0B0EC1BF04BE981
:10256000E7CFD9FF1200A1EC1AF002EBF3FF03EB67
:10257000F4FFCF0EF31801E1F45027E0D00EF3186A
:1025800001E1F45022E0CB0EF31801E1F4501AE01F
:10259000CC0EF31801E1F45015E0C90EF31801E177
:1025A000F4500DE0CA0EF31801E1F45008E0060EF5
:1025B000F31810E1F4500EE1BBDA84DC09D0B8DA8C
:1025C000B2DC06D0B5DA33DE03D0B2DAE3EC0DF0DC
:1025D00045E901D0000EF7EF17F067EC1AF041E87B
:1025E000086AF2DA08EBE6FFE66AE66A48DAF550CE
:1025F00018E0A4DB08EBE6FF82EC1AF010E00850CC
:102600004FEC19F006EBE6FFC7EC17F0086E06502A
:1026100004E0085002E08CEC63F0085003D0082A74
:10262000E0D7000EEEEF17F070DA87E941E8076AAD
:1026300004EC1AF0F55030E081DB07EBE6FF82ECAA
:102640001AF028E073EC19F09AEC64F042E9F350C8
:10265000006EF450016ED9CFE6FFDACFE6FF32EC20
:1026600019F004EC1AF0F5CFE6FF69EC6AF045E9E1
:10267000000902E1000E11D007504FEC19F0010ED5
:10268000E66EC7EC17F0076E075002E08CEC63F0C3
:10269000075003D0072ACCD7000EEEEF17F067ECF7
:1026A0001AF042E8065003E10501F7A502D0000E3A
:1026B0003DD0F60EE66EE60EE66E000EE66E2FECF0
:1026C0002EF043E9086A096A7FDA08EBCEF709EBD6
:1026D000CFF7D06BCFBFD069CEC7E6FFCFC7E6FF3D
:1026E000D0C7E6FFCCD9F55020E08C0EE66EE80EA0
:1026F000E66E000EE66E2FEC2EF043E907011EDBBE
:1027000008EBD1F709EBD2F7D36BD2BFD369D1C7AE
:10271000E6FFD2C7E6FFD3C7E6FFDED92FEC2EF0E7
:1027200043E9082A000E0922CFD7010EC0D3D3EC0B
:1027300019F041E8520E0501CC5D05E1540ECD5D66
:1027400002E1CE5138E0520ECC6F540ECD6FCE6BFD
:10275000CF6BD06B0A01400E266F880E036F130EED
:10276000046F100E056F270E066F096B0A6B0001D0
:10277000320E726F0A01006B0D6F0E6B640E076FE5
:10278000086B016B026B41DC40EC1AF0116B126BB1
:10279000136B146B196B1A6B000E0001FE6FFF6B4D
:1027A0000A010B6F0C6B156B166B176B186B7EECBD
:1027B00009F00A01456B0A01E80E2B6F030E2C6F1E
:1027C0002BCA28FA296F2A6B2ACA27FA19EC07F0B4
:1027D000900E6F6E6EAEFED7606A0F015F0E186FBF
:1027E000E00E196F0A0E006FA00E016F100E046F3D
:1027F000200E056F506B9E0E1C6F1D6B920E086FA6
:10280000096B840E0C6F0D6B8A0E106F116B9A0E94
:10281000146F156B706ABF0E716E020E726E200E11
:10282000736E0501F8A102D06F6A02D0600E6F6E60
:102830000B015A0E7C6F3B0E7D6F010E7E6F0B01FC
:10284000600E7F6F3B0E806F010E816F0B01160EC5
:10285000856F060E866F000E876F0B01740E886FF2
:10286000080E896F000E8A6F0B01D40EA06F0D0E3B
:10287000A16F000EA26F0B01900E8B6F0E0E8C6F6E
:10288000000E8D6F0B01D40E8E6F120E8F6F000E27
:10289000906F0B01F20E916F120E926F000E936FFC
:1028A0000B01D80E9D6F0D0E9E6F000E9F6F0B01DA
:1028B000DA0EA66F250EA76F000EA86F0B01280E6B
:1028C000A96F260EAA6F000EAB6F0B01660EA36FE9
:1028D000250EA46F000EA56F0601EE81EE83EE8536
:1028E000EE87010E7BD301EC1BF03BEC5DF049E978
:1028F000C7EC1BF0DFEC1BF07CEC19F017EC1AF0C6
:1029000092EC19F010EC78F00AEBE6FF0BEBE6FF27
:102910000CEBE6FF0DEBE6FF10EC78F0E552E2EC95
:102920001BF002EC19F0870EE66EE80EE66E000E64
:10293000F2DB9DEF19F0D5EC1BF041EF19F087ECBD
:102940001BF0CBC7E6FF120006EBCCF707EBCDF789
:1029500008EBCEF709EBCFF7D9500A0FE96EDACFC3
:10296000EAFFEE500701CC5DC86FEE50CD59C96F3C
:10297000EE50CE59CA6FEE50CF59CB6FC851136E7F
:10298000C951146ECA51156ECB51166E0650071000
:10299000081009101200FDEC1AF017EBE6FF18EB17
:1029A000E6FF19EBE6FF1AEBE6FF13EBE6FF14EB8D
:1029B000E6FF15EBE6FF16EBE6FFB2EC77F0C0ECB6
:1029C0001BF0163412007AEC79F010EC78F0E55236
:1029D000E2EF1BF0C5DB046EC951056ECA51066EED
:1029E000CB51076E72DBC851086EC951096ECA51CE
:1029F0000A6ECB510B6EDEDB0C6EC9510D6ECA51E7
:102A00000E6ECB510F6E120001EC1BF0D1EC1BF0DF
:102A100011EF1AF0D5EC1BF032EC19F0D1EC1BF0F1
:102A200081EF19F044E9FBEF19F0BA0EE66EDB0E08
:102A3000FDEF1AF0F350026EF450036E120092ECA8
:102A400019F0A0EC1BF08DEF19F001EC1BF06BEC12
:102A50001AF011EF1AF0AFEC19F06BEC1AF0B5EFB9
:102A600019F0E66E32EC19F0A0EC1BF081EF19F0D2
:102A7000E66E92EC19F06BEC1AF08DEF19F01AEC8F
:102A800079F0E552E5CFCDF7E5CFCCF7E7CFCBF73F
:102A90000701C851CB25F36EC951CC21F46ECA5140
:102AA000CD21F86EF4CFF7FFF3CFF6FF0800120048
:102AB000140DCCEC1BF0460EE9260A0EEA22120099
:102AC00001EC1BF0DBEC1BF011EF1AF0AFEC19F08E
:102AD000DBEC1BF0B5EF19F01AEC79F0E552E5CF1D
:102AE000D0F7E5CFCFF7E7CFCEF70701CB51CE2513
:102AF000C86FCC51CF21C96FCD51D021CA6FC82B1F
:102B0000000EC923CA2387EF1BF0D9CFE6FFE1CF20
:102B1000D9FF1200B2EC77F062EF18F0E66EDADB64
:102B20006BEF1AF0AFEC19F0A0EC1BF0B5EF19F059
:102B3000DADBA7DB04EBE6FF120039EC1BF0EFEC6D
:102B40001BF0F5DBCA51056ECB51066EAAEF1BF0E8
:102B5000DFEC1BF096DB86DB7CEF19F0D8DA7AEF3E
:102B600079F01C51EE261D51EE221E51EE221F510E
:102B7000EE22120017500008000E1854000E1954CF
:102B8000000E1A541200E66A400EE66E1C0EE66E47
:102B9000460EE66E7CEC1AF005EBE6FF06EBE6FF70
:102BA00011EC76F0CBEC79F056EC78F090EC76F016
:102BB000E552E5CF74F0E7CF73F0120053DBE8EC99
:102BC0002CF042E981EF19F007017C0EC86F3B0E33
:102BD000C96F010ECA6F100EFDEF1AF07BDB8EEC91
:102BE0005CF042E9020EE66EBCEC57F041E979EC8C
:102BF0001BF070DB92EF1AF00701DD0ECC6F6D0E4B
:102C0000CD6FCE6BCF6B12000701230ECC6F920EEF
:102C1000CD6FCE69CF69120006500E0DCCEC1BF0C3
:102C20008B0EE9260A0EEA221200E66EE66A30EC06
:102C30002FF042E91200E66A75EC1AF0115D070107
:102C4000C86FEE500A0112590701C96FEE500A0110
:102C500013590701CA6FEE500A0114590701CB6FCF
:102C60001200115D0701CC6FEE500A0112590701E5
:102C7000CD6FEE500A0113590701CE6FEE500A01D5
:102C800014590701CF6FB5EC1BF0E66E120087DB1D
:102C9000400EE66E380EFDEF1AF02F697F0E306F92
:102CA0002FCA22FA236F316B800E326F31CA24FA99
:102CB000256F12007AEC79F0E55246EF19F0E66ED6
:102CC000E0DA6BEF1AF00701C86BC96BCA6BCB6B0C
:102CD000120052CAE6FF53CAE6FF54CAE6FF55CABD
:102CE000E6FF56CAE6FF57CAE6FF58CAE6FF59CACA
:102CF000E6FF10EC78F0E552120010EC78F0D5EC1D
:102D00001BF0B0DADBEC1BF081EF19F003CAD8F747
:102D100004CAD9F7DA6BDB6BD851D45DD06FD951C7
:102D2000D559D16FDA51D659D26FDB51D759D36FFC
:102D30001200DFEC1BF0400EADEF18F07C0ECB6FF5
:102D40003B0ECC6F010ECD6F100EFDEF1AF0E66E4C
:102D5000E66A03CAE6FF04CAE6FF1200E8DB0A0ED1
:102D6000E66EE66A1200D7D9E2DBD880000E1200C8
:102D700076EC77F0E552EAEF1BF003EBCCF704EBCF
:102D8000CDF763EF1AF000EBE9FF01EBEAFFEF503C
:102D900012000701C96FC8C7E6FFE66E88EF1AF098
:102DA000FCC5E6FFFDC5E6FF1200E66EC70EE66E47
:102DB000090EE66EEFEC90F043E9F3CFC8F7F4CFDD
:102DC000C9F70701F350F4101200A7C0E6FFA8C02E
:102DD000E6FFA9C0E6FFAAC0E6FF120003CA05FA93
:102DE00004CA06FA0DCA07FA0ECA08FA1200AD6B39
:102DF000AE6BAF6BB06BB16BB26BB36BB46B1200FD
:102E0000EECFE6FFEECFE6FF1200C9DA040EA5D939
:102E1000640EADEF18F07AEC79F0EFEF1BF0E66E90
:102E2000E66AD880000E0A015255000E5355000E76
:102E30005455000E5555120011CAA7FA12CAA8FA25
:102E400013CAA9FA14CAAAFAB5C0ABFAB6C0ACFA4A
:102E5000120085DAD1EC1BF088D245DAFEEC87F05F
:102E600042E91200E66E8FEC96F043E91200E92683
:102E7000000EEA221200580EE66E91DAE66A280E7B
:102E8000ADEF18F0D0C7E6FFD1C7E6FFD2C7E6FF27
:102E9000120005CAE6FF06CAE6FFE66AE66A120005
:102EA0001C6D1D1F000E1D231E6B1F6B120043E9BE
:102EB000E7CFD9FF120075C0E6FF76C0E6FF12002B
:102EC00073C0E6FF74C0E6FF1200E66A11CAE6FFAF
:102ED00012CAE6FF13CAE6FF14CAE6FF12005FDA61
:102EE00009CAE6FF0ACAE6FFE66AE66A1200E66A6F
:102EF000F1D9EFEC90F043E9F35012004D0E0B01C5
:102F00007B5D1200ABC0E6FFACC0E6FFADC0E6FFE4
:102F1000AEC0E6FF12000A016655000E6755000EAE
:102F20006855000E6955120066CAE6FF67CAE6FFDB
:102F300068CAE6FF69CAE6FF12000A017A55000E68
:102F40007B55000E7C55000E7D5512007ACAE6FFB7
:102F50007BCAE6FF7CCAE6FF7DCAE6FF12000001DD
:102F60001C25016E000E1D21026E01500210120080
:102F70000AEBC8F70BEBC9F70CEBCAF70DEBCBF775
:102F800012007FD9ABEC5CF045E900091200CAC71A
:102F9000FBFFC9C7FAFF0701C851140047E9120037
:102FA00070D9E66A1200990EE66EE70EE66E000E24
:102FB0001200950EE66EE70EE66E000E120042E974
:102FC000F3CFC8F7F4CFC9F7120020CA1CF021CA0A
:102FD0001DF0120044E9E7CFD9FF120042E9E7CF24
:102FE000D9FF1200D1C0E6FFD2C0E6FF120041E9CE
:102FF000E7CFD9FF1200C827000EC9231200E66AE6
:1030000043CAE6FF44CAE6FFE66AE66A120005EB39
:10301000CCF706EBCDF763EF1AF00A01A76BA86BAC
:10302000A96BAA6BAB6BAC6B12000224E96E000EAD
:103030000320EA6EEF503F0812000A012615000136
:103040002C110A01266F1200D89084338333D89054
:10305000843383331200640EE66EE66A320E0A0190
:103060000F2512000701990EC86FE70EC96F000EF9
:1030700012000701950EC86FE70EC96F000E12000F
:1030800000EBC8F701EBC9F7120003500008000E6F
:103090000454120005500008000E065412000D5191
:1030A0000008000E0E551200F350066EF450076E25
:1030B0001200DD0E0701C8276D0EC923000ECA23BA
:1030C0007EEF1BF0E55254EF1BF0FADA0A015E5175
:1030D0000701C8270A015F510701C9230A0160518E
:1030E0000701CA230A0161510701CB230A0172516A
:1030F0000701C8270A0173510701C9230A01745146
:103100000701CA230A0175510701CB2312002DDBE9
:10311000CFC7E6FF120075DA13DBC7EF1BF00BDC3D
:103120000FDB1AEF15F007DC46DB1AEF15F0CC5178
:10313000C827CD51C923CE51CA23CF51CB239FECF1
:1031400014F0B2EF77F0EE50C827EE50C923EE50DE
:10315000CA23EE50D3DA0AEF15F04FDAE66A12000E
:1031600046CAC8F747CAC9F748CACAF749CACBF717
:103170000A015A510701C8270A015B510701C923F7
:103180000A015C510701CA230A015D510701CB23E3
:103190000A016E510701C8270A016F510701C923AF
:1031A0000A0170510701CA230A0171510701CB239B
:1031B000C85112008EDA0A0162510701C8270A01BC
:1031C00063510701C9230A0164510701CA230A0197
:1031D00065510701CB230A0176510701C8270A016F
:1031E00077510701C9230A0178510701CA230A014F
:1031F00079510701CB23C8511200E66AE66A92DAD8
:10320000D0EF16F0C8C7E6FFC9C7E6FF1200050EEB
:103210000701F1DECA23CB239FEC14F0B2EC77F068
:103220009BEC14F03BEC5DF049E912009BEC14F0D0
:10323000B8DA1AEF15F0E50EE66EE80EE66E000E4F
:1032400004EF15F0200E0701C8271C0EC923000E3D
:10325000CA23CB239FEF14F01D0EE66EE90EE66E37
:10326000000E120004EBE6FF05EBE6FF120015EC82
:1032700015F00701DD0EC86F6D0EC96FCA6BCB6B01
:10328000120002EBE6FF03EBE6FF1200E5CFCFF7FB
:10329000E5CFCEF7E5CFCDF7E7CFCCF71200030DA2
:1032A0007BDAEF0EE9260B0EEA22EECFC8F7EECF5F
:1032B000C9F7EFCFCAF73CDC05EBE6FF120004ECE0
:1032C00015F015EF15F015EC15F0100EE66E270E43
:1032D000CBEF14F0000EE66E070EE66E1200A2ECC5
:1032E00058F012EF15F000EBE6FF01EBE6FF1200DD
:1032F00082DECA237EEF1BF0E80EE66E030EFDEFC2
:103300001AF0F350046EF450056E12009BEC14F0AA
:1033100018EC5FF049E91AEF15F0F350086EF4501D
:10332000096E120008EBE6FF09EBE6FF1200070149
:10333000C851036EC951046E1200850EE66EE80E88
:10334000E66E000E1200730EE66EE80EE66E000EDC
:1033500012009D0EE66EE70EE66E000E1200E66E9F
:1033600001EBE6FF02EBE6FF1200F350016EF450B2
:10337000026E1200080EE66EE70EE66E000E18DA18
:1033800060EF17F0100EE66E270EFDEF1AF038DD35
:1033900037DD0AEF15F073EC14F025EF15F0020E8F
:1033A000E66EE66A120085EC15F081E91200A10EC6
:1033B000E66EE70EE66E000E92EC15F060EF17F089
:1033C000E66EE66A620EE66EE70EE66E000E31EF1E
:1033D00015F06ACAE6FF6BCAE6FF6CCAE6FF6DCA63
:1033E000E6FF12007ECAE6FF7FCAE6FF80CAE6FF5C
:1033F00081CAE6FF1200FCC5C8F7FDC5C9F7FEC5C6
:10340000CAF7FFC5CBF71200E4EC15F007EBE6FFB7
:10341000E66AE66A3FEF15F0020E99DCE66AE66AB4
:103420001200C7EF1BF00A01825158EF15F006EBAE
:10343000E6FF07EBE6FF12008AEC15F00701C85122
:103440000326C95104221200180EE66EE90EE66E3C
:10345000000E5FEF16F00BDD0001B1EC15F0E5EFAB
:1034600017F0EA6EB1EC15F02DCA1CF02ECA1DF053
:1034700012000701CB6FCAC7E6FFE66EB8EF16F081
:103480000A010F6B106B206B216B4DEF16F015ECE2
:1034900015F0E80EE66E030ECBEF14F0260EE66E86
:1034A000E80EE66E000E8EEF15F07A0EE66EE70E71
:1034B000E66E000E66EF15F0660EE66EE70EE66E3F
:1034C000000E31EF15F00701CE6BCF6B120085ECCB
:1034D00015F088E91200CBEC5CF045E9120060DCE5
:1034E000FEC5E6FFFFC5E6FF1200150EE96E0A0EE7
:1034F000EA6EEE500A01120003CAE6FF04CAE6FFB4
:103500000FEF76F0E66AE66A6CEC15F0C1EF17F0A3
:1035100076EC77F0E66AE66A1200E3EC14F0070155
:10352000C851120091EC2EF042E9010E1200010E7A
:10353000E66EE66A12001A6EA4EF14F0065058EF19
:1035400015F085EC15F086E9120015EC15F008EB86
:10355000C8F709EBC9F70AEBCAF70BEBCBF7A9DD04
:1035600065DE15EC15F00CEBC8F70DEBC9F70EEBAB
:10357000CAF70FEBCBF79DDD59DE21D904EBC8F775
:1035800005EBC9F706EBCAF707EBCBF7050E07010A
:10359000AFDE16EF19F0CC27000ECD23CE23CF23BC
:1035A000B6DDEFEF1BF015EC15F006EBC8F707EBF7
:1035B000C9F708EBCAF709EBCBF77BDDE80EE66E3F
:1035C000E80EE66E000E7BDEB8EF17F0AFC0E6FF48
:1035D000B0C0E6FFB1C0E6FFB2C0E6FF97DEB5C0FF
:1035E000E6FFB6C0E6FF8FEF18F063DDCC0EE66EA7
:1035F000E80EE66E000E5FEF19F0E66EE66AE66A28
:103600001200E66E11EBE6FF12EBE6FF120047EC4C
:1036100016F033CAC8F734CAC9F735CACAF736CA6A
:10362000CBF722EF19F047EC16F037CAC8F738CAC3
:10363000C9F739CACAF73ACACBF722EF19F00DCA4F
:10364000E6FF0ECAE6FFE66AE66A49DEFCC575F0EB
:10365000FDC576F012002DDD1BEF19F0680EE66E49
:10366000E70EE66E000E8EEC15F04BDE00500110FA
:103670001200CD23000ECE23CF2387EF18F0AEEC3F
:1036800015F020DD07EF19F014DDA70EE66EE80E49
:10369000E66E000E5FEF19F04ADD680EE66EE80E8A
:1036A000E66E000ECBEF19F0E5CFCBF7E5CFCAF70A
:1036B000EAEF1BF09FEC14F08AD8D880000E1200BD
:1036C0004ACAC8F74BCAC9F74CCACAF74DCACBF7A2
:1036D00012004ECAC8F74FCAC9F750CACAF751CA32
:1036E000CBF712009FEC14F02EDE60EC15F063EFC8
:1036F00019F0B8DDF6EC62F042E91200CB239FEC42
:1037000014F010EF78F0E66EE66A8FEF18F07ADDCD
:10371000CAC7E6FF1200FBDC6FEF19F037EC17F0B9
:10372000A3EF18F078EC58F012EF15F095DD31EFBB
:1037300015F0FDDC590EE66EE80EE66E000E120086
:1037400022EC5DF047E912009FEC14F07AEC79F07E
:10375000B2EF77F003EBE6FF85DD06EBE6FF120044
:1037600038EC15F0B7DD92EF1AF0CCC7E6FFCDC705
:10377000E6FFCEC7E6FF12005BEC17F0FDEF18F096
:103780007AEC79F062EF18F0C6DC15EF15F0F35023
:10379000116EF450126E1200F3CFE9FFF4CFEAFF7E
:1037A00012004DEC5DF049E9120056DDE66E1200A4
:1037B000E66E1FEF15F02FEC5EF04BE912000A0EDB
:1037C000ADEF18F063DD050E0701CBEF1AF0ABDCAF
:1037D000CFEF19F0E5CFC9F7E7CFC8F7120010EC2B
:0637E00078F062EF18F022
:0A37E6000A01FA6BFB6B12000A01E6
:1037F000B96B12007F0E0601C85D07E1500EE66E40
:10380000E10EE66E000ECAEF29F00A01010EBA6F52
:10381000050E60EC2BF0440EE66EE10EE66E000E37
:10382000CAEC29F00A0E60EF2BF07F0E0601C85D8E
:1038300003E1B4EC2AF005D03F0EE66EE10EE66E31
:10384000000ECAEF29F07EEC2CF043E87F0E060153
:10385000C85D06E13FEC29F091EC2EF042E95FD023
:103860000A01E9054BE1450E0701055D47E0410E00
:10387000055D44E0610E055D41E0670E055D3EE0DB
:10388000500E055D3BE00551036E060EE66E070E19
:10389000E66E64EC2AF023EC91F044E988EC2BF01E
:1038A000016A026AD890025004E6000E015C040E20
:1038B000025808E270EC2BF0BCEC2BF0012A000E51
:1038C0000222F0D764EC2AF0D5EC2BF064EC2AF05D
:1038D000BCEC2BF0370EE66EE10EE66E000E34EC1B
:1038E0002BF003EB07F7080EE66E070EE66EB0EC62
:1038F00029F064EC2AF025EC8EF046E93FEC29F043
:10390000D5EC2BF03FEC29F034EC2AF092EC2AF0C5
:10391000B0EC29F03FEC29F094EC8EF044E9B4ECE3
:103920002AF0CAEC29F044E9E7CFD9FF12007EEC77
:103930002CF045E8E66A010EE66ED650E66EE66AC1
:1039400014EC2BF0056EE750046ED7500426000EE1
:103950000522016A080E015C0CE20150EA6A720F4E
:10396000E96E0B0EEA22EF500426000E0522012A12
:10397000F1D775EC2BF08DEC8AF042E9016A160E56
:10398000015C11E260EC29F0CCBFCD6904EC2AF0B7
:103990000150EA6ABB0FE96E0A0EEA22E552E750CF
:1039A000EF6E012AECD70A01D16B090EE66EE5EC49
:1039B00029F0BFEC2BF026EC2BF085EC29F026EC5F
:1039C0002BF0160EE66EE66AC0EC2AF0CBEC9AF00D
:1039D0004AE92F0EE66EE10EE66E000ECAEC29F003
:1039E000C0EC2AF091EC2EF042E9DBEC2BF0E9EC94
:1039F00029F094EC8EF044E9DBEC2BF0080EE66E37
:103A0000E5EC29F0CFEC2AF0B4EC2AF0CAEC29F06E
:103A100046E9E7CFD9FF120057EC29F084E942E8E4
:103A2000F9EC2BF0CBEC5BF044E951EC2CF00250BC
:103A3000020A10E0030A03E0010A19E108D04FEC82
:103A40002AF00450EE1802E10550ED1810E09FEC4A
:103A50002BF00DD04FEC2AF00450EE1802E1055087
:103A6000ED1805E0C7DE9FEC2BF0010E026E025050
:103A700065EF2BF0F2EC2BF044E8020EE66EE5EC7D
:103A800029F0C5EC2AF0260EE66EE10EE66E000E79
:103A900045EC2CF0B5EC29F060C0E6FF61C0E6FF14
:103AA00031EC29F00001625148EC2BF00001665125
:103AB0000F0A20E0020A18E0090A10E0060A08E0EE
:103AC000030A1EE11A0EE66EE10EE66E000E1DD030
:103AD000120EE66EE10EE66E000E17D00C0EE66ECC
:103AE000E10EE66E000E11D0030EE66EE10EE66EFC
:103AF000000E0BD0FA0EE66EE00EE66E000E05D05C
:103B0000F10EE66EE00EE66E000E3DEC2AF051EC92
:103B10002CF000016851040A18E0070A10E0020ABC
:103B200008E0010A18E1E70EE66EE00EE66E000E10
:103B300014D0DE0EE66EE00EE66E000E0ED0D70E4E
:103B4000E66EE00EE66E000E08D0CA0EE66EE00EDF
:103B5000E66E000E02D034EC2CF03DEC2AF051EC75
:103B60002CF054EC29F04D0807E173C0E6FF74C057
:103B7000E6FFFDEC2BF00AD073C0E6FF74C0E6FF51
:103B800062EC2CF0FDEC2BF062EC2CF031EC29F027
:103B90000001635148EC2BF064C0E6FF65C0E6FF0E
:103BA00031EC29F00001695148EC2BF000016A5119
:103BB00048EC2BF00001675148EC2BF000016651F6
:103BC00048EC2BF00001685148EC2BF0B7C0C8F767
:103BD0000701C96BC8BFC96931EC2CF0B8C0E6FF5A
:103BE000B9C0E6FF31EC29F0BFC0C8F70701C96BC7
:103BF000C8BFC96931EC2CF088EC2AF073EC2CF0CA
:103C000021EC2CF051EC2CF0D1C0E6FFD2C0E6FF45
:103C100031EC29F00001D4350FE20001D635D65140
:103C20000001D41908E60001D5510001D35D00015F
:103C3000D6510001D45902E3000E01D0010E000953
:103C400005E0D3C0C8F7D4C0C9F704D0D5C0C8F7C1
:103C5000D6C0C9F731EC2CF054EC29F04D0803E143
:103C6000D4EC2AF002D068EC2CF031EC2CF00001FE
:103C7000D95148EC2BF0DCC0C8F70701C96BC8BFAD
:103C8000C96931EC2CF0DFC0E6FFE0C0E6FF31ECA3
:103C900029F0E1C0E6FFE2C0E6FF31EC29F0E4C024
:103CA000E6FFE5C0E6FF31EC29F0D3C0E6FFD4C063
:103CB000E6FF31EC29F0D5C0E6FFD6C0E6FF31ECD7
:103CC00029F054EC29F04D0808E1DAC0C8F7DBC050
:103CD000C9F70701CA6BCB6B06D0DAC0E6FFDBC0C1
:103CE000E6FF69EC2BF031EC2CF0EA0EE66E0A0EE2
:103CF000A9EC29F045E9E7CFD9FF1200F2EC2BF04F
:103D000042E896EC2AF0C30EE66EE00EE66E000E78
:103D10003AEC2CF0DCEC2AF0A7EC2BF088EC2CF041
:103D2000DCEC2AF0B3C0E6FFB4C0E6FF35EC29F0C6
:103D3000B5C0E6FFB6C0E6FF35EC29F00001BA5188
:103D400057EC2BF0BDC0C8F70701C96BC8BFC969E4
:103D50004EEC2CF0EC0EE66E0A0EA9EC29F065EFA5
:103D60002BF0F2EC2BF047E8BC0EE66EE00EE66EB0
:103D7000000E34EC2BF054EC2AF0026A040E025CC4
:103D80005CE222EC2AF0C9354AE2C8510008000E74
:103D9000C95545E2560EE66E0E0EE66E8D0EE66EC7
:103DA0003E0EE66E0250EA6AA10FE96E000EEA22AC
:103DB000EFCFE6FFF2EC75F056EC78F0D3EC76F04E
:103DC000E552E5CFCBF7E5CFCAF7E5CFC9F7E7CFA7
:103DD000C8F70701C851056EC951066ECA51076E72
:103DE000CB51086E69EC2AF0EFEC2AF008EBE6FF05
:103DF000CEEC2BF0CFEC29F021EC2CF054EC2AF097
:103E000022EC2AF0280EC85F000EC95B37EC2BF0BD
:103E100023EC2BF0E2EC2BF034EC2CF005D0B70EB9
:103E2000E66EE00EE66E000EE66ECFEC29F03DEC9D
:103E30002CF054EC2AF0022AA1D7BEC0C8F7070123
:103E4000C96BC8BFC96937EC2BF0CEEC2BF0E2ECA4
:103E50002BF0EE0EE66E0A0EA9EC29F048E9E7CF4A
:103E6000D9FF1200F2EC2BF043E8010E046E020EB3
:103E7000046E73EC2AF0B00EE66EE00EE66E000EF5
:103E800030EC2BF0026EF450036E0F0EF66E000E47
:103E9000F76E000EA0EC29F0100EF66E000EF76E15
:103EA000000EA0EC29F01AEC2AF026EC2BF0F5EC31
:103EB0002BF02CEC2CF00B017C517D117E1104E0D9
:103EC000F3EC2AF083EC29F00450E6EC2BF0E66EDC
:103ED00029EC2CF02CEC2CF0A50EE66EE00EE66E34
:103EE000000EE66E03EC2CF026EC2BF00EEC5DF0F1
:103EF00048E92CEC2CF0810EE66E000E8AEC29F0DD
:103F00000001C35157EC2BF00501F85157EC2BF091
:103F1000CC0EE66E050E8AEC29F0C60EE66E000E9B
:103F20008AEC29F0F00EE66E0A0EA9EC29F044E9BD
:103F3000E7CFD9FF1200F2EC2BF046E800017B51ED
:103F40007C117D117E1105E1046A056A066A076A23
:103F500020D07B0EE96E000EEA6EEE500001775D18
:103F60000701C86FEE50000178590701C96FEE5084
:103F7000000179590701CA6FEE5000017A59070113
:103F8000CB6FC851046EC951056ECA51066ECB5134
:103F9000076E00016B51E66EE66A9E0EE66EE00E5D
:103FA000E66E000E30EC2BF0026EF450036E000152
:103FB0006C5157EC2BF00001705157EC2BF093C073
:103FC000E6FF94C0E6FF35EC29F095C0E6FF96C009
:103FD000E6FF35EC29F097C0E6FF98C0E6FF35EC28
:103FE00029F04D0E0B017B5D08E1A5C0C8F7A6C006
:103FF000C9F70701CA6BCB6B06D0A5C0E6FFA6C008
:10400000E6FF69EC2BF04EEC2CF04D0E0B017B5DC6
:1040100009E1A7C0C8F7A8C0C9F7A9C0CAF7AAC0D4
:10402000CBF70AD0A7C0E6FFA8C0E6FFA9C0E6FF0D
:10403000AAC0E6FF44EC29F09FEC2AF0D4EC29F06A
:104040000001715157EC2BF004EBE6FFEFEC2AF086
:10405000D4EC29F07FC0E6FF80C0E6FF35EC29F004
:1040600000016D5157EC2BF0BCC0C8F70701C96BBC
:10407000C8BFC9694EEC2CF0BBC0C8F70701C96BBB
:10408000C8BFC9694EEC2CF014EC2CF0BAEC29F046
:1040900000016E5157EC2BF069EC2AF0C5C0E6FF29
:1040A000BAEC29F000016F5157EC2BF0F20EE66EDE
:1040B0000A0EA9EC29F047E9E7CFD9FF1200F2EC8C
:1040C0002BF042E8970EE66EE00EE66E000E34EC42
:1040D0002BF02CEC2CF00B017F518011811115E09D
:1040E0007FCBF6FF80CBF7FF81CBF8FF0800F550C0
:1040F0000CE07FCBE6FF80CBE6FF81CBE6FF83ECD5
:1041000029F023EC2BF083EC29F0870EE66EE00E0D
:10411000E66E000EE66E83EC29F0F80EE66E0A0EEF
:10412000A9EC29F065EF2BF057EC29F085E942E87E
:104130003CEC2BF0800EE66EE00EE66E000E3AECE4
:104140002CF0F5EC2BF0F350056EF450066EC5EC38
:104150002AF050EC29F000017151E66EE66A50EC4D
:1041600029F0B3C0E6FFB4C0E6FF50EC29F0B5C0BB
:10417000E6FFB6C0E6FF50EC29F00001BA51E66E4A
:10418000E66A50EC29F0BDC0C8F70701C96BC8BF8B
:10419000C96937EC2BF050EC29F096EC2AF0D9ECF9
:1041A00029F0A7EC2BF0D9EC29F0020404E1F40E7D
:1041B000E66E0A0E03D0F60EE66E0A0EE66E03EB0E
:1041C000E6FF2ADC43E965EF2BF057EC29F083E9A1
:1041D00049E8010E0B6E020E0B6E0050011001E15A
:1041E00035D180EB03F081EB04F0FEEC29F008E020
:1041F000FEEC29F0200804E0032A000E0422F5D783
:10420000FEEC29F0200801E021D1A5EC2AF03CECDD
:104210002BF0C0EC2AF003EC91F044E9000901E135
:1042200015D1090E41EC2AF0BFEC2BF041EC2CF03B
:104230003CEC2BF085EC29F03CEC2BF0CBEC9AF02D
:104240004AE93FEC29F0E9EC29F025EC8EF046E94B
:104250003FEC29F0CFEC29F003EC91F044E90009A0
:1042600001E0F4D03CEC2BF03FEC29F023EC91F092
:1042700044E9C0EC2AF083EC2BF0BFEC2BF041ECCE
:104280002CF0F9EC2BF0CBEC9AF04AE9E9EC29F0B0
:1042900046EC2AF0F5EC99F048E9096A0A6AD890E8
:1042A0000A5004E6000E095C040E0A580AE270EC9B
:1042B0002BF046EC2AF092EC2AF0092A000E0A2292
:1042C000EED7E9EC29F034EC2AF0F5EC99F048E966
:1042D000096A0A6AD8900A5004E6000E095C040EC6
:1042E0000A580AE270EC2BF034EC2AF092EC2AF037
:1042F000092A000E0A22EED70A01010EB96F0A0E32
:1043000041EC2AF005EBE9FF06EBEAFFEF5050081D
:1043100045E10A01E9511FE1096A0A6A160ED890BF
:104320000ABE03D0095C000E0A5813E260EC29F0C3
:10433000CCBFCD6904EC2AF0D20E0924E96E0A0E36
:104340000A20EA6EE552E750EF6E092A000E0A22B3
:10435000E5D70A01E86BE96B780EE66EE00EE66ED3
:10436000000E34EC2BF019EC2BF083EC2BF0FAEC74
:104370001BF091EC2BF00A01010EE96F41EC2AF0E1
:104380000FEC2BF041EC2CF019EC2BF085EC29F024
:1043900019EC2BF0CBEC9AF04AE902D00A01E96B58
:1043A0000501FAAF51D0FA9F73EC2AF0560EE66E73
:1043B000E00EE66E000E30EC2BF0076EF450086E47
:1043C0000F0EF66E000EF76E000E4CEC2BF05CEC50
:1043D00029F0100EF66E000EF76E000E4CEC2BF06E
:1043E0005CEC29F01AEC2AF07AEC2BF0E0EC2AF0E5
:1043F0000B017C517D117E1108E0F3EC2AF07AEC80
:104400002BF03DEC2CF076EC2CF00B50E6EC2BF086
:104410005CEC29F00501F95195EC2BF00501FA51FE
:10442000E66EE66A23EC2BF07AEC2BF0A5EC5DF05F
:1044300047E976EC2CF00501FB5195EC2BF0140EBE
:104440009BEC29F091EC2BF019EC86F04AE9E7CFD0
:10445000D9FF120057EC29F083E942E80A01B9516B
:104460001EE1070EE66EE66A4E0EE66EE00EE66EA2
:10447000000EE66E3CEC2BF04BEC90F047E90009A7
:1044800001E0CFD0070E07010024EEEC29F09DDEFD
:1044900042E90601060ED06F0E0ED16FC2D03FEC7E
:1044A00029F03CEC2BF027EC8FF044E954EC2AF097
:1044B0000501FABF03D00501410EFB6FCFEC29F0D7
:1044C0003FEC29F046EC2AF092EC2AF0050EE66E5D
:1044D000E66A480EE66EE00EE66E000E3AEC2CF050
:1044E0004BEC90F047E9000905E0400EE66ECAEC9F
:1044F0002FF08DD0050E006E070E016E4FEC2AF0E6
:10450000EF50450837E1FAEC2AF04D0833E1020E8E
:104510000026000E0122010EE66E060EE66E18EC75
:104520002CF027EC8FF044E954EC2AF088EC2BF0C7
:10453000036A046AD890045004E6000E035C040E7B
:10454000045808E270EC2BF0BCEC2BF0032A000EB0
:104550000422F0D7CFEC29F0010EE66E060EE66ECF
:10456000BCEC2BF04FEC2AF0EFCF00F6000E006E03
:10457000060E016E0501FABF03D00501420EFB6F66
:104580004FEC2AF0EF50430A44E02B0A37E0320A9E
:1045900011E01B0A46E1410EE66EE00EE66E000EEB
:1045A00034EC2BF00A01BA513CE1FAEC1BF023EC9D
:1045B0001CF01ED0FAEC2AF030081DE00001010EBC
:1045C000C26F0A01BA512DE1FAEC1BF0E66A3AEC2F
:1045D0001DF041E9E66A7EEC1EF041E9E66AB1ECC5
:1045E0001EF041E9E66A3EDC41E9E66AA4DC41E905
:1045F00015EC1CF016D00001C26B13D018EC2CF097
:10460000FEEC87F042E9F3CFE6FF40EC86F041E9AB
:1046100008D018EC2CF007D842E90A01BA5101E1A0
:10462000D2D965EF2BF057EC29F083E942E880EB13
:1046300003F081EB04F0FEEC29F008E0FEEC29F039
:104640002C0804E0032A000E0422F5D7FEEC29F022
:104650002C0802E1A5EC2AF03CEC2BF0FEEC87F0F4
:1046600042E9F3CFFAFAF4CFFBFA03EBFCFA04EBDE
:10467000FDFA65EF2BF07EEC2CF045E8020E60ECC5
:104680002BF00501FABF03D00501430EFB6F310E7D
:104690000A01FA1901E1FB5101E17BD1290EFA1956
:1046A00001E1FB5101E166D1280EFA1901E1FB514C
:1046B00001E13DD1070EFA1901E1FB5101E1DBD027
:1046C000060EFA1901E1FB5101E1D2D0050EFA19EB
:1046D00001E1FB5101E1C3D0040EFA1901E1FB51E4
:1046E00001E181D0030EFA1901E1FB515AE0020EFB
:1046F000FA1901E1FB5122E0010EFA1901E1FB5127
:1047000002E0000E5CD1016A100E015C01E356D19B
:104710000150E66EE66A360EE66EE00EE66E000EBC
:1047200045EC2CF0100E48EC2BF001EC2BF0EF5088
:1047300048EC2BF023EC1CF0012AE6D71EEC2BF002
:1047400054EC29F006E0D2EC2BF003E025EC2CF041
:10475000F7D7D2EC2BF001E07AD00AEC2CF071E222
:10476000100E015C6EE226EC2BF0CAEC2AF0E66E2D
:1047700001EC2BF0E552E750EF6E080E015C09E307
:1047800026EC2BF0080E015C180FE66E8FEC96F00D
:1047900043E90F0E015C02E1E5EC8BF06DEC2AF0D1
:1047A0005BD0016A200E015C01E308D101EBE6FF5A
:1047B000E5EC29F0090E015C03E11CEC2CF0EF6A3A
:1047C0000150E66EE66A2B0EE66EE00EE66E000E17
:1047D00045EC2CF0200E48EC2BF0B5EC29F023EC46
:1047E0001CF0012ADFD71EEC2BF054EC29F006E078
:1047F000D2EC2BF003E025EC2CF0F7D7D2EC2BF029
:1048000026E10AEC2CF01DE2180E015C1AE20150C0
:10481000010803E354EC29F014E026EC2BF001EB43
:10482000E6FF8FEC96F043E96DEC2AF02BEC2BF0D1
:10483000020E015C03E00E0E015C76E1E5EC8BF00C
:1048400073D0B80EE66E390EE66E010E05D08C0EF2
:10485000E66E390EE66E010E2BEC2BF065D06DEC9A
:104860002AF07BEC2CF0040EE66ECAEC2FF0A5D0FB
:10487000C3EC28F059D0C4EC2BF064EC2AF0ECEC3B
:104880005CF044E90001000EFC6F080EFD6F000EA5
:10489000E66EE66AE8EC2CF042E964EC2AF0D60E0B
:1048A000E66E060EE66E8CEC6AF044E9016EFCC022
:1048B000E9FFFDC0EAFFEF6A0001FC6BFD6B54EC01
:1048C0002CF045EC2CF0010ED880015448EC2BF074
:1048D00001502AE0F6EC29F02C0EEF6E000E026E6D
:1048E000080E036E54EC29F01AE054EC29F00A0883
:1048F00004E1F6EC29F00D0E0ED0D2EC2BF004E121
:10490000F6EC29F03B0E07D054EC29F0E66EF6ECFD
:1049100029F0E552E750EF6E25EC2CF0E3D704EBDD
:10492000E9FF05EBEAFFEF6A23EC1CF047D01EEC31
:104930002BF054EC29F006E0D2EC2BF003E025EC50
:104940002CF0F7D7D2EC2BF00DE1A4EC29F0F6EC2B
:1049500062F042E9CFEC2AF03F0EE66EE10EE66E21
:10496000000E1ED0FAEC1BF08C0EE66E390EE66ED1
:10497000010E1DD01F0EE66EE00EE66E000ECAECB4
:1049800029F0E2EC2AF0190EE66EE00EE66E000E5B
:1049900007D0E2EC2AF0170EE66EE00EE66E000E8F
:1049A000CAEC29F0050E9BEC29F06DEC2AF07BECAB
:1049B0002CF0020EE66EBCEC57F041E9010E46E920
:1049C000E7CFD9FF12000501FABF03D00501440E5D
:1049D000FB6F020E60EC2BF0280E0A01D890FBBF93
:1049E00003D0FA5D000EFB5907E3FB3507E2FA51ED
:1049F0003108000EFB5502E2FAEC1BF00B01A3514B
:104A0000A411A5110FE0C4EC2BF059EC2AF0010E13
:104A1000E66EA5CBFBFFA4CBFAFFA351140045E93A
:104A200000090AE128DE000907E1270EE66E3A0ECA
:104A3000E66E010E7BEC2CF015EC1CF00A01FA6B13
:104A4000FB6BFCCAE9FFFDCAEAFFEF6A120057ECF4
:104A500029F085E90A01B9512DE0BA5100082AE38D
:104A60000501FABF03D00501450EFB6F020E9BEC5A
:104A700029F05BEC2CF0040EE66EE00EE66E000E04
:104A80000FEC2CF026EC2BF083EC2BF0FB0EE66EFB
:104A9000DF0EE66E000E0FEC2CF09B0E0024E96E8C
:104AA000000E0120EA6EEF6A3CEC2BF083EC2BF059
:104AB00091EC2BF041E9E7CFD9FF120057EC29F038
:104AC00084E944E8066A076A0A01B95101E17BD02A
:104AD0000150021001E177D0005075E00050E66E01
:104AE000E66A220EE66EB0EC29F02DEC90F045E976
:104AF000F350066EF450076E065007102FE0062A9A
:104B0000000E0722070108EC2BF0C851005E86EB6F
:104B100001F087EB02F07EEC2AF0EF501CE07EEC17
:104B20002AF0EF50220817E008EC2BF00050D89044
:104B3000C9BF03D0C85D000EC9590DE27EEC2AF052
:104B4000EF502C0804E17EEC2AF02E0EEF6E062AC0
:104B5000000E0722E0D77EEC2AF0EF6A290EE66EFF
:104B6000E66A530EE66EE10EE66E000E45EC2CF0A2
:104B7000065007100CE0F4DBF70EE66EDF0EE66E73
:104B8000000EE66E75EC2BF0F5EC2BF007D0E00E86
:104B9000E66EDF0EE66E000E3DEC2AF051EC2CF0D6
:104BA0000A01BA51000805E2140E60EC2BF0046A09
:104BB000056AFAEC1BF091EC2BF00450051003E1B0
:104BC000140E60EC2BF045E9E7CFD9FF12006FDB44
:104BD00083E94CE800017551036E7651046E0001C3
:104BE0007351056E7451066E0001A751076EA851EE
:104BF000086EA951096EAA510A6EDC0E0B6EDF0E0B
:104C00000C6E000E0D6E4B0E0B017B5D23E1C7DBBE
:104C100069EC2BF00701C851036EC951046E43ECD7
:104C20002BF069EC2BF00701C851056EC951066ED7
:104C3000AEEC2AF029DB0701C851076EC951086E96
:104C4000CA51096ECB510A6ED80E0B6EDF0E0C6E78
:104C5000000E0D6E0001DC3533E297C0E6FF98C010
:104C6000E6FFCD0EE66EDF0EE66E000E01DBDFC066
:104C7000E6FFE0C0E6FFCA0EE66EDF0EE66E000E4F
:104C8000F7DADCC0C8F70701C96BC8BFC96937ECE0
:104C90002BF0C60EE66EDF0EE66E000EE9DAE1C01E
:104CA000E6FFE2C0E6FFBD0EE66EDF0EE66E000E2A
:104CB000DFDAB00EE66EDF0EE66E000EE66EDCDAD0
:104CC00000016BA5B6D0010E0E6E00016851040AFA
:104CD00018E0070A10E0020A08E0010A19E1A40E30
:104CE000E66EDF0EE66E000E11D0990EE66EDF0E58
:104CF000E66E000E0BD0900EE66EDF0EE66E000E36
:104D000005D0810EE66EDF0EE66E000EE66EB4DABA
:104D1000000166510F0A20E0020A18E0090A10E0BB
:104D2000060A08E0030A20E1780EE66EDF0EE66E62
:104D3000000E17D0620EE66EDF0EE66E000E11D08A
:104D4000540EE66EDF0EE66E000E13D04A0EE66ECF
:104D5000DF0EE66E000E05D0380EE66EDF0EE66E54
:104D6000000E81EC2CF008D0270EE66EDF0EE66E0A
:104D7000000E81EC2CF00E6A0E5062E060C0E6FF7F
:104D800061C0E6FF48EC2CF073DA00016251E66E78
:104D9000E66A210EE66EDF0EE66E000E69DA1F0E81
:104DA000E66EDF0EE66E000E81EC2CF00001D235CF
:104DB0000BE2D1C0E6FFD2C0E6FF160EE66EDF0EB4
:104DC000E66E000EEEEC2BF00001D951000811E266
:104DD000D951E66EE66A48EC2CF04ADAD5C0E6FF17
:104DE000D6C0E6FF0C0EE66EDF0EE66E000EEEECB1
:104DF0002BF00001D7510008000ED85521E24B0ED0
:104E00000B017B5D03E168EC2CF001D0CDDB37ECCE
:104E10002BF048EC2CF06DEC2BF0D3C0E6FFD4C0A7
:104E2000E6FF090EE66EDF0EE66E000E21DAA2DB6B
:104E300005D0FC0EE66EDE0EE66E000EE66E1CDAA7
:104E4000A4DBF40EE66EDE0EE66E000E11DAF20E54
:104E5000E66EDE0EE66E000E81EC2CF005500610BC
:104E600009E043EC2BF0E20EE66EDE0EE66E000E7D
:104E70006DEC2BF00350041008E091DAD30EE66ECF
:104E8000DE0EE66E000E6DEC2BF0075008100910D8
:104E90000A100AE01EDB62DBCB0EE66EDE0EE66E6B
:104EA000000E0CDB6EEC2CF00001CF51D01107E0AE
:104EB0002FDBC30EE66EDE0EE66E000EFFDA00EBB1
:104EC000F3FF01EBF4FF4DE9E7CFD9FF1200EFD973
:104ED00085E95BE800017351056E7451066E076A3F
:104EE000086A096A0A6A0001CF510B6ED0510C6E34
:104EF000000160510D6E61510E6E000163510F6E25
:104F0000106A00017F51116E8051126E00016851CC
:104F1000136E146A156A166A0B01AC51AD11AE110D
:104F200009E1B10EE66EDE0EE66E000EE66E8BEC6B
:104F30002CF025D10050011001E180D09DDB44EC24
:104F400091F042E9F3501B6EF4501C6E95DB32EC8D
:104F500092F042E91C3469E21B500008000E1C5418
:104F600064E207010BDAEF501F6E08DAEF6A1C34B7
:104F70004AE21B500108000E1C5445E27DDB0ADBAF
:104F80001D6EF4501E6E1F50440A38E0070A2AE0D6
:104F9000020A23E0170A1CE0010A15E0720A0EE07B
:104FA000600A07E0160A3DE19DEB05F09EEB06F076
:104FB00038D09DEB07F09EEB08F033D09DEB09F065
:104FC0009EEB0AF02ED09DEB15F09EEB16F029D04B
:104FD0009DEB0DF09EEB0EF024D09DEB0FF09EEBC1
:104FE00010F01FD0640EE66EE66A1DEBE6FF1EEBC6
:104FF000E6FF1ADB0C6EE7500B6E13D09DEB11F041
:105000009EEB12F00ED01F50500A08E0020A04E096
:10501000010A07E1136A04D0030E01D0040E136ED7
:10502000146A0701ABD91FEBEFFF26DBD1EC64F06C
:1050300042E9F350006EF450016E7CD70E3418E252
:105040000D500008000E0E5413E2103411E20F5000
:105050000008000E10540CE20FEBE6FF10EBE6FF29
:105060000DEBE6FF0EEBE6FFDFDA166EE750156E8E
:10507000D890165004E6E80E155C030E165806E2AA
:10508000980EE66EDE0EE66E000E66D0D950170F53
:10509000E66EDACFE6FF11EBE6FF35DA09EBE6FF65
:1050A0000AEBE6FF27DBEFDA15EBE6FF16EBE6FF90
:1050B00013EBE6FFAECBFBFFADCBFAFF0B01AC5120
:1050C00014004EE9F350196EF4501A6EDCDAC9D9A7
:1050D00017EBE6FF18EBE6FF930EE66EDE0EE66ECC
:1050E000000EE66EB6DBB8DB880EE66EDE0EE66E10
:1050F000000EE66E08D91A3424E269DA2EEC77F055
:10510000B0D9300EE66E020EE66EE66A60DA31EC79
:1051100077F0E552E5CFC9F7E7CFC8F70701CA6BCB
:10512000CB6BC9AF02D0CA69CB6909DA860EE66ECD
:10513000DE0EE66E000EE66E89DAF3EC5DF04CE909
:1051400019D0FD0E19180BE1FF0E1A1808E1770EA1
:10515000E66EDE0EE66E000EE66EDDDB0BD019EBC2
:10516000E6FF1AEBE6FF6F0EE66EDE0EE66E000E51
:10517000E66E6FDB71DB02EBF3FF03EBF4FF5CE940
:10518000E7CFD9FF1200BADB42E8020E99DA93DBCF
:105190004CD9E6D81CDD42E998D28DDA4D0EE66E88
:1051A000DE0EE66E000E60DAC9D085DA220EE66EFB
:1051B000DE0EE66E000E58DAC1D07DDAE6D9F20EC8
:1051C000E66EDD0EE66E000E55DB9EDB2ED9EB0E95
:1051D000E66EDD0EE66E000EADD26DDA0B017AA33F
:1051E00008D022DBDBDAC40EE66EDD0EE66E000EC2
:1051F00007D01ADBD3DAAC0EE66EDD0EE66E000EDB
:1052000039DB1FDB12D965D9C5C0E6FFC7DAA40EAA
:10521000E66EDD0EE66E000EE66EA2D812DB05D954
:10522000A10EE66EDD0EE66E000E84D240D887E950
:1052300042E8020E80D8CC0EE66E050EE66E990EA0
:10524000E66EDD0EE66E000E15DBBAD94EDAE66AC2
:10525000E66AB5D800EBE6FF83D803EBE6FFAFD8EC
:105260006DD041DB51DB51EF2CF0EDD9F2DA09D2F0
:10527000E66E02DA49DB74D2FFD9FFDA71D2000E92
:10528000E66E070EE66E120078EC58F044E9FCC5B5
:10529000C8F7FDC5C9F7FEC5CAF7FFC5CBF71200B1
:1052A000D2D9F1D931DB61D2C7DAEF501200D9CFB0
:1052B000E6FFE1CFD9FF1200E66E1CDA25DB5AD2F9
:1052C0000701C80EC86F3A0EC96F010ECA6F400EB3
:1052D000E66EE66ACCD9CAC7E6FF94EC8AF0E552DE
:1052E000E7CFCAF7E552E7CFC9F7E552E7CFC8F7EE
:1052F00050DA31EC77F0E552E5CFCCF7E7CFCBF7DA
:105300000701CD6B120007DBBCD144EC91F042E900
:10531000C9EF2BF0E66EFCDA68DAB3D1F5DA39DAE8
:105320003DEF2CF0000EE66E030EE66EFC0EE66E10
:10533000040EE66E1200C4D9FAEF1BF0F2D9C5D103
:10534000ABD9E66E86DA9DD177DA7FDAEF6AC4EF01
:105350002BF0E66E00EBE6FF0CEC1DF043E91200CB
:1053600001EBE6FF02EBE6FF120070D9BCDA3DDA92
:1053700051EF2CF013DACCDA64DA83D11B04C86F56
:10538000000E1C58C96FC8510024E96EC951012094
:10539000EA6E1200E66E2FEC2EF043E9120003EBEA
:1053A000E6FF04EBE6FF1200B3DA4DEC5DF049E9ED
:1053B00068D149D968D918EC5FF049E9D6D143D909
:1053C00099D94DEC5DF049E9D5D17CEC96F041E9F5
:1053D00058D1100EE66EE66ABFEF2BF0C86F000ED4
:1053E0000120C96FC8C7E6FFE66E120004EBE9FFB3
:1053F00005EBEAFF042A000E0522120003EBE9FF89
:1054000004EBEAFFEF501200C851CB25F36EC951EF
:10541000CC21F46ECA51CD21F86EF4CFF7FFF3CF53
:10542000F6FF0800F550E66E1200F350016EF450DE
:10543000026E12000E0EE66E7CEC96F041E9A9D9E0
:1054400003EF2CF0EA6A0234FE0BE96EEA36990E9D
:10545000E926000EEA22EECFC8F7EFCFC9F7070121
:1054600012009CD9F6D90DD1000EE66E010EE66E43
:10547000F80EE66E040EE66E1200E66E36D93DEFCB
:105480002CF0E66E7CEC96F041E96FD1000EE66EF2
:10549000020EE66EFA0EE66E040EE66E120000EBE9
:1054A000E9FF01EBEAFF1200F350036EF450046EC3
:1054B0001200FACAE6FFFBCAE6FF1200E66EDCD86D
:1054C00085EC5EF04BE94CD1000EE66E060EE66E02
:1054D0001200010EE66EE66A1200890EE66E390EC3
:1054E000E66E010E12000E0EF66E000EF76E000E46
:1054F000F86E0800F550E66EE66A120006EBE9FF6A
:1055000007EBEAFF12000BEBE6FF0CEBE6FF1200E5
:10551000020EE66EE66ACFC0E6FFD0C0E6FFE66A9E
:10552000E66A120062EC9AF048E91200ABC0E6FFAE
:10553000ACC0E6FFADC0E6FFAEC0E6FF120097D8F4
:10554000CAC7E6FFCBC7E6FF120003EBE9FF04EB97
:10555000EAFF032A000E0422EF6A1200CBD809EBFF
:10556000E6FF0AEBE6FF1200410EE66EE10EE66E84
:10557000000E1200100EE66EDF0EE66E000E120038
:10558000BB0EE66E0A0EE66E120000017251E66E68
:10559000E66A1200FEEC87F042E9F350120056D89A
:1055A00091EC2EF042E91200D7C0C8F7D8C0C9F775
:1055B0000701CA6BCB6B120018EC5FF049E961D0B0
:1055C00014D9D8D0E1D891EC2EF042E912003C0E6B
:1055D000E66EE66A19EBE6FF1AEBE6FF120053D817
:1055E00007EBE6FF12007CCBE6FF7DCBE6FF7ECB30
:1055F000E6FF12000028E96E000E0120EA6EEF506F
:1056000012000150EA6AE90FE96E050EEA22120063
:105610000150065CC86F02500758C96F1200E80EAF
:10562000E66E040EE66E1200E6EC78F0E552E55008
:105630001200D20EE66E0A0EE66E1200FC51026EE9
:10564000FD51036E120010D9E66E120002EBE6FF68
:1056500003EBE6FF1200E66E27D90CD98EEF29F096
:1056600009D952D9F350120005D93DEF2CF0C8C723
:10567000E6FFC9C7E6FF120000EBE6FF01EBE6FF1D
:1056800012002CEF2CF005EBE6FF06EBE6FF120014
:10569000E66EE66A31EF29F0F86E0800F550E66E26
:1056A000E66AAE0EE66EE00EE66E000E1200E66EE4
:1056B000E66A35EF29F022D942E8020E9BEF29F085
:1056C000E66EBCEC57F041E9120043E9E7CFD9FFA1
:1056D0001200E66AE66A44EF29F0CADD6EEF2CF0AC
:1056E0000701006BF6DE3FEF29F004EBE6FF05EB68
:1056F000E6FF120007EBE6FF08EBE6FF1200046E80
:10570000F450056E1200BBDDAFEC90F044E91200DE
:10571000100EE66EE66A83DF05DEF5EC99F048E9E7
:10572000120023EC1CF015EF1CF0E66EE66A9CD824
:105730005CEF29F0E66E14DEA0D877DEFFD523EC0F
:105740001CF0ADDE04EBEEFF05EBEDFF1200AFC089
:10575000E6FFB0C0E6FFB1C0E6FFB2C0E6FF120050
:10576000F350006EF450016E1200F350056EF450C9
:10577000066E120076EF2CF0D5DD92EF2AF0D80EEF
:10578000E66E040EE66E1200FCCAE6FFFDCAE6FFF6
:105790001200F3CFE6FFF4CFE6FF1200E66AE66AF6
:1057A000E66A120081DD2C08120044EC91F042E917
:1057B0003CDEB0EF29F02D0EE66EE10EE66E000E37
:1057C000CAEF29F0ECDDA0D854EF2AF0E66EE66AC5
:1057D000A90EE66EE00EE66E000E120049DDCADE8E
:1057E00081EF2CF064DD82E9120002EC5DF047E904
:1057F000120045DD8ADD3FEF29F033DD75C0E6FF9D
:1058000076C0E6FF1200AC0EE66EE00EE66E000E0D
:10581000E66E120099DDBEDE016ED89012002AD825
:10582000D3EC90F045E9120054DEC4C0E6FF12004C
:1058300007010028EEEF29F002EBE9FF03EBEAFF96
:1058400012002FEC5EF04BE91200022A000E032238
:105850001200FCDE84EF2CF0F350026EF450036E65
:10586000120005DF31EF29F0240EE66EE10EE66E40
:10587000000E1200E66E3FEF29F0CBEC5CF045E93C
:10588000120001DF42DD43EF2BF0EADE7FEF2BF069
:10589000240EE66EDF0EE66E000E1200E8DE35EF37
:1058A00029F0F3507FEF2BF004DE820EE66E390E06
:1058B000E66E010E12000F0EE66EE00EE66E000EB2
:1058C00034EF2BF006DFFCC5E6FFFDC5E6FF120056
:1058D000D7C0E6FFD8C0E6FF69EF2BF014DE0DEB72
:1058E000E6FF3CEF29F0AFDE75EF2BF0F350076ECB
:1058F000F450086E1200AFDE23EF1CF0D8DC81E913
:105900001200E66E3CEF29F022EC5DF047E9120050
:0C5910009ADE26EF2BF09ADE3DEF2CF023
:04591C00D8CFE4FFFD
:10592000E0CFE4FFE46EDACFE4FFE2CFDAFFE9CFC5
:10593000E4FFEACFE4FFD9CFE4FFDACFE4FFFCC510
:10594000E4FFFDC5E4FFFEC5E4FFFFC5E4FFF6CFBD
:10595000E4FFF7CFE4FFF8CFE4FFF5CFE4FFF3CFA8
:10596000E4FFF4CFE4FFFACFE4FFFBCFE4FFE6521D
:105970009DEC98F071EC97F0E552E5CFFBFFE5CF99
:10598000FAFFE5CFF4FFE5CFF3FFE5CFF5FFE5CF75
:10599000F8FFE5CFF7FFE5CFF6FFE5CFFFF5E5CF61
:1059A000FEF5E5CFFDF5E5CFFCF5E5CFDAFFE5CF78
:1059B000D9FFE5CFEAFFE5CFE9FFE5CFDAFFE55014
:1059C000E5CFE0FFE5CFD8FF10000901009B1200F2
:1059D000D6EC3AF083E90050011003E0F0EC3AF025
:1059E00010E1E66AE3EC3AF027EC3BF023EC91F0AF
:1059F00044E90701D60EC86F060EC8C7F3FFF46E60
:105A000004D000EBF3FF01EBF4FFD4EF3BF08FEC9D
:105A10003CF041E80501FABF03D00501300EFB6FF1
:105A2000D950010FE66EDACFE6FF6CEC98F042E950
:105A3000000901E112D1FF0E0601EB5D01E0BED0CD
:105A4000C85103E07F0EC85D22E10A0E015CE8E068
:105A50000D0E015C03E10A0E016E19D0080E015C07
:105A600006E1EA51000803E26DEC3CF0D9D70104ED
:105A700003E0030E015C0BE1EA6B0801006B960E7C
:105A8000E66EDD0EE66E000ED1EC3AF0C9D70D0ED3
:105A9000015CC6E036EC3CF05CEC3BF004E1C95143
:105AA00002E10601EA073A0E015C25E1060E060155
