:020000040000FA
:060000000FEF8EF012006C
:020006001200E6
:060008002FEF61F0120071
:02000E000301EC
:0100100001EE
:020011000100EC
:020013000000EB
:0600180046EF00F01200AB
:02001E000900D7
:10002000CE1D0100C807000021000000C71D01000F
:10003000EF08000007000000BB1D0100EF000000FA
:100040000C000000861D0100C806000035000000FD
:10005000411D0100000B000045000000D51C0100FF
:10006000000A00006C000000461C01006000000057
:100070008F00000013000000FE05000002000000D9
:0C00800011000000FE040000020000005F
:04008C00D8CFE4FFE6
:10009000E0CFE4FFE46EDACFE4FFE2CFDAFFE9CFAE
:1000A000E4FFEACFE4FFD9CFE4FFDACFE4FFFBC7F8
:1000B000E4FFFCC7E4FFFDC7E4FFFEC7E4FFF6CFA3
:1000C000E4FFF7CFE4FFF8CFE4FFF5CFE4FFF3CF91
:1000D000E4FFF4CFE4FFFACFE4FFFBCFE4FFE65206
:1000E00082EC88F056EC87F0E552E5CFFBFFE5CFD8
:1000F000FAFFE5CFF4FFE5CFF3FFE5CFF5FFE5CF5E
:10010000F8FFE5CFF7FFE5CFF6FFE5CFFEF7E5CF48
:10011000FDF7E5CFFCF7E5CFFBF7E5CFDAFFE5CF5D
:10012000D9FFE5CFEAFFE5CFE9FFE5CFDAFFE550FC
:10013000E5CFE0FFE5CFD8FF10000901009B1200DA
:10014000DAEC0FF083E90050011003E0E4EC0FF06B
:1001500010E1E66AEDEC0FF07AEC10F0E8EC80F0DC
:1001600044E90501D60ECC6F060ECCC5F3FFF46E44
:1001700004D000EBF3FF01EBF4FFBAEF10F097ECC3
:1001800011F041E80B01C3BF03D00B01300EC46F67
:10019000D950010FE66EDACFE6FF51EC88F042E964
:1001A000000901E118D17FEC10F001E0C3D0C85183
:1001B00003E07F0EC85D21E10A0E015CE9E00D0E4F
:1001C000015C03E10A0E016E18D0080E015C07E124
:1001D000EA510008DDE2EA0760EC11F0D9D701042A
:1001E00003E0030E015C09E1EA6BF00EE66EB50E6A
:1001F000E66E000EDFEC0FF0CBD70D0E015CC8E011
:1002000053EC11F073EC10F004E1CD5102E1060162
:10021000EA073A0E015C2AE1060E0601EA5D26E3D2
:10022000DCEC10F023E1490E015D20E1500E025D8F
:100230001DE1440E035D1AE109010051100B16E1A6
:100240000B01C3BF03D00B01310EC46F0601EA05D9
:10025000CFEC0FF0EF6A050EE66E080EE66EE8ECE6
:1002600010F03C0EED6FEA6BFD0E62D00A0E015CE1
:100270008FE10B01C3BF03D00B01320EC46F060127
:10028000EA0760EC11F0040EEA5D01E27BD0DCECE1
:1002900010F001E077D0430E015D74E14D0E025D78
:1002A00071E1540E035D6EE109010051100B6AE12A
:1002B000070E016E0150CFEC0FF0EF50220806E060
:1002C0000601EA51015C02E2012AF4D70150CFECA9
:1002D0000FF0EF6A140EE66EE66A070EE66E080E81
:1002E000E66E7AEC10F080EC81F046E90601E96BED
:1002F000EA51016E0150CFEC0FF0EF502C0804E0F2
:10030000015002E00106F6D701500501CD6B000F48
:10031000CC6F080ECD23CC2B000ECD23CCC5E6FF31
:10032000CDC5E6FFE8EC10F00A0EED6FEA6BFE0EAD
:10033000EB6F2ED7FE0EEB5D29E10B01C3BF03D09F
:100340000B01330EC46F0D0E015C03E00A0E015C5D
:1003500008E10601EA51EA2BCFEC0FF0200EEF6E18
:1003600003D0060153EC11F073EC10F004E1CD5111
:1003700002E10601EA070601EC07EC5101E008D7AB
:1003800060EC11F0CAEC05F0060122D00B01C3BFEE
:1003900003D00B01340EC46F0D0E015C0AE00601A0
:1003A00053EC11F073EC10F004E1CD5102E10601C1
:1003B000EA070601EC070A0E015C07E1EA0760ECB8
:1003C00011F0CAEC05F00601EA6BEC5101E0E0D651
:1003D000EA6BEB69DDD6060160EC11F0BEEF10F0C0
:1003E00097EC11F042E8090100B305D000A3FED755
:1003F000050EFDEC10F0016A0901C451026E0A0EEF
:10040000015C0AE2B8EC3DF002500901C45D02E073
:10041000016AF3D7012AF1D702EF11F097EC11F03E
:1004200044E8880E036E130E046E800EE66EE66AD4
:100430007E0EF5EC0FF0016E800EE66EE66A7F0E22
:10044000F5EC0FF0026E3E0E015C05E1200E025C41
:1004500002E1010E22D0450E015C05E1520E025C64
:1004600002E1000E1AD0010EE66EEFEC8DF041E9CC
:100470000306000E045A03EBCCF504EBCDF50501A1
:10048000CC51CD11D2E10601D4510108000ED55551
:1004900003E2D407000ED55B000E45E9E7CFD9FF94
:1004A0001200DAEC0FF084E941E80501FC51FD117E
:1004B0000FE09AEC11F001E17ED006EC11F001E3BF
:1004C0007AD09AEC11F0A4EC11F091EC10F0F1D785
:1004D0007F0E0601C85D61E1046A9AEC11F00A081A
:1004E0000BE10D0E045C08E0090100B1FDD70D0E13
:1004F000D8EC0FF020E1FBD70D0E045C1CE19AEC68
:1005000011F00A0818E0090100B1FDD70A0ED8EC75
:100510000FF0FCE00B0101510EE0090100B1FDD725
:10052000230ED8EC0FF0FCE0090100B1FDD7200E3E
:10053000D8EC0FF0FCE09AEC11F03DE0090100B1BD
:10054000FDD7C7EC0FF0EFEC10F0FBE00B01015111
:1005500012E09AEC11F00A080EE1090100B1FDD792
:10056000230ED8EC0FF0FCE0090100B1FDD7200EFE
:10057000D8EC0FF0FCE0D9CFE9FFDACFEAFFEFCFFC
:10058000F6FFEE2AEFCFF7FF000EEE22EFCFF8FFD7
:10059000EE220800F550046EA0D79AEC11F00BE0A3
:1005A000090100B1FDD7C7EC0FF0EFEC10F0FBE054
:1005B00091EC10F0F2D7BEEF10F0DAEC0FF083E917
:1005C00041E80501FC51FD110FE0E4EC0FF001E101
:1005D00071D006EC11F06EE2E4EC0FF0A4EC11F037
:1005E000002A000E0122F1D77F0E0601C85D55E1F9
:1005F000036AE4EC0FF00A080BE10D0E035C08E05F
:10060000090100B1FDD70D0ED8EC0FF020E1FBD7AA
:100610000D0E035C1CE1E4EC0FF00A0818E0090180
:1006200000B1FDD70A0ED8EC0FF0FCE00B01015130
:100630000EE0090100B1FDD7230ED8EC0FF0FCE06D
:10064000090100B1FDD7200ED8EC0FF0FCE0E4EC7E
:100650000FF030E0090100B1FDD761EC10F0FDE0D2
:100660000B01015112E0E4EC0FF00A080EE1090160
:1006700000B1FDD7230ED8EC0FF0FCE0090100B16A
:10068000FDD7200ED8EC0FF0FCE0BFEC11F0002AF3
:10069000000E0122EF50036EACD7E4EC0FF00AE03D
:1006A000090100B1FDD761EC10F0FDE0002A000E59
:1006B0000122F3D7BEEF10F0DAEC0FF082E905016A
:1006C000FC51FD1108E006EC11F00FE247EC10F0D0
:1006D00000EBEFFF0AD0090100B1FDD700EBE6FF08
:1006E00027EC88F041E90009F9E0BAEF10F0DAEC04
:1006F0000FF087E9045005101FE00601F7510418B8
:1007000002E1F851051814E0080E0B01C01510E1C4
:1007100004EBF1F605EBF2F600EBF3F601EBF4F681
:1007200002EBF5F603EBF6F604EBF7F605EBF8F65D
:1007300006013C0EF96F05D0C2EC10F0F76BF86BB8
:10074000F96BBAEF10F0DAEC0FF083E942E8030E30
:10075000E66E92EC11F0036EF450046EEC0EE66E51
:10076000B50EE66E000E1FEC10F00AE000EBCDF5C2
:10077000CC6BCC510601FA130501CD510601FB13D8
:10078000E90EE66EB50EE66E000E1FEC10F005E009
:1007900006010050FA130150FB1302EF11F0DAECDE
:1007A0000FF083E946E859EC11F000EBE6FF01EBAE
:1007B000E6FFAAEC11F05BE0D5EC0FF0B4EC10F022
:1007C00056E09DEC11F053E09DEC11F050E005EB8C
:1007D000E9FF06EBEAFFEF504F0849E10528E96E13
:1007E000000E0620EA6EEF502D0841E1F2EC10F009
:1007F000020E05010524CC6F000E0620CD6FCCC57E
:10080000E6FFE66EAAEC11F032E0F2EC10F044ECF8
:1008100011F0056EF450066E83EC10F092EC11F0BE
:10082000076EF450086E055006100BE107EBE9FF68
:1008300008EBEAFFEF501BE0E40EE66EB50EE66E45
:1008400011D005EBE6FF06EBE6FF07EBE6FF08EB52
:10085000E6FFB2EC80F044E9000909E005EBE6FFB1
:1008600006EBE6FF83EC10F073EC86F043E947E912
:10087000E7CFD9FF1200DAEC0FF082E942E800EB93
:10088000C8F60601C851240A01E176D1070A01E140
:1008900068D1010A01E15FD1030A01E12FD1010A08
:1008A00001E116D1600A01E1F5D0030A01E1D3D0DC
:1008B000010A01E1A9D0030A01E193D0530A01E141
:1008C00080D0030A73E0010A5EE0160A4EE0030AD4
:1008D00041E0010A38E0070A28E0010A24E0030A9F
:1008E00014E07E0A0FE07F0A01E052D13C0ED46F83
:1008F000D56B36EC10F00601010ECD6F0A0ECE6FEF
:10090000CF6B46D19FEC69F043D10A0EA9EC0FF0F2
:100910000601030ECD6F140ECE6FCF6B0001CA6BB4
:10092000E5EC11F035D1CD6B33D136EC10F0F2ECB3
:100930003DF0F2EC3DF00601020ECD6F4FEC10F0F1
:100940000601CC6B25D1050ECD6F030E4FEC10F0D8
:100950000A0EB3D0060ECD6F020ECE6FCF6BC96BF1
:10096000F2EC3DF0F2EC3DF013D1E66A21EC11F02F
:1009700027EC11F00B01C3BF03D00B01F00EC46FC5
:10098000B6EC3DF005D1090EA9EC0FF0CAEC10F061
:10099000EEA106D0B60EE66E160EE66E010ED8D0AB
:1009A000C20EE66E160EE66E010ED2D0080EA9EC4F
:1009B0000FF0CAEC10F0CE0EE66E160EE66E010ECB
:1009C000C7D0070EA9EC0FF00601030ECD6F230E62
:1009D000CE6FCF6BC96BE90EE66E160EE66E010E9A
:1009E000B7D0050EC9EC11F09AEC10F006E2070E34
:1009F0001CEC10F00601400E05D0080E1CEC10F0A7
:100A00000601020ECD6F14D0050EC9EC11F0CB0E0D
:100A1000E66EB50EE66E000EDFEC0FF0090E1CEC74
:100A200010F09AEC10F002E2430E01D0020ECD6FEE
:100A3000CAC6CEF6CBC6CFF60A0ED880CE57000E69
:100A4000CF57050ECF03F3CFCFF6CE03F3CFCEF6BD
:100A5000F450CF279DD0050EA9EC0FF02FEC10F02D
:100A60000601020ECD6F3C0ECE6FCF6B070EC96F25
:100A70000001CA6BECEC11F0020E56EC10F0B30E54
:100A8000E66EB50EE66E000EDFEC0FF00601400ECE
:100A9000C86F7ED0050EA9EC0FF02FEC10F03CECE7
:100AA00010F013E0D5EC8BF000090FE00601020E08
:100AB000CD6F3C0E4FEC10F0020E56EC10F0D80E3D
:100AC000E66EB50EE66E000E43D00601200EC86F2E
:100AD000020EA9EC0FF00B01016B0601CD6BC96B87
:100AE0000001C80507E0050EC85D04E0780E0601A8
:100AF000D26F02D00601D26BD36B4AD0060EA9EC9E
:100B00000FF0020E56EC10F00601030ECD6F780EBA
:100B1000CE6FCF6BECEC11F00D0E3CEC10F006E15B
:100B2000460EE66E170EE66E010E12D0A50EE66EAC
:100B3000B50EE66E000EDFEC0FF002EBE6FF03EB06
:100B4000E6FF15EC11F09B0EE66EB50EE66E000E9C
:100B5000DFEC0FF01DD00A0ECE6FCF6B400ECD6FC5
:100B600017D0060EA9EC0FF00601240ECD6F2C0E47
:100B7000CE6F010ECF6F0CD0CC51CC2B0501CC6FBA
:100B8000140ECC5D02E2020E01D0030E0BEC11F04C
:100B900002EF11F097EC11F05BE80601ED6B3C0EF3
:100BA000D46FD56B0B01C3BF03D00B01350EC46FDF
:100BB000FE0E0601EB5D20E10001C80507E0050E11
:100BC000C85D04E02FEC10F027EC11F00B01C3BF5F
:100BD00003D00B01360EC46F35EC11F07AEC10F037
:100BE0009EEC50F044E90B01C3BFC7EF0AF00B01C4
:100BF000350EC46FC7EF0AF0FF0EEB5D15E00B0179
:100C0000C3BF03D00B01370EC46F35EC11F0AAEC53
:100C100018F042E90B01C3BF03D00B01350EC46FBE
:100C200010EC11F0C7EF0AF0C8517F0A02E1C2EFE1
:100C30000AF05F0A01E140D2600A01E167D1630A6C
:100C400001E14AD1020A01E1FFD0330A01E1D3D028
:100C5000030A6EE0010A2CE0110A16E0010A02E024
:100C6000C7EF0AF0050EEA5D02E2C7EF0AF08DEC6D
:100C700010F0950EE66EB50EE66E000E9EEC0FF0CF
:100C800002E0C7EF0AF038D0020EEA5D02E2C7EFD9
:100C90000AF0E0EC10F002E0C7EF0AF04B0E015D45
:100CA00002E0C7EF0AF027EC11F0100EAFEF0AF0E8
:100CB000040EEA5D24E3DCEC10F021E1430E015D5B
:100CC0001EE1530E025D1BE14D0E035D18E135EC94
:100CD00011F022EC81F042E9F3CFE9FFF4CFEAFF13
:100CE000E906000EEA5A000EE926080EEA22EF5045
:100CF000310802E1C7EF0AF07F0EAFEF0AF00601FC
:100D0000C95102E0C7EF0AF0020EEA5D02E2C7EF46
:100D10000AF0E0EC10F002E0C7EF0AF04B0E015DC4
:100D200002E0C7EF0AF027EC11F0110EAFEF0AF066
:100D3000100EEA5D17E3380E0801005D13E1390E6D
:100D4000015D10E1180EE66EE66A35EC11F09A0EC0
:100D5000E66E0B0EE66E80EC81F046E90B01B16B9E
:100D6000C7EF0AF0080E0601EA5D16E3DCEC10F0AE
:100D700013E1430E015D10E1500E025D0DE1420EE4
:100D8000035D0AE1460E045D07E13A0E055D04E1EC
:100D900035EC11F004DDB5D1080E0601EA5D17E36C
:100DA000DCEC10F014E1430E015D11E1500E025D28
:100DB0000EE1490E035D0BE1520E075D01E1E7D341
:100DC000040E1CEC10F00601010EC96FE0D3060101
:100DD000C95101E0DCD3020EEA5D01E2D8D3E0ECB8
:100DE00010F001E0D4D34B0E015D01E0D0D327EC2D
:100DF00011F0120EB4D3060EEA5D15E3DCEC10F030
:100E000012E1490E015D0FE1500E025D0CE1520E40
:100E1000035D09E1390E065D06E08A0EE66E170EE7
:100E2000E66E010E8CD1020E0601EA5D01E2AFD33F
:100E3000E0EC10F001E0ABD34B0E015D01E0A7D375
:100E400027EC11F0210E8BD3020EEA5D0BE3E0ECF0
:100E500010F008E14B0E015D05E110EC11F0CC6BD8
:100E6000220E7DD3050E0601EA5D07E3450E08015B
:100E7000005D03E1520E015D03E019EC11F002E1A7
:100E8000230E6DD3060EE66EE66A830EE66EB50E91
:100E9000E66E000E9EEC0FF001E079D359EC11F0F4
:100EA000000EE66E080E65EC10F001E170D3D5EC93
:100EB0000FF087EC11F001E16AD3080EE66EE66AE6
:100EC00010EC10F0CE0EE66E000EE66E80EC81F0B7
:100ED00046E90001D66B5BD364EC11F001E057D317
:100EE0002C0E0801085D03E1070E091502D0070E5C
:100EF00007150001C86FE80404E0050EC85D01E0B5
:100F000046D310EC11F0CC6B400E29D3020EEA5DF3
:100F100007E3450E0801005D03E1520E015D03E0A9
:100F200019EC11F00FE1020E0601C95D01E1EED2EC
:100F3000030EC95D01E1EAD2050EC95D01E027D3C8
:100F4000030E0DD3020E0601EA5D06E3E0EC10F09D
:100F500003E14B0E015D0CE0530E0801005D03E15F
:100F6000480E015D05E0050E0601C95D01E090D067
:100F70000601EA6B1E0ECE6FCF6B0001C96B020E2D
:100F800056EC10F00601C92BC951090A01E17ED0C7
:100F9000010A66E00F0A5EE0010A3BE0030A33E063
:100FA000010A2BE0070A20E0010A0CE0030A01E035
:100FB000EED2690EE66EB50EE66E000EDFEC0FF0B7
:100FC000050E0ED05C0EE66EB50EE66E000EDFEC82
:100FD0000FF0050E3AEC11F0060E3AEC11F0070E88
:100FE000E66EEDEC0FF02ED0040EC9EC11F04E0EB3
:100FF000E66EB50EE66E000EA2D0400EE66EB50EA1
:10100000E66E000E9CD0360EE66EB50EE66E000E55
:1010100096D0160EE66ED2EC10F001EBE9FF02EB73
:10102000EAFFEF5006E1320EE66EB50EE66E000EF8
:1010300086D0250EE66EB50EE66E000EDFEC0FF0E4
:1010400010EC10F015EC11F0660EE66EB50EE66EC3
:10105000000E75D0B30EE66EB50EE66E000E6FD0C4
:10106000030EC9EC11F0110EE66EB50EE66E000E21
:10107000DFEC0FF0040EE66EEDEC0FF015EC11F066
:10108000070EE66EB50EE66E000E59D0200E67D242
:10109000070EEA5D0BE3080EE66EE66AFE0EE66EEC
:1010A000B40EE66E000E9EEC0FF004E049EC11F079
:1010B00001E06DD2020E53D264EC11F024E12C0E4B
:1010C0000801085D03E1070E091502D0070E071598
:1010D0000001C86FE80403E0050EC85D05E10601E4
:1010E000D26BD36BE66A0AD00601D251D31101E06C
:1010F0004ED2780ED26FD36B010EE66EE66A1FEC0D
:1011000087F042E944D28DEC10F0EC0EE66EB40E9E
:10111000E66E000E9EEC0FF015E10001C80507E039
:10112000050EC85D04E02FEC10F027EC11F0010E65
:1011300056EC10F05A0EE66E170EE66E010EDFEC5E
:101140000FF025D28DEC10F0E60EE66EB40EE66ED2
:10115000000E9EEC0FF001E09CD0080E0601EE158B
:10116000000801E314D2070EE66E080EE66EF7ECF7
:1011700041F00BEC10F0036ECD51046ECE51056EB4
:10118000CF51066E03500001881908E104508919F7
:1011900005E105508A1902E106508B1901E1F7D1EA
:1011A0000350885D0450895905508A5906508B595F
:1011B00038E2D950030FE96EDACFEAFF8851EE5CCE
:1011C0000501CC6F00018951EE580501CD6F00017A
:1011D0008A51EE580501CE6F00018B51EE58050182
:1011E000CF6FCC51076ECD51086ECE51096ECF51E5
:1011F0000A6E00018C518D118E118F1108E007507D
:101200008C2708508D2309508E230A508F2300010C
:10121000075088270850892309508A230A508B23B6
:10122000B6D1D950030FE96EDACFEAFFEE50885DF0
:101230000501CC6FEE50000189590501CD6FEE50CC
:1012400000018A590501CE6FEE5000018B5905014E
:10125000CF6FCC510B6ECD510C6ECE510D6ECF5168
:101260000E6E00018C518D118E118F1108E00B5004
:101270008C5F0C508D5B0D508E5B0E508F5B0001B0
:101280000B50885F0C50895B0D508A5B0E508B5B56
:101290007ED1090EE66EE66ADC0EE66EB40EE66EF0
:1012A000000E9EEC0FF06AE1010E0601EE1500083B
:1012B00065E2ADEC11F0090EE66E080E65EC10F07B
:1012C000A5EC0FF006E001EBE9FF02EBEAFFEF50BF
:1012D000176EA5EC0FF0A5EC0FF009E0B4EC11F0DF
:1012E0000F6ECD51106ECE51116ECF51126EA5EC16
:1012F0000FF009E0B4EC11F0136ECD51146ECE5125
:10130000156ECF51166EA5EC0FF005E0B9EC11F09B
:10131000186EF450196EA5EC0FF0A5EC0FF005E077
:10132000B9EC11F01A6EF4501B6E0150021001E17D
:101330002ED1010E17140001C26FC2511CE00FEB39
:101340008EFB10EB8FFB11EB90FB12EB91FB13EB81
:1013500092FB14EB93FB15EB94FB16EB95FB18EB50
:1013600098FB19EB99FB1AEB96FB1BEB97FB000123
:10137000780EC56F0CD10001C56B09D1E4EC10F0FB
:10138000CF0EE66EB40EE66E000E9EEC0FF004E19A
:101390000001C95126E119D0070EE66EE66AC70EB4
:1013A000E66EB40EE66E000E9EEC0FF042E1110EFA
:1013B000E66EE66AB50EE66EB40EE66E000E9EECC4
:1013C0000FF013E10001C9510CE1010EE66EE66E6B
:1013D0001FEC87F042E9F0EC11F0A4EC12F00CECF9
:1013E00012F00001010EC96FD2D0150EE66EE66A4A
:1013F0009F0EE66EB40EE66E000E9EEC0FF001E15D
:10140000C6D0110EE66EE66A8D0EE66EB40EE66E7E
:10141000000E9EEC0FF06BE00001C96B020EC9ECF0
:1014200011F00001C80570E0050EC85D01E0AFD005
:101430006BD08DEC10F0870EE66EB40EE66E000EEB
:101440009EEC0FF011E12C0E0801085D08E1070E7B
:1014500006150A0D070E07150501F32402D0070E25
:1014600006150001CB6F93D0070EE66EE66A7F0E7D
:10147000E66EB40EE66E000E9EEC0FF00BE00B0E67
:10148000E66EE66A730EE66EB40EE66E000E9EEC35
:101490000FF003E10B0101697AD0060EE66EE66AF1
:1014A0006C0EE66EB40EE66E000E9EEC0FF01FE0C2
:1014B0000C0EE66EE66A5F0EE66EB40EE66E000E89
:1014C0009EEC0FF014E00B01015115E0090EE66EE1
:1014D000E66A550EE66EB40EE66E000E9EEC0FF058
:1014E00006E06CEC11F003E019EC11F004E1ECEC17
:1014F00011F0420E34D049EC11F006E06CEC11F022
:1015000003E019EC11F004E1ECEC11F0410E27D0EE
:10151000040EE66EE66A4B0EE66EB40EE66E000E44
:101520009EEC0FF00BE0060EE66EE66A440EE66EE9
:10153000B40EE66E000E9EEC0FF003E1ECEC11F041
:101540000DD0110EE66EE66A320EE66EB40EE66E51
:10155000000E9EEC0FF006E1F2EC3DF0010E0BECFC
:1015600011F015D0060EE66EE66A2B0EE66EB40E8E
:10157000E66E000E9EEC0FF00AE1F9EC10F0E2ECE2
:101580001BF004D0F9EC10F059EC6CF043E95CE985
:10159000E7CFD9FF120097EC11F046E87F0E060165
:1015A000C85D0BE0200EC85D01E02ED10001C8052A
:1015B00004E0050EC85D01E027D10B01015101E0F7
:1015C00023D17FEC10F001E01FD1EA5101E01CD1E2
:1015D0000901415101E018D10901C45101E014D1C0
:1015E0000B014151421103E00B01000549E00601E6
:1015F000F1510008000EF2551BE20B01000518E145
:101600000601F1510008000EF2550FE2F3C6E6FFA5
:10161000F4C6E6FFF5C6E6FFF6C6E6FFF1C6E6FF4E
:10162000F2C6E6FF57EC1FF046E9C2EC10F0ECD032
:10163000FF0EB4EC0FF001E37BD00B01000501E0DD
:1016400077D0200EB4EC0FF004E20601FA9B040EF2
:1016500033D0040EB4EC0FF016E20601FA95FC51FB
:1016600001E0D2D0060E0B01416F426B0B01D95045
:10167000020F436FDACF44FBE96EDACFEAFFEF6A7D
:1016800066EC1BF0C1D0080EB4EC0FF006E20601C8
:10169000FA97EEA3B9D0020E0FD0100EB4EC0FF0F3
:1016A00004E20601FA99030E07D0400EB4EC0FF0E5
:1016B00008E20601FA9D050EE66E46EC1FF041E9D0
:1016C000A3D0020EB4EC0FF009E20601FA93020E69
:1016D000E66E43EC13F041E9020827D0010EB4ECAA
:1016E0000FF015E20601FA91020E016E01EBE6FF22
:1016F000E8EC15F041E9016E01EBE6FF43EC13F075
:1017000041E9016E020E015C01E17ED00ED0800E37
:10171000B4EC0FF00DE20601FA9FFB6B020EE66ED1
:1017200097EC14F041E902086FE00CEC12F06CD079
:10173000E7EC0FF0FF0EBEEC0FF066E2000EE66E77
:10174000E66AA0EC00F042E9E7EC0FF0200EBEECF8
:101750000FF004E20601FB9B040E40D0E7EC0FF013
:10176000040EBEEC0FF01DE20601FB95FC514CE1AE
:10177000260EE66EB40EE66E000EE66ED950020F2F
:10178000E66EDACFE6FFC0EC42F045E9D950020F31
:10179000E66EDACFE6FF7AEC10F09EEC50F044E90A
:1017A00033D0E7EC0FF0080EBEEC0FF006E20601B6
:1017B000FB97EEA329D0020E11D0E7EC0FF0100E2C
:1017C000DDDB04E20601FB99030E08D0E7EC0FF025
:1017D000400ED4DB0AE20601FB9D050EE66E7AECB4
:1017E00010F0F2EC49F043E90FD0E7EC0FF0020EF5
:1017F000C5DB03E20601FB9307D0E7EC0FF0010E17
:10180000BDDB02E20601FB9147E9E7CFD9FF1200F9
:101810000B01C3BF03D00B01380EC46F0601F95191
:10182000000805E2F907F95102E1F76BF86BC851BE
:101830007F0A01E100D15F0A01E171D0220A6DE067
:10184000210A54E0020A49E0330A3CE0030A30E08E
:10185000010A24E0110A01E012000A0ECE1908E183
:10186000CF5106E1F2EC3DF0320E56EC10F007D00D
:10187000050ECE5D000ECF5902E2020EDDDB060141
:10188000EEA106D08E0EE66E160EE66E010E23D089
:101890009C0EE66E160EE66E010E1DD030EC11F0B9
:1018A00001E0CBD0C20EE66E160EE66E010E13D02E
:1018B00030EC11F001E0C1D0CE0EE66E160EE66EF1
:1018C000010E09D030EC11F001E0B7D0E90EE66E60
:1018D000160EE66E010EDFEF0FF0140ECE5D000E59
:1018E000CF5901E3AAD0060E1CEF10F0E4EC10F083
:1018F000CCEC11F001E0A1D0F0EC01F0800EE66E2E
:10190000170EE66E010E5BDB090141510008FCE396
:10191000020EE66EC6EC3DF033D0E66A2FD0FF0E25
:10192000EB5D0AE0ED0504E1ED6BEA6BEB690FD0CE
:10193000ED51010801E2ED07D2510008000ED35528
:1019400008E2D207000ED35BD251D31102E1210E7F
:1019500014D00B01015116E0012B3C0EE76E01196A
:1019600002E7013502D00151E75C0CE20601D251D9
:10197000D31102E1420E01D0400EE66E3BEC04F0C2
:1019800041E9120000017151800B04E04EDB01E1DE
:10199000CD510DE03C0E74EC11F0E5CFCFF5E7CF63
:1019A000CEF50501370ECE1921E1CF511FE10B0114
:1019B00001511CE1A4DB1AE1EA5118E1090141518E
:1019C00015E10901C45112E1010E0601EE150008EE
:1019D0000DE2AA0EE66E160EE66E010EF0DA0901B1
:1019E00041510008FCE30F0EFDEC10F00001C805AA
:1019F00003E0050EC85D19E100017751000815E20A
:101A00000B01BA0512E10001CA5100080EE2010EF5
:101A10000601EE1504E009DB08E1CD5106E1800E78
:101A2000E66EE66AA3EC03F042E9000175A905D071
:101A30000001CD6B1200B2EC69F012000B01C3BFC4
:101A400003D00B01390EC46F0601C851200A01E012
:101A500012003C0ED2EC11F01FE00B0101510AE123
:101A60004EDB08E1EA5106E10901415103E10901B8
:101A7000C45106E0020E0601D05F000ED15B1200D9
:101A80005F0EE66E170EE66E010E99DA09014151FE
:101A90000008FCE3020EB1DB12000B01C3BF03D050
:101AA0000B013A0EC46F0001CC510DE14CDB7EEC12
:101AB00011F00FDB96EC55F041E9E7500001CC6FD7
:101AC0000001CD6B2AD0020EE66EE66A3CDBFBC756
:101AD000D2F5FCC7D3F5FDC7D4F5FEC7D5F5F9DAC5
:101AE000CFEC55F0E552E5CFD1F5E7CFD0F50001C9
:101AF000CC510501D025CE6F000ED121CF6FCE2B5A
:101B0000000ECF23CEC5E6FFCFC5E6FF9BEC56F017
:101B1000E552C4EC11F0CCC5CCF0000175B918D079
:101B20000F0E0001CD5D09E2000171AF03D000018D
:101B3000CD6B0ED00001CD2B0BD00F0ECD5D08E18B
:101B400000017151800B04E1CCC0CDF000010E9377
:101B50000001CD510F0826E2000171AF03D0000152
:101B60000E9320D0020E00010E150AE1100E0001A6
:101B7000CD5D0001D880CC5503E300010E830CD06D
:101B8000020E00010E150EE00A0E0001CD5D0001EF
:101B9000CC5D08E300010E93080EE66EE66AA3EC46
:101BA00003F042E90601C851200A01E012000B01CE
:101BB000005119E0F1EC77F0000815E20B0101513A
:101BC0000AE19DDA08E1EA5106E10901415103E128
:101BD0000901C45102E06FDA06D0F0EC11F0F4EC28
:101BE00077F00CEF12F00B01005115E00001CA5123
:101BF000000811E20B0101510AE181DA08E1EA5122
:101C000006E10901415103E10901C45102E053DA3F
:101C100002D035EC17F0010E0601C919C96F120088
:101C20000B01C3BF03D00B013B0EC46F12007FDB5F
:101C300043E8000166050DE0020E665D0AE00F0E46
:101C4000665D07E0800E00017115000802E3000EDA
:101C500001D0010E036E0B01C3BF03D00B013C0E7C
:101C6000C46F0601C851200A5AE10001EE5100017B
:101C7000785D38E2800E0001711534E10601F05103
:101C80001CE10B0100511AE00B01015117E137DA99
:101C900015E1EA5113E10901415110E10901C45173
:101CA0000DE10601EEA505D0010EE66E46EC1FF033
:101CB00041E90601480EF06F01D0F0070601EF512F
:101CC0000FE1E66A6FDA0601EEA506D0010EE66EB8
:101CD000A7D9F2EC49F043E90601480EEF6F06D0B0
:101CE000EF0704D00601060EEF6FF06F0B010051F5
:101CF00016E00001CA5113E1035011E00B0101513C
:101D00000AE1FDD908E1EA5106E10901415103E187
:101D10000901C45102E0CFD902D035EC17F044E9F3
:101D2000E7CFD9FF120003DB41E8000166050DE0B3
:101D3000020E665D0AE00F0E665D07E0800E000190
:101D40007115000802E3000E01D0010E016E0B01B7
:101D5000C3BF03D00B013D0EC46F0601C851200A5A
:101D600019E10B01005116E00001CA5113E10150C5
:101D700011E10B0101510AE1C2D908E1EA5106E182
:101D80000901415103E10901C45102E094D902D093
:101D900035EC17F0F3D10B01C3BF03D00B013E0E9E
:101DA000C46F0601FC51000801E2FC07D02B000EB5
:101DB000D123CD51000811E2CEC6CCF5CFC6CDF56A
:101DC000CE07000ECF5B0501CC51CD1106E1CDC68B
:101DD000E6FF3BEC04F041E901D01ADD1E0EE2DA29
:101DE00001E12CDE3C0EDEDA01E157DE2C0EE66E60
:101DF000010EE66E2FDA01E113DF580EE66E020ED9
:101E0000E66E28DA01E113DF100EE66E0E0EE66EC6
:101E100021DA06E188DF100E0601D05F0E0ED15BDD
:101E20007F0E0601C85D15E0D407000ED55BD451C6
:101E3000D5110FE13C0ED46FD56B0B01C3BF03D09E
:101E40000B01F10EC46F010EE6D90B0E0601CE6F29
:101E5000CF6B120012000BEC88F00001C86BE66A31
:101E60003BEC04F041E91200A5D884E90050050AD2
:101E700055E0010A4DE0070A45E0010A1AE0030AAD
:101E800058E100017851E66EE66AFD0EE66EB30E8B
:101E9000E66E000EE66E000EE66E070EE66E17ECBE
:101EA00043F047E983DAF60EE66EB30EE66E000EF7
:101EB0003AD000010EA307D04ED9D60EE66EB30E6F
:101EC000E66E000E06D047D9C50EE66EB30EE66E7E
:101ED000000EE66EA5D86BD9010EE66EE66ACDC09F
:101EE000E6FFE66AE66AE66ABD0EE66EB30EE66EE9
:101EF000000EE66E95D85BD9BA0EE66EB30EE66EAE
:101F0000000E11D0960EE66EB30EE66E000E0BD0EC
:101F10007B0EE66EB30EE66E000E05D05E0EE66E2C
:101F2000B30EE66E000EE66E7BD8C0EC42F045E9DB
:101F30003DDA01EBF3FF02EBF4FF1CD1E66E95D91D
:101F4000FAEC7FF047E90009120007DA9DD987EF24
:101F500011F01FDA27EF11F0E6EC56F0E55214DA33
:101F60000501CC51CD1112000601FA150501CC6F07
:101F7000CD6BCC510008000ECD5512000601FB15AB
:101F80000501CD6FCC510008000ECD55120000EBBD
:101F9000F6FF01EBF7FF02EBF8FF08001200EA6A18
:101FA000000FE96E080EEA22120083D944EF11F007
:101FB000E66EB3D1D9CFE6FFE1CFD9FF1200E66ECE
:101FC00051EC02F043E91200DAD9EF501200000E92
:101FD0000601FA150501CC6F12005EEC86F041E9AE
:101FE000F3CFE6FFF4CFE6FF12000901C525050196
:101FF000CC6FCD6BCD37E66ECDC5E6FF9EEC56F0CF
:10200000E552E5CFEAFFE7CFE9FF440EE926090EE6
:10201000EA22EF50120042E971D90501CC511200B9
:1020200001EBE6FF02EBE6FF1200030E5DD9ACD92F
:102030000501010ECC191200E66EDBEF11F0E66E21
:1020400003EBE6FF04EBE6FFAEEC81F045E9F3CFEE
:10205000CCF5F4CFCDF50501F350F41012000601D4
:10206000D26BD36B0001050EC86F1200E668E9D889
:10207000E668A1D946EF87F0E66E54D9026EF450B7
:10208000036E02EBE9FF03EBEAFFEF501200FCC521
:10209000E9FFFDC5EAFFFC2B000EFD231200CE6F09
:1020A000CF6BC96B0001CA6BECEF11F0E66EDEEC92
:1020B0003DF041E91200040E0601D05F000ED15B35
:1020C00012005DD9EFCFE6FF28D1E66E79D987EF10
:1020D00011F0FBC7E6FFFCC7E6FFFDC7E6FFFEC742
:1020E000E6FF38EF59F0EA510501CC6FCD6BC80E11
:1020F000CC191200D60EE66E060EE66E1200FF0E2A
:102100000601EB5D120003EBE6FF04EBE6FF4FEC8C
:102110007AF042E9F3CFE6FF1200050EE66EE66ABA
:102120001200D9CFE9FFDACFEAFFEE2A000EEE2245
:10213000EE2212000601CA07000ECB5BCA5100084E
:10214000000ECB551200E66AE66A200EE66E410EDE
:10215000E66E06EF8CF0010EE66EE66ACCC0E6FF96
:10216000E66AE66AE66A1200036EF450046E0350F3
:102170000410120041E9E7CFD9FF120042E9E7CF8E
:10218000D9FF12000601F16BF26BF36BF46BF56B88
:10219000F66B12000601030ECD6F5F0ECE6FCF6B94
:1021A000C96B1200BFD8016EF450026E120024EC0D
:1021B00044F04BE9D6EF11F02B0E0801005D120040
:1021C0004F0E0801005D12000A0EE66EE66A12006C
:1021D0004FEC7AF042E9F3CFECF606011200F5CFAE
:1021E000E6FF9BD0E50EE66EB50EE66E000EE66EDF
:1021F0001200EAC6E6FF35EF11F0E66EC6EC3DF0E0
:1022000041E9120043E9E7CFD9FF1200BD0EFC5DA2
:10221000080EFD591200E66E3BEC04F041E9120095
:102220000A0E0601CA6FCB6B1200DDEC02F042E928
:102230001200CADF8A0EE66EB50EE66E000E9EEF45
:102240000FF0010EE66E1FEC87F042E91200E66A1D
:10225000DBEF11F0D0C6E6FFD1C6E6FFACEF0FF022
:10226000030EE66EE66ACCEF11F0000EE66E080E85
:10227000E66E1200E66EB1DED8DF580EE66EB50EE1
:10228000E66E000EDFEF0FF0000EE66EE66AE0EF9E
:1022900011F00B0EE66EE66AF20EE66EB40EE66E16
:1022A000000E9EEF0FF0EA51EA2B79DE01EBEFFF13
:1022B0001200E70EE66EB50EE66E000EE66E120038
:1022C000EA516DDEEF6A120028DF7D0EE66EB50E74
:1022D000E66E000E9EEF0FF020DF4F0EE66EB40E9E
:1022E000E66E000E9EEF0FF0E66EE66AD0C6E6FFE1
:1022F000D1C6E6FFE6EC56F0E5521200FBC7CCF57E
:10230000FCC7CDF5FDC7CEF5FEC7CFF51200016EB7
:10231000F450026E01500210120027EC88F041E9DF
:10232000000912005EEC86F041E9F350120042DE33
:1023300081E912002CDEF550120037DE056EF450F4
:10234000066E055006101200E66EA1DEE552E7505B
:10235000EF6E120035D8B4EF10F0DA0EE66EB40E60
:10236000E66E000EE66E12005BDEA0EC41F00BEFB5
:1023700010F056DE4FEC7AF042E9F350120000EB19
:10238000E9FF01EBEAFF1200E5CFCDF5E7CFCCF591
:102390001200E66E21EF11F0CEC6E6FFCFC6E6FFD3
:1023A000ACEF0FF0E66EE66A2AEF11F0F350016E23
:1023B000F450026E1200E66A1FEC87F042E9120048
:0A23C00037EC8CF045E9F3501200F1
:0623CA000B01416B426BA8
:1023D0000501FC6BFD6B12000B01006B016B120021
:1023E0007F0E0601C85D0AE10B01010E016FD60EDA
:1023F000E66EB80EE66E000E14EF20F0F0EC01F081
:10240000CA0EE66EB80EE66E000E14EC20F00EEC6E
:1024100002F00B01016F12007F0E0601C85D08E19A
:102420000B01016BC50EE66EB80EE66E000E13D002
:102430000B01015107E00501C30ECC6FB80ECD6F43
:10244000000E06D00501C10ECC6FB80ECD6F000E88
:10245000CE6F9EEC1FF014EF20F07BEC22F043E8EF
:102460000B0101516FE07F0E0601C85D06E180ECB3
:102470001FF0DDEC02F042E963D00B0130054DE1C5
:10248000450E0701055D49E0410E055D46E0610E20
:10249000055D43E0670E055D40E0500E055D3DE0E3
:1024A0000551036E060EE66E070EE66EA1EC20F0F7
:1024B000E8EC80F044E9D3EC21F0016A026AD8909C
:1024C000025004E6000E015C040E025808E2B7EC6C
:1024D00021F006EC22F0012A000E0222F0D7A1EC36
:1024E00020F04CEC21F0F5EC21F0A1EC20F006EC12
:1024F00022F0B90EE66EB80EE66E000E88EC21F002
:1025000003EB07F7080EE66E070EE66E53EC20F0BD
:10251000A1EC20F0D4EC7DF046E980EC1FF04CEC0F
:1025200021F0F5EC21F080EC1FF077EC20F0C4EC0A
:1025300020F053EC20F080EC1FF043EC7EF044E9F7
:1025400022EC22F051EF21F07BEC22F045E8E66A24
:10255000010EE66ED650E66EE66A55EC21F0056E89
:10256000E750046ED7500426000E0522016A080EBB
:10257000015C0CE20150EA6A060FE96E000EEA22E5
:10258000EF500426000E0522012AF1D7BCEC21F001
:10259000DEEC7CF042E9016A160E015C11E2A7EC68
:1025A00021F0D0BFD16942EC20F00150EA6A020F5D
:1025B000E96E0B0EEA22E552E750EF6E012AECD7E6
:1025C0000B01186B090E7EEC22F009EC22F071EC85
:1025D00021F0B0EC1FF071EC21F0160EE66EE66A09
:1025E000F2EC20F0B0EC8AF04AE9AE0EE66EB80EDE
:1025F000E66E000E14EC20F0F2EC20F0DDEC02F0C0
:1026000042E929EC22F02FEC20F043EC7EF044E983
:1026100029EC22F0080E7EEC22F000EC21F022ECF6
:1026200022F046E9E7CFD9FF1200A3EC1FF084E9BE
:1026300042E85AEC22F0C0EC41F044E9A5EC22F06B
:102640000250020A10E0030A03E0010A19E108D06F
:1026500096EC20F00450EE1802E10550ED1810E061
:10266000E4EC21F00DD096EC20F00450EE1802E1DD
:102670000550ED1805E0B4DEE4EC21F0010E026E29
:10268000025019EF20F01CEC22F044E8020E7EEC20
:1026900022F05AEC21F0A50EE66EB80EE66E000EA2
:1026A00080EC21F004EC20F060C0E6FF61C0E6FFA2
:1026B00073EC1FF00001625190EC21F000016651B3
:1026C0000F0A20E0020A18E0090A10E0060A08E0F2
:1026D000030A1EE1990EE66EB80EE66E000E1DD0DE
:1026E000910EE66EB80EE66E000E17D08B0EE66EFB
:1026F000B80EE66E000E11D0820EE66EB80EE66ED3
:10270000000E0BD0790EE66EB80EE66E000E05D008
:10271000700EE66EB80EE66E000E5EEC22F0000162
:102720006851040A18E0070A10E0020A08E0010AEA
:1027300018E1660EE66EB80EE66E000E14D05D0E61
:10274000E66EB80EE66E000E0ED0560EE66EB80EB1
:10275000E66E000E08D0490EE66EB80EE66E000E6C
:1027600002D09BEC22F05EEC22F095EC1FF04D08BD
:1027700007E179C0E6FF7AC0E6FF61EC22F00AD0FB
:1027800079C0E6FF7AC0E6FFBBEC22F061EC22F0F4
:10279000BBEC22F073EC1FF00001635190EC21F0D0
:1027A00064C0E6FF65C0E6FF73EC1FF000016951ED
:1027B00090EC21F06AC0E6FF6BC0E6FF73EC1FF0FF
:1027C0000001675190EC21F00001665190EC21F07E
:1027D0000001685190EC21F0BFC0CCF50501CD6B34
:1027E000CCBFCD69C1EC21F0C0C0E6FFC1C0E6FF9F
:1027F00073EC1FF0C7C0CCF50501CD6BCCBFCD6924
:10280000C1EC21F030EC22F0B5EC1FF0D9C0E6FFAE
:10281000DAC0E6FF73EC1FF00001DC350FE20001C7
:10282000DE35DE510001DC1908E60001DD51000152
:10283000DB5D0001DE510001DC5902E3000E01D036
:10284000010E000905E0DBC0CCF5DCC0CDF504D0FD
:10285000DDC0CCF5DEC0CDF5C1EC21F095EC1FF06C
:102860004D0803E105EC21F002D0C1EC22F0C1ECEF
:1028700021F00001E15190EC21F0E4C0CCF505011C
:10288000CD6BCCBFCD69C1EC21F0E7C0E6FFE8C05D
:10289000E6FF73EC1FF0E9C0E6FFEAC0E6FF73EC69
:1028A0001FF0ECC0E6FFEDC0E6FF73EC1FF0DBC0ED
:1028B000E6FFDCC0E6FF73EC1FF0DDC0E6FFDEC024
:1028C000E6FF73EC1FF095EC1FF04D0807E1E2C046
:1028D000CCF5E3C0CDF581EC22F006D0E2C0E6FFF6
:1028E000E3C0E6FFA3EC21F0C1EC21F06CC0CCF515
:1028F0000501CD6BCCBFCD69C1EC21F0ABEC20F074
:102900006DC0E6FF6EC0E6FFB5EC1FF0ABEC20F04B
:102910006FC0E6FF70C0E6FFB5EC1FF0310EE66E4B
:102920000B0EFDEC1FF045E9E7CFD9FF12001CECC0
:1029300022F042E8C8EC20F0420EE66EB80EE66ED9
:10294000000EDCEC22F00BEC21F0ECEC21F0E3ECDF
:1029500022F00BEC21F096CBE6FF97CBE6FF76EC6E
:102960001FF098CBE6FF99CBE6FF76EC1FF0000155
:10297000C25194EC21F0C5C0CCF50501CD6BCCBFA4
:10298000CD69DCEC21F00001775194EC21F04D0E83
:1029900000010F5D03E110EC21F002D0C7EC22F042
:1029A000DCEC21F07DC0E6FFE3EC22F0C8EC43F064
:1029B00046E976EC21F0ABEC20F07EC0CCF57FC090
:1029C000CDF581EC22F0CDAF02D0CE69CF6973ECAA
:1029D00022F0C0EC1FF080C0E6FF81C0E6FF82C09D
:1029E000E6FF83C0E6FF98EC1FF084C0E6FF85C0D9
:1029F000E6FF86C0E6FF87C0E6FF98EC1FF0330EC7
:102A0000E66E0B0EFDEC1FF019EF20F01CEC22F02F
:102A100047E83B0EE66EB80EE66E000E88EC21F03D
:102A200058EC20F0026A040E025C5DE265EC20F0D6
:102A3000CD354BE2CC510008000ECD5546E2560E86
:102A4000E66E0E0EE66E8D0EE66E3E0EE66E0250E1
:102A5000EA6AB50FE96E000EEA22EFCFE6FF31EC2D
:102A600055F0C3EC57F012EC56F0E552E5CFCFF538
:102A7000E5CFCEF5E5CFCDF5E7CFCCF50501CC51CF
:102A8000056ECD51066ECE51076ECF51086EABEC80
:102A900020F02EEC21F008EBE6FF85EC22F01DEC97
:102AA00020F024EC44F04BE958EC20F065EC20F0E9
:102AB000280ECC5F000ECD5B9EEC1FF06EEC21F07B
:102AC00038EC22F09BEC22F005D0360EE66EB80E04
:102AD000E66E000EE66E1DEC20F0AAEC22F058EC3B
:102AE00020F0022AA0D7C6C0CCF50501CD6BCCBF23
:102AF000CD699EEC1FF085EC22F038EC22F0350E0B
:102B0000E66E0B0EFDEC1FF048E9E7CFD9FF12008F
:102B10001CEC22F043E8010E046E020E046EAFECD2
:102B200020F02F0EE66EB80EE66E000E91EC22F04D
:102B300076EC21F00F0EF66E000EF76E000EF4EC40
:102B40001FF0100EF66E000EF76E000EF4EC1FF084
:102B50005DEC20F0CDEC22F00001105111111211AA
:102B600004E032EC21F0ADEC1FF004503CEC22F01C
:102B7000E66E8DEC22F0230EE66EB80EE66E000EC9
:102B8000E66E67EC22F071EC21F003EC43F048E9CB
:102B900076EC21F0930EE66E000EBCEC1FF0000107
:102BA000CB5194EC21F00B01C15194EC21F0890E32
:102BB000E66E0B0EBCEC1FF0CE0EE66E000EBCEC0B
:102BC0001FF0370EE66E0B0EFDEC1FF051EF21F0FB
:102BD0001CEC22F046E800018C518D118E118F11F2
:102BE00005E1046A056A066A076A20D08C0EE96E60
:102BF000000EEA6EEE500001885D0501CC6FEE50CC
:102C0000000189590501CD6FEE5000018A59050177
:102C1000CE6FEE5000018B590501CF6FCC51046E81
:102C2000CD51056ECE51066ECF51076E0001715128
:102C3000E66EE66A1C0EE66EB80EE66E000E91ECCD
:102C400022F076EC21F00001725194EC21F00001A9
:102C5000765194EC21F0A5C0E6FFA6C0E6FF76EC25
:102C60001FF0A7C0E6FFA8C0E6FF76EC1FF0A9C0E2
:102C7000E6FFAAC0E6FF76EC1FF04D0E00010F5DE7
:102C800003E110EC21F002D0C7EC22F0DCEC21F0E3
:102C90004D0E00010F5D09E1BBC0CCF5BCC0CDF508
:102CA000BDC0CEF5BEC0CFF50AD0BBC0E6FFBCC0EC
:102CB000E6FFBDC0E6FFBEC0E6FF85EC1FF073EC8B
:102CC00022F098EC1FF00001775194EC21F004EB16
:102CD000E6FF2EEC21F098EC1FF091C0E6FF92C0C9
:102CE000E6FF76EC1FF00001735194EC21F0C4C0B4
:102CF000CCF50501CD6BCCBFCD69DCEC21F0C3C0B8
:102D0000CCF50501CD6BCCBFCD69DCEC21F0ABEC93
:102D100020F0CCC0E6FF85EC22F0C0EC1FF00001F3
:102D2000745194EC21F0ABEC20F0CDC0E6FF85ECC3
:102D300022F0C0EC1FF00001755194EC21F0ABC003
:102D4000E6FFACC0E6FF76EC1FF0390EE66E0B0E28
:102D5000FDEC1FF047E9E7CFD9FF12001CEC22F091
:102D600042E8150EE66EB80EE66E000E88EC21F015
:102D700076EC21F0000113511411151115E013C068
:102D8000F6FF14C0F7FF15C0F8FF0800F5500CE07F
:102D900013C0E6FF14C0E6FF15C0E6FFADEC1FF060
:102DA0006EEC21F0ADEC1FF0050EE66EB80EE66E8F
:102DB000000EE66EADEC1FF03F0EE66E0B0EFDEC66
:102DC0001FF019EF20F0A3EC1FF085E942E883EC37
:102DD00021F0FE0EE66EB70EE66E000EDCEC22F081
:102DE00056EC22F0F350056EF450066E5AEC21F0CA
:102DF00091EC1FF000017751E66EE66A91EC1FF04E
:102E000096CBE6FF97CBE6FF91EC1FF098CBE6FF61
:102E100099CBE6FF91EC1FF00001C251E66EE66A25
:102E200091EC1FF0C5C0CCF50501CD6BCCBFCD69D1
:102E30009EEC1FF091EC1FF0C8EC20F022EC20F08B
:102E4000ECEC21F022EC20F0020404E13B0EE66EF3
:102E50000B0E03D03D0EE66E0B0EE66E03EBE6FFA7
:102E600015EC13F043E919EF20F07BEC22F043E876
:102E7000020E016E0B0E7EEC22F095EC1FF005E0C9
:102E800071EC21F0010E16EC21F00C0E7EEC22F01C
:102E900095EC1FF005E071EC21F0020E16EC21F02C
:102EA00001EBE6FF43EC13F0F7EC20F040DDF7EC2C
:102EB00020F0ACDDF7EC20F08BDEF7EC20F04EDFFD
:102EC00041E9016E020E015C02E00CEC12F051EFE0
:102ED00021F0A3EC1FF083E949E8010E0B6E020E0E
:102EE0000B6E0050011001E131D180EB03F081EB5A
:102EF00004F03CEC20F008E03CEC20F0200804E07A
:102F0000032A000E0422F5D73CEC20F0200801E053
:102F10001DD1D1EC20F083EC21F0F2EC20F0B2ECEA
:102F200080F044E9000901E111D1090E84EC20F0A0
:102F300009EC22F0A1EC22F083EC21F0B0EC1FF0C0
:102F400083EC21F0B0EC8AF04AE980EC1FF02FEC22
:102F500020F0D4EC7DF046E980EC1FF01DEC20F071
:102F6000B2EC80F044E9000901E0F0D083EC21F0FC
:102F700080EC1FF0E8EC80F044E9F2EC20F0CEECBD
:102F800021F009EC22F0A1EC22F05AEC22F0B0EC96
:102F90008AF04AE92FEC20F089EC20F0DAEC89F095
:102FA00048E9096A0A6AD8900A5004E6000E095CEA
:102FB000040E0A580AE2B7EC21F089EC20F0C4ECC8
:102FC00020F0092A000E0A22EED72FEC20F077EC31
:102FD00020F0DAEC89F048E9096A0A6AD8900A50C8
:102FE00004E6000E095C040E0A580AE2B7EC21F070
:102FF00077EC20F0C4EC20F0092A000E0A22EED76C
:103000000B01010E006F0A0E84EC20F005EBE9FFC6
:1030100006EBEAFFEF50500843E10B0130511FE18E
:10302000096A0A6A160ED8900ABE03D0095C000E1F
:103030000A5813E2A7EC21F0D0BFD16942EC20F08E
:10304000190E0924E96E0B0E0A20EA6EE552E750CC
:10305000EF6E092A000E0A22E5D70B012F6B306BA9
:10306000F60EE66EB70EE66E000E88EC21F064EC0C
:1030700021F0CEEC21F092EC20F00B01010E306F2C
:1030800084EC20F047EC21F0A1EC22F064EC21F07C
:10309000B0EC1FF064EC21F0B0EC8AF04AE902D009
:1030A0000B01306B0B01C3AF4FD0C39FAFEC20F0CF
:1030B000D40EE66EB70EE66E000E91EC22F0C9EC6F
:1030C00021F00F0EF66E000EF76E000E98EC21F058
:1030D000A8EC1FF0100EF66E000EF76E000E98ECC6
:1030E00021F0A8EC1FF05DEC20F0C4EC21F01EEC08
:1030F00021F0000110511111121108E032EC21F001
:10310000C4EC21F0AAEC22F0C9EC21F00B503CEC0D
:1031100022F0A8EC1FF00B01C251DFEC21F00B01F3
:10312000C351E66EE66A6EEC21F0C4EC21F09AEC35
:1031300043F047E9C9EC21F00B01C451DFEC21F069
:10314000E0EC20F092EC20F06AEC78F04AE9E7CF6E
:10315000D9FF1200A3EC1FF083E942E80B010051F4
:103160001EE1070EE66EE66ACC0EE66EB70EE66E60
:10317000000EE66E83EC21F0FAEC7FF047E90009DF
:1031800001E0D9D0070E0501002444EC22F0A1DEB5
:1031900042E90601060ED06F0E0ED16FCCD080EC46
:1031A0001FF083EC21F0D6EC7EF044E958EC20F0DF
:1031B0000B01C3BF03D00B01410EC46F1DEC20F007
:1031C00080EC1FF089EC20F0C4EC20F0050EE66ED8
:1031D000E66AC60EE66EB70EE66E000EDCEC22F076
:1031E000FAEC7FF047E9000905E0400EE66E3BECA3
:1031F00004F097D0050E006E070E016E96EC20F0DD
:10320000EF5045083BE10028E96E000E0120EA6E10
:10321000EF504D0833E1020E0026000E0122010E90
:10322000E66E060EE66EF0EC1FF0D6EC7EF044E99A
:1032300058EC20F0D3EC21F0036A046AD8900450D3
:1032400004E6000E035C040E045808E2B7EC21F01B
:1032500006EC22F0032A000E0422F0D71DEC20F029
:10326000010EE66E060EE66E06EC22F096EC20F0FD
:10327000EFCF00F6000E006E060E016E0B01C3BF0D
:1032800003D00B01420EC46F96EC20F0EF50430ABE
:103290004AE02B0A3EE0320A0FE01B0A4CE10B0128
:1032A000015149E1BF0EE66EB70EE66E000E88ECE6
:1032B00021F092EC20F03FD0F0EC1FF0FCEC20F07D
:1032C00058EC20F00001CA51F36E04341FE20350A1
:1032D000F35C000E04541AE20B01015117E1F0EC0B
:1032E00011F0E66A43EC13F041E9E66A97EC14F05A
:1032F00041E9E66A06EC15F041E9E66A88EC15F06A
:1033000041E9E66A65DC41E90CEC12F003EBCAF036
:1033100012D0F0EC1FF0FCEC20F0F3CFE6FF91ECC4
:1033200078F041E908D0F0EC1FF007D842E90B0132
:10333000015101E1CBD919EF20F0A3EC1FF083E993
:1033400042E880EB03F081EB04F03CEC20F008E075
:103350003CEC20F02C0804E0032A000E0422F5D7F0
:103360003CEC20F02C0802E1D1EC20F083EC21F0C1
:10337000FCEC20F0F3CF41FBF4CF42FB03EB43FB2B
:1033800004EB44FB19EF20F07BEC22F045E80B0145
:10339000C3BF03D00B01430EC46F310E0B014119A3
:1033A00001E1425101E177D1290E411901E1425178
:1033B00001E162D1280E411901E1425101E139D107
:1033C000070E411901E1425101E1D9D0060E411920
:1033D00001E1425101E1D0D0050E411901E1425114
:1033E00001E1BED0040E411901E1425101E182D058
:1033F000030E411901E142515BE0020E411901E166
:10340000425122E0010E411901E1425102E0000E59
:1034100059D1016A100E015C01E353D10150E66EEF
:10342000E66AB40EE66EB70EE66E000E80EC21F092
:10343000100E90EC21F039EC21F0EF5090EC21F0DF
:103440002DEC12F0012AE6D769EC21F095EC1FF083
:1034500006E01FEC22F003E089EC22F0F7D71FEC26
:1034600022F001E003D14CEC22F001E373D0100E06
:10347000015C70E271EC21F0FCEC20F0F350E66EA0
:1034800039EC21F0E552E750EF6E080E015C09E3DC
:1034900071EC21F0080E015C180FE66E73EC86F0FB
:1034A00043E90F0E015C01E006D104EC62F003D1A8
:1034B000016A200E015C01E304D101EBE6FFCFECD1
:1034C0001FF0090E015C03E176EC22F0EF6A015077
:1034D000E66EE66AA90EE66EB70EE66E000E80ECAA
:1034E00021F0200E90EC21F004EC20F02DEC12F0F5
:1034F000012ADFD769EC21F095EC1FF006E01FEC04
:1035000022F003E089EC22F0F7D71FEC22F001E073
:10351000ADD04CEC22F01EE2180E015C1BE2015013
:10352000010803E395EC1FF015E071EC21F001EBCD
:10353000E6FF73EC86F043E9E6EC20F07BEC21F04B
:10354000020E015C04E00E0E015C01E0B8D004EC58
:1035500062F0B5D06C0EE66E190EE66E010EADD0BF
:10356000E6EC20F07BEC21F02DEC12F0040EE66E80
:103570003BEC04F041E9A5D03EEC1FF0A0D00EECEE
:1035800022F0A1EC20F0E1EC42F044E90501000E4C
:10359000FC6F080EFD6F000EE66EE66AA0EC00F010
:1035A00042E9A1EC20F0D60EE66E060EE66E9EEC29
:1035B00050F044E9016EFCC5E9FFFDC5EAFFEF6A82
:1035C0000501FC6BFD6BB4EC22F080EC21F0010EE8
:1035D000D880015490EC21F0015071E034EC20F0DF
:1035E0002C0EEF6E000E026E080E036E95EC1FF0AF
:1035F0001AE095EC1FF00A0804E134EC20F00D0EFF
:103600000ED01FEC22F004E134EC20F03B0E07D08A
:1036100095EC1FF0E66E34EC20F0E552E750EF6ECB
:1036200089EC22F0E3D704EBE9FF05EBEAFFEF6A50
:1036300046D069EC21F095EC1FF006E01FEC22F07B
:1036400003E089EC22F0F7D71FEC22F00DE1F8EC53
:103650001FF001EC49F042E900EC21F0C30EE66EE8
:10366000B80EE66E000E1ED0F0EC11F0400EE66EC5
:10367000190EE66E010E21D09D0EE66EB70EE66EB7
:10368000000E14EC20F021EC21F0970EE66EB70E40
:10369000E66E000E07D021EC21F0950EE66EB70E17
:1036A000E66E000E14EC20F0050EE66EDEEC3DF04A
:1036B00041E9F0EC11F0E6EC20F07BEC21F02DEC90
:1036C00012F0010E46E9E7CFD9FF12000B01C3BF8C
:1036D00003D00B01440EC46F280E0B01D89042BFDB
:1036E00003D0415D000E425907E3423507E24151E4
:1036F0003108000E425502E2F0EC11F000013751A2
:10370000381139110FE00EEC22F0A6EC20F0010E7A
:10371000E66E39C0FBFF38C0FAFF3751140045E9A7
:1037200000090CE131DE000909E1DB0EE66E190E3D
:10373000E66E010E7BEC21F02DEC12F00CEC12F099
:103740000B01416B426B43CBE9FF44CBEAFFEF6ACD
:103750001200A3EC1FF085E90B0100512FE001518D
:103760002DE1800E0B01C01529E10B01C3BF03D071
:103770000B01450EC46FF0EC11F094EC22F0820EB8
:10378000E66EB70EE66E000E6EEC22F071EC21F0E4
:10379000CEEC21F0790EE66EB70EE66E000E6EEC02
:1037A00022F09B0E0024E96E000E0120EA6EEF6A03
:1037B00083EC21F0CEEC21F013EC22F041E9E7CFCD
:1037C000D9FF1200C0DB84E944E8066A076A0B01EE
:1037D000005101E176D00150021073E0005071E019
:1037E0000050E66EE66A220EE66E53EC20F0DCEC4A
:1037F0007FF045E9F350066EF450076E065007104F
:103800002FE0062A000E0722050140EC21F0CC51E2
:10381000005E86EB01F087EB02F0BAEC20F0EF508F
:103820001CE0BAEC20F0EF50220817E040EC21F049
:103830000050D890CDBF03D0CC5D000ECD590DE225
:10384000BAEC20F0EF502C0804E1BAEC20F02E0E78
:10385000EF6E062A000E0722E0D7BAEC20F0EF6ADE
:10386000290EE66EE66AD90EE66EB80EE66E000E1A
:1038700080EC21F0065007100DE053EC20F0750E9F
:10388000E66EB70EE66E000EE66EBCEC21F056EC6E
:1038900022F007D05E0EE66EB70EE66E000E80ECEC
:1038A00020F0A5EC22F00B01015104E0E0EC20F047
:1038B000046A056A92EC20F00450051002E1E0EC85
:1038C00020F045E9E7CFD9FF12003DDB83E94CE862
:1038D00000017B51036E7C51046E00017951056E2D
:1038E0007A51066E0001BB51076EBC51086EBD5186
:1038F000096EBE510A6E5A0E0B6EB70E0C6E000E9C
:103900000D6E4B0E00010F5D23E197DBA3EC21F060
:103910000501CC51036ECD51046E8BEC21F0A3EC6C
:1039200021F00501CC51056ECD51066EDAEC20F088
:10393000ECDA0501CC51076ECD51086ECE51096EFF
:10394000CF510A6E560E0B6EB70E0C6E000E0D6E3A
:103950000001E43532E2A9C0E6FFAAC0E6FF4B0E43
:10396000E66EB70EE66E000EC4DAE7C0E6FFE8C00A
:10397000E6FF480EE66EB70EE66E000EBADAE4C059
:10398000CCF50501CD6BCCBFCD69D8DA440EE66E1F
:10399000B70EE66E000EADDAE9C0E6FFEAC0E6FF5C
:1039A0003B0EE66EB70EE66E000EA3DA2E0EE66E46
:1039B000B70EE66E000EE66EA0DA000171A5B5D076
:1039C000010E0E6E00016851040A18E0070A10E0AB
:1039D000020A08E0010A19E1220EE66EB70EE66E51
:1039E000000E11D0170EE66EB70EE66E000E0BD06D
:1039F0000E0EE66EB70EE66E000E05D0FF0EE66EFA
:103A0000B60EE66E000EE66E78DA000166510F0A19
:103A100020E0020A18E0090A10E0060A08E0030A9A
:103A200020E1F60EE66EB60EE66E000E17D0EA0E38
:103A3000E66EB60EE66E000E11D0DE0EE66EB60E27
:103A4000E66E000E13D0D40EE66EB60EE66E000ED5
:103A500005D0C20EE66EB60EE66E000ED9EC22F070
:103A600008D0B30EE66EB60EE66E000ED9EC22F06C
:103A70000E6A0E5061E060C0E6FF61C0E6FFAEEC8A
:103A800022F037DA00016251E66EE66AAD0EE66EAC
:103A9000B60EE66E000E2DDAAB0EE66EB60EE66ED4
:103AA000000ED9EC22F00001DA350BE2D9C0E6FFB6
:103AB000DAC0E6FFA20EE66EB60EE66E000E52EC1F
:103AC00022F00001E151000811E2E151E66EE66AE0
:103AD000AEEC22F00EDADDC0E6FFDEC0E6FF980EA7
:103AE000E66EB60EE66E000E52EC22F00001DF51DB
:103AF0000008000EE05520E24B0E00010F5D03E1CF
:103B0000C1EC22F001D081DB19DAAEEC22F0B4EC8A
:103B100021F0DBC0E6FFDCC0E6FF950EE66EB60ED8
:103B2000E66E000EE6D958DB05D0880EE66EB60EBE
:103B3000E66E000EE66EE1D9BDDB800EE66EB60ED7
:103B4000E66E000ED6D97E0EE66EB60EE66E000E5E
:103B5000D9EC22F00550061008E0DDDB6E0EE66EB3
:103B6000B60EE66E000EB4EC21F00350041007E030
:103B700064DA5F0EE66EB60EE66E000EF5DB0750F9
:103B8000081009100A100AE0E6DA14DB570EE66E98
:103B9000B60EE66E000ECFDAD1EC22F00001D7515E
:103BA000D8110AE030EC22F0E66AE66A4F0EE66EC3
:103BB000B60EE66E000EBFDA00EBF3FF01EBF4FF8A
:103BC0004DE9E7CFD9FF1200BED985E95BE80001D6
:103BD0007951056E7A51066E076A086A096A0A6A9F
:103BE0000001D7510B6ED8510C6E000160510D6E63
:103BF00061510E6E000163510F6E106A0001915108
:103C0000116E9251126E00016851136E146A156A9A
:103C1000166A000140514111421109E13D0EE66E64
:103C2000B60EE66E000EE66EE6EC22F023D10050F2
:103C3000011001E17ED067DB2FDB1B6EF4501C6EA0
:103C400062DB10EC82F042E91C346AE21B5000088F
:103C5000000E1C5465E20501DBD9EF501F6ED8D968
:103C6000EF6A1C344BE21B500108000E1C5446E264
:103C70004ADBC2DAF3501D6EF4501E6E1F50440A28
:103C800038E0070A2AE0020A23E0170A1CE0010ACA
:103C900015E0720A0EE0600A07E0160A3DE19DEBAE
:103CA00005F09EEB06F038D09DEB07F09EEB08F098
:103CB00033D09DEB09F09EEB0AF02ED09DEB15F072
:103CC0009EEB16F029D09DEB0DF09EEB0EF024D06C
:103CD0009DEB0FF09EEB10F01FD0640EE66EE66ACF
:103CE0001DEBE6FF1EEBE6FFE0DA0C6EE7500B6E15
:103CF00013D09DEB11F09EEB12F00ED01F50500A26
:103D000008E0020A04E0010A07E1136A04D0030E86
:103D100001D0040E136E146A05017AD91FEBEFFF70
:103D2000F2DA8DEC4AF042E9F350006EF450016E85
:103D30007ED70E3418E20D500008000E0E5413E228
:103D4000103411E20F500008000E10540CE20FEB7B
:103D5000E6FF10EBE6FF0DEBE6FF0EEBE6FFA5DA64
:103D6000166EE750156ED890165004E6E80E155CF6
:103D7000030E165806E2240EE66EB60EE66E000E30
:103D800063D0D950170FE66EDACFE6FF11EBE6FFEE
:103D9000F6D909EBE6FF0AEBE6FFF6DABCDA15EB3B
:103DA000E6FF16EBE6FF13EBE6FF42C0FBFF41C068
:103DB000FAFF0001405114004EE9F350196EF4501F
:103DC0001A6EA9DA91D917EBE6FF18EBE6FF1F0E82
:103DD000E66EB60EE66E000EE66E9FDB140EE66E25
:103DE000B60EE66E000EE66EB8D81A3422E22EDA6F
:103DF0009BEC56F079D9300EE66E020EE66EE66A5E
:103E000025DA9EEC56F0E552E5CFCDF5E7CFCCF5BF
:103E100078DBCDAF02D0CE69CF6965DB120EE66EDE
:103E2000B60EE66E000EE66E5CDAE8EC43F04CE9A6
:103E30001CD0FD0E19180BE1FF0E1A1808E1030E35
:103E4000E66EB60EE66E000EE66EC0DB0ED019EB27
:103E5000E6FF1AEBE6FFFB0EE66EB50EE66E000E11
:103E6000E66E3FDA17EC43F047E940DA02EBF3FF86
:103E700003EBF4FF5CE9E7CFD9FF12003CDB42E83B
:103E800053DBF350B2DA21DD42E9D3D0D5DA42E890
:103E90000B01C0B70BD0F0EC11F046DB27DA00EBDA
:103EA000E6FF1FDA34EC0FF043E9BDDAC2D04BD89D
:103EB00087E942E8F0EC11F0890EE66E0B0EE66E33
:103EC000F30EE66EB50EE66E000E76DBB7D954DA69
:103ED000E66AE66ABDD800EBE6FFE5D803EBE6FF4D
:103EE000B7D8A1DAA6D062DB6ADB84D2F7D98DEF2E
:103EF00022F0E66E08DA63DB7FD205DA2BDB7CD2B8
:103F0000000EE66E070EE66E12009AEC3EF044E9F3
:103F1000FBC7CCF5FCC7CDF5FDC7CEF5FEC7CFF589
:103F20001200DCD9F8D94BDB6CD2E0DAEF5012008A
:103F30004ADB42EC43F049E976EF21F0CCC5E6FFDD
:103F4000CDC5E6FF1200D9CFE6FFE1CFD9FF1200C1
:103F5000E66E1ADA34DBC9EF21F038DB76EF21F0B8
:103F600022EC81F042E917EF22F0E66AE66A1EDBF6
:103F700024EC44F04BE93ED2E66EB0D9CDEF22F00E
:103F800022DB24EC44F04BE976EF21F0000EE66EE4
:103F9000030EE66EFC0EE66E040EE66E12005EEC9C
:103FA00086F041E976EF21F0CEC5E6FFE5EC7CF046
:103FB000E552E7CFCEF5E552E7CFCDF5E552E7CFB5
:103FC000CCF535DA9EEC56F0E552E5CFD0F5E7CFEB
:103FD000CFF50501D16B1200F2DA29DAAAEF22F04F
:103FE0000501002844EF22F0A3D9E66E8DEF22F000
:103FF0007DDA8FDAEF6A0EEF22F0E66E00EBE6FF75
:1040000015EC13F043E912006CD9D0DA4FDAF2D193
:104010001B04CC6F000E1C58CD6FCC510024E96EF0
:10402000CD510120EA6E1200E66E51EC02F043E938
:10403000120043E9E7CFD9FF120003EBE6FF04EBE0
:10404000E6FF12004BD967D917EC45F049E9D9D101
:1040500045D99AD942EC43F049E9C9EF21F0100E55
:10406000E66EE66A09EF22F004EBE9FF05EBEAFFF2
:10407000042A000E0522120003EBE9FF04EBEAFF1D
:10408000EF501200CC51CF25F36ECD51D021F46EFC
:10409000CE51D121F86EF4CFF7FFF3CFF6FF080031
:1040A000F550E66E120001EBE6FF02EBE6FF1200B0
:1040B000F350036EF450046E12000E0EE66E5EECCA
:1040C00086F041E9B4D967EF22F0EA6A0234FE0BC8
:1040D000E96EEA36AD0EE926000EEA22EECFCCF507
:1040E000EFCFCDF50501120010DA8DEF22F0000EB2
:1040F000E66E010EE66EF80EE66E040EE66E120037
:10410000E66E3AD9AAEF22F0E66E5EEC86F041E95F
:1041100078D1000EE66E020EE66EFA0EE66E040E22
:10412000E66E1200F0EC11F013EF22F000EBE9FF65
:1041300001EBEAFF1200E66EE6D888EC44F04BE9AA
:104140005BD1000EE66E060EE66E120041CBE6FF76
:1041500042CBE6FF1200010EE66EE66A12000E0E7A
:10416000F66E000EF76E000EF86E0800F550E66E63
:10417000E66A120006EBE9FF07EBEAFF12000BEB21
:10418000E6FF0CEBE6FF120047EC8AF048E912006C
:104190008ECBE6FF8FCBE6FF90CBE6FF91CBE6FF21
:1041A000120003EBE9FF04EBEAFF032A000E0422EE
:1041B000EF6A1200E9D809EBE6FF0AEBE6FF12000E
:1041C000140EE66EDEEC3DF041E912003D0EE66EA7
:1041D000190EE66E010E12009C0EE66EB60EE66E2D
:1041E000000E1200020EE66E0B0EE66E120041E9A2
:1041F000016E01EBE6FF12004FEC7AF042E912008B
:1042000070D8DDEC02F042E91200DFC0CCF5E0C06E
:10421000CDF581EF22F017EC45F049E976EF21F07A
:10422000B9C0CCF5BAC0CDF581EF22F0E66E01EB56
:10423000E6FFE3EC16F044E9016E120037D9C9EF4E
:1042400021F0ECD8DDEC02F042E912003C0EE66E03
:10425000E66A19EBE6FF1AEBE6FF12005CD807EB03
:10426000E6FF120010C0E6FF11C0E6FF12C0E6FF35
:1042700012000150EA6AB20FE96E0B0EEA22120038
:104280000150065CCC6F02500758CD6F1200E80E4B
:10429000E66E040EE66E120022EC81F042E9F35065
:1042A000120044E9E7CFD9FF120053EC58F0E55271
:1042B000E550120000017851E66EE66A1200CEC5A4
:1042C000E6FFCFC5E6FF1200190EE66E0B0EE66E96
:1042D00012004351026E4451036E12002CD9E66E57
:1042E000120002EBE6FF03EBE6FF1200F350026E52
:1042F000F450036E1200E66E37D95ED9ECEF1FF072
:1043000010D9A5EF22F000EBE6FF01EBE6FF12006B
:1043100053D9AAEF22F005EBE6FF06EBE6FF120009
:10432000E66EE66A73EF1FF0E66EE66A76EF1FF060
:10433000F86E0800F550E66EE66A2D0EE66EB80ED1
:10434000E66E000E1200E66AE66A85EF1FF00501D0
:104350007C0ECC6F1A0ECD6F010ECE6F400EE66E46
:10436000E66AECDDD4EF1FF0C4DDD1EF22F00701E7
:10437000006BF1DE80EF1FF004EBE6FF05EBE6FFDC
:104380001200DCDD73EF1FF007EBE6FF08EBE6FF42
:104390001200F350076EF450086E1200B1DD5EECAF
:1043A00080F044E91200100EE66EE66A70DFEEDD82
:1043B000DAEC89F048E91200C1DD76EF1FF0E66E15
:1043C000E66AB9D8A8EF1FF02DEC12F0AFDE04EBCF
:1043D000EEFF05EBEDFF120092CBE6FF93CBE6FF7D
:1043E00094CBE6FF95CBE6FF1200016EF450026E0F
:1043F00053EF20F0A5EF22F0F350006EF450016E61
:104400001200F350056EF450066E1200BFDDC4EFCB
:1044100020F0D80EE66E040EE66E120043CBE6FFE7
:1044200044CBE6FF12002DEC12F00CEF12F0F3CFAC
:10443000E6FFF4CFE6FF120086DD82E9120075DDAB
:104440002C081200B60EE66EB80EE66E000E14EFE3
:1044500020F0AC0EE66EB80EE66E000E14EF20F003
:10446000020EE66EE66AD7C0E6FFD8C0E6FF12008D
:10447000E4DDA5D858EF20F0E66EE66A280EE66E79
:10448000B80EE66E000E1200CC6F000E0120CD6F4C
:10449000CCC5E6FFE66E1200ABDDAEDEF350016E7A
:1044A000D890120026DD98DED9EF22F0F7EC42F02A
:1044B00047E9120025DD54DD80EF1FF021DEA5EF76
:1044C00022F011DD7BC0E6FF7CC0E6FF12002B0E60
:1044D000E66EB80EE66E000EE66E12006DD882EC47
:1044E00080F045E912002ADD5FEF21F002EBE9FFE1
:1044F00003EBEAFF120027DD81E91200E66ECFEF41
:104500001FF00501CE6BCF6B1200E66AE66AE66A21
:104510001200022A000E03221200E3DE50D876EFCA
:1045200021F04AD8DFEF22F08D0EE66EB70EE66E70
:10453000000E88EF21F0A30EE66EB80EE66E000EB8
:104540001200E9DE0DDD8BEF21F0F350046EF45024
:10455000056E1200C0EC42F045E91200B00EE66EA6
:10456000B60EE66E000E1200F1DD360EE66E190E86
:10457000E66E010E1200E7DEFBC7E6FFFCC7E6FFB2
:104580001200DFC0E6FFE0C0E6FFA3EF21F0B9C0F4
:10459000E6FFBAC0E6FFA3EF21F0A3DE87DF76EFE8
:1045A00021F0EDDD0DEBE6FF7DEF1FF097DEBCEFB8
:1045B00021F0E66E7DEF1FF0E66E80EF1FF017EC46
:1045C00043F047E912008ADE71EF21F08ADEAAEF9C
:0245D00022F0D7
:0E45D200FCEC2EF081E947E80001025101E007
:1045E00032D3010E031901E02ED300010651A60AB1
:1045F00001E122D3030A01E1F6D2010A01E1E9D285
:10460000070A01E1D1D23D0A01E1A1D2080A01E184
:1046100028D2030A01E1DCD11A0A01E1B9D11C0A4E
:1046200001E14CD11A0A01E105D1010A01E1ECD006
:104630000D0A01E1B5D0010A01E191D0070A6EE04F
:10464000010A62E0030A3FE0010A17E0860A01E07E
:104650000DD31B0E075D03E10AC0BFF00AD01A0E8E
:10466000075D01E003D30A51F3500B250001C06F31
:10467000C16B0001010EC76FF9D207C078F0ADEC35
:104680002EF00001796F000E0B01462100017A6FB8
:104690009BEC2FF000017B6F000E0B014621000107
:1046A0007C6F000179517008170E7A5502E2796B20
:1046B0007A6B00017B517008170E7C5501E3D6D24E
:1046C0007B6B7C6BD3D2D6EC2EF004E00B0150EC6C
:1046D0002FF0FDE170EC2EF004E00B0157EC2FF011
:1046E000FDE179EC2EF004E00B0171EC2FF0FDE11F
:1046F0000B0109EC2FF045CB88F046CB89F047CB76
:104700008AF048CB8BF0B2D207C091F00001926BD7
:1047100091BF92690001780EC36FA8D2D6EC2EF03B
:1047200004E00B0150EC2FF0FDE170EC2EF004E002
:104730000B0157EC2FF0FDE179EC2EF004E00B01BA
:1047400071EC2FF0FDE10B0109EC2FF045CB8EFB56
:1047500046CB8FFB47CB90FB48CB91FB87D2D6EC67
:104760002EF004E00B0150EC2FF0FDE170EC2EF088
:1047700004E00B0157EC2FF0FDE179EC2EF004E0A2
:104780000B0171EC2FF0FDE10B0109EC2FF045CB93
:1047900092FB46CB93FB47CB94FB48CB95FB66D271
:1047A00007C0C2F00001C2512CE0ADEC2EF00B01AD
:1047B000966F000E0B0146210B01976F680E96193C
:1047C00005E1010E971902E1966B976BF00E00015F
:1047D0000B1504E00B01986B996B0FD00BC046FBD7
:1047E0000B01456B00010A510B0145250B01986F28
:1047F000000E0B0146210B01996F0001780EC56F69
:1048000035D20001C56B32D20001635100010C5D4D
:1048100003E0020E6AEC2EF007C062F00CC063F0F9
:10482000ADEC2EF00001646F000E0B01462100017B
:10483000656F1CD24D0E00010F5D03E107C077F0DC
:1048400033D04AEC30F0490EE66E060EE66EE66AAC
:10485000E66A07C0E6FFE66A90EC30F0E552E5CF85
:104860004CFBE5CF4BFBE5CF4AFBE7CF49FBF40E12
:104870000B014927010E4A23000E4B234C2349CB41
:10488000E6FF4ACBE6FF4BCBE6FF4CCBE6FF7DECE9
:1048900057F0E552E5CF48FBE5CF47FBE5CF46FBB8
:1048A000E7CF45FB45CB77F0ADEC2EF00001606F14
:1048B000000E0B0146210001616FD8D10751016E36
:1048C000ADEC2EF0026E000E4621036E0DC045FBCE
:1048D000466B476B486B180E1F0B08E00B01D89016
:1048E0004537463747374837E806F9E10CC049FBFA
:1048F0000B014A6B4B6B4C6B100E1F0B04E00B0152
:1049000050EC2FF0FDE155EC30F00BC04DFB4E6B41
:104910004F6B506B080E1F0B04E00B0157EC2FF090
:10492000FDE15FEC30F00AC051FB526B536B546BEE
:1049300009EC2FF04551046E4651056E4751066E45
:104940004851076E021C01E1031C01E18FD1140ED6
:10495000015C0BE1190E021808E1035006E1D7ECE7
:104960002FF077EC03F046E902D001A00BD004EB66
:10497000E6FF05EBE6FF04EC30F002EBE6FF03EBAD
:10498000E6FF02D0D7EC2FF077EC03F046E96ED1CA
:104990009BEC2FF0026E000E4621036E02500310B6
:1049A00005E00001758F0A016C6960D10001E435F2
:1049B0000CE200017551800B08E00001E42B0A01B4
:1049C0003C0E6C6F020E6AEC2EF00001759F4ED10A
:1049D000000166510001075D0EE00001665102080A
:1049E00003E20F0E665D07E1040E0001075D03E0C0
:1049F000040E6AEC2EF0000166510001075D05E12E
:104A0000000167510001085D09E0020E6AEC2EF01A
:104A10000001070503E10A01020E766F07C066F088
:104A200008C067F00B01C0A104D00F0E00010A15E9
:104A300004D000010B390F0B0F0B016E0001685100
:104A4000015C05E001EB68F0020E6AEC2EF009C093
:104A500069F000010D510A0DF3CF6AF0F4CF6BF04D
:104A600005D10F0E0001665D02E10001078900011A
:104A700007510001715D0FE1000108510001725DF5
:104A80000AE1000109510001735D05E100010A51CD
:104A90000001745D03E0010E6AEC2EF0800E00014F
:104AA00072150AE1800E0001081506E0100E0815C7
:104AB00003E0100E6AEC2EF0020E0001741507E1FF
:104AC000020E00010A1503E0200E6AEC2EF007C06A
:104AD00071F008C072F009C073F00AC074F00EECF7
:104AE00030F01EE100018C518D118E118F1118E1F3
:104AF0000001885189118A118B1112E00A01020EFE
:104B0000766F88C08CF089C08DF08AC08EF08BC023
:104B10008FF000018C07000E8D5B8E5B8F5B13D0D6
:104B20000EEC30F001E1A2D000018C518D118E11FC
:104B30008F1101E19BD00A01020E766F00018C6B90
:104B40008D6B8E6B8F6B010E6AEC2EF08FD00A018D
:104B5000760502E1030E766FE66A010EE66E00014D
:104B60000851640DF3CF47FBF4CF48FB800E0B01D7
:104B70004727000E482347CBE6FF48CBE6FFE3EC90
:104B800056F0E552E5CF46FBE7CF45FB0001095162
:104B9000640DF3500B0145250001D76FF4500B0154
:104BA00046210001D86F62D007C0A5F00001A66BB6
:104BB000A5BFA669000108510001A76FA86B0CC032
:104BC000A9F00001AA6BA9BFAA690001780EC46F01
:104BD0004DD0016A070E015C49E2A4EC2FF00150B0
:104BE00080EC2FF0F7D7016A070E015C07E2A4EC16
:104BF0002FF0070E012480EC2FF0F6D7410E0001B4
:104C0000095D03E0420E095D03E10B01320E02D0A3
:104C10000B01310E8B6F380E0001095D02E10B01B3
:104C2000C081330E0001075D03E10B01530E02D07A
:104C30000B014E0E8C6F1AD007C0A1F008C0A2F075
:104C400009C0A3F013D0020E021910E1010E0319DE
:104C50000DE1000106510E0A09E107510001765DE0
:104C600003E0010E6AEC2EF007C076F0010E48E971
:104C7000E7CFD9FF12000001025142E1040E0319EF
:104C80003FE1020E0001065D01E0CCD0010E0B01F8
:104C9000BF1501E1C7D0010EC01501E0C3D00EEC75
:104CA00030F001E1BFD0000108510001775D01E162
:104CB000B9D00B01C151000801E3B4D006C06DFAB0
:104CC00007C06EFA77C06FFAF00E000109150A01ED
:104CD000706F0AC071FA0BC072FA0CC073FA0DC083
:104CE00074FA0F0140B7FDD7E4EC2EF00A01050E6F
:104CF000756F75510A0801E395D00A0E756F010CA6
:104D0000440E021937E1030E031934E10001095181
:104D1000000808E208C0B5F009C0ADF00001AE6BB4
:104D2000ADBFAE6900010D51000808E20CC0B6F03D
:104D30000DC0AFF00001B06BAFBFB069000107510B
:104D4000000808E206C0B7F007C0B1F00001B26B7E
:104D5000B1BFB26900010B51000808E20AC0B8F007
:104D60000BC0B3F00001B46BB3BFB4690001780E9F
:104D7000C66F010C020E021955E1040E031952E12F
:104D800000010651FA0A4EE109C055FB0B01566BB2
:104D9000576B586B0AC059FB5A6B5B6B5C6B080E08
:104DA0001F0B08E00B01D89059375A375B375C3737
:104DB000E806F9E10B01595155275A5156235B5129
:104DC00057235C5158230BC05DFB5E6B5F6B606BC0
:104DD000100E1F0B08E00B01D8905D375E375F3770
:104DE0006037E806F9E10B015D5155275E51562306
:104DF0005F5157236051582355CBBBF056CBBCF0C5
:104E000057CBBDF058CBBEF00DC056FB556B000123
:104E10000C510B0155250001B96F000E0B015621F5
:104E20000001BA6F010C0A01755102E1050E756FA0
:104E3000000C0A017651010826E20B01C15103E181
:104E40000A01766B20D0020E0A01765D0AE1010E9E
:104E5000766F0F0140B7FDD773EC30F08AEC2FF07E
:104E600012D0030E765D0FE1766B0F0140B7FDD7D0
:104E7000A2EC30F0476B486B8AEC2FF063EC2DF01E
:104E8000020E6AEC2EF00A01755101E1000C020ECF
:104E90006D5D18E1010E0B01BF1514E0010EC01588
:104EA00011E10EEC30F00EE00B01C15100080AE2F6
:104EB000010EE66EEFEC8DF041E90F0140B7FDD732
:104EC000E4EC2EF00A017507000C0F0140B7FDD786
:104ED00064EC2EF00A0E466F010E456F080E406F0F
:104EE00040B7FED712000F0140B7FDD7A2EC30F05B
:104EF0002C0E476F010E486F496B4A6B090E4B6FC2
:104F0000100E4C6F4D6B080E456F406F40B7FED7CB
:104F100012000F0140B7FDD773EC30F0496B4A6BBC
:104F2000800E4B6F4C6B080E4D6F456F406F40B756
:104F3000FED7120046EC30F00F0140B7FDD751EC20
:104F400030F0190E01EC2FF040B7FED77CEF2FF0B8
:104F500046EC30F00F0140B7FDD751EC30F0020EB7
:104F600001EC2FF040B7FED77CEF2FF046EC30F08D
:104F70000F0140B7FDD751EC30F0030E01EC2FF0DC
:104F800040B7FED77CEF2FF0FCEC2EF084E944E82C
:104F900041EC30F0C4EC7AF042E9FBC7CCF5FCC739
:104FA000CDF5FDC7CEF5FEC7CFF50501CC51046E9A
:104FB000CD51056ECE51066ECF51076E020E025CCA
:104FC00003E10EEC30F06EE10F0140B7FDD764EC69
:104FD0002EF00B0E466F02EB47FF486B496B3EEC21
:104FE0002FF00501CC510F014A6F3EEC2FF0080E57
:104FF0000501EFEC2FF0FDE10501CC510F014B6FE6
:105000003EEC2FF0100E0501EFEC2FF0FDE1050155
:10501000CC510F014C6F41EC30F022EC81F042E9B1
:10502000F3CFD0F5F4CFD1F5040EF3CFCCF5F4CF18
:10503000CDF5000A06E00501D890CC37CD37E8045D
:10504000FBE10501CE6BCF6B04EBD2F505EBD3F59D
:1050500006EBD4F507EBD5F5180ED890D533D4333D
:10506000D333D233E806F9E105010F0ED66FD76BC3
:10507000D86BD96BD651D217D751D317D851D41773
:10508000D951D517D251CC27D351CD23D451CE23CA
:10509000D551CF23CCC54DFF0F01080E456F406F92
:1050A00040B7FED745E9E7CFD9FF1200FCEC2EF060
:1050B00084E90BDF0F0140B7FDD751EC30F01B0E38
:1050C000476F486B496B02EB4AFF4B6B81EC30F04A
:1050D00040B7FED7020414E151EC30F01A0E476FCE
:1050E000486B496B050101EBCCF5CD6BCC510F0141
:1050F0004A6FFF0E00144B6F81EC30F040B7FED7C3
:105100007CEF2FF046EC30F00F0140B7FDD764EC98
:105110002EF0090E466F476B00EB48FF030E456FFC
:10512000080E406F40B7FED77CEF2FF0FCEC2EF05E
:1051300081E944E800017151100B02E0010E01D039
:10514000000E0001EB6F68C0E5F063C0E6F00F0EE3
:10515000E66E5EEC86F041E9F350016EF450026EAB
:10516000F6EC2FF001EBE6FF02EBE6FF91EC2FF0FF
:1051700015E0DFEC2FF0F3CFE7F0F4CFE8F0F6EC3A
:105180002FF0000EE66EE66A91EC2FF00BE0DFECFC
:105190002FF0F3CFE9F0F4CFEAF008D01F0E0001B2
:1051A000E76FE86B3C0E0001E96FEA6B0001AA357E
:1051B000AA510001E81902E6ADEC2FF02DE2000142
:1051C0007151800B29E17151040B26E07EDE0A0E3D
:1051D00094EC30F0036A046A020ED89004BE03D047
:1051E000035C000E045813E20D0EE66EB1DE78EC9F
:1051F0002FF0030EE66E9EDE78EC2FF0010EE66EC9
:10520000B5DE78EC2FF0032A000E0422E5D781DE0C
:105210000001E46B0A016C6945E9E7CFD9FF120090
:10522000FCEC2EF086E943E8086A02EBF3FF03EB9F
:10523000F4FF190EF31801E1F45001E113D1180E37
:10524000F31801E1F45001E105D1170EF31801E163
:10525000F45001E1E6D0160EF31801E1F45001E13B
:10526000D9D0150EF31801E1F45001E1CCD0140EA1
:10527000F31801E1F45001E1BFD0130EF31801E17E
:10528000F45001E1B4D0120EF31801E1F45001E141
:10529000A9D0110EF31801E1F45001E17AD0100EFB
:1052A000F31801E1F45052E00F0EF31801E1F4504D
:1052B00046E00C0EF31801E1F4502DE00B0EF3184C
:1052C00001E1F4500FE00A0EF31801E1F45002E09E
:1052D000000EE5D00B01C15101E1C7D0F9EC2EF071
:1052E00029DEBED00B01C15101E1BFD0040E000187
:1052F00071150BE0070E0001675D07E0010EE66E19
:1053000035DE41E90601FC6BB7D0860EE66E190E5C
:10531000E66E010EB6D00B01C15101E1A6D000012D
:1053200071A907D0E66A22DE41E906011E0EFC6F74
:10533000A3D0AC0EE66E190EE66E010EA2D00B01E4
:10534000C15101E192D041EC30F01FD00B01C151AD
:1053500001E18BD080EB06F081EB07F023EC2FF01E
:1053600008E023EC2FF02C0804E0062A000E0722A8
:10537000F5D723EC2FF02C082FE1B6EC2FF0F9EC49
:105380002EF0D8DD41E904EC30F084EC30F0E0DDC3
:1053900067D00B01C15169E080EB06F081EB07F0AB
:1053A00023EC2FF008E023EC2FF02C0804E0062A71
:1053B000000E0722F5D723EC2FF02C080DE1B6ECF8
:1053C0002FF004EC30F084EC30F0F4CFE6FFF9EC91
:1053D0002EF06CDE43E950D0400EE66E190EE66EFC
:1053E000010E4FD00B01C15140E06FDD03D00B0126
:1053F000C1513BE078DD40D00B01C15115E041ECDB
:1054000030F0020E1AD00B01C1510EE041EC30F029
:10541000E66A14D00B01C15107E041EC30F0030EF5
:105420000CD00B01C15106E1520EE66E190EE66E6C
:10543000010E0BD041EC30F0010EE66EA5DD43E924
:105440003D0EE66E190EE66E010EBFEC2EF0010E5B
:10545000086E19D00B01C15108E0F9EC2EF052DEB4
:1054600041E90AD00B01C15106E1520EE66E190E58
:10547000E66E010E06D05ADE3D0EE66E190EE66EA1
:10548000010EBFEC2EF0045009E02DEC12F0020EDC
:1054900094EC30F0E66AE8EC15F041E9010E44E9DD
:1054A000E7CFD9FF1200FCEC2EF08FE964E87F0E05
:1054B0000601C85D33E10D50E66EE66AF20EE66E57
:1054C000BD0EE66E000E62EC2FF009EBE6FF0AEB74
:1054D000E6FFDBDB07EBE6FF08EBE6FFD6DB05EBE1
:1054E000E6FF06EBE6FFD1DB03EBE6FF04EBE6FFAE
:1054F000CCDB0BEBE6FF0CEBE6FFC7DB02EBCCF5FE
:105500000501CD6BCCBFCD6909EC30F0BEDBEB0EF5
:10551000E66EBD0EE66E000E12EC2FF00350041086
:1055200004E1800E036E3E0E046E063404E2055064
:105530000008000E065403E3640E056E066A0D5063
:10554000040A5CE0070A34E0030A0AE0640E0D2452
:105550000501CC6FCD6BCC6DCD1F000ECD237CD261
:105560009AEC2EF0D5AF02D0D669D769B6EC2EF002
:10557000A50EE66E040EA9EC2EF0800E0501D027D4
:10558000380ED123010ED223000ED32339EC30F094
:10559000BF0E1D6E1E6AA90E216E226ACA0E236EF0
:1055A000030E246E256E266A410E276E4D0E4BD0DB
:1055B000C1DBD5AF02D0D669D769D8DB0A0EE66E5B
:1055C000060EC7DB200E0501D05F300ED15B050E45
:1055D000D25B000ED35B39EC30F0F40E1D6E1E6A08
:1055E000D70E216E226ABC0E236E3C0E246E030E73
:1055F000256E266A470E276E600E25D09BDBD5AF41
:1056000002D0D669D769B2DB580EE66E050EA1DB73
:10561000D00E0501D05FFB0ED15B010ED25B000EF8
:10562000D35B39EC30F0DA0E1D6E1E6AA70E216EC8
:10563000226A940E236E8C0E246E060E256E266A48
:10564000520E276E5A0E286E083404E207500008E6
:10565000000E085420E3640EE66EE66A05EBE6FFF2
:1056600006EBE6FF1FEBE6FF20EBE6FF53EC58F0FE
:10567000E552E5CFCDF5E7CFCCF5320E0501CC27CD
:10568000000ECD2309EC30F09BEC56F0E552E550CE
:10569000086EE750076E0050011008E000EBE9FFCC
:1056A00001EBEAFF07EBEEFF08EBEDFF0C3404E241
:1056B0000B500008000E0C5402E3FE0ED5D0083447
:1056C0000A50081804E60750095C08500A5802E31B
:1056D000FD0ECAD0023405E202503C0802E23C0E44
:1056E000026E0501E7EC2FF00926CD510A22E7EC06
:1056F0002FF00726CD51082208341E50081804E662
:1057000007501D5C08501E5804E29DEB07F09EEB0D
:1057100008F0D8900C5004E6FC0E0B5C080E0C58F8
:1057200007E3200ECC6F010ECD6FCE6BCF6B0FD089
:10573000E90ED06F020E97DBD9AF02D0DA69DB69D0
:10574000A6DBC70EDFDACE6FD751D359CF6FCC515E
:105750000F6ECD51106E040ED06F0E0E84DBD9AFDC
:1057600002D0DA69DB6993DBFA0ECCDAD751D35970
:10577000CC51116ECD51126E123402E3116A126ACD
:105780000FEBCCF510EBCDF5CE6BCF6BCDAF02D0E0
:10579000CE69CF694AEC30F002EBD8F5D96BDA6B01
:1057A000DB6BD8AF03D0D969DA69DB6970DB11EB49
:1057B000D4F512EBD5F5D66BD76BD5AF02D0D66941
:1057C000D769D4DAE7EC58F01FEC57F069EC30F009
:1057D0000501D051CC27D151CD23D251CE23D35165
:1057E000CF23CC51136ECD51146E0BEBD4F50CEBD3
:1057F000D5F5D66BD76BD5AF02D0D669D769B6DAF7
:10580000100EE66E0E0EE66EE66AE66A13EBD0F553
:1058100014EBD1F5D26BD36BD1AF02D0D269D3697F
:105820001CEC30F0E7EC58F09EEC30F00501CC5168
:10583000156ECD51166ECE51176ECF51186E9FDB7F
:10584000E20EE66EE6681D0E39DBD8900501CF51F9
:10585000000A08E6F40ECC5D000ECD59000ECE59BC
:10586000000ECF5904E2FC0EF36EF468F9D0196A09
:105870001A6A1B6A1C6A22340A50221804E6215054
:10588000095C22500A582EE222340850221804E6FD
:105890002150075C2250085805E207EBCCF508EBD5
:1058A000CDF504D021EBCCF522EBCDF5CC512B6E10
:1058B000CD512C6E09502B5CD06F0A502C58D16FF3
:1058C000D26BD36BD1AF02D0D269D369B5DB57DBD2
:1058D000E7EC58F0A7DBD950190FE96EDACFEAFFF1
:1058E000050156DB08342250081804E60750215CF5
:1058F0000850225801E39DD00A3422500A1804E6C9
:105900000950215C0A50225805E209EBCCF50AEB5C
:10591000CDF504D021EBCCF522EBCDF5CC512D6E9D
:10592000CD512E6E0C340AE20B50D008070E0C54E9
:1059300005E2D00ED06F070ED16F04D00BEBD0F57F
:105940000CEBD1F5D26BD36BD1AF02D0D269D36956
:1059500073DB480EE66E0B0EE66E110EAFDA050134
:10596000CC512F6ECD51306E08342E50081804E6FD
:1059700007502D5C08502E585CE22DEBE6FF2EEB15
:10598000E6FF640EE66EE66A53EC58F00501FE0E83
:10599000E350275CD06F41E9E5502858D16FD26BB6
:1059A000D36BD1AF02D0D269D36946DB23EBE6FFDC
:1059B00024EBE6FF25EBE6FF26EBE6FFBFDB050168
:1059C000CC51316ECD51326E323409E23234305026
:1059D000321804E631502F5C3250305805E2AFEBFC
:1059E00031F0B0EB32F016D008DBCDAF02D0CE698B
:1059F000CF691834CF51181808E61550CC5D1650F1
:105A0000CD591750CE591850CF5904E295EB31F0CB
:105A100096EB32F0F2DACDAF02D0CE69CF69D95031
:105A2000190FE96EDACFEAFFB3DA2D2A000E2E2223
:105A30009BD77F0E0601C85D0EE107DBEADACC0ECC
:105A4000E66EBD0EE66E000E3DDAC90EE66EBD0EC8
:105A5000E66E000EE7D9F9DACCC5F3FFCDC5F4FF49
:105A600065E9E7CFD9FF12000001E4352BE2000120
:105A70007151100B27E0000E0A01E76E6C1902E766
:105A80006C3502D06C51E75C14E26C070A0E6C5D59
:105A900006E1040EE66E9AEC27F041E90AD06C515B
:105AA00008E1030EE66E9AEC27F041E90A013C0E8C
