:020000040000FA
:0600000092EF83F01200F4
:020006001200E6
:06000800D6EF72F01200B9
:02000E000202EC
:0100100002ED
:020011000100EC
:05001300DCDAD434002A
:0600180014EF28F01200B5
:02001E000C00D4
:1000200010090100400A000040000000F80801002B
:10003000E708000018000000F3080100EC000000D1
:1000400005000000C7080100C80600002C000000E1
:1000500082080100BB0900004500000025080100DE
:100060005E0900005D000000BF07010060000000A5
:1000700066000000BD070100FE060000020000004F
:1000800092070100C80700002B0000007E07010056
:10009000C60000001400000013000000FA07000072
:1000A0000500000011000000FE0400000200000036
:1000B00034EC18F09AEC15F001340FE200501008FF
:1000C000270E01540AE2100EF36EFD0EF3CFDBFF94
:1000D000270EF36EFE0EF3CFDBFFABEC18F003E35D
:1000E000F36AF46A50D0DE6ADD6A9AEC15F00134E6
:1000F00030E20050B808240E01542BE2B80E035D24
:10010000240E04590DE29AEC15F0B80E005E240E90
:10011000015A026A036A01AE05D00268036802D080
:1001200013EC16F0280EE3EC14F02C0E0026010E52
:100130000EEC19F0580E2B6E020E3CEC15F0B80EBA
:10014000F36EFD0EF3CFDBFF240EF36EFE0EF3CF46
:10015000DBFFABEC18F00FE213EC16F0B40EE3EC9F
:1001600014F05C0E0026120E0EEC19F0B80E2B6E79
:10017000240E3CEC15F0DECF00F0DDCF01F000C026
:10018000F3FF01C0F4FF020EE15C02E2E16AE55216
:10019000E16E7FEF14F034EC18F09EC0E6FF9FC0D4
:1001A000E6FFA0C0E6FFA1C0E6FFEA0EE66EC00EC5
:1001B000E66E000E6BEC18F028EC58F039EC19F0F4
:1001C000EDEC16F0E20EE66EC00EE66E000EADEC43
:1001D00017F064EC59F0D1EC15F02AEC19F0ADEC05
:1001E00017F064EC59F054EC16F0A0EC17F0AAC02C
:1001F000E6FFABC0E6FFA0EC17F00001705156EC33
:1002000019F00001B15156EC19F0B4C000F0016AC8
:1002100000BE01687AEC19F0B2EC18F00001BA5196
:1002200056EC19F0F10EE66E000ECAEC16F0E9EC91
:1002300016F002E2E16AE552E16E00507FEF14F041
:100240007AEC14F0050EE126010EDB6A020EDB6A81
:10025000DF6ADF50006E016AFD0EDBCF02F0FE0E9A
:10026000DBCF03F003500118E8AE02D0013404D014
:100270000050025C0150035801E28ED043EC16F0AE
:1002800031EC17F004BE056853EC18F024C003F0FD
:1002900025C004F026C005F04CEC19F00800F5501C
:1002A00037E1E60E066EF80E076E000E086E010EC0
:1002B000DBCF09F0020EDBCF0AF00B6A0ABE0B6837
:1002C0005AEC19F009C027F00AC028F00BC029F039
:1002D00098EC67F024C009F025C00AF026C00BF0A6
:1002E00006502424F36E07502520F46E0850262073
:1002F000F7EC17F0E1EC18F00BE143EC16F031EC01
:1003000017F004BE056870EC14F0F550DF6E3DD0B8
:10031000DF50006E016AFD0EDB50001836E1FE0E64
:10032000DB50011832E17F0E0601C85D1FE1010EAE
:10033000DBCFE6FF020EDBCFE6FFCF0EE66EC00E90
:10034000E66E000E74EC16F04CEC17F0CD0EE66E77
:10035000C00EE66E000EE66E030EDBCFE6FF040E67
:10036000F6EC16F04CEC17F0EFEC14F0A390A3921F
:10037000010EDBCFC6F0020EDBCFC7F015D849D98E
:100380000001C669C769A382A380010EDB2A020EA1
:1003900001E25FD7DB2A5DD7050EE15C02E2E16A8C
:1003A000E552E16E7FEF14F07AEC14F0070EE126CF
:1003B0000001800EC7154EE177EC16F008BE096803
:1003C0008AEC14F00EBE0F68C6EC14F0050E00C0E7
:1003D000DBFF060E01C0DBFFD950050F26EC19F03C
:1003E000550EEE1809E1010EED1806E1DF6AB5ECD5
:1003F00018F004AE04D002D0000E01D1056870ECF4
:1004000014F0F5CFDAF0050EDB6A060EDB6A050E96
:10041000DBCF00F0060EDBCF01F0080E005C000E13
:10042000015830E283EC16F007BE08686DEC15F059
:10043000050EDBCF09F0060E48EC15F0050EDBCFFC
:10044000E9FF060ED1EC16F0050EDB2A060EDFE3FF
:10045000DB2ADDD7010E6014DF6E0F0E651400017C
:10046000DA6F66CFDBF067CFDCF068CFDDF069CF05
:10047000DEF06ACFDFF06BCFE0F06CCFE1F06DCF54
:10048000E2F0609EDF5001E0B9D0540E0001DE5D65
:1004900001E0B4D0DFC003F0026AE05141EC18F093
:1004A000010E00C0DBFF020E01C0DBFFD950010FBF
:1004B000FAEC16F030E2010EDBCF00F0020EDBCFDB
:1004C00001F0026A0234000E021807E6D880400EDE
:1004D00000549C0E0154000E02541DE3010EDBCFAC
:1004E00003F9020EDBCF04F90901D890043303337A
:1004F000D890043303330351095D04510A5904E2CF
:1005000003C909F904C90AF90551035D06510459E3
:1005100002E201EC17F00F0E0001DC15036E026A17
:10052000DD5141EC18F0030E00C0DBFF040E01C0EA
:10053000DBFFD950030FFAEC16F060E2030EDBCFBD
:1005400000F0040EDBCF01F0000E005C0F0E01582E
:1005500055E2030EDBCF13F9040EDBCF14F90901CA
:10056000D00ED8801357070E1457143523E21351B9
:100570000008000E14551EE22AEC15F0DBEC16F014
:10058000026A036A01AE02D0026803682AEC15F021
:10059000040EFDEC15F0026A036A01AE02D0026897
:1005A000036800505427015055230250562303502E
:1005B000572324D02AEC15F0DBEC16F0006C011E5A
:1005C0000122026A036A01AE02D0026803682AECC3
:1005D00015F0080EFDEC15F0006C011E000E012256
:1005E000026A036A01AE02D002680368005058270D
:1005F0000150592302505A2303505B23010E006E11
:10060000070EE15C02E2E16AE552E16E00507FEF25
:1006100014F07AEC14F0080EE1260001800EC715E4
:1006200071E177EC16F008BE09688AEC14F00EBE92
:100630000F68C6EC14F0A1EC15F0F6EC14F0900E77
:100640000016050E0116900E001805E1050E0118A2
:1006500002E1020E1BD0F6EC14F0900E0016060E0E
:100660000116900E001805E1060E011802E1030EB6
:100670000DD0F6EC14F0500E0016050E0116500EBB
:10068000001816E1050E011813E1040EDF6E0F0EBF
:10069000E76E040EDBCF00F0050EE7500016016A8E
:1006A000010E00C0DBFFB5EC18F004AE04D002D0A0
:1006B000000E62D1056870EC14F0F5CFDAF0040E8C
:1006C000DB6A050EDB6AF6EC14F0080E005C000E27
:1006D000015841E283EC16F007BE08686DEC15F096
:1006E000040EDBCF09F0050E48EC15F0040EDBCF4D
:1006F000E9FF050ED1EC16F0040EDB2A050EE3E34C
:10070000DB2AE1D7070E0F015015DF6EE00E521500
:10071000E00BE838E840006E010E5115080DF3506B
:100720000024E76E010EE7CFDBFF0F0E5515000129
:10073000DA6F56CFDBF057CFDCF058CFDDF059CF72
:10074000DEF05ACFDFF05BCFE0F05CCFE1F05DCFC1
:10075000E2F00F01509F020EDF5C01E07AD0010E43
:10076000DB500E0A67E0070A13E00E0A01E003D12E
:10077000DCC05CF90001E251000801E3FCD0F00E9E
:10078000E25D01E3F8D0280EE25D0001916FF3D045
:10079000600E09015C150BE1FF0E0001E05D07E052
:1007A000E051000804E2E05109010B6F0C6BE1C05D
:1007B00003F0026A0001E25141EC18F053EC17F02B
:1007C000D950020F26EC19F0FF0EEE1802E1FF0ED1
:1007D000ED1801E1D0D0020EDBCF28F0030EDBCF05
:1007E00029F009010D51285C006E0E512958016E47
:1007F0005AEC17F0A8EC15F0D890015004E60A0E58
:10080000005C000E015802E3010E0AD0A8EC15F0BE
:10081000013408E30050F608FF0E015403E3020E12
:10082000396F01D0396B020EDBCF0DF9030EDBCF30
:100830000EF9A1D00001E051280808E2F00EE05DB9
:1008400005E2280EE05D0001926F95D00001926BE9
:1008500092D0030EDF5C35E1010EDB500F0A01E0A0
:100860008AD00001865101E186D00F0E0001DE150D
:10087000300F00017F6F0001DE390F0B300F0001D8
:10088000806F0F0E0001DD15300F0001816F000138
:10089000DD390F0B300F0001826F0F0E0001DC15E8
:1008A000300F0001836F0001DC390F0B300F0001A6
:1008B000846F0F0E0001DB15300F0001856F866B12
:1008C0005AD0050EDF5C57E1010EDB50070A53E1F9
:1008D000E0C000F0016A026A036A040E61EC17F0DE
:1008E000FDE1DFC004F0056A066A076A040E1F0B0B
:1008F00007E0D8900436053606360736E806F9E1F3
:100900000450001205500112065002120750031243
:10091000DEC008F0096A0A6A0B6A0C0E1F0B07E0BA
:10092000D890083609360A360B36E806F9E1085041
:100930000012095001120A5002120B500312DDC0BE
:100940000CF00D6A0E6A0F6A140E1F0B07E0D890A8
:100950000C360D360E360F36E806F9E100500C1055
:1009600009010F6F01500D10106F02500E10116F22
:1009700003500F10126F010E006E080EE15C02E2D0
:10098000E16AE552E16E00507FEF14F07AEC14F06A
:10099000050EE12696EC17F07F0E0601C85D04E017
:1009A000200EC85D01E08DD0030EE66E44EC17F01A
:1009B000B9EC17F0C90EE66EC00EE66E000EBDEC87
:1009C00015F005E0010EF36E020EF3CFDBFFC60E4D
:1009D000E66EC00EE66E000EBDEC15F005E0010EF1
:1009E000F36E030EF3CFDBFF09015DA32CD0030EE2
:1009F000DB5013E00901BB5110E00901BC510DE1CE
:100A0000000EE66EE66ACF0EE66EE66AE66A0CEC6B
:100A10000BF0FDEC17F009015D93020EDB5013E0C3
:100A2000000EE66EE66AE66EE66AE66EE66A010EBD
:100A3000E66EEFEC0AF094EC19F0000902E069ECC4
:100A400043F009015D9309015DA527D00901BB05AC
:100A500024E10901BC5121E1020EF36E040EF3CF33
:100A6000DBFFD00EE66EE66A040EDBCFE6FF19EC84
:100A700017F0E76E040EE7CFDBFFDBCFE6FFCBEC32
:100A800000F0E552E76E040EE7CFDBFFDB50020813
:100A900002E0C2EC19F009015D9509015DA711D0D2
:100AA0000901BB050EE10901BC510BE1020EE66E26
:100AB000CBEC00F0E552020802E0C2EC19F00901AB
:100AC0005D97050EE15C02E2E16AE552E16E7FEFBF
:100AD00014F05CDF010C7AEC14F0070EE12605013E
:100AE000EF51DE6EDD6AF051E66ED950020FC8ECB0
:100AF00015F0F151E66ED950040FC8EC15F04B0E0D
:100B00000701CB5D40E168EC17F001341CE24AECD0
:100B100016F019E2020EDBCF02F0030EDBCF03F07A
:100B2000033402E228EC17F003E3006A016A09D0FB
:100B300068EC17F00CEC14F04FEC16F0FDE1C5EC8E
:100B400016F053EC17F0F6EC14F001341CE24AEC0A
:100B500016F019E2040EDBCF02F0050EDBCF03F036
:100B6000033402E228EC17F003E3006A016A09D0BB
:100B7000F6EC14F00CEC14F04FEC16F0FDE1C5ECC3
:100B800016F0A1EC15F0320E0901016A0325006E82
:100B900004510122640E5CEC15F028C071F00AECDF
:100BA00017F0BCEC18F0D880000E2654000E275425
:100BB000000E2854000E295406E300019E6B9F6B23
:100BC000A06BA16B2CD00FC900F010C901F011C9A6
:100BD00002F012C903F046EC19F00AEC17F0F5EC3C
:100BE00082F030EC19F039EC17F038EC18F0050E03
:100BF000005E000E015A025A035A040E61EC17F00F
:100C0000FDE100C09EF001C09FF002C0A0F003C053
:100C1000A1F000019E2B000E9F23A023A1232DEC09
:100C200017F027E10DC902F00EC903F0E0EC16F051
:100C300028C002F029C003F0000ED8802854000E0E
:100C4000295403E3006A016A11D00DC900F00EC9EE
:100C500001F0E0EC16F028C000F029C001F00CEC27
:100C600014F04FEC16F0FDE1C5EC16F000C070F08A
:100C70000ED0640E006E016A0DC928F00EC929F06D
:100C80002D6E01C02EF06CEC83F028C070F0600E69
:100C900009015C15200804E1140E00016B1302D059
:100CA00000016B9909015CA906D000016BBF13D04C
:100CB0006B8F74D910D000016BAF0DD06B9FD880B3
:100CC000E40E09011955570E1A55000E1B55000E5A
:100CD0001C5501E25D836AD900016BA9F2D0640E54
:100CE000006E016A13EC19F02D6E01C02EF06CEC51
:100CF00083F0060E28C0DBFF0901000ED8800755DF
:100D0000000E08554FE2000ED8800355000E045522
:100D100049E2000ED8800555000E065543E2D2EC9C
:100D200013F013EC19F052EC65F027C00CF028C05A
:100D30000DF029C00EF02AC00FF05FEC19F000C0D2
:100D400027F001C028F002C029F003C02AF06CECA3
:100D500066F0E1EC67F028C00BF929C00CF9090135
:100D6000000ED8802854000E29540EE294EC16F0A0
:100D700004E30001746B756B07D0E8EC18F04FECDE
:100D800016F0FDE13CEC17F0F6EC14F0013406E24D
:100D90004AEC16F003E21BEC14F004D074C072F0BD
:100DA00075C073F0150E0001665D03E1040EAFEC33
:100DB00015F000016651020808E2010E666F03C9D2
:100DC00009F904C90AF9EAD863D00901000ED880EC
:100DD0000355000E04552EE2DECF00F0DDCF01F00A
:100DE000013428E24AEC16F025E2060EDB50026ED2
:100DF000036ADECF04F0DDCF05F003500518E8AE3E
:100E000002D0053404D00450025C0550035812E3AC
:100E10000051066E076ADECF08F0DDCF09F00750FB
:100E20000918E8AE02D0093404D00850065C095015
:100E3000075828E394EC16F02DE2020EDBCF0AF0FF
:100E4000030EDBCF0BF00B3425E20A500008000E36
:100E50000B5420E2020EDBCF0CF0030EDBCF0DF0C3
:100E600000010C50725D0D50735914E3020EDBCF7C
:100E70000EF0030EDBCF0FF009010E50015D0F5095
:100E8000025908E20001020E666F040EAFEC15F085
:100E9000020E0DD0020E0001665D0BE00901B80ED6
:100EA000035D240E045905E30001020E666FAFECEA
:100EB00015F0060EDBCF00F972C001F973C002F91C
:100EC00042D0090194EC16F01CE294EC16F004E315
:100ED0000001746B756B07D0E8EC18F04FEC16F05E
:100EE000FDE13CEC17F0F6EC14F0013406E24AECBC
:100EF00016F003E21BEC14F004D074C072F075C05D
:100F000073F000016651020813E30901100E095D38
:100F1000270E0A5903E30001040E02D00001150E4A
:100F2000666F040EAFEC15F0020EAFEC15F00BD0AF
:100F3000940E00016B15840806E16B950001040E08
:100F4000666F01EC17F00901000ED8800D55000EF8
:100F50000E5516E20501ED51000812E2C8C700F077
:100F6000C9C701F0050E2D6E2E6AC8C728F0C9C783
:100F700029F06CEC83F02450251002E109015D8713
:100F8000000E006E070EE15C02E2E16AE552E16EDE
:100F900000507FEF14F009015D85000CA390DBEC9D
:100FA00015F08DEC15F0A38080EF15F07AEC14F0BD
:100FB000100EE12609015CA9D8D00001B45103E16B
:100FC000BFEC18F0D2D009014E514F115011511100
:100FD00007E15AEC16F0A3908DEC15F0A380C5D074
:100FE0004E0EE96E090EEA6EEE500F5D266EEE5063
:100FF0001059276EEE501159286EEE501259296E75
:1010000039EC17F022C0DEFF23C0DEFF24C0DEFF74
:1010100025C0DDFFDD52DD529EEC18F0D890030EA6
:10102000EB50000A08E6640EEE5C000EEE58000E6F
:10103000EE58000EEE5801E298D0A390080E54C965
:10104000DBFF090E55C9DBFF0A0E56C9DBFF0B0E8D
:1010500057C9DBFF0C0E58C9DBFF0D0E59C9DBFF6A
:101060000E0E5AC9DBFF0F0E5BC9DBFF09018DECC9
:1010700015F0A38052510001AC5D006EAD51090125
:101080005355016EA1EC15F0F6EC14F0026A036AF8
:1010900001AE02D002680368640EE3EC14F002ECC7
:1010A00018F019EC67F0060E26C0DBFF070E27C00C
:1010B000DBFF5AEC16F0A8EC15F0D890015004E6CE
:1010C000010E005C000E015820E3EEEC18F02850F1
:1010D00009013A2729503B23080EDB503C27090E13
:1010E000DB503D230A0EDB503E230B0EDB503F232B
:1010F0000C0EDB5040270D0EDB5041230E0EDB5053
:1011000042230F0EDB50432330D0A8EC15F00134FE
:101110002CE30050FF08FF0E015427E328682968DC
:10112000040EDBCF2DF0050EDBCF2EF04DEC67F07B
:1011300026500901442727504523080EDB50462737
:10114000090EDB5047230A0EDB5048230B0EDB5001
:1011500049230C0EDB504A270D0EDB504B230E0E9D
:10116000DB504C230F0EDB504D23100EE15C02E2EE
:10117000E16AE552E16E7FEF14F07AEC14F0110EA3
:10118000E1260C0EDB6A0D0EDB6A0E0EDB6A210E09
:10119000E96E090EEA6E09011551EE24006E165132
:1011A000EE20016E1751EE20026E1851EE20036EF4
:1011B0002D5100262E5101222F510222305103229F
:1011C00000C0DFFF010E01C0DBFF020E02C0DBFF2B
:1011D000030E03C0DBFF250EE96E090EEA6E1951FE
:1011E000EE24006E1A51EE20016E1B51EE20026EAD
:1011F0001C51EE20036E3151002632510122335131
:10120000022234510322A1EC15F0060E02C0DBFFCE
:10121000070E03C0DBFF290EE96E090EEA6E1D51B1
:10122000EE24006E1E51EE20016E1F51EE20026E64
:101230002051EE20036E35510026365101223751E0
:10124000022238510322080E00C0DBFF090E01C044
:10125000DBFF0A0E02C0DBFF0B0E03C0DBFF9EECC0
:1012600018F0D880000EEE54000EEE54000EEE542E
:10127000000EEE5445E215C900F016C901F017C979
:1012800002F018C903F0A9EC16F015C926F016C92A
:1012900027F017C928F018C929F0EFEC13F00C0E4D
:1012A00026C0DBFF21C900F022C901F023C902F0EA
:1012B00024C903F0A9EC16F021C926F022C927F0B1
:1012C00023C928F024C929F0EFEC13F00D0E26C035
:1012D000DBFF2DC900F02EC901F02FC902F030C983
:1012E00003F0A9EC16F02DC926F02EC927F02FC95E
:1012F00028F030C929F0EFEC13F00E0E26C0DBFF0A
:10130000A4EC16F048EC18F0F6EC14F06FEC17F0C3
:10131000A9EC13F0BE0EE66EC00EE66E000EC5EC34
:1013200013F0080EDBCF00F0090EDBCF01F00A0E40
:10133000DBCF02F00B0EDBCF03F0B0EC17F00C0E9E
:10134000DBCFE6FFE66AAF0EE66EC00EE66E000E7D
:10135000FDEC14F019C900F01AC901F01BC902F024
:101360001CC903F02BEC18F068EC19F0B0EC17F086
:101370000D0EDBCFE6FFE66A9F0EE66EC00EE66E50
:10138000000EFDEC14F025C900F026C901F027C9B4
:1013900002F028C903F02BEC18F029C900F02AC983
:1013A00001F02BC902F02CC903F0B0EC17F00E0EBF
:1013B000DBCFE6FFE66A930EE66EC00EE66E000E29
:1013C000FDEC14F031C900F032C901F033C902F06C
:1013D00034C903F02BEC18F035C900F036C901F020
:1013E00037C902F038C903F0B0EC17F022EC16F060
:1013F0008A0EE66EC00EE66E000EC5EC13F03CC918
:1014000000F03DC901F03EC902F03FC903F07EEC97
:1014100018F040C900F041C901F042C902F043C9C7
:1014200003F0B0EC17F02EEC16F07B0EE66EC00E5B
:10143000E66E000EC5EC13F046C900F047C901F096
:1014400048C902F049C903F07EEC18F04AC900F01F
:101450004BC901F04CC902F04DC903F0B0EC17F0D4
:10146000770EE66EC00EE66E000E98EC18F0F6EC05
:1014700016F048EC18F0110EE15C02E2E16AE55268
:10148000E16E7FEF14F0C7EC18F001E09DD0ED5055
:1014900001E09AD0570EE66EC00EE66E000E35ECF7
:1014A00014F015C9E6FF16C9E6FF17C9E6FF18C90B
:1014B000E6FFBEEC13F019C9E6FF1AC9E6FF1BC927
:1014C000E6FF1CC9E6FFBEEC13F01DC9E6FF1EC90E
:1014D000E6FF1FC9E6FF20C9E6FFBEEC13F021C9F5
:1014E000E6FF22C9E6FF23C9E6FF24C9E6FFBEECFA
:1014F00013F025C9E6FF26C9E6FF27C9E6FF28C97C
:10150000E6FFBEEC13F029C9E6FF2AC9E6FF2BC9A6
:10151000E6FF2CC9E6FFBEEC13F02DC9E6FF2EC98D
:10152000E6FF2FC9E6FF30C9E6FFBEEC13F031C974
:10153000E6FF32C9E6FF33C9E6FF34C9E6FFBEEC79
:1015400013F035C9E6FF36C9E6FF37C9E6FF38C9EB
:10155000E6FFBEEC13F022EC16F0CEEC18F03CC91E
:10156000E6FF3DC9E6FF3EC9E6FF3FC9E6FFBEEC28
:1015700013F040C9E6FF41C9E6FF42C9E6FF43C98F
:10158000E6FFBEEC13F02EEC16F0CEEC18F046C9D8
:10159000E6FF47C9E6FF48C9E6FF49C9E6FFBEECDA
:1015A00013F04AC9E6FF4BC9E6FF4CC9E6FF4DC937
:1015B000E6FFBEEC13F0F30EE66E000ECAEC16F07A
:1015C000E76EFE0EE7CFDBFFFE0EDB50E9EC16F018
:1015D00002E2E16AE552E16E00507FEF14F07AEC2E
:1015E00014F0FE0EDB500FE00501F3B50CD042EC19
:1015F00019F003E0B5EC14F008E1A3EC17F003E0F8
:10160000B5EC14F002E1000E05D00601006BB5DD6B
:101610000FEC18F07FEF14F0C7EC18F013E1ED5069
:1016200011E1FE0EDB5005E0CEEC15F019EC17F0E1
:1016300011D01DEC18F0020EE66E19EC17F002083E
:1016400024E021D0E9EC15F098DDFE0EDB5017E028
:10165000D2EC19F01DEC18F0500EE66EC00EE66EDE
:10166000000E74EC16F0B9EC17F04D0EE66EC00EDD
:10167000E66E000ECDEC13F0D2EC19F006D0A5EC1E
:1016800019F0D2EC19F0C2EC19F0010EE9EC16F0E9
:1016900002E2E16AE552E16E00507FEF14F034ECB3
:1016A00018F0FE0EDBCFE6FFFAEC1CF0E552E76E19
:1016B000FE0EE7CFDBFFE7EC17F003E0B0EC16F02F
:1016C00003D0C80E006E016AEFEC17F009015C51FF
:1016D0005CEC18F0F5EC18F02AEC19F083EC14F03F
:1016E0000001665156EC19F00DC9E6FF0EC9E6FF80
:1016F000A0EC17F013C9E6FF14C9E6FFA0EC17F041
:101700000FC9E6FF10C9E6FF11C9E6FF12C9E6FFDF
:10171000BEEC13F003C9E6FF04C9E6FFA0EC17F026
:1017200005C9E6FF06C9E6FFA0EC17F009C9E6FF08
:101730000AC9E6FFA0EC17F00BC9E6FF0CC9E6FFEB
:10174000A0EC17F007C9E6FF08C9E6FFA0EC17F008
:1017500074C0E6FF75C0E6FFA0EC17F072C0E6FFAC
:1017600073C0E6FFA0EC17F01CEC17F002E1010ECD
:1017700002D0FE0EDB50E9EC16F002E2E16AE5521F
:10178000E16E00507FEF14F07AEC14F0E150FA0FA4
:10179000FFEC13F00AE0B6EC15F0EF5006E024EC95
:1017A00018F096EC15F013EC17F0FE0EDB5006E087
:1017B000CEEC15F074DFE552E552E552010E7FEFF5
:1017C00014F034EC18F018EC19F009E06CEC16F099
:1017D00006E035EC15F096EC15F013EC17F005016A
:1017E000F3B50CD042EC19F003E0B5EC14F008E1CD
:1017F000A3EC17F003E0B5EC14F002E1000E9FD06B
:10180000FE0EDB5002E003EC15F0000EDE6E060E5D
:10181000DD6E09015C51E66EE66A330EE66EC00EBF
:10182000E66E000EF5EC18F02D0EE66EC00EE66EBC
:10183000000E83EC14F00001BA51E66EE66A280E41
:10184000E66EC00EE66E000E3FEC19F00001B851D6
:10185000E66EE66A210EE66EC00EE66E000E3FEC06
:1018600019F00901BB51E66EE66A1E0EE66EC00E67
:10187000E66E000E3FEC19F00001B951E66EE66A23
:101880001B0EE66EC00EE66E000E3FEC19F009016D
:101890005D51E66EE66A150EE66EC00EE66E000E4F
:1018A00083EC14F00901BC51E66EE66A0F0EE66E99
:1018B000C00EE66E000E3FEC19F0EFEC14F07F0E58
:1018C0000601C85D3BE1000EDE6E060EDD6E000116
:1018D000B151E66EE66A070EE66EC00EE66E000EC9
:1018E0003FEC19F0EDEC16F0010EE66EC00EE66E60
:1018F000000EADEC17F0B8EC58F0D1EC15F0FB0E83
:10190000E66EBF0EE66E000EADEC17F0B8EC58F0C8
:1019100054EC16F0F50EE66EBF0EE66E000E3FECD0
:1019200019F0AAC0E6FFABC0E6FFEF0EE66EBF0EF1
:10193000E66E000E3FEC19F0EFEC14F0010EE9EC4E
:1019400016F002E2E16AE552E16E00507FEF14F01A
:1019500034EC18F0A4EC16F0B9EC17F000016BA50C
:101960003FD000016651040A10E0060A08E0030AAD
:1019700012E1E60EE66EBF0EE66E000E11D0D00E3E
:10198000E66EBF0EE66E000E0BD0C20EE66EBF0E08
:10199000E66E000E05D0B10EE66EBF0EE66E000ECE
:1019A000CDEC13F068EC19F0A9EC13F0A90EE66E7B
:1019B000BF0EE66E000EEAEC14F0770EE66EC00E77
:1019C000E66E000ECDEC13F0040E0001665D1EE025
:1019D000BDEC14F0A00EE66EBF0EE66E000E14D045
:1019E0008D0EE66EBF0EE66E000ECDEC13F0090113
:1019F000100E035D270E045909E2BDEC14F07D0EB4
:101A0000E66EBF0EE66E000EFCEC18F02DEC17F043
:101A10001CE174C0E6FF75C0E6FF730EE66EBF0EF4
:101A2000E66E000E3FEC19F072C0E6FF73C0E6FFF1
:101A30006F0EE66EBF0EE66E000E3FEC19F06B0EF9
:101A4000E66EBF0EE66E000E2BD074C000F075C0BF
:101A500001F0040ED89000360136E804FBE187EC73
:101A600018F0730EE66EBF0EE66E000EE6EC13F095
:101A700072C000F073C001F0040ED8900036013639
:101A8000E804FBE187EC18F06F0EE66EBF0EE66E21
:101A9000000EE6EC13F0670EE66EBF0EE66E000E6B
:101AA000CDEC13F0020EE66EE66A03C900F004C93D
:101AB00001F0026A036A03C9E6FF04C9E6FF79EC94
:101AC00018F05F0EE66EBF0EE66E000E15EC15F018
:101AD000020EE66EE66A05C900F006C901F0026A68
:101AE000036A05C9E6FF06C9E6FF79EC18F05B0E4C
:101AF000E66EBF0EE66E000E15EC15F0020EE66EF9
:101B0000E66A09C900F00AC901F0026A036A09C954
:101B1000E6FF0AC9E6FF79EC18F0570EE66EBF0E35
:101B2000E66E000E15EC15F0540EE66EBF0EE66E76
:101B3000000ECDEC13F02DEC17F014E19EC000F078
:101B40009FC001F0A0C002F0A1C003F008EC16F0A5
:101B50008DEC19F0EAEC14F06B0EE66EBF0EE66E3B
:101B6000000E3AD09EC004F09FC005F0A0C006F061
:101B7000A1C007F008EC16F026C004F027C005F05D
:101B800028C006F029C007F0040E1F0B30EC19F036
:101B900007E0D8900036013602360336E806F9E150
:101BA0009BEC17F0022203220A0E2B6E2C6ADCEC4F
:101BB00017F0F5EC82F08DEC19F0ADEC17F028EC95
:101BC00058F0086E090EE15E0850B9EC17F0670E88
:101BD000E66EBF0EE66E000ECDEC13F0020EE15C79
:101BE00002E2E16AE552E16E7FEF14F07AEC14F064
:101BF000FE0EDB500FE00501F3B50CD042EC19F0FE
:101C000003E0B5EC14F008E1A3EC17F003E0B5EC49
:101C100014F002E1000E05D00601006B99DE0FEC16
:101C200018F07FEF14F07AEC14F0E9EC15F090DE88
:101C3000D2EC19F0010E7FEF14F034EC18F0E7EC61
:101C400017F003E0B0EC16F003D0C90E006E016A85
:101C5000EFEC17F00501F1515CEC18F03FEC19F0D6
:101C60001CEC17F002E1010E02D0FE0EDB50E9EC95
:101C700016F002E2E16AE552E16E00507FEF14F0E7
:101C80007AEC14F0E150FC0F1CEC19F0CA0EEE18BF
:101C900015E1ED5013E1A3EC18F009E0B6EC15F0F6
:101CA000EF5005E024EC18F076EC17F002D00501B7
:101CB000F16B24EC18F01C0E69EC15F0FE0EDB50F5
:101CC00006E0CEEC15F0B9DFE552E552E552010E23
:101CD0007FEF14F034EC18F0FE0EDB502BE042ECFA
:101CE00019F003E0B5EC14F006E1A3EC17F022E0E4
:101CF000B5EC14F01FE0A3EC18F019E0050EE76E48
:101D0000B6EC15F07DEC17F012E018EC19F008E0D5
:101D10006CEC16F005E035EC15F076EC17F002D01F
:101D20000501F16B35EC15F01C0E69EC15F00501A1
:101D3000F3A502D0000E2ED003EC15F03A0EE66E9D
:101D4000BF0EE66E000E35EC14F00501F1510AE10C
:101D5000340EE66EBF0EE66E000EADEC17F07FECB3
:101D600019F013D0F15164EC18F02DEC17F006E1E6
:101D70006B0E006EBF0E016E000E05D0670E006E7A
:101D8000BF0E016E000EF3EC15F0B9EC17F0EFEC9E
:101D900014F0010EE9EC16F002E2E16AE552E16EA0
:101DA00000507FEF14F07AEC14F0080EE12696EC68
:101DB00017F0040EDB6A050EDB6A05013AEC16F03B
:101DC000B7EC16F00501F151000807E2F151E66E9B
:101DD000D950060FC8EC15F02AD00901055106119B
:101DE0000AE00751081107E0D2EC13F08FEC16F06F
:101DF00084EC17F004D0060EDB6A070EDB6A2DECCC
:101E000017F015E16FEC17F0033402E228EC17F03D
:101E100003E3006A016A09D0A8EC15F00CEC14F099
:101E20004FEC16F0FDE1C5EC16F05AEC17F0D95066
:101E3000060F9AEC16F00FE0060EDBCF08F0070E47
:101E4000DBCF09F00A6A0B6A09AE02D00A680B6898
:101E50003BEC14F002D0006A016AA1EC15F0E7EC4B
:101E600017F003E0B0EC16F003D0CB0E006E016A61
:101E7000EFEC17F00501F0515CEC18F03FEC19F0B5
:101E80000501EF5156EC19F0040EDBCFE6FF050E0D
:101E9000DBCFE6FFA0EC17F0BEEC16F0A0EC17F0DD
:101EA000BDEC14F0B2EC18F01CEC17F002E1010EDE
:101EB00002D0FE0EDB50006E080EE15C02E2E16A29
:101EC000E552E16E00507FEF14F07AEC14F0040E4E
:101ED00067EC16F0CC0EEE1846E1ED5044E1DE6AF8
:101EE000DD6A96EC17F0A3EC18F017E0B6EC15F0ED
:101EF000EF5013E02AEC19F0E66E24EC18F08BECAE
:101F000017F0B9EC17F02AEC19F0E66E000EE66E49
:101F1000E66A8BEC17F0B7EC16F09EEC18F0EE507A
:101F2000ED1005E083EC19F096EC15F002D0006A94
:101F3000016A00C0F0F5D950020F9AEC16F005E0E6
:101F4000BEEC16F096EC15F002D0006A016A00C0F3
:101F5000EFF583EC19F01B0E69EC15F0BEEC16F0F2
:101F60001A0E69EC15F0FE0EDB5006E0CEEC15F013
:101F70001ADFE552E552E552010E006E040EE15CF7
:101F800002E2E16AE552E16E00507FEF14F07AEC74
:101F900014F0100EE126FE0EDB5001E17BD042EC86
:101FA00019F003E0B5EC14F006E1A3EC17F072E0D1
:101FB000B5EC14F06FE0A3EC18F069E0020EE76EE8
:101FC000B6EC15F07DEC17F062E0060EDB6A070E4A
:101FD000DB6A080EDB6A090EDB6A0501EF6BF06B4A
:101FE00018EC19F042E06CEC16F03FE035EC15F01F
:101FF00046EC6CF0E552E552B7EC16F035EC15F016
:10200000ABEC75F04FEC18F00006000E015AF80E1C
:10201000DB500024E96EF90EDB500120EA6E040E5D
:10202000EFCFDBFFDB50250808E18FEC17F084ECE5
:1020300017F0020EDBCFEFF50BD08FEC17F0080E88
:1020400028C0DBFF090E29C0DBFF020EDBCFF0F555
:1020500035EC15F091EC44F0E552E552F80EF3CF73
:10206000DBFFF90EF4CFDBFFBBD7060EDBCFE6FFBD
:10207000070EDBCFE6FF1A0E69EC15F0080EDBCF7A
:10208000E6FF090EDBCFE6FF1B0E69EC15F005013C
:10209000F3A502D0000E03D103EC15F0250EE66E79
:1020A000BF0EE66E000EE1DB0501EF5108E1F051D5
:1020B00006E1210EE66EBF0EE66E000EE5D00A0EBA
:1020C000DB6A0B0EDB6A0C0EDB6A0D0EDB6AEF516E
:1020D000000812E23AEC16F00A0EF3CFDBFF0B0E0B
:1020E000F4CFDBFF0501EF5164EC18F01F0EE66E34
:1020F000BF0EE66E000E51DB0501F051000801E352
:102100007DD0F151000807E2F151E66ED9500E0F73
:10211000C8EC15F038D00901055106110DE0075142
:1021200008110AE03FDB8FEC16F00E0E28C0DBFF33
:102130000F0E29C0DBFF04D00E0EDB6A0F0EDB6A28
:102140002DEC17F020E10E0EDBCF02F00F0EDBCFEF
:1021500003F0033402E228EC17F003E3006A016A9B
:102160000CD00E0EDBCF00F00F0EDBCF01F054DBF6
:102170004FEC16F0FDE1C5EC16F00E0E00C0DBFFD3
:102180000F0E01C0DBFFD9500E0F9AEC16F00EE0D7
:102190000E0EDBCF08F00F0EDBCF09F00A6A0B6AD8
:1021A00009AE02D00A680B6866DB02D0006A016AD9
:1021B0000C0E00C0DBFF0D0E01C0DBFF0501EF516F
:1021C000000806E21A0EE66EBF0EE66E000EE5DAB5
:1021D0000501F05164EC18F02DEC17F006E16B0EE0
:1021E000006EBF0E016E000E05D0670E006EBF0EB2
:1021F000016E000EF3EC15F0B9EC17F00C0EDBCF0E
:1022000000F00D0EDBCF01F0013424E24AEC16F0B1
:1022100021E2D9500A0F9AEC16F017E00C0EDBCF32
:1022200002F00D0EDBCF03F00A0EDBCF04F00B0E35
:10223000DBCF05F003500518E8AE02D0053404D01A
:102240000450025C0550035805E20C0EDBCFE6FF9C
:102250000D0E0FD00A0EDBCF00F00B0EDBCF01F01E
:10226000013410E24AEC16F00DE20A0EDBCFE6FF75
:102270000B0EDBCFE6FF110EE66EBF0EE66E000E14
:10228000E66E76DA22EC17F088DA77DB010EE66E7E
:10229000BF0EE66E000EFCEC18F0A1DB010E006E26
:1022A000100EE15C02E2E16AE552E16E005027D3D4
:1022B00021DBFC0EDBCF28F0FD0EDBCF29F0CF0EAB
:1022C000281801E1295030E0D00E281801E12950EA
:1022D0002BE0CB0E281801E1295023E0CC0E281862
:1022E00001E129501EE0C90E281801E1295016E02D
:1022F000CA0E281801E1295011E0C80E281801E182
:10230000295008E0060E281815E1295013E17CDA5F
:102310008ADC0DD079DAC4EC0BF009D075DAB0DCC8
:1023200006D072DAD2DD03D06FDA0CEC0BF0FDECE4
:1023300017F001D0000EE3D2DDDA030EE126DE6AEB
:10234000DD6A67DB04BE0568040E9EEC16F0FDE155
:1023500075DB01E1E3D0880E066EFA0E076E000E03
:10236000086EDECF09F0DDCF0AF00B6A0ABE0B68FB
:10237000040ED89009360A360B36E806FAE1065004
:102380000924036E07500A20046E08500B20056EC6
:1023900003C0E6FF04C0E6FFE66EB9EC75F0E55257
:1023A000E552E5526EEC18F00006000E015A025A92
:1023B0007AEC19F0880E0F6EFA0E106E000E116E88
:1023C000DECF12F0DDCF13F0146A13BE1468040ED2
:1023D000D890123613361436E806FAE10F5012245C
:1023E0000C6E105013200D6E115014200E6E0C2A1E
:1023F000000E0D220E220CC0E6FF0DC0E6FF0EC03F
:10240000E6FFF90EDBCFE6FFFA0EDBCFE6FF99EC35
:1024100074F0156E070EE15E1550000901E078D0EA
:10242000FE0EDB502EE0F70EDBCFE6FFF80EDBCF23
:10243000E6FF4AEC44F0E552E552F70EF3CFDBFF3E
:10244000F80E48EC17F0F70FE66EFF0EDA20E66E96
:10245000FB0EDBCFE6FFFC0EDBCFE6FFDADA04BED5
:102460000568040E9EEC16F0FDE1E8DAE66E37EC46
:102470004BF0066E050EE15E0650000902E1000E0B
:102480004ED0DECFE9FFDDCFEAFF030EEA02F3CF45
:10249000EAFFE902F3CFE9FFF450EA26C80EE92685
:1024A000000EEA22EECF00F0EECF01F0EFCF02F007
:1024B000F70EDBCFE6FFF80EDBCFE6FFF90EDBCF42
:1024C000E6FFFA0EDBCFE6FFFB0EDBCFE6FFFC0EEE
:1024D000DBCFE6FFFD0EDBCFE6FF06D002C0FBFF41
:1024E00001C0FAFF0050F96EF9DF036E070EE15EDE
:1024F0000350E76E020EE7CFDBFFFD0EDB5005E079
:10250000020EDB5002E069EC43F0020EDB5007D014
:10251000DF2A010E01E215D7DB2A13D7000E006E69
:10252000030EE15C02E2E16AE552E16E0050E7D1A0
:10253000E1D99BDA69D9E66AD1EF18F0DBD9F90E57
:10254000DBCFE6FF61D9010EE66EE66ED1EF18F043
:1025500034EC18F0FE0EDB5003E10501F3A502D0C8
:10256000000E38D00001EE0EF56FBE0EF66F000EB5
:10257000F76F57EC29F0DE6ADD6A4BDA04BE0568B6
:10258000040EDCDBFEE15ADA24E00001EC0EF56F0C
:10259000BE0EF66F000EF76F57EC29F03ADA04BE64
:1025A0000568040ECBDBFEE1005003240001F56F4B
:1025B00001500420F66F02500520F76FF52B000E36
:1025C000F623F72357EC29F0DF2A010ED6E3DB2AA6
:1025D000D4D7010EE9EC16F002E2E16AE552E16EB1
:1025E00000508DD187D9E652520E0501C85D05E134
:1025F000540EC95D02E1CA5133E0520EC86F540E49
:10260000C96FCA6BCB6BCC6BE60E0001606F616B60
:1026100000010A0E626F0901400E5C6F880E036FA5
:10262000130E046F100E056F270E066F096B0A6BF1
:102630000001320E716F0901006B0B6F0C6B640EA1
:10264000076F086B016B026B0D6B0E6B136B146BDA
:102650000F6B106B116B126BAEDA52DA5EDA5D6BD8
:10266000900E6F6E6EAEFED7606A0F011869E00EB5
:10267000196F2A0E006FA00E016F046B056B506B73
:10268000FE0E1C6F1D6BB20E086F096BD20E0C6F25
:102690000D6BAA0E106F116BBA0E146F156B706A6A
:1026A000BF0E716E020E726E200E736E0501F45134
:1026B000000802E26F6A02D0600E6F6E0701CE0E54
:1026C000CC6FF80ECD6F000ECE6F0701D20ECF6F1C
:1026D000F80ED06F000ED16F0701A80ED56F030E54
:1026E000D66F000ED76F0701120ED86F060ED96F86
:1026F000000EDA6F0701D20EF06F0A0EF16F000EB6
:10270000F26F0701D60EDB6F0A0EDC6F000EDD6F75
:102710000701960EE16F0F0EE26F000EE36F0001EE
:10272000300EE66F250EE76F000EE86F00013C0EDD
:10273000E96F250EEA6F000EEB6F0001B00EE36F3C
:10274000220EE46F000EE56F0601EE81010EE552E8
:10275000D6D0F20E00262B0E0EEC19F0E40E2B6EE6
:10276000570E2C6EDCEC17F0F5EC82F0BEEF17F094
:1027700083EC19F075EC18F0B9EF17F02AEC19F0AA
:10278000ECDB28EC58F039EF19F098EC18F0DBCFBF
:10279000E6FF01EC19F048EF18F0DFDB7FEC19F0F1
:1027A000B9EF17F007C928F008C929F052EC65F015
:1027B0008FEC18F005C928F006C929F0E9DB19ECFF
:1027C00066F06EEC18F02AC003F01200C6DB0CECC9
:1027D00058F0026E070EE15E0250B9EF17F08CEC74
:1027E00082F038EC18F002EC18F0F5EC82F0050EEF
:1027F0002626000E272228222922BCEF18F01CECE6
:1028000019F0EE50ED10120024EC18F01DEC18F049
:10281000FE0EDBCFE6FF12000A0E0102F3CF01F03D
:102820000002F3CF00F0F4500126050E005E000E0A
:10283000015A040E1200EEEC18F054EC65F08FEC27
:1028400018F013EC19F0A4DB6CEC66F06EEC18F0E9
:102850002AC003F0D9EC18F019EC66F0E1EC67F04F
:1028600028C072F029C073F012006BEC18F07FECF6
:1028700019F0B9EF17F0F0C504F0056A066A076AA7
:10288000100E2B6E270E2C6E2D6A2E6AF0C526F0C8
:1028900005C027F006C028F007C029F08CEC82F0B4
:1028A00022C004F023C005F024C006F025C007F0C4
:1028B00071EC19F008C02BF009C02CF00AC02DF003
:1028C0000BC02EF019EC67F026C002F027C003F011
:1028D00026C0E6FF27C0E6FF58EC00F04FEF18F0E7
:1028E000E2DB4CEC19F0020EF626000EF722F8227D
:1028F00008001200D9CFE6FFE1CFD9FF1200E55260
:10290000E7CFD9FF120029DB6CEC58F094EC19F0FA
:10291000B9EF17F05AEC19F007C027F008C028F0FB
:1029200009C029F098EC67F024C007F025C008F032
:1029300026C009F004502424F36E05502520F46EBF
:102940000650262054DB0800F5CF02F002C003F049
:10295000026AE60E0A6EF80E0B6E000E0C6EC6C012
:102960000DF0C7C00EF00F6A1200FC0EDBCFE9FFBE
:10297000FD0EDBCFEAFFEF501200100EE66E270EC1
:10298000E66E58EC00F08BDB21EF19F05AEC19F0F1
:102990000DC027F00EC028F00FC029F098EC67F0AA
:1029A00024C00DF025C00EF026C00FF00A502424DC
:1029B000F36E0B502520F46E0C50262018DBE1EC52
:1029C00018F041EF18F02B6E2C6AF6DA8CEC82F0DE
:1029D00038EF18F0C2DA01EC19F0B9EF17F088EC13
:1029E00019F0A6EC29F0E552E5521200040EDBCFF7
:1029F00000F0050EDBCF01F012009ADBDBCFE6FF23
:102A000074DB48EF18F019DB42EC43F0E552E55275
:102A10001200880E006EFA0E016E000E026EDECFFE
:102A200003F0DDCF04F0056A120097DAFDEC58F0F0
:102A3000046E0B0EE15E0450B9EF17F00050032452
:102A4000F36E01500420F46E02500520D0DA080025
:102A5000F550120039510C0DF3CFE9FFF4CFEAFF26
:102A6000150EE926090EEA221200F80EDBCFE6FF6A
:102A7000F90EDBCFE6FF12002C6E9EDA19EC67F040
:102A800027C001F05BDB2650EE260150ED2212003C
:102A9000DBCF0AF0030E0926000E0A220B6A005053
:102AA0000924F36E01500A20F46E02500B209FDAC5
:102AB0000800F550E66E12002D6E2E6A00C028F058
:102AC00001C029F06CEC83F028C000F029C001F0AF
:102AD0001200E66E97EC7BF03AD3ECDB06C027F0F1
:102AE00007C028F008C029F098EC67F003502424B0
:102AF000006E04502520016E05502620026E120043
:102B0000140EE66EE66AE66A3A0EE66E090EE66EA8
:102B1000E3EC74F072DABFEF18F0546B556B566B40
:102B2000576B586B596B5A6B5B6B120046EC6CF031
:102B30004FEF18F0FD0EDBCF00F0FE0EDBCF01F003
:102B40001200040E00C0DBFF050E01C0DBFF120007
:102B5000060EDBCF00F0070EDBCF01F01200E66EB1
:102B6000E66A01EC2AF0E552E5521200FA0EDBCFDC
:102B7000E9FFFB0EDBCFEAFF1200EFD937EC76F06E
:102B8000026E050EE15E0250D4DBF350F410120029
:102B90005DDBE552E750EE6EED6A12004EDAE66A52
:102BA000120067DBA6C0E6FFA7C0E6FFA8C0E6FFED
:102BB000A9C0E6FF1200240EE66EE66AE66A150E6C
:102BC000E66E090EE66EE3EC74F017DA0901396B74
:102BD0001200450EE66EC00EE66E000E7CDA92EC38
:102BE00075F0FDEF17F0026E85DBB7D9DDEC57F01D
:102BF000036E050EE15E03501200E926000EEA2284
:102C00000050EE260150EE220250EE22035000D377
:102C10003DDB9EC026F09FC027F0A0C028F0A1C0D9
:102C200029F0F5EF82F0FD0EDBCF28F0FE0EDBCFB2
:102C300029F00351285C006E04512958016E026A84
:102C4000036A12003AC900F03BC901F0026A036A44
:102C50003AC9E6FF3BC9E6FF79EF18F044C900F036
:102C600045C901F0026A036A44C9E6FF45C9E6FFA7
:102C700079EF18F0EF51640D5CDBE3DA58EC00F00B
:102C8000E552E5521200E60E006EF80E016E000EDF
:102C9000026E120000500008000E01541200D8907D
:102CA00001320032E8041200E4DAACC0E6FFADC045
:102CB000E6FF12000FC94EF910C94FF911C950F9BA
:102CC00012C951F9ACC052F9ADC053F91200E12656
:102CD000D950FC0F1CEF19F0F80EDBCFE9FFF90E0D
:102CE000DBCFEAFFEF501200F6D975EF18F0E60ED1
:102CF000046EF80E056E000E066EC6C007F0C7C063
:102D000008F0096A1200E60E036EF80E046E000E5B
:102D1000056EC6C006F0C7C007F0086A120049DA9F
:102D20006CEC66F0E1EF67F0000ED8800B55000EFA
:102D30000C5512008BDAEE50ED101200D8900336CD
:102D400004360536E8061200E66AE2DA3DEC75F074
:102D5000FED1E80E2B6E030E2C6E2D6A2E6A120029
:102D6000FC0EDBCF00F0FD0EDBCF01F01200020EF7
:102D7000F3CFDBFF030EF4CFDBFF1200020EDBCF3D
:102D8000E6FF030EDBCFE6FF1200010E0026000E69
:102D900001221200E66EFE0EDBCFE6FFCCEC1AF04D
:102DA000D6D1DBCFEAFFDB0EE926000EEA22E552A0
:102DB000E750EF6E1200EE2A000EEE22EE2228D22D
:102DC000640E2D6E2E6A0DC928F00EC929F06CEF25
:102DD00083F0006E020EE15C1200A2C0E6FFA3C009
:102DE000E6FFA4C0E6FFA5C0E6FF1200DBCFE6FFCA
:102DF0007FEF19F02BDA000ED880EE54000EED5460
:102E0000120003C905F904C906F90BC907F90CC971
:102E100008F912000FC926F010C927F011C928F0CF
:102E200012C929F012000DDA20EC01F0E552E5524A
:102E3000120043EC0AF08BD1D2EC19F0FE0EDB50FD
:102E4000020812009A0EE66EBF0EE66E000E120029
:102E500002500008000E035412004D0E0701CB5D16
:102E60001200010EDBCF03F0020EDBCF04F0056A87
:102E700012000CDA8CEF82F0010E00010024746F56
:102E8000000E0120756F120050EC7BF0E55212002D
:102E9000F4CFDBFFD9501200030EF3CFDBFF040E9B
:102EA000F4CFDBFF1200020E00C0DBFF030E01C0F7
:102EB000DBFF1200060E00C0DBFF070E01C0DBFFC8
:102EC0001200D8900332023201320032E8061200BA
:102ED000020EDBCF00F0030EDBCF01F01200060E76
:102EE000DBCF02F0070EDBCF03F0120046EC6CF0F4
:102EF000E552E552F3CFF1F51200E750E926000E56
:102F0000EA22EF503F081200060E28C0DBFF070E32
:102F100029C0DBFF120090EC80F0FDEF17F0F80EF7
:102F2000DBCF28F0F90EDBCF29F01200020EDB6AAE
:102F3000030EDB6A1200050E0026000E01221200AD
:102F400089D93FEF19F0E66A9FDFFC0EF3CFDBFF74
:102F5000FD0E9EDFFC0FFFEF13F0E66E83EF19F01E
:102F6000A9EC13F0BB0EE66EC00EE66E000EC5EFC8
:102F700013F0F3CFDEFFF4CFDDFF120071D926C0CE
:102F8000E6FF27C0E6FF28C0E6FF29C0E6FF1200E3
:102F900052EC65F027C008F028C009F029C00AF0FB
:102FA0002AC00BF08CD904C027F005C028F006C059
:102FB00029F007C02AF012002D6A2E6A00C026F000
:102FC00001C027F002C028F003C029F012003F0E14
:102FD000E66EC00EE66E000E48DC42EF19F08AD9AC
:102FE0003D0EE66EC00EE66E000EE6EF13F0F86ED4
:102FF000F4CFF7FFF3CFF6FF1200006E050EE15E8F
:10300000005012006ED9DFCF2BF0010EDBCF2CF079
:10301000020EDBCF2DF0030EDBCF2EF0120078D99D
:10302000CBEC57F0E552E552020EE66EC3EC55F0DC
:10303000E552E9DCD4DC010E1200FC0EDBCFE6FF2A
:10304000FD0EDBCFE6FF1200FA0EDBCFE6FFFB0E34
:10305000DBCFE6FF1200A9EC13F0AB0EE66EC00E5C
:10306000E66E000EC5EF13F045DC020EE1261200FD
:1030700022C000F023C001F024C002F025C003F0FC
:10308000120000010224006E000E0320016E1200E7
:103090000F0EF3CFDBFF100EF4CFDBFF1200E55273
:1030A000E55299EF19F006D903C027F004C028F0C3
:1030B00005C029F098EF67F0E66EE66A390EE66E15
:1030C000C00EE66E000E1200E66EE66AE66AE66A7A
:1030D000E66AB8EF13F0E66E88EF19F027C000F04B
:1030E00028C001F029C002F012000CEC58F094EF57
:1030F00019F002C0E6FF03C0E6FF1200A9EC13F0CE
:10310000860EE66EC00EE66E000EC5EF13F013DFFE
:103110000A0ED2DC28C0E6FF29C0E6FF120027C055
:1031200004F028C005F029C006F02AC007F01200FC
:10313000E66E0F0EDBCFE6FF100E1200D9CFE9FFCF
:10314000DACFEAFF1200D950FA0FFFEF13F0E55281
:10315000E552E5521200EEDC09010050035D01501A
:103160000459120077D8E6EF13F08DDDC6C003F0E6
:10317000C7C004F0056A120089D8F5EF82F0090192
:103180004E6B4F6B506B516B526B536B12007AEC62
:1031900014F0020E9CDDD00EEE1812005BD8EAEFA0
:1031A00014F09CEC11F0006E080EE15E00507FEF11
:1031B00014F02C6A400E2D6E1C0E2E6E460E2F6ED5
:1031C0001200F62A000EF722F8220800F55012002D
:1031D0000BC900F00CC901F00CEF14F0040EDBCFAA
:1031E00028F0050EDBCF29F0120083EC14F000016B
:1031F0006B51E66EE66A1200E6EC13F023DECDEFCB
:1032000013F028EC58F0046E090EE15E0450120031
:10321000EE2213C900F014C901F012000122000EC1
:1032200002220322120003C928F004C929F0120067
:10323000D950F80FFFEF13F0E96EFF0EDA20EA6EB7
:103240001200F3CFE6FFF4CFE6FF1200E96EDACF0B
:10325000EAFF1200E00EE66EC00EE66E000E1200EF
:1032600026C000F027C001F028C002F029C003F0FA
:103270001200006E090EE15E0050B9EF17F0E66E25
:10328000B8EF13F0D950FC0FFFEF13F00A0E2B6EBE
:103290002C6A2D6A2E6A120000502424F36E01500D
:1032A0002520F46E02502620F7EF17F0E66EE66A4E
:1032B000A0EF17F00B0E2C6E2D6A2E6A120027C09D
:1032C0002CF028C02DF029C02EF02AC02FF01200BB
:1032D0001DC900F01EC901F01FC902F020C903F08A
:1032E000120022C026F023C027F024C028F025C0F9
:1032F00029F0120000C0E6FF01C0E6FF1200DDEC7D
:1033000057F0FDEF17F0DECFE6FFDDCFE6FF12004E
:10331000000EE66E060EE66E120030DE4C0EE66E15
:10332000BF0EE66E000E1200006E070EE15E00504A
:0C3330001200F3CF00F0F4CF01F0120007
:04333C000901FC6B1C
:10334000FD6B12000901BB6B12007F0E0601C85D08
:1033500008E10001000EF56FBB0EF66F000ED2EF14
:1033600025F00901010EBC6F050E37EC25F00001B8
:10337000F40EF56FBA0EF66F000ED2EC25F00A0EC1
:1033800037EF25F07F0E0601C85D04E1000113EC64
:1033900026F006D00001EF0EF56FBA0EF66F000EA4
:1033A000D2EF25F08AEC27F07F0E0601C85D05E11B
:1033B0008EEC26F0A6EC29F05AD00901EB0549E184
:1033C000450E0601055D45E0410E055D42E0610EDA
:1033D000055D3FE0670E055D3CE0500E055D39E0A0
:1033E000020E05C6DBFF060EE66E060EE66E000E4A
:1033F000E66E050E2DEC26F01DEC25F04DEC25F0CB
:1034000002E619EC26F005E2FDEC26F0F7E3DB2AF4
:10341000F5D7000EE66E050EE66EE9EC27F0000E1D
:10342000E66E050EC0EC24F0E70EE66EBA0EE66E10
:10343000000EA2EC24F0020EDBCF07F6080EE66EBB
:10344000060E03EC28F0000EE66E050EE66E48EC64
:1034500026F08EEC26F0E9EC27F047EC25F082EC24
:1034600026F08EEC26F019EC70F0E552E552E552AC
:10347000E552000113EC26F0D2EC25F0030EE15CDE
:1034800002E2E16AE552E16EBCEF24F0B7EC24F011
:10349000050EE126D650016E006A030E00C0DBFF68
:1034A000040E01C0DBFFD750B2EC25F0DF6A080E36
:1034B000DF5C0BE2DF50EA6ADB0FE96E000EEA2206
:1034C000EF50B2EC25F0DF2AF2D7030EDBCFE6FF98
:1034D000040EDBCFE6FFD5EC6EF0E552E552DF6A75
:1034E000160EDF5C11E2C2EC24F004BE056860EC4D
:1034F00025F0DF50EA6ABD0FE96E090EEA22E552B7
:10350000E750EF6EDF2AECD70901D36B090E33ECDD
:1035100027F00EEC25F0D80EE66E040EE66E12ECE7
:1035200025F0F6EC27F012EC25F0160EE66EE66AB2
:103530001EEC26F056EC7EF0026E0A0EE15E0250A2
:103540000001DF0EF56FBA0EF66F000ED2EC25F01B
:103550001EEC26F0A0EC25F045EC27F058EC25F009
:1035600019EC70F038EC27F0000145EC27F0080E5C
:1035700033EC27F00EEC25F012EC25F0A0EC25F052
:1035800013EC26F0D2EC25F0050EE15C02E2E16AD4
:10359000E552E16EBCEF24F0DEEC26F08EEC26F076
:1035A000F6EC27F08EEC26F07BEC57F0E552E55276
:1035B0000AEC25F0FE0EDB50020A11E0030A03E0DC
:1035C000010A1EE109D092EC25F04FEC26F003E150
:1035D000DE52DD50011814E022EC27F011D092ECFD
:1035E00025F04FEC26F003E1DE52DD50011808E033
:1035F000ACDE22EC27F0010EF36EFE0EF3CFDBFF04
:10360000FE0EDB50006E020EE15C02E2E16AE55262
:10361000E16E0050BCEF24F08EEC27F0020E33EC8C
:1036200027F0FEEC25F0D60EE66EBA0EE66E000E22
:1036300073EC24F098EC26F082EC26F0C9EC27F02D
:103640000DEC27F098EC26F060C0E6FF61C0E6FFC5
:103650004AEC24F000016251F1EC26F000016651C1
:103660000F0A20E0020A18E0090A10E0060A08E042
:10367000030A1EE1CA0EE66EBA0EE66E000E1DD0FB
:10368000C20EE66EBA0EE66E000E17D0BC0EE66EE7
:10369000BA0EE66E000E11D0B30EE66EBA0EE66EEE
:1036A000000E0BD0AA0EE66EBA0EE66E000E05D026
:1036B000A10EE66EBA0EE66E000EE4EC27F00001F5
:1036C0006851040A18E0070A10E0020A08E0010A3B
:1036D00018E1970EE66EBA0EE66E000E14D08E0E4E
:1036E000E66EBA0EE66E000E0ED0870EE66EBA0ECD
:1036F000E66E000E08D07A0EE66EBA0EE66E000E8A
:1037000002D07CEC26F0E4EC27F041EC25F04D08EB
:103710000FE172C0E6FF73C0E6FF4AEC24F074C00C
:10372000E6FF75C0E6FFC9EC27F09FEC26F01AD043
:1037300072C000F073C001F0040E23EC26F0FDE12E
:1037400079EC24F08FEC24F098EC26F074C000F0B3
:1037500075C001F0040E23EC26F0FDE179EC24F0B5
:103760008FEC24F098EC26F000016351F1EC26F088
:1037700064C0E6FF65C0E6FF4AEC24F00001695131
:10378000F1EC26F000016A51F1EC26F000016751DE
:10379000F1EC26F000016651F1EC26F000016851D1
:1037A000F1EC26F0AEC000F0016A00BE0168EEEC5C
:1037B00027F0AFC0E6FFB0C0E6FF4AEC24F0B6C089
:1037C00000F0016A00BE0168EEEC27F0EC0EE66E38
:1037D000090E92EC24F0040EE15C02E2E16AE5528B
:1037E000E16E0050BCEF24F0DEEC26F001EC26F098
:1037F000730EE66EBA0EE66E000EC3EC27F0EDEC2B
:1038000024F0AAEC27F000BE016862EC24F0EE0E72
:10381000E66E090E92EC27F002E2E16AE552E16EF3
:103820000050BCEF24F0B7EC24F0070EE1266C0E3C
:10383000E66EBA0EE66E000EC3EC27F0FAEC26F048
:103840000EEC25F0DF6A040EDF5C6EE256EC26F02B
:10385000EFCF00F0000EE76E0018E8AE02D00034A3
:1038600003D0E750D880005451E2DF50EA6A980F45
:10387000E96E000EEA22EFCF04F004C029F041EC1B
:1038800065F027C000F028C001F029C002F02AC06E
:1038900003F0560E2C6E0E0E2D6E8D0E2E6E3E0EFD
:1038A0002F6E19EC66F010EC68F0030E26C0DBFFFB
:1038B000040E27C0DBFF050E28C0DBFF060E29C063
:1038C000DBFF44EC26F0D950030FBCEC25F0E66A90
:1038D000E66AE66A12EC25F0FDEC58F0006E0B0E7D
:1038E000E15E00500EEC25F056EC26F0EF50D80FBC
:1038F000006E016A00BE0168F5EC26F07CEC26F053
:10390000E66EF2EC27F07CEC26F005D0670EE66E52
:10391000BA0EE66E000EE66E12EC25F0FAEC26F01A
:103920000EEC25F0DF2A8FD7B5C000F0016A00BE8B
:103930000168F5EC26F0E66AE66AE66AF2EC27F042
:10394000F00EE66E090E92EC24F0070EE15C02E246
:10395000E16AE552E16E0050BCEF24F08AEC27F0FA
:10396000010EF36E020EF3CFDBFFF36EDB6ED5ECD0
:1039700025F0600EE66EBA0EE66E000EE1EC27F062
:103980000F0EF66E000EF76E000E19EC25F0100EFD
:10399000F66E000EF76E000E19EC25F0020E2AEC02
:1039A00027F003EC28F0F9EC27F07F0EE66E000E0E
:1039B000E8EC24F00001BA51BAEC26F00501F4510C
:1039C000BAEC26F0C80EE66E050EE8EC24F0BD0E4B
:1039D000E66E000EE8EC24F0F20EE66E090E92ECB4
:1039E00024F0030EE15C02E2E16AE552E16E005070
:1039F000BCEF24F0B7EC24F0060EE12600017A516A
:103A00007B117C117D1109E1020EDB6A030EDB6A7A
:103A1000040EDB6A050EDB6A1DD07A0EE96E000E1D
:103A2000EA6EEE500001765D006EEE507759016E41
:103A3000EE507859026EEE507959036E020E00C0B6
:103A4000DBFF030E01C0DBFF040E02C0DBFF050E2F
:103A500003C0DBFF00016B51E66EE66A540EE66EB2
:103A6000BA0EE66E000EE1EC27F000016C51BAECE4
:103A700026F000016F51BAEC26F091C000F0016A07
:103A800000BE016862EC24F000019251BAEC26F00D
:103A900093C000F0016A00BE016862EC24F09CC093
:103AA000E6FF9DC0E6FF47EC24F09EC0E6FF9FC006
:103AB000E6FFA0C0E6FFA1C0E6FF3CEC25F0000158
:103AC0007051BAEC26F0D950020FBCEC25F03CEC5A
:103AD00025F07EC000F0016A00BE016862EC24F0AF
:103AE00000016D51BAEC26F0B3C000F0016A00BECF
:103AF000016862EC24F0B2C000F0016A00BE016807
:103B000062EC24F044EC26F0BBC000F0BCC001F035
:103B1000026A036ABBC0E6FFBCC0E6FF02C0E6FF64
:103B200003C0E6FFA7EC27F0FDEC58F0046E0B0E87
:103B3000E15E045093EC26F000016E51BAEC26F0E1
:103B4000F40EE66E090E92EC24F0060EE15C02E241
:103B5000E16AE552E16E0050BCEF24F0DEEC26F0A5
:103B60004D0EE66EBA0EE66E000EC3EC27F0C0EC0A
:103B700027F00701CF51D011D11117E0CFC7F6FFC1
:103B8000D0C7F7FFD1C7F8FF0800F5500EE0CFC748
:103B9000E6FFD0C7E6FFD1C7E6FF82EC26F0C0EC17
:103BA00027F0A7EC27F0C0EC27F03D0EE66EBA0E2A
:103BB000E66E000E03EC28F0C0EC27F0FA0EE66E7D
:103BC000090E92EC27F002E2E16AE552E16E005044
:103BD000BCEF24F0DEEC26F05DEC26F0360EE66E4F
:103BE000BA0EE66E000EC3EC27F00DEC27F0FEECEB
:103BF00025F047EC24F000017051BAEC26F0AAEC55
:103C000027F000BE016862EC24F001EC26F0A7EC7E
:103C100027F0EDEC24F0FD0EDB0404E1F60EE66E79
:103C2000090E03D0F80EE66E090E92EC27F002E2C0
:103C3000E16AE552E16E0050BCEF24F0B7EC24F0ED
:103C4000090EE126010EF36E080EF3CFDBFF020E24
:103C5000F36E080EF3CFDBFFE0EC25F0EE50ED1035
:103C600001E142D1FD0EDBCFDEFFDBCFDDFF41EC1A
:103C700025F009E041EC25F0200805E0DF2A010EDF
:103C8000F6E3DB2AF4D741EC25F0200801E02CD143
:103C900064EC26F001E3DB2AEF6A6CEC24F01EEC06
:103CA00026F032EC26F001E11FD1090EE66E28EC79
:103CB00025F0D80EE66E040E9DEC24F06CEC24F09A
:103CC0002DEC25F06CEC24F0E7EC25F08EEC26F0E2
:103CD00058EC25F048EC26F08EEC26F082EC26F02D
:103CE00032EC26F001E000D16CEC24F0000EE66E20
:103CF000060E2DEC26F01EEC26F005EC25F0D80E75
:103D0000E66E040E9DEC24F08EEC26F02DEC25F0F2
:103D10008EEC26F0E7EC25F058EC25F04CEC27F083
:103D2000C6EC25F080EC25F002E619EC26F00AE25C
:103D3000FCEC27F04AEC25F0060EDB2A070EF2E336
:103D4000DB2AF0D758EC25F054EC27F0C6EC25F030
:103D500080EC25F002E619EC26F00AE2FCEC27F0F4
:103D600047EC25F0060EDB2A070EF2E3DB2AF0D73C
:103D70000901010EBB6F0A0EE66E28EC25F076EC09
:103D800024F050084EE10901EB5127E1060EDB6AF1
:103D9000070EDB6A80EC25F004E6160E005C000ED0
:103DA000015819E2C2EC24F004BE056860EC25F06D
:103DB000060EDBCFE9FF070EDBCFEAFFD40EE926C4
:103DC000090EEA22E552E750EF6E060EDB2A070ED7
:103DD000E1E3DB2ADFD70901EA6BEB6B2E0EE66E1F
:103DE000BA0EE66E000EA2EC24F072EC26F005ECA2
:103DF00025F0A5EC19F0AEEC25F00901010EEB6FF2
:103E0000E66E28EC25F0E80EE66E040E9DEC24F03C
:103E100072EC26F02DEC25F072EC26F0E7EC25F0A4
:103E200002D00901EB6B0501F69FD5EC25F00E0ED3
:103E3000E66EBA0EE66E000E00EC28F00F0EF66E7F
:103E4000000EF76E000ECFEC26F067EC24F0100E9B
:103E5000F66E000EF76E000ECFEC26F067EC24F045
:103E60000E0E33EC27F0AAEC26F00C0EE66EBA0E1E
:103E7000E66E000EFAEC25F0026E070EE15E0250CF
:103E8000A3EC26F00701CC51CD11CE110CE0CCC72C
:103E9000E6FFCDC7E6FFCEC7E6FFEAEC26F0FAEC78
:103EA00026F0A3EC26F0080E2AEC27F067EC24F0AD
:103EB0000501F551BBEC27F00501F651E66EE66A07
:103EC0007CEC26F0E66EEAEC26F06CEC58F0D3ECD5
:103ED00027F0A3EC26F00501F751BBEC27F0140EF8
:103EE00018EC27F0AEEC25F0090EE15C02E2E16A85
:103EF000E552E16EBCEF24F08AEC27F00901BB51DA
:103F00001AE1070EE66EE66A040EE66EBA0EE66E7B
:103F1000000EC6EC27F037EC26F001E0B9D0070E12
:103F2000FDEC24F08BDEE552E5520601060ED06F63
:103F30000E0ED16FADD005EC27F08EEC26F06CECB8
:103F400024F078EC27F082EC26F04AEC25F0050E00
:103F5000E66EE66AFE0EE66EB90EE66E000EC3EC85
:103F600027F037EC26F006E0400EE66EBAEC2AF0B9
:103F7000E5528ED0D950FD0FA3EC27F0050EEE6E62
:103F8000060EED6E51EC25F0EF50450835E15CEC86
:103F900027F04D0831E1E0EC25F0020EEE26000E90
:103FA000ED2205EC27F0010EE66E050EE66E010E21
:103FB000FDEC24F078EC27F01DEC25F04DEC25F01D
:103FC00002E619EC26F005E2FDEC26F0F7E3DB2A29
:103FD000F5D782EC26F0010EE66E050EC0EC24F05B
:103FE00051EC25F0EFCF00F5D950FD0FA3EC27F0F1
:103FF000000EEE6E050EED6E0501F6BF03D0050155
:10400000150EF76F51EC25F0EF50430A37E0190A0F
:1040100011E01B0A3DE1F70EE66EB90EE66E000EEA
:10402000A2EC24F00901BC5133E1A5EC19F0D2EC6B
:1040300019F01ED05CEC27F030081DE00001010EE5
:10404000B96F0901BC5124E1A5EC19F0E66A0CEC4A
:104050001BF0E552E66AF4EC1BF0E552E66A13EC5D
:104060001CF0E552E66A7ADCE552E66AC3DCE5520A
:10407000C2EC19F00DD00001B96B0AD0010EFDECB5
:1040800024F00ED8E552E5520901BC5101E1D1D925
:10409000030EE15C02E2E16AE552E16EBCEF24F05E
:1040A0008EEC27F0FD0EDBCFDEFFDBCFDDFF41EC3A
:1040B00025F009E041EC25F02C0805E0DF2A010E8F
:1040C000F6E3DB2AF4D741EC25F02C0805E164EC9B
:1040D00026F001E3DB2AEF6A6CEC24F046EC6CF08E
:1040E000E552E552F3CFFCF9F4CFFDF9DECFFEF94E
:1040F000DDCFFFF9040EE15C02E2E16AE552E16E18
:10410000BCEF24F0B7EC24F0060EE126020E37ECEB
:1041100025F0310E0901FC1901E1FD5101E16BD1DE
:10412000290EFC1901E1FD5101E155D1280EFC19C0
:1041300001E1FD5101E124D1060EFC1901E1FD511F
:1041400001E11AD1050EFC1901E1FD5101E10BD18C
:10415000040EFC1901E1FD5101E1BCD0030EFC1974
:1041600001E1FD5101E182D0020EFC1901E1FD5196
:104170002AE0010EFC1901E1FD5102E0000E50D1D0
:10418000DE6ADD6A4DEC25F004E6100E005C000EE0
:10419000015801E344D182EC26F0EC0EE66EB90E34
:1041A000E66E000E00EC28F0100EBBEC27F00AECD7
:1041B00026F0EF50BBEC27F0D2EC19F0DF2A010E0D
:1041C000E1E3DB2ADFD7EEEC25F090DB09E042ECFF
:1041D00027F006E0020EDB2A030EF7E3DB2AF5D711
:1041E00042EC27F001E0B8D0A6EC25F001E3DB2A91
:1041F0001BEC27F001E0AAD06BEC26F004E6100ED1
:10420000025C000E035801E3A1D087EC26F046ECD7
:104210006CF0E552E552F350E66E0AEC26F0E552FA
:10422000E750EF6E4DEC25F004E6080E005C000E42
:10423000015810E387EC26F096EC27F0080E005E9C
:10424000000E015A180E0024E66E97EC7BF0E55242
:10425000E552E55228EC26F00F0EEE1804E1ED5081
:1042600002E14AEC72F0CCEC25F07BD0DE6ADD6A2C
:104270004DEC25F004E6200E005C000E015801E331
:10428000CED0DFCFE6FFE4DB28EC26F0090EEE18F7
:1042900004E1ED5002E141EC26F082EC26F0E10E63
:1042A000E66EB90EE66E000E00EC28F0200EBBECB8
:1042B00027F087EC26F07CEC26F0FAEC25F0D3EC26
:1042C00027F0A3EC26F0D2EC19F0DF2A010ED0E3A0
:1042D000DB2ACED7EEEC25F009DB09E042EC27F033
:1042E00006E0020EDB2A030EF7E3DB2AF5D742ECE9
:1042F00027F032E1A6EC25F001E3DB2A1BEC27F0E6
:1043000025E16BEC26F004E6180E025C000E035863
:104310001DE287EC26F0DFCFE6FF97EC7BF0E5525D
:10432000E552E552CCEC25F0B9DA28EC26F0020E85
:10433000EE1801E1ED5007E028EC26F00E0EEE1825
:104340001CE1ED501AE14AEC72F017D0750EE66EE2
:10435000030EE66E010E05D0490EE66E030EE66E04
:10436000010E9CDA0AD0CCEC25F09BEC27F0040E71
:10437000E66EBAEC2AF052D044DAD2EC19F04FD003
:10438000EEEC25F0B3DA09E042EC27F006E0020E8D
:10439000DB2A030EF7E3DB2AF5D742EC27F013E123
:1043A000D5DB01E3DB2AEF6AF5EC25F042EC43F0C4
:1043B000E552E55287EC26F0C3DBEF0EF56FBA0E3F
:1043C000F66F000E20D0A5EC19F0490EE66E030E34
:1043D000E66E010E1DD00001D50EF56FB90EF66F19
:1043E000000EE0DBF5EC25F0ABDBCF0EF56FB90E80
:1043F000F66F000E08D0F5EC25F0A2DBCD0EF56FC0
:10440000B90EF66F000ECEDB050E18EC27F0C4DBFC
:104410009BEC27F0020EE66EC3EC55F0E552010E60
:10442000006E060EE15C02E2E16AE552E16E0050C8
:10443000A3D20501F6BF03D00501160EF76F020ED9
:1044400016DB280E0901FDAF02D0D89003D0FC5D29
:10445000000EFD5907E3FD3507E2FC513108000E5F
:10446000FD5502E2A5EC19F00001E351E411E5115C
:1044700019E0FEC9E6FFFFC9E6FFFCC9E6FFFDC97A
:10448000E6FF010EE66E07D0E5C0FBFFE4C0FAFFD1
:104490000001E351F96EF8DF006E050EE15E005099
:1044A00000090AE12FDE000907E1E40EE66E030EC3
:1044B000E66E010E9BEC27F0C2EC19F00901FC6BD3
:1044C000FD6BFEC9E9FFFFC9EAFFEF6A12004FDA90
:1044D0000901BB512BE0BC51000828E3020E18EC87
:1044E00027F0C50EE66EB90EE66E000E2BDABA0E98
:1044F000E66EB90EE66E000EC3EC27F01ADBECD9BF
:1045000084DAB10EE66EB90EE66E000EC3EC27F04B
:1045100010DBAA0EE76EFB0EDBCFE9FFFC0EDBCF54
:10452000EAFFE5DBEF6AC9DB70DA18DB25D28EEC37
:1045300027F0020EDB6A030EDB6A0901BB516BE058
:104540003FDBEE50ED1067E0220EC6EC27F03DECAD
:1045500075F0E552E552E552EBDBF3CF00F0F4CF16
:1045600001F0F350F41022E0020EDB2ADBCF00F062
:10457000030E01E3DB2ADBCF01F0FD0E00C0DBFF01
:10458000FE0E01C0DBFFB2D910E0B0D922080DE069
:1045900042EC27F004E111EC27F02E0EEF6E020E34
:1045A000DB2A030EF0E3DB2AEED76BDB290EE66E87
:1045B000E66A030EE66EBB0EE66E000EE1EC27F037
:1045C000D950020FA3EC27F0EE50ED100DE084D986
:1045D000AD0EE66EB90EE66E000E03EC28F006ECAA
:1045E00058F0006E070E0BD0960EE66EB90EE66E12
:1045F000000E03EC28F0DDEC57F0006E050EE15ED6
:10460000005091DB0901BC51000802E2140E2FDAC0
:10461000A5EC19F0A3DA040EE15C02E2E16AE552CE
:10462000E16EAAD1A4D900016BA552D00001685156
:10463000040A18E0070A10E0020A08E0010A18E17B
:104640008A0EE66EB90EE66E000E11D07F0EE66E93
:10465000B90EE66E000E0BD0760EE66EB90EE66E63
:10466000000E05D0670EE66EB90EE66E000EA2DBF8
:10467000000166510F0A26E0020A1EE0090A16E050
:10468000060A0EE0030A06E00D0EE66EB90EE66EAF
:10469000000E23D05E0EE66EB90EE66E000E1DD043
:1046A000480EE66EB90EE66E000E17D03A0EE66EB4
:1046B000B90EE66E000E11D0300EE66EB90EE66E43
:1046C000000E0BD01E0EE66EB90EE66E000E05D083
:1046D000000EE66EB90EE66E000E6CDB4D0E0701A5
:1046E000CB5D11E174C0E6FF75C0E6FF06EC28F073
:1046F00026DB36D972C0E6FF73C0E6FF0DEC28F06A
:104700001EDBE0DB18D074C000F075C001F0040EB1
:104710009ADAFEE1EED806EC28F025DB21D972C04A
:1047200000F073C001F0040E8EDAFEE1E2D80DEC69
:1047300028F019DBCEDB3EDB9EEC27F0E20EE66EC6
:10474000B80EE66E000EC6EC27F0F9DA09D9E00ED5
:10475000E66EB80EE66E000E2DDB4D0E0701CB5D4A
:1047600010E19EC000F09FC001F0A0C002F0A1C007
:1047700003F0B7D903DB046E090EE15E0450A2DB3F
:1047800037D09EC004F09FC005F0A0C006F0A1C0C5
:1047900007F0A7D926C004F027C005F028C006F00E
:1047A00029C007F0040E1F0BB4D907E0D8900036DB
:1047B000013602360336E806F9E1050E0026000E42
:1047C0000122022203220A0E2B6E2C6A2D6A2E6A07
:1047D00000C026F001C027F002C028F003C029F075
:1047E000F5EC82F0CBDA086E090EE15E085071DB61
:1047F000CDDB00DBB5D882DB00C0F3FF01C0F4FFE6
:10480000BBD0DCDA34D9C50EE66EB90EE66E000E0A
:10481000BADBB6DB77DA06DFE552E552020EE15C81
:1048200002E2E16AE552E16EA7D0C8DA01DBB60E1A
:10483000E66EB80EE66E000E68DB02E2E16AE55253
:10484000E16E9AD0BBDAF4DA8B0EE66EB80EE66E45
:10485000000E5BDB02E2E16AE552E16E8DD0AEDA7A
:104860006DDB5B0EE66EB80EE66E000EAADB540E34
:10487000E66EB80EE66E000EC6DB82DBD2EC19F0F7
:10488000020EE15C02E2E16AE552E16E75D05FDBA7
:10489000F9EF27F07EDB53DA98EF26F0E66EFCC9DD
:1048A000E6FFFDC9E6FF3F0EE66E030EE66E010E63
:1048B0006ADB59DA4FDADDEC57F0036E050EE15E84
:1048C0000350120092DA43DB4EDA93EF26F0E66EE5
:1048D00081DA35DAA3EF26F0FD0EDBCFE6FFFE0E20
:1048E000DBCFE6FF12004FDB9FEF26F09ADAEF50A6
:1048F0001200050E0026000E01220A0E2D6E2E6AF1
:1049000000C028F001C029F06CEC83F028C000F052
:1049100029C001F028C0E6FF29C0E6FF120039DBFC
:10492000B3EF26F0E66EFE0EDBCFE6FFCCEC1AF01E
:10493000E552E552E552006E1200E66EE8D956DB0C
:1049400087EF26F020DB92EC75F0006E050EE15E3D
:1049500000501200DDEC57F0006E050EE15E120013
:10496000FD0EF3CFDBFFFE0EF4CFDBFF1200D9CF3D
:10497000E6FFE1CFD9FF1200E552E7CFD9FF1200E1
:1049800017DB20D2860E006E040E016E010E026E41
:104990002CDAE66EDCEC6EF0E552E7CF02F0E55281
:1049A000E7CF01F0E552E7CF00F0F3CF03F0F4CF0B
:1049B00004F0400E2D6E2E6AF3CF28F0F4CF29F0CC
:1049C000F3EC66F024C003F025C004F0056A120081
:1049D000E66EBDDA22DA93EF26F064EC59F0DDDA08
:1049E000A6C0E6FFA7C0E6FFA8C0E6FFA9C0E6FF95
:1049F000AEDA64EC59F0CDEF27F0E76E7FDAE750DE
:104A00000026000E0122F5EF26F088D9FDEC74F0A7
:104A100038EF27F0E552E55293EF26F0DE5283D9C6
:104A2000DD521200010EDBCFE6FF020EDBCFE6FF08
:104A30001200B5D9E8DAF9EF27F0100EE66EE66A53
:104A4000E80EE66E040EB4DA4BDADE6ADD6A1200B6
:104A500050EC7BF0E55298EF26F00FDAF3CF02F03E
:104A6000F4CF03F0F3CFE6FFF4CFE6FF1200E66EDB
:104A7000C3EC55F0E55212006ADA28EC58F0CDEF9D
:104A800027F0DECFE9FFDDCFEAFFEF50120046D975
:104A90000BDA98D143D900DA95D148DAD890015091
:104AA0001200FD0EDBCFE9FFFE0EDBCFEAFF1200A6
:104AB000100EE66EE66AD80EE66E040EE66E120082
:104AC00000500324F36E01500420F46E02500520C0
:104AD000F86EF4CFF7FFF3CFF6FF0800F550E66E5F
:104AE00012000A0E2B6E2C6A2D6A2E6A9EC026F0CA
:104AF0009FC027F0A0C028F0A1C029F0F5EF82F0F8
:104B0000060EDBCF00F0070EDBCF01F0D89001508E
:104B1000120026C000F027C001F028C002F029C012
:104B200003F01200FC0EDBCFE9FFFD0EDBCFEAFF46
:104B3000120021EC75F0006E050EE15E00501200CF
:104B4000A6EC29F0E552E55200011200020EDBCF7F
:104B5000E9FFDB2A030EDBCFEAFF1200D2EC19F0EB
:104B6000C2EF19F0006E016AD950030FECD9005062
:104B7000EE260150ED221200E6D9EECFE6FFEECF91
:104B8000E6FFEECFE6FFEFCFE6FF1200A9D9060E53
:104B9000DB6A070EDB6A1200460EE66E030EE66E57
:104BA000010E1200F76F57EF29F00E0EF66E000E91
:104BB000F76E000EF86E0800F550E66EE66A120019
:104BC000D950FD0FE96EFF0EDA20EA6E120056ECA6
:104BD0007EF0046E0A0EE15E04501200020EFEC961
:104BE000DBFF030EFFC9DBFF1200FEC9E6FFFFC9B2
:104BF000E6FF1200E66EEED806EF58F094D89EEF6E
:104C000027F0A2C0E6FFA3C0E6FFA4C0E6FFA5C050
:104C1000E6FF1200DECFE9FFDDCFEAFFE50EE92671
:104C2000050EEA221200F10EF56FBA0EF66F000EB5
:104C30001200000E005C040E01581200BD0EE66E5C
:104C4000090EE66E1200D89000360136E804120014
:104C5000D9CFE9FFDACFEAFF1200E66E71EC75F00A
:104C600038EF27F051EC75F003D90009120099ECE8
:104C700074F099D90009120059D90001800E01146D
:104C80001200CFD8EF6A1200010EE66EE66A12003B
:104C9000C4EC6FF0006E060EE15E00501200EECF25
:104CA00000F0EFCF01F0DF5000181200DF50EA6A89
:104CB000940FE96E000EEA221200FB0EDBCFE6FF36
:104CC000FC0EDBCFE6FF1200DFCFE9FFDF2A010E8B
:104CD000DBCFEAFF1200DECF02F0DDCF03F0D89089
:104CE00003501200D40EE66E090EE66E1200E75075
:104CF000E926000EEA221200D40EE66EBA0EE66E27
:104D0000000E1200DECFE6FFDDCFE6FF1200020E3E
:104D1000DBCFE6FF030EDBCFE6FF1200000EE66EF0
:104D2000060EE66E1200F3CFDEFFF4CFDDFF1200B9
:104D3000020EF3CFDBFF030EF4CFDBFF12000CEC0F
:104D400058F0D3EF27F0040EF3CFDBFF050EF4CFBE
:104D5000DBFF1200F3CF00F0F4CF01F0F3CFE6FF5A
:104D6000F4CFE6FF12000CEC58F0026E070EE15E85
:104D700002501200E66EE66A47EF24F0CADE26C053
:104D8000E6FF27C0E6FF28C0E6FF29C0E6FFD80EF1
:104D9000E66EB80EE66E000EF9D828EF58F0F86E01
:104DA0000800F550E66EE66A5E0EE66EBA0EE66E36
:104DB000000E1200EBD8CEDDB0EF24F0D8DD020EED
:104DC000E1261200E66E9EEC7AF0006E080EE15EBF
:104DD00000501200040EDBCFE6FF050EDBCFE6FF2E
:104DE0001200E66EE66A4AEF24F000C0E6FF01C05A
:104DF000E6FF1200AFDD00501200FED8000EE66E96
:104E0000060EBEDDDF2A010E1200F10EE66EBA0EAE
:104E1000E66E000EBBD899EF25F006EC58F0D3EF04
:104E200027F0020EDBCFE9FF030EDBCFEAFF120013
:104E30001EDEA5EF19F0EF6AD8DE46EC6CF0EADD75
:104E40003CEF26F0D2EC19F06DDEDECFEEFFDDCFC9
:104E5000EDFF1200DBCFE6FFE66A5B0EE66EBA0EF0
:104E6000E66E000E1200E66E50EC7BF0E55212008A
:104E7000E552E552E552E5521200ABEC75F0E55211
:104E8000E552120033DD2C081200DD0EF56FBA0E6C
:104E9000F66F000ED2EF25F0000EE66E020EE66E03
:104EA000FA0EE66E040E1200000EE66E010EE66EBD
:104EB000F80EE66E040E1200010EE76EF2DD17DF4B
:104EC000EF5012004DDDEE0EE66EB80EE66E000EEF
:104ED000120046DDEA0EE66EB80EE66E000E120017
:104EE000E66EF5EC79F0006E080EE15E00501200FF
:104EF00080EC70F0E552E5520AEF25F0FD0EDBCFB5
:104F000000F0FE0EDBCF01F012001CDD27DE020EEA
:104F1000E15C12002CDD030EE126120028DD040EF8
:104F2000E1261200FFDC020EE15C1200DECF00F091
:104F3000DDCF01F01200B2DCD2EF19F000017151A7
:104F4000E66EE66A1200E96EDACFEAFF1200D4DEFE
:104F500003EF28F0AAC0E6FFABC0E6FF98DCACC0C8
:104F6000E6FFADC0E6FF93DC0001B15103DFB4C042
:104F700000F0016A1200E66EE66ABEDE67EF24F01A
:104F800039DF93EF26F0E66E8EEF26F0E66E6CEFDB
:104F900024F0B2DEE66E87EF26F0006E090EE15EC9
:104FA000005093EF26F0006E070EE15E00501200F5
:104FB000E66E000EE66E030EE66EFC0EE66E040E66
:104FC000120091DC93EF26F0E66EA1DE13DF98EF7E
:104FD00026F0ABEC75F01EDD82EF26F006DF9FDCDD
:104FE00098EF26F01FDDBFDE0EEF25F046DFAAEFBB
:104FF00026F0A5DE93EF26F00601006B44EF26F0C5
:1050000072DCA3EF26F0E66E82EF26F0F60EE66E77
:10501000B80EE66E000EC6EF27F0F20EE66EB80E82
:08502000E66E000EC6EF27F05A
:08502800D8CFE4FFE0CFE4FF64
:10503000E46EDACFE4FFE2CFDAFFE9CFE4FFEACFB4
:10504000E4FFF6CFE4FFF7CFE4FFF8CFE4FFF5CFBE
:10505000E4FFF3CFE4FFF4CFE4FFFACFE4FFFBCFAC
:10506000E4FF00EE20F0140EE80403E3EECFE4FFCB
:10507000FBD700EE00F0200EE80403E3EECFE4FFE0
:10508000FBD7E652E9EC7DF048EC7FF0E55200EE0C
:105090001FF0200EE80403E3E5CFEDFFFBD700EEA1
:1050A00033F0140EE80403E3E5CFEDFFFBD7E5CFC3
:1050B000FBFFE5CFFAFFE5CFF4FFE5CFF3FFE5CF48
:1050C000F5FFE5CFF8FFE5CFF7FFE5CFF6FFE5CF3A
:1050D000EAFFE5CFE9FFE5CFDAFFE550E5CFE0FFF6
:1050E000E5CFD8FF10000801009B120019EC34F046
:1050F000E652D9CFE6FFDACFE6FFBFEC7DF0E5520E
:10510000E552000901E1D0D0FF0E0601EB5D01E0A0
:1051100094D0C85103E07F0EC85D08E10A0EDF5C41
:10512000E8E00D0EDF5C02E10A0EDF6E0D0EDF5CC3
:10513000E0E056EC35F0B5EC34F003E1015001E16C
:10514000EA073A0EDF5C1EE1060EEA5D1BE3D3ECD4
:1051500034F018E1490E015D15E1500E025D12E1D7
:10516000440E035D0FE10601EA05F8EC33F0EF6A47
:10517000050EE66E070EE66E93EC34F0FD0EEB6F57
:10518000EA6BB7D70A0EDF5CB4E10601EA07EA5121
:10519000F8EC33F0EF6A040EEA5D48E3D3EC34F048
:1051A00045E1430E015D42E14D0E025D3FE1540ECB
:1051B000035D3CE1070EDF6EDF50DF2AF8EC33F0D1
:1051C000EF50220804E00601EA51DF5CF5E3DF045A
:1051D000F8EC33F0EF6A0601D66B140EE66EE66A61
:1051E000070EE66E070EE66ED60EE66E060E6BEC4A
:1051F00034F00601E96BEAC6DFFFDF50DF06F8ECAA
:1052000033F0EF502C0803E0DF500008F6E3DF50E6
:10521000016A000F006E070E0122020EBBEC34F093
:1052200093EC34F0EA6BFE0EEB6F63D7060152ECA1
:1052300034F00701006B060135D0FE0EEB5D1CE17A
:105240000D0EDF5C03E00A0EDF5C07E1EA51EA2B9A
:10525000F8EC33F0200EEF6E02D056EC35F0B5ECE2
:1052600034F003E1015001E1EA07EC07EC5101E001
:1052700040D7B7EC35F016D00D0EDF5C08E056ECE9
:1052800035F0B5EC34F003E1015001E1EA07EC0739
:105290000A0EDF5C03E1EA07B7EC35F0EC5101E000
:1052A00028D7EA6BEB6925D7E5521EEF34F0BCEC4A
:1052B00035F038E1DF6AEFEC33F00A080BE10D0E50
:1052C000DF5C08E0080100B1FDD70D0E22EC34F0E0
:1052D0000FE1FBD70D0EDF5C0BE1EFEC33F00A08BA
:1052E00007E0080100B1FDD70A0E22EC34F0FCE023
:1052F000EFEC33F028E0080100B1FDD7EFEC33F01C
:1053000022EC34F0FBE00001F5C0F6FFF52BF6C00F
:10531000F7FF000EF623F7C0F8FFF7230800F5505B
:10532000DF6EC9D7EFEC33F00EE0080100B1FDD716
:10533000EFEC33F022EC34F0FBE00001F52B000E33
:10534000F623F723EFD7E5521EEF34F0BCEC35F02F
:1053500035E1DF6A11EC34F00A080BE10D0EDF5C79
:1053600008E0080100B1FDD70D0E22EC34F00FE18A
:10537000FBD70D0EDF5C0BE111EC34F00A0807E0FF
:10538000080100B1FDD70A0E22EC34F0FCE011EC6C
:1053900034F025E0080100B1FDD711EC34F022EC27
:1053A00034F0FBE0FD0EDBCFE9FFDB2AFE0EDBCFA6
:1053B000EAFF01E3DB2AEFCFDFFFCCD711EC34F0BB
:1053C0000EE0080100B1FDD711EC34F022EC34F00E
:1053D000FBE0FD0EDB2AFE0EF1E3DB2AEFD7E55200
:1053E0001EEF34F019EC34F0080100B1FDD7FE0EC9
:1053F000DBCFE6FF98EC7DF0E5520009F8E01EEF08
:1054000034F019EC34F0040EE126030E58EC34F0BD
:10541000500EE66EB80EE66E000E39EC34F00EE07B
:10542000FD0EDBCF00F0FE0EDBCF01F000C001F07F
:10543000006A00500601F1130150F2134D0EE66EA2
:10544000B80EE66E000E39EC34F00BE0FD0EDBCF4B
:1054500028F0FE0EDBCF29F028500601F113295069
:10546000F213040EE15C02E2E16AE552E16E1EEF26
:1054700034F019EC34F0060EE1263AEC35F0E66E25
:10548000FD0EDBCFE6FFFE0EDBCFE6FFC5EC33F013
:1054900069E03AEC35F0C2EC35F064E0EDEC35F063
:1054A00061E0EDEC35F05EE0DBEC34F0EF504F08FE
:1054B00059E1010EE76EDBEC34F0E750E926000E0F
:1054C000EA22EF502D084EE1490EE66EB80EE66E68
:1054D000000EE66E020EE76EDBCF00F0030EDBCFB0
:1054E00001F0E750BBEC34F032EC35F045EC35F030
:1054F00039E0490EE66EB80EE66E000EFEEC33F0B3
:105500002FEC34F0F350F1EC35F0040EF3CFDBFF69
:10551000050EF4CFDBFF73EC34F00DE1040EDBCFAE
:10552000E9FF050EDBCFEAFFEF501CE0480EE66E08
:10553000B80EE66E12D0E2EC34F0040EDBCFE6FFDC
:10554000050EDBCFE6FF51EC75F0E552E552E55272
:10555000E552000907E0E2EC34F02FEC34F0F350B0
:10556000E9EC34F0060EE15C02E2E16AE552E16E3C
:105570001EEF34F019EC34F0020EE126FE0EDBCF04
:10558000C8F60601C851240A01E15FD1070A01E10A
:1055900052D1010A01E149D1030A01E115D1010A01
:1055A00001E1FCD0600A01E1D7D0030A01E1B9D0E2
:1055B000010A01E18FD0030A01E178D0530A69E0C2
:1055C000030A5CE0010A4FE0160A47E0030A3CE0E8
:1055D000010A33E0070A25E0010A21E0030A11E08D
:1055E0007E0A0CE07F0A01E03CD1CEEC35F04BECBA
:1055F00034F00601010ECD6F0A0E24D186EC60F066
:1056000030D10A0E6DEC35F00601030ECD6F140E8D
:10561000CE6FCF6B0001B96B9EEC19F022D1CD6B30
:1056200020D14BEC34F0D3EC55F00601020ECD6FD7
:105630007BEC34F00601CC6B14D1050ECD6F0A0E55
:105640007BEC34F00A0E9ED0060ECD6F020ECE6FAC
:10565000CF6BC96BD3EC55F004D1E66A8FEC33F015
:10566000AFEC55F0FED0090E6DEC35F09DEC34F04A
:105670004C0EF56F020EF66F010ED4D0080E6DECD5
:1056800035F09DEC34F0930EF56F020EF66F010EBF
:10569000C9D0070E6DEC35F00601030ECD6F230E59
:1056A000CE6FCF6BC96BF0EC34F0BCD0050EE66E5C
:1056B000E0EC35F0A6EC34F006E2070E35EC34F001
:1056C0000601400E05D0080E35EC34F00601020E3E
:1056D000CD6F14D0050E5BEC34F02F0EF56FB80EC5
:1056E000F66F000E82EC34F0090E35EC34F0A6ECC7
:1056F00034F002E2430E01D0020ECD6FCAC6CEF6E0
:10570000CBC6CFF60A0ED880CE57000ECF570F0E5D
:10571000CF03F3CFCFF6CE03F3CFCEF6F450CF279F
:10572000A0D0050E6DEC35F05FEC34F00601020EF2
:10573000CD6F3C0ECE6FCF6B060EC96F0001B96BFB
:10574000A2EC19F0D6EC35F0F7EC34F082EC34F042
:105750000601400EC86F85D0050E6DEC35F05FEC8C
:1057600034F058EC34F08EEC34F0EF5014E0CAEC26
:1057700082F0000910E00601020ECD6F3C0E7BECBA
:1057800034F0020E0CEC34F000013C0EF56FB80E54
:10579000F66F000E47D00601200EC86F020E6DECAA
:1057A00035F00901BC6B0601CD6BC96B0001B70573
:1057B00007E0050EB75D04E0780E0601D26F02D057
:1057C0000601D26BD36B4DD0060E6DEC35F0D6ECE6
:1057D00035F00601030ECD6FF00ECE6FCF6BA2EC4D
:1057E00019F00D0E58EC34F08EEC34F0EF5007E168
:1057F0000001FB0EF56F020EF66F010E13D00001D3
:10580000090EF56FB80EF66F000E82EC34F063EC03
:1058100035F09CDDE552E5520001FF0EF56FB70E45
:10582000F66F000E82EC34F01CD00A0ECE6FCF6BF8
:10583000400ECD6F16D0060E6DEC35F00601240E2D
:10584000CD6F1E0ECE6FCF6B0CD0CC51CC2B006E1B
:10585000140E005C02E2020E01D0030EE66E8ADE38
:10586000E552020EE15C02E2E16AE552E16E1EEFF2
:1058700034F019EC34F0110EE126FE0E0601EB5D5A
:105880001AE10001B70507E0050EB75D04E05FEC23
:1058900034F0DCEC35F00501F6BF03D005010A0E4B
:1058A000F76FFEEC34F0D60EE66E060EE66E02ECF6
:1058B00035F0BBEF30F0FF0EEB5D10E00501F6BFF9
:1058C00003D00501140EF76F2DEC35F07CEC1FF0C2
:1058D000E552E5520DEC35F0BBEF30F00501F6BFB7
:1058E00003D005011E0EF76F0601C8517F0A02E1C1
:1058F000B4EF30F05F0A01E117D2600A01E15ED136
:10590000630A01E141D1020A01E1F7D0330A01E162
:10591000CAD0030A68E0010A2CE0110A17E0010A64
:1059200002E0BBEF30F0050EEA5D02E2BBEF30F0C3
:105930001CEC35F0F90EE66EB70EE66E000E82EC4A
:1059400033F002E0BBEF30F07F0EEAD1020EEA5DE9
:1059500002E2BBEF30F0D7EC34F002E0BBEF30F006
:105960004B0E015D02E0BBEF30F0DCEC35F0100EC9
:10597000D7D1040EEA5D23E3D3EC34F020E1430EEB
:10598000015D1DE1530E025D1AE14D0E035D17E14D
:105990002DEC35F0ABEC75F0E552E552F3CFE9FFB5
:1059A000F4CFEAFFE906000EEA5A000EE926070ED8
:1059B000EA22EF50310801E1DED3030E5AD006018E
:1059C000C95101E0D8D3020EEA5D01E2D4D3D7EC8D
:1059D00034F001E0D0D34B0E015D01E0CCD3DCEC20
:1059E00035F0110E9DD1100EEA5D14E3380E07015B
:1059F000005D10E1390E015D0DE1180EE66EE66AFC
:105A00002DEC35F0CD0EE66E050E6BEC34F0050195
:105A1000E46BB1D3080E0601EA5D16E3D3EC34F073
:105A200013E1430E015D10E1500E025D0DE1420EE7
:105A3000035D0AE1460E045D07E13A0E055D04E1EF
:105A40002DEC35F016DD95D1080E0601EA5D17E361
:105A5000D3EC34F014E1430E015D11E1500E025D10
:105A60000EE1490E035D0BE1520E075D01E183D3A8
:105A7000040E35EC34F00601010EC96F7CD306012B
:105A8000C95101E078D3020EEA5D01E274D3D7EC8C
:105A900034F001E070D34B0E015D01E06CD3DCEC1F
:105AA00035F0120E3DD1060EEA5D16E3D3EC34F06C
