:020000040000FA
:0600000042EFBDF012000A
:020006001200E6
:060008000CEF1EF01200D7
:02000E000209E5
:0100100001EE
:020011000100EC
:020013000000EB
:060018007BEF57F012001F
:02001E000900D7
:100020000A7C0100E80000000F000000037C0100D2
:10003000F408000007000000D77B0100C80800009A
:100040002C000000927B0100000B00004500000026
:10005000387B0100000000005A000000B07A010067
:10006000600000008800000013000000FE0B00008C
:10007000020000009E7A0100EC0B0000120000005C
:0C008000110000005E0000000200000003
:04008C000F0140B769
:10009000FDD717EC82F00F01406BC00E416F200EB0
:1000A000426FD3C446FFD4C447FFD5C448FFD6C46B
:1000B00049FFD7C44AFFD8C44BFFD9C44CFFDAC4A8
:1000C0004DFF080E456F0401D3690F01406F40B723
:1000D000FED71200D9CFE6FFE1CFD9FF81E947E88B
:1000E0000401D351016E0401D751046ED851056E3D
:1000F000D951066EDA51076E030E036E01EBD3F48D
:1001000004EBD7F405EBD8F406EBD9F407EBDAF4FB
:10011000BDDF0400C80E026E17EC82F0FF0E040172
:10012000D35D02E10206F8E1025001E015D00401BE
:10013000800ED36F0401D76BD86B040ED96F050EF8
:10014000DA6FA4DF0350010805E2040EE66E25EC29
:1001500082F041E90306D2E1025004E10A0EF36E97
:10016000F46A04D0000EF36EF46A00D048E9E7CFD9
:10017000D9FF12009BEC52F041E80701F4B102D024
:10018000010E35D0040126B902D00B0E30D0400E3E
:10019000D36F6AEC4BF0A3EC52F002E0030E27D0D1
:1001A000E00E0401D31540081BE0D75117E1D851E8
:1001B00015E1D95113E1080EDA1910E1100E0118FA
:1001C00002E1530E02180AE0D351046E0AEC56F015
:1001D00004EBD3F46AEC4BF00401DA87020E07D08B
:1001E000D3A302D0000E03D027EC49F0040EF36E27
:1001F000F46A53EF47F0EBEC50F043E80701F4B139
:1002000002D0010E7FD0040126B902D00B0E7AD0A5
:10021000400ED36F2FEC48F0A3EC52F041E1E00E1A
:100220000401D315400813E0D7510FE1D8510DE177
:10023000D9510BE1080EDA1908E1100E051802E198
:10024000530E061802E01EEC50F0020E5BD0D3A352
:1002500018D00601080EC86F0C0E0401D315E84033
:10026000E8403F0B0601C85D0A6E040E086E0A5096
:10027000085C47E23DEC45F0000843E2B1EC4FF08A
:10028000F6D7096A600E0910D36FD46BD56BD66BA5
:10029000D76BD86BD96BDA6B1DDF6FEC44F002E0E3
:1002A000030E30D0F00E0401D315095C0BE0800E74
:1002B000D36FD76BD86B030ED96F050EDA6FE6DEFE
:1002C000050E20D00601080EC86F0E0E0401D315CE
:1002D000E8407F0B0601C85D0A6E010E086E0A50E9
:1002E000085C07E23DEC45F0000803E2B1EC4FF09A
:1002F000F6D70401D3B105D03DEC45F006E127EC7B
:1003000049F0000EF36EF46A07D0095002E0000EC7
:1003100001D0100E096EB6D784EF48F0EBEC50F028
:1003200041E80701F4B102D0010E29D0040126B939
:1003300002D00B0E24D0220ED36F2FEC48F000EB2E
:10034000D7F401EBD8F402EBD9F403EBDAF4D6ECF2
:1003500047F002E0090E13D0E00E0401D315600847
:100360000DE0D75109E1D85107E1D95105E1080E57
:10037000DA1902E11EEC50F0080E01D0000EF36E07
:10038000F46A53EF47F079EC51F042E8020EE66E62
:10039000180EE66E100E4DEC4FF002E0400E5FD0EE
:1003A0002D0E0401D7190BE1300ED81908E1120EF9
:1003B000D91905E1070EDA1902E1289110D01B0EB8
:1003C000D7190BE1300ED81908E1120ED91905E141
:1003D000070EDA1902E1288102D0400E4DD06DECF3
:1003E00055F037E1005025E0040E0401D71905E16E
:1003F000D85103E1D95101E1DA511BE0A8EC48F0F2
:10040000DF0EE66E4B0E35EC4DF086EC45F0500EEF
:1004100059EC51F01EE16DEC55F01BE1040E0401A6
:10042000D71905E1D85103E1D95101E1DA5123E0AF
:1004300020D0005020E19AEC4AF01DE0A8EC48F0F2
:10044000A4EC54F0E66A86EC45F0500E59EC51F0FD
:1004500002E0100E04D06DEC55F008E0100E56ECE2
:1004600049F0C96FC8C6F3FFF46E08D09AEC4AF0A1
:1004700002E0100E01D0000EF36EF46A61EF46F058
:1004800079EC51F042E8005017E16BEC44F0280E93
:1004900059EC51F042E1020ED0EC4AF0F3EC54F08A
:1004A0003CE1050E0401D71905E1D85103E1D9510A
:1004B00001E1DA513BE038D0F3EC54F02EE17F0E4D
:1004C0000401D71905E1D85103E1D95101E1DA510D
:1004D0002DE00F51101128E10E0E261525E132EC0A
:1004E00053F0E66AE66A280E59EC51F016E1020E66
:1004F000D0EC4AF0F3EC54F010E17F0E0401D71970
:1005000005E1D85103E1D95101E1DA510FE06BEC7B
:1005100044F0280E59EC51F007E0200E56EC49F05B
:10052000C8C6F3FFF46E05D0200E01D0000EF36EA6
:10053000F46A61EF46F0F5EC43F095E944E80850C1
:100540000C1812E109500D180FE10A500E180CE1B9
:100550000B500F1809E110EBFCF711EBFDF712EB54
:10056000FEF713EBFFF73ED0F4EC4FF006EC45F04E
:1005700008EBE6FF4AEC47F00FEC47F088EC48F058
:1005800021ECA2F08CEC54F0E1EC48F00450155C46
:1005900005501658065017580750185809E204EB32
:1005A000FCF705EBFDF706EBFEF707EBFFF71AD0BC
:1005B0001550005C16500158175002581850035837
:1005C00009E200EBFCF701EBFDF702EBFEF703EBB2
:1005D000FFF708D015EBFCF716EBFDF717EBFEF76E
:1005E00018EBFFF7A9EF47F0F0EC4FF04FE8B8EC4D
:1005F0004CF0F62A000EF722F822A9EC52F0C8516E
:100600000401591901E096D00601C95104015A1993
:1006100001E090D006013B0ED46F700ED56F010E35
:10062000D66F33EC43F0E5CFD9F6E5CFD8F6E7CF78
:10063000D7F60601D451D725F36ED551D821F46EE3
:10064000D651D9218FEC43F076EC4BF0F5CFD0F6B4
:100650000800F5CFD1F6D26BD36B5B0EE96E040EBA
:10066000EA6EEE50D01966E1EE50D11963E1EE501A
:10067000D21960E1EE50D3195DE13B0EE5EC4EF08E
:10068000300E1CEC57F0F5CFDAF60800F5CFDBF6AC
:10069000DA5104015F194EE10601DB5104016019D2
:1006A00049E106013B0EE46F700EE56F010EE66F47
:1006B00033EC43F0E5CFE9F6E5CFE8F6E7CFE7F630
:1006C0000601E451E725F36EE551E821F46EE651A9
:1006D000E9218FEC43F0CFEC49F0F5CFE2F60800CA
:1006E000F5CFE3F6E2510401611924E10601E3517B
:1006F000040162191FE1036A120E035C0DE25DEC56
:100700004DF06CEC48F0F2EC4CF0032890EC54F017
:1007100001E032D1032AF0D7036A040E035C01E33F
:1007200024D15DEC4DF0200E1CEC54F001E024D1FE
:10073000032AF3D72AEC4AF072EC55F05FC4E6FFC7
:1007400060C4E6FFE66AE66AB0EC44F05BC4D0F64B
:100750005CC4D1F65DC4D2F65EC4D3F60601A0EC4B
:100760004AF0D051CC27D151CD23D251CE23D351F1
:10077000CF23B3EC4CF08CEC54F0046EC951056EF1
:1007800032EC49F02AEC4AF05AEC4FF0010E90ECB2
:1007900054F001E0F1D0E66AA4EC54F0020E90ECC3
:1007A00054F001E0E9D008EBE6FF13EC49F0030E4A
:1007B00090EC54F001E0E0D05CEC44F0E66AE66ACC
:1007C000040E90EC54F001E0D7D0D3EC55F0200E9D
:1007D00039EC4DF0040E39EC4DF008500900F55C91
:1007E00009500A00F5580DE2036A040E035C16E294
:1007F0005DEC4DF0280E1CEC54F001E0BDD0032A56
:10080000F4D7036A040E035C09E25DEC4DF0200EA0
:100810001CEC54F001E0B0D0032AF4D70401595184
:10082000045C5A51055820E2190EF66E710EF76EEF
:10083000010EF86ED5EC4AF00450595D0601CA6FFE
:10084000055004015A590601CB6F190EF66E710E50
:10085000F76E010EF3EC50F0ADEC9FF0E552E55071
:100860000D6EE7500C6E02D00C6A0D6A180EF66E13
:10087000710EF76E010EF86ED5EC4AF004015F516F
:10088000615D0601CA6F0401605162590601CB6FB8
:10089000180EF66E710EF76E010EF3EC50F065EC6B
:1008A0009FF0E552E5500F6EE7500E6E036A070E9B
:1008B000035C5BE2060E035C0CE2F4EC4FF0D4EC5C
:1008C0004EF0FE0EE3500424066E41E9E55005208B
:1008D00004D004015951066E5A51076E050E035C8F
:1008E0000DE206EC45F0D4EC4EF00401FE0EE350B0
:1008F0005F250A6E41E9E550602104D00401615191
:100900000A6E62510B6E32EC49F079EC4BF072ECEE
:1009100055F08AEC4DF0E66AE66AA0EC50F006016C
:10092000D8900730D56F0630D46FD66BD76BD451C3
:10093000D027D551D123D651D223D751D32360EC20
:1009400045F047ECA0F05AEC4FF00350E824050FB7
:1009500090EC54F011E179EC4BF00350E824060FD1
:1009600090EC54F009E1032AA2D732EC53F0E66E82
:10097000410ECBEC4DF003E0FCEC4BF006D00A0E40
:10098000D0EC4AF0000EF36EF46A50E9E7CFD9FFDD
:100990001200F0EC4FF044E804015F51601145E1B2
:1009A000040E4AEC56F053E10401D751036ED851BE
:1009B000046E030E4AEC56F04AE177EC4CF06CEC16
:1009C00048F0040EACEC44F0DDEC47F022E1EE50D0
:1009D000C9191FE1EE50CA191CE1EE50CB1919E1FB
:1009E0003B0EDAEC4CF06CEC48F0060E35EC46F0C1
:1009F00003180FE10A00F55004180BE191EC4CF0DC
:100A0000300E1CEC57F0F5CF5FF40A00F5CF60F420
:100A10000CD047EC45F0A0EC4AF0E806FCE123ECF2
:100A200057F0C8C65FF4C9C660F404016151621191
:100A300048E1120E4AEC56F00AE10401D751036E68
:100A4000D851046E110EE66ED6EC4FF003E0FCECCC
:100A50004BF03AD077EC4CF06CEC48F0200EACEC5C
:100A600044F0DDEC47F021E1EE50C9191EE1EE50F3
:100A7000CA191BE1EE50CB1918E13B0EDAEC4CF031
:100A80006CEC48F0220E35EC46F003180EE10A003B
:100A9000F55004180AE191EC4CF0CFEC49F0F5CF99
:100AA00061F40A00F5CF62F40CD047EC45F0A0ECFD
:100AB0004AF0E806FCE123EC57F0C8C661F4C9C669
:100AC00062F4000EF36EF46AA9EF47F068EC53F09D
:100AD00044E8021C09E1031C07E1D3EC55F00800CF
:100AE000F550026E036A11D0060ED89003BE03D0F3
:100AF000025C000E035807E3033407E202506F085C
:100B0000000E035402E2310EFFD0001C0AE1011C6A
:100B100008E1D3EC55F00B0E4EEC47F0006E016A85
:100B200011D0060ED89001BE03D0005C000E015813
:100B300007E3013407E200506F08000E015402E29F
:100B4000320EE2D004015B515C115D115E1124E1B3
:100B5000E66A760EE66E600E6CEC57F0B1EC45F08E
:100B600001E0CAD077EC4CF0160EACEC44F0B0ECDF
:100B700052F0C851EE5C04015B6F0601C951EE589A
:100B800004015C6F0601CA51EE5804015D6F060155
:100B9000CB51EE5804015E6FFCDEF350B1EC45F032
:100BA00001E0AAD0940EE66E2A0E35EC4DF0900EC0
:100BB00014EC52F042EC50F0CDAF02D0CE69CF69C8
:100BC00098EC54F00B0E26EC54F00C0E5DEC51F04A
:100BD000C851076EC951086E07EBE6FFDAEC4AF020
:100BE000340E09EC55F001E087D0B8EC4CF00E0E55
:100BF00035EC46F0075CC86F0A00F550085851EC18
:100C000057F03C0E09EC55F001E076D083EC54F03F
:100C1000900E14EC52F03BEC51F0CDAF02D0CE6907
:100C2000CF6998EC54F0D6EC55F00601C851076E28
:100C3000C951086E000172A703D010EC54F004D023
:100C400007EBE6FFDAEC4AF0050E9AEC55F054E1BA
:100C5000000172A703D05EEC54F016D0B8EC4CF053
:100C6000030E39EC4DF007500900F55C08500A00FE
:100C7000F55806E25EEC4CF0030EACEC44F002D00A
:100C8000EEEC49F07DEC4BF0060E9AEC55F034E1B9
:100C9000B8EC4CF0050EBAEC51F0330E09EC55F0FF
:100CA0002BE1B8EC4CF0070EBAEC51F0350E09EC24
:100CB00055F022E177EC4CF0090E35EC46F00724B4
:100CC000CA6F0A00F5500820CB6FCA5194082A0E4B
:100CD000CB5504E2940EC86F2A0E08D03B0EDAEC16
:100CE0004CF0090E35EC46F0A6EC4AF051EC57F00A
:100CF0003B0E09EC55F003E001EC4CF007D007EB9C
:100D000059F408EB5AF4000EF36EF46AA9EF47F0B9
:100D1000F5EC43F089E943E80B6A001C08E1011C8B
:100D200006E1640E006E016A010E0B6E11D00A0E10
:100D3000D89001BE03D0005C000E015807E30134D7
:100D400007E200507B08000E015402E2340E52D13B
:100D5000061C06E1071C04E1640E066E076A13D048
:100D60000A0ED89007BE03D0065C000E075809E3B0
:100D70000B5009E0073407E206508208000E0754C2
:100D800002E2310E37D1041C06E1051C04E1640EB9
:100D9000046E056A13D00A0ED89005BE03D0045C19
:100DA000000E055809E30B5009E0053407E2045032
:100DB0008B08000E055402E2320E1CD1021C06E123
:100DC000031C04E1640E026E036A13D00A0ED8906D
:100DD00003BE03D0025C000E035809E30B5009E088
:100DE000033407E202508208000E035402E2330E7D
:100DF00001D1040159515A110FE1050EE66E200E82
:100E0000E66E290E6CEC57F07CEC46F001E09ED0CB
:100E1000D7C459F4D8C45AF477EC4CF01E0E39EC10
:100E20004DF039EC4FF000EBD2F601EBD3F6D46B7A
:100E3000D56BD3AF02D0D469D569A8EC54F01C0EA1
:100E4000F9EC51F0020EE66E410EE66E460EB4EC81
:100E500043F07CEC46F001E079D0C4EC53F077EC41
:100E60004CF01E0E39EC4DF077EC54F0E66AE66A71
:100E700021ECA2F0E66AA4EC54F000EBD2F601EB10
:100E8000D3F60601D46BD56BD3AF02D0D469D56944
:100E9000A8EC54F0180E39EC4DF077EC54F0090042
:100EA000FEEC56F077EC55F01AEC44F0E66A750E5D
:100EB000B7EC52F04BE10B5011E077EC4CF0120E16
:100EC0001CEC57F0F5CFC8F60900F5CFC9F60900BC
:100ED000F5CFCAF60800F5CFCBF608D00601400ED4
:100EE000C86F0D0EC96F030ECA6FCB6B8AEC43F04F
:100EF00083EC54F006EBD2F607EBD3F6D46BD56B4C
:100F0000D3AF02D0D469D569A8EC54F076EC4BF09D
:100F100090EC4FF0FCC75BF4FDC75CF4FEC75DF4DA
:100F2000FFC75EF477EC4CF0160EACEC44F0CA6BE5
:100F3000CB6B5B0EE96E040EEA6E65EC45F08AEC55
:100F400043F0E66A760EB7EC52F005E009EBF3FFEA
:100F50000AEBF4FF51D00B5007E006015EEC4CF0B9
:100F6000320E37EC49F002D013EC4BF0CF6BCEBF12
:100F7000CF69B3EC4CF0F40E14EC52F004EBD6F65F
:100F800005EBD7F6D86BD96BD7AF02D0D869D96942
:100F900094EC4EF0300EF62682EC43F0FCC75FF482
:100FA000FDC760F40B5007E006015EEC4CF0360E16
:100FB00037EC49F002D013EC4BF0CF6BCEBFCF69CA
:100FC000B3EC4CF0F40E14EC52F002EBD6F603EB5B
:100FD000D7F6D86BD96BD7AF02D0D869D96994EC62
:100FE0004EF0CFEC49F090EC4FF0FCC761F4FDC738
:100FF00062F4000EF36EF46A84EF48F0F5EC43F00F
:101000008AE94AE8440E085C08E04E0E085C05E0F8
:10101000420E085C02E0310E02D2FF0E075C09E0CE
:10102000073405E2073405E20750640802E2320E95
:10103000F6D1FF0E065C09E0063405E2063405E24F
:101040000650640802E2330EEAD1FF0E055C09E0A7
:10105000053405E2053405E20550640802E2340E69
:10106000DED1FF0E045C09E0043405E2043405E23D
:101070000450640802E2350ED2D1FF0E035C09E091
:10108000033405E2033405E20350780802E2360E29
:10109000C6D1FF0E025C09E0023405E2023405E22B
:1010A0000250780802E2370EBAD1FF0E015C09E067
:1010B000013405E2013405E20150780802E2380EFD
:1010C000AED1FF0E005C09E0003405E2003405E219
:1010D0000050780802E2390EA2D1420E085C02E10B
:1010E000070E06D04E0E085C02E11B0E01D0240E46
:1010F0000C6E0F0E136E135001E190D113A062D04D
:101100000F6A106A030EAAEC56F001E080D1ACEC35
:101110004AF0033416E219EC52F003EBCCF6ADECD6
:1011200047F0CCAF03D0CD69CE69CF69B3EC4CF0BA
:10113000210EC4EC56F05EEC4CF0640E5DEC51F008
:101140000ED0440E085C06E10601B80EC86F0B0E07
:10115000C96F05D0B8EC4CF0640EACEC44F0EBEC8D
:1011600046F030E3E4EC4AF02DE3DEEC45F00C28E9
:1011700095EC4DF041EC45F001E049D1073411E226
:101180009EEC55F007EBCCF6ADEC47F0CCAF03D0BE
:10119000CD69CE69CF69A2EC55F0C8510D6EC95129
:1011A00002D00D687F0E0E6EDEEC45F00CEBE6FF14
:1011B000130EE66E380EB4EC43F041EC45F001E05E
:1011C00026D1139013A262D00C2865EC4EF001E0FA
:1011D0001ED1B2EC4AF0050EAAEC56F001E017D190
:1011E000ACEC4AF0023414E219EC52F002EBCCF60B
:1011F000ADEC47F0CCAF03D0CD69CE69CF69B3EC8D
:101200004CF0270E71EC54F0020E5DEC51F00ED054
:10121000440E085C06E10601AC0EC86F0D0EC96FE6
:1012200005D07CEC55F0020EACEC44F0EBEC46F053
:101230002DE3E4EC4AF02AE3DEEC45F0030E45EC46
:1012400054F001E0E4D006340EE29EEC55F006EBDB
:10125000CCF6ADEC47F0CCAF03D0CD69CE69CF6909
:10126000A2EC55F00BD0440E085C04E10601C869FD
:101270007F0E03D00601660EC86FC96F41EC51F0B6
:10128000020E45EC54F001E0C2D0139213A461D0D9
:10129000030EAAEC56F001E0BAD0B2EC4AF0070E09
:1012A000AAEC56F001E0B3D0ACEC4AF0013414E201
:1012B00019EC52F001EBCCF6ADEC47F0CCAF03D01B
:1012C000CD69CE69CF69B3EC4CF0320E71EC54F0BD
:1012D000040E5DEC51F00ED0440E085C06E10601F0
:1012E000940EC86F110EC96F05D07CEC55F0040E3A
:1012F000ACEC44F0EBEC46F02CE3E4EC4AF029E3F0
:10130000DEEC45F0050E45EC54F001E080D00534EC
:101310000EE29EEC55F005EBCCF6ADEC47F0CCAF11
:1013200003D0CD69CE69CF69A2EC55F00BD0440E45
:10133000085C04E10601C8697F0E03D00601C86994
:101340003F0EC96F41EC51F0040E45EC54F05FE1E3
:10135000139413A6D0D6050EAAEC56F058E1B2ECC1
:101360004AF011681268003414E219EC52F000EBF4
:10137000CCF6ADEC47F0CCAF03D0CD69CE69CF69E8
:10138000B3EC4CF0420E71EC54F0060E5DEC51F0F3
:101390000ED0440E085C06E10601700EC86F170EF1
:1013A000C96F05D07CEC55F0060EACEC44F0EBECCC
:1013B00046F001E2A0D6E4EC4AF001E29CD6DEEC75
:1013C00045F0070E45EC54F022E104340EE29EECA9
:1013D00055F004EBCCF6ADEC47F0CCAF03D0CD69C3
:1013E000CE69CF69A2EC55F00CD0440E085C04E144
:1013F0000601C8697F0E04D00601990EC86F190E48
:10140000C96F41EC51F0060E45EC54F005E00AEBD3
:10141000F3FF0BEBF4FF05D013966DD6000EF36EC1
:10142000F46A0BEF4CF0F5EC43F087E942E8041C5A
:1014300006E1051C04E1640E046E056A0FD00A0E75
:10144000D89005BE03D0045C000E055805E30534B2
:1014500005E20FEC4CF002E2310EADD0021C02E1CD
:10146000031C0BE0033407E2033407E20250FA08DE
:10147000000E035402E2320E9ED0001C05E1011C56
:1014800003E1006A016A09D0013405E2013405E292
:10149000F3EC49F002E2330E8ED0033456E20250F0
:1014A0000008000E035451E20701F451080B4DE10E
:1014B0001BEC4BF0D1AF02D0D269D36960EC45F0A0
:1014C000ECEC45F037CAE6FF22EC46F0B3EC48F00E
:1014D00002E617EC4AF006E2E80EC86F030E5AEC7B
:1014E0004BF00ED081EC4BF0D5AF02D0D669D76966
:1014F000C0EC51F037CAE6FF22EC46F017EC4DF095
:10150000C8C60BFAC9C60CFA9CEC48F00A010B5D80
:101510000601C9510A010C590EE200EB0BFA01EB6E
:101520000CFA0A0E0C03F3CF0CFA0B03F3CF0BFAF1
:10153000F4500C2702D00CCA0CFA375156EC49F083
:10154000C85100240A010A6F05D00A01E80E0B6F8A
:10155000030E0C6F04EBCAF605EBCBF606010A0E80
:10156000CB03F3CFCBF6CA03F3CFCAF6F450CB27A5
:10157000F3500A010B5D0601CB510A010C5905E23B
:101580000BCAC8F60CCAC9F608D014EC4CF0BDEC76
:1015900052F0F3CFC8F6F450C9277DEC4BF0010EA2
:1015A00055EC4DF08DEC45F005E007EBF3FF08EB53
:1015B000F4FF03D0000EF36EF46A61EF46F0F5EC31
:1015C00043F089E944E8061C0AE1071C08E1D3EC72
:1015D00055F0390E4EEC47F0066E076A0BD0073413
:1015E00007E2073407E206506408000E075402E2DF
:1015F000310EC4D0041C0AE1051C08E1D3EC55F0FF
:10160000390E4EEC47F0046E056A09D0053405E248
:10161000053405E20FEC4CF002E2320EAFD0021CB2
:1016200002E1031C0BE0033407E2033407E202503B
:10163000FA08000E035402E2330EA0D0001C05E1AC
:10164000011C03E1006A016A09D0013405E201349A
:1016500005E2F3EC49F002E2340E90D0033457E295
:1016600002500008000E035452E20701F451080B27
:101670004EE11BEC4BF0D1AF02D0D269D36960ECE4
:1016800045F0ECEC45F038CAE6FF22EC46F0B3EC4E
:1016900048F002E617EC4AF006E2E80EC86F030EC7
:1016A0005AEC4BF00ED081EC4BF0D5AF02D0D6699E
:1016B000D769C0EC51F038CAE6FF22EC46F017ECCF
:1016C0004DF0C8C608FAC9C609FA9CEC48F00A01F0
:1016D000085D0601C9510A0109590EE200EB08FA3A
:1016E00001EB09FA0A0E0903F3CF09FA0803F3CF55
:1016F00008FAF450092702D009CA09FA385156EC01
:1017000049F0C96FC85100240A01076F05D00A01CA
:10171000E80E086F030E096F81EC55F0C4EC52F02F
:10172000CDAF02D0CE69CF6929EC57F002E1030EAC
:10173000091902E078EC4FF036EC48F0030EA6EC05
:1017400055F016E181EC55F0CAEC52F0CDAF02D065
:10175000CE69CF6929EC57F002E1030E091902E0C6
:1017600078EC4FF036EC48F0040EA6EC55F005E0AE
:1017700009EBF3FF0AEBF4FF03D0000EF36EF46AFB
:10178000A9EF47F0F0EC4FF044E80701F451010BEA
:1017900055E0F451080B52E1100E040126154EE0FD
:1017A000555123EC4BF0545133EC4AF020E20150F8
:1017B0000008000E02541BE20A013851BAEC48F04E
:1017C0000A0107510601CC6FCD6BCC51C81902E15B
:1017D000CD51C9190CE03CEC4AF0040131517EECCA
:1017E00043F004013051F9EC4FF0E9DE48E904011F
:1017F000575123EC4BF0565133EC4AF01FE20150A5
:101800000008000E02541AE20A013751BAEC48F0FF
:101810000A010A510601CC6FCD6BCC51C81902E107
:10182000CD51C9190BE00A01065108E13CEC4AF020
:1018300004012F517EEC43F0F6DD46E9A9EF47F0B5
:10184000F5EC43F08BE942E8081C0AE1091C08E1C9
:10185000D3EC55F03C0E4EEC47F0086E096A11D0FF
:10186000010ED89009BE03D0085C000E095807E3AA
:10187000093407E20850FA08000E095402E2310E5A
:10188000BAD0061C0AE1071C08E1D3EC55F03F0E64
:101890004EEC47F0066E076A11D0010ED89007BED5
:1018A00003D0065C000E075807E3073407E2065032
:1018B0006408000E075402E2320E9DD0041C06E1BB
:1018C000051C04E1140E046E056A09D0053405E216
:1018D000053405E20FEC4CF002E2330E8CD0021C12
:1018E00006E1031C04E1280E026E036A0BD00334E8
:1018F00007E2033407E202506408000E035402E2D8
:10190000340E79D0001C06E1011C04E1280E006EA3
:10191000016A09D0013405E2013405E2F3EC49F033
:1019200002E2350E68D05BEC45F008EBCCF609EB33
:10193000CDF6BBEC46F0CDAF02D0CE69CF6998ECC6
:1019400054F03C0E26EC54F03A0EF9EC51F0020E35
:10195000E66E1C0E4EEC56F06FEC48F046E15BEC88
:1019600045F0C4EC52F0CDAF02D0CE69CF6998EC0F
:1019700054F03F0E26EC54F03D0EF9EC51F0070EFA
:10198000AAEC55F032E15BEC45F0CAEC52F0CDAF79
:1019900002D0CE69CF69B3EC4CF0140EC4EC56F013
:1019A000D00EE66E070E8CEC50F00B0EAAEC55F044
:1019B0001CE15BEC45F03BEC51F0CDAF02D0CE69C1
:1019C000CF6924EC55F00D0EAAEC55F00EE15BEC5E
:1019D00045F042EC50F0CDAF02D0CE69CF6924EC97
:1019E00055F00E0EAAEC55F005E00BEBF3FF0CEBF7
:1019F000F4FF03D0000EF36EF46A61EF46F068EC7A
:101A000053F042E8021C06E1031C04E11E0E026EC4
:101A1000036A11D0010ED89003BE03D0025C000E01
:101A2000035807E3033407E202506408000E03542E
:101A300002E2310E37D0001C06E1011C04E11E0E4B
:101A4000006E016A09D0013405E2013405E2F3ECCD
:101A500049F002E2320E26D0200EE66E4E0E72ECF7
:101A600050F03BEC51F0CDAF02D0CE69CF69B5EC70
:101A700054F00F0E9AEC55F011E1200EE66E4E0E6A
:101A800072EC50F042EC50F0CDAF02D0CE69CF698D
:101A9000B5EC54F0100E9AEC55F003E001EC4CF06C
:101AA00003D0000EF36EF46A61EF46F0F5EC43F0FC
:101AB00083E942E8001C06E1011C04E1460E006EC9
:101AC000016A09D0013405E2013405E2F3EC49F082
:101AD00002E2310E32D0F7EC55F03EEC4DF065EC01
:101AE0009FF0E55252EC56F0010E8DEC48F0CA6BB7
:101AF000CB6BC9AF02D0CA69CB698AEC43F0010E47
:101B0000ABEC50F016E181EC55F042EC50F0CDAF6B
:101B100002D0CE69CF69B3EC4CF0460EC4EC56F05F
:101B2000200EE66E030E8CEC50F0030EABEC50F082
:101B300003E019EC4CF003D0000EF36EF46A61EF91
:101B400046F0F5EC43F083E943E8010E036E046EC2
:101B5000056E300EF36EF46AF350055C000EF4541B
:101B600009E20550002463EC49F00326000E04222C
:101B7000052AEFD70350FF0B03E184EB03F0046A5F
:101B8000FF0E031484EF48F079EC51F0010E005C75
:101B900015E30050030812E37DEC51F0D2ECB3F0F2
:101BA00045E93BEC53F0295D11E0300E35EC4DF08A
:101BB000B2EC47F00BEC4BF0000E09D0300E35ECD8
:101BC0004DF0B2EC47F052ECACF045E9010E57EFA6
:101BD00047F079EC51F0010E005C0DE30050030872
:101BE0000AE33BEC53F0296F7DEC51F0E8ECB3F0E5
:101BF00045E9010E01D0000E57EF47F079EC51F0A6
:101C000042E80401289FC7EC50F0C7EC54F001E013
:101C10001FD1040156517EEC43F004015751F9ECF9
:101C20004FF004012F5162EC51F013EC0AF046E939
:101C3000C7EC54F001E00CD1040154517EEC43F0A8
:101C400004015551F9EC4FF00401315162EC51F0AF
:101C5000040130511DEC52F0B2DC48E9C7EC54F0FD
:101C600001E0F6D004014E517EEC43F004014D51E9
:101C7000F9EC4FF004014C5162EC51F004014B516E
:101C80001DEC52F004014A51F4EC46F0D1C6E6FFD7
:101C9000D7DD4AE9C7EC54F001E0DAD00401535132
:101CA0007EEC43F004015251F9EC4FF0A8DE44E918
:101CB000C7EC54F001E0CCD004014F517EEC43F06E
:101CC000F5DE42E9C7EC54F001E0C2D00050E2EC8E
:101CD00047F0010EE66E5EEC4BF0C7EC54F001E00D
:101CE000B1D004012B517EEC43F004012A51F9ECF0
:101CF0004FF066EC05F044E9C7EC54F015E104013F
:101D000058517EEC43F004012E51F9EC4FF00401E0
:101D10002D5162EC51F004012C511DEC52F088EC75
:101D200006F048E9FEEC4FF00250031004E1F4EC39
:101D300002F0FEEC4FF00250031023E10401355194
:101D400057EC56F004013451C2EC44F00401335115
:101D500010EC45F0040132516EEC45F004013951AC
:101D6000F4EC46F004013851EBEC47F00401375134
:101D7000F4EC47F004013651FDEC47F0440EFEEC64
:101D800051F00250031023E104013D5157EC56F08D
:101D900004013C51C2EC44F004013B5110EC45F00D
:101DA00004013A516EEC45F004014151F4EC46F067
:101DB00004014051EBEC47F004013F51F4EC47F0D3
:101DC00004013E51FDEC47F04E0EFEEC51F0025086
:101DD000031023E10401455157EC56F0040144512E
:101DE000C2EC44F00401435110EC45F004014251AF
:101DF0006EEC45F004014951F4EC46F00401485101
:101E0000EBEC47F004014751F4EC47F00401465174
:101E1000FDEC47F0420EFEEC51F00250031004E1DD
:101E20000050040197EC47F0050E006EE66A5EEC88
:101E30004BF06FEC44F006E0000604E0140ED0EC2A
:101E40004AF0F4D70401288F276B0A01066B056B53
:101E5000E9EC4AF061EF46F079EC51F000500308EC
:101E600004E2310EF36EF46A0AD000EBE6FF8CDE7A
:101E700041E90401289B00EBE6FFC0DE41E957EF92
:101E800047F0F5EC43F083E9E80EE66E390EE66EB6
:101E9000010E3AEC55F0E00E0401D315800807E17D
:101EA000E10EE66E390EE66E010E3AEC55F0D4C442
:101EB000E6FFD5C4E6FF88EC4BF03EEC4DF092EC2B
:101EC00048F070EC57F0D6C4E6FF8FEC4BF03EECD8
:101ED0004DF01AEC88F046E967EC51F0D880FF0E1F
:101EE0000401D755FF0ED855000ED955000EDA550E
:101EF00008E237EC50F081EC49F00BEC88F049E94E
:101F000007D0AEEC55F081EC49F0F2EC87F047E9F0
:101F100067EC51F000EBF3FF01EBF4FF57EF47F0F4
:101F200068EC53F041E80F0E0014056E3EEC4DF0E6
:101F3000D00EE66E390EE66E010E3CEC57F092ECD8
:101F400048F0FBEC55F00601F00E0014C86FFF0ED0
:101F50000114C96F200EC81901E1C95112E0300EF9
:101F6000C81916E1C95114E10550E66EE66AC10EC2
:101F7000E66E390EE66E010E3CEC57F030EC54F094
:101F80001DD0B40EE66E390EE66E010EC8EC51F0AF
:101F900005500B0A08E00A0A0DE1A70EE66E390E9D
:101FA000E66E010E05D0970EE66E390EE66E010E56
:101FB000C8EC51F095EC43F064DF42E9FEEC4FF0E1
:101FC000E9EC4AF053EF47F0EFEC50F0005001100D
:101FD0000CE0200E001801E1015007E03EEC4DF04E
:101FE00001EC50F09DDF44E970D0FF0E025C0AE185
:101FF00096EC4BF001EC50F0F1EC43F0036EF45032
:10200000046E16D002EBC8F60601C96BC8BFC969D9
:102010007CEC4DF003EC52F03EEC44F0060103047E
:10202000C86F000E045877EC45F00F0E5BEC47F0DC
:10203000200E00180DE101500BE1790EE66E390E0D
:10204000E66E010EE66E01EC50F075EC50F01FD01C
:1020500004012A517EEC43F06D0EE66E390EE66EF9
:10206000010E3EEC44F004012B519CEC54F087EC43
:1020700051F03EEC44F004012D519CEC54F004016D
:102080002E519CEC54F00401585141EC55F022ECD7
:1020900052F091EC51F03EEC44F0040157519CECAD
:1020A00054F0040156519CEC54F09BEC51F03EEC82
:1020B00044F0040131519CEC54F0040155519CEC66
:1020C00054F00401545141EC55F022EC52F019EC5B
:1020D0004CF057EF47F0EBEC50F05DE80E680F68FE
:1020E0001068116812681368146815681668176814
:1020F000186819681A681B68440E206E4E0E216E0F
:10210000420E226E236A065002E134EF16F090EC84
:1021100050F00050011002E134EF16F080EB02F0B5
:1021200081EB03F082EB0AF083EB0BF033EC45F02C
:10213000EF5020E033EC45F0EF5020081BE033EC8B
:1021400045F0EF50600812E233EC45F0EFCFC8F6EF
:102150007B0E0601C85D0AE233EC45F0EF50E00F5C
:10216000E66E33EC45F0E552E750EF6E0A2A000EBA
:102170000B22DCD795EC43F04E0EE66E390EE66E80
:10218000010E43EC4DF05EEC87F047E951EC4FF067
:102190004B0EE66E390EE66E010E4AEC54F0470E19
:1021A000E66E390EE66E010E59EC4DF009E1410E76
:1021B000E66E390EE66E010E59EC4DF001E184D069
:1021C0006BEC43F002E031EC4FF06E0E0C6E070E3C
:1021D0000D6E5A0E35EC4DF0F4EC4FF00BEC4BF06D
:1021E0000CEBE9FF0DEBEAFF010EEF6E246A6BECDE
:1021F00043F009E0F4EC4FF03EEC4DF0E4ECAAF0D3
:1022000044E9F350246E0CEBE9FF0DEBEAFFEFCF4E
:10221000C8F6C8C6E6FFF4EC4FF093DC42E9E5529D
:10222000E7CFC8F60601C85D09E02B0EE66E390E51
:10223000E66E010EE66E5CEC56F044D0010ED890CE
:102240000FBE03D00E5C000E0F581EE30F3404E2E5
:102250000E500308000E0F5417E3400E3DEC48F0FB
:1022600040EC49F0E8ECB3F045E960EC47F00E18BB
:1022700003E10F5001E1288B06EC45F0260EE66ED7
:10228000390EE66E010E0AD1300E3DEC48F0B2EC8C
:1022900047F027ECACF046E9245006E160EC47F04B
:1022A000000802E3000E01D0010E0401289BE8B0F3
:1022B000288B6CEC53F0E66EA1DC21EC4AF0E6686A
:1022C0009DEC4BF045E9EFD0220EE66E390EE66E3E
:1022D000010E59EC4DF048E06BEC43F002E031ECBC
:1022E0004FF0010ED8900FBE03D00E5C000E0F58B9
:1022F0001DE30F3404E20E500308000E0F5416E3E2
:102300006E0E0C6E070E0D6E300E3DEC48F00601A1
:1023100040EC49F0D2ECB3F045E906EC45F003ECB3
:1023200052F020EC57F030EC54F00CD03BEC53F072
:10233000296F290E0C6E040E0D6E96EC4BF05CECC2
:1023400056F045E951EC4FF01F0EE66E390EE66E81
:10235000010E4AEC54F08AEC4DF0300E3DEC48F0A2
:10236000E2ECA9F046E99FD01A0EE66E390EE66E51
:10237000010E59EC4DF072E060EC47F0E66EE66A53
:1023800003EC52F0A4EC43F0040128AB07D0160E86
:10239000E66E390EE66E010E4AEC54F004012A5145
:1023A0007EEC43F00E0EE66E390EE66E010EA4ECE6
:1023B00043F004012B51C9EC53F087EC51F0A4EC2D
:1023C00043F004012D51C9EC53F004012E51C9EC26
:1023D00053F004015851C9EC53F091EC51F0A4ECC6
:1023E00043F004015751C9EC53F004015651C9ECB4
:1023F00053F09BEC51F0A4EC43F004013151C9ECD3
:1024000053F004015551C9EC53F004015451C9EC87
:1024100053F004014A517EEC43F0060EE66E390E8D
:10242000E66E010EA4EC43F004014B51C9EC53F0ED
:1024300004014C51C9EC53F004014D51C9EC53F067
:1024400004014E51C9EC53F004014F517EEC43F0AE
:10245000FD0EE66E380EE66E010E20D0F80EE66E2A
:10246000380EE66E010E59EC4DF03BE06BEC43F09C
:1024700003E031EC4FF004D060EC47F00E6E0F6AD1
:102480000EEBE6FFE9EC0DF041E900090FE106EC87
:1024900045F0E50EE66E380EE66E010E20EC57F0C4
:1024A0007AEC87F047E951EC4FF0DBD306EC45F0CE
:1024B000D70EE66E380EE66E010EA4EC43F0060170
:1024C0000A04C86F000E0B5877EC45F00F0E5BEC5A
:1024D00047F00E50E2EC47F00E5097EC47F0289B87
:1024E000C0D3C7EC50F09BEC44F001E09AD3D20E7D
:1024F000E66E380EE66E010E59EC4DF014E06BEC12
:1025000043F003E031EC4FF004D060EC47F00E6E86
:102510000F6A0EEBE6FFA0DC21EC4AF00EEBE6FFC3
:102520009DEC4BF091D3CC0EE66E380EE66E010EAC
:1025300059EC4DF00CE0A4EC48F0630EE66E5CEC58
:1025400018F043E99BEC44F001E06BD36FD3C50E68
:10255000E66E380EE66E010E59EC4DF005E0D0EC5B
:1025600052F001E0E3D00FD0C20EE66E380EE66EF8
:10257000010E59EC4DF00DE0E66A5EEC4BF09BEC81
:1025800044F001E0D3D0C90EE66E380EE66E010EBF
:10259000A0D0BD0EE66E380EE66E010E59EC4DF081
:1025A00065E06BEC43F005E0F2EC44F00E6EC951CF
:1025B0000F6E6BEC43F005E0F2EC44F0106EC95185
:1025C000116E0050011001E17FD0040E41EC48F083
:1025D000530807E0A5EC51F001E0A8D039EC46F033
:1025E000AFD08B0E246ED950240F62EC4BF0000E4E
:1025F000E66E060EE66E60EC56F0FBEC00F047E986
:102600009BEC44F001E092D02450E96EEA6A8B0E14
:10261000D880E956000EEA56000EE926060EEA2298
:10262000EF6A06EC45F088EC4BF08AEC4DF092EC4A
:1026300048F00A6EF4500B6E10EBE6FF8FEC4BF097
:102640008AEC4DF01AEC88F046E951EC4FF0000EA0
:10265000E66E060EE66EA30EE66E380EE66E010E10
:1026600020EC57F05EEC87F047E96CD09D0EE66EEB
:10267000380EE66E010E59EC4DF068E06BEC43F05D
:1026800005E0F2EC44F00E6EC9510F6E6BEC43F0B6
:1026900005E0F2EC44F0106EC951116E6BEC43F0A2
:1026A00010E03EEC4DF0D2ECA6F042E99FEC4DF08C
:1026B0000601C8511C6EC9511D6ECA511E6ECB5108
:1026C0001F6E005001100AE1A90EE66E380EE66E8C
:1026D000010E20EC57F075EC50F034D0050E41ECB3
:1026E00048F04F0810E1B5EC50F020E1980EE66E8E
:1026F000380EE66E010E4AEC54F08AEC4DF041ECD7
:102700000FF042E91FD0A5EC51F010E1930EE66EF8
:10271000380EE66E010E4AEC54F039EC46F043EC0C
:102720004AF051EC4FF0B5EC50F003E053EC52F0AE
:1027300009D006EC48F0890EE66E380EE66E010E02
:1027400043EC4AF051EC4FF0066A81D2830EE66EFC
:10275000380EE66E010E59EC4DF034E06BEC43F0B0
:1027600002E031EC4FF06BEC43F002E094EC50F0FF
:102770006BEC43F002E027EC52F06BEC43F004E02A
:10278000B0EC43F0F3CFE6F76BEC43F004E0B0ECD1
:1027900043F0F3CFE7F788EC48F0B3EC55F013ECD7
:1027A0000AF046E99BEC44F001E03BD20E2804011C
:1027B0002F6F1028576F1228566F288B0A01066B4F
:1027C000056B34D27D0EE66E380EE66E010E59ECC6
:1027D0004DF02CE06BEC43F002E031EC4FF06BEC91
:1027E00043F003E094EC50F004D08EEB10F08FEB4C
:1027F00011F06BEC43F002E027EC52F06BEC43F08D
:1028000002E03FEC53F098EC4FF0DFEC0AF048E9BF
:102810009BEC44F001E005D20E280401306F102833
:10282000316F1228556F1428546FFFD1770EE66E62
:10283000380EE66E010E59EC4DF036E06BEC43F0CD
:1028400002E031EC4FF06BEC43F002E094EC50F01E
:102850006BEC43F002E027EC52F06BEC43F002E04B
:102860003FEC53F06BEC43F006E0B0EC43F0F35078
:10287000166EF450176E16EBE6FF17EBE6FF98ECBA
:102880004FF020EC0CF04AE99BEC44F001E0C9D198
:102890000E2804014A6F10284B6F12284C6F142821
:1028A0004D6F16284E6FC1D1710EE66E380EE66E72
:1028B000010E59EC4DF019E06BEC43F002E031EC05
:1028C0004FF06BEC43F002E094EC50F0B3EC55F0B9
:1028D000FFEC0CF044E99BEC44F001E0A2D10E289F
:1028E0000401526F1028536FA0D16A0EE66E380EA5
:1028F000E66E010E59EC4DF012E06BEC43F002E095
:1029000031EC4FF006EC45F056EC0DF042E99BEC53
:1029100044F001E086D10E2804014F6F86D1D0EC3F
:1029200052F001E07ED1640EE66E380EE66E010EC6
:1029300059EC4DF01EE06BEC43F002E031EC4FF04F
:102940006BEC43F002E094EC50F0B3EC55F066EC25
:1029500005F044E99BEC44F002E1A0EC4BF0085098
:10296000091001E05ED10E2804012A6F10282B6F98
:102970003DD0410EE66E380EE66E010E59EC4DF07C
:102980003CE06BEC43F002E031EC4FF06BEC43F0D9
:1029900003E094EC50F004D08EEB10F08FEB11F0CC
:1029A0006BEC43F003E027EC52F004D090EB12F014
:1029B00091EB13F06BEC43F002E03FEC53F098EC3A
:1029C0004FF088EC06F048E99BEC44F002E1A0EC03
:1029D0004BF00850091001E024D10E2804012C6F9F
:1029E00010282D6F12282E6F1428586F288B470E31
:1029F000E66E380EE66E010E24D13B0EE66E380E02
:102A0000E66E010E59EC4DF001E116D16BEC43F08E
:102A100018E0246A030E245C11E22450002463ECC5
:102A200049F00CE02450002463EC49F0DF0BE66E23
:102A300089EC49F093EC47F0242AECD709EC52F0EA
:102A4000EF6A246A040E245C3AE26BEC43F035E052
:102A5000B0EC43F0F3CFCAF6F4CFCBF60601D95071
:102A60000E0FC86FDACFC9F62450020DC851F324F7
:102A7000E96EDA50F420EA6ECAC6EEFFCBC6EDFF6F
:102A8000400EE66E3EEC4DF0ACECACF043E9C7EC2A
:102A900054F013E006010228CA6F000E032028EC50
:102AA0004CF09FEC52F0F350E66E0601D950180F2F
:102AB000D9EC45F0E552E750EF6E242AC3D7246ADB
:102AC00009EC52F0EF5001E194D01BEBE6FF1AEB5A
:102AD000E6FF19EBE6FF18EBE6FF14EBE6FF12EB5F
:102AE000E6FF10EBE6FF0EEBE6FFD950200FD9EC26
:102AF00045F0EFCFE6FFFEEC07F049E99BEC44F030
:102B000001E077D089EC49F0EF50440802E1000E73
:102B100011D0D950200FCA6FDACFCBF62450EA6A11
:102B2000CA25E96EDA50EA22EF504E0802E1010EA2
:102B300001D0020E086E096AE8BE09680E28E5ECAD
:102B400045F009EC44F0FDE1B7EC47F0040E4CEC25
:102B500050F01028E5EC45F009EC44F0FDE1B7EC4D
:102B600047F0050E4CEC50F01228E5EC45F009EC6E
:102B700044F0FDE1B7EC47F0060E4CEC50F01428A1
:102B8000E5EC45F009EC44F0FDE1B7EC47F0070E49
:102B90004CEC50F01828E5EC45F009EC44F0FDE170
:102BA000B7EC47F093EC47F01928E5EC45F009EC59
:102BB00044F0FDE1B7EC47F0EE5293EC47F01A28F1
:102BC000E5EC45F009EC44F0FDE1B7EC47F0020E0E
:102BD0004CEC50F01B28E5EC45F009EC44F0FDE12D
:102BE000B7EC47F0030E4CEC50F0086A096A242A4F
:102BF00067D70850091018E0360EE66E380EE66EFC
:102C0000010E4AEC54F009EC52F0EF50E66E33EC52
:102C100045F00A2A000E0B2293EC47F033EC45F006
:102C2000EF6A53EC52F011D00401288BC90EE66E06
:102C3000380EE66E010E05D0260EE66E380EE66EF4
:102C4000010EE66E5CEC56F045E951EC4FF0065093
:102C500006E0E66A5EEC4BF00401276B02D004014B
:102C600027690701F3A502D0000E05D050EC50F003
:102C700024EC45F0010E5EE9E7CFD9FF1200EFEC3E
:102C800050F045E8005001100EE03DEC45F00BE03F
:102C9000B0EC43F054EC50F00601C82B000EC923F1
:102CA000C8510A6E01D00A6A0AEBE6FF2CEC0FF05D
:102CB00041E959EC50F0BDEC53F0CDEC50F0E2ECB2
:102CC00053F00AEBE6FFB1EC4EF0E4EC0FF045E90F
:102CD000F35074EC48F0045011E0020E1DEC49F082
:102CE0000850091003E1FDEC50F006D0ACEC51F0B7
:102CF000E2EC53F0CCEC46F05FEC67F0010E46E9F5
:102D0000E7CFD9FF1200EFEC50F045E8096A0A6AF4
:102D1000E9EC4AF0160EF31801E1F45001E184D019
:102D2000170EF31801E1F45001E17AD0150EF318F3
:102D300001E1F45041E0140EF31801E0C8D0F45062
:102D400001E0C5D00050011003E03DEC45F002E188
:102D5000000E01D0010E000905E0B0EC43F0F3CF06
:102D6000C8F604D00601060EC86FC96BC8C61BF4AE
:102D7000C7EC48F005E191EC4CF00800F550086E06
:102D8000085004011B5D04E3310E096E0A6A0AD083
:102D900010EC54F0050EA6EC55F004E15EEC54F096
:102DA00010EC56F009500A1001E091D00001728732
:102DB0000001040E766F8BD00050011003E03DEC53
:102DC00045F002E1000E01D0010E000905E0B0EC73
:102DD00043F0F3CFC8F604D00601010EC86FC96BEB
:102DE0000601C851086E640E0802F3CFC8F6C96B1D
:102DF000CA6BCB6BC8AF03D0C969CA69CB69110E66
:102E0000E96E040EEA6E65EC45F0C8C61CF4C9C64E
:102E10001DF4CAC61EF4CBC61FF40001728957D038
:102E20000001729972A753D0C7EC48F005E191EC0C
:102E30004CF00800F550086E74EC57F072EC50F04E
:102E400008EBCCF6CD6BCE6BCF6BCCAF03D0CD699E
:102E5000CE69CF6998EC54F0D6EC55F01AEC44F0FA
:102E6000050EA6EC55F019E12EEC57F008EBD2F662
:102E7000D36BD46BD56BD2AF03D0D369D469D5698A
:102E8000E2EC46F03B0E9BEC4CF0DAEC44F0E5EC67
:102E90004EF004EC57F010EC56F009500A1017E110
:102EA000000172970001050E766F000172A90FD024
:102EB00011C41CF412C41DF413C41EF414C41FF472
:102EC000640E04011C27000E1D231E231F23045023
:102ED00002E12EEC67F0BDEC53F0CDEC50F0095060
:102EE0000A100BE0D6EC52F0120EE66E380EE66ECB
:102EF000010E78EC57F0CDEC50F0000172A70DD028
:102F000004011B51E66EE66AFF0EE66E370EE66EB2
:102F1000010EE66EF1EC48F007D0F60EE66E370EC5
:102F2000E66E010E17EC56F02BEC52F0000172A980
:102F300014D086EC45F01CC4E6FF1DC4E6FF1EC499
:102F4000E6FF1FC4E6FFE30EE66E370EE66E010EE7
:102F500078EC57F04FEC52F007D0D70EE66E370EF4
:102F6000E66E010E17EC56F0F35074EC48F097EC57
:102F700045F021EC5AF042E904500FE0020E1DEC3E
:102F800049F009500A1003E1FDEC50F004D0ACEC1C
:102F900051F0D6EC52F05FEC67F0045002E14CECDB
:102FA00067F0010E46E9E7CFD9FF1200F0EC4FF0D1
:102FB00043E86AEC46F0FFEC55F00A01100E025DA2
:102FC000000E03590AE22DEC4CF0C80EE66E370EE7
:102FD000E66E010E5BEC52F02AD02DEC4CF0B80EF0
:102FE000E66E370EE66E010E5BEC52F02DEC4CF007
:102FF00006EC51F01CE1320E036ED950030F62EC67
:103000004BF00128CA6F000E022028EC4CF0CEECE9
:1030100051F00DE1FAEC43F0200EEF6E330ED88044
:1030200003540126000E0222FAEC43F0EF6A84EF0B
:1030300048F0EBEC50F041E83EEC4DF006EC50F07F
:1030400006EBE6FF92EC48F0ADEC56F097EC48F05A
:10305000052A000E06222C0EEF6E0050011025E00E
:103060003EEC4DF006EC51F020E1320E086ED950E6
:10307000080F62EC4BF06AEC51F0CEEC51F015E128
:10308000320E085C12E297EC48F0EF500EE097EC3D
:1030900048F0EF502C0804E197EC48F03B0EEF6E3F
:1030A000082A052A000E0622EBD797EC48F0EF6AB3
:1030B00001EC4CF053EF47F09BEC52F044E8076A08
:1030C0000250010808E2C7EC50F0F35079EC50F0E0
:1030D0000450051061E1020403E0630E025C09E1A3
:1030E00097EC45F0530E98EC50F003E10401D751F2
:1030F000076E020E025C03E0630E025C0FE132EC2D
:1031000053F043EC53F0B7EC55F0020E43EC53F0A0
:1031100098EC50F003E10401D751076E04500510FC
:1031200014E1030E025C03E0630E025C0EE148EC66
:1031300053F0410EB7EC55F086EC45F0410E98EC9B
:1031400050F003E10401D751076E045005100DE162
:10315000040E025C03E0630E025C07E148EC53F0EE
:10316000420EB7EC55F00A0E076E045005100DE143
:10317000050E025C03E0630E025C07E148EC53F0CD
:10318000430EB7EC55F0020E076E0050011004E03C
:1031900030EC52F007EBEFFF04EBF3FF05EBF4FF2D
:1031A000A9EF47F068EC53F047E8035001080AE242
:1031B000050E035C07E2C7EC50F0F3508DEC45F0D0
:1031C00001E05AD1980EE66E370EE66E010EA0ECC5
:1031D00054F0ADEC56F097EC45F0520E48EC50F040
:1031E00001E04AD11DEC4DF086EC45F0520E48EC62
:1031F00050F001E041D11DEC4DF05FEC67F00304AD
:1032000033E197EC45F0530E98EC50F003E10401E4
:10321000D7510B6E82EB09F00B50095C01E325D10D
:103220000A0E0224095C01E320D113EC49F0E66A9E
:1032300086EC45F0530EB4EC43F08DEC45F001E024
:1032400014D103EC56F0530E48EC50F001E00DD1D0
:1032500056EC4CF07E0EE66E370EE66E010E4DEC2F
:1032600044F05AEC4CF0D8D7020E035C45E1020E54
:1032700043EC53F098EC50F003E10401D7510B6E8E
:1032800082EB09F00B50095C01E3EFD00A0E022437
:10329000095C01E3EAD013EC49F0E66AE66A110E34
:1032A000DCEC52F001E0E1D0010EE66E120EE66EAB
:1032B000410E48EC50F001E0D8D056EC4CF05E0ED8
:1032C000E66E370EE66E010E4DEC44F0020EE66E31
:1032D000120E7AEC54F0030EE66E120E7AEC54F0F5
:1032E000040E64EC56F0050E64EC56F0060E64EC29
:1032F00056F05AEC4CF0C6D7030E035C44E186EC62
:1033000045F0410E98EC50F003E10401D7510B6EEB
:1033100082EB09F00B50095C01E3A7D00A0E0224EE
:10332000095C01E3A2D013EC49F0E66AE66A010EFB
:10333000DCEC52F001E099D0010EE66E020EE66E72
:10334000410E48EC50F001E090D056EC4CF0460EA7
:10335000E66E370EE66E010E4DEC44F0020EE66EA0
:103360007AEC54F0030EE66E020E7AEC54F0040E82
:1033700068EC56F0050E68EC56F0060E68EC56F058
:103380005AEC4CF0C7D7040E035C2EE102500A0839
:1033900002E20A0E026E0A0E0B6E82EB09F00A0EB2
:1033A000095C63E2010EA0EC44F0F3508DEC45F0B3
:1033B0005CE156EC4CF02E0EE66E370EE66E010E1A
:1033C0004DEC44F0040E0DEC55F0050E0DEC55F0EF
:1033D000020E0DEC55F0030E0DEC55F0060E0DEC43
:1033E00055F05AEC4CF0DBD7050E035C3EE1025081
:1033F000020802E2020E026E020E0B6E82EB09F070
:10340000020E095C32E2020E0EEC44F0F3508DEC39
:1034100045F02BE156EC4CF0160EE66E370EE66EDC
:10342000010E43EC4DF0C2EC4FF0AAEC43F0030E5A
:103430002CEC54F0040E2CEC54F0050E2CEC54F053
:10344000060E2CEC54F0070E2CEC54F00A0E2CEC6B
:1034500054F00B0E2CEC54F00C0E2CEC54F00D0E22
:103460002CEC54F05AEC4CF0CBD70050011004E097
:1034700030EC52F00BEBEFFF07EBF3FF08EBF4FF40
:1034800037EF4CF0EFEC50F047E8010E0A6E0B6A94
:103490000050011019E03DEC45F016E01CEC56F030
:1034A00070EC57F00050011004E0B0EC43F0F35022
:1034B0000A6E47EC51F070EC57F00050011004E038
:1034C000B0EC43F0F3500B6E045002E12EEC67F0C9
:1034D000D10E02180BE1035009E1D9500C0F62EC38
:1034E0004BF00AEBE6FFE8DD43E90FD0D20E0218FD
:1034F0000FE103500DE1D9500C0F62EC4BF00BEBD8
:10350000E6FF0AEBE6FF4EDE44E959EC50F003D04B
:10351000300E086E096A045029E095EC43F07DEC0A
:1035200050F00850091011E00B0EE66E370EE66EF3
:10353000010E78EC57F0CDEC50F0E2EC53F0B1EC2A
:103540004EF090EC0FF044E90ED00A500BEC48F02E
:10355000F1EC48F02BEC52F00C50E66EE66A64ECAD
:1035600043F0F1EC48F0F35074EC48F0045009E1FA
:103570004CEC67F00850091002E0000E03D0010E79
:1035800001D0010E37EF4CF0F5EC43F083E944E84D
:10359000013409E200501008270E015404E2100E15
:1035A000006E270E016E04010050035D01500459A6
:1035B00004E3000EF36EF46AAAD0036A046A35ECE1
:1035C00052F00601CA6BCB6BC9AF02D0CA69CB6996
:1035D000CB35000ECB1909E6D880B80EC855240E9D
:1035E000C955000ECA55000ECB5546E203C4C8F6B5
:1035F00004C4C9F6CA6BCB6BD890CB51000A08E65D
:10360000B80EC85D240EC959000ECA59000ECB5918
:1036100014E261EC52F000EBD0F601EBD1F6D26B84
:10362000D36BD1AF02D0D269D369B80ED05F240E6C
:10363000D15B000ED25BD35B0ED061EC52F000EB9D
:10364000D4F601EBD5F6D66BD76BD5AF02D0D669E1
:10365000D76926EC47F037EC53F02C0E0601CC2747
:10366000010E8AEC44F011EC55F00326C9510422F6
:10367000B80E006E240E016E04010050035D01506F
:10368000045943E2B80EE66E240E35EC4DF0B40E4C
:10369000C4EC56F000EBD4F601EBD5F60601D66B80
:1036A000D76BD5AF02D0D669D76926EC47F0E2ECEC
:1036B00052F0E66EB0EC44F05C0EF4EC51F011EC1C
:1036C00055F0056EC951066E0701F451010B19E062
:1036D000EC51000816E2070EEC5D13E2050EEC0358
:1036E000F350E66EE66A200EE66EE66A6AEC51F08A
:1036F0008DECA1F065EC9FF0E552E550066EE750C9
:10370000056E055003260650042219EC4CF0A9EF73
:1037100047F079EC51F056E8CEEC43F0A390040169
:103720002251106E2351116E2451126E2551136EC9
:103730000A010F51146E1051156E1151166E12516F
:10374000176E13EC46F0A38014EC48F0F50EE66E0D
:10375000360EE66E010E43EC4DF05CEC50F049EC99
:103760004AF0F9EC54F095EC43F03AEC52F0C8EC26
:1037700056F0BCC0E6FFBDC0E6FFB0EC53F0000160
:10378000775109EC57F00001C35109EC57F0C6C05E
:10379000C8F60601C96BC8BFC9697CEC4DF0B0EC36
:1037A00053F00001CC5109EC57F039EC47F020C43C
:1037B000CCF621C4CDF6BBEC46F0CDAF02D0CE693D
:1037C000CF69CDEC53F003EC45F08AEC53F0FF0EDB
:1037D000101806E17F0E111803E1CAEC54F01FD057
:1037E00039EC47F010EBCCF611EBCDF6BBEC46F024
:1037F000CDAF02D0CE69CF69CDEC53F003EC45F0EC
:1038000039EC47F012EBCCF613EBCDF6BBEC46F0FF
:10381000CDAF02D0CE69CF69CDEC53F049E9FEECD3
:103820004FF004012651E66EE66A2BEC4DF092EC67
:1038300048F0FBEC55F0F40EE66E010EE66E0A0160
:1038400037513FEC57F00C0EE66EFE0EE66E0A01A5
:1038500038513FEC57F003EC56F00BCAE6FF0CCAA8
:10386000E6FF0DEC57F0030EE66EE9EC48F056EC7F
:1038700054F0FF0E141806E17F0E151803E1CAEC90
:1038800054F027D086EC45F022EC56F014EBC8F645
:1038900015EBC9F60601CA6BCB6BC9AF02D0CA697A
:1038A000CB6945EC57F0FCEC53F022EC56F016EBEC
:1038B000C8F617EBC9F60601CA6BCB6BC9AF02D0CD
:1038C000CA69CB6945EC57F02BEC4DF078EC88F0E9
:1038D0004BE9FEEC4FF0DB0EE66E040EE66E00EBFD
:1038E000E6FF49EC68F043E957E9E7CFD9FF12005A
:1038F00079EC51F053E8CEEC43F01168126A136A88
:10390000146A106A070E105C1EE270EC53F0EF5060
:103910001326000E142270EC53F0EE521150EF5C9F
:1039200005E270EC53F0EE52EF50116E70EC53F074
:103930001DEC55F0125C05E270EC53F01DEC55F0F7
:10394000126E102ADFD7070EE66EE66A030E060136
:103950001324C86F000E142077EC45F0ADEC9FF0F7
:10396000E552E550146EE750136ED40EE66E360E37
:10397000E66E010EA0EC54F0FBEC55F086EC45F041
:1039800011C4E6FF12C4E6FF13C4E6FF14C4E6FF49
:1039900056EC54F049EC4AF06CEC56F0C8EC56F09A
:1039A00000017151040B03E00001665101D0000ECB
:1039B00009EC57F00001815182118311841121E03B
:1039C0003C0EC4EC56F0810EE96E000EEA6EEE502D
:1039D00000017D5D0601CC6FEE5000017E590601AD
:1039E000CD6FEE5000017F590601CE6FEE50000101
:1039F00080590601CF6F1E0E35EC57F094EC54F051
:103A000003D065EC46F0CB6B7CEC4DF0B0EC53F0A2
:103A10004CEC53F0FCEC53F0E0EC49F0FCEC53F0D0
:103A2000A4EC4BF056EC54F08AEC53F070EC56F0EA
:103A3000B0EC53F002EC4AF0BAEC4DF0B0EC53F0BD
:103A400097EC45F0D2EC49F056EC54F097EC45F089
:103A500027CAE6FF28CAE6FF0DEC57F097EC45F0C1
:103A600029CAE6FF2ACAE6FF0DEC57F00601280E28
:103A7000135CC86F000E145877EC45F0B0EC53F0AF
:103A8000115075EC44F0B0EC53F0125075EC44F06A
:103A9000B0EC53F09CC0E6FF9DC0E6FFB0EC53F0E5
:103AA0009AC0E6FF9BC0E6FFB0EC53F086EC45F011
:103AB00048EC46F0F5EC48F0FCEC53F00BC4D0F6C3
:103AC0000CC4D1F60601D26BD36B00CAD4F601CA7E
:103AD000D5F6D66BD76BD451D05DCC6FD551D159BB
:103AE000CD6FD651D259CE6FD751D359CF6F800EEB
:103AF000CF1522E03BEC4CF00BC4DCF60CC4DDF639
:103B0000DE6BDF6B00CAE0F601CAE1F6E26BE36B45
:103B1000E051DC5DD86FE151DD59D96FE251DE59DA
:103B2000DA6FE351DF59DB6F06EC4CF0DAC6E6FFE3
:103B3000E66E56EC57F018D00BC4E4F60CC4E5F66C
:103B4000E66BE76B00CAE8F601CAE9F6EA6BEB6BD5
:103B5000E851E45DC86FE951E559C96FEA51E6598A
:103B6000CA6FEB51E759CB6F11EC57F08FEC49F06E
:103B700005E214EC47F017EC4DF003D065EC46F08D
:103B8000CB6B11EC57F09AEC49F008E252EC4AF09A
:103B90000A0E68EC47F017EC4DF003D065EC46F0E8
:103BA000CB6B11EC57F0A5EC49F008E25BEC4AF066
:103BB0000A0E74EC47F017EC4DF003D065EC46F0BC
:103BC000CB6B11EC57F0D2EC54F0DAEC53F0FCEC88
:103BD00053F0DDEC54F0DAEC53F0FCEC53F023CA74
:103BE000E6FF24CAE6FF0DEC57F0A0C0E6FFA1C037
:103BF000E6FFB0EC53F0020E005C02E12EEC67F041
:103C00005FEC67F0020E005C02E1010E01D0005093
:103C100054E9E7CFD9FF1200DACFE4FFE2CFDAFFB1
:103C2000E9CFE4FFEACFE4FFD9CFE4FFDACFE4FF46
:103C3000FCC7E4FFFDC7E4FFFEC7E4FFFFC7E4FFE6
:103C4000F6CFE4FFF7CFE4FFF8CFE4FFF5CFE4FFD2
:103C5000F3CFE4FFF4CFE4FFFACFE4FFFBCFE4FFC0
:103C6000E65260AE5BD06050010B30E12A0E615C21
:103C70002DE10701EC51000829E2F451010B26E087
:103C8000200E0401261522E0FF0E665C1FE00701EE
:103C9000EC51D88066541AE20F0130972A0E316F2A
:103CA000A00E326F080E356FECC736FF67CF37FFB7
:103CB00068CF38FF69CF39FF6ACF3AFF6BCF3BFF40
:103CC0006CCF3CFF6DCF3DFF0B0E306F6250B0EC00
:103CD00049F006E00701D890F633F533E804FBE13C
:103CE0006150A5EC46F0010E60140B01496F0F0EF8
:103CF00065140B014A6F66CF4BFB67CF4CFB68CF57
:103D00004DFB69CF4EFB6ACF4FFB6BCF50FB6CCFA7
:103D100051FB6DCF52FB609EA4905BD80F0150AF5A
:103D20002CD05251B0EC49F006E00701D890F633A0
:103D3000F533E804FBE10F015151A5EC46F0070E05
:103D40000F0150150B01496F0F0E0F0155150B0197
:103D50004A6F56CF4BFB57CF4CFB58CF4DFB59CF3B
:103D60004EFB5ACF4FFB5BCF50FB5CCF51FB5DCF7F
:103D700052FB0F01509FA49256DBA450010B01E0AF
:103D800070D7A450020B01E06CD7E552E5CFFBFFE2
:103D9000E5CFFAFFE5CFF4FFE5CFF3FFE5CFF5FF81
:103DA000E5CFF8FFE5CFF7FFE5CFF6FFE5CFFFF76B
:103DB000E5CFFEF7E5CFFDF7E5CFFCF7E5CFDAFF7E
:103DC000E5CFD9FFE5CFEAFFE5CFE9FFE5CFDAFFA1
:103DD0001100F0EC4FF048E80B01495101E00ED31F
:103DE000550E0B01471901E0A4D1010E481901E05D
:103DF000A0D1540E0B014E5D01E012D34FCBC9FB95
:103E00000B01C86B0B0150510B012BEC4BF030E058
:103E100001EBC8FB02EBC9FBCA6BCA35000ECA191D
:103E200007E6D880400EC8559C0EC955000ECA55ED
:103E30001FE30401D8900230046F0130036FD89063
:103E4000043303330351095D04510A5904E203C4E6
:103E500009F404C40AF40551035D0651045908E24B
:103E600003C405F404C406F40DC407F40EC408F436
:103E700072EC46F02BEC4BF001E1D2D2000E015C6B
:103E80000F0E025801E3CCD20A010150D0080D6F89
:103E9000070E02540E6F103510510E1904E60F5123
:103EA0000D5D10510E5904E20DCA0FFA0ECA10FA38
:103EB0000E350E51121904E60D51115D0E511259B5
:103EC00004E20DCA11FA0ECA12FA0E3547E33BECB2
:103ED0004CF0D2EC49F00DCAD0FB0ECAD1FB0B015D
:103EE000D06DD11F000ED123D26BD36BD1AF02D0D6
:103EF000D269D369D0CBE6FFD1CBE6FFD2CBE6FFC8
:103F0000D3CBE6FF36EC55F0E5CFCFFBE5CFCEFBCC
:103F1000E5CFCDFBE7CFCCFB800E0B01CC27000E0D
:103F2000CD23CE23CF23080ED890CF33CE33CD333D
:103F3000CC33E806F9E1CCCBE6FFCDCBE6FFCECB28
:103F4000E6FFCFCBE6FF36EC55F0E5CFCBFBE5CF78
:103F5000CAFBE5CFC9FBE7CFC8FB36D0D2EC49F0AE
:103F60000DCAD8FB0ECAD9FB0B01DA6BDB6BD9AFDC
:103F700002D0DA69DB69D8CBE6FFD9CBE6FFDACB32
:103F8000E6FFDBCBE6FF36EC55F0E5CFD7FBE5CF20
:103F9000D6FBE5CFD5FBE7CFD4FB800E0B01D427B2
:103FA000000ED523D623D723080ED890D733D63387
:103FB000D533D433E806F9E1D4CBC8FBD5CBC9FB64
:103FC000D6CBCAFBD7CBCBFBC8CB20F4C9CB21F4D3
:103FD000040123352351211904E62251205D235188
:103FE000215904E220C422F421C423F421352151B3
:103FF000251904E62051245D2151255904E220C4ED
:1040000024F421C425F4A751195DA8511A5906E3D7
:10401000A751195D016E1A51A85529D019C4C8FBC2
:104020001AC4C9FB0B01CA6BCB6BD06BD16B010EF1
:10403000D26FD36BA7C4D4FBA8C4D5FBD66BD76B08
:10404000D451D05DCC6FD551D159CD6FD651D25905
:10405000CE6FD751D359CF6FCC51C827CD51C9237B
:10406000CE51CA23CF51CB23C851016EC951026E24
:1040700019C4A7F41AC4A8F401EBC8FB02EBC9FBEE
:104080000B01CA6BCB6B3EEC52F00B019BEC45F085
:104090000A010E3528E20D510008000E0E5523E2EC
:1040A000F3EC4AF00B01CA6BCB6BC9AF02D0CA6903
:1040B000CB693EEC52F0040E68EC52F0CA6BCB6B4D
:1040C000C9AF02D0CA69CB69CB0EE96E040E6FECA2
:1040D00052F0CA6BCB6BC9AF02D0CA69CB69130E61
:1040E000E96E0A0E22D0F3EC4AF00B01E7EC49F03E
:1040F000C9AF02D0CA69CB693EEC52F0080E68EC39
:1041000052F0E7EC49F0C9AF02D0CA69CB69CF0ED3
:10411000E96E040E6FEC52F0E7EC49F0C9AF02D043
:10412000CA69CB69170EE96E0A0EEA6E9BEC45F080
:1041300077D10A01C551046E5F0E0B01471902E1E8
:10414000050E481901E11AD15E0E471902E1050E6C
:10415000481901E1D9D0570E471902E1050E481957
:1041600001E18AD0540E471902E1050E481962E0B8
:10417000560E471901E054D1050E481901E050D1FF
:10418000FF0E0B014B5D01E14BD13F0E045C01E1E1
:1041900047D1A1EC47F004E00B0163EC47F0FDE1EF
:1041A00050EC53F00A01556FC9CB56FA72EC46F049
:1041B000C8110A015D6FC9CB5EFA0B014E510B01AC
:1041C000F9EC48F004E00B0163EC47F0FDE154EC3E
:1041D00053F00A01656FC9CB66FA3FEC47F00A015C
:1041E0006D6FC9CB6EFA4CEC49F004E00B0163EC47
:1041F00047F0FDE10B0152390FEC4AF00A01756FEF
:10420000C9CB76FAFC0E04143C0803E13F0EC56FDF
:1042100007D1FC0E041401E103D1030E0414010FB5
:10422000036E030E035C02E1046AE5D0FC0E041485
:104230000310E0D0FF0E0B014B5D01E1F1D03F0E0A
:10424000045C01E1EDD0036A070E035C0FE203504A
:10425000EA6A4B0FE96E0B0EEA22EF50E66E03504E
:1042600034EC44F093EC47F0032AEED704844DEC91
:1042700048F001E2C0D080D0FF0E0B014B5D01E1A0
:10428000CFD03F0E045C01E1CBD0A1EC47F004E0BD
:104290000B0163EC47F0FDE150EC53F00A017D6F38
:1042A000C9CB7EFA72EC46F0C8110A01856FC9CB02
:1042B00086FA0B014E510B01F9EC48F004E00B01BA
:1042C00063EC47F0FDE154EC53F00A018D6FC9CB6C
:1042D0008EFA3FEC47F00A01956FC9CB96FA4CEC89
:1042E00049F004E00B0163EC47F0FDE10B015239AA
:1042F0000FEC4AF00A019D6FC9CB9EFA04864DEC83
:1043000048F001E278D038D0FF0E0B014B5D01E19F
:1043100087D03F0E045C01E183D0A1EC47F004E0BC
:104320000B0163EC47F0FDE150EC53F00A01A56F7F
:10433000C9CBA6FA72EC46F0C8110A01AD6FC9CB21
:10434000AEFA0B014E510B01CA6FF9EC48F004E0D4
:104350000B0163EC47F0FDE154EC53F00A01B56F3B
:10436000C9CBB6FA3FEC47F00A01BD6FC9CBBEFA24
:1043700004884DEC48F03FE33F0E3CD0FF0E0B01AC
:10438000505D4EE03F0E045C4BE050510B01CA6F94
:10439000CB6B040E50CBC8FBCBCBC9FB000A04E0AF
:1043A0000B0163EC47F0FDE10B0151390FEC4AF0D2
:1043B000056EC951066E0F0E0B0151150B01C96F29
:1043C000C86B0B0152510B01C811076EC951086E21
:1043D0000A0105500724256F06500820266F252B5B
:1043E000000E2623D89026332533048A4DEC48F05E
:1043F00002E33F0E046E04EBC5FA12D0240E0B014B
:1044000047190EE1040E48190BE1FF0E0B014D5D3B
:1044100002E04DCB38FAFF0E4E5D02E04ECB37FA8C
:10442000010E40EF4CF0F0EC4FF046E8020E0B01AD
:10443000495D2DE1810E0B01471901E148511CE056
:10444000960E471901E0BFD2010E481901E0BBD218
:104450000B01505100080CE2F00E505D09E2505182
:1044600000019C6F9D6B280E9C5F000E9D5BABD284
:1044700000019C6B9D6BA7D2100E0B014C5D01E0FF
:10448000A2D24D0501E09FD20401272B9CD2030E3E
:10449000495D6BE1970E0B01471902E1050E4819C2
:1044A00029E0810E471901E08ED2050E481901E07E
:1044B0008AD2016A026A0B014A5126EC4AF00FE2E5
:1044C0004B0E0124E96E0B0E0220EA6EEF50E66EF1
:1044D000ABEC4BF093EC47F073EC53F0ECD7080ED9
:1044E00026EC4AF001E36FD2ABEC4BF0EF6A73ECD1
:1044F00053F0F5D70B014BAB04D0E60E0001606F13
:1045000002D00001606B616B100E0B014C1509E0CD
:10451000100E0401261505E1000EA76FA86B196F98
:104520001A6B0B014CAD06D0F00E4C150B01DC6F75
:10453000070E05D0F00E4C150B01DC6F0F0EB2EC20
:104540004BF00B01525100080CE2F00E525D09E2F3
:1045500052510001A06FA16B280EA05F000EA15B5D
:1045600032D20001A06BA16B2ED2040E495D01E096
:10457000BED19F0E0B01471902E1060E481901E159
:1045800086D19E0E471902E1050E481901E15CD162
:104590009B0E471902E1050E481901E1D5D0990E8D
:1045A000471901E010D2050E481901E00CD2600E47
:1045B000040126150BE1FF0E0B01505D07E0505181
:1045C000000804E2505104010D6F0E6B51CBDDFB6E
:1045D0000B01DC6B0B0152510B01DC25016E000E4F
:1045E000DD21026E011C01E1021C01E1ECD104019C
:1045F0000F51015C056E10510258066EA43506502D
:10460000A41904E6A351055CA451065804E205EB85
:10461000A3F406EBA4F40634A651061804E60550EC
:10462000A55D0650A65904E205EBA5F406EBA6F439
:1046300003EC56F0A1C4E6FFA2C4E6FF8DECA1F0A6
:104640000401FE0EE3500524A16F41E9E550062068
:10465000A26FE8340EE3A16DA21F000EA223020E8A
:10466000A127000EA223B9EC4BF0A16DA21FA2233B
:1046700008D0020EA125A16F000EA221A26FB9ECF5
:104680004BF0070ED890A2BF03D0A15D000EA25937
:1046900002E3010E08D0A23508E3A151F908FF0E8C
:1046A000A25503E3020EA06F01D0A06B0A0E26EC08
:1046B0004AF045E3702B000E71237223732301EB44
:1046C000DCFB02EBDDFB0B01DC51040174270B0169
:1046D000DD5104017523000E76237723A0512FE0CE
:1046E000A051B4EC44F00C0E49EC44F0EE2AEE225A
:1046F000EE22EE22A2350AE3A1C4DCFBA2C4DDFB5C
:104700000B01DC6DDD1F000EDD2304D0A1C4DCFB3A
:10471000A2C4DDFB0B01DE6BDF6BDDAF02D0DE6917
:10472000DF693EEC52F0100E49EC44F00B01DC5115
:10473000EE26DD51EE22DE51EE22DF51EE2201EBBC
:104740000FF402EB10F43FD1090E0B014C150B01D5
:10475000DC6FF00EB2EC4BF0800E0B014B5D03E111
:104760000401268305D0080E4B5D02E10401268575
:104770000B014E51016E026A0A0104510126000E1E
:104780000222012A0222D8900232013204510B0186
:10479000DE6FDF6B0701E7510B01E06FE16BDF3587
:1047A000DF51E11904E6DE51E05DDF51E15903E339
:1047B000DC6BDD6B1ED00A0104510B01E46FE56B6D
:1047C0000701E751F36EF46AF3500B01E45DE26F09
:1047D000F450E559E36F030EE66FE651E2CBDCFBE4
:1047E000E3CBDDFB06E00B01D890DD33DC33E804DE
:1047F000FBE10701E6510B01D880DC55036E000E8A
:10480000DD55046E043412E203500008000E045417
:104810000DE20A0104510B010324DC6F000E042099
:10482000DD6F0150DC5D0250DD5909E30A010551DD
:10483000000807E20150055D000E025402E201EBA0
:1048400005FA01EB04FABFD04BCBDDFB0B01DC6BAF
:104850000B014C510B01DC250401196F000E0B01FB
:10486000DD2104011A6F0B01505100080CE2F00E1B
:10487000505D09E2505100019A6F9B6B280E9A5FC0
:10488000000E9B5BA0D000019A6B9B6B9CD000013B
:104890008F5101E198D00F0E0B014E15300F000122
:1048A000886F0B014E390F0B300F0001896F0F0E0F
:1048B0000B014D15300F00018A6F0B014D390F0BA5
:1048C000300F00018B6F0F0E0B014C15300F0001E4
:1048D0008C6F0B014C390F0B300F00018D6F0F0ED9
:1048E0000B014B15300F00018E6F8F6B6CD0050ED6
:1048F000495D69E1D70E0B01471965E1050E4819BD
:1049000062E150CBDCFB0B01DD6BDE6BDF6B040E79
:10491000D890DF33DE33DD33DC33E806F9E14FCB0B
:10492000E0FB0B01E16BE26BE36B040E1F0B08E095
:104930000B01D890E037E137E237E337E806F9E1D9
:104940000B01E051DC13E151DD13E251DE13E351C1
:10495000DF134ECBE4FBE56BE66BE76B0C0E1F0B36
:1049600008E00B01D890E437E537E637E737E8068B
:10497000F9E10B01E451DC13E551DD13E651DE13DF
:10498000E751DF134DCBE8FBE96BEA6BEB6B140EE1
:104990001F0B08E00B01D890E837E937EA37EB370F
:1049A000E806F9E10B01E851DC13E951DD13EA51A6
:1049B000DE13EB51DF13DCCB11F4DDCB12F4DECBD5
:1049C00013F4DFCB14F4010E44EF4CF0F0EC4FF095
:1049D00043E8016A026A7F0E0801C85D04E0200E08
:1049E000C85D01E02DD1030EE66ECEECB2F041E9D8
:1049F000530E10EC51F006E0040E0701F31502E12E
:104A0000010E016E490E10EC51F002E0010E026E33
:104A10000701F3B776D0200E0401631531E00A01D7
:104A2000025103112DE002501AE00B01005117E072
:104A30000B01015114E12EEC67F0FBEC56F0D6ECC3
:104A400017F05FEC67F0A4EC48F0E66A010EE66E42
:104A5000D2EC18F044E94CEC67F00401639B015080
:104A60000FE00701006BD6EC17F0E66A8EEC47F01A
:104A70000BEC4AF024EC45F06CEC8CF00401639BE9
:104A8000040163AF3ED0FBEC56F004012851800BCB
:104A900007E00601CB0EC86F360EC96F010E06D0B7
:104AA0000601AF0EC86F360EC96F010EB8EC4AF0A2
:104AB000E66E070EE66E070EE66E75EC50F00250DD
:104AC0000EE00B0100510BE00B01015108E12EEC4F
:104AD00067F05FEC67F04CEC67F00401639F0150F6
:104AE00010E0E66A8EEC47F00BEC4AF0070EE66E3B
:104AF000070EE66E87EC59F042E96CEC8CF004018D
:104B0000639F040163A11DD002500CE00B01005112
:104B100009E00B01015106E1A4EC48F0CD0E33ECA5
:104B20004BF0639101500DE0A4EC48F0C0EC4BF069
:104B300023EC3FF047E9000902E06CEC8CF0040143
:104B40006391040163A321D0025010E00B010051D6
:104B50000DE00B0101510AE1A4EC48F0CF0E35EC59
:104B60004DF055EC33F045E90401639301500DE03D
:104B7000A4EC48F0C0EC4BF035EC33F047E9000909
:104B800002E06CEC8CF004016393040163AD13D07C
:104B90000B01005110E00B0101510DE1020EE66E18
:104BA00078EC1CF041E9036E020E035C02E04CEC71
:104BB00067F00401639D040163A90CD00B0100059B
:104BC00009E10B01015106E1A4EC48F0CE0E33ECF3
:104BD0004BF06399040163A51FD00B0100051CE194
:104BE0000B01015119E1020E036ED00EE66EE66A6A
:104BF00003EBE6FFBDEC32F043E9036E03EBE6FFA7
:104C000089EC1BF041E9036E020E035C02E04CEC00
:104C100067F0040163956389040163A711D00B0158
:104C200000050EE10B0101510BE1020EE66E89EC6D
:104C30001BF041E9020802E04CEC67F004016397C5
:104C400084EF48F00A01065133E10551000830E2D3
:104C50000701F451010B2CE0F451040B29E1E6515A
:104C6000000826E204012F5124EC4FF0C81D01E199
:104C7000C91D09E004012F51E9EC52F0640ECA1974
:104C800008E1CB5106E10A01E80E0B5D030E0C5959
:104C90000FE23BEC4CF0640EE66EE66A13EC0AF0B1
:104CA00046E96FEC44F004E10A01320E066F82809F
:104CB0008DDE010CF0EC4FF047E8036A0A01065163
:104CC000000801E38ED004510601C86FC96B86EC61
:104CD00045F00A0105510601D26FD36B0701E75178
:104CE0000601D46FD56BD335D351D51904E6D25113
:104CF000D45DD351D55903E3D06BD16B1ED00A01DB
:104D000005510601D86FD96B0701E751F36EF46ABC
:104D1000F3500601D85DD66FF450D959D76F030E02
:104D2000DA6FDA51D6C6D0F6D7C6D1F606E006015C
:104D3000D890D133D033E804FBE10701E651F36E9C
:104D4000F46A0601D051F35CCE6FD151F458CF6FA5
:104D5000CEC6E6FFE66E65EC9FF0E552E5CFCDF6F8
:104D6000E7CFCCF60A010551F36EF46A0601CC5187
:104D7000F35CCA6FCD51F458CB6FC935C951CB190B
:104D800004E6C851CA5DC951CB591EE30A010607A2
:104D90001EE104015651F9EC4FF00401575162EC49
:104DA00051F004012F511DEC52F013EC0AF046E9CA
:104DB000F4CFC9F60601F350F41003E00A01020E25
:104DC00005D00A01056B03D00A01320E066F0651A9
:104DD000140802E2010E04D0020E0615E8407F0B13
:104DE000036E3C0E8014E840E8403F0B016E00016A
:104DF0007351010B04E000017151100B1AE0F00E29
:104E00008214826E0A010251011801E1035101E18D
:104E100084D0200E0401631501E07FD001500A0107
:104E2000026F036B0251031101E177D00401638B20
:104E300074D0130ED75C22E264EC4AF060EC47F0C9
:104E40000601C85D0AE064EC4AF0010EC85304E0B4
:104E5000E846FE0BC807FCE18212040128AB20D013
:104E60006CEC53F00601C86F010EC85304E0E8462D
:104E7000FE0BC807FCE1E81C821612D060EC47F07C
:104E80000601C96F010EC95304E0E846FE0BC907CD
:104E9000FCE10601C86FF00E8214C8110310826E87
:104EA000015003E10401289D38D0040128BD35D00C
:104EB000288D026A01B004D001900142022AFAD77B
:104EC000010E02EBF3FF025203E013EC4AF0FDE1A6
:104ED000821260EC47F0025C0AE12851180BE842AC
:104EE000E842E842025C03E12851200B16E002EBA5
:104EF000E6FF2CEC0FF041E96FEC44F002E00F0EFE
:104F0000821260EC47F0300F046E056AD950040F2E
:104F100062EC4BF00F0E5BEC47F0000E37EF4CF0FD
:104F2000F0EC4FF042E80701F151016E026A0150C6
:104F300002101BE0F7EC55F0060EE66EE66A9EC026
:104F4000C8F69FC0C9F60601140ED880C857000ED7
:104F5000C9577CEC4DF08DECA1F065EC9FF0FE0E96
:104F6000E350015E41E9E550025AFCEC4BF061EF81
:104F700046F0C7EC4BF01D0EE66E8EEC47F04BECA6
:104F800085F042E99FEC4DF01AEC44F072ECA2F08F
:104F9000C7EC9EF0E552E5CF24FAE7CF23FA640E82
:104FA000E66EE66A320E0A0123250601CA6F000E7C
:104FB0000A012421060128EC4CF0ADEC9FF0E552EB
:104FC00052EC56F0C8C6F2F71200D9CFE6FFE1CF97
:104FD000D9FF81E94EE86EDE0701EF51016E026AEA
:104FE0000701F051036E046A050E0701EC03F3CFCD
:104FF00063F096DFF350056EF450066E4B0E0B0116
:10500000545D54E1043404E203500008000E0454DB
:1050100023E203EBCCF604EBCDF60601CE6BCF6BAF
:10502000CDAF02D0CE69CF69CCC6E6FFCDC6E6FFD4
:10503000CEC6E6FFCFC6E6FF23EC83F044E9FCC70B
:10504000C8F6FDC7C9F6FEC7CAF6FFC7CBF606010C
:10505000C851036EC951046E063404E205500008BD
:10506000000E065423E205EBCCF606EBCDF6060166
:10507000CE6BCF6BCDAF02D0CE69CF69CCC6E6FF89
:10508000CDC6E6FFCEC6E6FFCFC6E6FF23EC83F033
:1050900044E9FCC7C8F6FDC7C9F6FEC7CAF6FFC794
:1050A000CBF60601C851056EC951066E62DF640E6B
:1050B000E66EE66A03C4E6FF04C4E6FFADEC9FF0CB
:1050C000E552E5CFC9F6E7CFC8F6C8C678F00A0EB4
:1050D000E66EE66AE66AE66A11C4E6FF12C4E6FF17
:1050E00013C4E6FF14C4E6FF47ECA0F023EC83F002
:1050F00044E9FCC7B0F0FDC7B1F0FEC7B2F0FFC78E
:10510000B3F00A0EE66EE66AE66AE66A150EE96E26
:10511000040EEA6EEE500401115D0601CC6FEE50F4
:10512000040112590601CD6FEE5004011359060116
:10513000CE6FEE50040114590601CF6FCCC6E6FFC6
:10514000CDC6E6FFCEC6E6FFCFC6E6FF47ECA0F031
:1051500023EC83F044E9FCC7C8F6FDC7C9F6FEC7D7
:10516000CAF6FFC7CBF6C8C6AEF0C9C6AFF04D0E43
:105170000B01545D23E1640EE66EE66A320E040113
:105180000F250601CC6F000E040110210601CD6F22
:10519000CCC6E6FFCDC6E6FFADEC9FF0E66AE66A58
:1051A00023EC83F044E9FCC7C8F6FDC7C9F6FEC787
:1051B000CAF6FFC7CBF6C8C677F01AD0640EE66E03
:1051C000E66A320E04010F250601CA6F000E0401C3
:1051D00010210601CB6FCAC6E6FFCBC6E6FFADECD9
:1051E0009FF0E552E5CFC9F6E7CFC8F6C8C677F01D
:1051F000000160510008000E615505E20001718751
:105200000001758904D00001719700017599600E45
:1052100004012615200805E100017185000171894E
:1052200002D000017199080E0401261502E0010E5A
:1052300001D0000E0001719FE8B0718F100E0401C3
:1052400026154FE0400E040126154BE10001000138
:105250007351010B46E1000173810001816B826B88
:10526000836B846B03C40BF404C40CF411C415F4F5
:1052700012C416F413C417F414C418F40401A16B77
:10528000A26B0401A36BA46B0401A56BA66B010EBA
:10529000E66EE66A21EC5AF042E92BEC38F0C3ECFA
:1052A0002EF00401276B0701F4A11AD0076A030E40
:1052B000075C16E2010EE66EC3EC01F041E9F3CFA4
:1052C000C8F6F4CFC9F60601C851C91101E108D0EA
:1052D0000400050EE66E3DEC82F041E9072AE7D7AF
:1052E00060D0100E040126155CE10001000173512D
:1052F000010B57E0000173917DC081F07EC082F008
:105300007FC083F080C084F000018107000E00019F
:10531000825B000E0001835B000E0001845B03C40E
:1053200000FA04C401FA010EE66EE66A21EC5AF0B6
:1053300042E968C4C8F669C4C9F66AC4CAF66BC44F
:10534000CBF604017C510601C82704017D510601FA
:10535000C92304017E510601CA2304017F510601BD
:10536000CB23040190510601C82704019151060185
:10537000C923040192510601CA2304019351060175
:10538000CB23D8802A0E0601C855750EC955150EB7
:10539000CA55000ECB5503E2420E0401631304010B
:1053A000276BB7EC38F0F2EC2EF000016D6B6E6BF2
:1053B0000001626B000171A9EBD1640EE66EE66A32
:1053C00003C4E6FF04C4E6FFADEC9FF0E552E5CF71
:1053D000C9F6E7CFC8F60601C851086E0001642B74
:1053E000000E6523640EE66EE66AE66AE66ABA0EA9
:1053F000E66EDB0EE66EE66AE66A6CC4CCF66DC459
:10540000CDF66EC4CEF66FC4CFF6DD0E0601CC2706
:105410006D0E0601CD23000E0601CE23000E0601FF
:10542000CF23CCC6E6FFCDC6E6FFCEC6E6FFCFC68D
:10543000E6FF47ECA0F047ECA0F0E552E5CFCBF655
:10544000E5CFCAF6E5CFC9F6E7CFC8F6C8C66AF019
:10545000C9C66BF00401213569E3E80EE66E030E60
:10546000E66EE66AE66A400EE66EE66AE66AE66AB6
:1054700020C4D0F621C4D1F60601D06DD11F000E94
:10548000D1230601D26BD36BD1AF02D0D269D369DD
:10549000D0C6E6FFD1C6E6FFD2C6E6FFD3C6E6FF1A
:1054A00021ECA2F0E552E5CFCFF6E5CFCEF6E5CF81
:1054B000CDF6E7CFCCF6F40E0601CC27010E06019F
:1054C000CD23000E0601CE23000E0601CF23CCC64D
:1054D000E6FFCDC6E6FFCEC6E6FFCFC6E6FFE9ECA7
:1054E0009FF0E552E5CFCBF6E5CFCAF6E5CFC9F69A
:1054F000E7CFC8F6C8C66DF0C9C66EF00DCAC8F6CB
:105500000ECAC9F60601C86DC91F000EC923020ED6
:105510000601C827000E0601C9230601D890C93329
:10552000C833D890C933C833C8C662F00701EC51FC
:1055300000080AE207010701F451010B05E0080128
:10554000080ED46F070ED56F040107510008000E36
:1055500008556EE2040103510008000E045568E28C
:10556000040105510008000E065562E203C4E6FF7F
:1055700004C4E6FF46EC9EF005C4E6FF06C4E6FF61
:1055800046EC9EF007C4E6FF08C4E6FF46EC9EF03A
:105590008DECA0F072ECA2F0C7EC9EF0E552E5CFE6
:1055A0000EF4E7CF0DF404010D510008000E0E5566
:1055B00015E20DC4E6FF0EC4E6FFE66AE66A23ECD8
:1055C00083F044E9FCC7C8F6FDC7C9F6FEC7CAF6B2
:1055D000FFC7CBF6C8C67BF0C9C67CF0063404E230
:1055E00005500008000E06541FE2E66A400EE66E03
:1055F0001C0EE66E460EE66E03C4E6FF04C4E6FF2C
:1056000046EC9EF005EBE6FF06EBE6FF48EC9EF06D
:1056100072ECA2F08DECA0F0C7EC9EF0E552E5CF65
:105620007AF0E7CF79F004D07BC079F07CC07AF0D3
:10563000150E0001665D06E1040EE66EE66A21ECD9
:105640005AF042E900016651020826E203C409F457
:1056500004C40AF4150E0001665D09E003C405F4F4
:1056600004C406F40DC407F40EC408F48CDB2BEC60
:1056700038F00001010E666F020EE66EE66A21EC5C
:105680005AF042E90701F3AD06D0040EE66EE66A71
:1056900021EC5AF042E975D0040103510008000ED4
:1056A00004551AE2023404E201500008000E0254CC
:1056B00013E20850F36E023404E20150F35C000E72
:1056C00002540AE304010051F36E023404E2015073
:1056D000F35C000E025419E304010D510008000EA2
:1056E0000E5523E2043404E203500008000E045473
:1056F0001CE200010350795D04507A5916E304015D
:105700000350015D0450025910E20001020E666F61
:10571000040EE66EE66A21EC5AF042E9020EE66EED
:10572000E66A21EC5AF042E913D0020E0001665DF0
:105730000FE00401B80E035D240E045909E30001D3
:10574000020E666F020EE66EE66A21EC5AF042E93E
:105750000A0129510A011F5D0A012A510A01205933
:1057600010E229CA1FFA2ACA20FA03C421FA04C483
:1057700022FA17CA1BFA18CA1CFA19CA1DFA1ACA41
:105780001EFA08EB00F479C001F47AC002F4E8D103
:1057900004010D510008000E0E553FE20DC4E6FF56
:1057A0000EC4E6FFE66AE66A23EC83F044E9FCC730
:1057B000C8F6FDC7C9F6FEC7CAF6FFC7CBF6C8C60E
:1057C0007BF0C9C67CF0063404E205500008000EE8
:1057D00006541FE2E66A400EE66E1C0EE66E460EAA
:1057E000E66E03C4E6FF04C4E6FF46EC9EF005EB5C
:1057F000E6FF06EBE6FF48EC9EF072ECA2F08DECC3
:10580000A0F0C7EC9EF0E552E5CF7AF0E7CF79F053
:1058100004D07BC079F07CC07AF0000166510208A8
:1058200001E27CD10401100E095D270E0A5901E244
:1058300065D10001040E666F0401A00E055D0F0E18
:10584000065901E35AD121CAE6FF22CAE6FFE66AF9
:10585000E66A040105510A01215D0601CC6F0401CD
:1058600006510A0122590601CD6FCCC6E6FFCDC60E
:10587000E6FFE66AE66A1BCAE6FF1CCAE6FF1DCA27
:10588000E6FF1ECAE6FF47ECA0F021ECA2F0E552CD
:10589000E5CFCBF6E5CFCAF6E5CFC9F6E7CFC8F638
:1058A0000601C851096EC9510A6ECA510B6ECB511F
:1058B0000C6E1B0EE96E0A0EEA6EEE500A01175DC1
:1058C0000601C86FEE500A0118590601C96FEE5063
:1058D0000A0119590601CA6FEE500A011A59060148
:1058E000CB6FD950090FE96EDACFEAFF0601C85134
:1058F000EE260601C951EE220601CA51EE2206012A
:10590000CB51EE22400EE66E380EE66EE66AE66A8F
:1059100009EBCCF60AEBCDF60BEBCEF60CEBCFF6A3
:10592000200E0601CC271C0E0601CD23000E060119
:10593000CE23000E0601CF23CCC6E6FFCDC6E6FF80
:10594000CEC6E6FFCFC6E6FF47ECA0F0E552E5CFB6
:10595000CBF6E5CFCAF6E5CFC9F6E7CFC8F6060124
:10596000C851096EC9510A6ECA510B6ECB510C6EEB
:10597000300EE66E2A0EE66EE66AE66A100EE66EF7
:10598000270EE66EE66AE66A09EBE6FF0AEBE6FF3B
:105990000BEBE6FF0CEBE6FF21ECA2F047ECA0F0EE
:1059A000E552E5CFCBF6E5CFCAF6E5CFC9F6E7CFAE
:1059B000C8F60601C8510D6EC9510E6E0A01235179
:1059C0000008000E245560E20A0EE66EE66AE66AFA
:1059D000E66A090EE66EE66AE66AE66A23CAE6FF4A
:1059E00024CAE6FFE66AE66A21ECA2F0E552E5CFBA
:1059F000CFF6E5CFCEF6E5CFCDF6E7CFCCF60DEB83
:105A0000D0F60EEBD1F60601D26BD36B0601D05166
:105A10000601CC270601D1510601CD230601D25142
:105A20000601CE230601D3510601CF230601050E40
:105A3000D46FD56BD66BD76B0601D4510601CC273A
:105A40000601D5510601CD230601D6510601CE230C
:105A50000601D7510601CF23CCC6E6FFCDC6E6FF2F
:105A6000CEC6E6FFCFC6E6FFE9EC9FF0E552E5CFF4
:105A7000CBF6E5CFCAF6E5CFC9F6E7CFC8F6060103
:105A8000C8510D6EC9510E6E0DEB23FA0EEB24FAC0
:105A9000020EE66EE66A23CAE6FF24CAE6FFE66A5D
:105AA000E66AAE0EE66E360EE66E010EE66EC70EC6
:105AB000E66E090EE66E78EC88F04BE91D0EE66E98
