:020000040000FA
:06000000AEEF89F01200D2
:020006001200E6
:060008007EEF77F012000C
:02000E000206E8
:0100100002ED
:020011000100EC
:020013000000EB
:06001800A9EF10F0120038
:02001E000A00D6
:100020003B150100E7090000180000001A15010047
:10003000C80800002100000015150100000B000099
:100040000500000009150100F20A00000C00000084
:10005000D4140100C8060000350000008F14010010
:10006000000000004500000020140100000A00000C
:100070006F0000009D13010060000000830000007D
:1000800013000000FD080000020000001100000045
:08009000FE0400000200000064
:080098000001416B426B1200F4
:1000A0000001006B12007F0E0601C85D07E1180E0B
:1000B000E66EC20EE66E000EEFEF0DF00001010ECF
:1000C000016F050E89EC0FF00C0EE66EC20EE66EA7
:1000D000000EEFEC0DF00A0E89EF0FF07F0E060117
:1000E000C85D03E163EC0EF005D0070EE66EC20EAC
:1000F000E66E000EEFEF0DF099EC10F043E87F0E86
:100100000601C85D05E162EC0DF0FFEC0EF05ED07B
:10011000000130054AE1450E0701055D46E0410E4C
:10012000055D43E0610E055D40E0670E055D3DE065
:10013000500E055D3AE00551036E060EE66E070EA1
:10014000E66EDBEC0EF058EC7DF044E9B7EC0FF016
:10015000016A026AD890025004E6000E015C040EA7
:10016000025808E295EC0FF000EC10F0012A000EA6
:100170000222F0D7DBEC0EF011EC10F0DBEC0EF00D
:1001800000EC10F0FF0EE66EC10EE66E000E86EC7F
:100190000FF003EB07F7080EE66E070E4DEC10F0BC
:1001A000DBEC0EF040EC7AF046E962EC0DF011EC7D
:1001B00010F062EC0DF04DEC0EF0B2EC0EF0C9EC6C
:1001C0000DF062EC0DF0A9EC7AF044E963EC0EF06E
:1001D000EFEC0DF02CEF0FF099EC10F045E8E66A2B
:1001E000010EE66ED650E66EE66A30EC0FF0056E54
:1001F000E750046ED7500426000E0522016A080E4F
:10020000015C0CE20150EA6A750FE96E0A0EEA22FF
:10021000EF500426000E0522012AF1D7A3EC0FF0BF
:10022000D9EC76F042E9016A160E015C11E284EC29
:100230000DF0CCBFCD6917EC0EF00150EA6A020F49
:10024000E96E000EEA22E552E750EF6E012AECD784
:100250000001186B090EF9EC0FF003EC10F058ECEC
:100260000FF07FEC0DF058EC0FF0160EE66EE66A1C
:10027000E0EC0EF0A7EC86F04AE9F70EE66EC10E50
:10028000E66E000EEFEC0DF0E0EC0EF0FFEC0EF081
:1002900017EC10F00AEC0EF0A9EC7AF044E917EC38
:1002A00010F0080EF9EC0FF058EC0FF0FFEC0EF028
:1002B00063EC0EF0EFEC0DF046E9E7CFD9FF12004A
:1002C00067EC0DF084E942E831EC10F006EC32F016
:1002D00044E96BEC10F00250020A10E0030A03E05C
:1002E000010A19E108D069EC0EF00450EE1802E1A1
:1002F0000550ED1810E0E8EC0FF00DD069EC0EF0B1
:100300000450EE1802E10550ED1805E0CCDEE8ECF3
:100310000FF0010E026E0250A8EF0FF02EEC10F05D
:1003200044E8020EF9EC0FF0E5EC0EF0EE0EE66E8E
:10033000C10EE66E000E62EC0FF0D9EC0FF058EC37
:100340000FF048EC0FF0B6EC0EF06BEC10F060C064
:10035000E6FF61C0E6FF4EEC0DF0000162518EEC4D
:100360000FF0000166510F0A20E0020A18E0090AA6
:1003700010E0060A08E0030A1EE1E20EE66EC10E76
:10038000E66E000E1DD0DA0EE66EC10EE66E000EB1
:1003900017D0D40EE66EC10EE66E000E11D0CB0E55
:1003A000E66EC10EE66E000E0BD0C20EE66EC10EFA
:1003B000E66E000E05D0B90EE66EC10EE66E000EBA
:1003C00056EC0EF06BEC10F000016851040A18E0D6
:1003D000070A10E0020A08E0010A18E1AF0EE66E13
:1003E000C10EE66E000E14D0A60EE66EC10EE66ECD
:1003F000000E0ED09F0EE66EC10EE66E000E08D007
:10040000920EE66EC10EE66E000E02D048EC0FF0C2
:1004100056EC0EF06BEC10F002EBE9FF03EBEAFF99
:10042000EF504D0807E173C0E6FF74C0E6FF35ECFE
:1004300010F00AD073C0E6FF74C0E6FF72EC10F053
:1004400035EC10F072EC10F04EEC0DF00001635141
:100450008EEC0FF064C0E6FF65C0E6FF4EEC0DF0D9
:10046000000169518EEC0FF000016A518EEC0FF023
:10047000000167518EEC0FF0000166518EEC0FF019
:10048000000168518EEC0FF0B7C0C8F70701C96BC7
:10049000C8BFC96982EC10F0B8C0E6FFB9C0E6FF7A
:1004A0004EEC0DF0BFC0C8F70701C96BC8BFC969E2
:1004B00082EC10F09EEC0EF09FEC10F0A3EC0FF02D
:1004C00050EC10F06BEC10F0D1C0E6FFD2C0E6FFAC
:1004D0004EEC0DF035EC0FF04EEC0DF0D5C0E6FF14
:1004E000D6C0E6FF4EEC0DF00001D7518EEC0FF0B8
:1004F000D8C0C8F70701C96BC8BFC96982EC10F042
:10050000DBC0E6FFDCC0E6FF4EEC0DF0DDC0E6FF31
:10051000DEC0E6FF4EEC0DF0E0C0E6FFE1C0E6FF16
:100520004EEC0DF0310EE66E000ED1EC0DF03AEF10
:100530000FF02EEC10F042E8BAEC0EF08B0EE66EE7
:10054000C10EE66E000E5CEC10F0EAEC0EF0F0EC82
:100550000FF09FEC10F058EC0FF0EAEC0EF0B3C087
:10056000E6FFB4C0E6FF53EC0DF0B5C0E6FFB6C041
:10057000E6FF53EC0DF00001BA517DEC0FF0BDC069
:10058000C8F70701C96BC8BFC96985EC10F0330E05
:10059000E66E000ED1EC0DF0A8EF0FF02EEC10F08F
:1005A00047E8840EE66EC10EE66E000EA6EC10F073
:1005B00028EC0EF0026A040E025C55E23AEC0EF0F2
:1005C000C93543E2C8510008000EC9553EE2560E37
:1005D000E66E0E0EE66E8D0EE66E3E0EE66E025076
:1005E000EA6AA10FE96E000EEA22EFCFE6FF13ECF4
:1005F00067F077EC69F0F4EC67F0A8EC0EF0070117
:10060000C851056EC951066ECA51076ECB51086EAE
:100610007FEC0EF007EC0FF008EBE6FFDDEC0FF0DF
:10062000BEEC0DF050EC10F028EC0EF03AEC0EF0B1
:10063000280EC85F000EC95B6BEC0FF09FEC10F04A
:100640001EEC10F048EC0FF005D07F0EE66EC10EE8
:10065000E66E000EE66EBEEC0DF09FEC0FF028EC9F
:100660000EF0022AA8D7BEC0C8F70701C96BC8BFE1
:10067000C9696BEC0FF0DDEC0FF01EEC10F0350EDD
:10068000E66E000ED1EC0DF048E9E7CFD9FF12007D
:100690002EEC10F043E8010E046E020E046E89EC9D
:1006A0000EF0780EE66EC10EE66E000E62EC0FF0F4
:1006B000026EF450036E0F0EF66E000EF76E000E13
:1006C000CEEC0DF0100EF66E000EF76E000ECEECB6
:1006D0000DF02DEC0EF058EC0FF054EC10F05FEC38
:1006E00010F0045022EC10F058EC10F05FEC10F019
:1006F000810EE66E000EA7EC0DF00001C3517DECFB
:100700000FF00501F8517DEC0FF0CC0EE66E050EF2
:10071000A7EC0DF0C60EE66E000EA7EC0DF0370E3E
:10072000E66E000ED1EC0DF02CEF0FF02EEC10F079
:1007300046E800017B517C117D117E1105E1046AC0
:10074000056A066A076A20D07B0EE96E000EEA6E23
:10075000EE500001775D0701C86FEE500001785937
:100760000701C96FEE50000179590701CA6FEE50B9
:1007700000017A590701CB6FC851046EC951056E4B
:10078000CA51066ECB51076E00016B51E66EE66AE8
:100790006A0EE66EC10EE66E000E62EC0FF0026E9F
:1007A000F450036E00016C517DEC0FF000017051AC
:1007B0007DEC0FF093C0E6FF94C0E6FF53EC0DF024
:1007C00095C0E6FF96C0E6FF53EC0DF097C0E6FF3C
:1007D00098C0E6FF53EC0DF0A5C0E6FFA6C0E6FF0B
:1007E00053EC0DF0A7C0E6FFA8C0E6FFA9C0E6FFE6
:1007F000AAC0E6FFF9EC0DF0000171517DEC0FF09D
:1008000004EBE6FF07EC0FF0F9EC0DF07FC0E6FF1C
:1008100080C0E6FF53EC0DF000016D517DEC0FF050
:10082000BCC0C8F70701C96BC8BFC96985EC10F027
:10083000BBC0C8F70701C96BC8BFC96985EC10F018
:1008400040EC10F0D8EC0DF000016E517DEC0FF093
:100850007FEC0EF0C5C0E6FFD8EC0DF000016F5143
:100860007DEC0FF0390EE66E000ED1EC0DF047E98D
:10087000E7CFD9FF12002EEC10F042E8630EE66ECF
:10088000C10EE66E000EA6EC10F05FEC10F00A014F
:1008900082518311841115E082CAF6FF83CAF7FFE3
:1008A00084CAF8FF0800F5500CE082CAE6FF83CA4C
:1008B000E6FF84CAE6FFBCEC0DF09FEC10F0BCEC48
:1008C0000DF0530EE66EC10EE66E000EE66EBCEC49
:1008D0000DF03F0EE66E000ED1EC0DF0A8EF0FF01C
:1008E00067EC0DF085E942E85DEC0FF04C0EE66E2A
:1008F000C10EE66E000E5CEC10F0EEEC0EF0E5ECD6
:100900000EF05BEC0DF000017151CCEC0FF0B3C0B8
:10091000E6FFB4C0E6FF5BEC0DF0B5C0E6FFB6C085
:10092000E6FF5BEC0DF00001BA51CCEC0FF0BDC05E
:10093000C8F70701C96BC8BFC9696BEC0FF05BEC66
:100940000DF0BAEC0EF0FFEC0DF0F0EC0FF0FFEC58
:100950000DF0020404E13B0EE66E000E03D03D0EE6
:10096000E66E000EE66E03EBE6FFAADC43E9A8EFB5
:100970000FF067EC0DF083E949E8010E0B6E020EF3
:100980000B6E0050011001E138D180EB03F081EBD8
:1009900004F078EC0DF007E078EC0DF0200803E0AF
:1009A0000DEC10F0F6D778EC0DF0200801E025D121
:1009B000C3EC0DF05DEC0FF0E0EC0EF022EC7DF0FE
:1009C00044E9000901E119D1090E88EC10F003ECAB
:1009D00010F064EC10F05DEC0FF07FEC0DF05DECCE
:1009E0000FF0A7EC86F04AE962EC0DF00AEC0EF08D
:1009F00040EC7AF046E962EC0DF0BEEC0DF022EC32
:100A00007DF044E9000901E0F8D05DEC0FF062EC04
:100A10000DF058EC7DF044E9E0EC0EF0ACEC0FF09A
:100A200003EC10F064EC10F031EC10F0A7EC86F061
:100A30004AE90AEC0EF05AEC0EF00FEC85F048E9AA
:100A4000096A0A6AD8900A5004E6000E095C040E8E
:100A50000A580AE295EC0FF05AEC0EF0B2EC0EF0E8
:100A6000092A000E0A22EED70AEC0EF04DEC0EF029
:100A70000FEC85F048E9096A0A6AD8900A5004E642
:100A8000000E095C040E0A580AE295EC0FF04DECDA
:100A90000EF0B2EC0EF0092A000E0A22EED7000189
:100AA000010E006F0A0E88EC10F005EBE9FF06EB73
:100AB000EAFFEF50500845E1000130511FE1096A9B
:100AC0000A6A160ED8900ABE03D0095C000E0A58B6
:100AD00013E284EC0DF0CCBFCD6917EC0EF0190ECB
:100AE0000924E96E000E0A20EA6EE552E750EF6E27
:100AF000092A000E0A22E5D700012F6B306B440E45
:100B0000E66EC10EE66E000E86EC0FF03EEC0FF0C6
:100B1000ACEC0FF053EC00F0D0EC0FF00001010E44
:100B2000306F88EC10F027EC0FF064EC10F03EEC26
:100B30000FF07FEC0DF03EEC0FF0A7EC86F04AE9E9
:100B400002D00001306B0501FAAF55D0FA9F89EC55
:100B50000EF0220EE66EC10EE66E000E62EC0FF095
:100B6000076EF450086E0F0EF66E000EF76E000E54
:100B700072EC0FF07BEC0DF0100EF66E000EF76EBF
:100B8000000E72EC0FF07BEC0DF02DEC0EF09AECF9
:100B90000FF0F0EC0EF00A017F51801181110CE092
:100BA0007FCAE6FF80CAE6FF81CAE6FF9AEC0FF033
:100BB0009FEC0FF08BEC10F00B5022EC10F07BEC64
:100BC0000DF00501F95178EC10F00501FA51E66ECF
:100BD000E66A9FEC10F09AEC0FF02BEC33F047E94B
:100BE0008BEC10F00501FB5178EC10F0140EB9EC11
:100BF0000DF0D0EC0FF065EC72F04AE9E7CFD9FFC9
:100C0000120067EC0DF083E943E8000100511EE19A
:100C1000070EE66EE66A1A0EE66EC10EE66E000E6E
:100C2000E66E5DEC0FF06AEC7CF047E9000901E04C
:100C3000F1D0070E070100240FEC0EF09ADE42E916
:100C40000601060ED06F0E0ED16FE4D00501FABF7B
:100C500003D00501400EFB6F030EE66EE66A040E3C
:100C6000E66EE66A5DEC0FF07FEC0DF007EC6AF0E3
:100C700097EC68F00BEC0FF0C50EC85D000EC9597B
:100C80002AE263EC0EF0C3EC0EF062EC0DF05DECCA
:100C90000FF040EC7BF044E928EC0EF00501FABFC0
:100CA00003D00501410EFB6FBEEC0DF062EC0DF0C0
:100CB0005AEC0EF0B2EC0EF0050EE66EE66A140E7B
:100CC000E66EC10EE66E000E5CEC10F06AEC7CF095
:100CD00047E9000905E0400EE66E87EC13F090D07E
:100CE000050E006E070E016E69EC0EF0EF50450820
:100CF0003AE112EC0FF04D0836E1020E0026000E2C
:100D0000012263EC0EF0C3EC0EF0010EE66E060E4F
:100D1000E66E44EC10F040EC7BF044E928EC0EF079
:100D2000B7EC0FF0036A046AD890045004E6000E92
:100D3000035C040E045807E295EC0FF000EC10F091
:100D40000DEC10F0F1D7BEEC0DF0010EE66E060EC4
:100D5000E66E00EC10F069EC0EF0EFCF00F6000E3E
:100D6000006E060E016E0501FABF03D00501420EAA
:100D7000FB6F69EC0EF0EF50430A44E02B0A37E0BA
:100D8000320A11E01B0A46E10D0EE66EC10EE66E58
:100D9000000E86EC0FF0000101513CE153EC00F035
:100DA0007CEC00F01ED012EC0FF030081DE00001CA
:100DB000010EC26F000101512DE153EC00F0E66A13
:100DC0008EEC01F041E9E66A99EC02F041E9E66A4D
:100DD000CEEC02F041E9E66A5BDC41E9E66AA6DCBA
:100DE00041E96EEC00F016D00001C26B13D044EC68
:100DF00010F04AEC74F042E9F3CFE6FF8CEC72F0AD
:100E000041E908D044EC10F007D842E90001015153
:100E100001E1A9D92CEF0FF067EC0DF083E944E86C
:100E200080EB03F081EB04F078EC0DF006E0E5ECEC
:100E30000FF003E00DEC10F0F7D7E5EC0FF002E156
:100E4000C3EC0DF0F2EC0EF0F3CF41F0F4CF42F032
:100E500003EB43F004EB44F03AEF0FF099EC10F0A1
:100E600046E8020E89EC0FF00501FABF03D0050138
:100E7000430EFB6F310E0001411901E1425101E1C6
:100E800056D1290E411901E1425101E13FD1280E0D
:100E9000411901E1425101E112D1060E411901E16E
:100EA000425101E107D1050E411901E1425101E131
:100EB000F8D0040E411901E1425101E1B3D0030E13
:100EC000411901E1425101E179D0020E411901E1DC
:100ED00042512BE0010E411901E1425102E0000EA6
:100EE0003ED1016A026A100ED89002BE03D0015CA6
:100EF000000E025801E332D1C9EC0DF0020EE66E8D
:100F0000C10EE66E000E62EC0FF0E1EC0FF0100E79
:100F1000CCEC0FF019EC0FF0EF50CCEC0FF07CECB8
:100F200000F0012A000E0222DED743EC0FF078EC2D
:100F30000DF006E0E5EC0FF003E00DEC10F0F7D754
:100F4000E5EC0FF001E0A5D0C0EC0FF001E39BD081
:100F5000100ED89002BE03D0015C000E025801E3CF
:100F600092D0BEEC0DF04AEC74F042E9F350E66E1C
:100F700019EC0FF0E552E750EF6E080ED89002BE64
:100F800003D0015C000E02580FE3BEEC0DF0070128
:100F9000080E015CC86F000E0258C96F180EC825F4
:100FA000E66EDAEC82F043E90F0E011804E102501C
:100FB00002E131EC78F083EC0EF070D0016A026A45
:100FC000200ED89002BE03D0015C000E025801E34F
:100FD000C5D001EBE6FF26EC82F041E928EC0EF0EB
:100FE000090E011805E1025003E148EC10F0EF6A28
:100FF000C9EC0DF0F70EE66EC00EE66E000E62EC68
:101000000FF0E1EC0FF0200ECCEC0FF0BEEC0DF089
:1010100068EC10F0EEEC0EF07CEC00F0012A000E13
:101020000222CED743EC0FF078EC0DF006E0E5ECB1
:101030000FF003E00DEC10F0F7D7E5EC0FF029E12D
:10104000C0EC0FF020E2180ED89002BE03D0015C75
:10105000000E025818E2BEEC0DF001EBE6FFDAECF0
:1010600082F043E983EC0EF04EEC0FF0020E011813
:1010700001E1025005E00E0E01181EE102501CE1D4
:1010800031EC78F019D04C0EE66E110EE66E010EC2
:1010900005D0200EE66E110EE66E010E4EEC0FF03E
:1010A0000BD083EC0EF090EC10F0040EE66E87ECA3
:1010B00013F053D0DCEC0CF07CEC00F04FD043ECA0
:1010C0000FF078EC0DF006E0E5EC0FF003E00DEC2E
:1010D00010F0F7D7E5EC0FF011E1C3EC0DF075EC73
:1010E0000EF0CAEC53F042E9BEEC0DF0FFEC0EF04E
:1010F000070EE66EC20EE66E000E22D053EC00F034
:10110000200EE66E110EE66E010E21D0EB0EE66E9D
:10111000C00EE66E000EEFEC0DF075EC0EF0FFEC7D
:101120000EF0E50EE66EC00EE66E000E09D075EC10
:101130000EF0FFEC0EF0E30EE66EC00EE66E000E53
:10114000EFEC0DF0050EB9EC0DF083EC0EF090EC29
:1011500010F0020EE66E00EC2EF041E9010E47E9B8
:10116000E7CFD9FF12000501FABF03D00501440EF5
:10117000FB6F020E89EC0FF0280E0001D89042BFE1
:1011800003D0415D000E425907E3423507E2415169
:101190003108000E425502E253EC00F00A01A6515C
:1011A000A711A8110FE075EC0EF07AEC0EF0010E0D
:1011B000E66EA8CAFBFFA7CAFAFFA651140045E9CC
:1011C00000090AE14BDE000907E1BB0EE66E110ED5
:1011D000E66E010E90EC10F06EEC00F00001416B39
:1011E000426B43C0E9FF44C0EAFFEF6A120067ECBC
:1011F0000DF085E90001005132E0015100082FE3B4
:101200000501FABF03D00501450EFB6F020EB9ECD4
:101210000DF0DB0EE66EC00EE66E000E86EC0FF0F3
:10122000D00EE66EC00EE66E000E3BEC10F058ECF1
:101230000FF0ACEC0FF0C70EE66EC00EE66E000EBF
:101240003BEC10F0AA0E0024E96E000E0120EA6EBD
:10125000EF6A5DEC0FF0ACEC0FF0D0EC0FF041E971
:10126000E7CFD9FF120067EC0DF084E944E8066A85
:10127000076A0001005101E17AD00150021001E13A
:1012800076D0005074E00050E66EE66A220E4DEC17
:1012900010F04CEC7CF045E9F350066EF450076E0C
:1012A000065007102FE0062A000E0722070120EC47
:1012B0000FF0C851005E86EB01F087EB02F094EC72
:1012C0000EF0EF501CE094EC0EF0EF50220817E007
:1012D00020EC0FF00050D890C9BF03D0C85D000EBD
:1012E000C9590DE294EC0EF0EF502C0804E194EC97
:1012F0000EF02E0EEF6E062A000E0722E0D794ECB9
:101300000EF0EF6A290EE66EE66A1B0EE66EC20E5E
:10131000E66E000E62EC0FF0D9EC0FF006500710ED
:101320000AE0C9EC0DF0C30EE66EC00EE66E000ECC
:10133000B6EC0EF007D0AC0EE66EC00EE66E000EF8
:1013400056EC0EF06BEC10F000010151000805E2C4
:10135000140E89EC0FF0046A056A53EC00F0D0EC2F
:101360000FF00450051003E1140E89EC0FF03AEF72
:101370000FF0ADDB83E94EE800017551036E765145
:10138000046E00017351056E7451066E0001A75181
:10139000076EA851086EA951096EAA510A6EA80ECF
:1013A0000B6EC00E0C6E000E0D6E4B0E0A017E5DB4
:1013B00023E1E4DBC8EC0FF00701C851036EC9510B
:1013C000046E66EC0FF0C8EC0FF00701C851056E13
:1013D000C951066EC9EC0EF07FDB0701C851076EDC
:1013E000C951086ECA51096ECB510A6EA40E0B6E1C
:1013F000C00E0C6E000E0D6E000177517811791140
:101400007A1143E0170EE5DB0E6EF4500F6E3C0EC2
:10141000E66EDDEC0FF00EEBE6FF0FEBE6FF57ECB0
:101420002EF042E9F3CFCCF7F4CFCDF70701CE6B26
:10143000CF6BCDAF02D0CE69CF69CCC7E6FFCDC7A9
:10144000E6FFCEC7E6FFCFC7E6FF9BEC6AF0A8EC4D
:101450000EF0770EE96E000EEA6EEE500701C82717
:10146000EE50C923EE50CA23EE50CB23CFEC0EF042
:10147000DDEC0FF05DEC0FF004EC35F049E9D4EC55
:101480000FF0B1EC0FF0E66E19DB0001D83533E256
:1014900097C0E6FF98C0E6FF960EE66EC00EE66EB9
:1014A000000E04DBDBC0E6FFDCC0E6FF930EE66E59
:1014B000C00EE66E000EFADAD8C0C8F70701C96B95
:1014C000C8BFC9696BEC0FF08F0EE66EC00EE66EFA
:1014D000000EECDADDC0E6FFDEC0E6FF860EE66E4B
:1014E000C00EE66E000EE2DA790EE66EC00EE66E13
:1014F000000EE66EE3DA00016BA5BED0010E106EA1
:1015000000016851040A18E0070A10E0020A08E026
:10151000010A19E16D0EE66EC00EE66E000E11D0E6
:10152000620EE66EC00EE66E000E0BD0590EE66E31
:10153000C00EE66E000E05D04A0EE66EC00EE66ED8
:10154000000EE66EBBDA000166510F0A20E0020AC7
:1015500018E0090A10E0060A08E0030A20E1410E3B
:10156000E66EC00EE66E000E17D02B0EE66EC00EB5
:10157000E66E000E11D01D0EE66EC00EE66E000E79
:1015800013D0130EE66EC00EE66E000E05D0010EEF
:10159000E66EC00EE66E000E9CEC10F008D0F00E69
:1015A000E66EBF0EE66E000E9CEC10F0106A0001B5
:1015B0006B95105068E060C0E6FF61C0E6FFB1ECDB
:1015C0000FF074DA00016251E66EE66AED0EE66E27
:1015D000BF0EE66E000E6ADAEB0EE66EBF0EE66E2A
:1015E000000E9CEC10F00001D2350BE2D1C0E6FFFA
:1015F000D2C0E6FFE20EE66EBF0EE66E000E2AECEB
:1016000010F00001D75100080FE2D751E66EE66AEC
:10161000B1EC0FF04BDA35EC0FF0D80EE66EBF0EE2
:10162000E66E000E2AEC10F00001D5510008000E05
:10163000D65529E24B0E0A017E5D07E1D5C0E6FFD3
:10164000D6C0E6FFC8EC0FF007D0D5C0C8F7D6C0AB
:10165000C9F70701CA6BCB6B6BEC0FF0B1EC0FF065
:1016600092EC0FF035EC0FF0D50EE66EBF0EE66E85
:10167000000E1CDA9ADB05D0C80EE66EBF0EE66ED1
:10168000000EE66E1BDAA1DBC00EE66EBF0EE66E44
:10169000000E0CDABE0EE66EBF0EE66E000E9CEC7F
:1016A00010F00550061009E066EC0FF0AE0EE66E85
:1016B000BF0EE66E000E92EC0FF00350041008E02F
:1016C0005DDA9F0EE66EBF0EE66E000E92EC0FF036
:1016D0000750081009100A100AE011DB5ADB970EB8
:1016E000E66EBF0EE66E000EF9DA7DEC10F000013A
:1016F000CF51D01107E022DB8F0EE66EBF0EE66EF3
:10170000000EECDA00EBF3FF01EBF4FF4FE9E7CF5B
:10171000D9FF1200DCD985E95BE800017351056E41
:101720007451066E076A086A096A0A6A0001CF5195
:101730000B6ED0510C6E000160510D6E61510E6E3A
:10174000000163510F6E106A00017F51116E8051CC
:10175000126E00016851136E146A156A166A0A0146
:10176000AF51B011B11109E17D0EE66EBF0EE66E0C
:10177000000EE66E93EC10F01BD10050011001E159
:101780007DD09BDB92EC7DF042E9F3501B6EF45070
:101790001C6E93DB80EC7EF042E91C3469E21B5046
:1017A0000008000E1C5464E2070107DAEF501F6EB8
:1017B00004DAEF6A1C344AE21B500108000E1C5484
:1017C00045E210DBF3501D6EF4501E6E1F50440AAC
:1017D00038E0070A2AE0020A23E0170A1CE0010A9F
:1017E00015E0720A0EE0600A07E0160A3DE19DEB83
:1017F00005F09EEB06F038D09DEB07F09EEB08F06D
:1018000033D09DEB09F09EEB0AF02ED09DEB15F046
:101810009EEB16F029D09DEB0DF09EEB0EF024D040
:101820009DEB0FF09EEB10F01FD0640EE66EE66AA3
:101830001DEBE6FF1EEBE6FF13DB0C6EE7500B6EB5
:1018400013D09DEB11F09EEB12F00ED01F50500AFA
:1018500008E0020A04E0010A07E1136A04D0030E5B
:1018600001D0040E136E146A0701A7D91FEBEFFF16
:1018700024DB38EC55F042E997DB7FD70E3418E2D1
:101880000D500008000E0E5413E2103411E20F50F8
:101890000008000E10540CE20FEBE6FF10EBE6FF21
:1018A0000DEBE6FF0EEBE6FFDBDA166EE750156E8A
:1018B000D890165004E6E80E155C030E165806E2A2
:1018C000640EE66EBF0EE66E000E60D0D950170FA4
:1018D000E66EDACFE6FF11EBE6FF2BDA09EBE6FF67
:1018E0000AEBE6FF27DBF2DA15EBE6FF16EBE6FF85
:1018F00013EBE6FFB1CAFBFFB0CAFAFF0A01AF5112
:1019000014004EE9F350196EF4501A6EDFDAC1D9A3
:1019100017EBE6FF18EBE6FF5F0EE66EBF0EE66E16
:10192000000EC6DBCCDB540EE66EBF0EE66E000E7C
:10193000E66E22D91A341FE25ADA4FEC68F0A9D9C0
:10194000300EE66E020EE66EE66A51DA52EC68F090
:1019500062DACA6BCB6BC9AF02D0CA69CB691FDA36
:10196000520EE66EBF0EE66E000EE66EA1DA7FEC5A
:1019700033F04CE918D0FD0E19180BE1FF0E1A18C0
:1019800008E1430EE66EBF0EE66E000EE66ECBDBA0
:101990000AD019EBE6FF1AEBE6FF3B0EE66EBF0E30
:1019A000E66E000E85DB8BDB02EBF3FF03EBF4FF4F
:1019B0005CE9E7CFD9FF1200BCDB42E8020EA9DAEE
:1019C000DB0EE66EC00EE66E000EC0DB0DD9E1D870
:1019D000D0DC42E9BDD295DA190EE66EBF0EE66E96
:1019E000000E94DAD4D08DDAEE0EE66EBE0EE66E00
:1019F000000E8CDACCD085DAE8D9BE0EE66EBE0ECB
:101A0000E66E000E59DB9EDBEFD8B70EE66EBE0E1B
:101A1000E66E000E63D375DA0A017DA308D030DBD1
:101A2000CCDA900EE66EBE0EE66E000E07D028DB16
:101A3000C4DA780EE66EBE0EE66E000E3DDB30DBDD
:101A4000D3D85DD9C5C0E6FFB8DA700EE66EBE0E1B
:101A5000E66E000E22DB24DBC7D86D0EE66EBE0EEE
:101A6000E66E000E3BD333D887E942E8020E81D8F8
:101A7000CC0EE66E050EE66E650EE66EBE0EE66EEA
:101A8000000E1ADBADD95FDAE66AE66ABDD800EB74
:101A9000E6FF7FD803EBE6FFB7D879D050DB53DA07
:101AA00051DB6BEF10F0F4D903DB1AD2E66E05DAE6
:101AB00049DBD4EF0FF00CDB45DB38D3FED93FDA3E
:101AC000D4EF0FF0000EE66E070EE66E1200D9CFCF
:101AD000E6FFE1CFD9FF1200BFEC2EF044E9FCC5D0
:101AE000C8F7FDC5C9F7FEC5CAF7FFC5CBF7120099
:101AF000CFDAEF501200E66E1DDA24DB7FD292ECD3
:101B00007DF042E908EF10F007015C0EC86F120E7D
:101B1000C96F010ECA6F400EE66EE66ADCD9CAC70D
:101B2000E6FFE0EC76F0E552E7CFCAF7E552E7CF03
:101B3000C9F7E552E7CFC8F76BDA52EC68F0E55227
:101B4000E5CFCCF7E7CFCBF70701CD6B1200E66E00
:101B5000F6DAAED9A9DAC4D1F5DA5ADA9FEF0FF086
:101B6000000EE66E030EE66EFC0EE66E040EE66EEA
:101B70001200CFD953EF00F0D6DAB2D103EBE6FF73
:101B800004EBE6FF120084DA48DAEF6A120008DAA2
:101B9000DFD101EBE6FF02EBE6FF1200A3D988DA02
:101BA0009FD1E66E00EBE6FF60EC01F043E9120026
:101BB00004DAC5DA7DD974DA93D11B04C86F000E3C
:101BC0001C58C96FC8510024E96EC9510120EA6E42
:101BD0001200E66E26EC82F041E9F3501200E66E48
:101BE0000FEC12F043E91200F350016EF450026E54
:101BF0001200A5DA5DD9CEEC32F049E971D168DA8C
:101C0000B4EC34F049E992D29ADA94D9CEEC32F0BD
:101C100049E9F4D1100EE66EE66A03EF10F0C86FE2
:101C2000000E0120C96FC8C7E6FFE66E1200C8515A
:101C3000CB25F36EC951CC21F46ECA51CD21F86E7B
:101C4000F4CFF7FFF3CFF6FF0800F550E66E120071
:101C5000F350036EF450046E12000E0EE66E26EC86
:101C600082F041E9D5D9740EE66EC10EE66E000E23
:101C7000E66E1200EA6A0234FE0BE96EEA36990E4D
:101C8000E926000EEA22EECFC8F7EFCFC9F7070129
:101C9000120093D90DD956DA23D1000EE66E010E4B
:101CA000E66EF80EE66E040EE66E1200E66E4BD996
:101CB0009FEF0FF0000EE66E020EE66EFA0EE66E75
:101CC000040EE66E1200090EE66EC20EE66E000EFF
:101CD000120000EBE9FF01EBEAFF1200E66EEDD81F
:101CE00011EC34F04BE9D4EF0FF043C0E6FF44C0F1
:101CF000E6FF120041C0E6FF42C0E6FF1200010EFF
:101D0000E66EE66A12001D0EE66E110EE66E010E1C
:101D100012000E0EF66E000EF76E000EF86E080042
:101D2000F550E66EE66A120006EBE9FF07EBEAFF04
:101D300012000BEBE6FF0CEBE6FF1200020EE66E64
:101D4000E66ACFC0E6FFD0C0E6FFE66AE66A1200A8
:101D5000E552E5CFCBF7E5CFCAF7E5CFC9F7E7CF37
:101D6000C8F712007CEC85F048E91200E66EEBD86B
:101D700054EF10F0ABC0E6FFACC0E6FFADC0E6FF2D
:101D8000AEC0E6FF1200E66E98D8F2EC7CF045E9B2
:101D90001200D0D809EBE6FF0AEBE6FF12009BD851
:101DA000CAC7E6FFCBC7E6FF1200DC0EE66EBF0E29
:101DB000E66E000E1200000EE66E060EE66E1200D3
:101DC000020EE66E000EE66E120000017251E66E23
:101DD000E66A1200B4EC34F049E982D065D9A6D1A4
:101DE00063D90CD16AD84AEC74F042E912003C0E77
:101DF000E66EE66A19EBE6FF1AEBE6FF12006AEC04
:101E000012F042E9120079EC7DF045E912005ED84B
:101E100007EBE6FF1200E552E5CFC9F7E7CFC8F7B9
:101E2000070112000028E96E000E0120EA6EEF5053
:101E30001200E90E0124E96E050E0220EA6E12007E
:101E40000150065CC86F02500758C96F1200E80EB7
:101E5000E66E040EE66E120044E9E7CFD9FF1200E9
:101E600007EC6AF0E552E5501200D3C0E6FFD4C09B
:101E7000E6FF120045E9E7CFD9FF1200190EE66E22
:101E8000000EE66E12004351036E4451046E1200C0
:101E9000EC0EE66EC10EE66E000E1200E66E2ADF54
:101EA000160EE66E110EE66E010E06D9ACEF0DF0C1
:101EB00002EBE6FF03EBE6FF120000EBE6FF01EBAF
:101EC000E6FF1200F9D83ED9F350120005EBE6FF09
:101ED00006EBE6FF1200C8C7E6FFC9C7E6FF12001F
:101EE0005FEF10F0F86E0800F550E66EE66A760EC9
:101EF000E66EC10EE66E000E1200E66EE66A53EF65
:101F00000DF017D942E8020EB9EF0DF0D5D803EF66
:101F10000FF0E66E00EC2EF041E91200E66EE66A84
:101F20004EEF0DF0C3DD7DEF10F00701006BE7DE33
:101F300062EF0DF007EBE6FF08EBE6FF120058EC4E
:101F400032F045E9120004EBE6FF05EBE6FF120074
:101F500043E9E7CFD9FF1200B5DDCEEC7CF044E9D0
:101F60001200A10EE66EC00EE66E000E1200100EFC
:101F7000E66EE66A6CDFF4DD0FEC85F048E91200EE
:101F800002DEB3DE4AEC74F042E92EDE02341200C7
:101F9000E66AE66A6CEF0DF0E66EE66A5BEF0DF05E
:101FA0007CEC00F06EEF00F0F350006EF450016E28
:101FB0001200046EF450056E1200E66AE66AE66AE4
:101FC0001200056EF450066E120092DD2C0812000D
:101FD0007CEC00F07EDE04EBEEFF05EBEDFF120083
:101FE000AFC0E6FFB0C0E6FFB1C0E6FFB2C0E6FF9B
:101FF0001200EFDD026EF450036E12008BEF10F052
:10200000AFDDB2EF0EF0D80EE66E040EE66E1200F3
:10201000F3CFE6FFF4CFE6FF1200032A000E0422FE
:10202000120092EC7DF042E9DFDDC9EF0DF0F50E14
:10203000E66EC10EE66E000EEFEF0DF09FDD82D86A
:1020400028EF0EF0E66EE66A710EE66EC10EE66EE1
:10205000000E12002BDDA9DE9CEF10F038DD82E9C6
:10206000120030DD4CDD62EF0DF018DD75C0E6FFCB
:1020700076C0E6FF120020D8F2EC7CF045E91200B1
:102080003EDEC4C0E6FF1200070100280FEF0EF08D
:1020900003EBE9FF04EBEAFF1200E66EC9EF0DF077
:1020A000C1EC33F04BE9120092EC32F047E9120038
:1020B000E66EFEDEA2EF10F0E66E62EF0DF0F3507A
:1020C000026EF450036E120001DF19DD66EF0FF0AF
:1020D00036D866EF0FF0F350D9EF0FF0DEDF2FDFC9
:1020E00083DD55D555DFFCC5E6FFFDC5E6FF1200D3
:1020F000E66EE66ACDDE7BEF0DF01BDE0DEBE6FF54
:102100005EEF0DF0E8DE4EEF0DF0E5DE53EF0DF083
:1021100060DDE1EF0FF0F350076EF450086E12002F
:10212000BDDE7CEF00F0C4DE9FEF0FF0F350E1EF77
:102130000FF0CDDC81E91200E66E5EEF0DF0A8DE57
:10214000E66E12009FEC32F047E91200B5DF9FEF18
:022150000FF08E
:0E215200D8CFE4FFE0CFE4FFE46EDACFE4FF85
:10216000E2CFDAFFE9CFE4FFEACFE4FFD9CFE4FF23
:10217000DACFE4FFFCC5E4FFFDC5E4FFFEC5E4FFE4
:10218000FFC5E4FFF6CFE4FFF7CFE4FFF8CFE4FFAD
:10219000F5CFE4FFF3CFE4FFF4CFE4FFFACFE4FFA1
:1021A000FBCFE4FFE652B7EC83F018EC86F0E55283
:1021B000E5CFFBFFE5CFFAFFE5CFF4FFE5CFF3FF77
:1021C000E5CFF5FFE5CFF8FFE5CFF7FFE5CFF6FF69
:1021D000E5CFFFF5E5CFFEF5E5CFFDF5E5CFFCF565
:1021E000E5CFDAFFE5CFD9FFE5CFEAFFE5CFE9FF9D
:1021F000E5CFDAFFE550E5CFE0FFE5CFD8FF1000EF
:102200000901009B1200CBEC1FF041E80501FABF69
:1022100003D00501300EFB6FD950010FE66EDACF07
:10222000E6FF86EC83F042E9000901E1F6D0FF0EFB
:102230000601EB5D01E0A7D0C85103E07F0EC85D49
:1022400008E10A0E015CE8E00D0E015C02E10A0EF5
:10225000016E0D0E015CE0E070EC1FF09AEC1EF0D8
:1022600004E1C95102E10601EA073A0E015C25E1E9
:10227000060E0601EA5D21E301EC1FF01EE1490EA6
:10228000015D1BE1500E025D18E1440E035D15E196
:102290000501FABF03D00501310EFB6F0601EA0507
:1022A000FDEC1DF0EF6A050EE66E080EE66EAFEC73
:1022B0001EF0FD0EEB6FEA6BAFD70A0E015CACE1CE
:1022C0000501FABF03D00501320EFB6F0601EA07D4
:1022D000EA51FDEC1DF0EF6A040EEA5D4DE301ECFE
:1022E0001FF04AE1430E015D47E14D0E025D44E1FE
:1022F000540E035D41E1070E016E0150012AFDEC11
:102300001DF0EF50220804E00601EA51015CF5E3FC
:102310000104FDEC1DF0EF6A0601D66B140EE66EAB
:10232000E66A070EE66E080EE66ED60EE66E060E3E
:1023300022EC1FF00601E96BEA51016E0150010623
:10234000FDEC1DF0EF502C0802E00150F7E10150C8
:102350000701C96B000FC86F080EC923020EC827FA
:10236000000EC923C8C7E6FFC9C7E6FFAFEC1EF0E1
:10237000EA6BFE0EEB6F50D706015FEC1EF0080112
:10238000006B060148D0FE0EEB5D26E10501FABFA9
:1023900003D00501330EFB6F0D0E015C03E00A0E46
:1023A000015C08E10601EA51EA2BFDEC1DF0200E6C
:1023B000EF6E03D0060170EC1FF09AEC1EF004E102
:1023C000C95102E10601EA070601EC07EC5101E000
:1023D00023D7CEEC1FF01FD00501FABF03D00501B3
:1023E000340EFB6F0D0E015C0AE0060170EC1FF06D
:1023F0009AEC1EF004E1C95102E10601EA07060168
:10240000EC070A0E015C03E1EA07CEEC1FF0EC5189
:1024100001E002D7EA6BEB69FFD627EF1FF014EC5F
:102420001EF084E941E87F0E0601C85D3EE1046AC2
:1024300019EC1EF0F5500A080CE10D0E045C09E0E1
:10244000090100B1FDD70D0EE66E3DEC1EF011E165
:10245000FAD70D0E045C0DE119EC1EF0F5500A08D8
:1024600008E0090100B1FDD70A0EE66E3DEC1EF052
:10247000FBE019EC1EF0F5502BE0090100B1FDD78F
:10248000D3EC1FF0FDE0D9CFE9FFDACFEAFFEFCFC1
:10249000F6FFEE2AEFCFF7FF000EEE22EFCFF8FFA8
:1024A000EE220800F550046EC3D719EC1EF0F5506B
:1024B0000FE0090100B1FDD7D3EC1FF0FDE0D9CF4B
:1024C000E9FFDACFEAFFEE2A000EEE22EE22EDD788
:1024D00027EF1FF014EC1EF083E941E87F0E0601A0
:1024E000C85D30E1036A4AEC1EF0EF500A080CE1C7
:1024F0000D0E035C09E0090100B1FDD70D0EE66E7B
:102500003DEC1EF011E1FAD70D0E035C0DE14AEC33
:102510001EF0EF500A0808E0090100B1FDD70A0ECD
:10252000E66E3DEC1EF0FBE04AEC1EF0EF5018E0CA
:10253000090100B1FDD7D8EC1FF0FDE0DDEC1FF084
:10254000036ED1D74AEC1EF0EF500AE0090100B14A
:10255000FDD7D8EC1FF0FDE0002A000E0122F2D7D3
:1025600027EF1FF014EC1EF082E9090100B1FDD73E
:1025700000EBE6FF3DEC1EF0FBE041E9E7CFD9FFC1
:10258000120014EC1EF087E9045005101FE006014C
:10259000F751041802E1F851051814E0080E05017E
:1025A000F71510E104EBF1F605EBF2F600EBF3F6AC
:1025B00001EBF4F602EBF5F603EBF6F604EBF7F6B7
:1025C00005EBF8F606013C0EF96F05D0E1EC1EF0C4
:1025D000F76BF86BF96B41E9E7CFD9FF120014EC08
:1025E0001EF083E944E8030EE66E84EC1FF0036EF0
:1025F000F450046E610EE66EBE0EE66E000E4FECF9
:102600001EF00AE000EBC9F7C86BC8510601FA13C7
:102610000701C9510601FB135E0EE66EBE0EE66EA3
:10262000000E4FEC1EF005E006010050FA130150B9
:10263000FB132BEF1FF014EC1EF083E946E876EC59
:102640001FF000EBE6FF01EBE6FFE3EC1FF05BE0C1
:10265000F2EC1DF0D5EC1EF056E0C4EC1FF053E098
:10266000C4EC1FF050E005EBE9FF06EBEAFFEF508A
:102670004F0849E10528E96E000E0620EA6EEF508A
:102680002D0841E10DEC1FF0020E07010524C86F73
:10269000000E0620C96FC8C7E6FFE66EE3EC1FF028
:1026A00032E00DEC1FF04AEC1FF0056EF450066EA0
:1026B000A5EC1EF084EC1FF0076EF450086E055078
:1026C00006100BE107EBE9FF08EBEAFFEF501BE018
:1026D000590EE66EBE0EE66E11D005EBE6FF06EB78
:1026E000E6FF07EBE6FF08EBE6FF22EC7DF044E9AE
:1026F000000909E005EBE6FF06EBE6FFA5EC1EF09E
:10270000DAEC82F043E947E9E7CFD9FF120014EC95
:102710001EF082E942E800EBC8F60601C851240A1F
:1027200001E161D1070A01E154D1010A01E14BD174
:10273000030A01E11DD1010A01E104D1600A01E1AE
:10274000E3D0030A01E1C1D0010A01E197D0030AF5
:1027500001E181D0530A6FE0030A62E0010A55E00B
:10276000160A47E0030A3CE0010A33E0070A25E0C5
:10277000010A21E0030A11E07E0A0CE07F0A01E071
:102780003FD1E6EC1FF06FEC1EF00601010ECD6F9D
:102790000A0E26D191EC6BF033D10A0E92EC1FF0A9
:1027A0000601030ECD6F140ECE6FCF6B0001C26B0E
:1027B0004CEC00F025D1CD6B23D16FEC1EF014EC66
:1027C0002EF00601020ECD6F83EC1EF00601CC6BDD
:1027D00017D1050ECD6F0A0E83EC1EF00A0EA7D09E
:1027E000060ECD6F020ECE6FCF6BC96B14EC2EF0C0
:1027F00007D1E66ABCEC1DF00501FABF03D0050164
:10280000F00EFB6FD8EC2DF0FBD0090E92EC1FF010
:10281000E9EC1EF07C0EE66E0E0EE66E010ED0D0D8
:10282000080E92EC1FF0E9EC1EF0C30EE66E0E0EE1
:10283000E66E010EC5D0070E92EC1FF00601030EE6
:10284000CD6F230ECE6FCF6BC96BDE0EE66E0E0E14
:10285000E66E010EB5D0050EFFEC1FF0B8EC1EF0D1
:1028600006E2070E6CEC1EF00601400E05D0080EC5
:102870006CEC1EF00601020ECD6F14D0050EFFECBD
:102880001FF0400EE66EBE0EE66E000E29EC1EF046
:10289000090E6CEC1EF0B8EC1EF002E2430E01D003
:1028A000020ECD6FCAC6CEF6CBC6CFF60A0ED880C2
:1028B000CE57000ECF570F0ECF03F3CFCFF6CE0378
:1028C000F3CFCEF6F450CF279BD0050E92EC1FF03D
:1028D00065EC1EF00601020ECD6F3C0ECE6FCF6B85
:1028E000060EC96F0001C26B50EC00F0020E03EC43
:1028F0001EF0280EE66EBE0EE66E000E29EC1EF0EF
:102900000601400EC86F7CD0050E92EC1FF065ECFE
:102910001EF0BFEC1DF013E0C5EC87F000090FE0DE
:102920000601020ECD6F3C0E83EC1EF0020E03EC8E
:102930001EF04D0EE66EBE0EE66E000E41D0060194
:10294000200EC86F020E92EC1FF00001016B060111
:10295000CD6BC96B0001C00507E0050EC05D04E04A
:10296000780E0601D26F02D00601D26BD36B48D02D
:10297000060E92EC1FF0020E03EC1EF00601030E91
:10298000CD6FF00ECE6FCF6B50EC00F00D0EBFECA4
:102990001DF006E1330EE66E0F0EE66E010E10D04E
:1029A0001A0EE66EBE0EE66E000E29EC1EF02EEC40
:1029B0001EF090DD42E9100EE66EBE0EE66E000ED1
:1029C00029EC1EF01DD00A0ECE6FCF6B400ECD6FDE
:1029D00017D0060E92EC1FF00601240ECD6F1E0ECE
:1029E000CE6FCF6B0DD0CC51CC2B0701C86F140E1E
:1029F000C85D02E2020E01D0030EE66E88DE41E9F8
:102A000043E9E7CFD9FF1200CBEC1FF051E80501F5
:102A1000FABF03D00501350EFB6FFE0E0601EB5D1C
:102A200022E10001C00507E0050EC05D04E065EC91
:102A30001EF047EC1FF00501FABF03D00501360E6A
:102A4000FB6FA1EC1EF0D60EE66E060EE66EDDEC18
:102A50005AF045E90501FABF57EF19F00501350EA7
:102A6000FB6F57EF19F0FF0EEB5D15E00501FABFA4
:102A700003D00501370EFB6F4FEC1FF001EC06F0A1
:102A800042E90501FABF03D00501350EFB6F2FECBB
:102A90001FF057EF19F0080EEA5D0DE3080EE66E21
:102AA000E66A070EE66EBE0EE66E000EACEC1DF09A
:102AB00002E157EF19F00601C8517F0A01E1F2D394
:102AC0005F0A01E106D2600A01E154D1630A01E123
:102AD00037D1020A01E1EFD0330A01E1C3D0030A82
:102AE00061E0010A26E0110A14E0010A01E0DFD3E7
:102AF000050EEA5D01E2DBD305EC1FF0010EE66E88
:102B0000BE0EE66E000EACEC1DF001E0D0D37F0EE1
:102B1000B5D3020EEA5D01E2CAD309EC1FF001E071
:102B2000C6D34B0E015D01E0C2D347EC1FF0100E7F
:102B3000A5D3040EEA5D22E301EC1FF01FE1430E72
:102B4000015D1CE1530E025D19E14D0E035D16E1BE
:102B50004FEC1FF092EC7DF042E9F3CFE9FFF4CFA8
:102B6000EAFFE906000EEA5A000EE926080EEA22FC
:102B7000EF50310801E19BD3030E5AD00601C95131
:102B800001E095D3020EEA5D01E291D309EC1FF05A
:102B900001E08DD34B0E015D01E089D347EC1FF0BE
:102BA000110E6CD3100EEA5D14E3380E0801005DBF
:102BB00010E1390E015D0DE1180EE66EE66A4FEC8C
:102BC0001FF0D10EE66E050E22EC1FF00501E86B3A
:102BD0006ED3080E0601EA5D16E301EC1FF013E167
:102BE000430E015D10E1500E025D0DE1420E035DEA
:102BF0000AE1460E045D07E13A0E055D04E14FEC83
:102C00001FF019DD8BD1080E0601EA5D17E301EC18
:102C10001FF014E1430E015D11E1500E025D0EE163
:102C2000490E035D0BE1520E075D01E140D3040E36
:102C30006CEC1EF00601010EC96F39D30601C951B3
:102C400001E035D3020EEA5D01E231D309EC1FF059
:102C500001E02DD34B0E015D01E029D347EC1FF0BD
:102C6000120E0CD3060EEA5D15E301EC1FF012E123
:102C7000490E015D0FE1500E025D0CE1520E035D45
:102C800009E1390E065D06E0710EE66E0F0EE66E86
:102C9000010E62D1020E0601EA5D01E208D309ECE1
:102CA0001FF001E004D34B0E015D01E000D347ECBF
:102CB0001FF0210EE3D2020EEA5D0BE309EC1FF0D8
:102CC00008E14B0E015D05E12FEC1FF0CC6B220EED
:102CD000D5D2050E0601EA5D07E3450E0801005D49
:102CE00003E1520E015D03E05CEC1FF002E1230EF4
:102CF000C5D239EC1FF0EF0EE66EBD0EE66E000E8B
:102D0000ACEC1DF001E0D3D276EC1FF0000EE66EC5
:102D1000080E39EC1EF001E1CAD2F2EC1DF0AEEC67
:102D20001FF001E1C4D2080EE66EE66AEBEC1FF07C
:102D3000C60EE66E000E22EC1FF00001CE6BB7D27D
:102D400095EC1FF001E0B3D22C0E0801085D03E101
:102D5000070E091502D0070E07150001C06FE80421
:102D600004E0050EC05D01E0A2D22FEC1FF0CC6B99
:102D7000400E84D2020EEA5D16E3450E0801005DA6
:102D800012E1520E015D0FE1020E0601C95D01E183
:102D90005BD2030EC95D01E157D2050EC95D01E0AA
:102DA00086D2030E6BD2020E0601EA5D06E309EC41
:102DB0001FF003E14B0E015D0BE0530E0801005DB7
:102DC00003E1480E015D04E0050E0601C95D6DE1F9
:102DD0000601EA6B1E0ECE6FCF6B0001C16B020EB7
:102DE00003EC1EF00601C92BC951080A5CE00F0A6A
:102DF00047E0010A3FE0030A37E0010A2FE0070A33
:102E000024E0010A0CE0030A01E051D2D50EE66E7F
:102E1000BD0EE66E000E29EC1EF0050E0ED0C80E9B
:102E2000E66EBD0EE66E000E29EC1EF0050E9DEC62
:102E30001FF0060E9DEC1FF0070E08EC1EF0D20EE0
:102E4000E66EBD0EE66E000E87D0040EFFEC1FF09E
:102E5000BA0EE66EBD0EE66E000E7ED0AC0EE66ECD
:102E6000BD0EE66E000E78D0A20EE66EBD0EE66ECA
:102E7000000E72D0280EE66EBE0EE66E000E6CD00E
:102E8000030EFFEC1FF08E0EE66EBD0EE66E000E1A
:102E900029EC1EF0040E08EC1EF0840EE66EBD0E4A
:102EA000E66E000E59D0200EE9D1070EEA5D0BE365
:102EB000080EE66EE66A7B0EE66EBD0EE66E000E4E
:102EC000ACEC1DF004E066EC1FF001E0F0D1020E66
:102ED000D5D195EC1FF024E12C0E0801085D03E12B
:102EE000070E091502D0070E07150001C06FE80490
:102EF00003E0050EC05D05E10601D26BD36BE66A07
:102F00000AD00601D251D31101E0D1D1780ED26F8F
:102F1000D36B010EE66EE66AE5EC85F042E9C7D1B7
:102F200005EC1FF0690EE66EBD0EE66E000EACEC11
:102F30001DF015E10001C00507E0050EC05D04E0CD
:102F400065EC1EF047EC1FF0010E03EC1EF04B0E7B
:102F5000E66E0F0EE66E010E29EC1EF0A8D105EC10
:102F60001FF0630EE66EBD0EE66E000EACEC1DF0BB
:102F700001E19DD1020EE66EE66A600EE66EBD0EC0
:102F8000E66E000EACEC1DF001E07AD034EC1FF0E0
:102F900001E376D07DEC1FF0020EE66E080E39ECF0
:102FA0001EF0B3EC1DF004E042EC1EF0F1EC1EF05C
:102FB000B3EC1DF003E0DBEC1EF00B6EB3EC1DF088
:102FC00004E042EC1EF0F9EC1EF0B3EC1DF003E05F
:102FD000DBEC1EF00C6EB3EC1DF003E0DBEC1EF03E
:102FE0000D6EB3EC1DF0B3EC1DF0B3EC1DF005E07D
:102FF000C1EC1EF00E6EF4500F6E0150021001E194
:1030000056D1010E0D140001BA6FBA5136E0530EBD
:103010000B5C0CE103EBC8F704EBC9F705EBCAF74F
:1030200006EBCBF714EC1FF0F1EC1EF0570E0C5C26
:103030000CE107EBC8F708EBC9F709EBCAF70AEB95
:10304000CBF714EC1FF0F9EC1EF003EBABF004EB44
:10305000ACF005EBADF006EBAEF007EBAFF008EB34
:10306000B0F009EBB1F00AEBB2F00EEBB5F00FEBFC
:10307000B6F00001780EBD6F1AD10001BD6B17D1FB
:10308000030EE66EE66A5A0EE66EBD0EE66E000EA2
:10309000ACEC1DF01DE134EC1FF01AE27DEC1FF0EA
:1030A000030EE66E080E39EC1EF005E0C1EC1EF0D2
:1030B000106EF450116E0150021001E1F8D00001C1
:1030C000BA5101E1F4D010EBB3F011EBB4F0EFD052
:1030D0000A0EE66EE66A4F0EE66EBD0EE66E000E56
:1030E000ACEC1DF004E10001C15126E119D0070E3E
:1030F000E66EE66A470EE66EBD0EE66E000EACECBE
:103100001DF042E1110EE66EE66A350EE66EBD0E6A
:10311000E66E000EACEC1DF013E10001C1510CE1B4
:10312000010EE66EE66EE5EC85F042E953EC00F048
:10313000ECEC00F06EEC00F00001010EC16FB7D0B6
:10314000150EE66EE66A1F0EE66EBD0EE66E000E0A
:10315000ACEC1DF001E1ABD0110EE66EE66A0D0E8F
:10316000E66EBD0EE66E000EACEC1DF056E0000102
:10317000C16B020EFFEC1FF00001C00563E0050EFD
:10318000C05D01E094D05ED005EC1FF0070EE66E46
:10319000BD0EE66E000EACEC1DF011E12C0E080128
:1031A000085D08E1070E06150A0D070E0715070151
:1031B000F32402D0070E06150001C36F78D0070E66
:1031C000E66EE66AFF0EE66EBC0EE66E000EACEC36
:1031D0001DF051E00B0EE66EE66AF30EE66EBC0ED5
:1031E000E66E000EACEC1DF003E10001016B5FD058
:1031F00039EC1FF0EC0EE66EBC0EE66E000EACEC89
:103200001DF00BE00C0EE66EE66ADF0EE66EBC0EFD
:10321000E66E000EACEC1DF004E150EC00F0420E46
:103220002DD0090EE66EE66AD50EE66EBC0EE66E91
:10323000000EACEC1DF006E05CEC1FF003E066EC69
:103240001FF004E150EC00F0410E18D0040EE66EC1
:10325000E66AD10EE66EBC0EE66E000EACEC1DF01A
:103260000AE039EC1FF0CA0EE66EBC0EE66E000EE8
:10327000ACEC1DF008E150EC00F0010EE66E87ECBE
:1032800013F041E914D039EC1FF0C30EE66EBC0E0A
:10329000E66E000EACEC1DF00AE1A1EC1EF033EC82
:1032A00009F004D0A1EC1EF076EC6EF043E952E98F
:1032B000E7CFD9FF1200CBEC1FF048E80501FABFB9
:1032C00003D00501380EFB6F0601F951000805E235
:1032D000F907F95102E1F76BF86BC8517F0A01E178
:1032E00096D15F0A48E0220A44E0230A37E0330A15
:1032F00029E0030A1DE0010A11E0110A01E089D169
:10330000050ECE5D000ECF5903E2020E6CEC1EF0EE
:10331000470EE66E0F0EE66E010E1DD0F5EC1DF0A9
:1033200001E077D17C0EE66E0E0EE66E010E13D034
:10333000F5EC1DF001E06DD1C30EE66E0E0EE66EEB
:10334000010E09D0F5EC1DF001E063D1DE0EE66E52
:103350000E0EE66E010E29EC1EF05BD1140ECE5D52
:10336000000ECF5901E355D139EC1FF0E5EC85F0A3
:1033700004D1E66A22D0FF0EEB5D09E0ED0503E122
:10338000ED6BEB690FD0ED51010801E2ED07D25171
:103390000008000ED35508E2D207000ED35BD251CD
:1033A000D31102E1210E08D03DEC1FF009E2012B00
:1033B00001513C0805E2400EE66E87EC13F025D182
:1033C0000001C00504E0050EC05D01E006D100016A
:1033D0004151421106E00001000503E100010151E5
:1033E0004AE00601F1510008000EF25520E200010A
:1033F00000051DE1000101511AE1C1EC1FF00601B9
:10340000F1510008000EF2550FE2F3C6E6FFF4C6D4
:10341000E6FFF5C6E6FFF6C6E6FFF1C6E6FFF2C632
:10342000E6FF33EC0DF046E9E1EC1EF0F2D0FF0EC2
:10343000C6DB62E2000100055FE1000101515CE1D1
:10344000C1EC1FF0200EBBDB05E20601FA9BEBECA2
:103450000CF0DFD0040EB3DB11E20601FA95FC514B
:1034600001E0D7D0060E0001416F426B43C0E9FF77
:1034700044C0EAFFEF6AB3EC08F0CBD0080E9FDB44
:1034800007E20601FA97EEA3C4D00BEC0DF0C1D011
:10349000100E95DB05E20601FA99F3EC0CF0B9D0B9
:1034A000020E8DDB0BE20601FA93C1EC1FF0020E57
:1034B000E66E8EEC01F041E902081BD0010E7FDBC5
:1034C0001BE20601FA910001C251000815E2020E4A
:1034D000016EC1EC1FF001EBE6FF96EC03F089EC06
:1034E0001FF08EEC01F041E9016E020E015C01E17A
:1034F00090D06EEC00F08DD0B6DBFF0E6ADB4DE2B3
:10350000C1EC1FF0C7EC1EF0AEDB200E62DB06E262
:103510000601FB9BA3DB4DEC54F02FD0A4DB040E83
:1035200058DB16E20601FB95FC5173E1BE0EE66E18
:10353000BC0EE66E000E1BEC1FF079EC7DF045E949
:10354000040E1BEC1FF08ADBDDEC5AF045E961D07C
:103550008ADB080E3EDB08E20601FB97EEA359D09A
:103560007DDB89EC54F009D07EDB100E32DB07E204
:103570000601FB9973DB5EEC54F042E94AD073DB41
:10358000020E27DB03E20601FB9307D06CDB010E82
:1035900020DB03E20601FB913CD0000171510008E1
:1035A0001CE2010E0501F11518E00001015115E1C1
:1035B0000001C251000811E2010E0601EE1504E0FF
:1035C000020E8EEC1FF009E1020EE66E99EC02F09D
:1035D00041E9020802E06EEC00F000016B51800B43
:1035E00004E13C0E8EEC1FF014E10001015111E1E9
:1035F00034EC1FF00EE29E0EE66E0E0EE66E010E2D
:1036000028DB010EE66E00EC2EF041E902D0ADECB5
:103610006BF049E9E7CFD9FF12000501FABF03D0EB
:103620000501390EFB6F0601C851200A01E01200A6
:103630003DEC1FF002E28AEF1EF03C0E8EEC1FF014
:1036400011E0020EE0DA500EE66E0F0EE66E010E8D
:1036500000DB09014151000803E2010ED4DAF9D779
:10366000020ED1DA1200CBEC1FF043E80501FABFDD
:1036700003D005013A0EFB6F0001C4510DE18DDB53
:10368000A5EC1FF04DDB78EC67F041E9E750000155
:10369000C46F0001C56B2AD0020EE66EE66A7DDBC0
:1036A000FCC5CEF7FDC5CFF7FEC5D0F7FFC5D1F7F6
:1036B00037DBB1EC67F0E552E5CFCDF7E7CFCCF7DC
:1036C0000001C4510701CC25CA6F000ECD21CB6F7C
:1036D000CA2B000ECB23CAC7E6FFCBC7E6FF4FECD1
:1036E00068F0E552F0EC1FF0C8C7C4F000016FB9F4
:1036F00007D00F0E0001C55D09E200016BAF03D0DA
:103700000001C56B0ED00001C52B0BD00F0EC55D9F
:1037100008E100016B51800B04E1C4C0C5F00A014F
:103720007D930001C5510F0824E200016B51800B0D
:1037300020E1020E0A017D150AE10F0E0001C55DB0
:103740000001D880C45503E30A017D830CD0020E2A
:103750000A017D150EE00D0E0001C55D0001C45D7E
:1037600008E30A017D93080EE66EE66AEFEC12F0BC
:1037700042E90601C851200A2BE17FDB02E2CADAE6
:1037800027D00001C1050DE1ECEC71F0000809E261
:10379000C1EC1FF053EC00F0EFEC71F06EEC00F0B8
:1037A00017D00001C10510E10001C25100080CE270
:1037B000E8DBDADB01E0DDDB0C0EE1D901E0DDDB8B
:1037C000E9D902E06EEC00F0010E0601C919C96FDB
:1037D00044E9E7CFD9FF12000501FABF03D0050184
:1037E0003B0EFB6F1200D7DB44E8000166050DE0DD
:1037F000020E665D0AE00F0E665D07E0800E0001B6
:103800006B15000802E3000E01D0010E046E0501E5
:10381000FABF03D005013C0EFB6F0601C851200A18
:1038200048E10001E2510001725D28E2800E0001D2
:103830006B1524E10601F0510FE10001C1050DE116
:10384000000101510AE10601EEA502D0FBEC0CF0EB
:103850000601480EF06F01D0F0070601EF510CE1B0
:1038600096DA0601EEA504D0F9D96FEC54F042E9DE
:103870000601480EEF6F06D0EF0704D00601060ED2
:10388000EF6FF06F0001C10514E10001C25111E1B9
:1038900004500FE0F2DA02E23DDA0BD065DB01E022
:1038A00068DB0C0E6CD901E068DB74D902E06EECC9
:1038B00000F0D1D270DB44E8000166050DE0020E95
:1038C000665D0AE00F0E665D07E0800E00016B1575
:1038D000000802E3000E01D0010E046E0501FABFDC
:1038E00003D005013D0EFB6F0601C851200A17E108
:1038F0000001C10514E10001C25111E104500FE1C2
:10390000BCDA02E207DA0BD02FDB01E032DB0C0E6F
:1039100036D901E032DB3ED902E06EEC00F09BD2FA
:103920000501FABF03D005013E0EFB6F0601FC51F5
:10393000000801E2FC07D02B000ED123CD51000876
:1039400011E2CEC6C8F7CFC6C9F7CE07000ECF5BCF
:103950000701C851C91106E1CDC6E6FF87EC13F097
:1039600041E901D0A8DC1E0ED9DA01E156DE3C0E99
:10397000D5DA01E178DE2C0EE66E010EE66EF7D8A0
:1039800001E12ADF580EE66E020EE66EF0D801E184
:103990002ADF100EE66E0E0EE66EE9D806E18ADF2B
:1039A000100E0601D05F0E0ED15B0601D407000E8B
:1039B000D55BD451D51124E1E66ADED8060106DBD9
:1039C0000501F32BF351E66EE66AE66AE66AE66AFB
:1039D000000EE66E070EE66E9FEC32F047E9000E31
:1039E000E66E070EE66E1A0EE66EDAEC82F043E93A
:1039F0000501FABF03D00501F10EFB6FD8EC2DF0E5
:103A000012001200800E946E40EC83F00001C06B37
:103A1000E66A87EC13F041E9120006D983E94BE826
:103A200009680A68170EE66E6FDA0C6EF4500D6EB8
:103A3000036AC3DA0B6E0B5047E0060ED8900ABE3D
:103A400003D0095C000E0A583FE20B50220A38E00E
:103A5000090A32E0040A17E0150A15E0160A13E015
:103A60000A34E7E2060E095C000E0A58E2E23DD98C
:103A7000EF500A0DF3500B24D00FE66E36D9E55205
:103A8000E750EF6ED6D7091C01E10A1CD2E007010E
:103A9000D950030FC86FDACFC9F7092A000E0A22DE
:103AA00009EBCAF70AEBCBF7C851CA25E96EDA5021
:103AB000CB21EA6EEF6ABDD7091C01E10A1CB9E00F
:103AC000092A000E0A22B5D7800EE66E510EE66E68
:103AD000010EE66EE66A0550E66EE66A0450E66E92
:103AE000E66A03500701D16BD00FD06F070ED123C8
:103AF000D0C7E6FFD1C7E6FF2AEC30F046E9FCC5A7
:103B0000CCF7FDC5CDF7FEC5CEF7FFC5CFF78C0EC0
:103B10000701CC5F3D0ECD5B250ECE5B000ECF5B6B
:103B2000CCC7E6FFCDC7E6FFCEC7E6FFCFC7E6FFAF
:103B30009BEC6AF0E552E5CFCBF7E5CFCAF750DA58
:103B4000C8C7FCF5C9C7FDF5CAC7FEF5CBC7FFF569
:103B50004CE9E7CFD9FF1200E66EA1D96AEC7CF000
:103B600047E900091200C9D995D9AEEF1FF0D0C6B8
:103B7000E6FFD1C6E6FF98D184D947EF1FF0E66E85
:103B8000C3D9026EF450036E02EBE9FF03EBEAFFC8
:103B9000EF50120001EBE6FF8EEC01F0BAD999EC80
:103BA00002F0B7D9CEEC02F0B4D996EC03F0B1D95B
:103BB0003BEC04F041E9016E020E015C12000601CB
:103BC000FA150701C86FC96BC8510008000EC95526
:103BD00012000601FB150701C96FC8510008000E4D
:103BE000C955120083D94AEF1FF0030EE66EE66A4C
:103BF000CEC6E6FFCFC6E6FF57D1EA6A000FE96EF0
:103C0000080EEA221200E66E00EC2EF041E91200E6
:103C1000E66E26EC82F041E9F3CFE6FFF4CFE6FF53
:103C20006AEC12F042E91200D9CFE6FFE1CFD9FFEA
:103C3000120000EBF6FF01EBF7FF02EBF8FF0800C4
:103C40001200E66E01EBE6FF70EC04F044E9016E51
:103C50001200E66E0FEC12F043E9120002EBE6FFF1
:103C600003EBE6FF1200000E0601FA150701C86F0C
:103C70001200E66EBAD9AEEF1FF05CEC83F041E9BA
:103C800000091200A8D9B8EC31F042E95ED9070169
:103C9000C851120000EBE9FF01EBEAFF1200E66EEB
:103CA00003EBE6FF04EBE6FF1EEC7EF045E9F3CF05
:103CB000C8F7F4CFC9F70701F350F410120086D902
:103CC00004EC15F00601EA6B12000601D26BD36B0F
:103CD0000001050EC06F1200E66EFAEF1FF0E668F5
:103CE000D0D8E66887D90CEF86F0D950030FE66E7E
:103CF000DACFE6FFFE0EE3500924E96E41E9E55014
:103D00000A20EA6E1200CE6FCF6BC96B0001C26B46
:103D100050EF00F0050E0601D05F000ED15B1200DF
:103D2000FCC5E6FFFDC5E6FFFEC5E6FFFFC5E6FFF5
:103D3000ECEF6AF0EA510701C86FC96BC80EC819E9
:103D40001200EAC6E6FF4FEF1FF003EBE6FF04EBBD
:103D5000E6FF4AEC74F042E9F3CFE6FF12004AECCA
:103D600074F042E9F3CFECF606013C0EED6F120061
:103D70000601CA07000ECB5BCA510008000ECB55E6
:103D8000120029D94AEC74F042E9F3501200E66AB5
:103D9000BBD8026EF450036E1200E66AE66A200E8B
:103DA000E66E410EE66EF6EF87F0036EF450046E99
:103DB00003500410120001EBE9FF02EBEAFFEF50A1
:103DC00012000601F16BF26BF36BF46BF56BF66BA3
:103DD00012000601030ECD6F5F0ECE6FCF6BC96B65
:103DE0001200036EC951046ECA51056ECB51066EA6
:103DF0001200076EC951086ECA51096ECB510A6E86
:103E000012002B0E0801005D1200050EE66EE66A38
:103E100012004F0E0801005D12005A0EE66EBE0E33
:103E2000E66E000EE66E12000701C81FC91FCA1F0A
:103E3000CB1FC8511200E66ED950040FE66EDACFE0
:103E4000E6FF1200E66EF0EC7DF046E9120042E972
:103E5000E7CFD9FF120045E9E7CFD9FF12000A0EDC
:103E60000601CA6FCB6B1200010E0601EE150008A9
:103E70001200060EE66EE66A12000001015100080B
:103E80001200010EE66EE5EC85F042E91200E66AEA
:103E9000FAEF1FF0000EE66EE66AF5EF1FF0000E77
:103EA000E66E080EE66E12009AEC68F0E55298D8BD
:103EB0000701C851C91112000A0EE66EE66AF60E35
:103EC000E66EBD0EE66E000EACEF1DF00B0EE66E5C
:103ED000E66A6F0EE66EBD0EE66E000EACEF1DF0EC
:103EE000EA51EA2B8ADE01EBEFFF12005C0EE66E70
:103EF000BE0EE66E000EE66E12005E0EE66EBD0EA3
:103F0000E66E000EE66E120026EC82F041E9F350F8
:103F1000120041E9016E01EBE6FF1200E66EE66A6F
:103F2000B7EF1DF0E66EBCEF1DF06FDFE90EE66E39
:103F3000BD0EE66E000EACEF1DF06ADEC40EE66E3E
:103F4000BD0EE66E000E29EF1EF0FCC5C8F7FDC5DC
:103F5000C9F7FEC5CAF7FFC5CBF71200016EF450D2
:103F6000026E015002101200020E016E0B0EBFEF26
:103F70001DF074DE010E21EF1EF070DE020E21EF47
:103F80001EF00A0E03EF1EF02DDE056EF450066ED5
:103F900005500610120048DE81E91200EA512DDEBC
:103FA000EF6A5FEF1EF045DEF5CFE6FF3DEF1EF056
:103FB00071DEEFCFE6FF3DEF1EF06CDE002A000E53
:103FC0000122EF50120011D8D5EF1EF0080ED46F69
:103FD000070ED56F120001EBE6FF02EBE6FF1200C1
:103FE000E5CFC9F7E7CFC8F7120027EC88F045E91D
:103FF000F3501200E66AE5EC85F042E91200E66E45
:0440000041EF1FF07D
:0C4004000BEC2CF081E947E80A01715137
:1040100001E02CD3010E721901E028D30A01755179
:10402000A60A01E11CD3030A01E1F0D2010A01E171
:10403000E3D2070A01E1CCD23D0A01E19CD2080A91
:1040400001E123D2030A01E1DCD11A0A01E1B9D16D
:104050001C0A01E14CD11A0A01E105D1010A01E172
:10406000ECD00D0A01E1B5D0010A01E191D0070AB7
:104070006EE0010A62E0030A3FE0010A17E0860AE7
:1040800001E007D31B0E765D03E179CAB7F00AD0D1
:104090001A0E765D01E0FDD27951F3507A250001C8
:1040A000B86FB96B0001010EBF6FF3D276CA72F020
:1040B000D4EC2BF00001736F000E0001E42100012D
:1040C000746FC7EC2CF00001756F000E0001E42145
:1040D0000001766F000173517008170E745502E2EB
:1040E000736B746B000175517008170E765501E300
:1040F000D0D2756B766BCDD2FDEC2BF004E00001D5
:104100007FEC2CF0FDE197EC2BF004E0000186EC55
:104110002CF0FDE1A0EC2BF004E00001A0EC2CF071
:10412000FDE100012DEC2CF0E3C077F0E4C078F065
:10413000E5C079F0E6C07AF0ACD276CA7FF0000133
:10414000806B7FBF80690001780EBB6FA2D2FDEC4F
:104150002BF004E000017FEC2CF0FDE197EC2BF05C
:1041600004E0000186EC2CF0FDE1A0EC2BF004E073
:104170000001A0EC2CF0FDE100012DEC2CF0E3C0DF
:10418000ABF0E4C0ACF0E5C0ADF0E6C0AEF081D27B
:10419000FDEC2BF004E000017FEC2CF0FDE197EC4E
:1041A0002BF004E0000186EC2CF0FDE1A0EC2BF0FC
:1041B00004E00001A0EC2CF0FDE100012DEC2CF05E
:1041C000E3C0AFF0E4C0B0F0E5C0B1F0E6C0B2F0DB
:1041D00060D276CABAF00001BA512CE0D4EC2BF0D0
:1041E0000001B36F000E0001E4210001B46F680EFE
:1041F000B31905E1010EB41902E1B36BB46BF00E13
:104200000A017A1504E00001B56BB66B0FD07ACACB
:10421000E4F00001E36B0A0179510001E32500019C
:10422000B56F000E0001E4210001B66F0001780EA9
:10423000BD6F2FD20001BD6B2CD2000163510A016A
:104240007B5D03E0020E91EC2BF076CA62F07BCA34
:1042500063F0D4EC2BF00001646F000E0001E42148
:104260000001656F16D24D0E0A017E5D03E176CA2C
:1042700071F033D076EC2DF0490EE66E060EE66E48
:10428000E66AE66A76CAE6FFE66AB6EC2DF0E55223
:10429000E5CFEAF0E5CFE9F0E5CFE8F0E7CFE7F0EA
:1042A000F40E0001E727010EE823000EE923EA23BC
:1042B000E7C0E6FFE8C0E6FFE9C0E6FFEAC0E6FFC8
:1042C00031EC69F0E552E5CFE6F0E5CFE5F0E5CF7A
:1042D000E4F0E7CFE3F0E3C071F0D4EC2BF00001A1
:1042E000606F000E0001E4210001616FD2D17651B0
:1042F000016ED4EC2BF0026E000EE421036E7CCA3A
:10430000E3F0E46BE56BE66B180E1F0B08E00001B1
:10431000D890E337E437E537E637E806F9E17BCABA
:10432000E7F00001E86BE96BEA6B100E1F0B04E08D
:1043300000017FEC2CF0FDE181EC2DF07ACAEBF06E
:10434000EC6BED6BEE6B080E1F0B04E0000186ECCE
:104350002CF0FDE18BEC2DF079CAEFF0F06BF16BF6
:10436000F26B2DEC2CF0E351046EE451056EE55137
:10437000066EE651076E021C01E1031C01E189D1C2
:10438000140E015C0BE1190E021808E1035006E15E
:1043900003EC2DF0C1EC12F046E902D001A00BD0E5
:1043A00004EBE6FF05EBE6FF30EC2DF002EBE6FF59
:1043B00003EBE6FF02D003EC2DF0C1EC12F046E96E
:1043C00068D1C7EC2CF0026E000EE421036E02509F
:1043D000031005E000016F8F000145695AD100010B
:1043E000D8350CE200016F51800B08E00001D82B9A
:1043F00000013C0E456F020E91EC2BF000016F9F07
:1044000048D1000166510A01765D0EE00001665157
:10441000020803E20F0E665D07E1040E0A01765DF5
:1044200003E0040E91EC2BF0000166510A01765D69
:1044300005E1000167510A01775D09E0020E91EC88
:104440002BF00A01760503E10001020E4F6F76CAD8
:1044500066F077CA67F00501F7A104D00F0E0A01D4
:10446000791504D00A017A390F0B0F0B016E000188
:104470006851015C05E001EB68F0020E91EC2BF055
:1044800078CA69F07CCA6AF004D10F0E0001665D3B
:1044900002E10A0176890A01765100016B5D0FE1A4
:1044A0000A01775100016C5D0AE10A0178510001AF
:1044B0006D5D05E10A01795100016E5D03E0010EB9
:1044C00091EC2BF0800E00016C150AE1800E0A01C0
:1044D000771506E0100E771503E0100E91EC2BF027
:1044E000020E00016E1507E1020E0A01791503E0C4
:1044F000200E91EC2BF076CA6BF077CA6CF078CA7C
:104500006DF079CA6EF03FEC2DF01EE100017B5199
:104510007C117D117E1118E100017751781179111C
:104520007A1112E00001020E4F6F77C07BF078C065
:104530007CF079C07DF07AC07EF000017B07000E30
:104540007C5B7D5B7E5B13D03FEC2DF001E1A1D065
:1045500000017B517C117D117E1101E19AD0000197
:10456000020E4F6F00017B6B7C6B7D6B7E6B010ECF
:1045700091EC2BF08ED000014F0502E1030E4F6F3E
:10458000E66A010EE66E0A017751640DF3CFE5F09D
:10459000F4CFE6F0800E0001E527000EE623E5C02B
:1045A000E6FFE6C0E6FF97EC68F0E552E5CFE4F001
:1045B000E7CFE3F00A017851640DF3500001E325E1
:1045C0000001CF6FF4500001E4210001D06F61D0F1
:1045D00076CA93F00001946B93BF94690A017751F6
:1045E0000001956F966B0A017B510001976F986BE4
:1045F0000001780EBC6F4DD0016A070E015C49E2E4
:10460000D0EC2CF00150AFEC2CF0F7D7016A070E7C
:10461000015C07E2D0EC2CF0070E0124AFEC2CF08B
:10462000F6D7410E0A01785D03E0420E785D03E1A2
:104630000501320E02D00501310ECE6F380E0A018F
:10464000785D02E10501F781330E0A01765D03E131
:104650000501530E02D005014E0ECF6F1AD076CA57
:104660008FF077CA90F078CA91F013D0020E7119CA
:1046700010E1010E72190DE10A0175510E0A09E1EE
:1046800076510001705D03E0010E91EC2BF076CACB
:1046900070F0010E48E9E7CFD9FF12000A0171510D
:1046A00042E1040E72193FE1020E0A01755D01E05C
:1046B000CCD0010E0501F61501E1C7D0010EF715AA
:1046C00001E0C3D03FEC2DF001E1BFD00A017751EA
:1046D0000001715D01E1B9D00501F851000801E365
:1046E000B4D075CA46F076CA47F071C048F0F00EF3
:1046F0000A0178150001496F79CA4AF07ACA4BF06D
:104700007BCA4CF07CCA4DF00F0140B7FDD710ECCE
:104710002CF00001050E4E6F4E510A0801E395D0B2
:104720000A0E4E6F010C440E711937E1030E721917
:1047300034E10A017851000808E277CAA1F078CA8A
:1047400099F000019A6B99BF9A690A017C5100089F
:1047500008E27BCAA2F07CCA9BF000019C6B9BBF65
:104760009C690A017651000808E275CAA3F076CA6E
:104770009DF000019E6B9DBF9E690A017A51000861
:1047800008E279CAA4F07ACA9FF00001A06B9FBF2B
:10479000A0690001780EBE6F010C020E711955E17F
:1047A000040E721952E10A017551FA0A4EE178CAF3
:1047B000F3F00001F46BF56BF66B79CAF7F0F86B68
:1047C000F96BFA6B080E1F0B08E00001D890F73761
:1047D000F837F937FA37E806F9E10001F751F3271E
:1047E000F851F423F951F523FA51F6237ACAFBF074
:1047F000FC6BFD6BFE6B100E1F0B08E00001D890E8
:10480000FB37FC37FD37FE37E806F9E10001FB51C5
:10481000F327FC51F423FD51F523FE51F623F3C099
:10482000A7F0F4C0A8F0F5C0A9F0F6C0AAF07CCAC1
:10483000F4F0F36B0A017B510001F3250001A56F31
:10484000000E0001F4210001A66F010C00014E5181
:1048500002E1050E4E6F000C00014F51010826E2E7
:104860000501F85103E100014F6B20D0020E000159
:104870004F5D0AE1010E4F6F0F0140B7FDD79FEC6E
:104880002DF0B9EC2CF012D0030E4F5D0FE14F6B01
:104890000F0140B7FDD7D0EC2DF0476B486BB9EC5A
:1048A0002CF079EC2AF0020E91EC2BF000014E5125
:1048B00001E1000C020E465D18E1010E0501F6153E
:1048C00014E0010EF71511E13FEC2DF00EE00501AB
:1048D000F85100080AE2010EE66E8EEC89F041E91B
:1048E0000F0140B7FDD710EC2CF000014E07000C73
:1048F0000F0140B7FDD78BEC2BF00A0E466F010E6F
:10490000456F080E406F40B7FED712000F0140B749
:10491000FDD7D0EC2DF02C0E476F010E486F496B80
:104920004A6B090E4B6F100E4C6F4D6B080E456FA6
:10493000406F40B7FED712000F0140B7FDD79FEC84
:104940002DF0496B4A6B800E4B6F4C6B080E4D6F10
:10495000456F406F40B7FED7120072EC2DF00F018B
:1049600040B7FDD77DEC2DF0190E25EC2CF040B7AB
:10497000FED7ABEF2CF072EC2DF00F0140B7FDD756
:104980007DEC2DF0020E25EC2CF040B7FED7ABEFFE
:104990002CF072EC2DF00F0140B7FDD77DEC2DF01F
:1049A000030E25EC2CF040B7FED7ABEF2CF00BEC50
:1049B0002CF084E944E835EC2DF0BFEC74F042E9CA
:1049C000FCC5C8F7FDC5C9F7FEC5CAF7FFC5CBF7DB
:1049D0000701C851046EC951056ECA51066ECB510C
:1049E000076E020E025C03E13FEC2DF06EE10F0159
:1049F00040B7FDD78BEC2BF00B0E466F02EB47FF59
:104A0000486B496B6DEC2CF00701C8510F014A6FE0
:104A10006DEC2CF0080E07011BEC2DF0FDE10701F9
:104A2000C8510F014B6F6DEC2CF0100E07011BEC01
:104A30002DF0FDE10701C8510F014C6F35EC2DF051
:104A400092EC7DF042E9F3CFCCF7F4CFCDF7040E32
:104A5000F3CFC8F7F4CFC9F7000A06E00701D890F2
:104A6000C837C937E804FBE10701CA6BCB6B04EB1D
:104A7000CEF705EBCFF706EBD0F707EBD1F7180E23
:104A8000D890D133D033CF33CE33E806F9E10701E4
:104A90000F0ED26FD36BD46BD56BD251CE17D351CF
:104AA000CF17D451D017D551D117CE51C827CF51D8
:104AB000C923D051CA23D151CB23C8C74DFF0F0101
:104AC000080E456F406F40B7FED745E9E7CFD9FFE5
:104AD00012000BEC2CF084E90BDF0F0140B7FDD77F
:104AE0007DEC2DF01B0E476F486B496B02EB4AFFC4
:104AF0004B6BADEC2DF040B7FED7020414E17DEC1A
:104B00002DF01A0E476F486B496B070101EBC8F790
:104B1000C96BC8510F014A6FFF0E00144B6FADEC0B
:104B20002DF040B7FED7ABEF2CF072EC2DF00F015B
:104B300040B7FDD78BEC2BF0090E466F476B00EBAF
:104B400048FF030E456F080E406F40B7FED7ABEF2E
:104B50002CF00BEC2CF081E944E800016B51100BB8
:104B600002E0010E01D0000E0001DF6F68C0D9F035
:104B700063C0DAF00F0EE66E26EC82F041E9BAEC83
:104B80002DF022EC2DF001EBE6FF02EBE6FFC0EC8E
:104B90002CF015E00BEC2DF0F3CFDBF0F4CFDCF0D4
:104BA00022EC2DF0000EE66EE66AC0EC2CF00BE075
:104BB0000BEC2DF0F3CFDDF0F4CFDEF008D01F0EBC
:104BC0000001DB6FDC6B3C0E0001DD6FDE6B000172
:104BD000983598510001DC1902E6D9EC2CF02DE251
:104BE00000016B51800B29E16B51040B26E080DE44
:104BF0000A0EBFEC2DF0036A046A020ED89004BEC0
:104C000003D0035C000E045813E20D0EE66EB3DE13
:104C1000A7EC2CF0030EE66EA0DEA7EC2CF0010E44
:104C2000E66EB7DEA7EC2CF0032A000E0422E5D7CF
:104C300083DE0001D86B0001456945E9E7CFD9FF64
:104C400012000BEC2CF086E943E8086A02EBF3FF54
:104C500003EBF4FF190EF31801E1F45001E117D151
:104C6000180EF31801E1F45001E109D1170EF31801
:104C700001E1F45001E1EAD0160EF31801E1F4501D
:104C800001E1DDD0150EF31801E1F45001E1D0D0BF
:104C9000140EF31801E1F45001E1C3D0130EF31820
:104CA00001E1F45001E1B8D0120EF31801E1F45023
:104CB00001E1ADD0110EF31801E1F45001E17DD016
:104CC000100EF31801E1F45054E00F0EF31801E157
:104CD000F45048E00C0EF31801E1F4502FE00B0EF5
:104CE000F31801E1F45011E00A0EF31801E1F45059
:104CF00002E0000EE9D00501F85101E1CBD035EC1E
:104D00002DF047EC2CF029DEC0D00501F85101E16F
:104D1000C1D0040E00016B150BE0070E0001675DAA
:104D200007E0010EE66E35DE41E90601FC6BB9D005
:104D3000660EE66E110EE66E010EB8D00501F85152
:104D400001E1A8D000016BA907D0E66A22DE41E9A3
:104D500006011E0EFC6FA5D08C0EE66E110EE66EDF
:104D6000010EA4D00501F85101E194D05DEC2CF0C6
:104D700020D00501F85101E18DD000014351066EAC
:104D80004451076E4DEC2CF008E04DEC2CF02C0853
:104D900004E0062A000E0722F5D74DEC2CF02C0873
:104DA00030E1E2EC2CF0C4EC2DF0D7DD41E930EC41
:104DB0002DF047EC2CF0DFDD68D00501F8516AE0FA
:104DC00000014351066E4451076E4DEC2CF008E093
:104DD0004DEC2CF02C0804E0062A000E0722F5D733
:104DE0004DEC2CF02C080DE1E2EC2CF030EC2DF029
:104DF00047EC2CF0F4CFE6FFC4EC2DF06ADE43E97B
:104E000050D0200EE66E110EE66E010E4FD0050159
:104E1000F85140E06DDD03D00501F8513BE076DD4F
:104E200040D00501F85115E05DEC2CF0020E1AD0CF
:104E30000501F8510EE05DEC2CF0E66A14D0050196
:104E4000F85107E05DEC2CF0030E0CD00501F85191
:104E500006E1320EE66E110EE66E010E0BD05DEC31
:104E60002CF0010EE66EA3DD43E91D0EE66E110E79
:104E7000E66E010EE6EC2BF0010E086E19D005016E
:104E8000F85108E0C4EC2DF050DE41E90AD00501EC
:104E9000F85106E1320EE66E110EE66E010E06D0F6
:104EA00058DE1D0EE66E110EE66E010EE6EC2BF0DE
:104EB000045009E07CEC00F0020EBFEC2DF0E66A35
:104EC00096EC03F041E9010E44E9E7CFD9FF120067
:104ED0000BEC2CF08FE964E87F0E0601C85D34E12D
:104EE0000D50E66EE66A880EE66EC70EE66E000EA0
:104EF00091EC2CF009EBE6FF0AEBE6FF6CEC2BF0F3
:104F000007EBE6FF08EBE6FFE7DB05EBE6FF06EB6A
:104F1000E6FFE2DB03EBE6FF04EBE6FFDDDB0BEB9A
:104F2000E6FF0CEBE6FFD8DB02EBC8F70701C96B25
:104F3000C8BFC9693AEC2DF0CFDB810EE66EC70E13
:104F4000E66E000E36EC2CF00350041004E1800EE7
:104F5000036E3E0E046E063404E205500008000E97
:104F6000065403E3640E056E066A0D50040A5CE005
:104F7000070A34E0030A0AE0640E0D240701C86F33
:104F8000C96BC86DC91F000EC9237CD2C1EC2BF0C0
:104F9000D1AF02D0D269D369DDEC2BF0A50EE66E5D
:104FA000040ED0EC2BF0800E0701CC27380ECD2359
:104FB000010ECE23000ECF236AEC2DF0BF0E1D6E26
:104FC0001E6AA90E216E226ACA0E236E030E246E7B
:104FD000256E266A410E276E4D0E4BD0D2DBD1AF27
:104FE00002D0D269D369E9DB0A0EE66E060ED8DB81
:104FF000200E0701CC5F300ECD5B050ECE5B000EA0
:10500000CF5B6AEC2DF0F40E1D6E1E6AD70E216E7A
:10501000226ABC0E236E3C0E246E030E256E266A99
:10502000470E276E600E25D0ACDBD1AF02D0D2691F
:10503000D369C3DB580EE66E050EB2DBD00E070156
:10504000CC5FFB0ECD5B010ECE5B000ECF5B6AEC3E
:105050002DF0DA0E1D6E1E6AA70E216E226A940EC6
:10506000236E8C0E246E060E256E266A520E276E57
:105070005A0E286E083404E207500008000E085447
:1050800020E3640EE66EE66A05EBE6FF06EBE6FF5C
:105090001FEBE6FF20EBE6FF07EC6AF0E552E5CFF9
:1050A000C9F7E7CFC8F7320E0701C827000EC9239A
:1050B0003AEC2DF04FEC68F0E552E550086EE75001
:1050C000076E0050011008E000EBE9FF01EBEAFF7A
:1050D00007EBEEFF08EBEDFF0C3404E20B50000889
:1050E000000E0C5402E3FE0ED5D008340A50081806
:1050F00004E60750095C08500A5802E3FD0ECAD0C6
:10510000023405E202503C0802E23C0E026E070146
:1051100013EC2DF00926C9510A2213EC2DF00726B5
:10512000C951082208341E50081804E607501D5CB7
:1051300008501E5804E29DEB07F09EEB08F0D89053
:105140000C5004E6FC0E0B5C080E0C5807E3200E16
:10515000C86F010EC96FCA6BCB6B0FD0E90ECC6F55
:10516000020EB0DBD5AF02D0D669D769BFDBC70E60
:10517000F0DACA6FD351CF59CB6FC8510F6EC951F6
:10518000106E040ECC6F0E0E9DDBD5AF02D0D6692B
:10519000D769ACDBFA0EDDDAD351CF59C851116EA5
:1051A000C951126E123402E3116A126A0FEBC8F78A
:1051B00010EBC9F7CA6BCB6BC9AF02D0CA69CB6918
:1051C00076EC2DF002EBD4F7D56BD66BD76BD4AF62
:1051D00003D0D569D669D76989DB11EBD0F712EB1B
:1051E000D1F7D26BD36BD1AF02D0D269D369E5DAF4
:1051F0009BEC6AF0D3EC68F095EC2DF00701CC51F4
:10520000C827CD51C923CE51CA23CF51CB23C85172
:10521000136EC951146E0BEBD0F70CEBD1F7D26BB8
:10522000D36BD1AF02D0D269D369C7DA100EE66E64
:105230000E0EE66EE66AE66A13EBCCF714EBCDF7DA
:10524000CE6BCF6BCDAF02D0CE69CF694DEC2DF0D8
:105250009BEC6AF0CCEC2DF00701C851156EC951DA
:10526000166ECA51176ECB51186EB5DBE20EE66EA4
:10527000E6681D0E52DBD8900701CB51000A08E604
:10528000F40EC85D000EC959000ECA59000ECB5964
:1052900004E2FC0EF36EF468F9D0196A1A6A1B6A0C
:1052A0001C6A22340A50221804E62150095C22505C
:1052B0000A582EE222340850221804E62150075CD6
:1052C0002250085805E207EBC8F708EBC9F704D0ED
:1052D00021EBC8F722EBC9F7C8512B6EC9512C6ED0
:1052E00009502B5CCC6F0A502C58CD6FCE6BCF6B16
:1052F000CDAF02D0CE69CF69D0DB6DDB9BEC6AF01D
:10530000C2DBD950190FE96EDACFEAFF07016CDB77
:1053100008342250081804E60750215C085022582F
:1053200001E39DD00A3422500A1804E60950215C9A
:105330000A50225805E209EBC8F70AEBC9F704D076
:1053400021EBC8F722EBC9F7C8512D6EC9512E6E5B
:105350000C340AE20B50D008070E0C5405E2D00EB4
:10536000CC6F070ECD6F04D00BEBCCF70CEBCDF769
:10537000CE6BCF6BCDAF02D0CE69CF698EDB480E3E
:10538000E66E0B0EE66E110EC8DA0701C8512F6EDD
:10539000C951306E08342E50081804E607502D5CB1
:1053A00008502E585CE22DEBE6FF2EEBE6FF640E74
:1053B000E66EE66A07EC6AF00701FE0EE350275C32
:1053C000CC6F41E9E5502858CD6FCE6BCF6BCDAF98
:1053D00002D0CE69CF6961DB23EBE6FF24EBE6FF69
:1053E00025EBE6FF26EBE6FFD7DB0701C851316E60
:1053F000C951326E323409E232343050321804E688
:1054000031502F5C3250305805E2AFEB31F0B0EB49
:1054100032F016D01EDBC9AF02D0CA69CB6918348E
:10542000CB51181808E61550C85D1650C9591750C9
:10543000CA591850CB5904E295EB31F096EB32F093
:1054400008DBC9AF02D0CA69CB69D950190FE96E20
:10545000DACFEAFFC9DA2D2A000E2E229BD77F0E63
:105460000601C85D0EE122DB05DB620EE66EC70EAB
:10547000E66E000E56DA5F0EE66EC70EE66E000EA2
:10548000F5D914DBC8C7F3FFC9C7F4FF65E9E7CF57
:10549000D9FF12000001D8352BE200016B51100B2F
:1054A00027E0000E0001E76E451902E7453502D0FE
:1054B0004551E75C14E245070A0E455D06E1040E1E
:1054C000E66EADEC24F041E90AD0455108E1030E47
:1054D000E66EADEC24F041E900013C0E456F0D0E87
:1054E0000001635D05E00D0EE66EBBEC24F041E9C2
:1054F000000C91D981E942E800016BA953D0D3D9BE
:10550000640E2EDBF3CFD1F0F4CFD2F00001D369DB
:10551000D4690001D5510008000ED6550DE2C3D95B
:10552000640EE66EE66AD5C0E6FFD6C0E6FFDFD8B9
:10553000F3CFD3F0F4CFD4F00001D751000814E238
:10554000B2D9D7510DDB16DB0001D4350250D41986
:1055500004E6D351015CD451025802E3D43504E38C
:1055600001EBD3F002EBD4F00001D8352BE20001BF
:10557000DD07000EDE5B9CEC24F00001DD51DE1146
:1055800008E00001983598510001DC1901E611DAB4
:1055900019E3CAD941E90001DF5110E1E66AC9EC1B
:1055A00024F00BD0000E0001E76ED81902E7D835C1
:1055B00002D0D851E75C06E2B7D941E90001D869C9
:1055C00000014569000E43E9E7CFD9FF120023D956
:1055D00081E942E80501540ECC6F520ECD6FCE6BBF
:1055E000CF6BD06B900E6F6E6EAEFED7606A0F0100
:1055F000A00E196F1869016B200E006F506BE00E42
:105600001D6F1C69800E096F680E086F400E0D6FCC
:10561000800E0C6F116B106F706AD20E716E020EDD
:10562000726E200E736E0501F851000802E26F6A77
:1056300002D0600E6F6E0001DF6B0001466B4E6B97
:105640004F6B45690601EE850A018F0E826F130EBE
:10565000836F010E846F0A01040E886F400E896FFC
:10566000000E8A6F0A019C0E8B6F460E8C6F000E27
:105670008D6F0A014C0EA06F480EA16F000EA26F35
:105680000A01940E8E6F540E8F6F000E906F0A01F8
:10569000F20E946F540E956F000E966F0A01580E1D
:1056A000A36F480EA46F000EA56F0A01420EA66FED
:1056B0004C0EA76F000EA86F0A01D00EAF6F4E0EF2
:1056C000B06F000EB16F43E9E7CFD9FF1200CE23D0
:1056D000CF23E3D9CCEF2DF0850EE66EC70EE66E34
:1056E000000EE66E29EBE6FF2AEBE6FF2ED273C032
:1056F000E6FF74C0E6FF00016351E66EE66A60C033
:10570000E6FF61C0E6FF07EC6AF068C0E6FF68EC00
:1057100027F04EE91200406B400E426F200E416FA1
:105720001200E66EE66AEFEC12F042E91200E9D9E7
:105730007BCAEBF0EC6BED6BEE6B100E1F0B1200E7
:10574000EAD97CCAEFF0F06BF16BF26B180E1F0B0D
:105750001200E66EE66A0ADAD3EC68F0E552E5CFAD
:10576000D3F7E5CFD2F7E5CFD1F7E7CFD0F70701F1
:10577000D051CC5DC86FD151CD59C96FD251CE59DE
:105780001200A00EE66E860EE66E010EE66EE66A6A
:1057900003EBD0F704EBD1F70701D26BD36B120008
:1057A000E66EE4D995EF2DF078CAE4F00001E36BE2
:1057B0000A0177510001E3251200D0C7E6FFD1C7E7
:1057C000E6FFD2C7E6FFD3C7E6FF1200E66E02EBA4
:1057D000E6FF03EBE6FF160EE66E110EE66E010E17
:1057E000E66ED5D99FEC32F047E9F3CFE6FFF4CF70
:1057F000E6FF58EC32F045E9120079CAE3F0000107
:10580000E46BE56BE66B7ACAE7F0E86BE96BEA6B91
:10581000080E1F0B1200D9CFE6FFE1CFD9FF12000F
:10582000406B426B800E416F46C046FF47C047FF4A
:1058300048C048FF49C049FF4AC04AFF4BC04BFF20
:105840004CC04CFF4DC04DFFAFD1476F486B496B0B
:1058500000EB4AFF4B6BADEF2DF0EF51E327F0511A
:10586000E423F151E523F251E6231200E66E29EB21
:10587000E6FF2AEBE6FF58EC32F045E9F350296EDB
:10588000F4502A6E84D96AEC12F042E912004AEC14
:1058900074F042E9F3CFE6FF120006EBE9FF07EBF5
:1058A000EAFFEF501200000EE66EE66A7FC0E6FFE8
:1058B000CFC0E6FFD0C0E6FF120043C0E6FF44C001
:1058C000E6FF1200CD6FCE6BCF6B10D90BEBD4F788
:1058D0000CEBD5F7D66BD76B120004EBC8F705EBD2
:1058E000C9F706EBCAF707EBCBF71200D4C7E6FF00
:1058F000D5C7E6FFD6C7E6FFD7C7E6FF1200D890A8
:10590000E737E837E937EA37E8061200D890EB378F
:10591000EC37ED37EE37E8061200E66EE66ACCEFBC
:105920002DF0E66E34D911D106011E0EFC6FDAC0DF
:10593000E6FFBBEC24F041E9D9C0E6FFADEF24F06F
:10594000D890EF37F037F137F237E806120041E927
:10595000010EBFEF2DF041E9E7CFD9FF1200EA6A4F
:10596000810FE96E000EEA22E552E750EF6E012A40
:105970001200496B4A6B4B6B4C6B400E4D6F14D150
:1059800027EC88F045E9F6D80150021012007CCAD5
:10599000E4F00001E36B0A017B510001E3251200F2
:1059A0000128EA6A750FE96E0A0EEA22EF50E66EE8
:1059B0001200000197510001DB5D000198510001C8
:1059C000DC59120006EBE9FF07EBEAFF062A000E9E
:1059D0000722EF6A120015EBE6FF16EBE6FF17EB66
:1059E000E6FF18EBE6FF1200C851EE26C951EE2281
:1059F000CA51EE22CB51EE2212000701C8511F6E90
:105A0000C951206E1200E66AE66AE66AE66A000E8E
:105A1000E66EE66A120001EBE6FF02EBE6FF4AECF7
:105A200074F042E912001F501D5CC86F20501E58D0
:105A3000C96FC8511200D890CB33CA33C933C833A9
:105A4000E8061200A00EE66EC70EE66E000EE66EC9
:105A5000120031EBC8F732EBC9F7CA6BCB6B1200FF
:105A600006EBE6FF07EBE6FF120000EBE6FF01EBBB
:105A7000E6FF1200C8C7E6FFC9C7E6FF1200800EA6
:105A800000016B151200E552E5CFCBF7E5CFCAF761
:105A9000E5CFC9F7E7CFC8F71200CCC7E6FFCDC7FF
:105AA000E6FFCEC7E6FFCFC7E6FF12003C0EE66E6C
