:020000040000FA
:0600000012EF39F01200BE
:020006001200E6
:0600080063EF24F012007A
:02000E001200DE
:020010000100ED
:0100120000ED
:040013000000004D9C
:060018004EEF1BF0120088
:02001E000700D9
:1000200013000000FA000000040000000A73000042
:100030000008000040000000E9720000D804000041
:1000400021000000B4720000CA0600003500000064
:1000500012000000FF060000010000006D720000A9
:10006000640700004700000010000000FE000000D0
:04007000020000008A
:0C007400F4EC0CF03AEC0DF0EE6AEE6AD1
:10008000EE6AEE6A6DEC0CF0EE6AEE6AEE6AEE6A0B
:10009000A9EC09F0010EEE6E230EEE6E450EEE6E2B
:1000A000670EEE6EA9EC09F0040EEBEC0AF0890E77
:1000B000EE6EAB0EEE6ECD0EEE6EEF0EEE6EA9ECAA
:1000C00009F0080EEBEC0AF0FE0EEE6EDC0EEE6EA2
:1000D000BA0EEE6E980EEE6EA9EC09F00C0EEBEC7B
:1000E0000AF0760EEE6E540EEE6E320EEE6E100EBE
:1000F000EE6EE552E7CFD9FF1200F4EC0CF0080EDB
:10010000E126030E046E6DEC0CF01FEC0BF003E027
:100110003FEC0BF0FDE13F0E001679EC0BF0AEEC7E
:100120000CF0F90EDBCF04F0FA0EDBCF05F0066A17
:10013000076A05AE02D006680768030E1F0B07E0CA
:10014000D8900436053606360736E806F9E16DEC38
:100150000CF00450EF26EECF00F00550EF22EECF6A
:1001600001F00650EF22EECF02F00750EF22EECF63
:1001700003F0F90EDBCF08F0FA0EDBCF09F00A6AC4
:100180000B6A09AE02D00A680B68030E1F0B03E06E
:1001900050EC0BF0FDE10850005C095001580A508A
:1001A00002580B50035806E23AEC0DF0EE2AEE220C
:1001B000EE22EE2257EC0BF0026A036A01AE02D087
:1001C000026803681D0E3FEC0BF0FDE13AEC0DF008
:1001D000E7EC0CF0400E046E056A066A076AD9CF98
:1001E000E9FF25EC0BF0EE500758060E00C0DBFFD0
:1001F000070E01C0DBFF57EC0BF011EC0DF00150C6
:100200000318E8AE02D0033404D00250005C03505F
:1002100001586AE3060EDBCFE6FF070EDBCFE6FFF1
:1002200013EC0BF0F0EC0CF0E9CF02F0EACF03F0A6
:10023000DB50E924006E010EDB50EA206FEC0BF07E
:10024000CFEC2EF0046E060EE15E0450F0EC0CF0E4
:100250000AEC0BF0A9EC09F0E9CF02F0EACF03F0C9
:100260002EEC0BF0060EDBCF28F0070EDBCF29F0CB
:10027000040E28C0DBFF050E29C0DBFF3F0EE76E32
:10028000D7EC0CF0E7500026000E0122D0EC0CF069
:1002900001500318E8AE02D0033404D00250005CD1
:1002A000035001581EE2040EDBCF02F0050EDBCF37
:1002B00003F0FB0EDB500224006EFC0EDB5003202B
:1002C0006FEC0BF0A9EC09F0E9CF04F0EACF05F0F0
:1002D0002EEC0BF02DEC0DF0400EEE26000EED2274
:1002E000CDD718EC0DF004D0040EDB6A050EDB6AE6
:1002F000D0EC0CF0040EDB50025C006E050EDB50FF
:1003000003586FEC0BF046EC0BF0046EFC0EDB5068
:100310000720056E04C0E6FFE66EF0EC0CF0E9CFB6
:100320000AF0EACF0BF0DB50E924086E010EDB5037
:10033000EA20096E08C0E6FFE66ECFEC2EF00C6EE8
:10034000060EE15E0C50080EE15C02E2E16AE55245
:100350001AEF0BF064EC0BF0080E39EC0BF0100EFA
:10036000EBEC0AF00AEC0BF0D9CFE6FFDACFE6FFB0
:100370005EEC0BF0030E046E1FEC0DF0100EEBECB8
:100380000AF01FEC0BF003E03FEC0BF0FDE13F0E39
:10039000001679EC0BF05DEC0CF0380EEE5C000E04
:1003A000EE58000EEE58000EEE580DE2380E046EB8
:1003B000056A066A076A36EC0DF025EC0BF0026E52
:1003C000EE50075813D0780E086E096A0A6A0B6A55
:1003D00036EC0DF07EEC0DF0085C006EEE50095826
:1003E000016EEE500A58026EEE500B58036E7AEC16
:1003F0000CF00C0EDBCFE6FF0D0EDBCFE6FF000EA0
:10040000E66E080EE66E13EC0BF068EC0BF0080ECF
:10041000E66EE66AD9CFE6FFDACFE6FF13EC0BF023
:1004200068EC0BF0100E39EC0BF00AEC0BF0FD0E43
:10043000DBCFE6FFFE0EDBCFE6FF5EEC0BF0100E2F
:10044000E15C02E2E16AE5521AEF0BF064EC0BF0BA
:10045000A9EC09F0EECFDFFF010EEECFDBFF020EBD
:10046000EECFDBFF030EEECFDBFF040E4FEC0CF004
:10047000040EEECFDBFF050EEECFDBFF060EEECF58
:10048000DBFF070EEECFDBFF080E4FEC0CF0080E83
:10049000EECFDBFF090EEECFDBFF0A0EEECFDBFF68
:1004A0000B0EEECFDBFF0C0E4FEC0CF00C0EEECF74
:1004B000DBFF0D0EEECFDBFF0E0EEECFDBFF0F0EE0
:1004C000EECFDBFF400EE66EE66AE66AE66A13EC04
:1004D0000BF0AB0EE66E070EE66E1FEC08F0006E3A
:1004E000080EE15E0050C3EC0BF00AEC0AF0780E47
:1004F0000026A40E01226A0E0222D70EF9EC0CF09F
:1005000003E04FEC09F0FDE121EC09F0190E3EEC9F
:1005100009F0FDE17DEC0BF017EC0AF0560E002619
:10052000B70E0122C70E0222E80E6BEC0DF003E0BD
:100530004FEC09F0FDE131EC09F0140E3EEC09F04E
:10054000FDE198EC0BF024EC0AF0DB0E0026700EB7
:100550000122200E0222240E3EEC0DF003E04FECAF
:1005600009F0FDE114EC09F00F0E3EEC09F0FDE19D
:10057000B0EC0BF031EC0AF0EE0E0026CE0E0122AC
:10058000BD0E0222C10E6FEC0DF003E04FEC09F03E
:10059000FDE124EC09F00A0E3EEC09F0FDE173ECFC
:1005A0000DF03EEC0AF0AF0E00260F0E01227C0E7D
:1005B0000222F50EF9EC0CF003E04FEC09F0FDE13E
:1005C00021EC09F0190E3EEC09F0FDE17DEC0BF099
:1005D0004BEC0AF02A0E0026C60E0122870E0222DC
:1005E000470E6BEC0DF003E04FEC09F0FDE131EC50
:1005F00009F0140E3EEC09F0FDE198EC0BF058EC1C
:100600000AF0130E0026460E0122300E0222A80E1A
:100610003EEC0DF003E04FEC09F0FDE114EC09F0C5
:100620000F0E3EEC09F0FDE1B0EC0BF065EC0AF0CA
:10063000002A950E0122460E0BEC0DF0160E1F0B34
:1006400003E04FEC09F0FDE124EC09F00A0E3EEC6A
:1006500009F0FDE173EC0DF072EC0AF0D80E002603
:10066000980E0122800E0222690EF9EC0CF003E0D4
:100670004FEC09F0FDE121EC09F0190E3EEC09F018
:10068000FDE17DEC0BF07FEC0AF0AF0E0026F70EDB
:100690000122440E02228B0E6BEC0DF003E04FECB6
:1006A00009F0FDE131EC09F0140E3EEC09F0FDE13A
:1006B00098EC0BF08CEC0AF0B10E00265B0E0122D8
:1006C000FF0E02223EEC0DF003E04FEC09F0FDE1DD
:1006D00014EC09F00F0E3EEC09F0FDE1B0EC0BF06C
:1006E00099EC0AF0BE0E0026D70E01225C0E022203
:1006F000890E6FEC0DF003E04FEC09F0FDE124EC06
:1007000009F00A0E3EEC09F0FDE173EC0DF0A6ECE9
:100710000AF0220E0026110E0122900E02226B0E0C
:10072000F9EC0CF003E04FEC09F0FDE121EC09F0ED
:10073000190E3EEC09F0FDE17DEC0BF0B3EC0AF094
:10074000930E0026710E0122980E74EC0BF00C0F24
:10075000EEEC08F070EC09F00C0E1F0B03E04FEC10
:1007600009F0FDE131EC09F0140E3EEC09F0FDE179
:1007700098EC0BF0C0EC0AF08E0E0026430E01221E
:10078000790E0222A60E3EEC0DF003E04FEC09F0CC
:10079000FDE114EC09F00F0E3EEC09F0FDE1B0ECC8
:1007A0000BF0CDEC0AF0210E0026080E0122B40E4B
:1007B0000222490E6FEC0DF003E04FEC09F0FDE171
:1007C00024EC09F00A0E3EEC09F0FDE1E4EC0BF03C
:1007D00017EC0AF0620E0026250E01221E0E0222E0
:1007E000F60EFDEC0CF003E04FEC09F0FDE121EC1E
:1007F00009F01B0E3EEC09F0FDE100EC0CF058ECAA
:100800000AF0400E0026B30E0122400E0222C00E56
:1008100042EC0DF003E04FEC09F0FDE131EC09F0A2
:10082000170E3EEC09F0FDE1D7EC0BF099EC0AF065
:10083000510E00265A0E01225E0E0222260E46ECB2
:100840000DF003E04FEC09F0FDE114EC09F0120E9D
:100850003EEC09F0FDE1ECEC0BF00AEC0AF0AA0E1C
:100860000026C70E0122B60E0222E90E4AEC0DF058
:1008700003E04FEC09F0FDE124EC09F00C0E3EEC36
:1008800009F0FDE1E4EC0BF04BEC0AF05D0E002604
:10089000100E01222F0E0222D60EFDEC0CF003E00A
:1008A0004FEC09F0FDE121EC09F01B0E3EEC09F0E4
:1008B000FDE100EC0CF08CEC0AF0530E0026140E57
:1008C0000122440E0222020E42EC0DF003E04FEC36
:1008D00009F0FDE131EC09F0170E3EEC09F0FDE105
:1008E000D7EC0BF0CDEC0AF0810E0026E60E0122CB
:1008F000A10E0222D80E46EC0DF003E04FEC09F0F9
:10090000FDE114EC09F0120E3EEC09F0FDE1ECEC17
:100910000BF03EEC0AF0C80E0026FB0E0122D30EAF
:100920000222E70E4AEC0DF003E04FEC09F0FDE186
:1009300024EC09F00C0E3EEC09F0FDE1E4EC0BF0C8
:100940007FEC0AF0E60E0026CD0E0122E10E022217
:10095000210EFDEC0CF003E04FEC09F0FDE121EC81
:1009600009F01B0E3EEC09F0FDE100EC0CF0C0ECD0
:100970000AF0D60E0026070E0122370E0222C30E01
:1009800042EC0DF003E04FEC09F0FDE131EC09F031
:10099000170E3EEC09F0FDE1D7EC0BF031EC0AF05C
:1009A000870E00260D0E0122D50E0222F40E46EC13
:1009B0000DF003E04FEC09F0FDE114EC09F0120E2C
:1009C0003EEC09F0FDE1ECEC0BF072EC0AF0ED0E00
:1009D0000026140E01225A0E0222450E4AEC0DF09A
:1009E00003E04FEC09F0FDE124EC09F00C0E3EECC5
:1009F00009F0FDE1E4EC0BF0B3EC0AF0050E002683
:100A0000E90E0122E30E0222A90EFDEC0CF003E038
:100A10004FEC09F0FDE121EC09F01B0E3EEC09F072
:100A2000FDE100EC0CF024EC0AF0F80E0026A30E19
:100A30000122EF0E0222FC0E42EC0DF003E04FEC1F
:100A400009F0FDE131EC09F0170E3EEC09F0FDE193
:100A5000D7EC0BF065EC0AF0D90E0026020E01224D
:100A60006F0E0222670E46EC0DF003E04FEC09F02A
:100A7000FDE1DADB120E3EEC09F0FDE1ECEC0BF0EF
:100A8000A6EC0AF08A0E00264C0E01222A0E022243
:100A90008D0E4AEC0DF003E04FEC09F0FDE1D4DBE4
:100AA0000C0EECDBFEE11BEC0CF04BEC0AF0420E02
:100AB0000026390E0122FA0E0222FF0E01EC0DF083
:100AC00002E0EDDBFEE1BDDB1C0ED8DBFEE133EC2A
:100AD0000CF072EC0AF0810E0026F60E0122710E67
:100AE0000222870E4EEC0DF002E0D9DBFEE1B9DB0D
:100AF000150EC4DBFEE122EC0CF099EC0AF0220E9C
:100B00000026610E01229D0E02226D0E52EC0DF0A8
:100B100002E0C5DBFEE188DB100EB0DBFEE13BEC62
:100B20000CF0C0EC0AF00C0E0026380E0122E50E87
:100B30000BEC0DF0170E1F0B02E0B1DBFEE184DBC6
:100B4000090E9CDBFEE11BEC0CF017EC0AF0440EE6
:100B50000026EA0E0122BE0E0222A40E01EC0DF0C8
:100B600002E09DDBFEE16DDB1C0E88DBFEE133EC79
:100B70000CF03EEC0AF0A90E0026CF0E0122DE0E8C
:100B800002224B0E4EEC0DF002E089DBFEE169DB48
:100B9000150E74DBFEE122EC0CF065EC0AF0600E41
:100BA00000264B0E0122BB0E0222F60E52EC0DF077
:100BB00002E075DBFEE138DB100E60DBFEE13BECB2
:100BC0000CF08CEC0AF0700E0026BC0E0122BF0E59
:100BD0000222BE0E77EC0DF002E061DBFEE134DBB9
:100BE000090E4CDBFEE11BEC0CF0B3EC0AF0C60E78
:100BF00000267E0E01229B0E0222280E01EC0DF033
:100C000002E04DDBFEE11DDB1C0E38DBFEE133ECC8
:100C10000CF00AEC0AF0FA0E0026270E0122A10EB3
:100C20000222EA0E4EEC0DF002E039DBFEE119DBA8
:100C3000150E24DBFEE122EC0CF031EC0AF0850EFF
:100C40000026300E0122EF0E0222D40E52EC0DF0DF
:100C500002E025DBFEE1E8DA100E10DBFEE13BEC02
:100C60000CF058EC0AF0050E00261D0E0122880E2D
:100C70000222040E77EC0DF002E011DBFEE1E4DA73
:100C8000090EFCDAFEE11BEC0CF07FEC0AF0390EE9
:100C90000026D00E0122D40E0222D90E01EC0DF056
:100CA00002E0FDDAFEE1CDDA1C0EE8DAFEE133EC1B
:100CB0000CF0A6EC0AF0E50E0026990E0122DB0EE0
:100CC0000222E60E4EEC0DF002E0E9DAFEE1C9DAAE
:100CD000150ED4DAFEE122EC0CF0CDEC0AF0F80EA1
:100CE00000267C0E0122A20E02221F0E52EC0DF0F5
:100CF00002E0D5DAFEE198DA100EC0DAFEE13BEC54
:100D00000CF0A2DB650E0026560E0122AC0E02226C
:100D1000C40E77EC0DF002E0C2DAFEE195DA090EBE
:100D2000ADDAFEE109EC0CF075DB440E0026220E74
:100D30000122290E0222F40E06EC0DF002E0AFDAD9
:100D4000FEE17FDA1A0E9ADAFEE1F4EC0BF0BDDB7D
:100D5000970E0026FF0E01222A0E0222430E56ECA9
:100D60000DF002E09CDAFEE17CDA160E87DAFEE195
:100D700029EC0CF0C0EC0AF0A70E0026230E01228D
:100D8000940E0222AB0E5AEC0DF002E088DAFEE17E
:100D90004BDA110E73DAFEE112EC0CF07CDB390E4B
:100DA0000026A00E0122930E0222FC0E5EEC0DF036
:100DB00002E075DAFEE148DA0B0E60DAFEE109ECDA
:100DC0000CF0C4DBC30E0026590E01225B0E02227A
:100DD000650E06EC0DF002E062DAFEE132DA1A0E80
:100DE0004DDAFEE1F4EC0BF03CDB920E0026CC0E6B
:100DF00001220C0E02228F0E56EC0DF002E04FDAAB
:100E0000FEE12FDA160E3ADAFEE129EC0CF084DB73
:100E10007D0E0026F40E0122EF0E0222FF0E5AEC88
:100E20000DF002E03CDAFEE1FFD9110E27DAFEE117
:100E300012EC0CF0FCDAD10E00265D0E0122840EBD
:100E40000222850E5EEC0DF002E029DAFEE1FCD90B
:100E50000B0E14DAFEE109EC0CF044DB4F0E002619
:100E60007E0E0122A80E02226F0E06EC0DF002E0AB
:100E700016DAFEE1E6D91A0E01DAFEE1F4EC0BF027
:100E80008CDBE00E0026E60E01222C0E0222FE0E66
:100E900056EC0DF002E003DAFEE1E3D9160EEED9CE
:100EA000FEE129EC0CF004DB140E0026430E0122B7
:100EB000010E0222A30E5AEC0DF002E0F0D9FEE181
:100EC000B3D9110EDBD9FEE112EC0CF04CDBA10E14
:100ED0000026110E0122080E02224E0E5EEC0DF0CD
:100EE00002E0DDD9FEE1B0D90B0EC8D9FEE109EC74
:100EF0000CF0C4DA820E00267E0E0122530E02226E
:100F0000F70E06EC0DF002E0CAD9FEE19AD91A0EEE
:100F1000B5D9FEE1F4EC0BF00CDB350E0026F20E39
:100F200001223A0E0222BD0E56EC0DF002E0B7D9B6
:100F3000FEE197D9160EA2D9FEE129EC0CF084DA75
:100F4000BB0E0026D20E0122D70E02222A0E5AEC28
:100F50000DF002E0A4D9FEE167D9110E8FD9FEE1B0
:100F600012EC0CF0CCDA910E0026D30E0122860E84
:100F70000222EB0E5EEC0DF002E091D9FEE164D9A5
:100F80000B0E7CD9FEE10BD9E4D9BAEC0CF0040EBF
:100F90004FEC0CF0A1EC0CF0080E4FEC0CF094ECC4
:100FA0000CF00C0E4FEC0CF087EC0CF0100EE15C2A
:100FB00002E2E16AE5523ED312DBFCDA3AE2DFCF2D
:100FC00006F0010EDBCF07F0D89006360736D89032
:100FD00006360736FB0EDB5006240DEC0DF007201D
:100FE000EA6EEECF02F00250E66ED7EC0CF0B8D904
:100FF000080E44D9FEE10450E66E010E43EC0CF0FD
:10100000AFD9100E3BD9FEE10450E66E020E43EC60
:101010000CF0A6D9180E32D9FEE10450E66E030E8C
:1010200043EC0CF071EC0CF0E552E750EF6EE4DAB3
:10103000C4D7080EE15C02E2E16AE552FBD2CFDAE6
:10104000B9DA01E3A2D022DB0DEC0DF00720EA6E45
:10105000EFCF02F0036A046A056A010E0C6E0D6A96
:101060000E6A0F6A2DEC0DF0EE500C26EE500D229C
:10107000EE500E22EE500F22FB0EDB500C240DEC36
:101080000DF00D20EA6EEFCF08F0096A0A6A0B6ACC
:10109000080E1F0B02E004DBFEE1085002120950AB
:1010A00003120A5004120B500512020E146E156A38
:1010B000166A176A2DEC0DF0EE501426EE5015222C
:1010C000EE501622EE501722FB0EDB5014240DECCE
:1010D0000DF01520EA6EEFCF10F0116A126A136A54
:1010E000100E1F0B07E0D89010361136123613364B
:1010F000E806F9E1105002121150031212500412C6
:1011000013500512030E1C6E1D6A1E6A1F6A2DEC19
:101110000DF0EE501C26EE501D22EE501E22EE5019
:101120001F22FB0EDB501C240DEC0DF01D20EA6E7F
:10113000EFCF18F0196A1A6A1B6A180E1F0B07E026
:10114000D890183619361A361B36E806F9E11850C9
:101150000212195003121A5004121B500512DFCF4D
:1011600000F0010EDBCF01F0D89000360136D890A8
:1011700000360136B6DB02C0EEFF03C0EEFF04C04E
:10118000EEFF05C0EEFF38DA5BD7080EE15C02E245
:10119000E16AE5524FD288DB90DB87EF0CF084DB0D
:1011A000040E00C0DBFF050E01C0DBFF060E02C00F
:1011B000DBFF070E03C0DBFF2DEC0DF094EF0CF00E
:1011C00073DB98DB62EC0DF0DACFEAFFBAEF0CF0DC
:1011D0006BDBC4DB31EC0DF0A1EF0CF0E96EDACF84
:1011E000EAFFE7EF0CF0DACFEAFF0C50EE14086EDE
:1011F0000D50EE14096E0E50EE140A6E0F50EE14E0
:101200000B6EC4D303220050DE260150DE220250B2
:10121000DE220350DD22DD52DD5231EC0DF026ECF2
:101220000DF0EFCF03F01200080EDBCF04F0090E33
:10123000DBCF05F00A0EDBCF06F00B0EDBCF07F09D
:10124000120031EC0DF0BAD3040EDBCF04F0050E22
:10125000DBCF05F0060EDBCF06F0070EDBCF07F085
:1012600012000C0EDBCF04F00D0EDBCF05F00E0EDE
:10127000DBCF06F00F0EDBCF07F01200D89007325D
:10128000063205320432E80612007EEC0DF0081634
:10129000EE500916EE500A16EE500B1677D3D89082
:1012A0000036013602360336E80612007EEC0DF0F9
:1012B0000416EE500516EE500616EE5007161200F4
:1012C000DACFEAFF0850EE18046E0950EE18056EEA
:1012D0000A50EE18066E0B50EE18076E04501200FE
:1012E0000C0EDBCF00F00D0EDBCF01F00E0EDBCFCE
:1012F00002F00F0EDBCF03F01200080EDBCF00F080
:10130000090EDBCF01F00A0EDBCF02F00B0EDBCFB4
:1013100003F012004CDB11EF0DF0F0DB041AEE507D
:10132000051AEE50061AEE50071A04501200E6DBBA
:10133000081AEE50091AEE500A1AEE500B1A120053
:10134000DDDB0412EE500512EE500612EE500712CD
:101350001200FD0EDBCFE9FFFE0EDBCFEAFF12002D
:10136000C0DAE552E750EF6EDFCF08F0010EDBCFB9
:1013700009F0D89008360936D89008360936FB0EA1
:10138000DB5008244ADB0920EA6E18D30C0EDBCFB1
:1013900008F00D0EDBCF09F00E0EDBCF0AF00F0EBA
:1013A000DBCF0BF01200080EDBCF08F0090EDBCF0D
:1013B00009F00A0EDBCF0AF00B0EDBCF0BF01200A8
:1013C000040EDBCF08F0050EDBCF09F0060EDBCFF5
:1013D0000AF0070EDBCF0BF0120043DBEECF08F074
:1013E000EECF09F0EECF0AF0EFCF0BF01200DBCF1B
:1013F0000FF00C1E0D1E0E1E0F1E1200081E091EE1
:101400000A1E0B1ED9501200041E051E061E071EC2
:10141000D95012000701AB25006E0550AC21016EBA
:101420000650AD21026E0750AE21036E1200070177
:10143000AF25006E0550B021016E0650B121026E3D
:101440000750B221036E12000701B325006E05504C
:10145000B421016E0650B521026E0750B621036E0D
:1014600012000701B725006E0550B821016E065025
:10147000B921026E0750BA21036E12000701BB2585
:10148000006E0550BC21016E0650BD21026E075052
:10149000BE21036E12000701BF25006E0550C0215A
:1014A000016E0650C121026E0750C221036E120068
:1014B0000701C325006E0550C421016E0650C521E9
:1014C000026E0750C621036E12000701C725006E89
:1014D0000550C821016E0650C921026E0750CA216D
:1014E000036E12000701CB25006E0550CC21016E62
:1014F0000650CD21026E0750CE21036E1200070167
:10150000CF25006E0550D021016E0650D121026E0C
:101510000750D221036E12000701D325006E05503B
:10152000D421016E0650D521026E0750D621036EDC
:1015300012000701D725006E0550D821016E065014
:10154000D921026E0750DA21036E12000701DB2554
:10155000006E0550DC21016E0650DD21026E075041
:10156000DE21036E12000701DF25006E0550E02129
:10157000016E0650E121026E0750E221036E120057
:101580000701E325006E0550E421016E0650E521B8
:10159000026E0750E621036E12000701E725006E78
:1015A0000550E821016E0650E921026E0750EA213C
:1015B000036E1200F70EDBCF00F0F80EDBCF01F068
:1015C000EFD94BDA0050EE5C0150EE580250EE5865
:1015D0000350EE581200E926000EEA22120004DA47
:1015E000080EE12625DA040EDB6A050EDB6A060E1C
:1015F000DB6A070EDB6A120034DAEE2A000EEE22F6
:10160000EE22EE222ADA040EEE26000EEE22EE2262
:10161000EE221200E9CF00F0EACF01F0E9CFE6FFB9
:10162000EACFE6FF1200FB0EDBCFE6FFFC0EDBCFBE
:10163000E6FF1200E16EE552E7CFD9FF1200045039
:101640001F0B04DAEECF03F0120058DA045C006ED0
:10165000EE500558016EEE5006581200E9CFE6FF35
:10166000EACFE6FF26EC02F0E552E552E552E552FC
:101670001200E66EE66AE66AE66A1FEF0DF0D890A1
:101680000332023201320032E8061200040EDBCFD0
:1016900006F0050EDBCF07F0FB0EDB500624120030
:1016A000D890083609360A360B36E8061200F90ECD
:1016B000DBCF00F0FA0EDBCF01F012007DDC026E12
:1016C000080EE15E025012008FD9100EE1261200C2
:1016D0007DEC00F0006E060EE15E00501200016E1F
:1016E00000C0E6FFE66E12000222FD0E0322D95072
:1016F0001200016A026A036A12006ADDA5DDD9CF11
:10170000E9FFD4DDAED9EECF0CF0EECF0DF0EECF89
:101710000EF0EFCF0FF00C1E0D1E0E1E0F1EA6D9E1
:10172000F3EF08F00322D950080F58DD7DEF09F0E0
:1017300047DD87DDC7D9BADD0C0EDBCF0CF00D0E0F
:10174000DBCF0DF00E0EDBCF0EF00F0E50DEDAD930
:10175000F3EF08F00322D9500C0F40DD70EF09F0D1
:101760001ADD7FDD83D9A2DD080EDBCF0CF0090E78
:10177000DBCF0DF00A0EDBCF0EF00B0E38DED9CF2B
:10178000E9FFF3EF08F050DDBDD990DD040EDBCFAB
:101790000CF0050EDBCF0DF0060EDBCF0EF0070EC2
:1017A00026DE90D9F3EF08F00322D9508FD108DD5F
:1017B0004BDD88D97BDD04DE081E091E0A1E0B1EC8
:1017C000D9CFE9FF45EF09F0EADC4BDD9BD96EDDAF
:1017D000DDDD14DE080F8FD1DEDC33DD47D966DDB9
:1017E000FCDD0CDE0C0F87D1F3DC1EDD041E051EB4
:1017F000061E071ED9CFE9FFA3DD84D98DEF09F0BE
:10180000E7DC12DDD9CFE9FF51DDCDDDF7DD040FD7
:1018100072D1C5DC26DDF8DD040FE96E91DD26D935
:101820008DEF09F0B8DC0DDDEFDD080FE96E88DD26
:1018300049D98DEF09F0B3DCB6DD64D978DD42D942
:1018400060EF09F0BDDCC9DD3DD971DD5BD960EF2A
:1018500009F0B6DCF9DCD8DD0C0FE96E71DDD9CF0B
:10186000E9FF8DEF09F0B4DCABDDD9CFE9FF5FDD37
:10187000FDD860EF09F08FDC89DDF8D858DDD9CFCD
:10188000E9FF60EF09F0006E34DFE7D8EE50002684
:10189000EE500122EE500222EE5003221200E76EBB
:1018A00058DDE750EBEF0AF004500012055001122A
:1018B00006500212075003121200080E00C0DBFF90
:1018C000090E01C0DBFF0A0E02C0DBFF0B0E03C0D6
:1018D000DBFFCCD8DACFEAFF12003BDD100EEBEFD6
:1018E0000AF0FD0EDB500024E96EFE0EDB500120F5
:1018F000EA6E12000C0E00C0DBFF0D0E01C0DBFF14
:101900000E0E02C0DBFF0F0E03C0DBFF12000C0E39
:10191000DB50EE260D0EDB50EE220E0EDB50EE22DB
:101920000F0EDB50EE221200080EDB50EE26090EE1
:10193000DB50EE220A0EDB50EE220B0EDB50EE22C5
:101940001200040EDB50EE26050EDB50EE22060ED2
:10195000DB50EE22070EDB50EE22120000C0DFFF4C
:10196000010E01C0DBFF020E02C0DBFF030E03C04D
:10197000DBFF1200DF50EE26010EDB50EE22020EDE
:10198000DB50EE22030EDB50EE2212000850041250
:10199000095005120A5006120B500712045012008B
:1019A000F90EDBCF02F0FA0EDBCF03F01200040ECB
:1019B000DBCF00F0050EDBCF01F01200EECF04F01C
:1019C000EECF05F0EECF06F0EFCF07F0120000509B
:1019D000EE260150EE220250EE220350EE221200BB
:1019E000B8DC180EEBEF0AF0D9CFE6FFE1CFD9FF54
:1019F000120008DC070E1F0B120004DC050E1F0B83
:101A0000120002EC09F0040E1F0B120002EC09F0A8
:101A1000060E1F0B120068DE59D0E96EFC0EDB507B
:101A20001200060EDBCF02F0070EDBCF03F0120030
:101A3000DE6ADE6ADE6ADD6ADD52DD521200FB0E0E
:101A4000DBCFE9FFFC0EDBCFEAFF1200EECF00F0A8
:101A5000EECF01F0EECF02F0120054D8DACFEAFF59
:101A60001200D9CFE9FFDACFEAFF1200D950080FF0
:101A7000E96E120032DF040EEBEF0AF053DE110EB6
:101A80001F0B120067DE090E1F0B12004BDE0E0E3D
:101A90001F0B120089DE140E1F0B12005BDE0B0EF3
:101AA0001F0B12003FDE100E1F0B120053DE0A0E3A
:101AB0001F0B120037DE0F0E1F0B120075DE150E06
:101AC0001F0B1200D9500C0FE96E1200040FEEEC40
:101AD00008F08AEF09F03EDE0C0E1F0B120064DEE8
:101AE000160E1F0B1200CFEC08F0C3EF0BF05CDEFC
:101AF000170E1F0B1200E96E45EF09F0DACFEAFF6F
:0C1B0000EE501200D950040FE96E1200E4
:041B0C000601FD6B66
:101B1000FE6B12000601CC6B12000601010ECD6FA8
:101B2000050E06EC15F00601520E646F5C0E656F33
:101B300049EC1CF00A0E06EF15F00601500E646F1A
:101B40005C0E0BEF15F0B7EC13F0030EE126060167
:101B5000FC0545E1450E0601055D41E0410E055DD0
:101B60003EE0610E055D3BE0500E055D38E0020E83
:101B700005C6DBFF060EE66E060EE66E800EE66E0E
:101B8000000EFFEC13F098EC13F0F8EC13F002E603
:101B90004BEC14F005E2B3EC14F0F7E3DB2AF5D7D5
:101BA000AEEC14F0AEEC2FF0CCEC14F0800EE66E40
:101BB000000E2DEC13F0480E006E5C0EA3EC14F03A
:101BC000020EDBCF07F6080EE66E060EE66EBCECE4
:101BD00013F0AEEC14F007EC28F050EC14F012EC1B
:101BE00015F0AEEC2FF0CCEC14F0D4EC13F0BCEC10
:101BF00013F012EC15F05CEC28F0E552E5523DECE8
:101C000014F0030EE15C02E2E16AE55262EF13F0C8
:101C1000B7EC13F0050EE126D650016E006A030EF4
:101C200000C0DBFF040E01C0DBFFD75004EC14F052
:101C3000DF6A080EDF5C0BE2DF50EA6AEC0FE96E48
:101C4000070EEA22EF5004EC14F0DF2AF2D7030E5D
:101C5000DBCFE6FF040EDBCFE6FF02EC36F0E55209
:101C6000E552DF6A160EDF5C0DE277EC13F0DF5011
:101C7000EA6ACE0FE96E060EEA22E552E750EF6EF1
:101C8000DF2AF0D70601E46B090E16EC14F0600EA3
:101C9000E66E000EE66E2CEC14F0BBEC14F02CECAF
:101CA00014F0160EE66EE66A55EC14F0CEEC34F045
:101CB000026E0A0EE15E025006013D0E646F5C0E7C
:101CC000656F49EC1CF055EC14F05AEC1CF044EC38
:101CD00014F0E1EC13F05CEC28F0E552E55244EC32
:101CE00014F0080E16EC14F02CEC14F05AEC1CF066
:101CF0003DEC14F0050EE15C02E2E16AE55262EFB0
:101D000013F00EEC15F0340E006E5C0EA3EC14F024
:101D1000F5EC14F007016651E66EE66A64C7E6FF6B
:101D200065C7E6FFBCEC13F007016F51E66EE66A8B
:101D3000270E006E5C0E1BEC13F00D0ED0EC14F0B1
:101D400007016751040A0CE0060A06E0030A0CE1E9
:101D50001D0E006E5C0E0BD0150E006E5C0E07D0D3
:101D60000F0E006E5C0E03D0060E006E5C0EA0EC33
:101D700014F007016851040A12E0070A0CE0020A95
:101D800006E0010A11E1FC0E006E5B0E10D0F30EAE
:101D9000006E5B0E0CD0EC0E006E5B0E08D0DF0EFA
:101DA000006E5B0EA0EC14F0DD0E006E5B0EA0EC7E
:101DB00014F092EC13F04D080AE170C7E6FF71C70A
:101DC000E6FFD90E006E5B0ED4EC14F00FD070C796
:101DD00000F071C701F0040E80EC14F0FDE12FEC6F
:101DE00013F0D90E026E5B0E53EC13F018EC13F0E7
:101DF00092EC13F04D080AE172C7E6FF73C7E6FFE5
:101E0000D60E006E5B0ED4EC14F00FD072C700F04B
:101E100073C701F0040E80EC14F0FDE12FEC13F019
:101E2000D60E026E5B0E53EC13F018EC13F08BDE43
:101E3000020EE15C02E2E16AE55262EF13F0CF0EBE
:101E4000006E5B0EA3EC14F0AEEC14F09FC7E6FF3F
:101E5000A0C7E6FFA1C7E6FFA2C7E6FFFBEC14F0B0
:101E6000DD0E006E5B0EA0EC14F0AEEC14F0A3C718
:101E7000E6FFA4C7E6FFA5C7E6FFA6C7E6FFFBECA3
:101E800014F0A3EF0DF0B7EC13F0090EE1260701F3
:101E9000915107E1925105E1935103E1945101E120
:101EA0007AD0C80E006E5B0EA3EC14F0DF6A040E4D
:101EB000DF5C60E25EEC14F0000855E2DF50EA6A95
:101EC000950FE96E070EEA22EFCF04F004C029F067
:101ED00067EC2AF027C000F028C001F029C002F00A
:101EE0002AC003F0560E2C6E0E0E2D6E8D0E2E6E29
:101EF0003E0E2F6E93EC2AF0CBEC2BF0010E26C099
:101F0000DBFF020E27C0DBFF030E28C0DBFF040E41
:101F100029C0DBFFC1EC13F0050E26C0DBFF060E67
:101F200027C0DBFFC1EC13F0070E22C0DBFF080E59
:101F300023C0DBFF5EEC14F0D80FE66EE66A070EF6
:101F4000DBCFE6FF080EDBCFE6FF050EDBCFE6FFBB
:101F5000060EDBCFE6FFBE0E006E5B0E6CDB0B0EDB
:101F6000D0EC14F005D0B90E006E5B0EA0EC14F0AE
:101F7000DF2A9DD712EC15F033EC15F0F3CFE9FF13
:101F8000F4CFEAFFE906000EEA5A000EE926060E33
:101F9000EA22EF6AD8DD090EE15C02E2E16AE5526D
:101FA00091D3B20E006E5B0EA3EC14F00701AA51A0
:101FB000E66EE66A7C0EE66E070EE66EA60E006E14
:101FC0005B0E39DB090ED0EC14F0A3EF0DF0CFDB84
:101FD000040EE1260701785179117A117B1107E18E
:101FE000DE6ADE6ADE6ADD6ADD52DD521CD0780E02
:101FF000E96E070EEA6EEE500701745D006EEE505A
:102000007559016EEE507659026EEE507759036E97
:1020100000C0DFFF010E01C0DBFF020E02C0DBFFCC
:10202000030E03C0DBFF9F0E006E5B0EA3EC14F0EB
:10203000D9CFE9FFDACFEAFFEECFE6FFEECFE6FF3A
:10204000EECFE6FFEFCFE6FF07016E51E66EE66AE0
:102050009BC7E6FF9CC7E6FF9DC7E6FF9EC7E6FF5E
:1020600099C7E6FF9AC7E6FF07019051E66EE66A58
:1020700007018F51E66EE66A07018E51E66EE66A49
:1020800007016D51E66EE66A07016C51E66EE66A7D
:1020900007016B51E66EE66A7F0E006E5B0ECBDACF
:1020A0001D0ED0EC14F04FDD040EE15C02E2E16A9B
:1020B000E55208D35CDB060E6BEC14F033DB08E072
:1020C00031DB200805E0DF2A010EF8E3DB2AF6D732
:1020D00029DB200801E09CD072EC14F001E3DB2A3C
:1020E000EF6ADADAE2DBF2DB01E192D0090EE66EAA
:1020F0002ADB600EE66E000EABDACEDA2EDBCCDA2F
:10210000B2DB12EC15F05DDB07EC28F0C9DB12EC5A
:1021100015F032DBDBDB01E07BD0BEDA000EE66ED1
:10212000060E6DDBC2DB93EC14F0600EE66E000E63
:102130008FDA12EC15F011DB12EC15F094DB41DBB9
:10214000D7EC14F06DDB4BDB01E6A5DB09E227ECF5
:1021500015F02DDB040EDB2A050EF5E3DB2AF3D7A1
:1021600030DBDFEC14F05CDB3ADB01E694DB09E208
:1021700027EC15F019DB040EDB2A050EF5E3DB2A4C
:10218000F3D70601010ECC6F0A0EE66EDCDAB1DB86
:10219000EF5050083BE10601FC5121E1040EDB6ADF
:1021A000050EDB6A1CDB04E6160E005C000E01580F
:1021B00014E29DDA040EDBCFE9FF050EDBCFEAFF68
:1021C000E50EE926060EEA22E552E750EF6E040E10
:1021D000DB2A050EE7E3DB2AE5D70601FB6BFC6B88
:1021E000770E006E5B0EAFDB90DB9DDB96DC92DB47
:1021F0000601010EFC6FE66EA6DA700EE66E000EAA
:1022000027DA83DBAADA81DB2EDB02D00601FC6B46
:10221000060EE15C02E2E16AE55254D20EEC15F0E2
:102220000601CC5110E1070EE66EE66A6F0E006EF5
:102230005B0E7EDB31DAE4DB01E090D0070E47DA9B
:1022400039DFE55216D0F3DBEDDB26DAC3EC28F0FC
:10225000E552E552A1DBABDA050EE66EE66A690EE1
:10226000006E5B0EE2D9CCDB06E0400EE66EA8EC19
:102270001CF0E55273D0D950FD0FE96EDACFEAFFBA
:10228000050EEE6E060EED6E95DAEF50450834E160
:102290009EDB4D0831E1D950FD0FE96EFF0EDA20CB
:1022A000EA6E020EEE26000EED22C1DB810EE66E16
:1022B000000EE66E010E0BDAC3EC28F0E552E55293
:1022C000E55287DA35DA94DA01E6E5DA04E24BDB47
:1022D000FAE3DB2AF8D750DA810EE66E000EBDD99C
:1022E00069DAEFCF80F0D950FD0FE96EDACFEAFF5F
:1022F000800EEE6E000EED6E5DDAEF50430A25E0C3
:10230000190A0DE01B0A2AE1620E006E5B0E1BDB50
:102310000601CD5123E18DEC0DF015DC10D057DB1B
:10232000300810E00701010EA96F0601CD5116E13A
:102330008DEC0DF0E6DC83DDA6DD33DE48DE9DECC2
:102340000DF00CD00701A96B09D0010EC0D90CD833
:10235000E552E5520601CD5101E12ED8020EE15CB5
:1023600002E2E16AE552AED102DA040EB4DADAD959
:1023700008E0D8D92C0805E0DF2A010EF8E3DB2AB3
:10238000F6D7D0D92C0804E1ADDA01E3DB2AEF6AF5
:1023900083D98DEC35F0E552E552F3CFFDF6F4CF5D
:1023A000FEF6EAD9660EE66E060E29DA040EE15C48
:1023B00002E2E16AE55286D1DAD9040EE126020E84
:1023C00059DA170E0601FD1901E1FE5101E17BD03A
:1023D000160EFD1901E1FE5176E0150EFD1901E121
:1023E000FE5171E0140EFD1901E1FE516CE00C0E7E
:1023F000FD1901E1FE5167E00B0EFD1901E1FE51EF
:1024000062E00A0EFD1901E1FE515DE0050EFD19C5
:1024100001E1FE5158E0040EFD1901E1FE5153E0C7
:10242000030EFD1901E1FE512AE0020EFD1901E142
:10243000FE5149E0010EFD194EE1FE514CE1DE6A0C
:10244000DD6AD6D904E6100E005C000E015851E298
:10245000DECFE9FFDDCFEAFFEA0EE926000EEA2231
:10246000EF50E66EE66A100EE66EE66A85D94F0E0C
:10247000006E5B0EDAD8E5D9E4E3DB2AE2D7DE6A48
:10248000DD6AB6D904E6200E005C000E015831E288
:10249000DFCFE6FF58D9D9CFE9FFDACFEAFF090E3F
:1024A000EE1804E1ED5002E124DAEF6A6EDA200E54
:1024B000E66EE66A61D9310E006E5B0EB6D8C1D900
:1024C000E0E3DB2ADED7FDC6E6FFFEC6E6FF440EEC
:1024D000006E5B0E07D0FDC6E6FFFEC6E6FF260EC9
:1024E000006E5B0EA2D812EC37F0036EE3D9A3ECBA
:1024F0000DF09DEC0DF00601FD6BFE6B0601666BA9
:10250000040EE15C02E2E16AE552DCD030D906015A
:10251000CC5121E0CD5100081EE3020E9EDA130ECD
:10252000006E5B0E0DDAB8D8FED90A0E006E5B0E97
:1025300007DA460EE76EFB0EDBCFE9FFFC0EDBCFC2
:10254000EAFFECD9EF6AFB0EDBCFE6FFFC0EDBCF38
:10255000E6FFE9D9DFD9E552E7CFD9FF12005EDA0D
:102560007CDA07016851040A12E0070A0CE0020A4B
:1025700006E0010A10E1FE0E006E5A0E0BD0F30EBB
:10258000006E5A0E07D0EA0E006E5A0E03D0DB0E14
:10259000006E5A0ED5D907016751040A0CE0060AED
:1025A00006E0030A0CE1D20E006E5A0E0BD0BC0EF0
:1025B000006E5A0E07D0AE0E006E5A0E03D09D0E5E
:1025C000006E5A0EBDD98E0E006E5A0EB9D90DDAB4
:1025D000A9D84D0809E170C7E6FF71C7E6FF880E6C
:1025E000006E5A0EE1D90CD070C700F071C701F02F
:1025F000040E86D9FEE133D8820E026E5A0E53D8ED
:1026000017D87B0E006E5A0E9BD907016F51E66EEC
:10261000E66A760E006E5A0EC7D90AD87BD9020E2A
:10262000E15C02E2E16AE5524DD082D912EF15F089
:1026300095D993EF14F07CD991D912EC37F0036E51
:10264000120038EC2FF0036E050EE15E035012000D
:10265000E66E9BD990D9C5EF14F0F0D977D1050E6D
:102660000026000E01220A0E2D6E2E6A00C028F0F0
:1026700001C029F0DAEC38F028C000F029C001F0E0
:1026800028C0E6FF29C0E6FF120095EC2FF0036E8C
:10269000050EE15E03501200FD0EDBCFE6FFFE0EDD
:1026A000DBCFE6FF1200036E046A02C0E6FFE66EAF
:1026B00004C0E6FF53D912EC37F0056E070EE15E59
:1026C00005501200E16EE552E7CFD9FF1200E76E28
:1026D000FD0EDBCF00F0FE0EDBCF01F0E750002651
:1026E000000E012200C0E6FF01C0E6FF120009EC67
:1026F00036F0F3CFF6FFF4CFF7FF400E2D6E2E6AC3
:10270000F6CF28F0F7CF29F053EC2BF024C0F6FFDA
:1027100025C0F7FF6E0EF6266F0EF7220800F55063
:10272000E66E1200DECFE9FFDDCFEAFFEF501200C8
:10273000100EE66EE66A700EE66E000E7FD94DD979
:10274000DE6ADD6A120008EC33F0E552020EF3CFC8
:10275000DBFF030EF4CFDBFF120085D9F3CF02F0CD
:10276000F4CF03F0F3CFE6FFF4CFE6FF1200D9CFAA
:10277000E6FFE1CFD9FF1200DECFE6FFDDCFE6FFB7
:102780001200010EDBCF26F0020EDBCF27F0030E86
:10279000DBCF28F0040EDBCF29F00A0E2B6E2C6A5B
:1027A0002D6A2E6A79EF2BF03DD909D9CFD03AD9CD
:1027B000FED8CCD0FD0EDBCFE9FFFE0EDBCFEAFF6B
:1027C0001200100EE66EE66A600EE66E000EE66E11
:1027D0001200E552F3CFDEFFF4CFDDFF1200040E4E
:1027E000DBCF00F0050EDBCF01F0D89001501200D6
:1027F000DECF00F0DDCF01F0D89001501200E66E80
:1028000074EC2FF038EF15F0006E016AD950030F09
:10281000E96EDACFEAFF0050EE260150ED221200F9
:10282000DCD8040EDB6A050EDB6A1200E66E08ECEB
:1028300033F0E552DE52F3CFDEFFF4CFDDFFDD52A1
:10284000120012EC37F0036E0B0EE15E0350A3ECA6
:102850000DF0DF2A010E1200010EDBCFE6FF020EA3
:10286000DBCFE6FF1200CEEC34F0046E0A0EE15E20
:1028700004501200CBD88DEF0DF0E552E552060161
:10288000450E646F5C0EC7D0E552E55206013B0E63
:10289000646F5C0EC0D0000E005C040E0158120084
:1028A000006E060EE15E00501200CE0EE66E060EC1
:1028B000E66E1200070EE15E03501200DF50EA6A76
:1028C000910FE96E070EEA22EF50120054EC2FF040
:1028D000CFD800091200E126FD0EDBCFDEFFDBCFF3
:1028E000DDFF1200DFCFE9FFDF2A010EDBCFEAFFB9
:1028F0001200020EDBCFE9FF030EDBCFEAFF12006E
:10290000D89000360136E8041200E50EE66E060E99
:10291000E66E1200A3EC0DF09DEF0DF0E750E926F6
:10292000000EEA2212007ED814EC2FF038EF15F0DA
:10293000016E026A00C0E6FFE66E02C0E6FF12000A
:1029400074DE21EF13F071DE45EF13F0E66E06EC56
:1029500031F0006E080EE15E00501200800EE66E4F
:10296000000EE66E120073D8000EE66E060E75DEDF
:10297000DF2A010E120077D8F3CF00F0F4CF01F078
:10298000F3CFE6FFF4CFE6FF1200020EDBCFE6FF47
:10299000030EDBCFE6FF1200E5521BDFBCEF13F0A6
:1029A000E15E035018EF13F046DE5AEF14F0000E0C
:1029B000E66E020EE66EE60EE66E000E1200000EE9
:1029C000E66E010EE66EE40EE66E000E1200010EDB
:1029D000E76EF0DEA3DFEF501200E66E5DEC30F044
:1029E000006E080EE15E00501200020EE66E08EC6A
:1029F00033F0E9EF13F0E2EC31F052DF18EF13F0AF
:102A0000B0EC2EF0036E56DF00091200E66EB7EC54
:102A100031F0E5521200656F49EF1CF0A8DE020E9E
:102A2000E1261200000EE66E060EE66E1200450E5E
:102A3000006E5C0E7DDF30DE21EF13F0E66E000EDF
:102A4000E66E030EE66EE80EE66E000E120006015C
:102A5000006B010EE66EE66A12000CDF1E0E006EC1
:102A60005B0EA3EF14F0AEEC2FF0E552E55212002E
:0A2A7000E552E552E552E55212006E
:062A7A0079EC1AF0FB0EDE
:102A8000DBCFF3FFDB06F35000090AE0C7EC1AF0D6
:102A9000FA0E32EC1BF0F3E1011CF1E1010E01D062
:102AA000000EA8EF1AF079EC1AF03B0EE12402E3D5
:102AB000E168E652E16E010EDB6A020EDB6AF90E96
:102AC000DBCFF6FFFA0EDBCFF7FFFB0EDBCFF8FF15
:102AD0000800F550DF6EDF5002E1CCEF19F0250E53
:102AE000DF5C02E0BFEF19F0030EDB6A040EDB6A65
:102AF000050EDB6A060EDB6A070EDB6AE1EC19F0F5
:102B00002D0EDF5C0CE02B0EDF5C09E0200EDF5C9D
:102B100006E0230EDF5C03E0300EDF5C1AE1DF50DD
:102B2000300A14E0130A0FE0030A0AE00B0A05E07A
:102B3000060AE4E1030EDB80E1D7030EDB82DED779
:102B4000030EDB84DBD7030EDB86D8D7030EDB88CE
:102B5000D5D72A0EDF5C1BE1DDEC19F02BEC1AF067
:102B600010E0030EDB8028682968130EDBCF2DF000
:102B7000140EDBCF2EF088EC2CF0040E26C0DBFF09
:102B800003D0130E14EC1AF0E1EC19F00BD0090E7F
:102B9000DB6A82EC1AF003E0F6EC1AF0FAD7090EC1
:102BA00014EC1AF0030EDBB0DB982E0EDF5C1BE199
:102BB000E1EC19F02A0EDF5C0BE1DDEC19F02BECF7
:102BC0001AF003E1130E66EC1AF0E1EC19F00BD0E9
:102BD000090EDB6A82EC1AF003E0F6EC1AF0FAD781
:102BE000090E66EC1AF0680EDF5C07E1E1EC19F003
:102BF000680EDF5C1DE1030E18D0740EDF5C17E079
:102C00007A0EDF5C14E0480EDF5C06E0540EDF5CF9
:102C100003E05A0EDF5C02E1020E07D06C0EDF5CAF
:102C200003E06A0EDF5C04E1010EB9EC1AF0C9DBC7
:102C3000DF506E0A01E17FD31E0A01E192D1200A22
:102C400001E18FD13F0A01E149D11A0A01E146D1E0
:102C50000D0A01E143D1200A01E140D13A0A01E124
:102C60003DD1200A01E13AD1260A01E135D10D0A10
:102C700001E132D11A0A01E1D9D0200A4AE0300A32
:102C80001FE0460A0EE0250A01E083D3D950F90F70
:102C9000E96EFF0EDA20EA6E010EEE5E000EEE5ACD
:102CA000EE5AC7EC1AF0250EE66E95DB03E1011C27
:102CB00001E169D3C3EC1AF001E26BD3DB2A69D3DB
:102CC000080EDB6A040EDB50010806E2040EDB048A
:102CD0008BEC1AF0DB508BDB080EDB5009E0030EA7
:102CE000DB50010B05E172DB01E04DD3080EDB6A1E
:102CF00064DBEFCFDFFF3BEC1BF003E1011C01E1E4
:102D000042D3C3EC1AF001E3DB2A60DB01E141D3DB
:102D10003AD3070EDB5002080FE107EC1BF0030E5D
:102D2000CEEC1AF00E0EEECFDBFF0F0EEECFDBFF78
:102D3000100EEECFDBFF20D0F70EDBCF03F0F80E46
:102D4000DBCF04F0020E035E000E045AF70E03C040
:102D5000DBFFF80E04C0DBFF03C0E9FF04C0EAFF9D
:102D6000BEEC1AF0026A0E0E00C0DBFF0F0E01C0AF
:102D7000DBFF100E02C0DBFF0E0EDBCFE6FF0F0EF7
:102D8000DBCFE6FF100EDBCFE6FF38EC30F0E5528C
:102D9000E552E552130E27C0DBFF140E28C0DBFFFF
:102DA000060EDB5005E0130E02EC1BF001E26ADBBD
:102DB00026EC1BF002E2130E37DBE9EC1AF006E01A
:102DC000040E02EC1BF002E2050E2EDB030EDBB05C
:102DD00005D0FCDA01E0D7D2080EDB6A090EDB6A07
:102DE0000E0EDBCFF6FF0F0EDBCFF7FF100EDBCFA3
:102DF000F8FF0800F550DF6EDF5014E02CEC1BF0FC
:102E000011E23BEC1BF003E1011C01E1BCD2BBDB96
:102E100001E3DB2A090EDB2AD9500E0FE96E000E02
:102E2000CBDBE7D7D3DA01E1B4D2ADD2C6DA110EEB
:102E3000EECFDBFF120EEDCFDBFF110EDBCFE6FF97
:102E4000120EDBCFE6FFAEEC2FF0E552E552130E8B
:102E5000F3CFDBFF140EF4CFDBFF060EDB5004E0F4
:102E6000130ED0DB01E20EDB26EC1BF002E2130EA8
:102E7000DBDAAFDB05E0040EC5DB02E2050ED4DAD7
:102E8000030EDBB005D0A2DA01E07DD2080EDB6ACA
:102E9000090EDB6A110EDBCFE9FF120EDBCFEAFF72
:102EA000EFCFDFFFDF5014E0D7DB12E2E4DB03E11A
:102EB000011C01E168D267DB01E3DB2A090EDB2A92
:102EC000110EDB2ADBCFE9FF120EE8E3DB2AE6D79F
:102ED0007DDA01E15ED257D2030EDB8E070EDB04F2
:102EE00010E195DB040E5ADB0A0EEECFDBFF0B0E72
:102EF000EECFDBFF0C0EEECFDBFF0D0EEECFDBFFD8
:102F00006CD0070EDB5003082CE1030EDBAE0DD0B6
:102F1000B2DA020E76DAEFCF00F0016A026A036AD3
:102F200000AE39D00168026835D0F70EDBCF01F072
:102F3000F80EDBCF02F0020E015E000E025AF70E11
:102F400001C0DBFFF80E02C0DBFF01C0E9FF02C0D9
:102F5000EAFFEFCF00F00A0E00C0DBFF0B0EDB6ACA
:102F600038D0070EDB50020809E1030EDBAE04D0B7
:102F700059DB02AE10D00ED055DB0DD0030EDBAE08
:102F800012D079DA020E3DDAF9DA026A036A01AE8A
:102F900002D002680368E2DA0C0E02C0DBFF0D0EFD
:102FA00003C0DBFF1AD0F70EDBCF02F0F80EDBCF49
:102FB00003F0020E025E000E035AF70E02C0DBFFA2
:102FC000F80E03C0DBFF02C0E9FF03C0EAFFD6DA58
:102FD000C5DA0C0EDB6A0D0EDB6A060EDB5005E16E
:102FE000010EF36E050EF3CFDBFF150EDB6A160E36
:102FF000DB6AD950370F006E000EDA20016E390EF1
:1030000000C0DBFF3A0E01C0DBFF380EDB6A080EA2
:10301000DB6A0A0EAEDADF50780A12E0200A10E00E
:10302000280A0CE0200A0AE03F0A06E00D0A02E046
:10303000200A08E1020E05D0080E03D0080EDF2694
:10304000100E97DA030EDBBE02D0DB92DB94DB506E
:10305000800B24E08ADAD890030EEB50000A08E6D1
:10306000000EEE5C000EEE58000EEE58000EEE580C
:1030700015E213DA2B682C682D682E687EEC38F088
:103080000A0E22C0DBFF0B0E23C0DBFF0C0E24C098
:10309000DBFF0D0E25C0DBFF2D0E08D0030EDBA2DB
:1030A00002D02B0E03D0DBA408D0200EF36E170E37
:1030B000F3CFDBFF150EDB2A02D0170EDB6A050EFD
:1030C000DB5003E1B7D901E189D05C0E006E720ECE
:1030D000016E000E026E070EDBCF03F0046A056A74
:1030E000066A03C02BF004C02CF005C02DF006C00A
:1030F0002EF0D3D9B6EC38F000502224F36E0150F4
:103100002320F46E02502420F86EF4CFF7FFF3CFA3
:10311000F6FF0800090EF5CFDBFF580EDF5C0FE16C
:10312000610EF36E090E7BD90AE3200E006E090EC4
:10313000DBCFE7FF0050E75E090EE7CFDBFF070EAE
:10314000DBCF00F0016A026A036A0FDA00C02BF0DD
:1031500001C02CF002C02DF003C02EF0EECF26F0FF
:10316000EECF27F0EECF28F0EFCF29F0B6EC38F015
:1031700029C0EDFF28C0EDFF27C0EDFF26C0EFFFFF
:10318000390EDBCFE9FFDB063A0EDBCFEAFF01E2C7
:10319000DB06090EDBCFEFFF150EDB2A4BD995E1DD
:1031A000030EDBA61DD06F0EDF5C06E1C1D918E36C
:1031B000150EDB285BDA14D0780EDF5C09E0580EC0
:1031C000DF5C06E0620EDF5C03E0420EDF5C08E1DC
:1031D000020EF36E160EF3CFDBFF02D0150EDB6A84
:1031E000030EDB50100B0EE0040EDBCF00F0050EDB
:1031F000DB50D880005406E2060EDB5003E1040EDB
:10320000DB5034DA95D90AE2050EDBCFE7FF150E65
:10321000DB50E75E050EE7CFDBFF02D0050EDB6A71
:10322000040EDBCF00F0160E45D9D880005414E20E
:10323000160EDBCFE6FF150EDBCFE6FF040EDBCF6D
:10324000E6FF050EDB50E552E75CE552D880E75417
:10325000E552D880E7545FD9030EDB50010B0BE138
:10326000080EDB5008E0B2D801E08DD0080EDB502C
:10327000BED8080EDB6A170EDB5007E088D9170EA0
:10328000F1D903E1011C01E17ED0160EDB5016E0FE
:103290007ED9300EE66E9FD802E1011C74E077D92A
:1032A000DFCFE6FF00EC38F0E552E552E552F4CF0F
:1032B00001F00001F31C02E1011C65E0050EDBCF0B
:1032C00000F0160EDB50D880005409E2050EDBCF6B
:1032D000E7FF160EDB50E75E050EE7CFDBFF300E93
:1032E000E66E050ECBD94FE1390EDB2ADBCFE9FFC5
:1032F0003A0E01E3DB2ADBCFEAFF090EEFCFDBFF5B
:10330000DB500EE044D9090EADD902E1011C3BE0CF
:10331000390EDB2ADBCFE9FF3A0EEDE3DB2AEBD7F0
:1033200055D831E1160EDBCFE6FF080EC3D8E552C3
:10333000E7245DD82ED0070EDB50030A1CE0010AFB
:1033400014E0030A07E07BD9DBCFEEFF020EDBCFF0
:10335000EDFF1FD0F5D8056A03AE02D004680568FA
:103360002CD8BCD805C0EEFF14D0EAD803BE046840
:1033700024D8B4D80ED063D9DBCFEFFF0AD07BD9E5
:1033800005E1011C03E1F368F46810D0FCD801E307
:10339000DB2A79D968EF15F0010EDBCF00F0020EC1
:1033A000DBCF01F000C0F3FF01C0F4FF3B0EE15C96
:1033B00002E2E16AE552E16ECBD029D9020ECEEFEE
:1033C0001AF061D90800F550DF6E1200200EE66E8B
:1033D000080E3EEF1BF000EC38F0E552E552E552E6
:1033E000F3CF00F0F4CF01F00001F31C1200006EE7
:1033F000016AD950010F4DD90050EE260150ED223F
:103400001200045E000E055AF70E04C0DBFFF80E32
:1034100005C0DBFF04C0E9FF05C0EAFF1200DBCFF7
:10342000F4FFF350F45C1200DB50E76E040EE7CFBC
:10343000DBFF12000A0EDBCF00F00B0EDBCF01F03A
:103440000C0EDBCF02F00D0EDBCF03F000500110AD
:10345000021003101200130EEECFDBFF140EEDCF9F
:10346000DBFF130EDBCF00F0140EDBCF01F0000109
:10347000800E01141200F70EDBCF04F0F80EDBCF44
:1034800005F01200050EDB50E66ED950130F01D97E
:10349000E552E750EE6EED6A12000A0EDBCF26F021
:1034A0000B0EDBCF27F00C0EDBCF28F00D0EDBCFA1
:1034B00029F01200DBCFE6FF150EDBCFE6FF050E8D
:1034C000DB50E552E724E552E7241200DB50CED86A
:1034D000010EF36E060EF3CFDBFF1200EE50EFCFBE
:1034E000EAFFE96E02C0EEFF03C0EEFF04C0EEFF8C
:1034F0001200D9CFE6FFDACFE6FFE1CFD9FFE2CF66
:10350000DAFF1200DFCFE6FFE66AF0EC38F0E552B2
:10351000E552F3501200E76E080EE7CFDBFF120012
:10352000EECF00F0EECF01F0EFCF02F0036A120011
:10353000050EDBCF00F0150EDB50D88000541200D2
:10354000010EDBCF02F0020EDBCF03F0046A1200A3
:10355000E552E5CFDAFFE7CFD9FF12000A0E00C02F
:10356000DBFF0B0E01C0DBFF1200D9500A0F49EF41
:103570001BF0F36E070EF3CFDBFF1200EECF00F06F
:10358000EFCF01F01200010EDB2A020E1200FC0E3A
:10359000DBCFE6FFFD0EDBCFE6FF1200005E000E84
:1035A000015AF70E00C0DBFFF80E01C0DBFF00C0C0
:1035B000E9FF01C0EAFF1200DA20EA6EEF2AEECF3F
:1035C000F6FF000EEF22EECFF7FFEF22EECFF8FF6F
:1035D0001200040EDBCFE6FF130EDB50E552E75C72
:1035E0009ADFDB5004DF060EDB501200090EDB50C1
:1035F0000A0DF350DF24D00FE76E090EE7CFDBFF93
:10360000E1EF19F0DB50F36E050E0FEF1AF0F70E35
:10361000DBCF00F0F80EDBCF01F01200DFCFE6FFCA
:10362000EBEF19F028DF030EECDE90EF1AF03DEC23
:1036300015F0E552E552E552E55200091200BDDEF3
:10364000EE50EFCFEAFFE96E010E1200130EDB50D1
:10365000F36E040E0FEF1AF0040EDB50F36E090E3A
:103660000FEF1AF0DBCFE6FFEBEF19F0E76E050E78
:10367000E7CFDBFF12008BDF0EEF1BF0DBCFE6FFA7
:1036800086DF17EF1BF0D950F90FE96EFF0EDCEF64
:0C3690001AF0E96E000EDA20EA6E12005B
:04369C00D8CFE4FFA0
:1036A000E0CFE4FFE46EDACFE4FFE2CFDAFFE9CF68
:1036B000E4FFEACFE4FFF6CFE4FFF7CFE4FFF5CF76
:1036C000E4FFF3CFE4FFF4CFE4FFFACFE4FF00EE32
:1036D00020F0140EE80403E3EECFE4FFFBD700EE86
:1036E00000F0200EE80403E3EECFE4FFFBD7E65240
:1036F00061EC34F0E55200EE1FF0200EE80403E325
:10370000E5CFEDFFFBD700EE33F0140EE80403E342
:10371000E5CFEDFFFBD7E5CFFAFFE5CFF4FFE5CF2F
:10372000F3FFE5CFF5FFE5CFF7FFE5CFF6FFE5CFF8
:10373000EAFFE5CFE9FFE5CFDAFFE550E5CFE0FFAF
:10374000E5CFD8FF10000501009B1200B6EC20F079
:10375000E652D9CFE6FFDACFE6FF37EC34F0E55298
:10376000E552000901E192D0FE0E0401F85D03E08C
:10377000FF0EF85D72E10D0EDF5CEBE0EBEC20F08C
:1037800001E1F7073A0EDF5C22E1060EF75D1FE369
:103790002B0E0701005D1BE1490E015D18E1500E83
:1037A000025D15E1440E035D12E10401F70591ECA1
:1037B00020F0EF6A050EE66E070EE66E8DEC35F032
:1037C000E552E552F3CFF8F40401F76BC2D70A0EC5
:1037D000DF5CBFE10401F707F75191EC20F0EF6ADD
:1037E000040EF75D37E32B0E0701005D33E1430E56
:1037F000015D30E14D0E025D2DE1540E035D2AE1C5
:10380000070EDF6EDF50DF2A91EC20F0EF50220828
:1038100004E00401F751DF5CF5E3DF0491EC20F0F4
:10382000EF6A0401E36B140EE66EE66A070EE66EBD
:10383000070EE66EE30EE66E040EE66EE7EC2FF082
:10384000006E060EE15E00500401F66BF76BFE0E93
:10385000F86F7FD717D9040116D00D0EDF5C04E096
:10386000EBEC20F001E1F707F8070A0EDF5C08E156
:10387000F707F75191EC20F0EF6A04D90401F76BD8
:10388000F85101E066D7F76BF86963D7E552BBEFF3
:1038900020F0050100B1FDD7CCEC20F0E66E10EC75
:1038A00034F0E5520601642B000E6523CCEC20F0C9
:1038B000F0E11200B6EC20F0050100B1FDD7FD0EDD
:1038C000DBCFE9FFFE0EDBCFEAFFEF50E66E10EC38
:1038D00034F0E552FD0EDB2ADBCFE9FFFE0E01E3FB
:1038E000DB2ADBCFEAFFEF50E7E1BBEF20F0B6ECDD
:1038F00020F0050100B1FDD7FE0EDBCFE6FF10EC96
:1039000034F0E552BBEF20F0B6EC20F0040EE126D7
:10391000030EE66EAEEC20F0720E026E5A0ED7DB8E
:1039200003E00601010EFF6F6F0E026E5A0ECFDB31
:1039300003E00601010ECA6F040EE15C02E2E16AD7
:10394000E552E16EBBEF20F00601010ECB6F1200D5
:10395000B6EC20F0020EE126FE0EDBCFD8F4040117
:10396000D851210A72E0010A5DE0600A3BE0500A8A
:103970002DE0130A1BE0010A12E0030A01E07BD0EC
:103980008180100EDC6F1E0EDD6FDE6B010ED96FB5
:103990000701A96BD9EC20F086EC0DF06CD081808A
:1039A000EEDBC4EC20F00401DC6B65D0020EDC6FB2
:1039B000DD6FDE6BE9DB010ED9EC20F00401D96B81
:1039C0000701A96B8AEC0DF0819055D0030EDC6FD6
:1039D000230EDD6FDE6BD3DBD7DB0601840E646F55
:1039E000700E47D0A4DBCBDB050EE66EB7DBDECF77
:1039F000E9FFDDCFEAFFEF5012E00401020EDC6FB9
:103A00003C0EDD6FDE6BD96B0701A96B8AEC0DF004
:103A1000F9EC20F00601630E646F5A0E2AD00401FF
:103A2000200ED86F0601CD6B0401DC6BD96B07014A
:103A3000A70507E0050EA75D04E0780E0401E16F1D
:103A400002D00401E16BE26B16D0D3DB0401030E5C
:103A5000DC6FD96BD9C4E6FFD2EC31F0E552F00E41
:103A60000401DD6FDE6B8AEC0DF00601D70E646F8A
:103A7000700E656F0EDF020EE15C02E2E16AE55254
:103A8000E16E79D3FE0E0401F85D16E10701A7058A
:103A900005E0050EA75D02E0040149DBF7C4E6FF7F
:103AA000ABDBE30EE66E040EE66EFEEC21F0006E7C
:103AB000050EE15E00501200FF0EF85D06E09CDB93
:103AC0000EEC11F0E552E5521200D851200A01E146
:103AD000C5D0600A30E0610A12E0310A01E012004C
:103AE000020EF75D01E2ABD14F0E0701005D01E070
:103AF000A6D14B0E015D01E0A2D1210E2CD0020E09
:103B0000F75D09E34F0E0701005D05E14B0E015D16
:103B100002E1400E20D0050E0401F75D01E28FD1D5
:103B2000450E0701005D01E08AD1520E015D01E002
:103B300086D1020E10D0020EF75D0FE3450E07018D
:103B4000005D0BE1520E015D08E1050E0401D95D37
:103B500004E115DB030EDEEF20F0020E0401F75D39
:103B600007E34F0E0701005D03E14B0E015D0BE023
:103B7000530E0701005D03E1480E015D04E0050EF0
:103B80000401D95D55E10401F76B3C0EDD6FDE6B7E
:103B90000701A86B010EC0DA0401D92BD951080A1C
:103BA00045E00F0A37E0010A30E0030A29E0010A84
:103BB00022E0070A1BE0010A0AE0030A01E0120002
:103BC00006014F0E646F5A0EE4DA050E0AD00601A4
:103BD000420E646F5A0EDDDA050E05DB060E03DBBE
:103BE000070E63DA4C0E646F5A0E1ED00601340EB7
:103BF000646F5A0E19D00601260E646F5A0E14D047
:103C000006011C0E646F5A0E0FD00601040E646F7D
:103C10005A0E0AD00601F00E646F590EBADA040E7D
:103C200044DAE60E646F590EC9EF20F0200E8ED0F4
:103C3000070EF75D08E3080EE66EE66ADD0E006E1D
:103C4000590E25DA09E00B0EE66EE66AD10E006E1B
:103C5000590E1DDA01E0F3D0020E78D0050EE66EA3
:103C6000E66ACB0E006E590E12DA22E12C0E070125
:103C7000085D03E1070E091502D0070E07150701BD
:103C8000A76FE80403E0050EA75D06E10401E16B00
:103C9000E26B010EE66E09D00401E151E21101E090
:103CA000CED0780EE16FE26BE66AD2EC31F050D004
:103CB000050EE66EE66AC50E006E590EE8D911E1F2
:103CC0000701A70505E0050EA75D02E004012FDA54
:103CD000010E22DA0601D20E646F700E5ADA84EFFA
:103CE0001CF00A0EE66EE66ABA0E006E590ECFD9C7
:103CF00004E10701A8511AE113D0070EE66EE66A47
:103D0000B20E006E590EC3D925E1110EE66EE66AB9
:103D1000A00E006E590EBBD90DE10701A85106E1B6
:103D20008DEC0DF008EC0EF09DEC0DF00701010E8E
:103D3000A86F12000701A86B0701A70504E0050E94
:103D4000A75D01E07CD08AEC0DF0400EE66E00DE4F
:103D5000E5521200050EE66EE66A9A0E006E590EE6
:103D600096D912E12C0E0701085D09E1070E07152F
:103D7000006E070E06150A0DF350002402D0070E40
:103D800006150701AA6F1200070EE66EE66A920E8C
:103D9000006E590E7CD908E00B0EE66EE66A860EC0
:103DA000006E590E74D903E10601CD6B1200090EA5
:103DB000E66EE66A7C0E006E590E69D93CE0060E8E
:103DC000E66EE66A750E046E590E056E066A04C04C
:103DD000E6FFE66E06C0E6FFFBD9076E070EE15E62
:103DE0000750000928E00A0EE66EE66A6A0E086EC1
:103DF000590E096E0A6A08C0E6FFE66E0AC0E6FFC1
:103E0000E7D90B6E070EE15E0B50000914E00B0EB4
:103E1000E66EE66AD10E0C6E590E0D6E0E6A0CC07F
:103E2000E6FFE66E0EC0E6FFD3D90F6E070EE15E29
:103E30000F50000904E18AEC0DF0400EBFD91200CA
:103E400095D9020EE1260401D851200A1BE0220A6E
:103E500017E0230A07E0200A01E08BD0010ED919F0
:103E6000D96F0AD0010ED919D96FE66ED2EC31F0B4
:103E7000E552010E0401D919E66EDAEC31F04BD0AF
:103E8000010E17D0000ED880E155000EE25508E271
:103E9000E107000EE25BE151E21102E1210E09D0DF
:103EA0000601CD51000808E2CD2BCD513C0804E2BB
:103EB000400EE66E4DDD2FD00701A70503E0050E8D
:103EC000A75D57E10601FD51FE1109E00601CC0591
:103ED00006E10601CD5103E1DCEC11F04AD0060108
:103EE000CA050AE10601CC0507E10601CA6B0A0E04
:103EF00013D9AFEC12F03DD00601FF050EE1FF6BC8
:103F00000A0E0AD9E66A2AD9DECFE6FFDDCFE6FF40
:103F100062EC21F0E552E5522CD00601CB0513E10D
:103F20000601CC0510E10701A95100080CE20601C9
:103F3000CD5109E10601CB6B0A0EEED88DEC0DF0E8
:103F4000E7EC0FF014D007016E51000812E20001F7
:103F5000F25100080EE20601CD510BE10701A95113
:103F6000000807E246D98DEC0DF01FEC0FF09DEC38
:103F70000DF0020EE15C02E2E16AE552E16EFBD077
:103F80000401D851200A01E012000601CD510008B9
:103F900001E209D10701A80505E10701A9510008BF
:103FA00001E2D0D8010E0401D919D96F22D9060136
:103FB000E20E646F700E656F6CDC05014151000804
:103FC00003E2010EA9D8F9D7F9EF20F0120004019D
:103FD000D851200A01E012000701A80509E10701F4
:103FE000A95106E10601CD51000801E2DCD0AAD8B2
:103FF00012000401DF2B000EE023DC5100080FE269
:10400000DDC400F0DEC401F0DD07000EDE5B005011
:10401000011005E1DCC4E6FF9BDCE55201D010DFB6
:10402000D2D83C0E2D6E2E6A6AD801E1A9DFCBD81A
:104030002C0E2D6E010E2E6E62D801E1C7DFC3D8A3
:10404000580E2D6E020E2E6E5AD806E1C0DF580EA5
:104050000401DF5F020EE05B1200200E0401D85D58
:104060000AE10701A80507E1010ED75C03E2010E92
:10407000D9EF20F084D81200800E946E8180F4EC89
:1040800033F082D80701A76B010EDEEF20F0016E3E
:10409000026A00C0E6FFE66E02C0E6FF99D8036E32
:1040A000070EE15E035000091200E66E08EC33F0E3
:1040B000E552F3CF00F0F4CF01F0F3CFE6FFF4CFF9
:1040C000E6FF5AEC1CF0E552E55206011200036EC1
:1040D000046A02C0E6FFE66E04C0E6FFDECFE6FF3C
:1040E000DDCFE6FF15EC30F0056E050EE15E055004
:1040F000F3CF00F0F4CF01F0F350F4101200DFC45E
:1041000028F0E0C429F0DAEC38F024C000F025C033
:1041100001F0245025101200E66EB7EC31F0E552A4
:104120001200EA6A000FE96E070EEA221200E16B44
:10413000E26B0701050EA76F010EE66ED2EC31F0BF
:10414000E55212008DEC0DF081EC0EF01FEC0FF03B
:1041500043EC0FF0E7EC0FF09DEF0DF008EC33F0BF
:10416000E552F3CFDEFFF4CFDDFF1200D9CFE6FF3B
:10417000E1CFD9FF1200E552E7CFD9FF1200E66A7E
:10418000DAEC31F0E5521200E66AD2EC31F0E55299
:104190001200656F49EF1CF064C6F6FF65C6F7FFB5
:1041A0000800F5501200050E0401DF5F000EE05B11
:1041B0001200E66EDAEC31F0E5521200E66EA8EC81
:1041C0001CF0E5521200DFC400F0E0C401F0120060
:1041D00013D8B0EF2EF0F751F72BA3DFDFCFEFFFAF
:1041E000640EF75D120061DF3E0E646F5A0EC9EF78
:1041F00020F0020E8CEF20F0000EE66E070EE66E49
:024200001200AA
:0E420200CADA06014C0E646F5D0E14DBF5DAAD
:1042100037DB0601480E646F5D0E0DDB020EE8DA37
:10422000C0D2BADAA4DAFEC764F6FFC765F649EC75
:104230001CF0A5DAB6D2B0DA030EE12698DA060150
:104240003E0E646F5D0EF7DADF6A200EDF5C10E26F
:10425000DFCFE6FFE66A390E006E5D0E7FDA8CDA9C
:10426000DFCFE6FF08EC33F01CDB0ADBDF2AEDD7FB
:1042700086DA030EE15C02E2E16AE552E16E91D278
:104280008BDA020EB5DA73DA0601C00E646F6C0EBB
:1042900097DA9FC7E6FFA0C7E6FFA1C7E6FFA2C760
:1042A000E6FFCCDA0601370E646F5D0E89DAA3C72C
:1042B000E6FFA4C7E6FFA5C7E6FFA6C7E6FFBEDA8E
:1042C0005EDA6FD269DA020EE12692DA50DA07017D
:1042D0006851040A15E0070A0EE0020A07E0010A25
:1042E00016E106012B0E646F5D0E0ED00601200E46
:1042F000646F5D0E09D00601170E646F5D0E04D069
:104300000601080E646F5D0E656F49EC1CF0070135
:104310006751040A0EE0060A07E0030A0FE10601EE
:10432000FF0E646F5C0E0ED00601E90E646F5C0E2A
:1043300009D00601DB0E646F5C0E04D00601CA0EC4
:10434000646F5C0E78DA0601BA0E646F5C0E73DA85
:10435000020EE66EB0DA1DDA4D0809E170C7E6FF1D
:1043600071C7E6FFB40E006E5C0EF8D930D070C78E
:1043700000F071C701F0040ED89000360136E80451
:10438000FBE1050E0026000E01220A0E2D6E2E6A9C
:1043900000C028F001C029F0DAEC38F028C000F0A5
:1043A00029C001F028C0E6FF29C0E6FFAE0E026E6C
:1043B0005C0E036E046A02C0E6FFE66E04C0E6FF10
:1043C00045DA12EC37F0056E070EE15E0550D4D9E0
:1043D0000601A60E646F5C0E2EDA07016F51E66EC1
:1043E000E66AA10E006E5C0EB9D9C6D9C8D9020E14
:1043F000E15C02E2E16AE552E16ED3D1CDD9080E6B
:10440000E126FB0EDBCFDEFFDBCFDDFFC2D918E0FC
:10441000C0D9200815E0BDD960080DE236DAEFCF2B
:1044200000F07B0E005C07E2B4D9E00FE66E2DDAF7
:10443000E552E750EF6EDF2A010EE8E3DB2AE6D70C
:10444000090EE66EE66A970E006E5C0E4BD90DE122
:1044500075D9090E5DD901E0B3D0CFD9E66AAAD9E2
:104460000701520EFE6F6C0EAFD0050EE66EE66AC7
:10447000910E006E5C0E36D90DE12AD901E0A0D074
:10448000050E08DA010EE66E95D907017F0EFE6F64
:104490006C0E9AD0040EE66EE66A8C0E006E5C0E10
:1044A00021D905E14BD9040E33D90CE089D0030E94
:1044B000E66EE66A880E006E5C0E14D906E108D935
:1044C00001E07ED09AD9DCDED9D0050EE66EE66A30
:1044D000820E006E5C0E06D905E130D9050E18D9A2
:1044E0000BE06ED0040EE66EE66A7D0E006E5C0E8A
:1044F000F9D805E1EDD864E180D9E4DEBFD0070E3C
:10450000E66EE66A750E006E5C0EECD805E1E0D84A
:1045100057E173D990DEB2D0070EE66EE66A6D0EF3
:10452000006E5C0EDFD852E1D3D84AE1020EDB6E9A
:10453000070EF36E030EF3CFDBFFDB50E76E040EC6
:10454000E7CFDBFF040E3FD92FE3200EF36E020E00
:10455000DBCFF4FFF350F45C27E2040E68D92008A7
:1045600003E0040E64D91DE1040E97D9030E5FD950
:104570002D0807E1030EDB28BFD8EF5002E1030E40
:104580008CD9030EDB5086D9020EDBCFF3FFDB2A7A
:10459000F350E66E0FD9040EDB2ADB50E76E030EF4
:1045A000CFD7040EDB2ACED707019F0EFE6F6C0E0D
:1045B000ECD8E552E552020EE66EA8EC1CF05FD096
:1045C0000701400EFE6F6C0EE0D858D0080EE66E64
:1045D000E66A640E006E5C0E85D856E179D863E118
:1045E000080EF36E050EF3CFDBFFEDD86AE3050E80
:1045F0001ED9200803E0050E1AD943E1050E4DD956
:10460000080E48D98DEC35F0E552E552060EF3CF91
:10461000DBFF070EF4CFDBFFDDD8000E005C000EE1
:1046200001584FE3DED8100E025C000E035849E239
:10463000F5D88DEC35F0E552E552F350E66E060EF6
:10464000DBCFE9FF070EDBCFEAFFEA0EE926000E1B
:10465000EA22E552E750EF6EBDD8080E005C000E6E
:1046600001582FE3DBD8BDD8080E025E000E035AB6
:10467000180E0224E66E4DEC33F0E552E552E55299
:1046800020D0050EDB2AB1D7050EE66EE66A5E0E77
:10469000006E5C0E27D80DE11BD805E1030EE66E17
:1046A000A8EC1CF00DD00701400EFE6F6C0E6DD80B
:1046B00006D0D9D8A2D886EC12F0E552E552E552E0
:1046C000E552080EE15C02E2E16AE552E16E69D072
:1046D000E66A9AD892D8CED8026E060EE15E0250F3
:1046E00000091200B8D8BFD8B0EC2EF0036E070E48
:1046F000E15E035000091200E76EFB0EDBCFE9FF1D
:10470000FC0EDBCFEAFFE750E926000EEA2212009A
:10471000E76EFB0EDBCF02F0FC0EDBCF03F0E750C1
:104720000226000E032202C0E6FF03C0E6FFA2D865
:10473000046E060EE15E045000091200010EE66EE2
:1047400004EF24F0E76EFB0EDBCF00F0FC0EDBCFB6
:1047500001F0E7500026000E012212007CD876D826
:1047600012EC37F0036E070EE15E0350120045D8DD
:1047700048DDE552E552120069D840EF24F0060109
:10478000460E646F5D0E1BEF24F0FF6F36D811EFFD
:1047900021F07BD8EF501200D9CFE6FFE1CFD9FF4F
:1047A0001200E552E7CFD9FF120000C0E6FF01C0BA
:1047B000E6FF12004DEC33F0E552E552E5521200EF
:1047C0003AD826EF24F0DBCF00F0FA0EDB28D880B1
:1047D00000541200060EDBCF00F0070EDBCF01F015
:1047E0001200060EDBCF02F0070EDBCF03F0120043
:1047F000E66EB7EC31F0E5521200FD0EDBCFE6FFBE
:10480000FE0EDBCFE6FF120056D8DECFE6FFDDCF8F
:10481000E6FFAEEC2FF0E55251EF24F0050EDB5031
:1048200091DF010E0026000E0122D5EF23F0DB50B0
:1048300063DFEF501200656F49EF1CF0E2EC31F0DE
:10484000006E060EE15E0050BCEF23F0000EE66E37
:10485000060EE66E1200016E026A00C0E6FFE66E0A
:1048600002C0E6FF1200FB0EDBCFE6FFFC0EDBCF43
:10487000E6FF1200DECFE6FFDDCFE6FFBCEF2FF054
:104880005AEC1CF0E552E5521200DECFE9FFDDCF15
:10489000EAFF120057DFD5EF23F0DB502DDFEF6A80
:1048A0001200E552F3CF00F0F4CF01F0F3CFE6FFB2
:1048B000F4CFE6FF120008EC33F0E552F3CFDEFF51
:0648C000F4CFDDFF120041
:0A48C600DACFE4FFE2CFDAFFE9CF1A
:1048D000E4FFEACFE4FFF6CFE4FFF7CFE4FFF5CF44
:1048E000E4FFF3CFE4FFF4CFE4FFFACFE4FF00EE00
:1048F00020F0140EE80403E3EECFE4FFFBD700EE54
:1049000000F0200EE80403E3EECFE4FFFBD7E6520D
:1049100060BE6AD80F0150BFC6D9A46AE55200EE46
:104920001FF0200EE80403E3E5CFEDFFFBD700EE18
:1049300033F0140EE80403E3E5CFEDFFFBD7E5CF3A
:10494000FAFFE5CFF4FFE5CFF3FFE5CFF5FFE5CFC5
:10495000F7FFE5CFF6FFE5CFEAFFE5CFE9FFE5CFCB
:10496000DAFF1100F3DA900E6F6E6EAEFED7606A5A
:104970000F01A00E196F1869016B200E006F506BAC
:10498000E00E1D6F1C69800E096F680E086F400EE7
:104990000D6F800E0C6F116B106F706AD20E716EFE
:1049A000020E726E200E736E600E6F6ED08EA3823A
:1049B000A380030EA56E020EE66E08EC33F0E552FE
:1049C000F3CFDEFFF4CFDDFFDECFE9FFDDCFEAFF7F
:1049D000EFCFFDF00701F46BFC6B020EE15C02E22D
:1049E000E16AE552E16EB9D20F0E65140701EB6F73
:1049F00066CFECF767CFEDF768CFEEF769CFEFF74B
:104A00006ACFF0F76BCFF1F76CCFF2F76DCFF3F71A
:104A1000609EEC51A60A01E13FD1030A01E133D1C6
:104A2000010A01E128D1070A01E11ED1350A01E19D
:104A3000CCD0030A01E1BCD01C0A01E180D0010AFC
:104A400001E17AD00C0A5EE0070A42E0020A26E0A1
:104A5000010A0CE08E0A01E01200ED5107016D5DC4
:104A600002E0A4EC1CF0EDC76DF71200EDC76FF784
:104A7000EFC701F0006AEE5107010024706F000ECD
:104A80000120716FF3C701F0006A0701F2510701BD
:104A90000024726F000E0120736F12000CDA02E026
:104AA00024DAFEE1EFD902E027DAFEE1F4D902E0F0
:104AB0002ADAFEE100500C240701746F01500D202A
:104AC000756F02500E20766F03500F20776F120023
:104AD000F2D902E00ADAFEE1D5D902E00DDAFEE110
:104AE000DAD902E010DAFEE100500C2407019F6FD2
:104AF00001500D20A06F02500E20A16F03500F2017
:104B0000A26F1200D8D902E0F0D9FEE1BBD902E0D1
:104B1000F3D9FEE1C0D902E0F6D9FEE100500C2441
:104B20000701A36F01500D20A46F02500E20A56F46
:104B300003500F20A66F1200EDC766F712004D0E4E
:104B40000001FD5D03E1EDC76EF726D0EDC726F04D
:104B5000276A286A296A490E2B6E060E2C6E2D6A6A
:104B60002E6A7EEC38F022C026F023C027F024C045
:104B700028F025C029F0F40E2626010E2722000E6B
:104B800028222922E80E2B6E030E2C6E2D6A2E6A27
:104B9000B6EC38F026C06EF7EFC701F0006A0701E7
:104BA000EE5107010024646F000E0120656F1200B2
:104BB000EDC767F7F1390F0B0F0B0701686F07019E
:104BC0006A5170E06A6B84EF1CF00701695107E0DD
:104BD000100E0701ED1503E10701010E6A6F0701D1
:104BE000ED390F0B010B0701696F0701ED5107014B
:104BF0006B5D05E10701EE5107016C5D02E0A4EC7D
:104C00001CF0EDC76BF7EEC76CF7800E07016B1554
:104C10001BE10701785179117A117B1115E1070128
:104C200074517511761177110FE074C778F775C755
:104C300079F776C77AF777C77BF707017807000E11
:104C4000795B7A5B7B5B0ED0800E07016B152AE0E7
:104C50000701785179117A117B1124E0786B796B17
:104C60007A6B7B6BA4EF1CF0EDC78EF7EEC78FF766
:104C7000F2C790F71200FD6B070EFD5D13E254D9E9
:104C8000FD5148D9F9D7FD6B070EFD5D0BE24CD9FC
:104C9000070EFD253FD9F8D7EDC78AF7EEC78BF78A
:104CA000EFC78CF71200D9CFE6FFE1CFD9FFE6526C
:104CB0000F0E0F0155150701EB6F56CFECF757CFCD
:104CC000EDF758CFEEF759CFEFF75ACFF0F75BCFAC
:104CD000F1F75CCFF2F75DCFF3F750CFDFFF0F01B5
:104CE000509F070EDF14040858E0070EDF14020877
:104CF0001EE10701EF51000804E2EEC795F7EFC788
:104D000091F7F351000804E2F2C796F7F3C792F760
:104D1000ED51000804E2ECC797F7EDC793F7F151A6
:104D200000083BE2F0C798F7F1C794F736D00701C7
:104D3000EC51FA0A32E1EFC700F0016A026A036A35
:104D4000F0C704F0056A066A076A080E1F0B02E046
:104D5000CCD8FEE10BD9F1C708F0096A0A6A0B6AE0
:104D6000100E1F0B02E0C8D8FEE100500824070116
:104D70009B6F015009209C6F02500A209D6F0350C9
:104D80000B209E6FF3C701F0006A0701F251070183
:104D90000024996F000E01209A6FE552DED01200B8
:104DA000D5D80B0EE66E08EC33F0E552F3CF00F0E9
:104DB000F4CF01F0F3CFE6FFF4CFE6FF8DEC35F052
:104DC000E552E552F3CFDEFFF4CFDDFF0001FA51EB
:104DD00012E1B3D801500318E8AE02D0033404D076
:104DE0000250005C0350015806E284EC1CF0000104
:104DF000010EFA6F15D00001FA0512E19ED8020EDD
:104E00000226000E032203500118E8AE02D001343E
:104E100004D00050025C0150035802E20001FA6B1A
:104E2000020EE15C02E2E16AE552E16E96D0120008
:104E300012000001FB2B000EFC23B1DF92D83C0EC8
:104E40002D6E2E6A45D801E1ABDF8BD82C0E2D6E6E
:104E5000010E2E6E3DD801E1EADF83D8580E2D6E8B
:104E6000020E2E6E35D806E1E3DF580E0001FB5F1F
:104E7000020EFC5B120012000701FC5101E112005E
:104E8000FC07120073D8F2C708F0096A0A6A0B6AB5
:104E9000100E1F0B120008500026095001220A5064
:104EA00002220B500322F3C70CF00D6A0E6A0F6A40
:104EB000180E1F0B1200F0C700F0016A026A036AA5
:104EC000F1C704F0056A066A076A080E1F0B120094
:104ED000FBC028F0FCC029F0DAEC38F024C000F068
:104EE00025C001F0245025101200D8900436053654
:104EF00006360736E8061200D890083609360A3614
:104F00000B36E8061200D8900C360D360E360F36EA
:104F1000E8061200EA6A7C0FE96E070EEA22E55203
:104F2000E750EF6EFD2B1200FD29EA6AEC0FE96EE7
:104F3000070EEA22EF50E66E120007016F51006E75
:104F4000016ADECF02F0DDCF03F01200D9CFE6FF19
:104F5000E1CFD9FF020EE1261200E552E7CFD9FFDB
:104F60001200FBC000F0FCC001F01200045000264B
:0E4F70000550012206500222075003221200B3
:024F7E006EDAE9
:104F8000CED9E840E8403F0BE5D91BDA010EAFD996
:104F9000EF50F00BE8380F0B006EC1D9030B100D6A
:104FA000F3500010D7D9E66E010EA8D929DA1BE21A
:104FB00000500108000E015416E2060E036E53DA8B
:104FC000C00B03C0E7FFE75204E0E8427F0BE706AF
:104FD000FCE1026E010E8BD9EF500F0B040DF35064
:104FE0000210B8D901D03D0EE66E020E87D908DA5C
:104FF00009E200500208000E015404E234DA3F0BCB
:10500000A9D901D03D0EE66E030E78D9ECD1CFD9E7
:10501000A9D921E28DD901E3DB2AC0D916E1ED50EF
:1050200014E1030EE66EE66A71D9B4D901E6DFD960
:105030000AE278D9EDD901E3DB2A19DADF2A010E79
:10504000F4E3DB2AF2D7DE6ADD6A020EDB2A030E06
:10505000DFE3DB2ADDD731DA013420E2005000083B
:10506000000E01541BE2B1D9C7D904E6030E005C5F
:10507000000E015804E282D9F7E3DB2AF5D702DA01
:1050800089D901E6B4D90AE24DD9C2D901E3DB2AB4
:10509000EED9DF2A010EF4E3DB2AF2D7F90EDBCFDB
:1050A000E9FFFA0EDBCFEAFFEF6A040EE15C02E2F1
:1050B000E16AE552E16E97D17AD954D91BE238D929
:1050C00001E3DB2A6BD910E1ED500EE1030EE66E31
:1050D000E66A1CD95FD901E68AD904E2CCD9FAE3A1
:1050E000DB2AF8D7DE6ADD6A020EDB2A030EE5E36F
:1050F000DB2AE3D7E2D901341AE200500008000E9F
:10510000015415E262D978D904E6030E005C000E62
:10511000015804E233D9F7E3DB2AF5D7B3D93AD9FA
:1051200001E665D904E2A7D9FAE3DB2AF8D7040E31
:10513000E15C02E2E16AE552E16E55D18FD9010EE0
:10514000D6D8EF380F0B006EEAD8040DF3500010DC
:1051500038D989D9E840E8403F0B006E010EC7D826
:10516000EF38F00B0010E66E010EC8D8030EBFD862
:10517000EFCF00F078D9400DF350C00B0010E66E71
:10518000020EBCD830D16AD9070EE126050EDB6AC3
:10519000060EDB6AC4D801E197D0030EDB6A040E69
:1051A000DB6A010EDB6A020EDB6A3AD9D890015045
:1051B00001E61DD94AE2B3D848E0DF6AB0D82FE053
:1051C000DF502DE1FD0EDBCFE9FFDB2AFE0EDBCF4A
:1051D000EAFF01E3DB2AEFCFDFFF2B0EDF5C05E305
:1051E000DF507A0802E3000E01D0010E000902E050
:1051F000000E09D02B0EDF5CF76AAF0FF66E6F0E54
:10520000F7220800F550DF6EDF50D8E0240EDF5C97
:1052100002E1000E02D03D0EDF5CDF6ECFD77FD8FB
:105220000CE0030EDB2A040E01E3DB2ADF5007E06B
:10523000DF04E66ED5D81BD902D0D2D8EF6A010EB2
:10524000DB2A020EB2E3DB2AB0D7D950030FE96E96
:10525000DACFEAFFEE50ED109DE0F7D86FDFE552B0
:10526000E552E552E552010EDB6A020EDB6AD8D840
:10527000030EDBCF02F0040EDBCF03F00206000EBC
:10528000035A01500318E8AE02D0033404D0025090
:10529000005C0350015801E37DD701D9F9D8FB0E1A
:1052A000DBCFE9FFDB2AFC0EDBCFEAFF01E3DB2AE1
:1052B000DED8050EDB2A060E01E3DB2A010EDB2A0F
:1052C000020ED5E3DB2AD3D7B2D8EF6A050EDBCFC7
:1052D00000F0060EDBCF01F000C0F3FF01C0F4FFC9
:1052E000070EE15C02E2E16AE552E16E7CD0E76E16
:1052F000DDD8E750E926000EEA221200E76E97D8C3
:10530000E750E926000EEA2237EF2AF09ED837DE72
:10531000006E060EE15E0050DE6ADD6A1200C6D83D
:10532000EF501200DECFE9FFDDCFEAFF48EF2AF0B1
:1053300085D8FD0EDB500024E96EFE0EDB50012007
:10534000EA6EEF50E66EDFCFE9FFDF2A010EDBCF1A
:10535000EAFF1200F76A6E0FF66E6F0EF722080072
:10536000F55012006BD8FB0EDBCF02F0FC0EDBCF4A
:1053700003F00250005C035001581200020EDBCF14
:10538000E9FF030EDBCFEAFF9DD8EF6A020EDB2AAE
:10539000030E120092D8D8900150120093D867D80B
:1053A000D9CFE9FFDACFEAFF030EEE18120056D884
:1053B000040EE126DE6ADD6A020EDB6A030EDB6A9A
:1053C0001200E66E34D837EF2AF0D9CFE9FFDACFF2
:1053D000EAFF020EEECFDBFF030EEDCFDBFF120084
:1053E0005ED862EF2AF0E552E7CFD9FF1200040E33
:1053F000005C000E0158120021D8D8900150120014
:10540000F90EDBCF00F0FA0EDBCF01F00134120011
:10541000F90EDBCFE9FFDB2AFA0EDBCFEAFF120041
:10542000010EDBCF00F0020EDBCF01F01200FB0E0D
:10543000DBCFE9FFFC0EDBCFEAFF1200020EDBCF71
:1054400000F0030EDBCF01F01200F50EE66E050E44
:10545000E66EF10EE66E050EE66E1200D9CFE6FF9F
:10546000E1CFD9FF1200020E42DFEF501200E552E9
:10547000E750EF6E120056DF77EC1CF0E552DF2AA2
:10548000010E1200DECFE6FFDDCFE6FF86EF29F04A
:10549000F50EE926050EEA22EF50E66E1200010E27
:1054A000DBCFE9FF020EDBCFEAFF1200FD0EDBCF00
:1054B000E9FFFE0EDBCFEAFF1200DECF00F0DDCF0A
:0E54C00001F01200F10EE926050EEA2212009C
:0254CE00219E1D
:1054D00005D0219E29AE02D0296C218E29C023F04F
:1054E000226A336A326A860E246E256A1EEF2CF019
:1054F000219E0CD0219E29AE09D0266C271E281E85
:10550000291EE86A272228222922218E29C023F079
:1055100028C022F027C033F026C032F09E0E246E41
:10552000256A1EEF2CF0216A5AEC2CF072EC2CF05C
:1055300021B602EF2CF021A205D021BA02EF2CF007
:1055400009EF2CF021BA15EF2CF021A005D021B8DD
:1055500002EF2CF015EF2CF021B809EF2CF0256AA2
:105560007F0E2A24246EE86A25222F50245EE86AE2
:10557000255A1A0E306E2A6A326A336A226A236A00
:105580002C50275E2D50285A2E50295A000E2A5A88
:1055900009E72C5027262D5028222E502922000EB4
:1055A0002A2201D0328AD8902736283629362A3640
:1055B000D8903236333622362336302EE1D7295072
:1055C00028102710D8A4328A1EEF2CF0216A5AEC3A
:1055D0002CF072EC2CF021B602EF2CF021A205D0B9
:1055E00021B802EF2CF009EF2CF021AA05D021B050
:1055F00002EF2CF009EF2CF021B002D021A802D04C
:1056000015EF2CF0256A2F502A24246EE86A2522F3
:105610007E0E245EE86A255A326A336A226A236A59
:105620002E502902F4CF23F0F3CF22F02D5029027F
:10563000F3503326F4502222000E23222E5028024B
:10564000F3503326F4502222000E23222C5029023C
:10565000F3503226F4503322000E222223222D5002
:105660002802F3503226F4503322000E2222232245
:105670002E502702F3503226F4503322000E2222FD
:1056800023222C502802F4503226000E33222222EC
:1056900023222D502702F4503226000E33222222DC
:1056A00023221EEF2CF0206A2EAE5CEF2BF02D6C27
:1056B0002E1EE86A2E22201E29AE64EF2BF0286CE5
:1056C000291EE86A2922201EDAEC38F029BE74EF80
:1056D0002BF020AE000C286C291EE86A2922246CCD
:1056E000251EE86A2522000C20BE6BEF2BF02188D6
:1056F000FF0C206AE86A2EAE86EF2BF02B6C2C1E76
:105700002D1E2E1E2C222D222E22201E29AE91EF80
:105710002BF0266C271E281E291E2722282229222C
:10572000201EB6EC38F029BEA8EF2BF020AE000CFE
:10573000266C271E281E291EE86A272228222922D5
:10574000226C231E241E251E232224222522000C27
:1057500020BE98EF2BF02188FF0C28C032F0285093
:105760002D02F4CF27F0F3CF26F029502E02F4CFEC
:1057700029F0F3CF28F02D02F3502726F4502822E9
:10578000E86A292232502E02F3502726F4502822AC
:10579000E86A2922000C216A5AEC2CF021B6D5EFD8
:1057A0002BF021A20FD021B407D07F0E296EFF0E5F
:1057B000286E276E266E25D0800E296E01D0296AAC
:1057C000000EF6D721B0FBD7266A9F0E2A60EBD7D2
:1057D0007E0E2A64F4D79E0E2A5C07E0D890293208
:1057E0002832273226322A2AF6D721A40AD0266C5C
:1057F000271E281E291EE86A27222822292229AED0
:10580000DED712007F0E2A6EFF0E296E286E276EDD
:1058100012007F0E21BEFF0E2A6E02D07F0E2A6E6E
:10582000800E296E286A276AF3D721AE04D0800E35
:105830002A6E296AF7D72A6A296AF4D723502210D8
:1058400033103210F8E025BEF0D723BE0CD0245020
:105850002510EBE0D8903236333622362336240634
:10586000D8A02506F2D72550D4E12428D2E032AEC4
:1058700011D07F0E321402E133A00CD0332AE86A33
:105880002222232207E3D880233222323332242AF1
:105890002428BFE02450C9E033C027F022C028F0FC
:1058A0002334296E24302A6E29322A9E21BE2A8E64
:1058B00008EF2CF029362A3602E32184217E06E106
:1058C00021802A6A296A286A276A12002A2803E0A6
:1058D000D88029321200D890293202E121821200A8
:1058E000218612002E362F3602E3218C217E06E11E
:1058F00021882F6A2E6A2D6A2C6A12002F2803E055
:10590000D8802E321200D8902E32EAE1218A12007D
:1059100029C033F028C032F028502D02F4CF27F0F0
:10592000F3CF26F029502E02F4CF29F0F3CF28F040
:105930002D02F3502726F4502822E86A29223250FB
:105940002E02F3502726F4502822E86A29222EAE90
:10595000AEEF2CF03250285E3350295A33AE000C93
:0A5960002D50285E2E50295A000C2D
:06596A002B434D452045D2
:1059700052524F5200434C4F5345440053454E44FE
:10598000204641494C004441544120414343455045
:10599000540053454E44204F4B002B4353513A0083
:1059A00053544154453A20434F4E4E454354204FA3
:1059B0004B0053544154453A2000434F4E4E45430B
:1059C00054204F4B002B434C4950002B435245472A
:1059D000002B5044503A204445414354002B43523D
:1059E00045473A203000222C2236383637220D0027
:1059F00041542B43495053544152543D2254435037
:105A0000222C220041542B434C504F52543D2254DF
:105A10004350222C2236383637220D0041542B4376
:105A2000494653520D0041542B4349504845414487
:105A30003D310D0041542B43494943520D00222C66
:105A4000220041542B435354543D2200220D004167
:105A5000542B434744434F4E543D312C224950224E
:105A60002C220041542B434950534855540D0049B2
:105A70005000534D5300257525250020534F433AC0
:105A800020002575204B6D002575206D69000D499E
