:020000040000FA
:060000005BEF40F012006E
:020006001200E6
:06000800E2EF24F01200FB
:02000E001200DE
:020010000100ED
:040012000000004D9D
:06001800FFEF17F01200DB
:02001E000700D9
:1000200012000000FB06000004000000AC8100008C
:1000300096090000400000008A810000D6090000F7
:100040002200000055810000C805000035000000B6
:10005000097F0000FF05000001000000FF80000094
:10006000000900005600000010000000FE0400001F
:04007000020000008A
:0C007400F4EC0CF03AEC0DF0EE6AEE6AD1
:10008000EE6AEE6A6DEC0CF0EE6AEE6AEE6AEE6A0B
:10009000A9EC09F0010EEE6E230EEE6E450EEE6E2B
:1000A000670EEE6EA9EC09F0040EEBEC0AF0890E77
:1000B000EE6EAB0EEE6ECD0EEE6EEF0EEE6EA9ECAA
:1000C00009F0080EEBEC0AF0FE0EEE6EDC0EEE6EA2
:1000D000BA0EEE6E980EEE6EA9EC09F00C0EEBEC7B
:1000E0000AF0760EEE6E540EEE6E320EEE6E100EBE
:1000F000EE6EE552E7CFD9FF1200F4EC0CF0080EDB
:10010000E126030E046E6DEC0CF01FEC0BF003E027
:100110003FEC0BF0FDE13F0E001679EC0BF0AEEC7E
:100120000CF0F90EDBCF04F0FA0EDBCF05F0066A17
:10013000076A05AE02D006680768030E1F0B07E0CA
:10014000D8900436053606360736E806F9E16DEC38
:100150000CF00450EF26EECF00F00550EF22EECF6A
:1001600001F00650EF22EECF02F00750EF22EECF63
:1001700003F0F90EDBCF08F0FA0EDBCF09F00A6AC4
:100180000B6A09AE02D00A680B68030E1F0B03E06E
:1001900050EC0BF0FDE10850005C095001580A508A
:1001A00002580B50035806E23AEC0DF0EE2AEE220C
:1001B000EE22EE2257EC0BF0026A036A01AE02D087
:1001C000026803681D0E3FEC0BF0FDE13AEC0DF008
:1001D000E7EC0CF0400E046E056A066A076AD9CF98
:1001E000E9FF25EC0BF0EE500758060E00C0DBFFD0
:1001F000070E01C0DBFF57EC0BF011EC0DF00150C6
:100200000318E8AE02D0033404D00250005C03505F
:1002100001586AE3060EDBCFE6FF070EDBCFE6FFF1
:1002200013EC0BF0F0EC0CF0E9CF02F0EACF03F0A6
:10023000DB50E924006E010EDB50EA206FEC0BF07E
:10024000D8EC34F0046E060EE15E0450F0EC0CF0D5
:100250000AEC0BF0A9EC09F0E9CF02F0EACF03F0C9
:100260002EEC0BF0060EDBCF28F0070EDBCF29F0CB
:10027000040E28C0DBFF050E29C0DBFF3F0EE76E32
:10028000D7EC0CF0E7500026000E0122D0EC0CF069
:1002900001500318E8AE02D0033404D00250005CD1
:1002A000035001581EE2040EDBCF02F0050EDBCF37
:1002B00003F0FB0EDB500224006EFC0EDB5003202B
:1002C0006FEC0BF0A9EC09F0E9CF04F0EACF05F0F0
:1002D0002EEC0BF02DEC0DF0400EEE26000EED2274
:1002E000CDD718EC0DF004D0040EDB6A050EDB6AE6
:1002F000D0EC0CF0040EDB50025C006E050EDB50FF
:1003000003586FEC0BF046EC0BF0046EFC0EDB5068
:100310000720056E04C0E6FFE66EF0EC0CF0E9CFB6
:100320000AF0EACF0BF0DB50E924086E010EDB5037
:10033000EA20096E08C0E6FFE66ED8EC34F00C6ED9
:10034000060EE15E0C50080EE15C02E2E16AE55245
:100350001AEF0BF064EC0BF0080E39EC0BF0100EFA
:10036000EBEC0AF00AEC0BF0D9CFE6FFDACFE6FFB0
:100370005EEC0BF0030E046E1FEC0DF0100EEBECB8
:100380000AF01FEC0BF003E03FEC0BF0FDE13F0E39
:10039000001679EC0BF05DEC0CF0380EEE5C000E04
:1003A000EE58000EEE58000EEE580DE2380E046EB8
:1003B000056A066A076A36EC0DF025EC0BF0026E52
:1003C000EE50075813D0780E086E096A0A6A0B6A55
:1003D00036EC0DF07EEC0DF0085C006EEE50095826
:1003E000016EEE500A58026EEE500B58036E7AEC16
:1003F0000CF00C0EDBCFE6FF0D0EDBCFE6FF960E0A
:10040000E66E090EE66E13EC0BF068EC0BF0080ECE
:10041000E66EE66AD9CFE6FFDACFE6FF13EC0BF023
:1004200068EC0BF0100E39EC0BF00AEC0BF0FD0E43
:10043000DBCFE6FFFE0EDBCFE6FF5EEC0BF0100E2F
:10044000E15C02E2E16AE5521AEF0BF064EC0BF0BA
:10045000A9EC09F0EECFDFFF010EEECFDBFF020EBD
:10046000EECFDBFF030EEECFDBFF040E4FEC0CF004
:10047000040EEECFDBFF050EEECFDBFF060EEECF58
:10048000DBFF070EEECFDBFF080E4FEC0CF0080E83
:10049000EECFDBFF090EEECFDBFF0A0EEECFDBFF68
:1004A0000B0EEECFDBFF0C0E4FEC0CF00C0EEECF74
:1004B000DBFF0D0EEECFDBFF0E0EEECFDBFF0F0EE0
:1004C000EECFDBFF400EE66EE66AE66AE66A13EC04
:1004D0000BF0560EE66E090EE66E1FEC08F0006E8D
:1004E000080EE15E0050C3EC0BF00AEC0AF0780E47
:1004F0000026A40E01226A0E0222D70EF9EC0CF09F
:1005000003E04FEC09F0FDE121EC09F0190E3EEC9F
:1005100009F0FDE17DEC0BF017EC0AF0560E002619
:10052000B70E0122C70E0222E80E6BEC0DF003E0BD
:100530004FEC09F0FDE131EC09F0140E3EEC09F04E
:10054000FDE198EC0BF024EC0AF0DB0E0026700EB7
:100550000122200E0222240E3EEC0DF003E04FECAF
:1005600009F0FDE114EC09F00F0E3EEC09F0FDE19D
:10057000B0EC0BF031EC0AF0EE0E0026CE0E0122AC
:10058000BD0E0222C10E6FEC0DF003E04FEC09F03E
:10059000FDE124EC09F00A0E3EEC09F0FDE173ECFC
:1005A0000DF03EEC0AF0AF0E00260F0E01227C0E7D
:1005B0000222F50EF9EC0CF003E04FEC09F0FDE13E
:1005C00021EC09F0190E3EEC09F0FDE17DEC0BF099
:1005D0004BEC0AF02A0E0026C60E0122870E0222DC
:1005E000470E6BEC0DF003E04FEC09F0FDE131EC50
:1005F00009F0140E3EEC09F0FDE198EC0BF058EC1C
:100600000AF0130E0026460E0122300E0222A80E1A
:100610003EEC0DF003E04FEC09F0FDE114EC09F0C5
:100620000F0E3EEC09F0FDE1B0EC0BF065EC0AF0CA
:10063000002A950E0122460E0BEC0DF0160E1F0B34
:1006400003E04FEC09F0FDE124EC09F00A0E3EEC6A
:1006500009F0FDE173EC0DF072EC0AF0D80E002603
:10066000980E0122800E0222690EF9EC0CF003E0D4
:100670004FEC09F0FDE121EC09F0190E3EEC09F018
:10068000FDE17DEC0BF07FEC0AF0AF0E0026F70EDB
:100690000122440E02228B0E6BEC0DF003E04FECB6
:1006A00009F0FDE131EC09F0140E3EEC09F0FDE13A
:1006B00098EC0BF08CEC0AF0B10E00265B0E0122D8
:1006C000FF0E02223EEC0DF003E04FEC09F0FDE1DD
:1006D00014EC09F00F0E3EEC09F0FDE1B0EC0BF06C
:1006E00099EC0AF0BE0E0026D70E01225C0E022203
:1006F000890E6FEC0DF003E04FEC09F0FDE124EC06
:1007000009F00A0E3EEC09F0FDE173EC0DF0A6ECE9
:100710000AF0220E0026110E0122900E02226B0E0C
:10072000F9EC0CF003E04FEC09F0FDE121EC09F0ED
:10073000190E3EEC09F0FDE17DEC0BF0B3EC0AF094
:10074000930E0026710E0122980E74EC0BF00C0F24
:10075000EEEC08F070EC09F00C0E1F0B03E04FEC10
:1007600009F0FDE131EC09F0140E3EEC09F0FDE179
:1007700098EC0BF0C0EC0AF08E0E0026430E01221E
:10078000790E0222A60E3EEC0DF003E04FEC09F0CC
:10079000FDE114EC09F00F0E3EEC09F0FDE1B0ECC8
:1007A0000BF0CDEC0AF0210E0026080E0122B40E4B
:1007B0000222490E6FEC0DF003E04FEC09F0FDE171
:1007C00024EC09F00A0E3EEC09F0FDE1E4EC0BF03C
:1007D00017EC0AF0620E0026250E01221E0E0222E0
:1007E000F60EFDEC0CF003E04FEC09F0FDE121EC1E
:1007F00009F01B0E3EEC09F0FDE100EC0CF058ECAA
:100800000AF0400E0026B30E0122400E0222C00E56
:1008100042EC0DF003E04FEC09F0FDE131EC09F0A2
:10082000170E3EEC09F0FDE1D7EC0BF099EC0AF065
:10083000510E00265A0E01225E0E0222260E46ECB2
:100840000DF003E04FEC09F0FDE114EC09F0120E9D
:100850003EEC09F0FDE1ECEC0BF00AEC0AF0AA0E1C
:100860000026C70E0122B60E0222E90E4AEC0DF058
:1008700003E04FEC09F0FDE124EC09F00C0E3EEC36
:1008800009F0FDE1E4EC0BF04BEC0AF05D0E002604
:10089000100E01222F0E0222D60EFDEC0CF003E00A
:1008A0004FEC09F0FDE121EC09F01B0E3EEC09F0E4
:1008B000FDE100EC0CF08CEC0AF0530E0026140E57
:1008C0000122440E0222020E42EC0DF003E04FEC36
:1008D00009F0FDE131EC09F0170E3EEC09F0FDE105
:1008E000D7EC0BF0CDEC0AF0810E0026E60E0122CB
:1008F000A10E0222D80E46EC0DF003E04FEC09F0F9
:10090000FDE114EC09F0120E3EEC09F0FDE1ECEC17
:100910000BF03EEC0AF0C80E0026FB0E0122D30EAF
:100920000222E70E4AEC0DF003E04FEC09F0FDE186
:1009300024EC09F00C0E3EEC09F0FDE1E4EC0BF0C8
:100940007FEC0AF0E60E0026CD0E0122E10E022217
:10095000210EFDEC0CF003E04FEC09F0FDE121EC81
:1009600009F01B0E3EEC09F0FDE100EC0CF0C0ECD0
:100970000AF0D60E0026070E0122370E0222C30E01
:1009800042EC0DF003E04FEC09F0FDE131EC09F031
:10099000170E3EEC09F0FDE1D7EC0BF031EC0AF05C
:1009A000870E00260D0E0122D50E0222F40E46EC13
:1009B0000DF003E04FEC09F0FDE114EC09F0120E2C
:1009C0003EEC09F0FDE1ECEC0BF072EC0AF0ED0E00
:1009D0000026140E01225A0E0222450E4AEC0DF09A
:1009E00003E04FEC09F0FDE124EC09F00C0E3EECC5
:1009F00009F0FDE1E4EC0BF0B3EC0AF0050E002683
:100A0000E90E0122E30E0222A90EFDEC0CF003E038
:100A10004FEC09F0FDE121EC09F01B0E3EEC09F072
:100A2000FDE100EC0CF024EC0AF0F80E0026A30E19
:100A30000122EF0E0222FC0E42EC0DF003E04FEC1F
:100A400009F0FDE131EC09F0170E3EEC09F0FDE193
:100A5000D7EC0BF065EC0AF0D90E0026020E01224D
:100A60006F0E0222670E46EC0DF003E04FEC09F02A
:100A7000FDE1DADB120E3EEC09F0FDE1ECEC0BF0EF
:100A8000A6EC0AF08A0E00264C0E01222A0E022243
:100A90008D0E4AEC0DF003E04FEC09F0FDE1D4DBE4
:100AA0000C0EECDBFEE11BEC0CF04BEC0AF0420E02
:100AB0000026390E0122FA0E0222FF0E01EC0DF083
:100AC00002E0EDDBFEE1BDDB1C0ED8DBFEE133EC2A
:100AD0000CF072EC0AF0810E0026F60E0122710E67
:100AE0000222870E4EEC0DF002E0D9DBFEE1B9DB0D
:100AF000150EC4DBFEE122EC0CF099EC0AF0220E9C
:100B00000026610E01229D0E02226D0E52EC0DF0A8
:100B100002E0C5DBFEE188DB100EB0DBFEE13BEC62
:100B20000CF0C0EC0AF00C0E0026380E0122E50E87
:100B30000BEC0DF0170E1F0B02E0B1DBFEE184DBC6
:100B4000090E9CDBFEE11BEC0CF017EC0AF0440EE6
:100B50000026EA0E0122BE0E0222A40E01EC0DF0C8
:100B600002E09DDBFEE16DDB1C0E88DBFEE133EC79
:100B70000CF03EEC0AF0A90E0026CF0E0122DE0E8C
:100B800002224B0E4EEC0DF002E089DBFEE169DB48
:100B9000150E74DBFEE122EC0CF065EC0AF0600E41
:100BA00000264B0E0122BB0E0222F60E52EC0DF077
:100BB00002E075DBFEE138DB100E60DBFEE13BECB2
:100BC0000CF08CEC0AF0700E0026BC0E0122BF0E59
:100BD0000222BE0E77EC0DF002E061DBFEE134DBB9
:100BE000090E4CDBFEE11BEC0CF0B3EC0AF0C60E78
:100BF00000267E0E01229B0E0222280E01EC0DF033
:100C000002E04DDBFEE11DDB1C0E38DBFEE133ECC8
:100C10000CF00AEC0AF0FA0E0026270E0122A10EB3
:100C20000222EA0E4EEC0DF002E039DBFEE119DBA8
:100C3000150E24DBFEE122EC0CF031EC0AF0850EFF
:100C40000026300E0122EF0E0222D40E52EC0DF0DF
:100C500002E025DBFEE1E8DA100E10DBFEE13BEC02
:100C60000CF058EC0AF0050E00261D0E0122880E2D
:100C70000222040E77EC0DF002E011DBFEE1E4DA73
:100C8000090EFCDAFEE11BEC0CF07FEC0AF0390EE9
:100C90000026D00E0122D40E0222D90E01EC0DF056
:100CA00002E0FDDAFEE1CDDA1C0EE8DAFEE133EC1B
:100CB0000CF0A6EC0AF0E50E0026990E0122DB0EE0
:100CC0000222E60E4EEC0DF002E0E9DAFEE1C9DAAE
:100CD000150ED4DAFEE122EC0CF0CDEC0AF0F80EA1
:100CE00000267C0E0122A20E02221F0E52EC0DF0F5
:100CF00002E0D5DAFEE198DA100EC0DAFEE13BEC54
:100D00000CF0A2DB650E0026560E0122AC0E02226C
:100D1000C40E77EC0DF002E0C2DAFEE195DA090EBE
:100D2000ADDAFEE109EC0CF075DB440E0026220E74
:100D30000122290E0222F40E06EC0DF002E0AFDAD9
:100D4000FEE17FDA1A0E9ADAFEE1F4EC0BF0BDDB7D
:100D5000970E0026FF0E01222A0E0222430E56ECA9
:100D60000DF002E09CDAFEE17CDA160E87DAFEE195
:100D700029EC0CF0C0EC0AF0A70E0026230E01228D
:100D8000940E0222AB0E5AEC0DF002E088DAFEE17E
:100D90004BDA110E73DAFEE112EC0CF07CDB390E4B
:100DA0000026A00E0122930E0222FC0E5EEC0DF036
:100DB00002E075DAFEE148DA0B0E60DAFEE109ECDA
:100DC0000CF0C4DBC30E0026590E01225B0E02227A
:100DD000650E06EC0DF002E062DAFEE132DA1A0E80
:100DE0004DDAFEE1F4EC0BF03CDB920E0026CC0E6B
:100DF00001220C0E02228F0E56EC0DF002E04FDAAB
:100E0000FEE12FDA160E3ADAFEE129EC0CF084DB73
:100E10007D0E0026F40E0122EF0E0222FF0E5AEC88
:100E20000DF002E03CDAFEE1FFD9110E27DAFEE117
:100E300012EC0CF0FCDAD10E00265D0E0122840EBD
:100E40000222850E5EEC0DF002E029DAFEE1FCD90B
:100E50000B0E14DAFEE109EC0CF044DB4F0E002619
:100E60007E0E0122A80E02226F0E06EC0DF002E0AB
:100E700016DAFEE1E6D91A0E01DAFEE1F4EC0BF027
:100E80008CDBE00E0026E60E01222C0E0222FE0E66
:100E900056EC0DF002E003DAFEE1E3D9160EEED9CE
:100EA000FEE129EC0CF004DB140E0026430E0122B7
:100EB000010E0222A30E5AEC0DF002E0F0D9FEE181
:100EC000B3D9110EDBD9FEE112EC0CF04CDBA10E14
:100ED0000026110E0122080E02224E0E5EEC0DF0CD
:100EE00002E0DDD9FEE1B0D90B0EC8D9FEE109EC74
:100EF0000CF0C4DA820E00267E0E0122530E02226E
:100F0000F70E06EC0DF002E0CAD9FEE19AD91A0EEE
:100F1000B5D9FEE1F4EC0BF00CDB350E0026F20E39
:100F200001223A0E0222BD0E56EC0DF002E0B7D9B6
:100F3000FEE197D9160EA2D9FEE129EC0CF084DA75
:100F4000BB0E0026D20E0122D70E02222A0E5AEC28
:100F50000DF002E0A4D9FEE167D9110E8FD9FEE1B0
:100F600012EC0CF0CCDA910E0026D30E0122860E84
:100F70000222EB0E5EEC0DF002E091D9FEE164D9A5
:100F80000B0E7CD9FEE10BD9E4D9BAEC0CF0040EBF
:100F90004FEC0CF0A1EC0CF0080E4FEC0CF094ECC4
:100FA0000CF00C0E4FEC0CF087EC0CF0100EE15C2A
:100FB00002E2E16AE5523ED312DBFCDA3AE2DFCF2D
:100FC00006F0010EDBCF07F0D89006360736D89032
:100FD00006360736FB0EDB5006240DEC0DF007201D
:100FE000EA6EEECF02F00250E66ED7EC0CF0B8D904
:100FF000080E44D9FEE10450E66E010E43EC0CF0FD
:10100000AFD9100E3BD9FEE10450E66E020E43EC60
:101010000CF0A6D9180E32D9FEE10450E66E030E8C
:1010200043EC0CF071EC0CF0E552E750EF6EE4DAB3
:10103000C4D7080EE15C02E2E16AE552FBD2CFDAE6
:10104000B9DA01E3A2D022DB0DEC0DF00720EA6E45
:10105000EFCF02F0036A046A056A010E0C6E0D6A96
:101060000E6A0F6A2DEC0DF0EE500C26EE500D229C
:10107000EE500E22EE500F22FB0EDB500C240DEC36
:101080000DF00D20EA6EEFCF08F0096A0A6A0B6ACC
:10109000080E1F0B02E004DBFEE1085002120950AB
:1010A00003120A5004120B500512020E146E156A38
:1010B000166A176A2DEC0DF0EE501426EE5015222C
:1010C000EE501622EE501722FB0EDB5014240DECCE
:1010D0000DF01520EA6EEFCF10F0116A126A136A54
:1010E000100E1F0B07E0D89010361136123613364B
:1010F000E806F9E1105002121150031212500412C6
:1011000013500512030E1C6E1D6A1E6A1F6A2DEC19
:101110000DF0EE501C26EE501D22EE501E22EE5019
:101120001F22FB0EDB501C240DEC0DF01D20EA6E7F
:10113000EFCF18F0196A1A6A1B6A180E1F0B07E026
:10114000D890183619361A361B36E806F9E11850C9
:101150000212195003121A5004121B500512DFCF4D
:1011600000F0010EDBCF01F0D89000360136D890A8
:1011700000360136B6DB02C0EEFF03C0EEFF04C04E
:10118000EEFF05C0EEFF38DA5BD7080EE15C02E245
:10119000E16AE5524FD288DB90DB87EF0CF084DB0D
:1011A000040E00C0DBFF050E01C0DBFF060E02C00F
:1011B000DBFF070E03C0DBFF2DEC0DF094EF0CF00E
:1011C00073DB98DB62EC0DF0DACFEAFFBAEF0CF0DC
:1011D0006BDBC4DB31EC0DF0A1EF0CF0E96EDACF84
:1011E000EAFFE7EF0CF0DACFEAFF0C50EE14086EDE
:1011F0000D50EE14096E0E50EE140A6E0F50EE14E0
:101200000B6EC4D303220050DE260150DE220250B2
:10121000DE220350DD22DD52DD5231EC0DF026ECF2
:101220000DF0EFCF03F01200080EDBCF04F0090E33
:10123000DBCF05F00A0EDBCF06F00B0EDBCF07F09D
:10124000120031EC0DF0BAD3040EDBCF04F0050E22
:10125000DBCF05F0060EDBCF06F0070EDBCF07F085
:1012600012000C0EDBCF04F00D0EDBCF05F00E0EDE
:10127000DBCF06F00F0EDBCF07F01200D89007325D
:10128000063205320432E80612007EEC0DF0081634
:10129000EE500916EE500A16EE500B1677D3D89082
:1012A0000036013602360336E80612007EEC0DF0F9
:1012B0000416EE500516EE500616EE5007161200F4
:1012C000DACFEAFF0850EE18046E0950EE18056EEA
:1012D0000A50EE18066E0B50EE18076E04501200FE
:1012E0000C0EDBCF00F00D0EDBCF01F00E0EDBCFCE
:1012F00002F00F0EDBCF03F01200080EDBCF00F080
:10130000090EDBCF01F00A0EDBCF02F00B0EDBCFB4
:1013100003F012004CDB11EF0DF0F0DB041AEE507D
:10132000051AEE50061AEE50071A04501200E6DBBA
:10133000081AEE50091AEE500A1AEE500B1A120053
:10134000DDDB0412EE500512EE500612EE500712CD
:101350001200FD0EDBCFE9FFFE0EDBCFEAFF12002D
:10136000C0DAE552E750EF6EDFCF08F0010EDBCFB9
:1013700009F0D89008360936D89008360936FB0EA1
:10138000DB5008244ADB0920EA6E18D30C0EDBCFB1
:1013900008F00D0EDBCF09F00E0EDBCF0AF00F0EBA
:1013A000DBCF0BF01200080EDBCF08F0090EDBCF0D
:1013B00009F00A0EDBCF0AF00B0EDBCF0BF01200A8
:1013C000040EDBCF08F0050EDBCF09F0060EDBCFF5
:1013D0000AF0070EDBCF0BF0120043DBEECF08F074
:1013E000EECF09F0EECF0AF0EFCF0BF01200DBCF1B
:1013F0000FF00C1E0D1E0E1E0F1E1200081E091EE1
:101400000A1E0B1ED9501200041E051E061E071EC2
:10141000D950120009015625006E05505721016E62
:1014200006505821026E07505921036E120009011F
:101430005A25006E05505B21016E06505C21026E3C
:1014400007505D21036E120009015E25006E0550F4
:101450005F21016E06506021026E07506121036E0C
:10146000120009016225006E05506321016E0650CD
:101470006421026E07506521036E12000901662582
:10148000006E05506721016E06506821026E0750FC
:101490006921036E120009016A25006E05506B2157
:1014A000016E06506C21026E07506D21036E120012
:1014B00009016E25006E05506F21016E06507021E6
:1014C000026E07507121036E120009017225006E31
:1014D00005507321016E06507421026E075075216C
:1014E000036E120009017625006E05507721016E0A
:1014F00006507821026E07507921036E120009010F
:101500007A25006E05507B21016E06507C21026E0B
:1015100007507D21036E120009017E25006E0550E3
:101520007F21016E06508021026E07508121036EDB
:10153000120009018225006E05508321016E0650BC
:101540008421026E07508521036E12000901862551
:10155000006E05508721016E06508821026E0750EB
:101560008921036E120009018A25006E05508B2126
:10157000016E06508C21026E07508D21036E120001
:1015800009018E25006E05508F21016E06509021B5
:10159000026E07509121036E120009019225006E20
:1015A00005509321016E06509421026E075095213B
:1015B000036E1200F70EDBCF00F0F80EDBCF01F068
:1015C000EFD94BDA0050EE5C0150EE580250EE5865
:1015D0000350EE581200E926000EEA22120004DA47
:1015E000080EE12625DA040EDB6A050EDB6A060E1C
:1015F000DB6A070EDB6A120034DAEE2A000EEE22F6
:10160000EE22EE222ADA040EEE26000EEE22EE2262
:10161000EE221200E9CF00F0EACF01F0E9CFE6FFB9
:10162000EACFE6FF1200FB0EDBCFE6FFFC0EDBCFBE
:10163000E6FF1200E16EE552E7CFD9FF1200045039
:101640001F0B04DAEECF03F0120058DA045C006ED0
:10165000EE500558016EEE5006581200E9CFE6FF35
:10166000EACFE6FF26EC02F0E552E552E552E552FC
:101670001200E66EE66AE66AE66A1FEF0DF0D890A1
:101680000332023201320032E8061200040EDBCFD0
:1016900006F0050EDBCF07F0FB0EDB500624120030
:1016A000D890083609360A360B36E8061200F90ECD
:1016B000DBCF00F0FA0EDBCF01F012007DDC026E12
:1016C000080EE15E025012008FD9100EE1261200C2
:1016D0007DEC00F0006E060EE15E00501200016E1F
:1016E00000C0E6FFE66E12000222FD0E0322D95072
:1016F0001200016A026A036A12006ADDA5DDD9CF11
:10170000E9FFD4DDAED9EECF0CF0EECF0DF0EECF89
:101710000EF0EFCF0FF00C1E0D1E0E1E0F1EA6D9E1
:10172000F3EF08F00322D950080F58DD7DEF09F0E0
:1017300047DD87DDC7D9BADD0C0EDBCF0CF00D0E0F
:10174000DBCF0DF00E0EDBCF0EF00F0E50DEDAD930
:10175000F3EF08F00322D9500C0F40DD70EF09F0D1
:101760001ADD7FDD83D9A2DD080EDBCF0CF0090E78
:10177000DBCF0DF00A0EDBCF0EF00B0E38DED9CF2B
:10178000E9FFF3EF08F050DDBDD990DD040EDBCFAB
:101790000CF0050EDBCF0DF0060EDBCF0EF0070EC2
:1017A00026DE90D9F3EF08F00322D9508FD108DD5F
:1017B0004BDD88D97BDD04DE081E091E0A1E0B1EC8
:1017C000D9CFE9FF45EF09F0EADC4BDD9BD96EDDAF
:1017D000DDDD14DE080F8FD1DEDC33DD47D966DDB9
:1017E000FCDD0CDE0C0F87D1F3DC1EDD041E051EB4
:1017F000061E071ED9CFE9FFA3DD84D98DEF09F0BE
:10180000E7DC12DDD9CFE9FF51DDCDDDF7DD040FD7
:1018100072D1C5DC26DDF8DD040FE96E91DD26D935
:101820008DEF09F0B8DC0DDDEFDD080FE96E88DD26
:1018300049D98DEF09F0B3DCB6DD64D978DD42D942
:1018400060EF09F0BDDCC9DD3DD971DD5BD960EF2A
:1018500009F0B6DCF9DCD8DD0C0FE96E71DDD9CF0B
:10186000E9FF8DEF09F0B4DCABDDD9CFE9FF5FDD37
:10187000FDD860EF09F08FDC89DDF8D858DDD9CFCD
:10188000E9FF60EF09F0006E34DFE7D8EE50002684
:10189000EE500122EE500222EE5003221200E76EBB
:1018A00058DDE750EBEF0AF004500012055001122A
:1018B00006500212075003121200080E00C0DBFF90
:1018C000090E01C0DBFF0A0E02C0DBFF0B0E03C0D6
:1018D000DBFFCCD8DACFEAFF12003BDD100EEBEFD6
:1018E0000AF0FD0EDB500024E96EFE0EDB500120F5
:1018F000EA6E12000C0E00C0DBFF0D0E01C0DBFF14
:101900000E0E02C0DBFF0F0E03C0DBFF12000C0E39
:10191000DB50EE260D0EDB50EE220E0EDB50EE22DB
:101920000F0EDB50EE221200080EDB50EE26090EE1
:10193000DB50EE220A0EDB50EE220B0EDB50EE22C5
:101940001200040EDB50EE26050EDB50EE22060ED2
:10195000DB50EE22070EDB50EE22120000C0DFFF4C
:10196000010E01C0DBFF020E02C0DBFF030E03C04D
:10197000DBFF1200DF50EE26010EDB50EE22020EDE
:10198000DB50EE22030EDB50EE2212000850041250
:10199000095005120A5006120B500712045012008B
:1019A000F90EDBCF02F0FA0EDBCF03F01200040ECB
:1019B000DBCF00F0050EDBCF01F01200EECF04F01C
:1019C000EECF05F0EECF06F0EFCF07F0120000509B
:1019D000EE260150EE220250EE220350EE221200BB
:1019E000B8DC180EEBEF0AF0D9CFE6FFE1CFD9FF54
:1019F000120008DC070E1F0B120004DC050E1F0B83
:101A0000120002EC09F0040E1F0B120002EC09F0A8
:101A1000060E1F0B120068DE59D0E96EFC0EDB507B
:101A20001200060EDBCF02F0070EDBCF03F0120030
:101A3000DE6ADE6ADE6ADD6ADD52DD521200FB0E0E
:101A4000DBCFE9FFFC0EDBCFEAFF1200EECF00F0A8
:101A5000EECF01F0EECF02F0120054D8DACFEAFF59
:101A60001200D9CFE9FFDACFEAFF1200D950080FF0
:101A7000E96E120032DF040EEBEF0AF053DE110EB6
:101A80001F0B120067DE090E1F0B12004BDE0E0E3D
:101A90001F0B120089DE140E1F0B12005BDE0B0EF3
:101AA0001F0B12003FDE100E1F0B120053DE0A0E3A
:101AB0001F0B120037DE0F0E1F0B120075DE150E06
:101AC0001F0B1200D9500C0FE96E1200040FEEEC40
:101AD00008F08AEF09F03EDE0C0E1F0B120064DEE8
:101AE000160E1F0B1200CFEC08F0C3EF0BF05CDEFC
:101AF000170E1F0B1200E96E45EF09F0DACFEAFF6F
:0C1B0000EE501200D950040FE96E1200E4
:041B0C000501FB6B69
:101B1000FC6B12000501CA6B12000501010ECB6FB0
:101B2000050E56EC16F00701A20EE56F630E9AEC57
:101B300016F00A0E56EF16F00701A00EE56F630EC1
:101B40009AEF16F0B5EC15F0030EE1260501FA0543
:101B500046E1450E0601055D42E0410E055D3FE0B0
:101B6000610E055D3CE0670E055D39E0500E055DD8
:101B700036E0020E05C6DBFF060EE66E060EE66ECA
:101B8000CBEC17F088EC16F0BFEC15F017EC16F064
:101B900002E6A6EC16F005E236EC17F0F7E3DB2AD6
:101BA000F5D7000EE66E050E6DEC17F0000EE66E32
:101BB000050E68EC15F0980E006E630E2BEC17F016
:101BC000020EDBCF07F6080EE66E060EE66EF1ECAF
:101BD00015F0CBEC17F0B7EC2DF05BEC16F0000E27
:101BE000E66E060E6DEC17F011EC16F0F1EC15F048
:101BF000C3EC17F0B0EC16F0950EE56F630E9AEC9F
:101C000016F0030EE15C02E2E16AE55280EF15F0A6
:101C1000B5EC15F0050EE126D650016E006A030EF4
:101C200000C0DBFF040E01C0DBFFD75060EC16F0F4
:101C3000DF6A080EDF5C0BE2DF50EA6AC90FE96E6B
:101C4000070EEA22EF5060EC16F0DF2AF2D7030EFF
:101C5000DBCFE6FF040EDBCFE6FF40EC3AF0E552C7
:101C6000E552DF6A160EDF5C0DE28FEC15F0DF50F7
:101C7000EA6ACC0FE96E050EEA22E552E750EF6EF4
:101C8000DF2AF0D70501E26B090E72EC16F0D80ED0
:101C9000E66E040EE66E8CEC16F03EEC17F08CEC63
:101CA00016F0160EE66EE66AABEC16F025EC3CF08C
:101CB000026E0A0EE15E025007018D0EE56F630EA3
:101CC0009AEC16F0ABEC16F050EC16F08B0EE56FBC
:101CD000630E9AEC16F022EC16F0B0EC16F08B0EB8
:101CE000E56F630E9AEC16F0080E72EC16F08CECB1
:101CF00016F050EC16F0950EE56F630E9AEC16F0A8
:101D0000050EE15C02E2E16AE55280EF15F0B3EC0A
:101D100017F0840E006E630E2BEC17F0A2EC17F098
:101D200009010251E66EE66A00C9E6FF01C9E6FF55
:101D3000F1EC15F0E6EC16F0770E006E630E77EC22
:101D400017F0090106510F0A18E0020A12E0090A09
:101D50000CE0060A06E0030A14E16D0E006E630E45
:101D600013D0650E006E630E0FD05F0E006E630E13
:101D70000BD0560E006E630E07D04D0E006E630E34
:101D800003D0440E006E630EC8EC17F00901085131
:101D9000040A12E0070A0CE0020A06E0010A11E157
:101DA0003A0E006E630E10D0310E006E630E0CD032
:101DB0002A0E006E630E08D01D0E006E630EC8EC76
:101DC00017F01B0E006E630EC8EC17F0AAEC15F0AE
:101DD0004D080AE111C9E6FF12C9E6FF170E006EB1
:101DE000630E4BEC17F00AD011C900F012C901F0D4
:101DF000040EEBEC16F0FDE1EEEC17F03AEC15F00A
:101E0000AAEC15F04D080AE113C9E6FF14C9E6FF74
:101E1000170E006E630E4BEC17F00AD013C900F0DA
:101E200014C901F0040EEBEC16F0FDE1EEEC17F036
:101E30003AEC15F009010851E66EE66A090106510F
:101E4000E66EE66A09010751E66EE66A09010A5183
:101E5000E66EE66A09010951E66EE66A04C9E6FF24
:101E600005C9E6FF09010351E66EE66A020E006E3F
:101E7000630E3DEC15F0130EE15E0350E6EC17F037
:101E8000020EE15C02E2E16AE55280EF15F0FB0E22
:101E9000006E620E2BEC17F0FEEC16F050C900F04D
:101EA000016A00BE016832EC16F0EE0E026E620EA0
:101EB00041EC15F00D0EE15E0550E6EF17F0B5ECC4
:101EC00015F0090EE1260901335107E1345105E10E
:101ED000355103E1365101E18AD0E70E006E620E02
:101EE0002BEC17F0DF6A040EDF5C73E2CAEC16F02D
:101EF000EFCF00F0000EE76E0018E8AE02D000341D
:101F000003D0E750D88000545DE2DF50EA6A370F13
:101F1000E96E090EEA22EFCF04F004C029F06BEC61
:101F200032F027C000F028C001F029C002F02AC01A
:101F300003F0560E2C6E0E0E2D6E8D0E2E6E3E0E76
:101F40002F6E97EC32F0CFEC33F0010E26C0DBFFA2
:101F5000020E27C0DBFF030E28C0DBFF040E29C0E2
:101F6000DBFFFEEC15F0050E26C0DBFF060E27C0DA
:101F7000DBFFFEEC15F0070E22C0DBFF080E23C0CE
:101F8000DBFFCAEC16F0EF50D80F006E016A00BEFE
:101F9000016865EC17F0070EDBCFE6FF080EDBCF1C
:101FA000E6FF050EDBCFE6FF060EDBCFE6FFDD0E1C
:101FB000026E620E41EC15F00B0EE15E05503AEC3C
:101FC00015F005D0D80E006E620EC8EC17F0DF2AAF
:101FD0008AD751C900F0016A00BE016865EC17F0AC
:101FE000D50E026E620E50EC17F0E6EC17F0090EFB
:101FF000E15C02E2E16AE55280EF15F0CE0E006E80
:10200000620E2BEC17F0E80EE66E060EE66E060189
:10201000FA51E66EE66A09015551E66EE66A1E0E51
:10202000E66E090EE66EB80E006E620E77EC17F0E3
:10203000A2EF0DF0B5EC15F0040EE12609011951DF
:102040001A111B111C1107E1DE6ADE6ADE6ADD6A05
:10205000DD52DD521CD0190EE96E090EEA6EEE500B
:102060000901155D006EEE501659016EEE501759BC
:10207000026EEE501859036E00C0DFFF010E01C062
:10208000DBFF020E02C0DBFF030E03C0DBFFB10E5D
:10209000006E620E2BEC17F04EC900F0016A00BE14
:1020A000016865EC17F04FC902F0036A02BE0368CD
:1020B00002C0E6FF03C0E6FF09010D51E66EE66AC5
:1020C0001DC904F0056A04BE056804C0E6FF05C02A
:1020D000E6FFD9CFE9FFDACFEAFFEECFE6FFEECF9A
:1020E000E6FFEECFE6FFEFCFE6FF09010F51E66E08
:1020F000E66A3DC9E6FF3EC9E6FF3FC9E6FF40C9C3
:10210000E6FF3BC9E6FF3CC9E6FF32C906F0076AB5
:1021100006BE076806C0E6FF07C0E6FF31C908F043
:10212000096A08BE096808C0E6FF09C0E6FF30C9B1
:102130000AF00B6A0ABE0B680AC0E6FF0BC0E6FF96
:1021400009010E51E66EE66A09010C51E66EE66A77
:1021500009010B51E66EE66A850E0C6E620E0D6E7D
:102160000E6A0CC0E6FFE66E0EC0E6FF62EC17F0EA
:102170000F6E250EE15E0F50E6EC17F0040EE15CE9
:1021800002E2E16AE55280EF15F0B5EC15F07E0E43
:10219000006E620E2BEC17F050C900F0016A00BE11
:1021A000016832EC16F009010F51E66EE66AE6ECC2
:1021B00016F061EC15F0680E026E620E41EC15F03F
:1021C000130EE15E05503AEC15F0FEEC16F0BADCA9
:1021D000B7EF17F0B5EC15F0060ED1EC16F0AAEC3F
:1021E00015F009E0AAEC15F0200805E0DF2A010E41
:1021F000F6E3DB2AF4D7AAEC15F0200801E0C4D0FE
:10220000D8EC16F001E3DB2AEF6A61EC15F0ABECD9
:1022100016F0B5EC16F001E1B7D0090EE66ECAEC87
:1022200015F0D80EE66E040E55EC15F061EC15F0C5
:10223000E4EC15F061EC15F093EC16F0C3EC17F03C
:1022400022EC16F0B7EC2DF05BEC16F0C3EC17F0B7
:10225000F1EC15F0B5EC16F001E096D061EC15F05C
:10226000C3EC17F088EC16F0ABEC16F017EC17F097
:10227000D80EE66E040E55EC15F0C3EC17F0E4EC46
:1022800015F0C3EC17F093EC16F022EC16F07DEC91
:1022900017F06CEC16F040EC16F002E6A6EC16F027
:1022A0000AE2E0EC17F014EC16F0040EDB2A050E3F
:1022B000F2E3DB2AF0D722EC16F085EC17F06CEC99
:1022C00016F040EC16F002E6A6EC16F00AE2E0EC9E
:1022D00017F011EC16F0040EDB2A050EF2E3DB2AF0
:1022E000F0D70501010ECA6F0A0EE66ECAEC15F0B2
:1022F000D2DB500847E10501FA5123E1040EDB6A05
:10230000050EDB6A40EC16F004E6160E005C000ECB
:10231000015815E28FEC15F0040EDBCFE9FF050E36
:10232000DBCFEAFFE30EE926050EEA22E552E7508D
:10233000EF6E040EDB2A050EE5E3DB2AE3D7050189
:10234000F96BFA6B600E006E620E2BEC17F0F0EC7E
:1023500016F017EC17F08DEC0DF0F5EC16F005010A
:10236000010EFA6FE66ECAEC15F0E80EE66E040E8A
:102370009CDBF0EC16F0E4EC15F0F0EC16F093ECCE
:1023800016F002D00501FA6B060EE15C02E2E16A8A
:10239000E552B6D3B3EC17F00501CA5112E1070EAE
:1023A000E66EE66A580E006E620E23EC17F089DBCB
:1023B000BAEC16F001E099D0070EA4DB0BDFE55272
:1023C00019D0D0EC17F0C3EC17F07BDB8DEC17F0D5
:1023D000F1EC15F014EC16F0050EE66EE66A520EFE
:1023E000006E620E44DBBAEC16F006E0400EE66EBC
:1023F00090EC19F0E55279D0D950FD0FE96EDACFA3
:10240000EAFF050EEE6E060EED6E1BEC16F0EF50B9
:10241000450836E194EC17F04D0832E1D950FD0F34
:10242000E96EFF0EDA20EA6E020EEE26000EED22B5
:10243000D0EC17F0010EE66E050EE66E010E62DBC3
:102440008DEC17F09CDB17EC16F002E6A6EC16F00C
:1024500005E236EC17F0F7E3DB2AF5D7C2DB010E15
:10246000E66E050E35DB1BEC16F0EFCF00F5D9500C
:10247000FD0FE96EDACFEAFF000EEE6E050EED6E8F
:10248000DADBEF50430A28E0190A0FE01B0A2DE1BE
:102490004B0E006E620E2BEC17F00501CB5125E1BF
:1024A0008DEC0DF0A2EC0DF011D094EC17F030088B
:1024B00010E00901010E546F0501CB5116E18DECBE
:1024C0000DF025DCE4DCFBDC99DDB4DD9CEC0DF0EB
:1024D0000CD00901546B09D0010E14DB0CD8E55265
:1024E000E5520501CB5101E12FD8020EE15C02E279
:1024F000E16AE55205D339DB040ED1EC16F02ADB94
:1025000008E028DB2C0805E0DF2A010EF8E3DB2ACF
:10251000F6D720DB2C0805E1D8EC16F001E3DB2A26
:10252000EF6ACFDA20EC39F0E552E552F3CFFBF554
:10253000F4CFFCF556DB14DB88EC16F0040EE15CFE
:1025400002E2E16AE552DCD210DB040EE126020E63
:10255000ADDB280E0501FCAF02D0D89003D0FB5DA7
:10256000000EFC5907E3FC3507E2FB513108000E71
:10257000FC5502E28DEC0DF0310E0501FB1901E175
:10258000FC5101E1BDD1290EFB1901E1FC5101E132
:10259000ACD1280EFB1901E1FC5101E184D1170EE9
:1025A000FB1901E1FC5101E167D1160EFB1901E1B4
:1025B000FC5101E15BD1150EFB1901E1FC5101E178
:1025C0004FD1140EFB1901E1FC5101E143D1130E6F
:1025D000FB1901E1FC5101E131D1120EFB1901E1BE
:1025E000FC5101E125D1100EFB1901E1FC5101E183
:1025F000FFD00F0EFB1901E1FC5101E1F4D00C0EEC
:10260000FB1901E1FC5101E1DFD00B0EFB1901E1E7
:10261000FC5101E1CBD00A0EFB1901E1FC5101E1B3
:10262000C0D0050EFB1901E1FC5101E1B3D0040E4D
:10263000FB1901E1FC5101E187D0030EFB1901E117
:10264000FC515CE0020EFB1901E1FC5121E0010E9E
:10265000FB1901E065D1FC5101E062D1DE6ADD6A5F
:10266000E6DA04E6100E005C000E015801E35DD1CD
:1026700064DBEF50E66EE66A100EE66EE66AB1DAEB
:10268000380E006E620EF3D938DBEAE3DB2AE8D7B6
:102690008BDA01DA09E06AEC17F006E0020EDB2AB9
:1026A000030EF7E3DB2AF5D76AEC17F001E0BBD0A5
:1026B000D1DA01E3DB2A5AEC17F067E180DB04E6AC
:1026C000100E025C000E035860E2B6DBE2DA35DB86
:1026D000E552E750EF6EABDA04E6080E005C000E40
:1026E000015801E2B5D0A8DBBBEC17F0080E005E84
:1026F000000E015A180E0024E66E42D0DE6ADD6A32
:1027000096DA04E6200E005C000E015801E30DD1BC
:10271000DFCFE6FF3FDAD9CFE9FFDACFEAFF090ED4
:10272000EE1805E1ED5003E1A8EC17F0EF6A84DB49
:10273000200EE66EE66A55DA250E006E620E97D917
:10274000DCDADEE3DB2ADCD72FDAA5D908E0C2DB4E
:1027500006E0020EDB2A030EF8E3DB2AF6D7BADB2B
:1027600062E178DA01E3DB2AA5DB0FE128DB04E68E
:10277000180E025C000E035808E25EDBDFCFE6FFB6
:10278000A4EC3AF0E552E5524CD0F4D9170E006EA5
:102790007C0ECAD08ADBA8DB040EE66E90EC19F042
:1027A000BDD00601FA514DE0DADB3BD00601FA510B
:1027B00048E009010BA503D0010EE66E0CD0DAD972
:1027C000390E006E7C0EB0D00601FA513AE00901D4
:1027D0000BA904D0E66AA7EC28F023D0CBD9670E6A
:1027E000006E7C0EA1D00601FA512BE0B9D916D0AB
:1027F0000601FA5126E0D8D94ED908E06BDB06E095
:10280000020EDB2A030EF8E3DB2AF6D763DB0BE1CB
:1028100021DA01E3DB2AEF6AA2DBB9DA3ADA9CECCF
:1028200028F0E55215D0A6D9DB0E006E7B0E7CD0C9
:102830000601FA5106E06DEC28F00AD00601FA51C3
:1028400005E198D9F50E006E7B0E6ED07AEC28F07B
:102850002CDB6AD00601FA5112E082D9020E16D0A2
:102860000601FA510CE07CD9E66A11D00601FA5152
:1028700006E076D9030E0AD00601FA5105E17AD9AD
:10288000F50E006E7B0E09D06BD9010EE66EB2EC30
:1028900028F0E552E552E55208DB26DB020E06DAA7
:1028A0001AEC10F042D080D9F6D808E013DB06E02D
:1028B000020EDB2A030EF8E3DB2AF6D70BDB0EE170
:1028C000C9D901E3DB2AEF6A4BD9D0EC29F0E552F4
:1028D0005EDAE6D9A00EE56F630E17D08DEC0DF031
:1028E00049D9DB0E006E7B0E14D00701190EE56F7F
:1028F000620E20DA35D9D4D9130EE56F620E05D0F9
:102900002FD9CED9110EE56F620E14DA050E38DB21
:10291000CCDAEADA020EE66E79EC36F0E55205D052
:1029200029D9060E006E620EDFDA9CEC0DF005016F
:10293000FB6BFC6B0001606B040EE15C02E2E16A80
:10294000E552DED012D90501CA5121E0CB51000871
:102950001EE3020E49DBF30E006E610E19DBB1D8E7
:1029600066DAEA0E006E610E13DBAA0EE76EFB0E4E
:10297000DBCFE9FFFC0EDBCFEAFF3BDAEF6AFB0EB1
:10298000DBCFE6FFFC0EDBCFE6FF51DA2EDAEFD22B
:10299000EADA2ADB09010851040A12E0070A0CE00E
:1029A000020A06E0010A10E1DE0E006E610E0BD095
:1029B000D30E006E610E07D0CA0E006E610E03D0FA
:1029C000BB0E006E610EE4DA090106510F0A18E031
:1029D000020A12E0090A0CE0060A06E0030A14E102
:1029E000B20E006E610E13D09C0E006E610E0FD001
:1029F0008E0E006E610E0BD0840E006E610E07D03D
:102A0000720E006E610E03D0610E006E610EC0DAB0
:102A1000520E006E610EBCDA95DA9CD84D0809E1C1
:102A200011C9E6FF12C9E6FF4C0E006E610E33DAE3
:102A30000CD011C900F012C901F0040ECCD9FEE18E
:102A400049D8460E026E610E2BDA14D83F0E006E86
:102A5000610E9EDABBD93A0E006E610E1CDA0AD8FE
:102A6000C4D9020EE15C02E2E16AE55249D0EBD939
:102A7000C3EF17F090DA17EF17F0E5D923DA036EFA
:102A80001200036E046A02C0E6FFE66E04C0E6FFB1
:102A900019DA056E12005CDAEF50120041EC35F0E5
:102AA000036E050EE15E03501200E66EC5D9E6D94D
:102AB0001CEF17F09EEC35F0036E050EE15E03503F
:102AC0001200FD0EDBCFE6FFFE0EDBCFE6FF1200AD
:102AD0006EDAC4D1050E0026000E01220A0E2D6EFC
:102AE0002E6A00C028F001C029F023EC40F028C075
:102AF00000F029C001F028C0E6FF29C0E6FF12005F
:102B0000E16E35D2E76EFD0EDBCF00F0FE0EDBCFBF
:102B100001F0E7500026000E012265EF17F047ECA8
:102B20003AF0F3CFF6FFF4CFF7FF400E2D6E2E6A8A
:102B3000F6CF28F0F7CF29F057EC33F024C0F6FF9A
:102B400025C0F7FFE80EF6267D0EF7220800F550A7
:102B5000E66E1200DECFE9FFDDCFEAFFEF50120094
:102B6000600EE66E000EE66E1200D9CFE6FFE1CFF2
:102B7000D9FF1200FBC5E6FFFCC5E6FF1200100EF0
:102B8000E66EE66AE80EE66E040E11DAD3D9DE6A66
:102B9000DD6A12005FEC3AF0E552020EF3CFDBFF84
:102BA000030EF4CFDBFF1200D950020FE96EDACF2B
:102BB000EAFF600EEE6E000EED6E1200E552F3CFEE
:102BC000DEFFF4CFDDFF1200B7EC35F0E552E55241
:102BD000F3CF02F0F4CF03F0F3CFE6FFF4CFE6FF3C
:102BE0001200DECFE6FFDDCFE6FF12004FEC3EF035
:102BF000036E070EE15E0350A2EF0DF0010EDBCF76
:102C000026F0020EDBCF27F0030EDBCF28F0040EF8
:102C1000DBCF29F00A0E2B6E2C6A2D6A2E6A7DEF0F
:102C200033F0B1D972D91AD1AED967D917D1A3D996
:102C3000D89001501200FD0EDBCFE9FFFE0EDBCF76
:102C4000EAFF1200100EE66EE66AD80EE66E040E7B
:102C5000E66E1200020EDBCFE9FFDB2A030EDBCFAC
:102C6000EAFF120032D909014D51E66EE66A4BC9FE
:102C7000E6FF4CC9E6FF49C9E6FF4AC9E6FF120074
:102C8000040EDBCF00F0050EDBCF01F0D890015031
:102C9000120020EC39F0E552E552F350E66E1200D6
:102CA00047EC19F0E552E55207011200E66E79ECA7
:102CB00036F0E5521200006E060EE15E0050120082
:102CC000006E016AD950030FE96EDACFEAFF0050B7
:102CD000EE260150ED2212002DD9040EDB6A050EFE
:102CE000DB6A1200E66E5FEC3AF0E552DE52F3CF9B
:102CF000DEFFF4CFDDFFDD5212004FEC3EF0036E3D
:102D00000B0EE15E0350A2EC0DF0DF2A010E120063
:102D10007DEC35F0E9EF17F0010EDBCFE6FF020E98
:102D2000DBCFE6FF120025EC3CF0046E0A0EE15EFC
:102D300004501200E66F35EF19F0DECFE9FFDDCF6A
:102D4000EAFFEB0EE926060EEA221200000E005CF6
:102D5000040E01581200CC0EE66E050EE66E12004F
:102D60000CEC2EF036D9070112005DEC35F031D9AC
:102D700000091200B9EC34F0036E070EE15E035057
:102D800000091200F8D80001800E01141200E5526B
:102D90001CEF17F0DF50EA6A330FE96E090EEA22E2
:102DA0001200E126FD0EDBCFDEFFDBCFDDFF1200E0
:102DB000DFCFE9FFDF2A010EDBCFEAFF1200DECF13
:102DC00002F0DDCF03F0D89003501200090110513A
:102DD000E66EE66A1200D89000360136E80412006A
:102DE000E30EE66E050EE66E1200A2EC0DF09CEF0F
:102DF0000DF0E750E926000EEA221200CCD841C9B6
:102E0000E6FF42C9E6FF43C9E6FF44C9E6FFF2D840
:102E10001B0E006E630EBCD8BED845C9E6FF46C97E
:102E2000E6FF47C9E6FF48C9E6FFFAEF17F0ABD85F
:102E30001DEC35F0E9EF17F0020EDBCFE6FF030ED5
:102E4000DBCFE6FF1200016E026A00C0E6FFE66E0D
:102E500002C0E6FF12000BDE5AEF15F0E66E6FECD3
:102E600038F0006E080EE15E00501200A9D8000E86
:102E7000E66E060E2DDEDF2A010E1200B7EC35F0ED
:102E8000E552E552F3CF00F0F4CF01F0F3CFE6FFC7
:102E9000F4CFE6FF1200F1DD070EE15E03501200F1
:102EA000F0DD070EE15E0550120064DED00E006E0C
:102EB0007B0E1200EF6A54DE20EC39F0E5527EDE24
:102EC000C2EF16F068D84FEF3EF000C0E6FF01C039
:102ED000E6FF1200E0DD2C081200E66EB7EC35F0DC
:102EE000E5526CDEF1EF15F0C2DDF6EF15F0C5DD51
:102EF0000D0EE15E03503AEF15F0000EE66E020E85
:102F0000E66EFA0EE66E040E1200000EE66E010E7C
:102F1000E66EF80EE66E040E120073EC2EF0E5522B
:102F2000E552E552DEEF15F0010EE76E84DE61DF5B
:102F3000EF501200E66EC6EC37F0006E080EE15E50
:102F400000501200020EE66E5FEC3AF0DEEF15F074
:102F5000020EDBCFE9FF030EDBCFEAFF120000DE3B
:102F600098DE91EF28F001DE020EE1261200E55214
:102F7000E7CFD9FF1200DECF00F0DDCF01F0120065
:102F800095DE8DEF0DF0000EE66E060EE66E120079
:102F90006EDD4EEF15F0000EE66E050EE66E1200C9
:102FA000950E006E630E4FDF8CDD4EEF15F0E66E72
:102FB000000EE66E030EE66EFC0EE66E040E1200C8
:102FC0000601006B010EE66EE66A120053DDA2EF09
:102FD0000DF0E552E552E552E55212007BDD170E89
:102FE000026E630E50EF17F0CBDFFE0E006E610E27
:0E2FF0002BEF17F0A1EC36F05EDE3AEF15F095
:022FFE00D8CF2A
:10300000E4FFE0CFE4FFE46EDACFE4FFE2CFDAFFE3
:10301000E9CFE4FFEACFE4FFF6CFE4FFF7CFE4FF28
:10302000F5CFE4FFF3CFE4FFF4CFE4FFFACFE4FF02
:1030300000EE20F0140EE80403E3EECFE4FFFBD72C
:1030400000EE00F0200EE80403E3EECFE4FFFBD730
:10305000E652B8EC3BF0E55200EE1FF0200EE8041B
:1030600003E3E5CFEDFFFBD700EE33F0140EE804E9
:1030700003E3E5CFEDFFFBD7E5CFFAFFE5CFF4FFA4
:10308000E5CFF3FFE5CFF5FFE5CFF7FFE5CFF6FF9F
:10309000E5CFEAFFE5CFE9FFE5CFDAFFE550E5CF81
:1030A000E0FFE5CFD8FF10000801009B120096EC6E
:1030B0001EF0E652D9CFE6FFDACFE6FF8EEC3BF00A
:1030C000E552E552000901E1CDD0FF0E0901F65DA0
:1030D00001E08CD00D0EDF5CEDE09BEC1EF063ECAC
:1030E0001EF003E1015001E1F5073A0EDF5C20E13B
:1030F000060EF55D1DE32B0E0701005D19E1490E7B
:10310000015D16E1500E025D13E1440E035D10E116
:103110000901F50501EC1EF0EF6A050EE66E070EDB
:10312000E66E82EC1EF00901FD0EF66FF56BC2D75C
:103130000A0EDF5CBFE10901F507BFEC1EF0040ECB
:10314000F55D72E32B0E0701005D6EE1430E015D3C
:103150006BE14D0E025D68E1540E035D65E1070E03
:10316000DF6EDF50DF2A01EC1EF0EF50220804E092
:103170000901F551DF5CF5E3DF0401EC1EF0EF6AB5
:103180000901E16B140EE66EE66A070EE66E070EA5
:10319000E66EE10EE66E090EE66EF0EC35F0006EBE
:1031A000060EE15E00500901F46BF5C9DFFFDF5048
:1031B000DF0601EC1EF0EF502C0803E0DF500008A2
:1031C000F6E3DF50016A000F006E070E0122020EC7
:1031D0000026000E012200C0E6FF01C0E6FF82ECDF
:1031E0001EF00901F56BFE0EF66F64D7FE0EF65D5C
:1031F0001EE10D0EDF5C03E00A0EDF5C07E1F55116
:10320000F52B01EC1EF0200EEF6E02D09BEC1EF0B1
:1032100063EC1EF003E1015001E1F507F707F751F8
:1032200001E048D7BFEC1EF038D9090118D00D0EC7
:10323000DF5C08E09BEC1EF063EC1EF003E1015044
:1032400001E1F507F7070A0EDF5C06E1F507BFECC1
:103250001EF023D90901F56BF75101E02BD7F56B6F
:10326000F66928D7E55239EF1EF089EC1EF00EE022
:10327000080100B1FDD789EC1EF0E66E67EC3BF06B
:10328000E5520701E52B000EE623EFD7120096EC7E
:103290001EF07AEC1EF00FE0080100B1FDD77AECC9
:1032A0001EF0E66E67EC3BF0E552FD0EDB2AFE0EEB
:1032B000F0E3DB2AEED739EF1EF096EC1EF00801A2
:1032C00000B1FDD7FE0EDBCFE6FF67EC3BF0E55229
:1032D00039EF1EF096EC1EF0040EE126030EE66EAA
:1032E00021EC1EF0360E026E610E0CEC1EF003E0B7
:1032F000FE0EDBCFFFF5330E026E610E0CEC1EF0FE
:1033000003E0FE0EDBCFC8F5040EE15C02E2E16AE9
:10331000E552E16E39EF1EF00501010EC96F120092
:1033200096EC1EF0020EE126FE0EDBCFD6F9090167
:10333000D651210A01E194D0010A01E17ED0600A50
:103340005FE0500A51E0160A4AE0030A3FE0010A32
:103350002AE0070A18E0010A11E0030A01E096D00A
:10336000030EDA6F0C0EDB6FDC6B010ED76F0901F9
:10337000546B4EEC1EF086EC0DF088D03DEC1EF048
:103380000901DA6B83D093EC36F00901020EDA6F93
:10339000DB6FDC6BE66A90EC1EF04EEC1EF0090170
:1033A00069EC1EF073D0050EDA6F0A0EDB6FDC6B72
:1033B00069EC1EF00A0EB9EC1EF041EC1EF0010E95
:1033C000E66E90EC1EF04EEC1EF060D0060EDA6F4A
:1033D000020EDB6FDC6BD76B93EC36F057D03DEC15
:1033E0001EF066EC36F052D0030EDA6F230EDB6F60
:1033F000DC6B3DEC1EF007017A0EE56F7E0E44D0CB
:1034000029EC1EF0A1EC1EF0050EE66E21EC1EF07C
:103410006EEC1EF00FE08050010B0CE10901020E72
:10342000DA6F3C0EDB6FDC6B69EC1EF0020EB9EC60
:103430001EF02AD00901200ED66F0501CB6B0901C1
:10344000DA6BD76B0901520507E0050E525D04E007
:10345000780E0901DF6F02D00901DF6BE06B16D037
:10346000020ED5DB0901030EDA6FD76BD7C9E6FF71
:10347000C8EC1EF0F00E0901DB6FDC6B8AEC0DF07E
:103480000701CE0EE56F7E0EE66FEFDE020EE15C09
:1034900002E2E16AE552E16EECD3FE0E0901F65D4F
:1034A00017E10901520505E0050E525D02E0090130
:1034B000D0DBF5C9E6FFCCEC1EF0E10EE66E090E9E
:1034C000E66EE9EC2AF0006E050EE15E0050120097
:1034D000FF0EF65D07E0CCEC1EF0CAEC11F0E552F1
:1034E000E5521200D651200A01E102D1600A5FE0E4
:1034F000610A3DE0310A12E0110A01E01200020EF9
:10350000F55D01E2E5D14F0E0701005D01E0E0D17C
:103510004B0E015D01E0DCD1100E63D0060EF55DAF
:1035200016E32B0E0701005D12E1490E015D0FE16C
:10353000500E025D0CE1520E035D09E1390E065D8D
:1035400006E00701FC0EE56F7E0E41EF1EF0020E55
:103550000901F55D01E2BCD14F0E0701005D01E0FC
:10356000B7D14B0E015D01E0B3D1210E3AD0020E6E
:10357000F55D07E34F0E0701005D03E14B0E015DB2
:1035800028E0050E0901F55D07E3450E0701005D22
:1035900003E1520E015D09E00A0EE66EE66A1C0EBA
:1035A000006E610E01DB01E093D1020E1AD0020E13
:1035B000F55D19E3450E0701005D15E1520E015D51
:1035C00012E1020E0901D75D03E0030ED75D03E1AE
:1035D000B8DB400E06D0050ED75D01E088D0B1DB28
:1035E000030E53EF1EF0020E0901F55D07E34F0EC7
:1035F0000701005D03E14B0E015D0BE0530E070177
:10360000005D03E1480E015D04E0050E0901D75D90
:1036100055E10901F56B1E0EDB6FDC6B0901536B85
:10362000020EF5DA0901D72BD751080A45E00F0A37
:1036300037E0010A30E0030A29E0010A22E0070A24
:103640001BE0010A0AE0030A01E012000701080E6C
:10365000E56F610E16DB050E0AD00701FB0EE56F64
:10366000600E0FDB050E79DB060E77DB070EAADA9C
:10367000050EE56F610E1ED00701ED0EE56F600EC1
:1036800019D00701DF0EE56F600E14D00701D50ECB
:10369000E56F600E0FD00701BD0EE56F600E0AD01A
:1036A0000701A90EE56F600EECDA040E8BDA9F0EAF
:1036B000E56F600E41EF1EF0200E0CD0070EF55D99
:1036C0000BE3080EE66EE66A960E006E600E6CDA8C
:1036D00003E1020E53EF1EF00B0EE66EE66A8A0E51
:1036E000006E600E61DA01E0F3D0020EDCDA120047
:1036F000050EE66EE66A840E006E600E55DA22E173
:103700002C0E0701085D03E1070E091502D0070E14
:1037100007150901526FE80403E0050E525D06E14A
:103720000901DF6BE06B010EE66E09D00901DF5184
:10373000E01101E0CDD0780EDF6FE06BE66A83EC3C
:1037400036F04FD0050EE66EE66A7E0E006E600E15
:103750002BDA10E10901520505E0050E525D02E089
:10376000090177DA010E53DA0701DD0EE56F7E0EEF
:1037700041EF1EF00A0EE66EE66A730E006E600EF2
:1037800013DA04E1090153511AE113D0070EE66E72
:10379000E66A6B0E006E600E07DA25E1110EE66E2A
:1037A000E66A590E006E600EFFD90DE10901535112
:1037B00006E18DEC0DF008EC0EF09CEC0DF009012B
:1037C000010E536F12000901536B0901520504E009
:1037D000050E525D01E07CD08AEC0DF0400EE66EE5
:1037E0009FDDE5521200050EE66EE66A530E006E8E
:1037F000600EDAD912E12C0E0701085D09E1070E0F
:103800000715006E070E06150A0DF350002402D0AE
:10381000070E06150901556F1200070EE66EE66ADF
:103820004B0E006E600EC0D908E00B0EE66EE66A25
:103830003F0E006E600EB8D903E10501CB6B12009C
:10384000090EE66EE66A350E006E600EADD93CE0FC
:10385000060EE66EE66A2E0E046E600E056E066AB1
:1038600004C0E6FFE66E06C0E6FF5DDA076E070EEF
:10387000E15E0750000928E00A0EE66EE66A1C0EBB
:10388000086E610E096E0A6A08C0E6FFE66E0AC09D
:10389000E6FF49DA0B6E070EE15E0B50000914E0FB
:1038A0000B0EE66EE66A8A0E0C6E600E0D6E0E6AE8
:1038B0000CC0E6FFE66E0EC0E6FF35DA0F6E070EAF
:1038C000E15E0F50000904E18AEC0DF0400EEBD9E7
:1038D0001200C8D91EE0220A1AE0230A0DE0200ACD
:1038E00001E0B1D0010ED719D76FD8D90701D90E91
:1038F000E56F7E0EC6D9A7D0010ED719D76FE66E39
:103900000FDA0901D719E66E8BEC36F01BD0010EE9
:1039100017D0000ED880DF55000EE05508E2DF0713
:10392000000EE05BDF51E01102E1210E09D005013C
:10393000CB51000809E2CB2BCB513C0805E2400EED
:10394000E66EEEDCE5527FD00901520504E0050E7B
:10395000525D01E078D00501FB51FC1109E0050141
:10396000CA0506E10501CB5103E1A4EC12F06BD0CE
:103970000501C851000819E20501CA0516E10A0E41
:1039800046D90501C80508E1040E0901065D04E0F9
:10399000030E0901075D04E1020E0501C85D02E1A5
:1039A000C8EC14F00501C86B4ED00501FF510008AA
:1039B0001BE20A0E2CD9E66A44D90501FF0508E18D
:1039C000040E0901065D04E0030E0901075D04E130
:1039D000020E0501FF5D05E1D6D93CEC2AF0E55267
:1039E000E5520501FF6B2FD00501C90515E1050161
:1039F000CA0512E10901545100080EE20501CB513C
:103A00000BE10501C96B0A0E02D98DEC0DF01AEC21
:103A100010F087EC0EF015D009010F51000813E2E9
:103A20000601F35100080FE20501CB510CE1090139
:103A30005451000808E2020EEAD88DEC0DF047EC74
:103A40000FF09CEC0DF0020EE15C02E2E16AE5523F
:103A5000E16E0FD10901D651200A01E012000501E3
:103A6000CB51000802E274EF1EF07DD912E0020E85
:103A7000CED80701E20EE56F7E0EE66F35EC19F049
:103A800008014151000803E2010EC1D8F9D7020E26
:103A9000BED81200E7D815E10501CB51000802E2BB
:103AA00023D90FD00901530508E109015451000839
:103AB00004E24CD901E001D9E7D8010E0901D71978
:103AC000D76F020EE15C02E2E16AE552E16ED1D00D
:103AD0001200C8D810E1090153050DE10901545144
:103AE0000AE10501CB51000802E2FED804D02ED92C
:103AF00001E0E3D8C9D8020EE15C02E2E16AE552D6
:103B0000E16EB7D00901DD2B000EDE23DA5100088B
:103B100010E2DBC900F0DCC901F0DB07000EDC5B62
:103B20000050011006E1DAC9E6FF90EC19F0E55209
:103B300001D0CFDEBDD81E0E2D6E2E6A55D801E104
:103B400089DF11D901E1A6DFB3D82C0E2D6E010E4D
:103B50002E6E4AD801E1BCDFABD8580E2D6E020E96
:103B60002E6E42D806E1B5DF580E0901DD5F020E68
:103B7000DE5B1200200E0901D65D0AE10901530542
:103B800007E1010ED75C03E2010E4EEF1EF0D9D81B
:103B90001200800E946E4BEC3BF0E66AF9D80901F6
:103BA000526B010E53EF1EF0016E026A00C0E6FF79
:103BB000E66E02C0E6FFB7D8036E070EE15E035063
:103BC00000091200E66E5FEC3AF0E552F3CF00F028
:103BD000F4CF01F0F3CFE6FFF4CFE6FF47EC19F0A6
:103BE000E552E55207011200DDC928F0DEC929F0CF
:103BF00023EC40F024C000F025C001F02450251033
:103C00001200EA6A000FE96E070EEA221200E66E61
:103C100079EC36F0E5521200036E046A02C0E6FF4A
:103C2000E66E04C0E6FFAFD81EEC36F0056E050E5A
:103C3000E15E0550F3CF00F0F4CF01F0F350F41043
:103C400012005FEC3AF0E552F3CFDEFFF4CFDDFF78
:103C50001200DF6BE06B0901050E526F010EE66E7C
:103C6000C8EF1EF063D8020EE1260901D651200AE2
:103C70001200E552E7CFD9FF120063D8E66AC8EF19
:103C80001EF0E66F35EF19F087EC0EF047EC0FF001
:103C90005FEC0FF01AEC10F09CEF0DF0E66E8BEC81
:103CA00036F0E5521200E66E90EC19F0E552120083
:103CB000DDC900F0DEC901F0120065D8C5EC10F0D6
:103CC000E552E5521200F551006E016AC80E001867
:103CD0001200D76B0901546B8AEF0DF0DECFE9FFBC
:103CE000DDCFEAFFEF501200050E0901DD5F000E87
:103CF000DE5B1200FD0EDBCFE9FFFE0EDBCFEAFF3D
:103D0000EF50120020EC39F0E552E552F3CFF7F90D
:103D10001200E5C7F6FFE6C7F7FF0800F5501200EE
:103D200037D8010E120038D8B9EF34F0D9CFE6FFFA
:103D3000E1CFD9FF1200F551F52B63DFDFCFEFFFA5
:103D40001200E66A8BEC36F0E55212000B0EE66EBE
:103D500078DF8DEC0DF06EEF1EF034DFF70EE56FBF
:103D6000600E41EF1EF0A4DF3C0E2D6E2E6AF4EFC4
:103D70001DF04DDF0701270EE56F610E1200F551B2
:103D800040DFEF6A1200DECFE6FFDDCFE6FF120074
:103D900083EC36F0E5521200000EE66E070EE66E7A
:023DA00012000F
:0E3DA2000DEC24F0FB0EDBCFF3FFDB06F3503D
:103DB00000090AE05BEC24F0FA0EC6EC24F0F3E113
:103DC000011CF1E1010E01D0000E3CEF24F00DECDE
:103DD00024F03B0EE12402E3E168E652E16E010EBD
:103DE000DB6A020EDB6AF90EDBCFF6FFFA0EDBCFE1
:103DF000F7FFFB0EDBCFF8FF0800F550DF6EDF505A
:103E000002E160EF23F0250EDF5C02E053EF23F0C8
:103E1000030EDB6A040EDB6A050EDB6A060EDB6A44
:103E2000070EDB6A75EC23F02D0EDF5C0CE02B0E29
:103E3000DF5C09E0200EDF5C06E0230EDF5C03E0C0
:103E4000300EDF5C1AE1DF50300A14E0130A0FE095
:103E5000030A0AE00B0A05E0060AE4E1030EDB8030
:103E6000E1D7030EDB82DED7030EDB84DBD7030E44
:103E7000DB86D8D7030EDB88D5D72A0EDF5C1BE1A3
:103E800071EC23F0BFEC23F010E0030EDB80286818
:103E90002968130EDBCF2DF0140EDBCF2EF08CEC47
:103EA00034F0040E26C0DBFF03D0130EA8EC23F081
:103EB00075EC23F00BD0090EDB6A16EC24F003E05E
:103EC0008AEC24F0FAD7090EA8EC23F0030EDBB03D
:103ED000DB982E0EDF5C1BE175EC23F02A0EDF5C15
:103EE0000BE171EC23F0BFEC23F003E1130EFAECCD
:103EF00023F075EC23F00BD0090EDB6A16EC24F0EE
:103F000003E08AEC24F0FAD7090EFAEC23F0680EED
:103F1000DF5C07E175EC23F0680EDF5C1DE1030E4A
:103F200018D0740EDF5C17E07A0EDF5C14E0480EE8
:103F3000DF5C06E0540EDF5C03E05A0EDF5C02E15A
:103F4000020E07D06C0EDF5C03E06A0EDF5C04E15A
:103F5000010E4DEC24F0C9DBDF506E0A01E17FD386
:103F60001E0A01E192D1200A01E18FD13F0A01E14D
:103F700049D11A0A01E146D10D0A01E143D1200AD3
:103F800001E140D13A0A01E13DD1200A01E13AD1F3
:103F9000260A01E135D10D0A01E132D11A0A01E107
:103FA000D9D0200A4AE0300A1FE0460A0EE0250A6E
:103FB00001E083D3D950F90FE96EFF0EDA20EA6EE3
:103FC000010EEE5E000EEE5AEE5A5BEC24F0250E6A
:103FD000E66E95DB03E1011C01E169D357EC24F0A7
:103FE00001E26BD3DB2A69D3080EDB6A040EDB50D7
:103FF000010806E2040EDB041FEC24F0DB508BDB2F
:10400000080EDB5009E0030EDB50010B05E172DB0B
:1040100001E04DD3080EDB6A64DBEFCFDFFFCFECAE
:1040200024F003E1011C01E142D357EC24F001E349
:10403000DB2A60DB01E141D33AD3070EDB500208F3
:104040000FE19BEC24F0030E62EC24F00E0EEECF99
:10405000DBFF0F0EEECFDBFF100EEECFDBFF20D02D
:10406000F70EDBCF03F0F80EDBCF04F0020E035E99
:10407000000E045AF70E03C0DBFFF80E04C0DBFF8E
:1040800003C0E9FF04C0EAFF52EC24F0026A0E0EFE
:1040900000C0DBFF0F0E01C0DBFF100E02C0DBFF14
:1040A0000E0EDBCFE6FF0F0EDBCFE6FF100EDBCFF1
:1040B000E6FF41EC36F0E552E552E552130E27C01B
:1040C000DBFF140E28C0DBFF060EDB5005E0130EED
:1040D00096EC24F001E26ADBBAEC24F002E2130E63
:1040E00037DB7DEC24F006E0040E96EC24F002E2CF
:1040F000050E2EDB030EDBB005D0FCDA01E0D7D2D3
:10410000080EDB6A090EDB6A0E0EDBCFF6FF0F0E20
:10411000DBCFF7FF100EDBCFF8FF0800F550DF6EA6
:10412000DF5014E0C0EC24F011E2CFEC24F003E106
:10413000011C01E1BCD2BBDB01E3DB2A090EDB2A57
:10414000D9500E0FE96E000ECBDBE7D7D3DA01E1D1
:10415000B4D2ADD2C6DA110EEECFDBFF120EEDCF28
:10416000DBFF110EDBCFE6FF120EDBCFE6FFB7EC75
:1041700035F0E552E552130EF3CFDBFF140EF4CF0A
:10418000DBFF060EDB5004E0130ED0DB01E20EDB9A
:10419000BAEC24F002E2130EDBDAAFDB05E0040E2A
:1041A000C5DB02E2050ED4DA030EDBB005D0A2DADD
:1041B00001E07DD2080EDB6A090EDB6A110EDBCF4F
:1041C000E9FF120EDBCFEAFFEFCFDFFFDF5014E095
:1041D000D7DB12E2E4DB03E1011C01E168D267DB1B
:1041E00001E3DB2A090EDB2A110EDB2ADBCFE9FF14
:1041F000120EE8E3DB2AE6D77DDA01E15ED257D280
:10420000030EDB8E070EDB0410E195DB040E5ADB98
:104210000A0EEECFDBFF0B0EEECFDBFF0C0EEECF68
:10422000DBFF0D0EEECFDBFF6CD0070EDB5003087B
:104230002CE1030EDBAE0DD0B2DA020E76DAEFCF50
:1042400000F0016A026A036A00AE39D001680268B0
:1042500035D0F70EDBCF01F0F80EDBCF02F0020E07
:10426000015E000E025AF70E01C0DBFFF80E02C01D
:10427000DBFF01C0E9FF02C0EAFFEFCF00F00A0E4A
:1042800000C0DBFF0B0EDB6A38D0070EDB500208E4
:1042900009E1030EDBAE04D059DB02AE10D00ED024
:1042A00055DB0DD0030EDBAE12D079DA020E3DDA0B
:1042B000F9DA026A036A01AE02D002680368E2DA40
:1042C0000C0E02C0DBFF0D0E03C0DBFF1AD0F70E91
:1042D000DBCF02F0F80EDBCF03F0020E025E000E21
:1042E000035AF70E02C0DBFFF80E03C0DBFF02C06B
:1042F000E9FF03C0EAFFD6DAC5DA0C0EDB6A0D0E61
:10430000DB6A060EDB5005E1010EF36E050EF3CFFE
:10431000DBFF150EDB6A160EDB6AD950370F006E15
:10432000000EDA20016E390E00C0DBFF3A0E01C02C
:10433000DBFF380EDB6A080EDB6A0A0EAEDADF50EE
:10434000780A12E0200A10E0280A0CE0200A0AE0AD
:104350003F0A06E00D0A02E0200A08E1020E05D03D
:10436000080E03D0080EDF26100E97DA030EDBBE10
:1043700002D0DB92DB94DB50800B24E08ADAD89009
:10438000030EEB50000A08E6000EEE5C000EEE583D
:10439000000EEE58000EEE5815E213DA2B682C686A
:1043A0002D682E68C7EC3FF00A0E22C0DBFF0B0E13
:1043B00023C0DBFF0C0E24C0DBFF0D0E25C0DBFF8E
:1043C0002D0E08D0030EDBA202D02B0E03D0DBA4EF
:1043D00008D0200EF36E170EF3CFDBFF150EDB2A8D
:1043E00002D0170EDB6A050EDB5003E1B7D901E1FD
:1043F00089D0EE0E006E800E016E000E026E070E6A
:10440000DBCF03F0046A056A066A03C02BF004C020
:104410002CF005C02DF006C02EF0D3D9FFEC3FF0F4
:1044200000502224F36E01502320F46E0250242009
:10443000F86EF4CFF7FFF3CFF6FF0800090EF5CFC3
:10444000DBFF580EDF5C0FE1610EF36E090E7BD9C6
:104450000AE3200E006E090EDBCFE7FF0050E75E97
:10446000090EE7CFDBFF070EDBCF00F0016A026A1F
:10447000036A0FDA00C02BF001C02CF002C02DF04F
:1044800003C02EF0EECF26F0EECF27F0EECF28F0CF
:10449000EFCF29F0FFEC3FF029C0EDFF28C0EDFF82
:1044A00027C0EDFF26C0EFFF390EDBCFE9FFDB06AB
:1044B0003A0EDBCFEAFF01E2DB06090EDBCFEFFFAE
:1044C000150EDB2A4BD995E1030EDBA61DD06F0E2E
:1044D000DF5C06E1C1D918E3150EDB285BDA14D0E6
:1044E000780EDF5C09E0580EDF5C06E0620EDF5CF0
:1044F00003E0420EDF5C08E1020EF36E160EF3CF0E
:10450000DBFF02D0150EDB6A030EDB50100B0EE052
:10451000040EDBCF00F0050EDB50D880005406E21D
:10452000060EDB5003E1040EDB5034DA95D90AE2C3
:10453000050EDBCFE7FF150EDB50E75E050EE7CF7C
:10454000DBFF02D0050EDB6A040EDBCF00F0160E97
:1045500045D9D880005414E2160EDBCFE6FF150EC5
:10456000DBCFE6FF040EDBCFE6FF050EDB50E552A6
:10457000E75CE552D880E754E552D880E7545FD92C
:10458000030EDB50010B0BE1080EDB5008E0B2D844
:1045900001E08DD0080EDB50BED8080EDB6A170E86
:1045A000DB5007E088D9170EF1D903E1011C01E1C6
:1045B0007ED0160EDB5016E07ED9300EE66E9FD808
:1045C00002E1011C74E077D9DFCFE6FF85EC3FF014
:1045D000E552E552E552F4CF01F00001F31C02E18F
:1045E000011C65E0050EDBCF00F0160EDB50D88015
:1045F000005409E2050EDBCFE7FF160EDB50E75E45
:10460000050EE7CFDBFF300EE66E050ECBD94FE18E
:10461000390EDB2ADBCFE9FF3A0E01E3DB2ADBCFE1
:10462000EAFF090EEFCFDBFFDB500EE044D9090EA5
:10463000ADD902E1011C3BE0390EDB2ADBCFE9FFFB
:104640003A0EEDE3DB2AEBD755D831E1160EDBCF7E
:10465000E6FF080EC3D8E552E7245DD82ED0070E3A
:10466000DB50030A1CE0010A14E0030A07E07BD9CF
:10467000DBCFEEFF020EDBCFEDFF1FD0F5D8056AD2
:1046800003AE02D0046805682CD8BCD805C0EEFF84
:1046900014D0EAD803BE046824D8B4D80ED063D9A5
:1046A000DBCFEFFF0AD07BD905E1011C03E1F36802
:1046B000F46810D0FCD801E3DB2A79D9FCEF1EF0B6
:1046C000010EDBCF00F0020EDBCF01F000C0F3FFE4
:1046D00001C0F4FF3B0EE15C02E2E16AE552E16EEB
:1046E000CBD029D9020E62EF24F061D90800F55031
:1046F000DF6E1200200EE66E080ED2EF24F085EC7D
:104700003FF0E552E552E552F3CF00F0F4CF01F06F
:104710000001F31C1200006E016AD950010F4DD93F
:104720000050EE260150ED221200045E000E055AE4
:10473000F70E04C0DBFFF80E05C0DBFF04C0E9FF85
:1047400005C0EAFF1200DBCFF4FFF350F45C120067
:10475000DB50E76E040EE7CFDBFF12000A0EDBCF63
:1047600000F00B0EDBCF01F00C0EDBCF02F00D0ED4
:10477000DBCF03F000500110021003101200130EE3
:10478000EECFDBFF140EEDCFDBFF130EDBCF00F01F
:10479000140EDBCF01F00001800E01141200F70EA1
:1047A000DBCF04F0F80EDBCF05F01200050EDB5076
:1047B000E66ED950130F01D9E552E750EE6EED6A5F
:1047C00012000A0EDBCF26F00B0EDBCF27F00C0E0B
:1047D000DBCF28F00D0EDBCF29F01200DBCFE6FF98
:1047E000150EDBCFE6FF050EDB50E552E724E55260
:1047F000E7241200DB50CED8010EF36E060EF3CF85
:10480000DBFF1200EE50EFCFEAFFE96E02C0EEFFD1
:1048100003C0EEFF04C0EEFF1200D9CFE6FFDACFEF
:10482000E6FFE1CFD9FFE2CFDAFF1200DFCFE6FFEC
:10483000E66A39EC40F0E552E552F3501200E76EBB
:10484000080EE7CFDBFF1200EECF00F0EECF01F055
:10485000EFCF02F0036A1200050EDBCF00F0150E59
:10486000DB50D88000541200010EDBCF02F0020EA4
:10487000DBCF03F0046A1200E552E5CFDAFFE7CFA1
:10488000D9FF12000A0E00C0DBFF0B0E01C0DBFFD8
:104890001200D9500A0FDDEF24F0F36E070EF3CFAC
:1048A000DBFF1200EECF00F0EFCF01F01200010E9F
:1048B000DB2A020E1200FC0EDBCFE6FFFD0EDBCF83
:1048C000E6FF1200005E000E015AF70E00C0DBFF8B
:1048D000F80E01C0DBFF00C0E9FF01C0EAFF1200D3
:1048E000DA20EA6EEF2AEECFF6FF000EEF22EECFCF
:1048F000F7FFEF22EECFF8FF1200040EDBCFE6FF4A
:10490000130EDB50E552E75C9ADFDB5004DF060E46
:10491000DB501200090EDB500A0DF350DF24D00FDC
:10492000E76E090EE7CFDBFF75EF23F0DB50F36E88
:10493000050EA3EF23F0F70EDBCF00F0F80EDBCF70
:1049400001F01200DFCFE6FF7FEF23F028DF030E38
:10495000ECDE24EF24F0D1EC1EF0E552E552E552F6
:10496000E55200091200BDDEEE50EFCFEAFFE96E1E
:10497000010E1200130EDB50F36E040EA3EF23F0B2
:10498000040EDB50F36E090EA3EF23F0DBCFE6FF3E
:104990007FEF23F0E76E050EE7CFDBFF12008BDF22
:1049A000A2EF24F0DBCFE6FF86DFABEF24F0D95097
:1049B000F90FE96EFF0E70EF24F0E96E000EDA20B9
:0449C000EA6E120089
:0C49C400DACFE4FFE2CFDAFFE9CFE4FF36
:1049D000EACFE4FFF6CFE4FFF7CFE4FFF5CFE4FF43
:1049E000F3CFE4FFF4CFE4FFFACFE4FF00EE20F0D2
:1049F000140EE80403E3EECFE4FFFBD700EE00F073
:104A0000200EE80403E3EECFE4FFFBD7E65260BEDE
:104A10007AD80F0150BF4DDAA46AE55200EE1FF0BC
:104A2000200EE80403E3E5CFEDFFFBD700EE33F003
:104A3000140EE80403E3E5CFEDFFFBD7E5CFFAFF63
:104A4000E5CFF4FFE5CFF3FFE5CFF5FFE5CFF7FFC7
:104A5000E5CFF6FFE5CFEAFFE5CFE9FFE5CFDAFFE7
:104A600011007FEC29F0020EE1260601540EE86FDA
:104A7000520EE96FEA6B900E6F6E6EAEFED7606AF3
:104A80000F01A00E196F1869016B200E006F506B9B
:104A9000E00E1D6F1C69800E096F680E086F400ED6
:104AA0000D6F800E0C6F116B106F706AD20E716EED
:104AB000020E726E200E736E0601FA51000802E2B9
:104AC0006F6A02D0600E6F6ED08EA382A380030E39
:104AD000A56E020EE66E5FEC3AF0E552F3CFDEFF14
:104AE000F4CFDDFFDECFE9FFDDCFEAFFEFCFFEF64B
:104AF0000701D16BD96B020EE15C02E2E16AE5527B
:104B0000E16E84EF29F00F0E65140701C86F66CFC0
:104B1000C9F767CFCAF768CFCBF769CFCCF76ACFB1
:104B2000CDF76BCFCEF76CCFCFF76DCFD0F7609EC0
:104B3000C951A60A01E1B6D1030A01E1AAD1010ACD
:104B400001E19FD1070A01E192D1350A01E143D188
:104B5000030A01E104D11C0A01E1C8D0010A01E104
:104B6000B6D00D0A01E182D0010A66E0070A4AE0E8
:104B7000010A42E0030A26E0010A0CE08E0A01E085
:104B80001200CA5109010E5D02E08CEC19F0CAC78F
:104B90000EF91200CAC710F9CCC701F0006ACB5158
:104BA00009010024116F000E0120126FD0C701F01F
:104BB000006A0701CF5109010024136F000E012084
:104BC000146F120054DB02E08CDBFEE137DB02E005
:104BD0008FDBFEE13CDB02E09BDBFEE100500C24BE
:104BE0000901156F01500D20166F02500E20176F2E
:104BF00003500F20186F1200CAC71DF90901780E63
:104C00004E6F120034DB02E06CDBFEE117DB02E0EA
:104C10006FDBFEE11CDB02E07BDBFEE100500C24DD
:104C20000901416F01500D20426F02500E20436F69
:104C300003500F20446F12001ADB02E052DBFEE14A
:104C4000FDDA02E055DBFEE102DB02E061DBFEE1C2
:104C500000500C240901456F01500D20466F025091
:104C60000E20476F03500F20486F1200CAC74DF93E
:104C700009014D5129E0CCC701F0006A0701CB5171
:104C800009010024496F000E01204A6F680E49197E
:104C900005E1010E4A1902E1496B4A6BF00E07016A
:104CA000CE1504E009014B6B4C6B0AD0CEC701F066
:104CB000006ACD51090100244B6F000E01204C6F9A
:104CC0000901780E506F12000901506B1200CAC71B
:104CD00002F9CFC703F9CCC701F0006ACB51090133
:104CE0000024046F000E0120056F12004D0E060116
:104CF000FE5D03E1CAC70FF926D0CAC726F0276AAE
:104D0000286A296A490E2B6E060E2C6E2D6A2E6AB1
:104D1000C7EC3FF022C026F023C027F024C028F0C3
:104D200025C029F0F40E2626010E2722000E282287
:104D30002922E80E2B6E030E2C6E2D6A2E6AFFECD4
:104D40003FF026C00FF9CCC701F0006A0701CB5134
:104D500009010024006F000E0120016F1200150EE2
:104D60000901065D09E2150E0701CA5D05E3030EA0
:104D7000CB5D02E0010EFDDA0F0E0901065D09E1CF
:104D80000D0E0701CA5D05E1030ECB5D02E0010EC9
:104D9000F0DA090106510701CA5D05E10901075171
:104DA0000701CB5D02E08CEC19F0CAC706F9CBC74E
:104DB00007F90601F9A104D00F0E0701CD1504D0A3
:104DC0000701CE390F0B0F0B0901086FCCC709F98A
:104DD000D0C70AF912000F0E0901065D02E10701B2
:104DE000CA890701CA5109010B5D0AE10701CB51CC
:104DF00009010C5D05E10701CC5109010D5D02E0DF
:104E00008CEC19F0CAC70BF9CBC70CF9CCC70DF95C
:104E1000800E09010B151BE1090119511A111B1113
:104E20001C1115E1090115511611171118110FE088
:104E300015C919F916C91AF917C91BF918C91CF9A6
:104E400009011907000E1A5B1B5B1C5B0ED0800E5C
:104E500009010B152DE0090119511A111B111C1123
:104E600027E0196B1A6B1B6B1C6B8CEF19F0CAC710
:104E700030F9CBC731F9CFC732F90901780E4F6F3E
:104E80001200DA6B070EDA5D13E253DADA5147DA11
:104E9000F9D7DA6B070EDA5D0BE24BDA070EDA258B
:104EA0003EDAF8D7CAC72CF9CBC72DF9CCC72EF9F3
:104EB000120025DAE6520F0E0F0155150701C86FD3
:104EC00056CFC9F757CFCAF758CFCBF759CFCCF742
:104ED0005ACFCDF75BCFCEF75CCFCFF75DCFD0F712
:104EE00050CFDFFF0F01509F070EDF1404085BE077
:104EF000070EDF14020821E10701CC51000804E28B
:104F0000CBC737F9CCC733F9D051000804E2CFC77B
:104F100038F9D0C734F9CA51000804E2C9C739F9D1
:104F2000CAC735F9CE51000804E2CDC73AF9CEC759
:104F300036F90901780E516F36D00701C951FA0AC6
:104F400032E1CCC700F0016A026A036ACDC704F0FF
:104F5000056A066A076A080E1F0B02E0C2D9FEE165
:104F600012DACEC708F0096A0A6A0B6A100E1F0B24
:104F700002E0BED9FEE10050082409013D6F015056
:104F800009203E6F02500A203F6F03500B20406FF4
:104F9000D0C701F0006A0701CF51090100243B6F1F
:104FA000000E01203C6FE552AFD1000E0901E76E03
:104FB0004E19E8AE02D04E3503D0E750D8804E559A
:104FC00001E24E07000E0901E76E4F19E8AE02D06C
:104FD0004F3503D0E750D8804F5501E24F07000E00
:104FE0000901E76E5019E8AE02D0503503D0E75002
:104FF000D880505501E25007000E0901E76E5119A3
:10500000E8AE02D0513503D0E750D880515501E2C7
:105010005107120074D9020EE1260601F451DE6E2A
:10502000DD6A0601FB5112E18DD901500318E8AE8B
:1050300002D0033404D00250005C0350015806E251
:10504000020E97D90601010EFB6F15D00601FB0574
:1050500012E178D9020E0226000E03220350011835
:10506000E8AE02D0013404D00050025C0150035875
:1050700002E20601FB6B020EE15C02E2E16AE5522C
:10508000E16E42D1120012000601FC2B000EFD233E
:105090008CDF74D93C0E2D6E2E6AF6D801E1BADF92
:1050A0006DD92C0E2D6E010E2E6EEED801E1EADFC9
:1050B00065D9580E2D6E020E2E6EE6D806E1E3DF9E
:1050C000580E0601FC5F020EFD5B12001200070184
:1050D000D95101E11200D90712000F0140B7FDD7E5
:1050E000FAD80A0E466F010E456F080E406F40B7A2
:1050F000FED712000F0140B7FDD7EDD8060E466F60
:105100002C0E476F010E486F496B4A6B090E4B6FAF
:10511000100E4C6F4D6B080E456F406F40B7FED7B9
:105120001200EDD80F0140B7FDD736D9190EB9D806
:1051300040B7FED7D2DFE8D0E2D80F0140B7FDD7A5
:105140002BD9020EAED840B7FED7C7DFDDD0D7D8F7
:105150000F0140B7FDD720D9030EA3D840B7FED723
:10516000BCDFD2D0CCD8040EE126F5D895EC39F0CE
:10517000E552E55226C0DEFF27C0DEFF28C0DEFF75
:1051800029C0DDFFDD52DD520F0140B7FDD7A3D8A6
:105190000B0E466FFE0EDBCF47FF486B496B8ED878
:1051A00000504A6F8BD8080EDDD8FEE100500F0189
:1051B0004B6F84D8100ED6D8FEE100500F014C6F13
:1051C000CAD8B7EC35F0E552E552F3CF00F0F4CF92
:1051D00001F0040ED89000360136E804FBE1026AC3
:1051E000036A180E086ED9CFE9FFDACFEAFFE8505C
:1051F0001F0BEECF04F0EECF05F0EECF06F0EECFB2
:1052000007F007E0D8900732063205320432E8068C
:10521000F9E10F0E0416056A066A076AB4D800C0E1
:105220004DFF0F01080E456F406F40B7FED7040ECB
:10523000E15C02E2E16AE552E16E66D0A4D8CFC734
:1052400008F0096A0A6A0B6A100E1F0B1200085058
:105250000026095001220A5002220B500322D0C717
:105260000CF00D6A0E6A0F6A180E1F0B1200CDC7E4
:1052700000F0016A026A036ACEC704F0056A066A92
:10528000076A080E1F0B1200FCC628F0FDC629F0A5
:1052900023EC40F024C000F025C001F0245025107C
:1052A0001200476F486B496BFE0EDBCF4AFF4B6B1A
:1052B0004C6B4D6B080E456F406F1200D9CFE9FF64
:1052C000DACFEAFFEECF00F0EECF01F0EECF02F042
:1052D000EFCF03F01200406B400E426F200E416F83
:1052E0001200D8900436053606360736E806120056
:1052F000D890083609360A360B36E8061200D9CFA0
:10530000E6FFE1CFD9FF1200E552E7CFD9FF120047
:10531000D8900C360D360E360F36E8061200EA6AC3
:105320001E0FE96E090EEA22E552E750EF6EDA2B06
:105330001200DA29EA6AC90FE96E070EEA22EF5075
:10534000E66E120009011051006E016ADECF02F014
:10535000DDCF03F01200FC0EDBCFE6FFFD0EDBCF4E
:10536000E6FF1200D8900332023201320032E80622
:105370001200E66E6AEC19F0E5521200FCC600F06D
:10538000FDC601F01200045000260550012206500F
:1053900002220750032212009EDF050E466F120004
:1053A00006DB0701C20EE56F640E13DB35DB74DB31
:1053B0000701BE0EE56F640E0CDB020E28DBFCD28B
:1053C000F6DA0601F9B108D0DCDAFDC5E5F7FEC56D
:1053D000E6F735EC19F0DDDAEFD2E9DA030EE12673
:1053E0000601F9B11BD0CDDA0701B40EE56F640EEA
:1053F000F0DADF6A200EDF5C10E2DFCFE6FFE66A5C
:10540000AF0E006E640EB4DAC1DADFCFE6FF5FECF8
:105410003AF053DB41DBDF2AEDD7BBDA030EE15C68
:1054200002E2E16AE552E16EC7D2C1DA0601F9B1E2
:1054300022D0020EECDAA5DA0701480EE56F7A0EEB
:10544000C8DA04DB41C9E6FF42C9E6FF43C9E6FF0B
:1054500044C9E6FF04DB0701AD0EE56F640EB9DA5F
:10546000F5DA45C9E6FF46C9E6FF47C9E6FF48C980
:10547000E6FFF5DA8EDAA0D29ADA020EE12606010C
:10548000F9B1A0D0C4DA7DDA09010851040A15E0A7
:10549000070A0EE0020A07E0010A16E10701A10E61
:1054A000E56F640E0ED00701960EE56F640E09D00D
:1054B00007018D0EE56F640E04D007017E0EE56FC7
:1054C000640EE66F35EC19F0090106510F0A1CE075
:1054D000020A15E0090A0EE0060A07E0030A19E1CC
:1054E0000701750EE56F640E18D007015F0EE56FBA
:1054F000640E13D00701510EE56F640E0ED0070144
:105500003D0EE56F640E09D007012B0EE56F640EAA
:1055100004D007011A0EE56F640E5BDA07010A0E6C
:10552000E56F640E56DA020EE66ED1DA3DDA4D080A
:1055300009E111C9E6FF12C9E6FF040E006E640E10
:1055400017DA30D011C900F012C901F0040ED8905A
:1055500000360136E804FBE1050E0026000E0122AC
:105560000A0E2D6E2E6A00C028F001C029F023EC2F
:1055700040F028C000F029C001F028C0E6FF29C093
:10558000E6FFFE0E026E630E036E046A02C0E6FFC3
:10559000E66E04C0E6FF5ADA4FEC3EF0056E070EE9
:1055A000E15E0550F3D90701F60EE56F630E11DADF
:1055B00009011051E66EE66AF10E006E630ED8D94D
:1055C000E5D9E7D9020EE15C02E2E16AE552E16E5B
:1055D000F3D1EDD9080EE126FB0EDBCFDEFFDBCFEA
:1055E000DDFFE2D918E0E0D9200815E0DDD9600838
:1055F0000DE257DAEFCF00F07B0E005C07E2D4D962
:10560000E00FE66E4EDAE552E750EF6EDF2A010E4C
:10561000E8E3DB2AE6D7090EE66EE66AE70E006EDF
:10562000630E6AD910E194D9090E7CD908E1F4D946
:10563000E66AD2D90501DA0EFD6F790ECAD0C0D95B
:1056400001E149D1C2D0050EE66EE66AE10E006EB8
:10565000630E52D910E146D90AE1050E27DA010E90
:10566000E66EBAD90501070EFD6F7A0EB2D0A8D941
:1056700001E131D1AAD0040EE66EE66ADC0E006EBE
:10568000630E3AD908E164D9040E4CD90EE098D9DA
:1056900001E121D19AD0030EE66EE66AD80E006EC3
:1056A000630E2AD909E11ED903E1B6D9BEDEEBD0DB
:1056B00087D901E110D189D0050EE66EE66AD20ED7
:1056C000006E630E19D908E143D9050E2BD90EE0FF
:1056D00077D901E100D179D0040EE66EE66ACD0EED
:1056E000006E630E09D909E1FDD803E195D9C4DE46
:1056F000CAD066D901E1EFD068D0070EE66EE66A3F
:10570000C50E006E630EF8D809E1ECD803E184D928
:1057100064DEB9D055D901E1DED057D0070EE66E70
:10572000E66ABD0E006E630EE7D855E1DBD84AE1AC
:10573000020EDB6E070EF36E030EF3CFDBFFDB50C2
:10574000E76E040EE7CFDBFF040E4CD92FE3200EEB
:10575000F36E020EDBCFF4FFF350F45C27E2040E8D
:105760007AD9200803E0040E76D91DE1040EA1D9F0
:10577000030E71D92D0807E1030EDB28C7D8EF50BF
:1057800002E1030E96D9030EDB5090D9020EDBCF57
:10579000F3FFDB2AF350E66E1FD9040EDB2ADB5041
:1057A000E76E030ECFD7040EDB2ACED70501270EF6
:1057B000FD6F7A0EF5D8E552E552020EE66E90ECDA
:1057C00019F062D0FDD801E186D00501C80EFD6F49
:1057D000790EE6D858D0080EE66EE66AB40E006E72
:1057E000630E8AD859E17ED854E1080EF36E050E97
:1057F000F3CFDBFFF7D86FE3050E2DD9200803E0C8
:10580000050E29D943E1050E54D9080E4FD920ECD5
:1058100039F0E552E552060EF3CFDBFF070EF4CF69
:10582000DBFFE7D8000E005C000E015854E3E8D817
:10583000100E025C000E03584EE2FFD820EC39F047
:10584000E552E552F350E66E060EDBCFE9FF070E98
:10585000DBCFEAFFEB0EE926060EEA22E552E7501F
:10586000EF6EC7D8080E005C000E015834E3E5D88F
:10587000C7D8080E025E000E035A180E0224E66E08
:10588000A4EC3AF0E552E552E55225D0050EDB2AAC
:10589000B1D796D820E011D0050EE66EE66AAE0EBE
:1058A000006E630E29D80FE11DD805E1030EE66EE8
:1058B00090EC19F00FD084D80EE00501C80EFD6FF2
:1058C000790E6ED806D0DBD8A7D8A2EC14F0E5523A
:1058D000E552E552E552080EE15C02E2E16AE5526A
:1058E000E16E6AD0E66A9FD897D8D0D8026E060ECD
:1058F000E15E025000091200BAD8C1D8B9EC34F008
:10590000036E070EE15E035000091200E76EFB0E06
:10591000DBCFE9FFFC0EDBCFEAFFE750E926000E04
:10592000EA221200E76EFB0EDBCF02F0FC0EDBCFAB
:1059300003F0E7500226000E032202C0E6FF03C078
:10594000E6FFA4D8046E060EE15E045000091200C2
:10595000010EE66E13EF2DF0E76EFB0EDBCF00F0CD
:10596000FC0EDBCF01F0E7500026000E01221200F2
:105970007ED86CD84FEC3EF0036E070EE15E03500C
:1059800012004AD80DDDE552E55212005FD84CEF07
:105990002DF00701BC0EE56F640EE66F35EF19F0D0
:1059A000FE6F3AD8E0EF29F07CD8EF501200D9CF43
:1059B000E6FFE1CFD9FF1200E552E7CFD9FF120091
:1059C000000E0601F915120000C0E6FF01C0E6FF57
:1059D0001200E66F35EF19F0A4EC3AF0E552E5520B
:1059E000E5521200DBCF00F0FA0EDB28D88000541D
:1059F0001200060EDBCF00F0070EDBCF01F0120025
:105A0000060EDBCF02F0070EDBCF03F01200E66ECE
:105A100079EC36F0E5521200FD0EDBCFE6FFFE0E0C
:105A2000DBCFE6FF120053D8DECFE6FFDDCFE6FF87
:105A3000B7EC35F0E5525DEF2DF0050EDB508CDF55
:105A4000010E0026000E0122E4EF2CF0000EE66E9F
:105A5000060EE66E1200DB5059DFEF501200A1EC8B
:105A600036F0006E060EE15E0050C6EF2CF0016EBF
:105A7000026A00C0E6FFE66E02C0E6FF1200FB0EFF
:105A8000DBCFE6FFFC0EDBCFE6FF1200DECFE6FF4A
:105A9000DDCFE6FFC5EF35F047EC19F0E552E552F2
:105AA0001200DECFE9FFDDCFEAFF120055DFE4EFA1
